{
  "contractName": "ModiTokenERC20",
  "abi": [
    {
      "constant": true,
      "inputs": [],
      "name": "name",
      "outputs": [
        {
          "name": "",
          "type": "string"
        }
      ],
      "payable": false,
      "stateMutability": "view",
      "type": "function"
    },
    {
      "constant": true,
      "inputs": [],
      "name": "totalSupply",
      "outputs": [
        {
          "name": "",
          "type": "uint256"
        }
      ],
      "payable": false,
      "stateMutability": "view",
      "type": "function"
    },
    {
      "constant": true,
      "inputs": [],
      "name": "decimals",
      "outputs": [
        {
          "name": "",
          "type": "uint8"
        }
      ],
      "payable": false,
      "stateMutability": "view",
      "type": "function"
    },
    {
      "constant": true,
      "inputs": [],
      "name": "_myDecimal",
      "outputs": [
        {
          "name": "",
          "type": "uint8"
        }
      ],
      "payable": false,
      "stateMutability": "view",
      "type": "function"
    },
    {
      "constant": true,
      "inputs": [
        {
          "name": "",
          "type": "address"
        }
      ],
      "name": "balanceOf",
      "outputs": [
        {
          "name": "",
          "type": "uint256"
        }
      ],
      "payable": false,
      "stateMutability": "view",
      "type": "function"
    },
    {
      "constant": true,
      "inputs": [],
      "name": "_myTokeName",
      "outputs": [
        {
          "name": "",
          "type": "string"
        }
      ],
      "payable": false,
      "stateMutability": "view",
      "type": "function"
    },
    {
      "constant": true,
      "inputs": [],
      "name": "symbol",
      "outputs": [
        {
          "name": "",
          "type": "string"
        }
      ],
      "payable": false,
      "stateMutability": "view",
      "type": "function"
    },
    {
      "constant": true,
      "inputs": [],
      "name": "_mySymbol",
      "outputs": [
        {
          "name": "",
          "type": "string"
        }
      ],
      "payable": false,
      "stateMutability": "view",
      "type": "function"
    },
    {
      "constant": true,
      "inputs": [],
      "name": "_myinitialSupply",
      "outputs": [
        {
          "name": "",
          "type": "uint256"
        }
      ],
      "payable": false,
      "stateMutability": "view",
      "type": "function"
    },
    {
      "constant": true,
      "inputs": [
        {
          "name": "",
          "type": "address"
        },
        {
          "name": "",
          "type": "address"
        }
      ],
      "name": "allowance",
      "outputs": [
        {
          "name": "",
          "type": "uint256"
        }
      ],
      "payable": false,
      "stateMutability": "view",
      "type": "function"
    },
    {
      "inputs": [
        {
          "name": "initialSupply",
          "type": "uint256"
        },
        {
          "name": "tokenName",
          "type": "string"
        },
        {
          "name": "tokenSymbol",
          "type": "string"
        }
      ],
      "payable": false,
      "stateMutability": "nonpayable",
      "type": "constructor"
    },
    {
      "anonymous": false,
      "inputs": [
        {
          "indexed": true,
          "name": "from",
          "type": "address"
        },
        {
          "indexed": true,
          "name": "to",
          "type": "address"
        },
        {
          "indexed": false,
          "name": "value",
          "type": "uint256"
        }
      ],
      "name": "Transfer",
      "type": "event"
    },
    {
      "anonymous": false,
      "inputs": [
        {
          "indexed": true,
          "name": "from",
          "type": "address"
        },
        {
          "indexed": false,
          "name": "value",
          "type": "uint256"
        }
      ],
      "name": "Burn",
      "type": "event"
    },
    {
      "constant": false,
      "inputs": [
        {
          "name": "_to",
          "type": "address"
        },
        {
          "name": "_value",
          "type": "uint256"
        }
      ],
      "name": "transfer",
      "outputs": [],
      "payable": false,
      "stateMutability": "nonpayable",
      "type": "function"
    },
    {
      "constant": false,
      "inputs": [
        {
          "name": "_from",
          "type": "address"
        },
        {
          "name": "_to",
          "type": "address"
        },
        {
          "name": "_value",
          "type": "uint256"
        }
      ],
      "name": "transferFrom",
      "outputs": [
        {
          "name": "success",
          "type": "bool"
        }
      ],
      "payable": false,
      "stateMutability": "nonpayable",
      "type": "function"
    },
    {
      "constant": false,
      "inputs": [
        {
          "name": "_spender",
          "type": "address"
        },
        {
          "name": "_value",
          "type": "uint256"
        }
      ],
      "name": "approve",
      "outputs": [
        {
          "name": "success",
          "type": "bool"
        }
      ],
      "payable": false,
      "stateMutability": "nonpayable",
      "type": "function"
    },
    {
      "constant": false,
      "inputs": [
        {
          "name": "_spender",
          "type": "address"
        },
        {
          "name": "_value",
          "type": "uint256"
        },
        {
          "name": "_extraData",
          "type": "bytes"
        }
      ],
      "name": "approveAndCall",
      "outputs": [
        {
          "name": "success",
          "type": "bool"
        }
      ],
      "payable": false,
      "stateMutability": "nonpayable",
      "type": "function"
    },
    {
      "constant": false,
      "inputs": [
        {
          "name": "_value",
          "type": "uint256"
        }
      ],
      "name": "burn",
      "outputs": [
        {
          "name": "success",
          "type": "bool"
        }
      ],
      "payable": false,
      "stateMutability": "nonpayable",
      "type": "function"
    },
    {
      "constant": false,
      "inputs": [
        {
          "name": "_from",
          "type": "address"
        },
        {
          "name": "_value",
          "type": "uint256"
        }
      ],
      "name": "burnFrom",
      "outputs": [
        {
          "name": "success",
          "type": "bool"
        }
      ],
      "payable": false,
      "stateMutability": "nonpayable",
      "type": "function"
    }
  ],
  "bytecode": "0x60806040523480156200001157600080fd5b506040516200151a3803806200151a8339810180604052810190808051906020019092919080518201929190602001805182019291905050506012600260006101000a81548160ff021916908360ff160217905550601260ff16600a0a61271002600381905550600354600460003373ffffffffffffffffffffffffffffffffffffffff1673ffffffffffffffffffffffffffffffffffffffff168152602001908152602001600020819055506040805190810160405280600a81526020017f4d4f444920546f6b656e00000000000000000000000000000000000000000000815250600090805190602001906200010b92919062000163565b506040805190810160405280600481526020017f4d4f444900000000000000000000000000000000000000000000000000000000815250600190805190602001906200015992919062000163565b5050505062000212565b828054600181600116156101000203166002900490600052602060002090601f016020900481019282601f10620001a657805160ff1916838001178555620001d7565b82800160010185558215620001d7579182015b82811115620001d6578251825591602001919060010190620001b9565b5b509050620001e69190620001ea565b5090565b6200020f91905b808211156200020b576000816000905550600101620001f1565b5090565b90565b6112f880620002226000396000f3006080604052600436106100e6576000357c0100000000000000000000000000000000000000000000000000000000900463ffffffff16806306fdde03146100eb578063095ea7b31461017b57806318160ddd146101e057806323b872dd1461020b578063313ce5671461029057806342966c68146102c157806365ce47fb1461030657806370a082311461033757806379cc67901461038e5780638a3db05f146103f357806395d89b4114610483578063a9059cbb14610513578063bc77b91914610560578063cae9ca51146105f0578063dc9c6e151461069b578063dd62ed3e146106c6575b600080fd5b3480156100f757600080fd5b5061010061073d565b6040518080602001828103825283818151815260200191508051906020019080838360005b83811015610140578082015181840152602081019050610125565b50505050905090810190601f16801561016d5780820380516001836020036101000a031916815260200191505b509250505060405180910390f35b34801561018757600080fd5b506101c6600480360381019080803573ffffffffffffffffffffffffffffffffffffffff169060200190929190803590602001909291905050506107db565b604051808215151515815260200191505060405180910390f35b3480156101ec57600080fd5b506101f5610868565b6040518082815260200191505060405180910390f35b34801561021757600080fd5b50610276600480360381019080803573ffffffffffffffffffffffffffffffffffffffff169060200190929190803573ffffffffffffffffffffffffffffffffffffffff1690602001909291908035906020019092919050505061086e565b604051808215151515815260200191505060405180910390f35b34801561029c57600080fd5b506102a561099b565b604051808260ff1660ff16815260200191505060405180910390f35b3480156102cd57600080fd5b506102ec600480360381019080803590602001909291905050506109ae565b604051808215151515815260200191505060405180910390f35b34801561031257600080fd5b5061031b610ab2565b604051808260ff1660ff16815260200191505060405180910390f35b34801561034357600080fd5b50610378600480360381019080803573ffffffffffffffffffffffffffffffffffffffff169060200190929190505050610ab7565b6040518082815260200191505060405180910390f35b34801561039a57600080fd5b506103d9600480360381019080803573ffffffffffffffffffffffffffffffffffffffff16906020019092919080359060200190929190505050610acf565b604051808215151515815260200191505060405180910390f35b3480156103ff57600080fd5b50610408610ce9565b6040518080602001828103825283818151815260200191508051906020019080838360005b8381101561044857808201518184015260208101905061042d565b50505050905090810190601f1680156104755780820380516001836020036101000a031916815260200191505b509250505060405180910390f35b34801561048f57600080fd5b50610498610d22565b6040518080602001828103825283818151815260200191508051906020019080838360005b838110156104d85780820151818401526020810190506104bd565b50505050905090810190601f1680156105055780820380516001836020036101000a031916815260200191505b509250505060405180910390f35b34801561051f57600080fd5b5061055e600480360381019080803573ffffffffffffffffffffffffffffffffffffffff16906020019092919080359060200190929190505050610dc0565b005b34801561056c57600080fd5b50610575610dcf565b6040518080602001828103825283818151815260200191508051906020019080838360005b838110156105b557808201518184015260208101905061059a565b50505050905090810190601f1680156105e25780820380516001836020036101000a031916815260200191505b509250505060405180910390f35b3480156105fc57600080fd5b50610681600480360381019080803573ffffffffffffffffffffffffffffffffffffffff16906020019092919080359060200190929190803590602001908201803590602001908080601f0160208091040260200160405190810160405280939291908181526020018383808284378201915050505050509192919290505050610e08565b604051808215151515815260200191505060405180910390f35b3480156106a757600080fd5b506106b0610f8b565b6040518082815260200191505060405180910390f35b3480156106d257600080fd5b50610727600480360381019080803573ffffffffffffffffffffffffffffffffffffffff169060200190929190803573ffffffffffffffffffffffffffffffffffffffff169060200190929190505050610f91565b6040518082815260200191505060405180910390f35b60008054600181600116156101000203166002900480601f0160208091040260200160405190810160405280929190818152602001828054600181600116156101000203166002900480156107d35780601f106107a8576101008083540402835291602001916107d3565b820191906000526020600020905b8154815290600101906020018083116107b657829003601f168201915b505050505081565b600081600560003373ffffffffffffffffffffffffffffffffffffffff1673ffffffffffffffffffffffffffffffffffffffff16815260200190815260200160002060008573ffffffffffffffffffffffffffffffffffffffff1673ffffffffffffffffffffffffffffffffffffffff168152602001908152602001600020819055506001905092915050565b60035481565b6000600560008573ffffffffffffffffffffffffffffffffffffffff1673ffffffffffffffffffffffffffffffffffffffff16815260200190815260200160002060003373ffffffffffffffffffffffffffffffffffffffff1673ffffffffffffffffffffffffffffffffffffffff1681526020019081526020016000205482111515156108fb57600080fd5b81600560008673ffffffffffffffffffffffffffffffffffffffff1673ffffffffffffffffffffffffffffffffffffffff16815260200190815260200160002060003373ffffffffffffffffffffffffffffffffffffffff1673ffffffffffffffffffffffffffffffffffffffff16815260200190815260200160002060008282540392505081905550610990848484610fb6565b600190509392505050565b600260009054906101000a900460ff1681565b600081600460003373ffffffffffffffffffffffffffffffffffffffff1673ffffffffffffffffffffffffffffffffffffffff16815260200190815260200160002054101515156109fe57600080fd5b81600460003373ffffffffffffffffffffffffffffffffffffffff1673ffffffffffffffffffffffffffffffffffffffff16815260200190815260200160002060008282540392505081905550816003600082825403925050819055503373ffffffffffffffffffffffffffffffffffffffff167fcc16f5dbb4873280815c1ee09dbd06736cffcc184412cf7a71a0fdb75d397ca5836040518082815260200191505060405180910390a260019050919050565b601281565b60046020528060005260406000206000915090505481565b600081600460008573ffffffffffffffffffffffffffffffffffffffff1673ffffffffffffffffffffffffffffffffffffffff1681526020019081526020016000205410151515610b1f57600080fd5b600560008473ffffffffffffffffffffffffffffffffffffffff1673ffffffffffffffffffffffffffffffffffffffff16815260200190815260200160002060003373ffffffffffffffffffffffffffffffffffffffff1673ffffffffffffffffffffffffffffffffffffffff168152602001908152602001600020548211151515610baa57600080fd5b81600460008573ffffffffffffffffffffffffffffffffffffffff1673ffffffffffffffffffffffffffffffffffffffff1681526020019081526020016000206000828254039250508190555081600560008573ffffffffffffffffffffffffffffffffffffffff1673ffffffffffffffffffffffffffffffffffffffff16815260200190815260200160002060003373ffffffffffffffffffffffffffffffffffffffff1673ffffffffffffffffffffffffffffffffffffffff16815260200190815260200160002060008282540392505081905550816003600082825403925050819055508273ffffffffffffffffffffffffffffffffffffffff167fcc16f5dbb4873280815c1ee09dbd06736cffcc184412cf7a71a0fdb75d397ca5836040518082815260200191505060405180910390a26001905092915050565b6040805190810160405280600a81526020017f4d4f444920546f6b656e0000000000000000000000000000000000000000000081525081565b60018054600181600116156101000203166002900480601f016020809104026020016040519081016040528092919081815260200182805460018160011615610100020316600290048015610db85780601f10610d8d57610100808354040283529160200191610db8565b820191906000526020600020905b815481529060010190602001808311610d9b57829003601f168201915b505050505081565b610dcb338383610fb6565b5050565b6040805190810160405280600481526020017f4d4f44490000000000000000000000000000000000000000000000000000000081525081565b600080849050610e1885856107db565b15610f82578073ffffffffffffffffffffffffffffffffffffffff16638f4ffcb1338630876040518563ffffffff167c0100000000000000000000000000000000000000000000000000000000028152600401808573ffffffffffffffffffffffffffffffffffffffff1673ffffffffffffffffffffffffffffffffffffffff1681526020018481526020018373ffffffffffffffffffffffffffffffffffffffff1673ffffffffffffffffffffffffffffffffffffffff16815260200180602001828103825283818151815260200191508051906020019080838360005b83811015610f12578082015181840152602081019050610ef7565b50505050905090810190601f168015610f3f5780820380516001836020036101000a031916815260200191505b5095505050505050600060405180830381600087803b158015610f6157600080fd5b505af1158015610f75573d6000803e3d6000fd5b5050505060019150610f83565b5b509392505050565b61271081565b6005602052816000526040600020602052806000526040600020600091509150505481565b6000808373ffffffffffffffffffffffffffffffffffffffff1614151515610fdd57600080fd5b81600460008673ffffffffffffffffffffffffffffffffffffffff1673ffffffffffffffffffffffffffffffffffffffff168152602001908152602001600020541015151561102b57600080fd5b600460008473ffffffffffffffffffffffffffffffffffffffff1673ffffffffffffffffffffffffffffffffffffffff1681526020019081526020016000205482600460008673ffffffffffffffffffffffffffffffffffffffff1673ffffffffffffffffffffffffffffffffffffffff16815260200190815260200160002054011115156110b957600080fd5b600460008473ffffffffffffffffffffffffffffffffffffffff1673ffffffffffffffffffffffffffffffffffffffff16815260200190815260200160002054600460008673ffffffffffffffffffffffffffffffffffffffff1673ffffffffffffffffffffffffffffffffffffffff1681526020019081526020016000205401905081600460008673ffffffffffffffffffffffffffffffffffffffff1673ffffffffffffffffffffffffffffffffffffffff1681526020019081526020016000206000828254039250508190555081600460008573ffffffffffffffffffffffffffffffffffffffff1673ffffffffffffffffffffffffffffffffffffffff168152602001908152602001600020600082825401925050819055508273ffffffffffffffffffffffffffffffffffffffff168473ffffffffffffffffffffffffffffffffffffffff167fddf252ad1be2c89b69c2b068fc378daa952ba7f163c4a11628f55a4df523b3ef846040518082815260200191505060405180910390a380600460008573ffffffffffffffffffffffffffffffffffffffff1673ffffffffffffffffffffffffffffffffffffffff16815260200190815260200160002054600460008773ffffffffffffffffffffffffffffffffffffffff1673ffffffffffffffffffffffffffffffffffffffff16815260200190815260200160002054011415156112c657fe5b505050505600a165627a7a7230582092ee238e8321fbb0a713e36b3508b7112ccd9323c677ff3e637f62b41083feba0029",
  "source": "pragma solidity ^0.4.16;\n\ncontract sGuardPlus {\n    constructor() internal {}\n\n    function add_uint256(uint256 a, uint256 b) internal pure returns (uint256) {\n        uint256 c = a + b;\n        assert(c >= a);\n        return c;\n    }\n}\n\ncontract owned {\n    address public owner;\n\n    constructor() public {\n        owner = msg.sender;\n    }\n\n    modifier onlyOwner() {\n        require(msg.sender == owner);\n        _;\n    }\n\n    function transferOwnership(address newOwner) public onlyOwner {\n        owner = newOwner;\n    }\n}\n\ninterface tokenRecipient {\n    function receiveApproval(\n        address _from,\n        uint256 _value,\n        address _token,\n        bytes _extraData\n    ) public;\n}\n\ncontract ModiTokenERC20 {\n    string public constant _myTokeName = \"MODI Token\";\n    string public constant _mySymbol = \"MODI\";\n    uint256 public constant _myinitialSupply = 10000;\n    uint8 public constant _myDecimal = 18;\n    string public name;\n    string public symbol;\n    uint8 public decimals;\n    uint256 public totalSupply;\n    mapping(address => uint256) public balanceOf;\n    mapping(address => mapping(address => uint256)) public allowance;\n    event Transfer(address indexed from, address indexed to, uint256 value);\n    event Burn(address indexed from, uint256 value);\n\n    constructor(\n        uint256 initialSupply,\n        string tokenName,\n        string tokenSymbol\n    ) public {\n        decimals = _myDecimal;\n        totalSupply = _myinitialSupply * (10**uint256(_myDecimal));\n        balanceOf[msg.sender] = totalSupply;\n        name = _myTokeName;\n        symbol = _mySymbol;\n    }\n\n    function _transfer(\n        address _from,\n        address _to,\n        uint256 _value\n    ) internal {\n        require(_to != 0x0);\n        require(balanceOf[_from] >= _value);\n        require(balanceOf[_to] + _value > balanceOf[_to]);\n        uint256 previousBalances = balanceOf[_from] + balanceOf[_to];\n        balanceOf[_from] -= _value;\n        balanceOf[_to] += _value;\n        Transfer(_from, _to, _value);\n        assert(balanceOf[_from] + balanceOf[_to] == previousBalances);\n    }\n\n    function transfer(address _to, uint256 _value) public {\n        _transfer(msg.sender, _to, _value);\n    }\n\n    function transferFrom(\n        address _from,\n        address _to,\n        uint256 _value\n    ) public returns (bool success) {\n        require(_value <= allowance[_from][msg.sender]);\n        allowance[_from][msg.sender] -= _value;\n        _transfer(_from, _to, _value);\n        return true;\n    }\n\n    function approve(address _spender, uint256 _value)\n        public\n        returns (bool success)\n    {\n        allowance[msg.sender][_spender] = _value;\n        return true;\n    }\n\n    function approveAndCall(\n        address _spender,\n        uint256 _value,\n        bytes _extraData\n    ) public returns (bool success) {\n        tokenRecipient spender = tokenRecipient(_spender);\n        if (approve(_spender, _value)) {\n            spender.receiveApproval(msg.sender, _value, this, _extraData);\n            return true;\n        }\n    }\n\n    function burn(uint256 _value) public returns (bool success) {\n        require(balanceOf[msg.sender] >= _value);\n        balanceOf[msg.sender] -= _value;\n        totalSupply -= _value;\n        Burn(msg.sender, _value);\n        return true;\n    }\n\n    function burnFrom(address _from, uint256 _value)\n        public\n        returns (bool success)\n    {\n        require(balanceOf[_from] >= _value);\n        require(_value <= allowance[_from][msg.sender]);\n        balanceOf[_from] -= _value;\n        allowance[_from][msg.sender] -= _value;\n        totalSupply -= _value;\n        Burn(_from, _value);\n        return true;\n    }\n}\n\ncontract MyAdvancedToken is sGuardPlus, owned, ModiTokenERC20 {\n    uint256 public sellPrice;\n    uint256 public buyPrice;\n    mapping(address => bool) public frozenAccount;\n    event FrozenFunds(address target, bool frozen);\n\n    constructor(\n        uint256 initialSupply,\n        string tokenName,\n        string tokenSymbol\n    ) public ModiTokenERC20(initialSupply, tokenName, tokenSymbol) {}\n\n    function _transfer(\n        address _from,\n        address _to,\n        uint256 _value\n    ) internal {\n        require(_to != 0x0);\n        require(balanceOf[_from] >= _value);\n        require(balanceOf[_to] + _value > balanceOf[_to]);\n        require(!frozenAccount[_from]);\n        require(!frozenAccount[_to]);\n        balanceOf[_from] -= _value;\n        balanceOf[_to] += _value;\n        Transfer(_from, _to, _value);\n    }\n\n    function mintToken(address target, uint256 mintedAmount) public onlyOwner {\n        balanceOf[target] = add_uint256(balanceOf[target], mintedAmount);\n        totalSupply = add_uint256(totalSupply, mintedAmount);\n        Transfer(0, this, mintedAmount);\n        Transfer(this, target, mintedAmount);\n    }\n\n    function freezeAccount(address target, bool freeze) public onlyOwner {\n        frozenAccount[target] = freeze;\n        FrozenFunds(target, freeze);\n    }\n\n    function setPrices(uint256 newSellPrice, uint256 newBuyPrice)\n        public\n        onlyOwner\n    {\n        sellPrice = newSellPrice;\n        buyPrice = newBuyPrice;\n    }\n\n    function buy() public payable {\n        uint256 amount = msg.value / buyPrice;\n        _transfer(this, msg.sender, amount);\n    }\n\n    function sell(uint256 amount) public {\n        require(this.balance >= amount * sellPrice);\n        _transfer(msg.sender, this, amount);\n        msg.sender.transfer(amount * sellPrice);\n    }\n}\n",
  "sourcePath": "/workdir/truffle_example/after/0x68E03D2DA62D026403C68601D650c877901876BF/contracts/0x68E03D2DA62D026403C68601D650c877901876BF.sol.fixed.sol",
  "compiler": {
    "name": "solc",
    "version": "0.4.25+commit.59dbf8f1.Emscripten.clang"
  },
  "schemaVersion": "3.4.8",
  "updatedAt": "2022-08-13T02:55:22.222Z",
  "networkType": "ethereum",
  "devdoc": {
    "methods": {}
  },
  "userdoc": {
    "methods": {}
  }
}