{
  "contractName": "ExtendetdToken",
  "abi": [
    {
      "constant": true,
      "inputs": [],
      "name": "name",
      "outputs": [
        {
          "name": "",
          "type": "string"
        }
      ],
      "payable": false,
      "stateMutability": "view",
      "type": "function"
    },
    {
      "constant": false,
      "inputs": [
        {
          "name": "_spender",
          "type": "address"
        },
        {
          "name": "_value",
          "type": "uint256"
        }
      ],
      "name": "approve",
      "outputs": [
        {
          "name": "",
          "type": "bool"
        }
      ],
      "payable": false,
      "stateMutability": "nonpayable",
      "type": "function"
    },
    {
      "constant": true,
      "inputs": [],
      "name": "totalSupply",
      "outputs": [
        {
          "name": "",
          "type": "uint256"
        }
      ],
      "payable": false,
      "stateMutability": "view",
      "type": "function"
    },
    {
      "constant": false,
      "inputs": [
        {
          "name": "_from",
          "type": "address"
        },
        {
          "name": "_to",
          "type": "address"
        },
        {
          "name": "_value",
          "type": "uint256"
        }
      ],
      "name": "transferFrom",
      "outputs": [
        {
          "name": "",
          "type": "bool"
        }
      ],
      "payable": false,
      "stateMutability": "nonpayable",
      "type": "function"
    },
    {
      "constant": true,
      "inputs": [],
      "name": "decimals",
      "outputs": [
        {
          "name": "",
          "type": "uint256"
        }
      ],
      "payable": false,
      "stateMutability": "view",
      "type": "function"
    },
    {
      "constant": true,
      "inputs": [
        {
          "name": "",
          "type": "address"
        }
      ],
      "name": "balanceOf",
      "outputs": [
        {
          "name": "",
          "type": "uint256"
        }
      ],
      "payable": false,
      "stateMutability": "view",
      "type": "function"
    },
    {
      "constant": true,
      "inputs": [],
      "name": "symbol",
      "outputs": [
        {
          "name": "",
          "type": "string"
        }
      ],
      "payable": false,
      "stateMutability": "view",
      "type": "function"
    },
    {
      "constant": false,
      "inputs": [
        {
          "name": "_to",
          "type": "address"
        },
        {
          "name": "_value",
          "type": "uint256"
        }
      ],
      "name": "transfer",
      "outputs": [
        {
          "name": "",
          "type": "bool"
        }
      ],
      "payable": false,
      "stateMutability": "nonpayable",
      "type": "function"
    },
    {
      "constant": true,
      "inputs": [
        {
          "name": "",
          "type": "address"
        },
        {
          "name": "",
          "type": "address"
        }
      ],
      "name": "allowance",
      "outputs": [
        {
          "name": "",
          "type": "uint256"
        }
      ],
      "payable": false,
      "stateMutability": "view",
      "type": "function"
    },
    {
      "anonymous": false,
      "inputs": [
        {
          "indexed": true,
          "name": "from",
          "type": "address"
        },
        {
          "indexed": true,
          "name": "to",
          "type": "address"
        },
        {
          "indexed": false,
          "name": "value",
          "type": "uint256"
        }
      ],
      "name": "Transfer",
      "type": "event"
    },
    {
      "anonymous": false,
      "inputs": [
        {
          "indexed": true,
          "name": "owner",
          "type": "address"
        },
        {
          "indexed": true,
          "name": "spender",
          "type": "address"
        },
        {
          "indexed": false,
          "name": "value",
          "type": "uint256"
        }
      ],
      "name": "Approval",
      "type": "event"
    },
    {
      "constant": false,
      "inputs": [
        {
          "name": "_receivers",
          "type": "address[]"
        },
        {
          "name": "_value",
          "type": "uint256"
        }
      ],
      "name": "batchTransfer",
      "outputs": [
        {
          "name": "",
          "type": "bool"
        }
      ],
      "payable": false,
      "stateMutability": "nonpayable",
      "type": "function"
    }
  ],
  "bytecode": "0x608060405234801561001057600080fd5b50610e0a806100206000396000f3006080604052600436106100a4576000357c0100000000000000000000000000000000000000000000000000000000900463ffffffff16806306fdde03146100a9578063095ea7b31461013957806318160ddd1461019e57806323b872dd146101c9578063313ce5671461024e57806370a082311461027957806383f12fec146102d057806395d89b4114610358578063a9059cbb146103e8578063dd62ed3e1461044d575b600080fd5b3480156100b557600080fd5b506100be6104c4565b6040518080602001828103825283818151815260200191508051906020019080838360005b838110156100fe5780820151818401526020810190506100e3565b50505050905090810190601f16801561012b5780820380516001836020036101000a031916815260200191505b509250505060405180910390f35b34801561014557600080fd5b50610184600480360381019080803573ffffffffffffffffffffffffffffffffffffffff16906020019092919080359060200190929190505050610562565b604051808215151515815260200191505060405180910390f35b3480156101aa57600080fd5b506101b3610654565b6040518082815260200191505060405180910390f35b3480156101d557600080fd5b50610234600480360381019080803573ffffffffffffffffffffffffffffffffffffffff169060200190929190803573ffffffffffffffffffffffffffffffffffffffff1690602001909291908035906020019092919050505061065a565b604051808215151515815260200191505060405180910390f35b34801561025a57600080fd5b50610263610951565b6040518082815260200191505060405180910390f35b34801561028557600080fd5b506102ba600480360381019080803573ffffffffffffffffffffffffffffffffffffffff169060200190929190505050610957565b6040518082815260200191505060405180910390f35b3480156102dc57600080fd5b5061033e600480360381019080803590602001908201803590602001908080602002602001604051908101604052809392919081815260200183836020028082843782019150505050505091929192908035906020019092919050505061096f565b604051808215151515815260200191505060405180910390f35b34801561036457600080fd5b5061036d610b35565b6040518080602001828103825283818151815260200191508051906020019080838360005b838110156103ad578082015181840152602081019050610392565b50505050905090810190601f1680156103da5780820380516001836020036101000a031916815260200191505b509250505060405180910390f35b3480156103f457600080fd5b50610433600480360381019080803573ffffffffffffffffffffffffffffffffffffffff16906020019092919080359060200190929190505050610bd3565b604051808215151515815260200191505060405180910390f35b34801561045957600080fd5b506104ae600480360381019080803573ffffffffffffffffffffffffffffffffffffffff169060200190929190803573ffffffffffffffffffffffffffffffffffffffff169060200190929190505050610db9565b6040518082815260200191505060405180910390f35b60008054600181600116156101000203166002900480601f01602080910402602001604051908101604052809291908181526020018280546001816001161561010002031660029004801561055a5780601f1061052f5761010080835404028352916020019161055a565b820191906000526020600020905b81548152906001019060200180831161053d57829003601f168201915b505050505081565b600081600560003373ffffffffffffffffffffffffffffffffffffffff1673ffffffffffffffffffffffffffffffffffffffff16815260200190815260200160002060008573ffffffffffffffffffffffffffffffffffffffff1673ffffffffffffffffffffffffffffffffffffffff168152602001908152602001600020819055508273ffffffffffffffffffffffffffffffffffffffff163373ffffffffffffffffffffffffffffffffffffffff167f8c5be1e5ebec7d5bd14f71427d1e84f3dd0314c0f7b2291e5b200ac8c7c3b925846040518082815260200191505060405180910390a36001905092915050565b60035481565b6000600460008573ffffffffffffffffffffffffffffffffffffffff1673ffffffffffffffffffffffffffffffffffffffff168152602001908152602001600020548211806107245750600560008573ffffffffffffffffffffffffffffffffffffffff1673ffffffffffffffffffffffffffffffffffffffff16815260200190815260200160002060003373ffffffffffffffffffffffffffffffffffffffff1673ffffffffffffffffffffffffffffffffffffffff1681526020019081526020016000205482115b806107ae5750600460008473ffffffffffffffffffffffffffffffffffffffff1673ffffffffffffffffffffffffffffffffffffffff1681526020019081526020016000205482600460008673ffffffffffffffffffffffffffffffffffffffff1673ffffffffffffffffffffffffffffffffffffffff1681526020019081526020016000205401105b156107bc576000905061094a565b81600460008673ffffffffffffffffffffffffffffffffffffffff1673ffffffffffffffffffffffffffffffffffffffff1681526020019081526020016000206000828254039250508190555081600460008573ffffffffffffffffffffffffffffffffffffffff1673ffffffffffffffffffffffffffffffffffffffff1681526020019081526020016000206000828254019250508190555081600560008673ffffffffffffffffffffffffffffffffffffffff1673ffffffffffffffffffffffffffffffffffffffff16815260200190815260200160002060003373ffffffffffffffffffffffffffffffffffffffff1673ffffffffffffffffffffffffffffffffffffffff168152602001908152602001600020600082825403925050819055508273ffffffffffffffffffffffffffffffffffffffff168473ffffffffffffffffffffffffffffffffffffffff167fddf252ad1be2c89b69c2b068fc378daa952ba7f163c4a11628f55a4df523b3ef846040518082815260200191505060405180910390a3600190505b9392505050565b60025481565b60046020528060005260406000206000915090505481565b60008060008085519250848302915060008214156109905760009350610b2c565b81600460003373ffffffffffffffffffffffffffffffffffffffff1673ffffffffffffffffffffffffffffffffffffffff1681526020019081526020016000205410156109e05760009350610b2c565b81600460003373ffffffffffffffffffffffffffffffffffffffff1673ffffffffffffffffffffffffffffffffffffffff16815260200190815260200160002060008282540392505081905550600090505b82811015610b275784600460008884815181101515610a4d57fe5b9060200190602002015173ffffffffffffffffffffffffffffffffffffffff1673ffffffffffffffffffffffffffffffffffffffff168152602001908152602001600020600082825401925050819055508581815181101515610aac57fe5b9060200190602002015173ffffffffffffffffffffffffffffffffffffffff163373ffffffffffffffffffffffffffffffffffffffff167fddf252ad1be2c89b69c2b068fc378daa952ba7f163c4a11628f55a4df523b3ef876040518082815260200191505060405180910390a38080600101915050610a32565b600193505b50505092915050565b60018054600181600116156101000203166002900480601f016020809104026020016040519081016040528092919081815260200182805460018160011615610100020316600290048015610bcb5780601f10610ba057610100808354040283529160200191610bcb565b820191906000526020600020905b815481529060010190602001808311610bae57829003601f168201915b505050505081565b6000600460003373ffffffffffffffffffffffffffffffffffffffff1673ffffffffffffffffffffffffffffffffffffffff16815260200190815260200160002054821180610ca15750600460008473ffffffffffffffffffffffffffffffffffffffff1673ffffffffffffffffffffffffffffffffffffffff1681526020019081526020016000205482600460008673ffffffffffffffffffffffffffffffffffffffff1673ffffffffffffffffffffffffffffffffffffffff1681526020019081526020016000205401105b15610caf5760009050610db3565b81600460003373ffffffffffffffffffffffffffffffffffffffff1673ffffffffffffffffffffffffffffffffffffffff1681526020019081526020016000206000828254039250508190555081600460008573ffffffffffffffffffffffffffffffffffffffff1673ffffffffffffffffffffffffffffffffffffffff168152602001908152602001600020600082825401925050819055508273ffffffffffffffffffffffffffffffffffffffff163373ffffffffffffffffffffffffffffffffffffffff167fddf252ad1be2c89b69c2b068fc378daa952ba7f163c4a11628f55a4df523b3ef846040518082815260200191505060405180910390a3600190505b92915050565b60056020528160005260406000206020528060005260406000206000915091505054815600a165627a7a723058204678fe90011934ca554aa47931646d0f4f3dd172d3b74ff8af0c38869938a2ea0029",
  "source": "contract StandardToken\n{\n    string public name;\n    string public symbol; \n    uint256 public decimals;\n    uint256 public totalSupply;\n    mapping(address => uint256) public balanceOf;\n    mapping (address => mapping (address => uint256)) public allowance;\n    \n    event Transfer(address indexed from, address indexed to, uint256 value);\n    event Approval(address indexed owner, address indexed spender, uint256 value);\n    \n    function transfer(address _to, uint256 _value) public returns (bool) {\n        if( _value > balanceOf[msg.sender] || (balanceOf[_to]+_value) < balanceOf[_to]) return false;\n        balanceOf[msg.sender] -= _value;\n        balanceOf[_to] += _value;\n        Transfer(msg.sender, _to, _value);\n        return true;\n    }\n    \n    function transferFrom(address _from, address _to, uint256 _value) public returns (bool) {\n        if( _value > balanceOf[_from] || _value > allowance[_from][msg.sender] || (balanceOf[_to]+_value) < balanceOf[_to] ) return false;\n        balanceOf[_from] -=_value;\n        balanceOf[_to] += _value;\n        allowance[_from][msg.sender] -= _value;\n        Transfer(_from, _to, _value);\n        return true;\n    }\n    \n    function approve(address _spender, uint256 _value) public returns (bool) {\n        allowance[msg.sender][_spender] = _value;\n        Approval(msg.sender, _spender, _value);\n        return true;\n    }\n}\n\ncontract ExtendetdToken is StandardToken\n{\n    function batchTransfer(address[] _receivers, uint256 _value) public returns (bool) { \n        uint256 cnt = _receivers.length;\n        uint256 amount = cnt * _value;\n        if(amount == 0) return false;\n        if(balanceOf[msg.sender] < amount) return false;\n        balanceOf[msg.sender] -= amount;\n        for (uint i = 0; i < cnt; i++) {\n            balanceOf[_receivers[i]] += _value;\n            Transfer(msg.sender, _receivers[i], _value);\n            }\n        return true;\n    }\n}\n\ncontract Traded is ExtendetdToken\n{\n    mapping (address=>bool) public managers;\n    \n    modifier onlyManager()\n    {\n        if(!managers[msg.sender])throw;\n        _;\n    }\n    \n    event deal(address indexed seller, address indexed buyer, uint256 amount, uint256 price, bytes32 indexed data);\n    \n    function Trade(uint256 _qty, uint256 _price, bytes32 _data, address _seller, address _buyer) payable onlyManager\n    {\n        if(balanceOf[_seller]<_qty)return;\n        if(balanceOf[_buyer]+_qty<balanceOf[_buyer])return;\n        uint256 total = _qty*_price;\n        _seller.transfer(total);\n        balanceOf[_seller]-=_qty;\n        balanceOf[_buyer]+=_qty;\n        Transfer(_seller,_buyer,_qty);\n        deal(_seller,_buyer,_qty,_price,_data);\n    }\n    \n}\n\ncontract Shark is Traded\n{\n    function Shark()\n    {\n        name = \"SHARK TECH\";\n        symbol = \"SKT\";\n        decimals = 18;\n        totalSupply = 100000000000000000000000;\n        balanceOf[msg.sender]=totalSupply;\n        managers[this]=true;\n    }\n    \n    address public owner = msg.sender;\n    \n    uint256 public price = 1;\n    \n    modifier onlyHuman()\n    {\n        if(msg.sender!=tx.origin)throw;\n        _;\n    }\n    \n    modifier onlyOwner()\n    {\n        if(msg.sender!=owner)throw;\n        _;\n    }\n    \n    function changePrice(uint256 _newPrice)\n    onlyOwner\n    {\n        if(_newPrice>price)\n        {\n            price = _newPrice;\n        }\n    }\n    \n    function Buy()\n    payable\n    onlyHuman\n    {\n        if(msg.value<price*1 ether)throw;\n        this.Trade(msg.value/price,price,\"\",owner,msg.sender); \n    }\n    \n    function Sell(uint256 _qty) \n    payable\n    onlyHuman\n    {\n        if(this.balance<_qty*price)throw;\n        this.Trade(_qty,price,\"buyback\",msg.sender,owner);\n    }\n    \n    function airDrop(address[] _adr,uint256 _val)\n    public\n    payable\n    {\n        if(msg.value >= _adr.length * _val)\n        {\n            Buy();\n            batchTransfer(_adr,_val);\n        }\n    }\n    \n    function cashOut(uint256 _am)\n    onlyOwner\n    payable\n    {\n        owner.transfer(_am);\n    }\n    \n    function() public payable{}\n    \n}\n",
  "sourcePath": "/workdir/truffle_example/0xf4ac238121585456DeE1096fED287F4d8906D519/contracts/0xf4ac238121585456DeE1096fED287F4d8906D519.sol",
  "compiler": {
    "name": "solc",
    "version": "0.4.25+commit.59dbf8f1.Emscripten.clang"
  },
  "schemaVersion": "3.4.8",
  "updatedAt": "2022-08-11T13:49:55.820Z",
  "devdoc": {
    "methods": {}
  },
  "userdoc": {
    "methods": {}
  }
}