{
  "contractName": "SimpleWallet",
  "abi": [
    {
      "constant": true,
      "inputs": [],
      "name": "depositsCount",
      "outputs": [
        {
          "name": "",
          "type": "uint256"
        }
      ],
      "payable": false,
      "stateMutability": "view",
      "type": "function"
    },
    {
      "constant": true,
      "inputs": [],
      "name": "owner",
      "outputs": [
        {
          "name": "",
          "type": "address"
        }
      ],
      "payable": false,
      "stateMutability": "view",
      "type": "function"
    },
    {
      "payable": true,
      "stateMutability": "payable",
      "type": "fallback"
    },
    {
      "constant": false,
      "inputs": [],
      "name": "withdrawAll",
      "outputs": [],
      "payable": false,
      "stateMutability": "nonpayable",
      "type": "function"
    },
    {
      "constant": false,
      "inputs": [
        {
          "name": "_value",
          "type": "uint256"
        }
      ],
      "name": "withdraw",
      "outputs": [],
      "payable": false,
      "stateMutability": "nonpayable",
      "type": "function"
    },
    {
      "constant": false,
      "inputs": [
        {
          "name": "_target",
          "type": "address"
        },
        {
          "name": "_value",
          "type": "uint256"
        }
      ],
      "name": "sendMoney",
      "outputs": [],
      "payable": false,
      "stateMutability": "nonpayable",
      "type": "function"
    }
  ],
  "bytecode": "0x6080604052336000806101000a81548173ffffffffffffffffffffffffffffffffffffffff021916908373ffffffffffffffffffffffffffffffffffffffff16021790555034801561005057600080fd5b506103a9806100606000396000f30060806040526004361061006d576000357c0100000000000000000000000000000000000000000000000000000000900463ffffffff1680632e1a7d4d146100815780634506e935146100ae578063853828b6146100d95780638da5cb5b146100f0578063ee4ae2c914610147575b600160008154809291906001019190505550005b34801561008d57600080fd5b506100ac60048036038101908080359060200190929190505050610194565b005b3480156100ba57600080fd5b506100c3610239565b6040518082815260200191505060405180910390f35b3480156100e557600080fd5b506100ee61023f565b005b3480156100fc57600080fd5b506101056102bc565b604051808273ffffffffffffffffffffffffffffffffffffffff1673ffffffffffffffffffffffffffffffffffffffff16815260200191505060405180910390f35b34801561015357600080fd5b50610192600480360381019080803573ffffffffffffffffffffffffffffffffffffffff169060200190929190803590602001909291905050506102e1565b005b6000809054906101000a900473ffffffffffffffffffffffffffffffffffffffff1673ffffffffffffffffffffffffffffffffffffffff163373ffffffffffffffffffffffffffffffffffffffff161415156101ef57600080fd5b3373ffffffffffffffffffffffffffffffffffffffff166108fc829081150290604051600060405180830381858888f19350505050158015610235573d6000803e3d6000fd5b5050565b60015481565b6000809054906101000a900473ffffffffffffffffffffffffffffffffffffffff1673ffffffffffffffffffffffffffffffffffffffff163373ffffffffffffffffffffffffffffffffffffffff1614151561029a57600080fd5b6102ba3073ffffffffffffffffffffffffffffffffffffffff1631610194565b565b6000809054906101000a900473ffffffffffffffffffffffffffffffffffffffff1681565b60008060009054906101000a900473ffffffffffffffffffffffffffffffffffffffff1673ffffffffffffffffffffffffffffffffffffffff163373ffffffffffffffffffffffffffffffffffffffff1614151561033e57600080fd5b8273ffffffffffffffffffffffffffffffffffffffff168260405160006040518083038185875af192505050905080151561037857600080fd5b5050505600a165627a7a7230582096b25822424e3422fb3ac748a2cd91ab996e921deda5ff3c9a1c377ea746e1f80029",
  "source": "pragma solidity ^0.4.24;\n\ncontract sGuardPlus {\n    constructor() internal {}\n}\n\ncontract SimpleWallet {\n    address public owner = msg.sender;\n    uint256 public depositsCount;\n    modifier onlyOwner() {\n        require(msg.sender == owner);\n        _;\n    }\n\n    function() public payable {\n        depositsCount++;\n    }\n\n    function withdrawAll() public onlyOwner {\n        withdraw(address(this).balance);\n    }\n\n    function withdraw(uint256 _value) public onlyOwner {\n        msg.sender.transfer(_value);\n    }\n\n    function sendMoney(address _target, uint256 _value) public onlyOwner {\n        bool __sent_result100 = _target.call.value(_value)();\n        require(__sent_result100);\n    }\n}\n",
  "sourcePath": "/workdir/truffle_example/after/0xb37f18af15bafb869a065b61fc83cfc44ed9cc27/contracts/0xb37f18af15bafb869a065b61fc83cfc44ed9cc27.sol.fixed.sol",
  "compiler": {
    "name": "solc",
    "version": "0.4.25+commit.59dbf8f1.Emscripten.clang"
  },
  "schemaVersion": "3.4.8",
  "updatedAt": "2022-08-13T05:56:41.977Z",
  "networkType": "ethereum",
  "devdoc": {
    "methods": {}
  },
  "userdoc": {
    "methods": {}
  }
}