{
  "contractName": "JiucaiToken",
  "abi": [
    {
      "constant": true,
      "inputs": [],
      "name": "name",
      "outputs": [
        {
          "name": "",
          "type": "string"
        }
      ],
      "payable": false,
      "stateMutability": "view",
      "type": "function"
    },
    {
      "constant": false,
      "inputs": [
        {
          "name": "_spender",
          "type": "address"
        },
        {
          "name": "_value",
          "type": "uint256"
        }
      ],
      "name": "approve",
      "outputs": [
        {
          "name": "success",
          "type": "bool"
        }
      ],
      "payable": false,
      "stateMutability": "nonpayable",
      "type": "function"
    },
    {
      "constant": true,
      "inputs": [],
      "name": "totalSupply",
      "outputs": [
        {
          "name": "",
          "type": "uint256"
        }
      ],
      "payable": false,
      "stateMutability": "view",
      "type": "function"
    },
    {
      "constant": false,
      "inputs": [
        {
          "name": "_from",
          "type": "address"
        },
        {
          "name": "_to",
          "type": "address"
        },
        {
          "name": "_value",
          "type": "uint256"
        }
      ],
      "name": "transferFrom",
      "outputs": [
        {
          "name": "success",
          "type": "bool"
        }
      ],
      "payable": false,
      "stateMutability": "nonpayable",
      "type": "function"
    },
    {
      "constant": true,
      "inputs": [],
      "name": "decimals",
      "outputs": [
        {
          "name": "",
          "type": "uint8"
        }
      ],
      "payable": false,
      "stateMutability": "view",
      "type": "function"
    },
    {
      "constant": false,
      "inputs": [],
      "name": "kill",
      "outputs": [],
      "payable": false,
      "stateMutability": "nonpayable",
      "type": "function"
    },
    {
      "constant": false,
      "inputs": [
        {
          "name": "_value",
          "type": "uint256"
        }
      ],
      "name": "burn",
      "outputs": [
        {
          "name": "success",
          "type": "bool"
        }
      ],
      "payable": false,
      "stateMutability": "nonpayable",
      "type": "function"
    },
    {
      "constant": true,
      "inputs": [
        {
          "name": "",
          "type": "address"
        }
      ],
      "name": "balanceOf",
      "outputs": [
        {
          "name": "",
          "type": "uint256"
        }
      ],
      "payable": false,
      "stateMutability": "view",
      "type": "function"
    },
    {
      "constant": false,
      "inputs": [
        {
          "name": "_from",
          "type": "address"
        },
        {
          "name": "_value",
          "type": "uint256"
        }
      ],
      "name": "burnFrom",
      "outputs": [
        {
          "name": "success",
          "type": "bool"
        }
      ],
      "payable": false,
      "stateMutability": "nonpayable",
      "type": "function"
    },
    {
      "constant": true,
      "inputs": [],
      "name": "owner",
      "outputs": [
        {
          "name": "",
          "type": "address"
        }
      ],
      "payable": false,
      "stateMutability": "view",
      "type": "function"
    },
    {
      "constant": true,
      "inputs": [],
      "name": "symbol",
      "outputs": [
        {
          "name": "",
          "type": "string"
        }
      ],
      "payable": false,
      "stateMutability": "view",
      "type": "function"
    },
    {
      "constant": true,
      "inputs": [],
      "name": "price",
      "outputs": [
        {
          "name": "",
          "type": "uint256"
        }
      ],
      "payable": false,
      "stateMutability": "view",
      "type": "function"
    },
    {
      "constant": false,
      "inputs": [
        {
          "name": "_to",
          "type": "address"
        },
        {
          "name": "_value",
          "type": "uint256"
        }
      ],
      "name": "transfer",
      "outputs": [],
      "payable": false,
      "stateMutability": "nonpayable",
      "type": "function"
    },
    {
      "constant": true,
      "inputs": [
        {
          "name": "",
          "type": "address"
        }
      ],
      "name": "frozenAccount",
      "outputs": [
        {
          "name": "",
          "type": "bool"
        }
      ],
      "payable": false,
      "stateMutability": "view",
      "type": "function"
    },
    {
      "constant": true,
      "inputs": [],
      "name": "priceInc",
      "outputs": [
        {
          "name": "",
          "type": "uint256"
        }
      ],
      "payable": false,
      "stateMutability": "view",
      "type": "function"
    },
    {
      "constant": true,
      "inputs": [],
      "name": "transferFees",
      "outputs": [
        {
          "name": "",
          "type": "uint256"
        }
      ],
      "payable": false,
      "stateMutability": "view",
      "type": "function"
    },
    {
      "constant": false,
      "inputs": [
        {
          "name": "_spender",
          "type": "address"
        },
        {
          "name": "_value",
          "type": "uint256"
        },
        {
          "name": "_extraData",
          "type": "bytes"
        }
      ],
      "name": "approveAndCall",
      "outputs": [
        {
          "name": "success",
          "type": "bool"
        }
      ],
      "payable": false,
      "stateMutability": "nonpayable",
      "type": "function"
    },
    {
      "constant": true,
      "inputs": [
        {
          "name": "",
          "type": "address"
        },
        {
          "name": "",
          "type": "address"
        }
      ],
      "name": "allowance",
      "outputs": [
        {
          "name": "",
          "type": "uint256"
        }
      ],
      "payable": false,
      "stateMutability": "view",
      "type": "function"
    },
    {
      "constant": false,
      "inputs": [
        {
          "name": "newOwner",
          "type": "address"
        }
      ],
      "name": "transferOwnership",
      "outputs": [],
      "payable": false,
      "stateMutability": "nonpayable",
      "type": "function"
    },
    {
      "inputs": [
        {
          "name": "initialSupply",
          "type": "uint256"
        },
        {
          "name": "initialDecimals",
          "type": "uint8"
        },
        {
          "name": "tokenName",
          "type": "string"
        },
        {
          "name": "tokenSymbol",
          "type": "string"
        }
      ],
      "payable": false,
      "stateMutability": "nonpayable",
      "type": "constructor"
    },
    {
      "payable": true,
      "stateMutability": "payable",
      "type": "fallback"
    },
    {
      "anonymous": false,
      "inputs": [
        {
          "indexed": false,
          "name": "target",
          "type": "address"
        },
        {
          "indexed": false,
          "name": "frozen",
          "type": "bool"
        }
      ],
      "name": "FrozenFunds",
      "type": "event"
    },
    {
      "anonymous": false,
      "inputs": [
        {
          "indexed": true,
          "name": "from",
          "type": "address"
        },
        {
          "indexed": true,
          "name": "to",
          "type": "address"
        },
        {
          "indexed": false,
          "name": "value",
          "type": "uint256"
        }
      ],
      "name": "Transfer",
      "type": "event"
    },
    {
      "anonymous": false,
      "inputs": [
        {
          "indexed": true,
          "name": "from",
          "type": "address"
        },
        {
          "indexed": false,
          "name": "value",
          "type": "uint256"
        }
      ],
      "name": "Burn",
      "type": "event"
    },
    {
      "constant": false,
      "inputs": [
        {
          "name": "target",
          "type": "address"
        },
        {
          "name": "mintedAmount",
          "type": "uint256"
        }
      ],
      "name": "mintToken",
      "outputs": [],
      "payable": false,
      "stateMutability": "nonpayable",
      "type": "function"
    },
    {
      "constant": false,
      "inputs": [
        {
          "name": "target",
          "type": "address"
        },
        {
          "name": "freeze",
          "type": "bool"
        }
      ],
      "name": "freezeAccount",
      "outputs": [],
      "payable": false,
      "stateMutability": "nonpayable",
      "type": "function"
    },
    {
      "constant": false,
      "inputs": [
        {
          "name": "newPrice",
          "type": "uint256"
        },
        {
          "name": "newPriceInc",
          "type": "uint256"
        },
        {
          "name": "newTransferFees",
          "type": "uint256"
        }
      ],
      "name": "setPrices",
      "outputs": [],
      "payable": false,
      "stateMutability": "nonpayable",
      "type": "function"
    },
    {
      "constant": false,
      "inputs": [],
      "name": "buy",
      "outputs": [],
      "payable": true,
      "stateMutability": "payable",
      "type": "function"
    },
    {
      "constant": false,
      "inputs": [
        {
          "name": "amount",
          "type": "uint256"
        }
      ],
      "name": "sell",
      "outputs": [],
      "payable": false,
      "stateMutability": "nonpayable",
      "type": "function"
    }
  ],
  "bytecode": "0x60806040526012600360006101000a81548160ff021916908360ff1602179055503480156200002d57600080fd5b5060405162001cd538038062001cd58339810180604052810190808051906020019092919080519060200190929190805182019291906020018051820192919050505083838383336000806101000a81548173ffffffffffffffffffffffffffffffffffffffff021916908373ffffffffffffffffffffffffffffffffffffffff16021790555082600360006101000a81548160ff021916908360ff160217905550620001178462000102600a600360009054906101000a900460ff1660ff16620001cd640100000000026401000000009004565b62000230640100000000026401000000009004565b600481905550600454600560003373ffffffffffffffffffffffffffffffffffffffff1673ffffffffffffffffffffffffffffffffffffffff1681526020019081526020016000208190555081600190805190602001906200017b9291906200028e565b508060029080519060200190620001949291906200028e565b5050505050662386f26fc10000600781905550662386f26fc1000060088190555066470de4df820000600981905550505050506200033d565b600080600060019150600090505b838110156200022557620001ff828662000230640100000000026401000000009004565b91506200021d8160016200026f640100000000026401000000009004565b9050620001db565b819250505092915050565b600080600084141562000247576000915062000268565b82840290508284828115156200025957fe5b041415156200026457fe5b8091505b5092915050565b60008082840190508381101515156200028457fe5b8091505092915050565b828054600181600116156101000203166002900490600052602060002090601f016020900481019282601f10620002d157805160ff191683800117855562000302565b8280016001018555821562000302579182015b8281111562000301578251825591602001919060010190620002e4565b5b50905062000311919062000315565b5090565b6200033a91905b80821115620003365760008160009055506001016200031c565b5090565b90565b611988806200034d6000396000f30060806040526004361061013e576000357c0100000000000000000000000000000000000000000000000000000000900463ffffffff16806306fdde0314610140578063095ea7b3146101d057806318160ddd1461023557806323b872dd14610260578063313ce567146102e557806341c0e1b51461031657806342966c681461032d57806370a082311461037257806379c65068146103c957806379cc6790146104165780638da5cb5b1461047b57806395d89b41146104d2578063a035b1fe14610562578063a6f2ae3a1461058d578063a88fe42d14610597578063a9059cbb146105d8578063b414d4b614610625578063baaefe5b14610680578063c2fbe7bc146106ab578063cae9ca51146106d6578063dd62ed3e14610781578063e4849b32146107f8578063e724529c14610825578063f2fde38b14610874575b005b34801561014c57600080fd5b506101556108b7565b6040518080602001828103825283818151815260200191508051906020019080838360005b8381101561019557808201518184015260208101905061017a565b50505050905090810190601f1680156101c25780820380516001836020036101000a031916815260200191505b509250505060405180910390f35b3480156101dc57600080fd5b5061021b600480360381019080803573ffffffffffffffffffffffffffffffffffffffff16906020019092919080359060200190929190505050610955565b604051808215151515815260200191505060405180910390f35b34801561024157600080fd5b5061024a6109e2565b6040518082815260200191505060405180910390f35b34801561026c57600080fd5b506102cb600480360381019080803573ffffffffffffffffffffffffffffffffffffffff169060200190929190803573ffffffffffffffffffffffffffffffffffffffff169060200190929190803590602001909291905050506109e8565b604051808215151515815260200191505060405180910390f35b3480156102f157600080fd5b506102fa610b19565b604051808260ff1660ff16815260200191505060405180910390f35b34801561032257600080fd5b5061032b610b2c565b005b34801561033957600080fd5b5061035860048036038101908080359060200190929190505050610bc1565b604051808215151515815260200191505060405180910390f35b34801561037e57600080fd5b506103b3600480360381019080803573ffffffffffffffffffffffffffffffffffffffff169060200190929190505050610cc5565b6040518082815260200191505060405180910390f35b3480156103d557600080fd5b50610414600480360381019080803573ffffffffffffffffffffffffffffffffffffffff16906020019092919080359060200190929190505050610cdd565b005b34801561042257600080fd5b50610461600480360381019080803573ffffffffffffffffffffffffffffffffffffffff16906020019092919080359060200190929190505050610e8f565b604051808215151515815260200191505060405180910390f35b34801561048757600080fd5b506104906110a9565b604051808273ffffffffffffffffffffffffffffffffffffffff1673ffffffffffffffffffffffffffffffffffffffff16815260200191505060405180910390f35b3480156104de57600080fd5b506104e76110ce565b6040518080602001828103825283818151815260200191508051906020019080838360005b8381101561052757808201518184015260208101905061050c565b50505050905090810190601f1680156105545780820380516001836020036101000a031916815260200191505b509250505060405180910390f35b34801561056e57600080fd5b5061057761116c565b6040518082815260200191505060405180910390f35b610595611172565b005b3480156105a357600080fd5b506105d66004803603810190808035906020019092919080359060200190929190803590602001909291905050506111b4565b005b3480156105e457600080fd5b50610623600480360381019080803573ffffffffffffffffffffffffffffffffffffffff16906020019092919080359060200190929190505050611237565b005b34801561063157600080fd5b50610666600480360381019080803573ffffffffffffffffffffffffffffffffffffffff169060200190929190505050611246565b604051808215151515815260200191505060405180910390f35b34801561068c57600080fd5b50610695611266565b6040518082815260200191505060405180910390f35b3480156106b757600080fd5b506106c061126c565b6040518082815260200191505060405180910390f35b3480156106e257600080fd5b50610767600480360381019080803573ffffffffffffffffffffffffffffffffffffffff16906020019092919080359060200190929190803590602001908201803590602001908080601f0160208091040260200160405190810160405280939291908181526020018383808284378201915050505050509192919290505050611272565b604051808215151515815260200191505060405180910390f35b34801561078d57600080fd5b506107e2600480360381019080803573ffffffffffffffffffffffffffffffffffffffff169060200190929190803573ffffffffffffffffffffffffffffffffffffffff1690602001909291905050506113f5565b6040518082815260200191505060405180910390f35b34801561080457600080fd5b506108236004803603810190808035906020019092919050505061141a565b005b34801561083157600080fd5b50610872600480360381019080803573ffffffffffffffffffffffffffffffffffffffff1690602001909291908035151590602001909291905050506114c2565b005b34801561088057600080fd5b506108b5600480360381019080803573ffffffffffffffffffffffffffffffffffffffff1690602001909291905050506115e7565b005b60018054600181600116156101000203166002900480601f01602080910402602001604051908101604052809291908181526020018280546001816001161561010002031660029004801561094d5780601f106109225761010080835404028352916020019161094d565b820191906000526020600020905b81548152906001019060200180831161093057829003601f168201915b505050505081565b600081600660003373ffffffffffffffffffffffffffffffffffffffff1673ffffffffffffffffffffffffffffffffffffffff16815260200190815260200160002060008573ffffffffffffffffffffffffffffffffffffffff1673ffffffffffffffffffffffffffffffffffffffff168152602001908152602001600020819055506001905092915050565b60045481565b6000600660008573ffffffffffffffffffffffffffffffffffffffff1673ffffffffffffffffffffffffffffffffffffffff16815260200190815260200160002060003373ffffffffffffffffffffffffffffffffffffffff1673ffffffffffffffffffffffffffffffffffffffff1681526020019081526020016000205482111515610b0d5781600660008673ffffffffffffffffffffffffffffffffffffffff1673ffffffffffffffffffffffffffffffffffffffff16815260200190815260200160002060003373ffffffffffffffffffffffffffffffffffffffff1673ffffffffffffffffffffffffffffffffffffffff16815260200190815260200160002060008282540392505081905550610b04848484611685565b60019050610b12565b600090505b9392505050565b600360009054906101000a900460ff1681565b6000809054906101000a900473ffffffffffffffffffffffffffffffffffffffff1673ffffffffffffffffffffffffffffffffffffffff163373ffffffffffffffffffffffffffffffffffffffff16141515610b8757600080fd5b6000809054906101000a900473ffffffffffffffffffffffffffffffffffffffff1673ffffffffffffffffffffffffffffffffffffffff16ff5b600081600560003373ffffffffffffffffffffffffffffffffffffffff1673ffffffffffffffffffffffffffffffffffffffff1681526020019081526020016000205410151515610c1157600080fd5b81600560003373ffffffffffffffffffffffffffffffffffffffff1673ffffffffffffffffffffffffffffffffffffffff16815260200190815260200160002060008282540392505081905550816004600082825403925050819055503373ffffffffffffffffffffffffffffffffffffffff167fcc16f5dbb4873280815c1ee09dbd06736cffcc184412cf7a71a0fdb75d397ca5836040518082815260200191505060405180910390a260019050919050565b60056020528060005260406000206000915090505481565b6000809054906101000a900473ffffffffffffffffffffffffffffffffffffffff1673ffffffffffffffffffffffffffffffffffffffff163373ffffffffffffffffffffffffffffffffffffffff16141515610d3857600080fd5b610d81600560008473ffffffffffffffffffffffffffffffffffffffff1673ffffffffffffffffffffffffffffffffffffffff168152602001908152602001600020548261193e565b600560008473ffffffffffffffffffffffffffffffffffffffff1673ffffffffffffffffffffffffffffffffffffffff16815260200190815260200160002081905550610dd06004548261193e565b6004819055503073ffffffffffffffffffffffffffffffffffffffff1660007fddf252ad1be2c89b69c2b068fc378daa952ba7f163c4a11628f55a4df523b3ef836040518082815260200191505060405180910390a38173ffffffffffffffffffffffffffffffffffffffff163073ffffffffffffffffffffffffffffffffffffffff167fddf252ad1be2c89b69c2b068fc378daa952ba7f163c4a11628f55a4df523b3ef836040518082815260200191505060405180910390a35050565b600081600560008573ffffffffffffffffffffffffffffffffffffffff1673ffffffffffffffffffffffffffffffffffffffff1681526020019081526020016000205410151515610edf57600080fd5b600660008473ffffffffffffffffffffffffffffffffffffffff1673ffffffffffffffffffffffffffffffffffffffff16815260200190815260200160002060003373ffffffffffffffffffffffffffffffffffffffff1673ffffffffffffffffffffffffffffffffffffffff168152602001908152602001600020548211151515610f6a57600080fd5b81600560008573ffffffffffffffffffffffffffffffffffffffff1673ffffffffffffffffffffffffffffffffffffffff1681526020019081526020016000206000828254039250508190555081600660008573ffffffffffffffffffffffffffffffffffffffff1673ffffffffffffffffffffffffffffffffffffffff16815260200190815260200160002060003373ffffffffffffffffffffffffffffffffffffffff1673ffffffffffffffffffffffffffffffffffffffff16815260200190815260200160002060008282540392505081905550816004600082825403925050819055508273ffffffffffffffffffffffffffffffffffffffff167fcc16f5dbb4873280815c1ee09dbd06736cffcc184412cf7a71a0fdb75d397ca5836040518082815260200191505060405180910390a26001905092915050565b6000809054906101000a900473ffffffffffffffffffffffffffffffffffffffff1681565b60028054600181600116156101000203166002900480601f0160208091040260200160405190810160405280929190818152602001828054600181600116156101000203166002900480156111645780601f1061113957610100808354040283529160200191611164565b820191906000526020600020905b81548152906001019060200180831161114757829003601f168201915b505050505081565b60075481565b60006007543414151561118457600080fd5b6007543481151561119157fe5b04905061119f303383611685565b60085460076000828254019250508190555050565b6000809054906101000a900473ffffffffffffffffffffffffffffffffffffffff1673ffffffffffffffffffffffffffffffffffffffff163373ffffffffffffffffffffffffffffffffffffffff1614151561120f57600080fd5b818111151561121d57600080fd5b826007819055508160088190555080600981905550505050565b611242338383611685565b5050565b600a6020528060005260406000206000915054906101000a900460ff1681565b60085481565b60095481565b6000808490506112828585610955565b156113ec578073ffffffffffffffffffffffffffffffffffffffff16638f4ffcb1338630876040518563ffffffff167c0100000000000000000000000000000000000000000000000000000000028152600401808573ffffffffffffffffffffffffffffffffffffffff1673ffffffffffffffffffffffffffffffffffffffff1681526020018481526020018373ffffffffffffffffffffffffffffffffffffffff1673ffffffffffffffffffffffffffffffffffffffff16815260200180602001828103825283818151815260200191508051906020019080838360005b8381101561137c578082015181840152602081019050611361565b50505050905090810190601f1680156113a95780820380516001836020036101000a031916815260200191505b5095505050505050600060405180830381600087803b1580156113cb57600080fd5b505af11580156113df573d6000803e3d6000fd5b50505050600191506113ed565b5b509392505050565b6006602052816000526040600020602052806000526040600020600091509150505481565b60018114151561142957600080fd5b60075481023073ffffffffffffffffffffffffffffffffffffffff16311015151561145357600080fd5b61145e333083611685565b3373ffffffffffffffffffffffffffffffffffffffff166108fc6009546007548402039081150290604051600060405180830381858888f193505050501580156114ac573d6000803e3d6000fd5b5060085460076000828254039250508190555050565b6000809054906101000a900473ffffffffffffffffffffffffffffffffffffffff1673ffffffffffffffffffffffffffffffffffffffff163373ffffffffffffffffffffffffffffffffffffffff1614151561151d57600080fd5b80600a60008473ffffffffffffffffffffffffffffffffffffffff1673ffffffffffffffffffffffffffffffffffffffff16815260200190815260200160002060006101000a81548160ff0219169083151502179055507f48335238b4855f35377ed80f164e8c6f3c366e54ac00b96a6402d4a9814a03a58282604051808373ffffffffffffffffffffffffffffffffffffffff1673ffffffffffffffffffffffffffffffffffffffff168152602001821515151581526020019250505060405180910390a15050565b6000809054906101000a900473ffffffffffffffffffffffffffffffffffffffff1673ffffffffffffffffffffffffffffffffffffffff163373ffffffffffffffffffffffffffffffffffffffff1614151561164257600080fd5b806000806101000a81548173ffffffffffffffffffffffffffffffffffffffff021916908373ffffffffffffffffffffffffffffffffffffffff16021790555050565b60008273ffffffffffffffffffffffffffffffffffffffff16141515156116ab57600080fd5b80600560008573ffffffffffffffffffffffffffffffffffffffff1673ffffffffffffffffffffffffffffffffffffffff16815260200190815260200160002054101515156116f957600080fd5b600560008373ffffffffffffffffffffffffffffffffffffffff1673ffffffffffffffffffffffffffffffffffffffff1681526020019081526020016000205481600560008573ffffffffffffffffffffffffffffffffffffffff1673ffffffffffffffffffffffffffffffffffffffff16815260200190815260200160002054011015151561178857600080fd5b600a60008473ffffffffffffffffffffffffffffffffffffffff1673ffffffffffffffffffffffffffffffffffffffff16815260200190815260200160002060009054906101000a900460ff161515156117e157600080fd5b600a60008373ffffffffffffffffffffffffffffffffffffffff1673ffffffffffffffffffffffffffffffffffffffff16815260200190815260200160002060009054906101000a900460ff1615151561183a57600080fd5b80600560008573ffffffffffffffffffffffffffffffffffffffff1673ffffffffffffffffffffffffffffffffffffffff1681526020019081526020016000206000828254039250508190555080600560008473ffffffffffffffffffffffffffffffffffffffff1673ffffffffffffffffffffffffffffffffffffffff168152602001908152602001600020600082825401925050819055508173ffffffffffffffffffffffffffffffffffffffff168373ffffffffffffffffffffffffffffffffffffffff167fddf252ad1be2c89b69c2b068fc378daa952ba7f163c4a11628f55a4df523b3ef836040518082815260200191505060405180910390a3505050565b600080828401905083811015151561195257fe5b80915050929150505600a165627a7a723058202b685f708214a66a56d9d531fd65115e0140ce53945d81726482e35c1d9b7f110029",
  "source": "pragma solidity ^0.4.16;\n\ncontract sGuardPlus {\n    constructor() internal {}\n\n    function mul_uint256(uint256 a, uint256 b) internal pure returns (uint256) {\n        if (a == 0) {\n            return 0;\n        }\n        uint256 c = a * b;\n        assert(c / a == b);\n        return c;\n    }\n\n    function add_uint256(uint256 a, uint256 b) internal pure returns (uint256) {\n        uint256 c = a + b;\n        assert(c >= a);\n        return c;\n    }\n\n    function pow_uint256(uint256 a, uint256 b) internal pure returns (uint256) {\n        uint256 c = 1;\n        for (uint256 i = 0; i < b; i = add_uint256(i, 1)) {\n            c = mul_uint256(c, a);\n        }\n        return c;\n    }\n}\n\ncontract owned {\n    address public owner;\n\n    constructor() public {\n        owner = msg.sender;\n    }\n\n    modifier onlyOwner() {\n        require(msg.sender == owner);\n        _;\n    }\n\n    function transferOwnership(address newOwner) public onlyOwner {\n        owner = newOwner;\n    }\n\n    function kill() public onlyOwner {\n        selfdestruct(owner);\n    }\n\n    function() public payable {}\n}\n\ninterface tokenRecipient {\n    function receiveApproval(\n        address _from,\n        uint256 _value,\n        address _token,\n        bytes _extraData\n    ) external;\n}\n\ncontract TokenERC20 is sGuardPlus {\n    string public name;\n    string public symbol;\n    uint8 public decimals = 18;\n    uint256 public totalSupply;\n    mapping(address => uint256) public balanceOf;\n    mapping(address => mapping(address => uint256)) public allowance;\n    event Transfer(address indexed from, address indexed to, uint256 value);\n    event Burn(address indexed from, uint256 value);\n\n    constructor(\n        uint256 initialSupply,\n        uint8 initialDecimals,\n        string tokenName,\n        string tokenSymbol\n    ) public {\n        decimals = initialDecimals;\n        totalSupply = mul_uint256(\n            initialSupply,\n            pow_uint256(10, uint256(decimals))\n        );\n        balanceOf[msg.sender] = totalSupply;\n        name = tokenName;\n        symbol = tokenSymbol;\n    }\n\n    function _transfer(\n        address _from,\n        address _to,\n        uint256 _value\n    ) internal {\n        require(_to != 0x0);\n        require(balanceOf[_from] >= _value);\n        require(balanceOf[_to] + _value > balanceOf[_to]);\n        uint256 previousBalances = balanceOf[_from] + balanceOf[_to];\n        balanceOf[_from] -= _value;\n        balanceOf[_to] += _value;\n        emit Transfer(_from, _to, _value);\n        assert(balanceOf[_from] + balanceOf[_to] == previousBalances);\n    }\n\n    function transfer(address _to, uint256 _value) public {\n        _transfer(msg.sender, _to, _value);\n    }\n\n    function transferFrom(\n        address _from,\n        address _to,\n        uint256 _value\n    ) public returns (bool success) {\n        if (_value <= allowance[_from][msg.sender]) {\n            allowance[_from][msg.sender] -= _value;\n            _transfer(_from, _to, _value);\n            return true;\n        } else return false;\n    }\n\n    function approve(address _spender, uint256 _value)\n        public\n        returns (bool success)\n    {\n        allowance[msg.sender][_spender] = _value;\n        return true;\n    }\n\n    function approveAndCall(\n        address _spender,\n        uint256 _value,\n        bytes _extraData\n    ) public returns (bool success) {\n        tokenRecipient spender = tokenRecipient(_spender);\n        if (approve(_spender, _value)) {\n            spender.receiveApproval(msg.sender, _value, this, _extraData);\n            return true;\n        }\n    }\n\n    function burn(uint256 _value) public returns (bool success) {\n        require(balanceOf[msg.sender] >= _value);\n        balanceOf[msg.sender] -= _value;\n        totalSupply -= _value;\n        emit Burn(msg.sender, _value);\n        return true;\n    }\n\n    function burnFrom(address _from, uint256 _value)\n        public\n        returns (bool success)\n    {\n        require(balanceOf[_from] >= _value);\n        require(_value <= allowance[_from][msg.sender]);\n        balanceOf[_from] -= _value;\n        allowance[_from][msg.sender] -= _value;\n        totalSupply -= _value;\n        emit Burn(_from, _value);\n        return true;\n    }\n}\n\ncontract JiucaiToken is sGuardPlus, owned, TokenERC20 {\n    uint256 public price;\n    uint256 public priceInc;\n    uint256 public transferFees;\n    mapping(address => bool) public frozenAccount;\n    event FrozenFunds(address target, bool frozen);\n\n    constructor(\n        uint256 initialSupply,\n        uint8 initialDecimals,\n        string tokenName,\n        string tokenSymbol\n    )\n        public\n        TokenERC20(initialSupply, initialDecimals, tokenName, tokenSymbol)\n    {\n        price = 10 finney;\n        priceInc = 10 finney;\n        transferFees = 20 finney;\n    }\n\n    function _transfer(\n        address _from,\n        address _to,\n        uint256 _value\n    ) internal {\n        require(_to != 0x0);\n        require(balanceOf[_from] >= _value);\n        require(balanceOf[_to] + _value >= balanceOf[_to]);\n        require(!frozenAccount[_from]);\n        require(!frozenAccount[_to]);\n        balanceOf[_from] -= _value;\n        balanceOf[_to] += _value;\n        emit Transfer(_from, _to, _value);\n    }\n\n    function mintToken(address target, uint256 mintedAmount) public onlyOwner {\n        balanceOf[target] = add_uint256(balanceOf[target], mintedAmount);\n        totalSupply = add_uint256(totalSupply, mintedAmount);\n        emit Transfer(0, this, mintedAmount);\n        emit Transfer(this, target, mintedAmount);\n    }\n\n    function freezeAccount(address target, bool freeze) public onlyOwner {\n        frozenAccount[target] = freeze;\n        emit FrozenFunds(target, freeze);\n    }\n\n    function setPrices(\n        uint256 newPrice,\n        uint256 newPriceInc,\n        uint256 newTransferFees\n    ) public onlyOwner {\n        require(newTransferFees > newPriceInc);\n        price = newPrice;\n        priceInc = newPriceInc;\n        transferFees = newTransferFees;\n    }\n\n    function buy() public payable {\n        require(msg.value == price);\n        uint256 amount = msg.value / price;\n        _transfer(this, msg.sender, amount);\n        price += priceInc;\n    }\n\n    function sell(uint256 amount) public {\n        require(amount == 1);\n        require(address(this).balance >= amount * price);\n        _transfer(msg.sender, this, amount);\n        msg.sender.transfer(amount * price - transferFees);\n        price -= priceInc;\n    }\n}\n",
  "sourcePath": "/workdir/truffle_example/after/0xe649E289bc2A29E3C7bEEBD187BA3ee2B0cDC759/contracts/0xe649E289bc2A29E3C7bEEBD187BA3ee2B0cDC759.sol.fixed.sol",
  "compiler": {
    "name": "solc",
    "version": "0.4.25+commit.59dbf8f1.Emscripten.clang"
  },
  "schemaVersion": "3.4.8",
  "updatedAt": "2022-08-13T07:24:46.737Z",
  "networkType": "ethereum",
  "devdoc": {
    "methods": {}
  },
  "userdoc": {
    "methods": {}
  }
}