{
  "contractName": "SunContractToken",
  "abi": [
    {
      "constant": true,
      "inputs": [],
      "name": "name",
      "outputs": [
        {
          "name": "",
          "type": "string"
        }
      ],
      "payable": false,
      "stateMutability": "view",
      "type": "function"
    },
    {
      "constant": true,
      "inputs": [],
      "name": "decimals",
      "outputs": [
        {
          "name": "",
          "type": "uint8"
        }
      ],
      "payable": false,
      "stateMutability": "view",
      "type": "function"
    },
    {
      "constant": true,
      "inputs": [],
      "name": "standard",
      "outputs": [
        {
          "name": "",
          "type": "string"
        }
      ],
      "payable": false,
      "stateMutability": "view",
      "type": "function"
    },
    {
      "constant": true,
      "inputs": [],
      "name": "owner",
      "outputs": [
        {
          "name": "",
          "type": "address"
        }
      ],
      "payable": false,
      "stateMutability": "view",
      "type": "function"
    },
    {
      "constant": true,
      "inputs": [],
      "name": "tokenFrozenUntilBlock",
      "outputs": [
        {
          "name": "",
          "type": "uint256"
        }
      ],
      "payable": false,
      "stateMutability": "view",
      "type": "function"
    },
    {
      "constant": true,
      "inputs": [],
      "name": "symbol",
      "outputs": [
        {
          "name": "",
          "type": "string"
        }
      ],
      "payable": false,
      "stateMutability": "view",
      "type": "function"
    },
    {
      "constant": true,
      "inputs": [],
      "name": "icoContractAddress",
      "outputs": [
        {
          "name": "",
          "type": "address"
        }
      ],
      "payable": false,
      "stateMutability": "view",
      "type": "function"
    },
    {
      "constant": false,
      "inputs": [
        {
          "name": "newOwner",
          "type": "address"
        }
      ],
      "name": "transferOwnership",
      "outputs": [],
      "payable": false,
      "stateMutability": "nonpayable",
      "type": "function"
    },
    {
      "inputs": [
        {
          "name": "_icoAddress",
          "type": "address"
        }
      ],
      "payable": false,
      "stateMutability": "nonpayable",
      "type": "constructor"
    },
    {
      "anonymous": false,
      "inputs": [
        {
          "indexed": true,
          "name": "_to",
          "type": "address"
        },
        {
          "indexed": false,
          "name": "_value",
          "type": "uint256"
        }
      ],
      "name": "Mint",
      "type": "event"
    },
    {
      "anonymous": false,
      "inputs": [
        {
          "indexed": true,
          "name": "_from",
          "type": "address"
        },
        {
          "indexed": false,
          "name": "_value",
          "type": "uint256"
        }
      ],
      "name": "Burn",
      "type": "event"
    },
    {
      "anonymous": false,
      "inputs": [
        {
          "indexed": false,
          "name": "_frozenUntilBlock",
          "type": "uint256"
        },
        {
          "indexed": false,
          "name": "_reason",
          "type": "string"
        }
      ],
      "name": "TokenFrozen",
      "type": "event"
    },
    {
      "anonymous": false,
      "inputs": [
        {
          "indexed": true,
          "name": "_from",
          "type": "address"
        },
        {
          "indexed": true,
          "name": "_to",
          "type": "address"
        },
        {
          "indexed": false,
          "name": "_value",
          "type": "uint256"
        }
      ],
      "name": "Transfer",
      "type": "event"
    },
    {
      "anonymous": false,
      "inputs": [
        {
          "indexed": true,
          "name": "_owner",
          "type": "address"
        },
        {
          "indexed": true,
          "name": "_spender",
          "type": "address"
        },
        {
          "indexed": false,
          "name": "_value",
          "type": "uint256"
        }
      ],
      "name": "Approval",
      "type": "event"
    },
    {
      "constant": true,
      "inputs": [],
      "name": "totalSupply",
      "outputs": [
        {
          "name": "totalSupply",
          "type": "uint256"
        }
      ],
      "payable": false,
      "stateMutability": "view",
      "type": "function"
    },
    {
      "constant": true,
      "inputs": [
        {
          "name": "_owner",
          "type": "address"
        }
      ],
      "name": "balanceOf",
      "outputs": [
        {
          "name": "balance",
          "type": "uint256"
        }
      ],
      "payable": false,
      "stateMutability": "view",
      "type": "function"
    },
    {
      "constant": false,
      "inputs": [
        {
          "name": "_to",
          "type": "address"
        },
        {
          "name": "_value",
          "type": "uint256"
        }
      ],
      "name": "transfer",
      "outputs": [
        {
          "name": "success",
          "type": "bool"
        }
      ],
      "payable": false,
      "stateMutability": "nonpayable",
      "type": "function"
    },
    {
      "constant": false,
      "inputs": [
        {
          "name": "_spender",
          "type": "address"
        },
        {
          "name": "_value",
          "type": "uint256"
        }
      ],
      "name": "approve",
      "outputs": [
        {
          "name": "success",
          "type": "bool"
        }
      ],
      "payable": false,
      "stateMutability": "nonpayable",
      "type": "function"
    },
    {
      "constant": false,
      "inputs": [
        {
          "name": "_spender",
          "type": "address"
        },
        {
          "name": "_value",
          "type": "uint256"
        },
        {
          "name": "_extraData",
          "type": "bytes"
        }
      ],
      "name": "approveAndCall",
      "outputs": [
        {
          "name": "success",
          "type": "bool"
        }
      ],
      "payable": false,
      "stateMutability": "nonpayable",
      "type": "function"
    },
    {
      "constant": false,
      "inputs": [
        {
          "name": "_from",
          "type": "address"
        },
        {
          "name": "_to",
          "type": "address"
        },
        {
          "name": "_value",
          "type": "uint256"
        }
      ],
      "name": "transferFrom",
      "outputs": [
        {
          "name": "success",
          "type": "bool"
        }
      ],
      "payable": false,
      "stateMutability": "nonpayable",
      "type": "function"
    },
    {
      "constant": true,
      "inputs": [
        {
          "name": "_owner",
          "type": "address"
        },
        {
          "name": "_spender",
          "type": "address"
        }
      ],
      "name": "allowance",
      "outputs": [
        {
          "name": "remaining",
          "type": "uint256"
        }
      ],
      "payable": false,
      "stateMutability": "view",
      "type": "function"
    },
    {
      "constant": false,
      "inputs": [
        {
          "name": "_to",
          "type": "address"
        },
        {
          "name": "_amount",
          "type": "uint256"
        }
      ],
      "name": "mintTokens",
      "outputs": [],
      "payable": false,
      "stateMutability": "nonpayable",
      "type": "function"
    },
    {
      "constant": false,
      "inputs": [
        {
          "name": "_amount",
          "type": "uint256"
        }
      ],
      "name": "burnTokens",
      "outputs": [],
      "payable": false,
      "stateMutability": "nonpayable",
      "type": "function"
    },
    {
      "constant": false,
      "inputs": [
        {
          "name": "_frozenUntilBlock",
          "type": "uint256"
        },
        {
          "name": "_reason",
          "type": "string"
        }
      ],
      "name": "freezeTransfersUntil",
      "outputs": [],
      "payable": false,
      "stateMutability": "nonpayable",
      "type": "function"
    },
    {
      "constant": true,
      "inputs": [
        {
          "name": "_querryAddress",
          "type": "address"
        }
      ],
      "name": "isRestrictedAddress",
      "outputs": [
        {
          "name": "answer",
          "type": "bool"
        }
      ],
      "payable": false,
      "stateMutability": "view",
      "type": "function"
    }
  ],
  "bytecode": "0x60806040526040805190810160405280601681526020017f53756e436f6e747261637420746f6b656e2076312e30000000000000000000008152506001908051906020019062000051929190620002ba565b506040805190810160405280600b81526020017f53756e436f6e7472616374000000000000000000000000000000000000000000815250600290805190602001906200009f929190620002ba565b506040805190810160405280600381526020017f534e43000000000000000000000000000000000000000000000000000000000081525060039080519060200190620000ed929190620002ba565b506012600460006101000a81548160ff021916908360ff16021790555060006006553480156200011c57600080fd5b5060405160208062001d1483398101806040528101908080519060200190929190505050336000806101000a81548173ffffffffffffffffffffffffffffffffffffffff021916908373ffffffffffffffffffffffffffffffffffffffff1602179055506001600960008073ffffffffffffffffffffffffffffffffffffffff16815260200190815260200160002060006101000a81548160ff0219169083151502179055506001600960008373ffffffffffffffffffffffffffffffffffffffff1673ffffffffffffffffffffffffffffffffffffffff16815260200190815260200160002060006101000a81548160ff0219169083151502179055506001600960003073ffffffffffffffffffffffffffffffffffffffff1673ffffffffffffffffffffffffffffffffffffffff16815260200190815260200160002060006101000a81548160ff02191690831515021790555080600460016101000a81548173ffffffffffffffffffffffffffffffffffffffff021916908373ffffffffffffffffffffffffffffffffffffffff1602179055505062000369565b828054600181600116156101000203166002900490600052602060002090601f016020900481019282601f10620002fd57805160ff19168380011785556200032e565b828001600101855582156200032e579182015b828111156200032d57825182559160200191906001019062000310565b5b5090506200033d919062000341565b5090565b6200036691905b808211156200036257600081600090555060010162000348565b5090565b90565b61199b80620003796000396000f300608060405260043610610107576000357c0100000000000000000000000000000000000000000000000000000000900463ffffffff16806303c175ff1461010c57806306fdde0314610167578063095ea7b3146101f757806318160ddd1461025c57806323b872dd14610287578063313ce5671461030c5780635a3b7e421461033d5780636d1b229d146103cd57806370a08231146103fa5780638da5cb5b1461045157806391a67e1e146104a857806395d89b41146104d35780639fe17cc214610563578063a9059cbb146105ba578063aa19ed771461061f578063cae9ca5114610692578063dd62ed3e1461073d578063f0dda65c146107b4578063f2fde38b14610801575b600080fd5b34801561011857600080fd5b5061014d600480360381019080803573ffffffffffffffffffffffffffffffffffffffff169060200190929190505050610844565b604051808215151515815260200191505060405180910390f35b34801561017357600080fd5b5061017c61089a565b6040518080602001828103825283818151815260200191508051906020019080838360005b838110156101bc5780820151818401526020810190506101a1565b50505050905090810190601f1680156101e95780820380516001836020036101000a031916815260200191505b509250505060405180910390f35b34801561020357600080fd5b50610242600480360381019080803573ffffffffffffffffffffffffffffffffffffffff16906020019092919080359060200190929190505050610938565b604051808215151515815260200191505060405180910390f35b34801561026857600080fd5b50610271610a39565b6040518082815260200191505060405180910390f35b34801561029357600080fd5b506102f2600480360381019080803573ffffffffffffffffffffffffffffffffffffffff169060200190929190803573ffffffffffffffffffffffffffffffffffffffff16906020019092919080359060200190929190505050610a43565b604051808215151515815260200191505060405180910390f35b34801561031857600080fd5b50610321610da1565b604051808260ff1660ff16815260200191505060405180910390f35b34801561034957600080fd5b50610352610db4565b6040518080602001828103825283818151815260200191508051906020019080838360005b83811015610392578082015181840152602081019050610377565b50505050905090810190601f1680156103bf5780820380516001836020036101000a031916815260200191505b509250505060405180910390f35b3480156103d957600080fd5b506103f860048036038101908080359060200190929190505050610e52565b005b34801561040657600080fd5b5061043b600480360381019080803573ffffffffffffffffffffffffffffffffffffffff169060200190929190505050611006565b6040518082815260200191505060405180910390f35b34801561045d57600080fd5b5061046661104f565b604051808273ffffffffffffffffffffffffffffffffffffffff1673ffffffffffffffffffffffffffffffffffffffff16815260200191505060405180910390f35b3480156104b457600080fd5b506104bd611074565b6040518082815260200191505060405180910390f35b3480156104df57600080fd5b506104e861107a565b6040518080602001828103825283818151815260200191508051906020019080838360005b8381101561052857808201518184015260208101905061050d565b50505050905090810190601f1680156105555780820380516001836020036101000a031916815260200191505b509250505060405180910390f35b34801561056f57600080fd5b50610578611118565b604051808273ffffffffffffffffffffffffffffffffffffffff1673ffffffffffffffffffffffffffffffffffffffff16815260200191505060405180910390f35b3480156105c657600080fd5b50610605600480360381019080803573ffffffffffffffffffffffffffffffffffffffff1690602001909291908035906020019092919050505061113e565b604051808215151515815260200191505060405180910390f35b34801561062b57600080fd5b5061069060048036038101908080359060200190929190803590602001908201803590602001908080601f0160208091040260200160405190810160405280939291908181526020018383808284378201915050505050509192919290505050611388565b005b34801561069e57600080fd5b50610723600480360381019080803573ffffffffffffffffffffffffffffffffffffffff16906020019092919080359060200190929190803590602001908201803590602001908080601f0160208091040260200160405190810160405280939291908181526020018383808284378201915050505050509192919290505050611492565b604051808215151515815260200191505060405180910390f35b34801561074957600080fd5b5061079e600480360381019080803573ffffffffffffffffffffffffffffffffffffffff169060200190929190803573ffffffffffffffffffffffffffffffffffffffff16906020019092919050505061160b565b6040518082815260200191505060405180910390f35b3480156107c057600080fd5b506107ff600480360381019080803573ffffffffffffffffffffffffffffffffffffffff16906020019092919080359060200190929190505050611692565b005b34801561080d57600080fd5b50610842600480360381019080803573ffffffffffffffffffffffffffffffffffffffff1690602001909291905050506118d1565b005b6000600960008373ffffffffffffffffffffffffffffffffffffffff1673ffffffffffffffffffffffffffffffffffffffff16815260200190815260200160002060009054906101000a900460ff169050919050565b60028054600181600116156101000203166002900480601f0160208091040260200160405190810160405280929190818152602001828054600181600116156101000203166002900480156109305780601f1061090557610100808354040283529160200191610930565b820191906000526020600020905b81548152906001019060200180831161091357829003601f168201915b505050505081565b600060055443101561094957600080fd5b81600860003373ffffffffffffffffffffffffffffffffffffffff1673ffffffffffffffffffffffffffffffffffffffff16815260200190815260200160002060008573ffffffffffffffffffffffffffffffffffffffff1673ffffffffffffffffffffffffffffffffffffffff168152602001908152602001600020819055508273ffffffffffffffffffffffffffffffffffffffff163373ffffffffffffffffffffffffffffffffffffffff167f8c5be1e5ebec7d5bd14f71427d1e84f3dd0314c0f7b2291e5b200ac8c7c3b925846040518082815260200191505060405180910390a36001905092915050565b6000600654905090565b6000600554431015610a5457600080fd5b600960008473ffffffffffffffffffffffffffffffffffffffff1673ffffffffffffffffffffffffffffffffffffffff16815260200190815260200160002060009054906101000a900460ff1615610aab57600080fd5b81600760008673ffffffffffffffffffffffffffffffffffffffff1673ffffffffffffffffffffffffffffffffffffffff168152602001908152602001600020541015610af757600080fd5b600760008473ffffffffffffffffffffffffffffffffffffffff1673ffffffffffffffffffffffffffffffffffffffff1681526020019081526020016000205482600760008673ffffffffffffffffffffffffffffffffffffffff1673ffffffffffffffffffffffffffffffffffffffff16815260200190815260200160002054011015610b8457600080fd5b600860008573ffffffffffffffffffffffffffffffffffffffff1673ffffffffffffffffffffffffffffffffffffffff16815260200190815260200160002060003373ffffffffffffffffffffffffffffffffffffffff1673ffffffffffffffffffffffffffffffffffffffff16815260200190815260200160002054821115610c0d57600080fd5b81600760008673ffffffffffffffffffffffffffffffffffffffff1673ffffffffffffffffffffffffffffffffffffffff1681526020019081526020016000206000828254039250508190555081600760008573ffffffffffffffffffffffffffffffffffffffff1673ffffffffffffffffffffffffffffffffffffffff1681526020019081526020016000206000828254019250508190555081600860008673ffffffffffffffffffffffffffffffffffffffff1673ffffffffffffffffffffffffffffffffffffffff16815260200190815260200160002060003373ffffffffffffffffffffffffffffffffffffffff1673ffffffffffffffffffffffffffffffffffffffff168152602001908152602001600020600082825403925050819055508273ffffffffffffffffffffffffffffffffffffffff168473ffffffffffffffffffffffffffffffffffffffff167fddf252ad1be2c89b69c2b068fc378daa952ba7f163c4a11628f55a4df523b3ef846040518082815260200191505060405180910390a3600190509392505050565b600460009054906101000a900460ff1681565b60018054600181600116156101000203166002900480601f016020809104026020016040519081016040528092919081815260200182805460018160011615610100020316600290048015610e4a5780601f10610e1f57610100808354040283529160200191610e4a565b820191906000526020600020905b815481529060010190602001808311610e2d57829003601f168201915b505050505081565b6000809054906101000a900473ffffffffffffffffffffffffffffffffffffffff1673ffffffffffffffffffffffffffffffffffffffff163373ffffffffffffffffffffffffffffffffffffffff16141515610ead57600080fd5b80600760003373ffffffffffffffffffffffffffffffffffffffff1673ffffffffffffffffffffffffffffffffffffffff168152602001908152602001600020541015610ef957600080fd5b806006541015610f0857600080fd5b8060066000828254039250508190555080600760003373ffffffffffffffffffffffffffffffffffffffff1673ffffffffffffffffffffffffffffffffffffffff168152602001908152602001600020600082825403925050819055503373ffffffffffffffffffffffffffffffffffffffff167fcc16f5dbb4873280815c1ee09dbd06736cffcc184412cf7a71a0fdb75d397ca5826040518082815260200191505060405180910390a260003373ffffffffffffffffffffffffffffffffffffffff167fddf252ad1be2c89b69c2b068fc378daa952ba7f163c4a11628f55a4df523b3ef836040518082815260200191505060405180910390a350565b6000600760008373ffffffffffffffffffffffffffffffffffffffff1673ffffffffffffffffffffffffffffffffffffffff168152602001908152602001600020549050919050565b6000809054906101000a900473ffffffffffffffffffffffffffffffffffffffff1681565b60055481565b60038054600181600116156101000203166002900480601f0160208091040260200160405190810160405280929190818152602001828054600181600116156101000203166002900480156111105780601f106110e557610100808354040283529160200191611110565b820191906000526020600020905b8154815290600101906020018083116110f357829003601f168201915b505050505081565b600460019054906101000a900473ffffffffffffffffffffffffffffffffffffffff1681565b600060055443101561114f57600080fd5b600960008473ffffffffffffffffffffffffffffffffffffffff1673ffffffffffffffffffffffffffffffffffffffff16815260200190815260200160002060009054906101000a900460ff16156111a657600080fd5b81600760003373ffffffffffffffffffffffffffffffffffffffff1673ffffffffffffffffffffffffffffffffffffffff1681526020019081526020016000205410156111f257600080fd5b600760008473ffffffffffffffffffffffffffffffffffffffff1673ffffffffffffffffffffffffffffffffffffffff1681526020019081526020016000205482600760008673ffffffffffffffffffffffffffffffffffffffff1673ffffffffffffffffffffffffffffffffffffffff1681526020019081526020016000205401101561127f57600080fd5b81600760003373ffffffffffffffffffffffffffffffffffffffff1673ffffffffffffffffffffffffffffffffffffffff1681526020019081526020016000206000828254039250508190555081600760008573ffffffffffffffffffffffffffffffffffffffff1673ffffffffffffffffffffffffffffffffffffffff168152602001908152602001600020600082825401925050819055508273ffffffffffffffffffffffffffffffffffffffff163373ffffffffffffffffffffffffffffffffffffffff167fddf252ad1be2c89b69c2b068fc378daa952ba7f163c4a11628f55a4df523b3ef846040518082815260200191505060405180910390a36001905092915050565b6000809054906101000a900473ffffffffffffffffffffffffffffffffffffffff1673ffffffffffffffffffffffffffffffffffffffff163373ffffffffffffffffffffffffffffffffffffffff161415156113e357600080fd5b816005819055507f6e3f7ba04d28a67d7a0a5559a2c6d933b1bc57e598867c94b9b7fca03d95a13682826040518083815260200180602001828103825283818151815260200191508051906020019080838360005b83811015611453578082015181840152602081019050611438565b50505050905090810190601f1680156114805780820380516001836020036101000a031916815260200191505b50935050505060405180910390a15050565b6000808490506114a28585610938565b508073ffffffffffffffffffffffffffffffffffffffff16638f4ffcb1338630876040518563ffffffff167c0100000000000000000000000000000000000000000000000000000000028152600401808573ffffffffffffffffffffffffffffffffffffffff1673ffffffffffffffffffffffffffffffffffffffff1681526020018481526020018373ffffffffffffffffffffffffffffffffffffffff1673ffffffffffffffffffffffffffffffffffffffff16815260200180602001828103825283818151815260200191508051906020019080838360005b8381101561159857808201518184015260208101905061157d565b50505050905090810190601f1680156115c55780820380516001836020036101000a031916815260200191505b5095505050505050600060405180830381600087803b1580156115e757600080fd5b505af11580156115fb573d6000803e3d6000fd5b5050505060019150509392505050565b6000600860008473ffffffffffffffffffffffffffffffffffffffff1673ffffffffffffffffffffffffffffffffffffffff16815260200190815260200160002060008373ffffffffffffffffffffffffffffffffffffffff1673ffffffffffffffffffffffffffffffffffffffff16815260200190815260200160002054905092915050565b600460019054906101000a900473ffffffffffffffffffffffffffffffffffffffff1673ffffffffffffffffffffffffffffffffffffffff163373ffffffffffffffffffffffffffffffffffffffff161415156116ee57600080fd5b600960008373ffffffffffffffffffffffffffffffffffffffff1673ffffffffffffffffffffffffffffffffffffffff16815260200190815260200160002060009054906101000a900460ff161561174557600080fd5b600760008373ffffffffffffffffffffffffffffffffffffffff1673ffffffffffffffffffffffffffffffffffffffff1681526020019081526020016000205481600760008573ffffffffffffffffffffffffffffffffffffffff1673ffffffffffffffffffffffffffffffffffffffff168152602001908152602001600020540110156117d257600080fd5b8060066000828254019250508190555080600760008473ffffffffffffffffffffffffffffffffffffffff1673ffffffffffffffffffffffffffffffffffffffff168152602001908152602001600020600082825401925050819055508173ffffffffffffffffffffffffffffffffffffffff167f0f6798a560793a54c3bcfe86a93cde1e73087d944c0ea20544137d4121396885826040518082815260200191505060405180910390a28173ffffffffffffffffffffffffffffffffffffffff1660007fddf252ad1be2c89b69c2b068fc378daa952ba7f163c4a11628f55a4df523b3ef836040518082815260200191505060405180910390a35050565b6000809054906101000a900473ffffffffffffffffffffffffffffffffffffffff1673ffffffffffffffffffffffffffffffffffffffff163373ffffffffffffffffffffffffffffffffffffffff1614151561192c57600080fd5b806000806101000a81548173ffffffffffffffffffffffffffffffffffffffff021916908373ffffffffffffffffffffffffffffffffffffffff160217905550505600a165627a7a723058209935c1033dd000250769aeefca5db965dabc6bca396ea030bf2ff77bbe027cfe0029",
  "source": "//\n/* SunContract Token Smart Contract v1.0 */   \n//\n\ncontract owned {\n\n  address public owner;\n\n  function owned() {\n    owner = msg.sender;\n  }\n\n  modifier onlyOwner {\n    if (msg.sender != owner) throw;\n    _;\n  }\n\n  function transferOwnership(address newOwner) onlyOwner {\n    owner = newOwner;\n  }\n}\n\ncontract tokenRecipient { \n  function receiveApproval(address _from, uint256 _value, address _token, bytes _extraData);\n} \n\ncontract IERC20Token {\n\n  /// @return total amount of tokens\n  function totalSupply() constant returns (uint256 totalSupply);\n\n  /// @param _owner The address from which the balance will be retrieved\n  /// @return The balance\n  function balanceOf(address _owner) constant returns (uint256 balance) {}\n\n  /// @notice send `_value` token to `_to` from `msg.sender`\n  /// @param _to The address of the recipient\n  /// @param _value The amount of tokens to be transferred\n  /// @return Whether the transfer was successful or not\n  function transfer(address _to, uint256 _value) returns (bool success) {}\n\n  /// @notice send `_value` token to `_to` from `_from` on the condition it is approved by `_from`\n  /// @param _from The address of the sender\n  /// @param _to The address of the recipient\n  /// @param _value The amount of token to be transferred\n  /// @return Whether the transfer was successful or not\n  function transferFrom(address _from, address _to, uint256 _value) returns (bool success) {}\n\n  /// @notice `msg.sender` approves `_addr` to spend `_value` tokens\n  /// @param _spender The address of the account able to transfer the tokens\n  /// @param _value The amount of wei to be approved for transfer\n  /// @return Whether the approval was successful or not\n  function approve(address _spender, uint256 _value) returns (bool success) {}\n\n  /// @param _owner The address of the account owning tokens\n  /// @param _spender The address of the account able to transfer the tokens\n  /// @return Amount of remaining tokens allowed to spent\n  function allowance(address _owner, address _spender) constant returns (uint256 remaining) {}\n\n  event Transfer(address indexed _from, address indexed _to, uint256 _value);\n  event Approval(address indexed _owner, address indexed _spender, uint256 _value);\n} \n\ncontract SunContractToken is IERC20Token, owned{\n\n  /* Public variables of the token */\n  string public standard = \"SunContract token v1.0\";\n  string public name = \"SunContract\";\n  string public symbol = \"SNC\";\n  uint8 public decimals = 18;\n  address public icoContractAddress;\n  uint256 public tokenFrozenUntilBlock;\n\n  /* Private variables of the token */\n  uint256 supply = 0;\n  mapping (address => uint256) balances;\n  mapping (address => mapping (address => uint256)) allowances;\n  mapping (address => bool) restrictedAddresses;\n\n  /* Events */\n  event Mint(address indexed _to, uint256 _value);\n  event Burn(address indexed _from, uint256 _value);\n  event TokenFrozen(uint256 _frozenUntilBlock, string _reason);\n\n  /* Initializes contract and  sets restricted addresses */\n  function SunContractToken(address _icoAddress) {\n    restrictedAddresses[0x0] = true;\n    restrictedAddresses[_icoAddress] = true;\n    restrictedAddresses[address(this)] = true;\n    icoContractAddress = _icoAddress;\n  }\n\n  /* Returns total supply of issued tokens */\n  function totalSupply() constant returns (uint256 totalSupply) {\n    return supply;\n  }\n\n  /* Returns balance of address */\n  function balanceOf(address _owner) constant returns (uint256 balance) {\n    return balances[_owner];\n  }\n\n  /* Transfers tokens from your address to other */\n  function transfer(address _to, uint256 _value) returns (bool success) {\n    if (block.number < tokenFrozenUntilBlock) throw;    // Throw if token is frozen\n    if (restrictedAddresses[_to]) throw;                // Throw if recipient is restricted address\n    if (balances[msg.sender] < _value) throw;           // Throw if sender has insufficient balance\n    if (balances[_to] + _value < balances[_to]) throw;  // Throw if owerflow detected\n    balances[msg.sender] -= _value;                     // Deduct senders balance\n    balances[_to] += _value;                            // Add recivers blaance \n    Transfer(msg.sender, _to, _value);                  // Raise Transfer event\n    return true;\n  }\n\n  /* Approve other address to spend tokens on your account */\n  function approve(address _spender, uint256 _value) returns (bool success) {\n    if (block.number < tokenFrozenUntilBlock) throw;    // Throw if token is frozen        \n    allowances[msg.sender][_spender] = _value;          // Set allowance         \n    Approval(msg.sender, _spender, _value);             // Raise Approval event         \n    return true;\n  }\n\n  /* Approve and then communicate the approved contract in a single tx */ \n  function approveAndCall(address _spender, uint256 _value, bytes _extraData) returns (bool success) {            \n    tokenRecipient spender = tokenRecipient(_spender);              // Cast spender to tokenRecipient contract         \n    approve(_spender, _value);                                      // Set approval to contract for _value         \n    spender.receiveApproval(msg.sender, _value, this, _extraData);  // Raise method on _spender contract         \n    return true;     \n  }     \n\n  /* A contract attempts to get the coins */\n  function transferFrom(address _from, address _to, uint256 _value) returns (bool success) {      \n    if (block.number < tokenFrozenUntilBlock) throw;    // Throw if token is frozen\n    if (restrictedAddresses[_to]) throw;                // Throw if recipient is restricted address  \n    if (balances[_from] < _value) throw;                // Throw if sender does not have enough balance     \n    if (balances[_to] + _value < balances[_to]) throw;  // Throw if overflow detected    \n    if (_value > allowances[_from][msg.sender]) throw;  // Throw if you do not have allowance       \n    balances[_from] -= _value;                          // Deduct senders balance    \n    balances[_to] += _value;                            // Add recipient blaance         \n    allowances[_from][msg.sender] -= _value;            // Deduct allowance for this address         \n    Transfer(_from, _to, _value);                       // Raise Transfer event\n    return true;     \n  }         \n\n  /* Get the amount of allowed tokens to spend */     \n  function allowance(address _owner, address _spender) constant returns (uint256 remaining) {         \n    return allowances[_owner][_spender];\n  }         \n\n  /* Issue new tokens */     \n  function mintTokens(address _to, uint256 _amount) {         \n    if (msg.sender != icoContractAddress) throw;            // Only ICO address can mint tokens        \n    if (restrictedAddresses[_to]) throw;                    // Throw if user wants to send to restricted address       \n    if (balances[_to] + _amount < balances[_to]) throw;     // Check for overflows\n    supply += _amount;                                      // Update total supply\n    balances[_to] += _amount;                               // Set minted coins to target\n    Mint(_to, _amount);                                     // Create Mint event       \n    Transfer(0x0, _to, _amount);                            // Create Transfer event from 0x\n  }     \n  \n  /* Destroy tokens from owners account */\n  function burnTokens(uint256 _amount) onlyOwner {\n    if(balances[msg.sender] < _amount) throw;               // Throw if you do not have enough balance\n    if(supply < _amount) throw;                             // Throw if overflow detected\n\n    supply -= _amount;                                      // Deduct totalSupply\n    balances[msg.sender] -= _amount;                        // Destroy coins on senders wallet\n    Burn(msg.sender, _amount);                              // Raise Burn event\n    Transfer(msg.sender, 0x0, _amount);                     // Raise transfer to 0x0\n  }\n\n  /* Stops all token transfers in case of emergency */\n  function freezeTransfersUntil(uint256 _frozenUntilBlock, string _reason) onlyOwner {      \n    tokenFrozenUntilBlock = _frozenUntilBlock;\n    TokenFrozen(_frozenUntilBlock, _reason);\n  }\n\n  function isRestrictedAddress(address _querryAddress) constant returns (bool answer){\n    return restrictedAddresses[_querryAddress];\n  }\n\n  //\n  /* This part is here only for testing and will not be included into final version */\n  //\n\n  //function changeICOAddress(address _newAddress) onlyOwner{\n  //  icoContractAddress = _newAddress;\n  //  restrictedAddresses[_newAddress] = true;   \n  //}\n\n  //function killContract() onlyOwner{\n  //  selfdestruct(msg.sender);\n  //}\n}\n",
  "sourcePath": "/workdir/truffle_example/0xF4134146AF2d511Dd5EA8cDB1C4AC88C57D60404/contracts/0xF4134146AF2d511Dd5EA8cDB1C4AC88C57D60404.sol",
  "compiler": {
    "name": "solc",
    "version": "0.4.25+commit.59dbf8f1.Emscripten.clang"
  },
  "schemaVersion": "3.4.8",
  "updatedAt": "2022-08-11T14:41:56.216Z",
  "networkType": "ethereum",
  "devdoc": {
    "methods": {}
  },
  "userdoc": {
    "methods": {}
  }
}