{
  "contractName": "TownCrier",
  "abi": [
    {
      "constant": true,
      "inputs": [],
      "name": "newVersion",
      "outputs": [
        {
          "name": "",
          "type": "int256"
        }
      ],
      "payable": false,
      "stateMutability": "view",
      "type": "function"
    },
    {
      "constant": true,
      "inputs": [],
      "name": "SGX_ADDRESS",
      "outputs": [
        {
          "name": "",
          "type": "address"
        }
      ],
      "payable": false,
      "stateMutability": "view",
      "type": "function"
    },
    {
      "constant": true,
      "inputs": [],
      "name": "DELIVERED_FEE_FLAG",
      "outputs": [
        {
          "name": "",
          "type": "uint256"
        }
      ],
      "payable": false,
      "stateMutability": "view",
      "type": "function"
    },
    {
      "constant": true,
      "inputs": [],
      "name": "killswitch",
      "outputs": [
        {
          "name": "",
          "type": "bool"
        }
      ],
      "payable": false,
      "stateMutability": "view",
      "type": "function"
    },
    {
      "constant": true,
      "inputs": [],
      "name": "FAIL_FLAG",
      "outputs": [
        {
          "name": "",
          "type": "int256"
        }
      ],
      "payable": false,
      "stateMutability": "view",
      "type": "function"
    },
    {
      "constant": true,
      "inputs": [],
      "name": "requestCnt",
      "outputs": [
        {
          "name": "",
          "type": "uint64"
        }
      ],
      "payable": false,
      "stateMutability": "view",
      "type": "function"
    },
    {
      "constant": true,
      "inputs": [],
      "name": "MIN_FEE",
      "outputs": [
        {
          "name": "",
          "type": "uint256"
        }
      ],
      "payable": false,
      "stateMutability": "view",
      "type": "function"
    },
    {
      "constant": true,
      "inputs": [],
      "name": "CANCELLATION_FEE",
      "outputs": [
        {
          "name": "",
          "type": "uint256"
        }
      ],
      "payable": false,
      "stateMutability": "view",
      "type": "function"
    },
    {
      "constant": true,
      "inputs": [
        {
          "name": "",
          "type": "uint256"
        }
      ],
      "name": "requests",
      "outputs": [
        {
          "name": "requester",
          "type": "address"
        },
        {
          "name": "fee",
          "type": "uint256"
        },
        {
          "name": "callbackAddr",
          "type": "address"
        },
        {
          "name": "callbackFID",
          "type": "bytes4"
        },
        {
          "name": "paramsHash",
          "type": "bytes32"
        }
      ],
      "payable": false,
      "stateMutability": "view",
      "type": "function"
    },
    {
      "constant": true,
      "inputs": [],
      "name": "GAS_PRICE",
      "outputs": [
        {
          "name": "",
          "type": "uint256"
        }
      ],
      "payable": false,
      "stateMutability": "view",
      "type": "function"
    },
    {
      "constant": true,
      "inputs": [],
      "name": "unrespondedCnt",
      "outputs": [
        {
          "name": "",
          "type": "uint64"
        }
      ],
      "payable": false,
      "stateMutability": "view",
      "type": "function"
    },
    {
      "constant": true,
      "inputs": [],
      "name": "CANCELLED_FEE_FLAG",
      "outputs": [
        {
          "name": "",
          "type": "uint256"
        }
      ],
      "payable": false,
      "stateMutability": "view",
      "type": "function"
    },
    {
      "constant": true,
      "inputs": [],
      "name": "SUCCESS_FLAG",
      "outputs": [
        {
          "name": "",
          "type": "int256"
        }
      ],
      "payable": false,
      "stateMutability": "view",
      "type": "function"
    },
    {
      "constant": true,
      "inputs": [],
      "name": "externalCallFlag",
      "outputs": [
        {
          "name": "",
          "type": "bool"
        }
      ],
      "payable": false,
      "stateMutability": "view",
      "type": "function"
    },
    {
      "inputs": [],
      "payable": false,
      "stateMutability": "nonpayable",
      "type": "constructor"
    },
    {
      "payable": false,
      "stateMutability": "nonpayable",
      "type": "fallback"
    },
    {
      "anonymous": false,
      "inputs": [
        {
          "indexed": false,
          "name": "newAddr",
          "type": "address"
        }
      ],
      "name": "Upgrade",
      "type": "event"
    },
    {
      "anonymous": false,
      "inputs": [
        {
          "indexed": false,
          "name": "gas_price",
          "type": "uint256"
        },
        {
          "indexed": false,
          "name": "min_fee",
          "type": "uint256"
        },
        {
          "indexed": false,
          "name": "cancellation_fee",
          "type": "uint256"
        }
      ],
      "name": "Reset",
      "type": "event"
    },
    {
      "anonymous": false,
      "inputs": [
        {
          "indexed": false,
          "name": "id",
          "type": "uint64"
        },
        {
          "indexed": false,
          "name": "requestType",
          "type": "uint8"
        },
        {
          "indexed": false,
          "name": "requester",
          "type": "address"
        },
        {
          "indexed": false,
          "name": "fee",
          "type": "uint256"
        },
        {
          "indexed": false,
          "name": "callbackAddr",
          "type": "address"
        },
        {
          "indexed": false,
          "name": "paramsHash",
          "type": "bytes32"
        },
        {
          "indexed": false,
          "name": "timestamp",
          "type": "uint256"
        },
        {
          "indexed": false,
          "name": "requestData",
          "type": "bytes32[]"
        }
      ],
      "name": "RequestInfo",
      "type": "event"
    },
    {
      "anonymous": false,
      "inputs": [
        {
          "indexed": false,
          "name": "requestId",
          "type": "uint64"
        },
        {
          "indexed": false,
          "name": "fee",
          "type": "uint256"
        },
        {
          "indexed": false,
          "name": "gasPrice",
          "type": "uint256"
        },
        {
          "indexed": false,
          "name": "gasLeft",
          "type": "uint256"
        },
        {
          "indexed": false,
          "name": "callbackGas",
          "type": "uint256"
        },
        {
          "indexed": false,
          "name": "paramsHash",
          "type": "bytes32"
        },
        {
          "indexed": false,
          "name": "error",
          "type": "uint64"
        },
        {
          "indexed": false,
          "name": "respData",
          "type": "bytes32"
        }
      ],
      "name": "DeliverInfo",
      "type": "event"
    },
    {
      "anonymous": false,
      "inputs": [
        {
          "indexed": false,
          "name": "requestId",
          "type": "uint64"
        },
        {
          "indexed": false,
          "name": "canceller",
          "type": "address"
        },
        {
          "indexed": false,
          "name": "requester",
          "type": "address"
        },
        {
          "indexed": false,
          "name": "fee",
          "type": "uint256"
        },
        {
          "indexed": false,
          "name": "flag",
          "type": "int256"
        }
      ],
      "name": "Cancel",
      "type": "event"
    },
    {
      "constant": false,
      "inputs": [
        {
          "name": "newAddr",
          "type": "address"
        }
      ],
      "name": "upgrade",
      "outputs": [],
      "payable": false,
      "stateMutability": "nonpayable",
      "type": "function"
    },
    {
      "constant": false,
      "inputs": [
        {
          "name": "price",
          "type": "uint256"
        },
        {
          "name": "minGas",
          "type": "uint256"
        },
        {
          "name": "cancellationGas",
          "type": "uint256"
        }
      ],
      "name": "reset",
      "outputs": [],
      "payable": false,
      "stateMutability": "nonpayable",
      "type": "function"
    },
    {
      "constant": false,
      "inputs": [],
      "name": "suspend",
      "outputs": [],
      "payable": false,
      "stateMutability": "nonpayable",
      "type": "function"
    },
    {
      "constant": false,
      "inputs": [],
      "name": "restart",
      "outputs": [],
      "payable": false,
      "stateMutability": "nonpayable",
      "type": "function"
    },
    {
      "constant": false,
      "inputs": [],
      "name": "withdraw",
      "outputs": [],
      "payable": false,
      "stateMutability": "nonpayable",
      "type": "function"
    },
    {
      "constant": false,
      "inputs": [
        {
          "name": "requestType",
          "type": "uint8"
        },
        {
          "name": "callbackAddr",
          "type": "address"
        },
        {
          "name": "callbackFID",
          "type": "bytes4"
        },
        {
          "name": "timestamp",
          "type": "uint256"
        },
        {
          "name": "requestData",
          "type": "bytes32[]"
        }
      ],
      "name": "request",
      "outputs": [
        {
          "name": "",
          "type": "int256"
        }
      ],
      "payable": true,
      "stateMutability": "payable",
      "type": "function"
    },
    {
      "constant": false,
      "inputs": [
        {
          "name": "requestId",
          "type": "uint64"
        },
        {
          "name": "paramsHash",
          "type": "bytes32"
        },
        {
          "name": "error",
          "type": "uint64"
        },
        {
          "name": "respData",
          "type": "bytes32"
        }
      ],
      "name": "deliver",
      "outputs": [],
      "payable": false,
      "stateMutability": "nonpayable",
      "type": "function"
    },
    {
      "constant": false,
      "inputs": [
        {
          "name": "requestId",
          "type": "uint64"
        }
      ],
      "name": "cancel",
      "outputs": [
        {
          "name": "",
          "type": "int256"
        }
      ],
      "payable": false,
      "stateMutability": "nonpayable",
      "type": "function"
    }
  ],
  "bytecode": "0x6080604052640ba43b7400600155600154617530026002556001546161a8026003556000680400000000000000055534801561003a57600080fd5b5060008060006101000a81548160ff0219169083151502179055506001600460026101000a81548167ffffffffffffffff021916908367ffffffffffffffff1602179055503360056000680100000000000000008110151561009857fe5b6004020160000160006101000a81548173ffffffffffffffffffffffffffffffffffffffff021916908373ffffffffffffffffffffffffffffffffffffffff1602179055506000600460006101000a81548160ff02191690831515021790555060006004600a6101000a81548167ffffffffffffffff021916908367ffffffffffffffff1602179055506000600460016101000a81548160ff021916908315150217905550611de28061014c6000396000f300608060405260043610610128576000357c0100000000000000000000000000000000000000000000000000000000900463ffffffff1680630900f010146101375780631ef3755d1461017a57806329cdda23146101915780632e28b3f5146101bc57806339c2697c146102135780633ccfd60b1461023e57806342dd96f714610255578063487a6e32146102845780634c125e79146102eb57806358487bee1461033657806366a39350146104035780636ba7ffd51461042e57806376c7a3c71461046d57806378b17ccf1461049857806381d12c58146104c35780638b0ee5a3146105be578063908f68ee146105e9578063a6801cbd14610628578063be0da25114610669578063d073ca3d14610694578063e6400bbe146106bf578063fc9bfaa6146106d6575b34801561013457600080fd5b50005b34801561014357600080fd5b50610178600480360381019080803573ffffffffffffffffffffffffffffffffffffffff169060200190929190505050610705565b005b34801561018657600080fd5b5061018f61084e565b005b34801561019d57600080fd5b506101a66108f5565b6040518082815260200191505060405180910390f35b3480156101c857600080fd5b506101d1610903565b604051808273ffffffffffffffffffffffffffffffffffffffff1673ffffffffffffffffffffffffffffffffffffffff16815260200191505060405180910390f35b34801561021f57600080fd5b5061022861091b565b6040518082815260200191505060405180910390f35b34801561024a57600080fd5b50610253610920565b005b34801561026157600080fd5b5061026a610a4f565b604051808215151515815260200191505060405180910390f35b34801561029057600080fd5b506102e9600480360381019080803567ffffffffffffffff1690602001909291908035600019169060200190929190803567ffffffffffffffff1690602001909291908035600019169060200190929190505050610a62565b005b3480156102f757600080fd5b50610320600480360381019080803567ffffffffffffffff16906020019092919050505061111f565b6040518082815260200191505060405180910390f35b6103ed600480360381019080803560ff169060200190929190803573ffffffffffffffffffffffffffffffffffffffff16906020019092919080357bffffffffffffffffffffffffffffffffffffffffffffffffffffffff191690602001909291908035906020019092919080359060200190820180359060200190808060200260200160405190810160405280939291908181526020018383602002808284378201915050505050509192919290505050611547565b6040518082815260200191505060405180910390f35b34801561040f57600080fd5b50610418611a85565b6040518082815260200191505060405180910390f35b34801561043a57600080fd5b50610443611aa9565b604051808267ffffffffffffffff1667ffffffffffffffff16815260200191505060405180910390f35b34801561047957600080fd5b50610482611ac3565b6040518082815260200191505060405180910390f35b3480156104a457600080fd5b506104ad611ac9565b6040518082815260200191505060405180910390f35b3480156104cf57600080fd5b506104ee60048036038101908080359060200190929190505050611acf565b604051808673ffffffffffffffffffffffffffffffffffffffff1673ffffffffffffffffffffffffffffffffffffffff1681526020018581526020018473ffffffffffffffffffffffffffffffffffffffff1673ffffffffffffffffffffffffffffffffffffffff168152602001837bffffffffffffffffffffffffffffffffffffffffffffffffffffffff19167bffffffffffffffffffffffffffffffffffffffffffffffffffffffff1916815260200182600019166000191681526020019550505050505060405180910390f35b3480156105ca57600080fd5b506105d3611b7b565b6040518082815260200191505060405180910390f35b3480156105f557600080fd5b506105fe611b81565b604051808267ffffffffffffffff1667ffffffffffffffff16815260200191505060405180910390f35b34801561063457600080fd5b50610667600480360381019080803590602001909291908035906020019092919080359060200190929190505050611b9b565b005b34801561067557600080fd5b5061067e611cb4565b6040518082815260200191505060405180910390f35b3480156106a057600080fd5b506106a9611cb9565b6040518082815260200191505060405180910390f35b3480156106cb57600080fd5b506106d4611cbe565b005b3480156106e257600080fd5b506106eb611d4f565b604051808215151515815260200191505060405180910390f35b60056000680100000000000000008110151561071d57fe5b6004020160000160009054906101000a900473ffffffffffffffffffffffffffffffffffffffff1673ffffffffffffffffffffffffffffffffffffffff163373ffffffffffffffffffffffffffffffffffffffff1614801561079f575060006004600a9054906101000a900467ffffffffffffffff1667ffffffffffffffff16145b1561084b578073ffffffffffffffffffffffffffffffffffffffff1660000368040000000000000005819055506001600460006101000a81548160ff0219169083151502179055507ff78721226efe9a1bb678189a16d1554928b9f2192e2cb93eeda83b79fa40007d81604051808273ffffffffffffffffffffffffffffffffffffffff1673ffffffffffffffffffffffffffffffffffffffff16815260200191505060405180910390a15b50565b60056000680100000000000000008110151561086657fe5b6004020160000160009054906101000a900473ffffffffffffffffffffffffffffffffffffffff1673ffffffffffffffffffffffffffffffffffffffff163373ffffffffffffffffffffffffffffffffffffffff161480156108d2575060006804000000000000000554145b156108f3576000600460006101000a81548160ff0219169083151502179055505b565b680400000000000000055481565b7318513702ccd928f2a3eb63d900adf03c9cc8159381565b600081565b60056000680100000000000000008110151561093857fe5b6004020160000160009054906101000a900473ffffffffffffffffffffffffffffffffffffffff1673ffffffffffffffffffffffffffffffffffffffff163373ffffffffffffffffffffffffffffffffffffffff161480156109ba575060006004600a9054906101000a900467ffffffffffffffff1667ffffffffffffffff16145b15610a4d576005600068010000000000000000811015156109d757fe5b6004020160000160009054906101000a900473ffffffffffffffffffffffffffffffffffffffff1673ffffffffffffffffffffffffffffffffffffffff163073ffffffffffffffffffffffffffffffffffffffff163160405160006040518083038185875af1925050501515610a4c57600080fd5b5b565b600460009054906101000a900460ff1681565b6000806000806000806000809054906101000a900460ff16151515610a8657600080fd5b60016000806101000a81548160ff0219169083151502179055507318513702ccd928f2a3eb63d900adf03c9cc8159373ffffffffffffffffffffffffffffffffffffffff163373ffffffffffffffffffffffffffffffffffffffff16141580610afa575060008a67ffffffffffffffff1611155b80610b635750600060058b67ffffffffffffffff166801000000000000000081101515610b2357fe5b6004020160000160009054906101000a900473ffffffffffffffffffffffffffffffffffffffff1673ffffffffffffffffffffffffffffffffffffffff16145b80610b965750600060058b67ffffffffffffffff166801000000000000000081101515610b8c57fe5b6004020160010154145b15610ba0576110f9565b60058a67ffffffffffffffff166801000000000000000081101515610bc157fe5b60040201600101549550886000191660058b67ffffffffffffffff166801000000000000000081101515610bf157fe5b600402016003015460001916141515610c09576110f9565b6001861415610ce6577318513702ccd928f2a3eb63d900adf03c9cc8159373ffffffffffffffffffffffffffffffffffffffff166108fc6003549081150290604051600060405180830381858888f193505050509450841515610c6b57600080fd5b600060058b67ffffffffffffffff166801000000000000000081101515610c8e57fe5b60040201600101819055506004600a81819054906101000a900467ffffffffffffffff16809291906001900391906101000a81548167ffffffffffffffff021916908367ffffffffffffffff160217905550506110f9565b600060058b67ffffffffffffffff166801000000000000000081101515610d0957fe5b60040201600101819055506004600a81819054906101000a900467ffffffffffffffff16809291906001900391906101000a81548167ffffffffffffffff021916908367ffffffffffffffff1602179055505060028867ffffffffffffffff161015610dcb577318513702ccd928f2a3eb63d900adf03c9cc8159373ffffffffffffffffffffffffffffffffffffffff166108fc879081150290604051600060405180830381858888f193505050509350831515610dc657600080fd5b610e88565b6001600460016101000a81548160ff02191690831515021790555060058a67ffffffffffffffff166801000000000000000081101515610e0757fe5b6004020160000160009054906101000a900473ffffffffffffffffffffffffffffffffffffffff1673ffffffffffffffffffffffffffffffffffffffff166108fc87604051600060405180830381858888f193505050509250821515610e6c57600080fd5b6000600460016101000a81548160ff0219169083151502179055505b3a6002548703811515610e9757fe5b0491507fe36d392c21a3a1548b2b8da5316872a216610b14139ec0d80335e1b139c35c628a873a5a868e8e8e604051808967ffffffffffffffff1667ffffffffffffffff16815260200188815260200187815260200186815260200185815260200184600019166000191681526020018367ffffffffffffffff1667ffffffffffffffff16815260200182600019166000191681526020019850505050505050505060405180910390a16113885a03821115610f55576113885a0391505b6001600460016101000a81548160ff02191690831515021790555060058a67ffffffffffffffff166801000000000000000081101515610f9157fe5b6004020160020160009054906101000a900473ffffffffffffffffffffffffffffffffffffffff1673ffffffffffffffffffffffffffffffffffffffff168260058c67ffffffffffffffff166801000000000000000081101515610ff157fe5b6004020160020160149054906101000a90047c0100000000000000000000000000000000000000000000000000000000027c01000000000000000000000000000000000000000000000000000000009004908c8b8b6040518563ffffffff167c0100000000000000000000000000000000000000000000000000000000028152600401808467ffffffffffffffff1667ffffffffffffffff1681526020018367ffffffffffffffff1667ffffffffffffffff1681526020018260001916600019168152602001935050505060006040518083038160008887f1935050505090508015156110dd57600080fd5b6000600460016101000a81548160ff0219169083151502179055505b60008060006101000a81548160ff02191690831515021790555050505050505050505050565b600080600460019054906101000a900460ff161561113c57600080fd5b600460009054906101000a900460ff161561115a5760009150611541565b60058367ffffffffffffffff16680100000000000000008110151561117b57fe5b600402016001015490503373ffffffffffffffffffffffffffffffffffffffff1660058467ffffffffffffffff1668010000000000000000811015156111bd57fe5b6004020160000160009054906101000a900473ffffffffffffffffffffffffffffffffffffffff1673ffffffffffffffffffffffffffffffffffffffff1614801561120a57506003548110155b156113f257600160058467ffffffffffffffff16680100000000000000008110151561123257fe5b60040201600101819055506001600460016101000a81548160ff0219169083151502179055503373ffffffffffffffffffffffffffffffffffffffff1661127b82600354611d62565b60405160006040518083038185875af192505050151561129a57600080fd5b6000600460016101000a81548160ff0219169083151502179055507f0e2984d10e577bb65e890413616fdf852498a063437ca194d43fe257b33cd1ce833360058667ffffffffffffffff1668010000000000000000811015156112f957fe5b6004020160000160009054906101000a900473ffffffffffffffffffffffffffffffffffffffff1660058767ffffffffffffffff16680100000000000000008110151561134257fe5b60040201600101546001604051808667ffffffffffffffff1667ffffffffffffffff1681526020018573ffffffffffffffffffffffffffffffffffffffff1673ffffffffffffffffffffffffffffffffffffffff1681526020018473ffffffffffffffffffffffffffffffffffffffff1673ffffffffffffffffffffffffffffffffffffffff1681526020018381526020018281526020019550505050505060405180910390a160019150611541565b7f0e2984d10e577bb65e890413616fdf852498a063437ca194d43fe257b33cd1ce833360058667ffffffffffffffff16680100000000000000008110151561143657fe5b6004020160000160009054906101000a900473ffffffffffffffffffffffffffffffffffffffff16847fffffffffffffffffffffffffffffffffffffffffffffffffffffffffffffffff604051808667ffffffffffffffff1667ffffffffffffffff1681526020018573ffffffffffffffffffffffffffffffffffffffff1673ffffffffffffffffffffffffffffffffffffffff1681526020018473ffffffffffffffffffffffffffffffffffffffff1673ffffffffffffffffffffffffffffffffffffffff1681526020018381526020018281526020019550505050505060405180910390a17f040000000000000000000000000000000000000000000000000000000000000091505b50919050565b6000806000600460019054906101000a900460ff161561156657600080fd5b600460009054906101000a900460ff16156115fa576001600460016101000a81548160ff0219169083151502179055503373ffffffffffffffffffffffffffffffffffffffff163460405160006040518083038185875af19250505015156115cd57600080fd5b6000600460016101000a81548160ff02191690831515021790555068040000000000000005549250611a7a565b600254341015611699576001600460016101000a81548160ff0219169083151502179055503373ffffffffffffffffffffffffffffffffffffffff163460405160006040518083038185875af192505050151561165657600080fd5b6000600460016101000a81548160ff0219169083151502179055507f04000000000000000000000000000000000000000000000000000000000000009250611a7a565b600460029054906101000a900467ffffffffffffffff1691506004600281819054906101000a900467ffffffffffffffff168092919060010191906101000a81548167ffffffffffffffff021916908367ffffffffffffffff160217905550506004600a81819054906101000a900467ffffffffffffffff168092919060010191906101000a81548167ffffffffffffffff021916908367ffffffffffffffff160217905550508784604051808360ff1660ff167f0100000000000000000000000000000000000000000000000000000000000000028152600101828051906020019060200280838360005b838110156117a0578082015181840152602081019050611785565b5050505090500192505050604051809103902090503360058367ffffffffffffffff1668010000000000000000811015156117d757fe5b6004020160000160006101000a81548173ffffffffffffffffffffffffffffffffffffffff021916908373ffffffffffffffffffffffffffffffffffffffff1602179055503460058367ffffffffffffffff16680100000000000000008110151561183e57fe5b60040201600101819055508660058367ffffffffffffffff16680100000000000000008110151561186b57fe5b6004020160020160006101000a81548173ffffffffffffffffffffffffffffffffffffffff021916908373ffffffffffffffffffffffffffffffffffffffff1602179055508560058367ffffffffffffffff1668010000000000000000811015156118d257fe5b6004020160020160146101000a81548163ffffffff02191690837c0100000000000000000000000000000000000000000000000000000000900402179055508060058367ffffffffffffffff16680100000000000000008110151561193357fe5b6004020160030181600019169055507f295780ea261767c398d062898e5648587d7b8ca371ffd203be8b4f9a43454ffa828933348b868b8b604051808967ffffffffffffffff1667ffffffffffffffff1681526020018860ff1660ff1681526020018773ffffffffffffffffffffffffffffffffffffffff1673ffffffffffffffffffffffffffffffffffffffff1681526020018681526020018573ffffffffffffffffffffffffffffffffffffffff1673ffffffffffffffffffffffffffffffffffffffff168152602001846000191660001916815260200183815260200180602001828103825283818151815260200191508051906020019060200280838360005b83811015611a52578082015181840152602081019050611a37565b50505050905001995050505050505050505060405180910390a18167ffffffffffffffff1692505b505095945050505050565b7f040000000000000000000000000000000000000000000000000000000000000081565b600460029054906101000a900467ffffffffffffffff1681565b60025481565b60035481565b6005816801000000000000000081101515611ae657fe5b600402016000915090508060000160009054906101000a900473ffffffffffffffffffffffffffffffffffffffff16908060010154908060020160009054906101000a900473ffffffffffffffffffffffffffffffffffffffff16908060020160149054906101000a90047c010000000000000000000000000000000000000000000000000000000002908060030154905085565b60015481565b6004600a9054906101000a900467ffffffffffffffff1681565b600560006801000000000000000081101515611bb357fe5b6004020160000160009054906101000a900473ffffffffffffffffffffffffffffffffffffffff1673ffffffffffffffffffffffffffffffffffffffff163373ffffffffffffffffffffffffffffffffffffffff16148015611c35575060006004600a9054906101000a900467ffffffffffffffff1667ffffffffffffffff16145b15611caf5782600181905550611c4b8383611d7b565b600281905550611c5b8382611d7b565b6003819055507f8ccc42b6e039247437260d1393a4352a1bbf3f2f9091caef694b2482a2ed914e60015460025460035460405180848152602001838152602001828152602001935050505060405180910390a15b505050565b600181565b600181565b600560006801000000000000000081101515611cd657fe5b6004020160000160009054906101000a900473ffffffffffffffffffffffffffffffffffffffff1673ffffffffffffffffffffffffffffffffffffffff163373ffffffffffffffffffffffffffffffffffffffff161415611d4d576001600460006101000a81548160ff0219169083151502179055505b565b600460019054906101000a900460ff1681565b6000828211151515611d7057fe5b818303905092915050565b6000806000841415611d905760009150611daf565b8284029050828482811515611da157fe5b04141515611dab57fe5b8091505b50929150505600a165627a7a72305820f76afc4dbd0134525ce661d8cb5945e6a8d15b005b24c260599e626f240c8d420029",
  "source": "pragma solidity ^0.4.9;\n\ncontract sGuardPlus {\n    constructor() internal {\n        __lock_modifier0_lock = false;\n    }\n\n    function mul_uint(uint256 a, uint256 b) internal pure returns (uint256) {\n        if (a == 0) {\n            return 0;\n        }\n        uint256 c = a * b;\n        assert(c / a == b);\n        return c;\n    }\n\n    function sub_uint(uint256 a, uint256 b) internal pure returns (uint256) {\n        assert(b <= a);\n        return a - b;\n    }\n\n    bool private __lock_modifier0_lock;\n    modifier __lock_modifier0() {\n        require(!__lock_modifier0_lock);\n        __lock_modifier0_lock = true;\n        _;\n        __lock_modifier0_lock = false;\n    }\n}\n\ncontract TownCrier is sGuardPlus {\n    struct Request {\n        address requester;\n        uint256 fee;\n        address callbackAddr;\n        bytes4 callbackFID;\n        bytes32 paramsHash;\n    }\n    event Upgrade(address newAddr);\n    event Reset(uint256 gas_price, uint256 min_fee, uint256 cancellation_fee);\n    event RequestInfo(\n        uint64 id,\n        uint8 requestType,\n        address requester,\n        uint256 fee,\n        address callbackAddr,\n        bytes32 paramsHash,\n        uint256 timestamp,\n        bytes32[] requestData\n    );\n    event DeliverInfo(\n        uint64 requestId,\n        uint256 fee,\n        uint256 gasPrice,\n        uint256 gasLeft,\n        uint256 callbackGas,\n        bytes32 paramsHash,\n        uint64 error,\n        bytes32 respData\n    );\n    event Cancel(\n        uint64 requestId,\n        address canceller,\n        address requester,\n        uint256 fee,\n        int256 flag\n    );\n    address public constant SGX_ADDRESS =\n        0x18513702cCd928F2A3eb63d900aDf03c9cc81593;\n    uint256 public GAS_PRICE = 5 * 10**10;\n    uint256 public MIN_FEE = 30000 * GAS_PRICE;\n    uint256 public CANCELLATION_FEE = 25000 * GAS_PRICE;\n    uint256 public constant CANCELLED_FEE_FLAG = 1;\n    uint256 public constant DELIVERED_FEE_FLAG = 0;\n    int256 public constant FAIL_FLAG = -2**250;\n    int256 public constant SUCCESS_FLAG = 1;\n    bool public killswitch;\n    bool public externalCallFlag;\n    uint64 public requestCnt;\n    uint64 public unrespondedCnt;\n    Request[2**64] public requests;\n    int256 public newVersion = 0;\n\n    function() {}\n\n    constructor() public {\n        requestCnt = 1;\n        requests[0].requester = msg.sender;\n        killswitch = false;\n        unrespondedCnt = 0;\n        externalCallFlag = false;\n    }\n\n    function upgrade(address newAddr) {\n        if (msg.sender == requests[0].requester && unrespondedCnt == 0) {\n            newVersion = -int256(newAddr);\n            killswitch = true;\n            Upgrade(newAddr);\n        }\n    }\n\n    function reset(\n        uint256 price,\n        uint256 minGas,\n        uint256 cancellationGas\n    ) public {\n        if (msg.sender == requests[0].requester && unrespondedCnt == 0) {\n            GAS_PRICE = price;\n            MIN_FEE = mul_uint(price, minGas);\n            CANCELLATION_FEE = mul_uint(price, cancellationGas);\n            Reset(GAS_PRICE, MIN_FEE, CANCELLATION_FEE);\n        }\n    }\n\n    function suspend() public {\n        if (msg.sender == requests[0].requester) {\n            killswitch = true;\n        }\n    }\n\n    function restart() public {\n        if (msg.sender == requests[0].requester && newVersion == 0) {\n            killswitch = false;\n        }\n    }\n\n    function withdraw() public {\n        if (msg.sender == requests[0].requester && unrespondedCnt == 0) {\n            if (!requests[0].requester.call.value(this.balance)()) {\n                throw;\n            }\n        }\n    }\n\n    function request(\n        uint8 requestType,\n        address callbackAddr,\n        bytes4 callbackFID,\n        uint256 timestamp,\n        bytes32[] requestData\n    ) public payable returns (int256) {\n        if (externalCallFlag) {\n            throw;\n        }\n\n        if (killswitch) {\n            externalCallFlag = true;\n            if (!msg.sender.call.value(msg.value)()) {\n                throw;\n            }\n\n            externalCallFlag = false;\n            return newVersion;\n        }\n\n        if (msg.value < MIN_FEE) {\n            externalCallFlag = true;\n            if (!msg.sender.call.value(msg.value)()) {\n                throw;\n            }\n\n            externalCallFlag = false;\n            return FAIL_FLAG;\n        } else {\n            uint64 requestId = requestCnt;\n            requestCnt++;\n            unrespondedCnt++;\n            bytes32 paramsHash = sha3(requestType, requestData);\n            requests[requestId].requester = msg.sender;\n            requests[requestId].fee = msg.value;\n            requests[requestId].callbackAddr = callbackAddr;\n            requests[requestId].callbackFID = callbackFID;\n            requests[requestId].paramsHash = paramsHash;\n            RequestInfo(\n                requestId,\n                requestType,\n                msg.sender,\n                msg.value,\n                callbackAddr,\n                paramsHash,\n                timestamp,\n                requestData\n            );\n            return requestId;\n        }\n    }\n\n    function deliver(\n        uint64 requestId,\n        bytes32 paramsHash,\n        uint64 error,\n        bytes32 respData\n    ) public __lock_modifier0 {\n        if (\n            msg.sender != SGX_ADDRESS ||\n            requestId <= 0 ||\n            requests[requestId].requester == 0 ||\n            requests[requestId].fee == DELIVERED_FEE_FLAG\n        ) {\n            return;\n        }\n\n        uint256 fee = requests[requestId].fee;\n        if (requests[requestId].paramsHash != paramsHash) {\n            return;\n        } else if (fee == CANCELLED_FEE_FLAG) {\n            bool __sent_result104 = SGX_ADDRESS.send(CANCELLATION_FEE);\n            require(__sent_result104);\n            requests[requestId].fee = DELIVERED_FEE_FLAG;\n            unrespondedCnt--;\n            return;\n        }\n\n        requests[requestId].fee = DELIVERED_FEE_FLAG;\n        unrespondedCnt--;\n        if (error < 2) {\n            bool __sent_result105 = SGX_ADDRESS.send(fee);\n            require(__sent_result105);\n        } else {\n            externalCallFlag = true;\n            bool __sent_result106 = requests[requestId]\n                .requester\n                .call\n                .gas(2300)\n                .value(fee)();\n            require(__sent_result106);\n            externalCallFlag = false;\n        }\n\n        uint256 callbackGas = (fee - MIN_FEE) / tx.gasprice;\n        DeliverInfo(\n            requestId,\n            fee,\n            tx.gasprice,\n            msg.gas,\n            callbackGas,\n            paramsHash,\n            error,\n            respData\n        );\n        if (callbackGas > msg.gas - 5000) {\n            callbackGas = msg.gas - 5000;\n        }\n\n        externalCallFlag = true;\n        bool __sent_result103 = requests[requestId].callbackAddr.call.gas(\n            callbackGas\n        )(requests[requestId].callbackFID, requestId, error, respData);\n        require(__sent_result103);\n        externalCallFlag = false;\n    }\n\n    function cancel(uint64 requestId) public returns (int256) {\n        if (externalCallFlag) {\n            throw;\n        }\n\n        if (killswitch) {\n            return 0;\n        }\n\n        uint256 fee = requests[requestId].fee;\n        if (\n            requests[requestId].requester == msg.sender &&\n            fee >= CANCELLATION_FEE\n        ) {\n            requests[requestId].fee = CANCELLED_FEE_FLAG;\n            externalCallFlag = true;\n            if (!msg.sender.call.value(sub_uint(fee, CANCELLATION_FEE))()) {\n                throw;\n            }\n\n            externalCallFlag = false;\n            Cancel(\n                requestId,\n                msg.sender,\n                requests[requestId].requester,\n                requests[requestId].fee,\n                1\n            );\n            return SUCCESS_FLAG;\n        } else {\n            Cancel(\n                requestId,\n                msg.sender,\n                requests[requestId].requester,\n                fee,\n                -1\n            );\n            return FAIL_FLAG;\n        }\n    }\n}\n",
  "sourcePath": "/workdir/truffle_example/after/0x89c1b3807d4c67df034fffb62f3509561218d30b/contracts/0x89c1b3807d4c67df034fffb62f3509561218d30b.sol.fixed.sol",
  "compiler": {
    "name": "solc",
    "version": "0.4.25+commit.59dbf8f1.Emscripten.clang"
  },
  "schemaVersion": "3.4.8",
  "updatedAt": "2022-08-13T03:55:59.188Z",
  "networkType": "ethereum",
  "devdoc": {
    "methods": {}
  },
  "userdoc": {
    "methods": {}
  }
}