{
  "contractName": "Proxy",
  "abi": [
    {
      "constant": false,
      "inputs": [
        {
          "name": "_owner",
          "type": "address"
        }
      ],
      "name": "transferOwner",
      "outputs": [],
      "payable": false,
      "stateMutability": "nonpayable",
      "type": "function"
    },
    {
      "constant": false,
      "inputs": [
        {
          "name": "target",
          "type": "address"
        },
        {
          "name": "data",
          "type": "bytes"
        }
      ],
      "name": "proxy",
      "outputs": [],
      "payable": true,
      "stateMutability": "payable",
      "type": "function"
    }
  ],
  "bytecode": "0x6080604052336000806101000a81548173ffffffffffffffffffffffffffffffffffffffff021916908373ffffffffffffffffffffffffffffffffffffffff16021790555034801561005057600080fd5b50610272806100606000396000f30060806040526004361061004c576000357c0100000000000000000000000000000000000000000000000000000000900463ffffffff1680634fb2e45d14610051578063be6d055a14610094575b600080fd5b34801561005d57600080fd5b50610092600480360381019080803573ffffffffffffffffffffffffffffffffffffffff169060200190929190505050610110565b005b61010e600480360381019080803573ffffffffffffffffffffffffffffffffffffffff169060200190929190803590602001908201803590602001908080601f01602080910402602001604051908101604052809392919081815260200183838082843782019150505050505091929192905050506101a9565b005b6000809054906101000a900473ffffffffffffffffffffffffffffffffffffffff1673ffffffffffffffffffffffffffffffffffffffff163373ffffffffffffffffffffffffffffffffffffffff1614156101a657806000806101000a81548173ffffffffffffffffffffffffffffffffffffffff021916908373ffffffffffffffffffffffffffffffffffffffff1602179055505b50565b60008273ffffffffffffffffffffffffffffffffffffffff16348360405180828051906020019080838360005b838110156101f15780820151818401526020810190506101d6565b50505050905090810190601f16801561021e5780820380516001836020036101000a031916815260200191505b5091505060006040518083038185875af192505050905080151561024157600080fd5b5050505600a165627a7a7230582063155e215cf04f3611cf5e62f3d0545ff34f8f6fc7288f1e5e026c744e0480f70029",
  "source": "pragma solidity ^0.4.23;\n\ncontract sGuardPlus {\n    constructor() internal {}\n}\n\ncontract Proxy {\n    modifier onlyOwner() {\n        if (msg.sender == Owner) _;\n    }\n    address Owner = msg.sender;\n\n    function transferOwner(address _owner) public onlyOwner {\n        Owner = _owner;\n    }\n\n    function proxy(address target, bytes data) public payable {\n        bool __sent_result100 = target.call.value(msg.value)(data);\n        require(__sent_result100);\n    }\n}\n\ncontract VaultProxy is Proxy {\n    address public Owner;\n    mapping(address => uint256) public Deposits;\n\n    function() public payable {}\n\n    function Vault() public payable {\n        if (msg.sender == tx.origin) {\n            Owner = msg.sender;\n            deposit();\n        }\n    }\n\n    function deposit() public payable {\n        if (msg.value > 0.25 ether) {\n            Deposits[msg.sender] += msg.value;\n        }\n    }\n\n    function withdraw(uint256 amount) public onlyOwner {\n        if (amount > 0 && Deposits[msg.sender] >= amount) {\n            msg.sender.transfer(amount);\n        }\n    }\n}\n",
  "sourcePath": "/workdir/truffle_example/after/0xbaa3de6504690efb064420d89e871c27065cdd52/contracts/0xbaa3de6504690efb064420d89e871c27065cdd52.sol.fixed.sol",
  "compiler": {
    "name": "solc",
    "version": "0.4.25+commit.59dbf8f1.Emscripten.clang"
  },
  "schemaVersion": "3.4.8",
  "updatedAt": "2022-08-13T06:14:58.923Z",
  "devdoc": {
    "methods": {}
  },
  "userdoc": {
    "methods": {}
  }
}