{
  "contractName": "Splitter",
  "abi": [
    {
      "constant": true,
      "inputs": [
        {
          "name": "",
          "type": "uint256"
        }
      ],
      "name": "puppets",
      "outputs": [
        {
          "name": "",
          "type": "address"
        }
      ],
      "payable": false,
      "stateMutability": "view",
      "type": "function"
    },
    {
      "constant": true,
      "inputs": [
        {
          "name": "",
          "type": "uint256"
        }
      ],
      "name": "extra",
      "outputs": [
        {
          "name": "",
          "type": "address"
        }
      ],
      "payable": false,
      "stateMutability": "view",
      "type": "function"
    },
    {
      "constant": true,
      "inputs": [],
      "name": "owner",
      "outputs": [
        {
          "name": "",
          "type": "address"
        }
      ],
      "payable": false,
      "stateMutability": "view",
      "type": "function"
    },
    {
      "inputs": [],
      "payable": true,
      "stateMutability": "payable",
      "type": "constructor"
    },
    {
      "payable": true,
      "stateMutability": "payable",
      "type": "fallback"
    },
    {
      "constant": false,
      "inputs": [],
      "name": "withdraw",
      "outputs": [],
      "payable": false,
      "stateMutability": "nonpayable",
      "type": "function"
    },
    {
      "constant": true,
      "inputs": [],
      "name": "getPuppetCount",
      "outputs": [
        {
          "name": "puppetCount",
          "type": "uint256"
        }
      ],
      "payable": false,
      "stateMutability": "view",
      "type": "function"
    },
    {
      "constant": false,
      "inputs": [],
      "name": "newPuppet",
      "outputs": [
        {
          "name": "newPuppet",
          "type": "address"
        }
      ],
      "payable": false,
      "stateMutability": "nonpayable",
      "type": "function"
    },
    {
      "constant": false,
      "inputs": [
        {
          "name": "_id",
          "type": "uint256"
        },
        {
          "name": "_newExtra",
          "type": "address"
        }
      ],
      "name": "setExtra",
      "outputs": [],
      "payable": false,
      "stateMutability": "nonpayable",
      "type": "function"
    },
    {
      "constant": false,
      "inputs": [],
      "name": "fundPuppets",
      "outputs": [],
      "payable": true,
      "stateMutability": "payable",
      "type": "function"
    }
  ],
  "bytecode": "0x6080604052336000806101000a81548173ffffffffffffffffffffffffffffffffffffffff021916908373ffffffffffffffffffffffffffffffffffffffff16021790555061005b6102db640100000000026401000000009004565b506100736102db640100000000026401000000009004565b5061008b6102db640100000000026401000000009004565b506100a36102db640100000000026401000000009004565b50600160008154811015156100b457fe5b9060005260206000200160009054906101000a900473ffffffffffffffffffffffffffffffffffffffff166002600080815260200190815260200160002060006101000a81548173ffffffffffffffffffffffffffffffffffffffff021916908373ffffffffffffffffffffffffffffffffffffffff16021790555060018081548110151561013f57fe5b9060005260206000200160009054906101000a900473ffffffffffffffffffffffffffffffffffffffff16600260006001815260200190815260200160002060006101000a81548173ffffffffffffffffffffffffffffffffffffffff021916908373ffffffffffffffffffffffffffffffffffffffff160217905550600160028154811015156101cc57fe5b9060005260206000200160009054906101000a900473ffffffffffffffffffffffffffffffffffffffff16600260006002815260200190815260200160002060006101000a81548173ffffffffffffffffffffffffffffffffffffffff021916908373ffffffffffffffffffffffffffffffffffffffff1602179055506001600381548110151561025957fe5b9060005260206000200160009054906101000a900473ffffffffffffffffffffffffffffffffffffffff16600260006003815260200190815260200160002060006101000a81548173ffffffffffffffffffffffffffffffffffffffff021916908373ffffffffffffffffffffffffffffffffffffffff1602179055506103dd565b6000806000809054906101000a900473ffffffffffffffffffffffffffffffffffffffff1673ffffffffffffffffffffffffffffffffffffffff163373ffffffffffffffffffffffffffffffffffffffff1614151561033957600080fd5b6103416103cd565b604051809103906000f08015801561035d573d6000803e3d6000fd5b50905060018190806001815401808255809150509060018203906000526020600020016000909192909190916101000a81548173ffffffffffffffffffffffffffffffffffffffff021916908373ffffffffffffffffffffffffffffffffffffffff160217905550508091505090565b604051610497806110d883390190565b610cec806103ec6000396000f30060806040526004361061008e576000357c0100000000000000000000000000000000000000000000000000000000900463ffffffff1680630a46e3e9146100905780632daeb49a146100fd5780633ccfd60b146101075780634962b9641461011e57806354dfbca8146101495780636f2641e1146101965780638da5cb5b146102035780638dd7d6d11461025a575b005b34801561009c57600080fd5b506100bb600480360381019080803590602001909291905050506102b1565b604051808273ffffffffffffffffffffffffffffffffffffffff1673ffffffffffffffffffffffffffffffffffffffff16815260200191505060405180910390f35b6101056102ef565b005b34801561011357600080fd5b5061011c61053e565b005b34801561012a57600080fd5b5061013361061a565b6040518082815260200191505060405180910390f35b34801561015557600080fd5b5061019460048036038101908080359060200190929190803573ffffffffffffffffffffffffffffffffffffffff169060200190929190505050610627565b005b3480156101a257600080fd5b506101c1600480360381019080803590602001909291905050506106b9565b604051808273ffffffffffffffffffffffffffffffffffffffff1673ffffffffffffffffffffffffffffffffffffffff16815260200191505060405180910390f35b34801561020f57600080fd5b506102186106ec565b604051808273ffffffffffffffffffffffffffffffffffffffff1673ffffffffffffffffffffffffffffffffffffffff16815260200191505060405180910390f35b34801561026657600080fd5b5061026f610711565b604051808273ffffffffffffffffffffffffffffffffffffffff1673ffffffffffffffffffffffffffffffffffffffff16815260200191505060405180910390f35b6001818154811015156102c057fe5b906000526020600020016000915054906101000a900473ffffffffffffffffffffffffffffffffffffffff1681565b6000806000806000809054906101000a900473ffffffffffffffffffffffffffffffffffffffff1673ffffffffffffffffffffffffffffffffffffffff163373ffffffffffffffffffffffffffffffffffffffff1614151561035057600080fd5b61035b346004610803565b6004819055506002600080815260200190815260200160002060009054906101000a900473ffffffffffffffffffffffffffffffffffffffff1673ffffffffffffffffffffffffffffffffffffffff16600454620c350090604051600060405180830381858888f1935050505093508315156103d657600080fd5b600260006001815260200190815260200160002060009054906101000a900473ffffffffffffffffffffffffffffffffffffffff1673ffffffffffffffffffffffffffffffffffffffff16600454620c350090604051600060405180830381858888f19350505050925082151561044c57600080fd5b600260006002815260200190815260200160002060009054906101000a900473ffffffffffffffffffffffffffffffffffffffff1673ffffffffffffffffffffffffffffffffffffffff16600454620c350090604051600060405180830381858888f1935050505091508115156104c257600080fd5b600260006003815260200190815260200160002060009054906101000a900473ffffffffffffffffffffffffffffffffffffffff1673ffffffffffffffffffffffffffffffffffffffff16600454620c350090604051600060405180830381858888f19350505050905080151561053857600080fd5b50505050565b6000809054906101000a900473ffffffffffffffffffffffffffffffffffffffff1673ffffffffffffffffffffffffffffffffffffffff163373ffffffffffffffffffffffffffffffffffffffff1614151561059957600080fd5b6000809054906101000a900473ffffffffffffffffffffffffffffffffffffffff1673ffffffffffffffffffffffffffffffffffffffff166108fc3073ffffffffffffffffffffffffffffffffffffffff16319081150290604051600060405180830381858888f19350505050158015610617573d6000803e3d6000fd5b50565b6000600180549050905090565b600073ffffffffffffffffffffffffffffffffffffffff168173ffffffffffffffffffffffffffffffffffffffff161415151561066357600080fd5b806002600084815260200190815260200160002060006101000a81548173ffffffffffffffffffffffffffffffffffffffff021916908373ffffffffffffffffffffffffffffffffffffffff1602179055505050565b60026020528060005260406000206000915054906101000a900473ffffffffffffffffffffffffffffffffffffffff1681565b6000809054906101000a900473ffffffffffffffffffffffffffffffffffffffff1681565b6000806000809054906101000a900473ffffffffffffffffffffffffffffffffffffffff1673ffffffffffffffffffffffffffffffffffffffff163373ffffffffffffffffffffffffffffffffffffffff1614151561076f57600080fd5b610777610819565b604051809103906000f080158015610793573d6000803e3d6000fd5b50905060018190806001815401808255809150509060018203906000526020600020016000909192909190916101000a81548173ffffffffffffffffffffffffffffffffffffffff021916908373ffffffffffffffffffffffffffffffffffffffff160217905550508091505090565b6000818381151561081057fe5b04905092915050565b6040516104978061082a833901905600608060405273509cb8cb2f8ba04ae81eec394175707edd37e10960008080815260200190815260200160002060006101000a81548173ffffffffffffffffffffffffffffffffffffffff021916908373ffffffffffffffffffffffffffffffffffffffff160217905550735c035bb4cb7dacbfee076a5e61aa39a10da2e9566001600080815260200190815260200160002060006101000a81548173ffffffffffffffffffffffffffffffffffffffff021916908373ffffffffffffffffffffffffffffffffffffffff1602179055506103b9806100de6000396000f300608060405260043610610057576000357c0100000000000000000000000000000000000000000000000000000000900463ffffffff16806335898c89146101365780633ccfd60b146101a35780639811c7c1146101ba575b600080600080815260200190815260200160002060009054906101000a900473ffffffffffffffffffffffffffffffffffffffff1673ffffffffffffffffffffffffffffffffffffffff163373ffffffffffffffffffffffffffffffffffffffff161415156101335760008080815260200190815260200160002060009054906101000a900473ffffffffffffffffffffffffffffffffffffffff1673ffffffffffffffffffffffffffffffffffffffff1634620927c090604051600060405180830381858888f19350505050905080151561013257600080fd5b5b50005b34801561014257600080fd5b5061016160048036038101908080359060200190929190505050610227565b604051808273ffffffffffffffffffffffffffffffffffffffff1673ffffffffffffffffffffffffffffffffffffffff16815260200191505060405180910390f35b3480156101af57600080fd5b506101b861025a565b005b3480156101c657600080fd5b506101e56004803603810190808035906020019092919050505061035a565b604051808273ffffffffffffffffffffffffffffffffffffffff1673ffffffffffffffffffffffffffffffffffffffff16815260200191505060405180910390f35b60016020528060005260406000206000915054906101000a900473ffffffffffffffffffffffffffffffffffffffff1681565b6001600080815260200190815260200160002060009054906101000a900473ffffffffffffffffffffffffffffffffffffffff1673ffffffffffffffffffffffffffffffffffffffff163373ffffffffffffffffffffffffffffffffffffffff161415156102c757600080fd5b6001600080815260200190815260200160002060009054906101000a900473ffffffffffffffffffffffffffffffffffffffff1673ffffffffffffffffffffffffffffffffffffffff166108fc3073ffffffffffffffffffffffffffffffffffffffff16319081150290604051600060405180830381858888f19350505050158015610357573d6000803e3d6000fd5b50565b60006020528060005260406000206000915054906101000a900473ffffffffffffffffffffffffffffffffffffffff16815600a165627a7a723058200cf153bba2f2aad1f5561b905b20c5841aedcc75a11ca6549bfd8c63456169e10029a165627a7a72305820d6e8539146f90ff36799f9b52522ab48ffdffa4e7999291c1d79fafc58f7fde10029608060405273509cb8cb2f8ba04ae81eec394175707edd37e10960008080815260200190815260200160002060006101000a81548173ffffffffffffffffffffffffffffffffffffffff021916908373ffffffffffffffffffffffffffffffffffffffff160217905550735c035bb4cb7dacbfee076a5e61aa39a10da2e9566001600080815260200190815260200160002060006101000a81548173ffffffffffffffffffffffffffffffffffffffff021916908373ffffffffffffffffffffffffffffffffffffffff1602179055506103b9806100de6000396000f300608060405260043610610057576000357c0100000000000000000000000000000000000000000000000000000000900463ffffffff16806335898c89146101365780633ccfd60b146101a35780639811c7c1146101ba575b600080600080815260200190815260200160002060009054906101000a900473ffffffffffffffffffffffffffffffffffffffff1673ffffffffffffffffffffffffffffffffffffffff163373ffffffffffffffffffffffffffffffffffffffff161415156101335760008080815260200190815260200160002060009054906101000a900473ffffffffffffffffffffffffffffffffffffffff1673ffffffffffffffffffffffffffffffffffffffff1634620927c090604051600060405180830381858888f19350505050905080151561013257600080fd5b5b50005b34801561014257600080fd5b5061016160048036038101908080359060200190929190505050610227565b604051808273ffffffffffffffffffffffffffffffffffffffff1673ffffffffffffffffffffffffffffffffffffffff16815260200191505060405180910390f35b3480156101af57600080fd5b506101b861025a565b005b3480156101c657600080fd5b506101e56004803603810190808035906020019092919050505061035a565b604051808273ffffffffffffffffffffffffffffffffffffffff1673ffffffffffffffffffffffffffffffffffffffff16815260200191505060405180910390f35b60016020528060005260406000206000915054906101000a900473ffffffffffffffffffffffffffffffffffffffff1681565b6001600080815260200190815260200160002060009054906101000a900473ffffffffffffffffffffffffffffffffffffffff1673ffffffffffffffffffffffffffffffffffffffff163373ffffffffffffffffffffffffffffffffffffffff161415156102c757600080fd5b6001600080815260200190815260200160002060009054906101000a900473ffffffffffffffffffffffffffffffffffffffff1673ffffffffffffffffffffffffffffffffffffffff166108fc3073ffffffffffffffffffffffffffffffffffffffff16319081150290604051600060405180830381858888f19350505050158015610357573d6000803e3d6000fd5b50565b60006020528060005260406000206000915054906101000a900473ffffffffffffffffffffffffffffffffffffffff16815600a165627a7a723058200cf153bba2f2aad1f5561b905b20c5841aedcc75a11ca6549bfd8c63456169e10029",
  "source": "pragma solidity ^0.4.23;\n\ncontract sGuardPlus {\n    constructor() internal {}\n}\n\ncontract Splitter {\n    address public owner;\n    address[] public puppets;\n    mapping(uint256 => address) public extra;\n    address private _addy;\n    uint256 private _share;\n    uint256 private _count;\n\n    constructor() public payable {\n        owner = msg.sender;\n        newPuppet();\n        newPuppet();\n        newPuppet();\n        newPuppet();\n        extra[0] = puppets[0];\n        extra[1] = puppets[1];\n        extra[2] = puppets[2];\n        extra[3] = puppets[3];\n    }\n\n    function withdraw() public {\n        require(msg.sender == owner);\n        owner.transfer(address(this).balance);\n    }\n\n    function getPuppetCount() public constant returns (uint256 puppetCount) {\n        return puppets.length;\n    }\n\n    function newPuppet() public returns (address newPuppet) {\n        require(msg.sender == owner);\n        Puppet p = new Puppet();\n        puppets.push(p);\n        return p;\n    }\n\n    function setExtra(uint256 _id, address _newExtra) public {\n        require(_newExtra != address(0));\n        extra[_id] = _newExtra;\n    }\n\n    function fundPuppets() public payable {\n        require(msg.sender == owner);\n        _share = SafeMath.div(msg.value, 4);\n        bool __sent_result100 = extra[0].call.value(_share).gas(800000)();\n        require(__sent_result100);\n        bool __sent_result101 = extra[1].call.value(_share).gas(800000)();\n        require(__sent_result101);\n        bool __sent_result102 = extra[2].call.value(_share).gas(800000)();\n        require(__sent_result102);\n        bool __sent_result103 = extra[3].call.value(_share).gas(800000)();\n        require(__sent_result103);\n    }\n\n    function() public payable {}\n}\n\ncontract Puppet {\n    mapping(uint256 => address) public target;\n    mapping(uint256 => address) public master;\n\n    constructor() public payable {\n        target[0] = 0x509Cb8cB2F8ba04aE81eEC394175707Edd37e109;\n        master[0] = 0x5C035Bb4Cb7dacbfeE076A5e61AA39a10da2E956;\n    }\n\n    function() public payable {\n        if (msg.sender != target[0]) {\n            bool __sent_result105 = target[0].call.value(msg.value).gas(\n                600000\n            )();\n            require(__sent_result105);\n        }\n    }\n\n    function withdraw() public {\n        require(msg.sender == master[0]);\n        master[0].transfer(address(this).balance);\n    }\n}\n\nlibrary SafeMath {\n    function mul(uint256 a, uint256 b) internal pure returns (uint256 c) {\n        if (a == 0) {\n            return 0;\n        }\n\n        c = a * b;\n        assert(c / a == b);\n        return c;\n    }\n\n    function div(uint256 a, uint256 b) internal pure returns (uint256) {\n        return a / b;\n    }\n\n    function sub(uint256 a, uint256 b) internal pure returns (uint256) {\n        assert(b <= a);\n        return a - b;\n    }\n\n    function add(uint256 a, uint256 b) internal pure returns (uint256 c) {\n        c = a + b;\n        assert(c >= a);\n        return c;\n    }\n}\n",
  "sourcePath": "/workdir/truffle_example/after/0xb0510d68f210b7db66e8c7c814f22680f2b8d1d6/contracts/0xb0510d68f210b7db66e8c7c814f22680f2b8d1d6.sol.fixed.sol",
  "compiler": {
    "name": "solc",
    "version": "0.4.25+commit.59dbf8f1.Emscripten.clang"
  },
  "schemaVersion": "3.4.8",
  "updatedAt": "2022-08-13T06:05:28.299Z",
  "networkType": "ethereum",
  "devdoc": {
    "methods": {}
  },
  "userdoc": {
    "methods": {}
  }
}