{
  "contractName": "SimpleWallet",
  "abi": [
    {
      "constant": true,
      "inputs": [],
      "name": "depositsCount",
      "outputs": [
        {
          "name": "",
          "type": "uint256"
        }
      ],
      "payable": false,
      "stateMutability": "view",
      "type": "function"
    },
    {
      "constant": true,
      "inputs": [],
      "name": "owner",
      "outputs": [
        {
          "name": "",
          "type": "address"
        }
      ],
      "payable": false,
      "stateMutability": "view",
      "type": "function"
    },
    {
      "payable": true,
      "stateMutability": "payable",
      "type": "fallback"
    },
    {
      "constant": false,
      "inputs": [],
      "name": "withdrawAll",
      "outputs": [],
      "payable": false,
      "stateMutability": "nonpayable",
      "type": "function"
    },
    {
      "constant": false,
      "inputs": [
        {
          "name": "_value",
          "type": "uint256"
        }
      ],
      "name": "withdraw",
      "outputs": [],
      "payable": false,
      "stateMutability": "nonpayable",
      "type": "function"
    },
    {
      "constant": false,
      "inputs": [
        {
          "name": "_target",
          "type": "address"
        },
        {
          "name": "_value",
          "type": "uint256"
        },
        {
          "name": "_data",
          "type": "bytes"
        }
      ],
      "name": "sendMoney",
      "outputs": [],
      "payable": false,
      "stateMutability": "nonpayable",
      "type": "function"
    }
  ],
  "bytecode": "0x6080604052336000806101000a81548173ffffffffffffffffffffffffffffffffffffffff021916908373ffffffffffffffffffffffffffffffffffffffff16021790555034801561005057600080fd5b5061043c806100606000396000f30060806040526004361061006d576000357c0100000000000000000000000000000000000000000000000000000000900463ffffffff1680632e1a7d4d146100815780634506e935146100ae578063853828b6146100d95780638da5cb5b146100f0578063f802504914610147575b600160008154809291906001019190505550005b34801561008d57600080fd5b506100ac600480360381019080803590602001909291905050506101da565b005b3480156100ba57600080fd5b506100c361027f565b6040518082815260200191505060405180910390f35b3480156100e557600080fd5b506100ee610285565b005b3480156100fc57600080fd5b50610105610302565b604051808273ffffffffffffffffffffffffffffffffffffffff1673ffffffffffffffffffffffffffffffffffffffff16815260200191505060405180910390f35b34801561015357600080fd5b506101d8600480360381019080803573ffffffffffffffffffffffffffffffffffffffff16906020019092919080359060200190929190803590602001908201803590602001908080601f0160208091040260200160405190810160405280939291908181526020018383808284378201915050505050509192919290505050610327565b005b6000809054906101000a900473ffffffffffffffffffffffffffffffffffffffff1673ffffffffffffffffffffffffffffffffffffffff163373ffffffffffffffffffffffffffffffffffffffff1614151561023557600080fd5b3373ffffffffffffffffffffffffffffffffffffffff166108fc829081150290604051600060405180830381858888f1935050505015801561027b573d6000803e3d6000fd5b5050565b60015481565b6000809054906101000a900473ffffffffffffffffffffffffffffffffffffffff1673ffffffffffffffffffffffffffffffffffffffff163373ffffffffffffffffffffffffffffffffffffffff161415156102e057600080fd5b6103003073ffffffffffffffffffffffffffffffffffffffff16316101da565b565b6000809054906101000a900473ffffffffffffffffffffffffffffffffffffffff1681565b6000809054906101000a900473ffffffffffffffffffffffffffffffffffffffff1673ffffffffffffffffffffffffffffffffffffffff163373ffffffffffffffffffffffffffffffffffffffff1614151561038257600080fd5b8273ffffffffffffffffffffffffffffffffffffffff16828260405180828051906020019080838360005b838110156103c85780820151818401526020810190506103ad565b50505050905090810190601f1680156103f55780820380516001836020036101000a031916815260200191505b5091505060006040518083038185875af192505050505050505600a165627a7a72305820adcb9bf468102a8d223d813c71616817978a95f230471d8ffd712b783e280f2e0029",
  "source": "/*\r\n * @source: etherscan.io \r\n * @author: -\r\n * @vulnerable_at_lines: 33\r\n */\r\n\r\npragma solidity ^0.4.24;\r\n\r\n\r\ncontract SimpleWallet {\r\n    address public owner = msg.sender;\r\n    uint public depositsCount;\r\n    \r\n    modifier onlyOwner {\r\n        require(msg.sender == owner);\r\n        _;\r\n    }\r\n    \r\n    function() public payable {\r\n        depositsCount++;\r\n    }\r\n    \r\n    function withdrawAll() public onlyOwner {\r\n        withdraw(address(this).balance);\r\n    }\r\n    \r\n    function withdraw(uint _value) public onlyOwner {\r\n        msg.sender.transfer(_value);\r\n    }\r\n    \r\n    function sendMoney(address _target, uint _value, bytes _data) public onlyOwner {\r\n        // <yes> <report> UNCHECKED_LL_CALLS\r\n        _target.call.value(_value)(_data);\r\n    }\r\n}",
  "sourcePath": "/workdir/truffle_example/0x610495793564aed0f9c7fc48dc4c7c9151d34fd6/contracts/0x610495793564aed0f9c7fc48dc4c7c9151d34fd6.sol",
  "compiler": {
    "name": "solc",
    "version": "0.4.25+commit.59dbf8f1.Emscripten.clang"
  },
  "schemaVersion": "3.4.8",
  "updatedAt": "2022-08-11T11:41:40.616Z",
  "networkType": "ethereum",
  "devdoc": {
    "methods": {}
  },
  "userdoc": {
    "methods": {}
  }
}