{
  "contractName": "MP3Coin",
  "abi": [
    {
      "constant": true,
      "inputs": [],
      "name": "name",
      "outputs": [
        {
          "name": "",
          "type": "string"
        }
      ],
      "payable": false,
      "stateMutability": "view",
      "type": "function"
    },
    {
      "constant": true,
      "inputs": [],
      "name": "totalSupply",
      "outputs": [
        {
          "name": "",
          "type": "uint256"
        }
      ],
      "payable": false,
      "stateMutability": "view",
      "type": "function"
    },
    {
      "constant": true,
      "inputs": [],
      "name": "slogan",
      "outputs": [
        {
          "name": "",
          "type": "string"
        }
      ],
      "payable": false,
      "stateMutability": "view",
      "type": "function"
    },
    {
      "constant": true,
      "inputs": [],
      "name": "decimals",
      "outputs": [
        {
          "name": "",
          "type": "uint256"
        }
      ],
      "payable": false,
      "stateMutability": "view",
      "type": "function"
    },
    {
      "constant": true,
      "inputs": [],
      "name": "symbol",
      "outputs": [
        {
          "name": "",
          "type": "string"
        }
      ],
      "payable": false,
      "stateMutability": "view",
      "type": "function"
    },
    {
      "inputs": [],
      "payable": false,
      "stateMutability": "nonpayable",
      "type": "constructor"
    },
    {
      "anonymous": false,
      "inputs": [
        {
          "indexed": true,
          "name": "_from",
          "type": "address"
        },
        {
          "indexed": true,
          "name": "_to",
          "type": "address"
        },
        {
          "indexed": false,
          "name": "_value",
          "type": "uint256"
        }
      ],
      "name": "Transfer",
      "type": "event"
    },
    {
      "anonymous": false,
      "inputs": [
        {
          "indexed": true,
          "name": "_owner",
          "type": "address"
        },
        {
          "indexed": true,
          "name": "_spender",
          "type": "address"
        },
        {
          "indexed": false,
          "name": "_value",
          "type": "uint256"
        }
      ],
      "name": "Approval",
      "type": "event"
    },
    {
      "constant": true,
      "inputs": [
        {
          "name": "_owner",
          "type": "address"
        }
      ],
      "name": "balanceOf",
      "outputs": [
        {
          "name": "balance",
          "type": "uint256"
        }
      ],
      "payable": false,
      "stateMutability": "view",
      "type": "function"
    },
    {
      "constant": true,
      "inputs": [
        {
          "name": "_owner",
          "type": "address"
        },
        {
          "name": "_spender",
          "type": "address"
        }
      ],
      "name": "allowance",
      "outputs": [
        {
          "name": "remaining",
          "type": "uint256"
        }
      ],
      "payable": false,
      "stateMutability": "view",
      "type": "function"
    },
    {
      "constant": false,
      "inputs": [
        {
          "name": "_to",
          "type": "address"
        },
        {
          "name": "_amount",
          "type": "uint256"
        }
      ],
      "name": "transfer",
      "outputs": [
        {
          "name": "success",
          "type": "bool"
        }
      ],
      "payable": false,
      "stateMutability": "nonpayable",
      "type": "function"
    },
    {
      "constant": false,
      "inputs": [
        {
          "name": "_from",
          "type": "address"
        },
        {
          "name": "_to",
          "type": "address"
        },
        {
          "name": "_amount",
          "type": "uint256"
        }
      ],
      "name": "transferFrom",
      "outputs": [
        {
          "name": "success",
          "type": "bool"
        }
      ],
      "payable": false,
      "stateMutability": "nonpayable",
      "type": "function"
    },
    {
      "constant": false,
      "inputs": [
        {
          "name": "_spender",
          "type": "address"
        },
        {
          "name": "_amount",
          "type": "uint256"
        }
      ],
      "name": "approve",
      "outputs": [
        {
          "name": "success",
          "type": "bool"
        }
      ],
      "payable": false,
      "stateMutability": "nonpayable",
      "type": "function"
    },
    {
      "constant": false,
      "inputs": [
        {
          "name": "_addresses",
          "type": "address[]"
        },
        {
          "name": "_amounts",
          "type": "uint256[]"
        }
      ],
      "name": "distribute",
      "outputs": [
        {
          "name": "success",
          "type": "bool"
        }
      ],
      "payable": false,
      "stateMutability": "nonpayable",
      "type": "function"
    }
  ],
  "bytecode": "0x60806040526008600a0a620f42400260005534801561001d57600080fd5b5033600160006101000a81548173ffffffffffffffffffffffffffffffffffffffff021916908373ffffffffffffffffffffffffffffffffffffffff16021790555060005460026000600160009054906101000a900473ffffffffffffffffffffffffffffffffffffffff1673ffffffffffffffffffffffffffffffffffffffff1673ffffffffffffffffffffffffffffffffffffffff16815260200190815260200160002081905550600160009054906101000a900473ffffffffffffffffffffffffffffffffffffffff1673ffffffffffffffffffffffffffffffffffffffff163073ffffffffffffffffffffffffffffffffffffffff167fddf252ad1be2c89b69c2b068fc378daa952ba7f163c4a11628f55a4df523b3ef6000546040518082815260200191505060405180910390a3610f4d8061015f6000396000f3006080604052600436106100af576000357c0100000000000000000000000000000000000000000000000000000000900463ffffffff16806306fdde03146100b4578063095ea7b31461014457806318160ddd146101a957806323b872dd146101d457806324e5eeaa146102595780632929abe6146102e9578063313ce567146103aa57806370a08231146103d557806395d89b411461042c578063a9059cbb146104bc578063dd62ed3e14610521575b600080fd5b3480156100c057600080fd5b506100c9610598565b6040518080602001828103825283818151815260200191508051906020019080838360005b838110156101095780820151818401526020810190506100ee565b50505050905090810190601f1680156101365780820380516001836020036101000a031916815260200191505b509250505060405180910390f35b34801561015057600080fd5b5061018f600480360381019080803573ffffffffffffffffffffffffffffffffffffffff169060200190929190803590602001909291905050506105d1565b604051808215151515815260200191505060405180910390f35b3480156101b557600080fd5b506101be6106c3565b6040518082815260200191505060405180910390f35b3480156101e057600080fd5b5061023f600480360381019080803573ffffffffffffffffffffffffffffffffffffffff169060200190929190803573ffffffffffffffffffffffffffffffffffffffff169060200190929190803590602001909291905050506106c9565b604051808215151515815260200191505060405180910390f35b34801561026557600080fd5b5061026e610940565b6040518080602001828103825283818151815260200191508051906020019080838360005b838110156102ae578082015181840152602081019050610293565b50505050905090810190601f1680156102db5780820380516001836020036101000a031916815260200191505b509250505060405180910390f35b3480156102f557600080fd5b506103906004803603810190808035906020019082018035906020019080806020026020016040519081016040528093929190818152602001838360200280828437820191505050505050919291929080359060200190820180359060200190808060200260200160405190810160405280939291908181526020018383602002808284378201915050505050509192919290505050610979565b604051808215151515815260200191505060405180910390f35b3480156103b657600080fd5b506103bf610c78565b6040518082815260200191505060405180910390f35b3480156103e157600080fd5b50610416600480360381019080803573ffffffffffffffffffffffffffffffffffffffff169060200190929190505050610c7d565b6040518082815260200191505060405180910390f35b34801561043857600080fd5b50610441610cc6565b6040518080602001828103825283818151815260200191508051906020019080838360005b83811015610481578082015181840152602081019050610466565b50505050905090810190601f1680156104ae5780820380516001836020036101000a031916815260200191505b509250505060405180910390f35b3480156104c857600080fd5b50610507600480360381019080803573ffffffffffffffffffffffffffffffffffffffff16906020019092919080359060200190929190505050610cff565b604051808215151515815260200191505060405180910390f35b34801561052d57600080fd5b50610582600480360381019080803573ffffffffffffffffffffffffffffffffffffffff169060200190929190803573ffffffffffffffffffffffffffffffffffffffff169060200190929190505050610e63565b6040518082815260200191505060405180910390f35b6040805190810160405280600881526020017f4d503320436f696e00000000000000000000000000000000000000000000000081525081565b600081600360003373ffffffffffffffffffffffffffffffffffffffff1673ffffffffffffffffffffffffffffffffffffffff16815260200190815260200160002060008573ffffffffffffffffffffffffffffffffffffffff1673ffffffffffffffffffffffffffffffffffffffff168152602001908152602001600020819055508273ffffffffffffffffffffffffffffffffffffffff163373ffffffffffffffffffffffffffffffffffffffff167f8c5be1e5ebec7d5bd14f71427d1e84f3dd0314c0f7b2291e5b200ac8c7c3b925846040518082815260200191505060405180910390a36001905092915050565b60005481565b60008082118015610719575081600260008673ffffffffffffffffffffffffffffffffffffffff1673ffffffffffffffffffffffffffffffffffffffff1681526020019081526020016000205410155b80156107a1575081600360008673ffffffffffffffffffffffffffffffffffffffff1673ffffffffffffffffffffffffffffffffffffffff16815260200190815260200160002060003373ffffffffffffffffffffffffffffffffffffffff1673ffffffffffffffffffffffffffffffffffffffff1681526020019081526020016000205410155b15156107ac57600080fd5b81600260008673ffffffffffffffffffffffffffffffffffffffff1673ffffffffffffffffffffffffffffffffffffffff1681526020019081526020016000206000828254039250508190555081600360008673ffffffffffffffffffffffffffffffffffffffff1673ffffffffffffffffffffffffffffffffffffffff16815260200190815260200160002060003373ffffffffffffffffffffffffffffffffffffffff1673ffffffffffffffffffffffffffffffffffffffff1681526020019081526020016000206000828254039250508190555081600260008573ffffffffffffffffffffffffffffffffffffffff1673ffffffffffffffffffffffffffffffffffffffff168152602001908152602001600020600082825401925050819055508273ffffffffffffffffffffffffffffffffffffffff168473ffffffffffffffffffffffffffffffffffffffff167fddf252ad1be2c89b69c2b068fc378daa952ba7f163c4a11628f55a4df523b3ef846040518082815260200191505060405180910390a3600190509392505050565b6040805190810160405280601681526020017f4d616b65204d7573696320477265617420416761696e0000000000000000000081525081565b6000806000806101008651108015610992575084518651145b151561099d57600080fd5b600091505b84518210156109e0576109cc8386848151811015156109bd57fe5b90602001906020020151610eea565b92506109d9826001610eea565b91506109a2565b600083118015610a2f575082600260003373ffffffffffffffffffffffffffffffffffffffff1673ffffffffffffffffffffffffffffffffffffffff1681526020019081526020016000205410155b1515610a3a57600080fd5b610a83600260003373ffffffffffffffffffffffffffffffffffffffff1673ffffffffffffffffffffffffffffffffffffffff1681526020019081526020016000205484610f08565b600260003373ffffffffffffffffffffffffffffffffffffffff1673ffffffffffffffffffffffffffffffffffffffff16815260200190815260200160002081905550600090505b8551811015610c6b5760008582815181101515610ae457fe5b906020019060200201511115610c5957610b6b600260008884815181101515610b0957fe5b9060200190602002015173ffffffffffffffffffffffffffffffffffffffff1673ffffffffffffffffffffffffffffffffffffffff168152602001908152602001600020548683815181101515610b5c57fe5b90602001906020020151610eea565b600260008884815181101515610b7d57fe5b9060200190602002015173ffffffffffffffffffffffffffffffffffffffff1673ffffffffffffffffffffffffffffffffffffffff168152602001908152602001600020819055508581815181101515610bd357fe5b9060200190602002015173ffffffffffffffffffffffffffffffffffffffff163373ffffffffffffffffffffffffffffffffffffffff167fddf252ad1be2c89b69c2b068fc378daa952ba7f163c4a11628f55a4df523b3ef8784815181101515610c3957fe5b906020019060200201516040518082815260200191505060405180910390a35b610c64816001610eea565b9050610acb565b6001935050505092915050565b600881565b6000600260008373ffffffffffffffffffffffffffffffffffffffff1673ffffffffffffffffffffffffffffffffffffffff168152602001908152602001600020549050919050565b6040805190810160405280600381526020017f4d5033000000000000000000000000000000000000000000000000000000000081525081565b60008082118015610d4f575081600260003373ffffffffffffffffffffffffffffffffffffffff1673ffffffffffffffffffffffffffffffffffffffff1681526020019081526020016000205410155b1515610d5a57600080fd5b81600260003373ffffffffffffffffffffffffffffffffffffffff1673ffffffffffffffffffffffffffffffffffffffff1681526020019081526020016000206000828254039250508190555081600260008573ffffffffffffffffffffffffffffffffffffffff1673ffffffffffffffffffffffffffffffffffffffff168152602001908152602001600020600082825401925050819055508273ffffffffffffffffffffffffffffffffffffffff163373ffffffffffffffffffffffffffffffffffffffff167fddf252ad1be2c89b69c2b068fc378daa952ba7f163c4a11628f55a4df523b3ef846040518082815260200191505060405180910390a36001905092915050565b6000600360008473ffffffffffffffffffffffffffffffffffffffff1673ffffffffffffffffffffffffffffffffffffffff16815260200190815260200160002060008373ffffffffffffffffffffffffffffffffffffffff1673ffffffffffffffffffffffffffffffffffffffff16815260200190815260200160002054905092915050565b6000808284019050838110151515610efe57fe5b8091505092915050565b6000828211151515610f1657fe5b8183039050929150505600a165627a7a72305820bc11af16e291dc63e1c441e5c9ad090877d8a581ca6f606f3550fec38d604f2b0029",
  "source": "pragma solidity ^0.4.8;\n\ncontract sGuardPlus {\n    constructor() internal {}\n\n    function add_uint(uint256 a, uint256 b) internal pure returns (uint256) {\n        uint256 c = a + b;\n        assert(c >= a);\n        return c;\n    }\n\n    function sub_uint(uint256 a, uint256 b) internal pure returns (uint256) {\n        assert(b <= a);\n        return a - b;\n    }\n}\n\ncontract MP3Coin is sGuardPlus {\n    string public constant symbol = \"MP3\";\n    string public constant name = \"MP3 Coin\";\n    string public constant slogan = \"Make Music Great Again\";\n    uint256 public constant decimals = 8;\n    uint256 public totalSupply = 1000000 * 10**decimals;\n    address owner;\n    mapping(address => uint256) balances;\n    mapping(address => mapping(address => uint256)) allowed;\n    event Transfer(address indexed _from, address indexed _to, uint256 _value);\n    event Approval(\n        address indexed _owner,\n        address indexed _spender,\n        uint256 _value\n    );\n\n    constructor() public {\n        owner = msg.sender;\n        balances[owner] = totalSupply;\n        Transfer(this, owner, totalSupply);\n    }\n\n    function balanceOf(address _owner)\n        public\n        constant\n        returns (uint256 balance)\n    {\n        return balances[_owner];\n    }\n\n    function allowance(address _owner, address _spender)\n        public\n        constant\n        returns (uint256 remaining)\n    {\n        return allowed[_owner][_spender];\n    }\n\n    function transfer(address _to, uint256 _amount)\n        public\n        returns (bool success)\n    {\n        require(_amount > 0 && balances[msg.sender] >= _amount);\n        balances[msg.sender] -= _amount;\n        balances[_to] += _amount;\n        Transfer(msg.sender, _to, _amount);\n        return true;\n    }\n\n    function transferFrom(\n        address _from,\n        address _to,\n        uint256 _amount\n    ) public returns (bool success) {\n        require(\n            _amount > 0 &&\n                balances[_from] >= _amount &&\n                allowed[_from][msg.sender] >= _amount\n        );\n        balances[_from] -= _amount;\n        allowed[_from][msg.sender] -= _amount;\n        balances[_to] += _amount;\n        Transfer(_from, _to, _amount);\n        return true;\n    }\n\n    function approve(address _spender, uint256 _amount)\n        public\n        returns (bool success)\n    {\n        allowed[msg.sender][_spender] = _amount;\n        Approval(msg.sender, _spender, _amount);\n        return true;\n    }\n\n    function distribute(address[] _addresses, uint256[] _amounts)\n        public\n        returns (bool success)\n    {\n        require(\n            _addresses.length < 256 && _addresses.length == _amounts.length\n        );\n        uint256 totalAmount;\n        for (uint256 a = 0; a < _amounts.length; a = add_uint(a, 1)) {\n            totalAmount = add_uint(totalAmount, _amounts[a]);\n        }\n\n        require(totalAmount > 0 && balances[msg.sender] >= totalAmount);\n        balances[msg.sender] = sub_uint(balances[msg.sender], totalAmount);\n        for (uint256 b = 0; b < _addresses.length; b = add_uint(b, 1)) {\n            if (_amounts[b] > 0) {\n                balances[_addresses[b]] = add_uint(\n                    balances[_addresses[b]],\n                    _amounts[b]\n                );\n                Transfer(msg.sender, _addresses[b], _amounts[b]);\n            }\n        }\n\n        return true;\n    }\n}\n",
  "sourcePath": "/workdir/truffle_example/after/0x5aD6Dc0A267693c8A14AC9fF2A29c7D63A3d96c2/contracts/0x5aD6Dc0A267693c8A14AC9fF2A29c7D63A3d96c2.sol.fixed.sol",
  "compiler": {
    "name": "solc",
    "version": "0.4.25+commit.59dbf8f1.Emscripten.clang"
  },
  "schemaVersion": "3.4.8",
  "updatedAt": "2022-08-12T12:30:43.140Z",
  "networkType": "ethereum",
  "devdoc": {
    "methods": {}
  },
  "userdoc": {
    "methods": {}
  }
}