{
  "contractName": "TownCrier",
  "abi": [
    {
      "constant": true,
      "inputs": [],
      "name": "newVersion",
      "outputs": [
        {
          "name": "",
          "type": "int256"
        }
      ],
      "payable": false,
      "stateMutability": "view",
      "type": "function"
    },
    {
      "constant": true,
      "inputs": [],
      "name": "SGX_ADDRESS",
      "outputs": [
        {
          "name": "",
          "type": "address"
        }
      ],
      "payable": false,
      "stateMutability": "view",
      "type": "function"
    },
    {
      "constant": true,
      "inputs": [],
      "name": "DELIVERED_FEE_FLAG",
      "outputs": [
        {
          "name": "",
          "type": "uint256"
        }
      ],
      "payable": false,
      "stateMutability": "view",
      "type": "function"
    },
    {
      "constant": true,
      "inputs": [],
      "name": "killswitch",
      "outputs": [
        {
          "name": "",
          "type": "bool"
        }
      ],
      "payable": false,
      "stateMutability": "view",
      "type": "function"
    },
    {
      "constant": true,
      "inputs": [],
      "name": "FAIL_FLAG",
      "outputs": [
        {
          "name": "",
          "type": "int256"
        }
      ],
      "payable": false,
      "stateMutability": "view",
      "type": "function"
    },
    {
      "constant": true,
      "inputs": [],
      "name": "requestCnt",
      "outputs": [
        {
          "name": "",
          "type": "uint64"
        }
      ],
      "payable": false,
      "stateMutability": "view",
      "type": "function"
    },
    {
      "constant": true,
      "inputs": [],
      "name": "MIN_FEE",
      "outputs": [
        {
          "name": "",
          "type": "uint256"
        }
      ],
      "payable": false,
      "stateMutability": "view",
      "type": "function"
    },
    {
      "constant": true,
      "inputs": [],
      "name": "CANCELLATION_FEE",
      "outputs": [
        {
          "name": "",
          "type": "uint256"
        }
      ],
      "payable": false,
      "stateMutability": "view",
      "type": "function"
    },
    {
      "constant": true,
      "inputs": [
        {
          "name": "",
          "type": "uint256"
        }
      ],
      "name": "requests",
      "outputs": [
        {
          "name": "requester",
          "type": "address"
        },
        {
          "name": "fee",
          "type": "uint256"
        },
        {
          "name": "callbackAddr",
          "type": "address"
        },
        {
          "name": "callbackFID",
          "type": "bytes4"
        },
        {
          "name": "paramsHash",
          "type": "bytes32"
        }
      ],
      "payable": false,
      "stateMutability": "view",
      "type": "function"
    },
    {
      "constant": true,
      "inputs": [],
      "name": "GAS_PRICE",
      "outputs": [
        {
          "name": "",
          "type": "uint256"
        }
      ],
      "payable": false,
      "stateMutability": "view",
      "type": "function"
    },
    {
      "constant": true,
      "inputs": [],
      "name": "unrespondedCnt",
      "outputs": [
        {
          "name": "",
          "type": "uint64"
        }
      ],
      "payable": false,
      "stateMutability": "view",
      "type": "function"
    },
    {
      "constant": true,
      "inputs": [],
      "name": "CANCELLED_FEE_FLAG",
      "outputs": [
        {
          "name": "",
          "type": "uint256"
        }
      ],
      "payable": false,
      "stateMutability": "view",
      "type": "function"
    },
    {
      "constant": true,
      "inputs": [],
      "name": "SUCCESS_FLAG",
      "outputs": [
        {
          "name": "",
          "type": "int256"
        }
      ],
      "payable": false,
      "stateMutability": "view",
      "type": "function"
    },
    {
      "constant": true,
      "inputs": [],
      "name": "externalCallFlag",
      "outputs": [
        {
          "name": "",
          "type": "bool"
        }
      ],
      "payable": false,
      "stateMutability": "view",
      "type": "function"
    },
    {
      "inputs": [],
      "payable": false,
      "stateMutability": "nonpayable",
      "type": "constructor"
    },
    {
      "payable": false,
      "stateMutability": "nonpayable",
      "type": "fallback"
    },
    {
      "anonymous": false,
      "inputs": [
        {
          "indexed": false,
          "name": "newAddr",
          "type": "address"
        }
      ],
      "name": "Upgrade",
      "type": "event"
    },
    {
      "anonymous": false,
      "inputs": [
        {
          "indexed": false,
          "name": "gas_price",
          "type": "uint256"
        },
        {
          "indexed": false,
          "name": "min_fee",
          "type": "uint256"
        },
        {
          "indexed": false,
          "name": "cancellation_fee",
          "type": "uint256"
        }
      ],
      "name": "Reset",
      "type": "event"
    },
    {
      "anonymous": false,
      "inputs": [
        {
          "indexed": false,
          "name": "id",
          "type": "uint64"
        },
        {
          "indexed": false,
          "name": "requestType",
          "type": "uint8"
        },
        {
          "indexed": false,
          "name": "requester",
          "type": "address"
        },
        {
          "indexed": false,
          "name": "fee",
          "type": "uint256"
        },
        {
          "indexed": false,
          "name": "callbackAddr",
          "type": "address"
        },
        {
          "indexed": false,
          "name": "paramsHash",
          "type": "bytes32"
        },
        {
          "indexed": false,
          "name": "timestamp",
          "type": "uint256"
        },
        {
          "indexed": false,
          "name": "requestData",
          "type": "bytes32[]"
        }
      ],
      "name": "RequestInfo",
      "type": "event"
    },
    {
      "anonymous": false,
      "inputs": [
        {
          "indexed": false,
          "name": "requestId",
          "type": "uint64"
        },
        {
          "indexed": false,
          "name": "fee",
          "type": "uint256"
        },
        {
          "indexed": false,
          "name": "gasPrice",
          "type": "uint256"
        },
        {
          "indexed": false,
          "name": "gasLeft",
          "type": "uint256"
        },
        {
          "indexed": false,
          "name": "callbackGas",
          "type": "uint256"
        },
        {
          "indexed": false,
          "name": "paramsHash",
          "type": "bytes32"
        },
        {
          "indexed": false,
          "name": "error",
          "type": "uint64"
        },
        {
          "indexed": false,
          "name": "respData",
          "type": "bytes32"
        }
      ],
      "name": "DeliverInfo",
      "type": "event"
    },
    {
      "anonymous": false,
      "inputs": [
        {
          "indexed": false,
          "name": "requestId",
          "type": "uint64"
        },
        {
          "indexed": false,
          "name": "canceller",
          "type": "address"
        },
        {
          "indexed": false,
          "name": "requester",
          "type": "address"
        },
        {
          "indexed": false,
          "name": "fee",
          "type": "uint256"
        },
        {
          "indexed": false,
          "name": "flag",
          "type": "int256"
        }
      ],
      "name": "Cancel",
      "type": "event"
    },
    {
      "constant": false,
      "inputs": [
        {
          "name": "newAddr",
          "type": "address"
        }
      ],
      "name": "upgrade",
      "outputs": [],
      "payable": false,
      "stateMutability": "nonpayable",
      "type": "function"
    },
    {
      "constant": false,
      "inputs": [
        {
          "name": "price",
          "type": "uint256"
        },
        {
          "name": "minGas",
          "type": "uint256"
        },
        {
          "name": "cancellationGas",
          "type": "uint256"
        }
      ],
      "name": "reset",
      "outputs": [],
      "payable": false,
      "stateMutability": "nonpayable",
      "type": "function"
    },
    {
      "constant": false,
      "inputs": [],
      "name": "suspend",
      "outputs": [],
      "payable": false,
      "stateMutability": "nonpayable",
      "type": "function"
    },
    {
      "constant": false,
      "inputs": [],
      "name": "restart",
      "outputs": [],
      "payable": false,
      "stateMutability": "nonpayable",
      "type": "function"
    },
    {
      "constant": false,
      "inputs": [],
      "name": "withdraw",
      "outputs": [],
      "payable": false,
      "stateMutability": "nonpayable",
      "type": "function"
    },
    {
      "constant": false,
      "inputs": [
        {
          "name": "requestType",
          "type": "uint8"
        },
        {
          "name": "callbackAddr",
          "type": "address"
        },
        {
          "name": "callbackFID",
          "type": "bytes4"
        },
        {
          "name": "timestamp",
          "type": "uint256"
        },
        {
          "name": "requestData",
          "type": "bytes32[]"
        }
      ],
      "name": "request",
      "outputs": [
        {
          "name": "",
          "type": "int256"
        }
      ],
      "payable": true,
      "stateMutability": "payable",
      "type": "function"
    },
    {
      "constant": false,
      "inputs": [
        {
          "name": "requestId",
          "type": "uint64"
        },
        {
          "name": "paramsHash",
          "type": "bytes32"
        },
        {
          "name": "error",
          "type": "uint64"
        },
        {
          "name": "respData",
          "type": "bytes32"
        }
      ],
      "name": "deliver",
      "outputs": [],
      "payable": false,
      "stateMutability": "nonpayable",
      "type": "function"
    },
    {
      "constant": false,
      "inputs": [
        {
          "name": "requestId",
          "type": "uint64"
        }
      ],
      "name": "cancel",
      "outputs": [
        {
          "name": "",
          "type": "int256"
        }
      ],
      "payable": false,
      "stateMutability": "nonpayable",
      "type": "function"
    }
  ],
  "bytecode": "0x6080604052640ba43b7400600055600054617530026001556000546161a8026002556000680400000000000000045534801561003a57600080fd5b506001600360026101000a81548167ffffffffffffffff021916908367ffffffffffffffff1602179055503360046000680100000000000000008110151561007e57fe5b6004020160000160006101000a81548173ffffffffffffffffffffffffffffffffffffffff021916908373ffffffffffffffffffffffffffffffffffffffff1602179055506000600360006101000a81548160ff02191690831515021790555060006003600a6101000a81548167ffffffffffffffff021916908367ffffffffffffffff1602179055506000600360016101000a81548160ff021916908315150217905550611cec806101326000396000f300608060405260043610610128576000357c0100000000000000000000000000000000000000000000000000000000900463ffffffff1680630900f010146101375780631ef3755d1461017a57806329cdda23146101915780632e28b3f5146101bc57806339c2697c146102135780633ccfd60b1461023e57806342dd96f714610255578063487a6e32146102845780634c125e79146102eb57806358487bee1461033657806366a39350146104035780636ba7ffd51461042e57806376c7a3c71461046d57806378b17ccf1461049857806381d12c58146104c35780638b0ee5a3146105be578063908f68ee146105e9578063a6801cbd14610628578063be0da25114610669578063d073ca3d14610694578063e6400bbe146106bf578063fc9bfaa6146106d6575b34801561013457600080fd5b50005b34801561014357600080fd5b50610178600480360381019080803573ffffffffffffffffffffffffffffffffffffffff169060200190929190505050610705565b005b34801561018657600080fd5b5061018f61084e565b005b34801561019d57600080fd5b506101a66108f5565b6040518082815260200191505060405180910390f35b3480156101c857600080fd5b506101d1610903565b604051808273ffffffffffffffffffffffffffffffffffffffff1673ffffffffffffffffffffffffffffffffffffffff16815260200191505060405180910390f35b34801561021f57600080fd5b5061022861091b565b6040518082815260200191505060405180910390f35b34801561024a57600080fd5b50610253610920565b005b34801561026157600080fd5b5061026a610a4f565b604051808215151515815260200191505060405180910390f35b34801561029057600080fd5b506102e9600480360381019080803567ffffffffffffffff1690602001909291908035600019169060200190929190803567ffffffffffffffff1690602001909291908035600019169060200190929190505050610a62565b005b3480156102f757600080fd5b50610320600480360381019080803567ffffffffffffffff169060200190929190505050611092565b6040518082815260200191505060405180910390f35b6103ed600480360381019080803560ff169060200190929190803573ffffffffffffffffffffffffffffffffffffffff16906020019092919080357bffffffffffffffffffffffffffffffffffffffffffffffffffffffff1916906020019092919080359060200190929190803590602001908201803590602001908080602002602001604051908101604052809392919081815260200183836020028082843782019150505050505091929192905050506114b3565b6040518082815260200191505060405180910390f35b34801561040f57600080fd5b506104186119f1565b6040518082815260200191505060405180910390f35b34801561043a57600080fd5b50610443611a15565b604051808267ffffffffffffffff1667ffffffffffffffff16815260200191505060405180910390f35b34801561047957600080fd5b50610482611a2f565b6040518082815260200191505060405180910390f35b3480156104a457600080fd5b506104ad611a35565b6040518082815260200191505060405180910390f35b3480156104cf57600080fd5b506104ee60048036038101908080359060200190929190505050611a3b565b604051808673ffffffffffffffffffffffffffffffffffffffff1673ffffffffffffffffffffffffffffffffffffffff1681526020018581526020018473ffffffffffffffffffffffffffffffffffffffff1673ffffffffffffffffffffffffffffffffffffffff168152602001837bffffffffffffffffffffffffffffffffffffffffffffffffffffffff19167bffffffffffffffffffffffffffffffffffffffffffffffffffffffff1916815260200182600019166000191681526020019550505050505060405180910390f35b3480156105ca57600080fd5b506105d3611ae7565b6040518082815260200191505060405180910390f35b3480156105f557600080fd5b506105fe611aed565b604051808267ffffffffffffffff1667ffffffffffffffff16815260200191505060405180910390f35b34801561063457600080fd5b50610667600480360381019080803590602001909291908035906020019092919080359060200190929190505050611b07565b005b34801561067557600080fd5b5061067e611c12565b6040518082815260200191505060405180910390f35b3480156106a057600080fd5b506106a9611c17565b6040518082815260200191505060405180910390f35b3480156106cb57600080fd5b506106d4611c1c565b005b3480156106e257600080fd5b506106eb611cad565b604051808215151515815260200191505060405180910390f35b60046000680100000000000000008110151561071d57fe5b6004020160000160009054906101000a900473ffffffffffffffffffffffffffffffffffffffff1673ffffffffffffffffffffffffffffffffffffffff163373ffffffffffffffffffffffffffffffffffffffff1614801561079f575060006003600a9054906101000a900467ffffffffffffffff1667ffffffffffffffff16145b1561084b578073ffffffffffffffffffffffffffffffffffffffff1660000368040000000000000004819055506001600360006101000a81548160ff0219169083151502179055507ff78721226efe9a1bb678189a16d1554928b9f2192e2cb93eeda83b79fa40007d81604051808273ffffffffffffffffffffffffffffffffffffffff1673ffffffffffffffffffffffffffffffffffffffff16815260200191505060405180910390a15b50565b60046000680100000000000000008110151561086657fe5b6004020160000160009054906101000a900473ffffffffffffffffffffffffffffffffffffffff1673ffffffffffffffffffffffffffffffffffffffff163373ffffffffffffffffffffffffffffffffffffffff161480156108d2575060006804000000000000000454145b156108f3576000600360006101000a81548160ff0219169083151502179055505b565b680400000000000000045481565b7318513702ccd928f2a3eb63d900adf03c9cc8159381565b600081565b60046000680100000000000000008110151561093857fe5b6004020160000160009054906101000a900473ffffffffffffffffffffffffffffffffffffffff1673ffffffffffffffffffffffffffffffffffffffff163373ffffffffffffffffffffffffffffffffffffffff161480156109ba575060006003600a9054906101000a900467ffffffffffffffff1667ffffffffffffffff16145b15610a4d576004600068010000000000000000811015156109d757fe5b6004020160000160009054906101000a900473ffffffffffffffffffffffffffffffffffffffff1673ffffffffffffffffffffffffffffffffffffffff163073ffffffffffffffffffffffffffffffffffffffff163160405160006040518083038185875af1925050501515610a4c57600080fd5b5b565b600360009054906101000a900460ff1681565b6000807318513702ccd928f2a3eb63d900adf03c9cc8159373ffffffffffffffffffffffffffffffffffffffff163373ffffffffffffffffffffffffffffffffffffffff16141580610abf575060008667ffffffffffffffff1611155b80610b285750600060048767ffffffffffffffff166801000000000000000081101515610ae857fe5b6004020160000160009054906101000a900473ffffffffffffffffffffffffffffffffffffffff1673ffffffffffffffffffffffffffffffffffffffff16145b80610b5b5750600060048767ffffffffffffffff166801000000000000000081101515610b5157fe5b6004020160010154145b15610b655761108a565b60048667ffffffffffffffff166801000000000000000081101515610b8657fe5b60040201600101549150846000191660048767ffffffffffffffff166801000000000000000081101515610bb657fe5b600402016003015460001916141515610bce5761108a565b6001821415610c9e577318513702ccd928f2a3eb63d900adf03c9cc8159373ffffffffffffffffffffffffffffffffffffffff166108fc6002549081150290604051600060405180830381858888f1935050505050600060048767ffffffffffffffff166801000000000000000081101515610c4657fe5b60040201600101819055506003600a81819054906101000a900467ffffffffffffffff16809291906001900391906101000a81548167ffffffffffffffff021916908367ffffffffffffffff1602179055505061108a565b600060048767ffffffffffffffff166801000000000000000081101515610cc157fe5b60040201600101819055506003600a81819054906101000a900467ffffffffffffffff16809291906001900391906101000a81548167ffffffffffffffff021916908367ffffffffffffffff1602179055505060028467ffffffffffffffff161015610d76577318513702ccd928f2a3eb63d900adf03c9cc8159373ffffffffffffffffffffffffffffffffffffffff166108fc839081150290604051600060405180830381858888f1935050505050610e26565b6001600360016101000a81548160ff02191690831515021790555060048667ffffffffffffffff166801000000000000000081101515610db257fe5b6004020160000160009054906101000a900473ffffffffffffffffffffffffffffffffffffffff1673ffffffffffffffffffffffffffffffffffffffff166108fc83604051600060405180830381858888f19350505050506000600360016101000a81548160ff0219169083151502179055505b3a6001548303811515610e3557fe5b0490507fe36d392c21a3a1548b2b8da5316872a216610b14139ec0d80335e1b139c35c6286833a5a858a8a8a604051808967ffffffffffffffff1667ffffffffffffffff16815260200188815260200187815260200186815260200185815260200184600019166000191681526020018367ffffffffffffffff1667ffffffffffffffff16815260200182600019166000191681526020019850505050505050505060405180910390a16113885a03811115610ef3576113885a0390505b6001600360016101000a81548160ff02191690831515021790555060048667ffffffffffffffff166801000000000000000081101515610f2f57fe5b6004020160020160009054906101000a900473ffffffffffffffffffffffffffffffffffffffff1673ffffffffffffffffffffffffffffffffffffffff168160048867ffffffffffffffff166801000000000000000081101515610f8f57fe5b6004020160020160149054906101000a90047c0100000000000000000000000000000000000000000000000000000000027c01000000000000000000000000000000000000000000000000000000009004908887876040518563ffffffff167c0100000000000000000000000000000000000000000000000000000000028152600401808467ffffffffffffffff1667ffffffffffffffff1681526020018367ffffffffffffffff1667ffffffffffffffff1681526020018260001916600019168152602001935050505060006040518083038160008887f19350505050506000600360016101000a81548160ff0219169083151502179055505b505050505050565b600080600360019054906101000a900460ff16156110af57600080fd5b600360009054906101000a900460ff16156110cd57600091506114ad565b60048367ffffffffffffffff1668010000000000000000811015156110ee57fe5b600402016001015490503373ffffffffffffffffffffffffffffffffffffffff1660048467ffffffffffffffff16680100000000000000008110151561113057fe5b6004020160000160009054906101000a900473ffffffffffffffffffffffffffffffffffffffff1673ffffffffffffffffffffffffffffffffffffffff1614801561117d57506002548110155b1561135e57600160048467ffffffffffffffff1668010000000000000000811015156111a557fe5b60040201600101819055506001600360016101000a81548160ff0219169083151502179055503373ffffffffffffffffffffffffffffffffffffffff16600254820360405160006040518083038185875af192505050151561120657600080fd5b6000600360016101000a81548160ff0219169083151502179055507f0e2984d10e577bb65e890413616fdf852498a063437ca194d43fe257b33cd1ce833360048667ffffffffffffffff16680100000000000000008110151561126557fe5b6004020160000160009054906101000a900473ffffffffffffffffffffffffffffffffffffffff1660048767ffffffffffffffff1668010000000000000000811015156112ae57fe5b60040201600101546001604051808667ffffffffffffffff1667ffffffffffffffff1681526020018573ffffffffffffffffffffffffffffffffffffffff1673ffffffffffffffffffffffffffffffffffffffff1681526020018473ffffffffffffffffffffffffffffffffffffffff1673ffffffffffffffffffffffffffffffffffffffff1681526020018381526020018281526020019550505050505060405180910390a1600191506114ad565b7f0e2984d10e577bb65e890413616fdf852498a063437ca194d43fe257b33cd1ce833360048667ffffffffffffffff1668010000000000000000811015156113a257fe5b6004020160000160009054906101000a900473ffffffffffffffffffffffffffffffffffffffff16847fffffffffffffffffffffffffffffffffffffffffffffffffffffffffffffffff604051808667ffffffffffffffff1667ffffffffffffffff1681526020018573ffffffffffffffffffffffffffffffffffffffff1673ffffffffffffffffffffffffffffffffffffffff1681526020018473ffffffffffffffffffffffffffffffffffffffff1673ffffffffffffffffffffffffffffffffffffffff1681526020018381526020018281526020019550505050505060405180910390a17f040000000000000000000000000000000000000000000000000000000000000091505b50919050565b6000806000600360019054906101000a900460ff16156114d257600080fd5b600360009054906101000a900460ff1615611566576001600360016101000a81548160ff0219169083151502179055503373ffffffffffffffffffffffffffffffffffffffff163460405160006040518083038185875af192505050151561153957600080fd5b6000600360016101000a81548160ff021916908315150217905550680400000000000000045492506119e6565b600154341015611605576001600360016101000a81548160ff0219169083151502179055503373ffffffffffffffffffffffffffffffffffffffff163460405160006040518083038185875af19250505015156115c257600080fd5b6000600360016101000a81548160ff0219169083151502179055507f040000000000000000000000000000000000000000000000000000000000000092506119e6565b600360029054906101000a900467ffffffffffffffff1691506003600281819054906101000a900467ffffffffffffffff168092919060010191906101000a81548167ffffffffffffffff021916908367ffffffffffffffff160217905550506003600a81819054906101000a900467ffffffffffffffff168092919060010191906101000a81548167ffffffffffffffff021916908367ffffffffffffffff160217905550508784604051808360ff1660ff167f0100000000000000000000000000000000000000000000000000000000000000028152600101828051906020019060200280838360005b8381101561170c5780820151818401526020810190506116f1565b5050505090500192505050604051809103902090503360048367ffffffffffffffff16680100000000000000008110151561174357fe5b6004020160000160006101000a81548173ffffffffffffffffffffffffffffffffffffffff021916908373ffffffffffffffffffffffffffffffffffffffff1602179055503460048367ffffffffffffffff1668010000000000000000811015156117aa57fe5b60040201600101819055508660048367ffffffffffffffff1668010000000000000000811015156117d757fe5b6004020160020160006101000a81548173ffffffffffffffffffffffffffffffffffffffff021916908373ffffffffffffffffffffffffffffffffffffffff1602179055508560048367ffffffffffffffff16680100000000000000008110151561183e57fe5b6004020160020160146101000a81548163ffffffff02191690837c0100000000000000000000000000000000000000000000000000000000900402179055508060048367ffffffffffffffff16680100000000000000008110151561189f57fe5b6004020160030181600019169055507f295780ea261767c398d062898e5648587d7b8ca371ffd203be8b4f9a43454ffa828933348b868b8b604051808967ffffffffffffffff1667ffffffffffffffff1681526020018860ff1660ff1681526020018773ffffffffffffffffffffffffffffffffffffffff1673ffffffffffffffffffffffffffffffffffffffff1681526020018681526020018573ffffffffffffffffffffffffffffffffffffffff1673ffffffffffffffffffffffffffffffffffffffff168152602001846000191660001916815260200183815260200180602001828103825283818151815260200191508051906020019060200280838360005b838110156119be5780820151818401526020810190506119a3565b50505050905001995050505050505050505060405180910390a18167ffffffffffffffff1692505b505095945050505050565b7f040000000000000000000000000000000000000000000000000000000000000081565b600360029054906101000a900467ffffffffffffffff1681565b60015481565b60025481565b6004816801000000000000000081101515611a5257fe5b600402016000915090508060000160009054906101000a900473ffffffffffffffffffffffffffffffffffffffff16908060010154908060020160009054906101000a900473ffffffffffffffffffffffffffffffffffffffff16908060020160149054906101000a90047c010000000000000000000000000000000000000000000000000000000002908060030154905085565b60005481565b6003600a9054906101000a900467ffffffffffffffff1681565b600460006801000000000000000081101515611b1f57fe5b6004020160000160009054906101000a900473ffffffffffffffffffffffffffffffffffffffff1673ffffffffffffffffffffffffffffffffffffffff163373ffffffffffffffffffffffffffffffffffffffff16148015611ba1575060006003600a9054906101000a900467ffffffffffffffff1667ffffffffffffffff16145b15611c0d57826000819055508183026001819055508083026002819055507f8ccc42b6e039247437260d1393a4352a1bbf3f2f9091caef694b2482a2ed914e60005460015460025460405180848152602001838152602001828152602001935050505060405180910390a15b505050565b600181565b600181565b600460006801000000000000000081101515611c3457fe5b6004020160000160009054906101000a900473ffffffffffffffffffffffffffffffffffffffff1673ffffffffffffffffffffffffffffffffffffffff163373ffffffffffffffffffffffffffffffffffffffff161415611cab576001600360006101000a81548160ff0219169083151502179055505b565b600360019054906101000a900460ff16815600a165627a7a723058209c2eec130c72fc90a16d33d15fbd74dc16c16a5fb5d2910777ad160cf88550ed0029",
  "source": "/*\r\n * @source: etherscan.io \r\n * @author: -\r\n * @vulnerable_at_lines: 162,175,180,192\r\n */\r\n\r\npragma solidity ^0.4.9;\r\n\r\ncontract TownCrier {\r\n    struct Request { // the data structure for each request\r\n        address requester; // the address of the requester\r\n        uint fee; // the amount of wei the requester pays for the request\r\n        address callbackAddr; // the address of the contract to call for delivering response\r\n        bytes4 callbackFID; // the specification of the callback function\r\n        bytes32 paramsHash; // the hash of the request parameters\r\n    }\r\n   \r\n    event Upgrade(address newAddr);\r\n    event Reset(uint gas_price, uint min_fee, uint cancellation_fee); \r\n    event RequestInfo(uint64 id, uint8 requestType, address requester, uint fee, address callbackAddr, bytes32 paramsHash, uint timestamp, bytes32[] requestData); // log of requests, the Town Crier server watches this event and processes requests\r\n    event DeliverInfo(uint64 requestId, uint fee, uint gasPrice, uint gasLeft, uint callbackGas, bytes32 paramsHash, uint64 error, bytes32 respData); // log of responses\r\n    event Cancel(uint64 requestId, address canceller, address requester, uint fee, int flag); // log of cancellations\r\n\r\n    address public constant SGX_ADDRESS = 0x18513702cCd928F2A3eb63d900aDf03c9cc81593;// address of the SGX account\r\n\r\n    uint public GAS_PRICE = 5 * 10**10;\r\n    uint public MIN_FEE = 30000 * GAS_PRICE; // minimum fee required for the requester to pay such that SGX could call deliver() to send a response\r\n    uint public CANCELLATION_FEE = 25000 * GAS_PRICE; // charged when the requester cancels a request that is not responded\r\n\r\n    uint public constant CANCELLED_FEE_FLAG = 1;\r\n    uint public constant DELIVERED_FEE_FLAG = 0;\r\n    int public constant FAIL_FLAG = -2 ** 250;\r\n    int public constant SUCCESS_FLAG = 1;\r\n\r\n    bool public killswitch;\r\n\r\n    bool public externalCallFlag;\r\n\r\n    uint64 public requestCnt;\r\n    uint64 public unrespondedCnt;\r\n    Request[2**64] public requests;\r\n\r\n    int public newVersion = 0;\r\n\r\n    // Contracts that receive Ether but do not define a fallback function throw\r\n    // an exception, sending back the Ether (this was different before Solidity\r\n    // v0.4.0). So if you want your contract to receive Ether, you have to\r\n    // implement a fallback function.\r\n    function () {}\r\n\r\n    function TownCrier() public {\r\n        // Start request IDs at 1 for two reasons:\r\n        //   1. We can use 0 to denote an invalid request (ids are unsigned)\r\n        //   2. Storage is more expensive when changing something from zero to non-zero,\r\n        //      so this means the first request isn't randomly more expensive.\r\n        requestCnt = 1;\r\n        requests[0].requester = msg.sender;\r\n        killswitch = false;\r\n        unrespondedCnt = 0;\r\n        externalCallFlag = false;\r\n    }\r\n\r\n    function upgrade(address newAddr) {\r\n        if (msg.sender == requests[0].requester && unrespondedCnt == 0) {\r\n            newVersion = -int(newAddr);\r\n            killswitch = true;\r\n            Upgrade(newAddr);\r\n        }\r\n    }\r\n\r\n    function reset(uint price, uint minGas, uint cancellationGas) public {\r\n        if (msg.sender == requests[0].requester && unrespondedCnt == 0) {\r\n            GAS_PRICE = price;\r\n            MIN_FEE = price * minGas;\r\n            CANCELLATION_FEE = price * cancellationGas;\r\n            Reset(GAS_PRICE, MIN_FEE, CANCELLATION_FEE);\r\n        }\r\n    }\r\n\r\n    function suspend() public {\r\n        if (msg.sender == requests[0].requester) {\r\n            killswitch = true;\r\n        }\r\n    }\r\n\r\n    function restart() public {\r\n        if (msg.sender == requests[0].requester && newVersion == 0) {\r\n            killswitch = false;\r\n        }\r\n    }\r\n\r\n    function withdraw() public {\r\n        if (msg.sender == requests[0].requester && unrespondedCnt == 0) {\r\n            if (!requests[0].requester.call.value(this.balance)()) {\r\n                throw;\r\n            }\r\n        }\r\n    }\r\n\r\n    function request(uint8 requestType, address callbackAddr, bytes4 callbackFID, uint timestamp, bytes32[] requestData) public payable returns (int) {\r\n        if (externalCallFlag) {\r\n            throw;\r\n        }\r\n\r\n        if (killswitch) {\r\n            externalCallFlag = true;\r\n            if (!msg.sender.call.value(msg.value)()) {\r\n                throw;\r\n            }\r\n            externalCallFlag = false;\r\n            return newVersion;\r\n        }\r\n\r\n        if (msg.value < MIN_FEE) {\r\n            externalCallFlag = true;\r\n            // If the amount of ether sent by the requester is too little or \r\n            // too much, refund the requester and discard the request.\r\n            if (!msg.sender.call.value(msg.value)()) {\r\n                throw;\r\n            }\r\n            externalCallFlag = false;\r\n            return FAIL_FLAG;\r\n        } else {\r\n            // Record the request.\r\n            uint64 requestId = requestCnt;\r\n            requestCnt++;\r\n            unrespondedCnt++;\r\n\r\n            bytes32 paramsHash = sha3(requestType, requestData);\r\n            requests[requestId].requester = msg.sender;\r\n            requests[requestId].fee = msg.value;\r\n            requests[requestId].callbackAddr = callbackAddr;\r\n            requests[requestId].callbackFID = callbackFID;\r\n            requests[requestId].paramsHash = paramsHash;\r\n\r\n            // Log the request for the Town Crier server to process.\r\n            RequestInfo(requestId, requestType, msg.sender, msg.value, callbackAddr, paramsHash, timestamp, requestData);\r\n            return requestId;\r\n        }\r\n    }\r\n\r\n    function deliver(uint64 requestId, bytes32 paramsHash, uint64 error, bytes32 respData) public {\r\n        if (msg.sender != SGX_ADDRESS ||\r\n                requestId <= 0 ||\r\n                requests[requestId].requester == 0 ||\r\n                requests[requestId].fee == DELIVERED_FEE_FLAG) {\r\n            // If the response is not delivered by the SGX account or the \r\n            // request has already been responded to, discard the response.\r\n            return;\r\n        }\r\n\r\n        uint fee = requests[requestId].fee;\r\n        if (requests[requestId].paramsHash != paramsHash) {\r\n            // If the hash of request parameters in the response is not \r\n            // correct, discard the response for security concern.\r\n            return;\r\n        } else if (fee == CANCELLED_FEE_FLAG) {\r\n            // If the request is cancelled by the requester, cancellation \r\n            // fee goes to the SGX account and set the request as having\r\n            // been responded to.\r\n            // <yes> <report> UNCHECKED_LL_CALLS\r\n            SGX_ADDRESS.send(CANCELLATION_FEE);\r\n            requests[requestId].fee = DELIVERED_FEE_FLAG;\r\n            unrespondedCnt--;\r\n            return;\r\n        }\r\n\r\n        requests[requestId].fee = DELIVERED_FEE_FLAG;\r\n        unrespondedCnt--;\r\n\r\n        if (error < 2) {\r\n            // Either no error occurs, or the requester sent an invalid query.\r\n            // Send the fee to the SGX account for its delivering.\r\n            // <yes> <report> UNCHECKED_LL_CALLS\r\n            SGX_ADDRESS.send(fee);         \r\n        } else {\r\n            // Error in TC, refund the requester.\r\n            externalCallFlag = true;\r\n            // <yes> <report> UNCHECKED_LL_CALLS\r\n            requests[requestId].requester.call.gas(2300).value(fee)();\r\n            externalCallFlag = false;\r\n        }\r\n\r\n        uint callbackGas = (fee - MIN_FEE) / tx.gasprice; // gas left for the callback function\r\n        DeliverInfo(requestId, fee, tx.gasprice, msg.gas, callbackGas, paramsHash, error, respData); // log the response information\r\n        if (callbackGas > msg.gas - 5000) {\r\n            callbackGas = msg.gas - 5000;\r\n        }\r\n        \r\n        externalCallFlag = true;\r\n        // <yes> <report> UNCHECKED_LL_CALLS\r\n        requests[requestId].callbackAddr.call.gas(callbackGas)(requests[requestId].callbackFID, requestId, error, respData); // call the callback function in the application contract\r\n        externalCallFlag = false;\r\n    }\r\n\r\n    function cancel(uint64 requestId) public returns (int) {\r\n        if (externalCallFlag) {\r\n            throw;\r\n        }\r\n\r\n        if (killswitch) {\r\n            return 0;\r\n        }\r\n\r\n        uint fee = requests[requestId].fee;\r\n        if (requests[requestId].requester == msg.sender && fee >= CANCELLATION_FEE) {\r\n            // If the request was sent by this user and has money left on it,\r\n            // then cancel it.\r\n            requests[requestId].fee = CANCELLED_FEE_FLAG;\r\n            externalCallFlag = true;\r\n            if (!msg.sender.call.value(fee - CANCELLATION_FEE)()) {\r\n                throw;\r\n            }\r\n            externalCallFlag = false;\r\n            Cancel(requestId, msg.sender, requests[requestId].requester, requests[requestId].fee, 1);\r\n            return SUCCESS_FLAG;\r\n        } else {\r\n            Cancel(requestId, msg.sender, requests[requestId].requester, fee, -1);\r\n            return FAIL_FLAG;\r\n        }\r\n    }\r\n}",
  "sourcePath": "/workdir/truffle_example/before/0x89c1b3807d4c67df034fffb62f3509561218d30b/contracts/0x89c1b3807d4c67df034fffb62f3509561218d30b.sol",
  "compiler": {
    "name": "solc",
    "version": "0.4.25+commit.59dbf8f1.Emscripten.clang"
  },
  "schemaVersion": "3.4.8",
  "updatedAt": "2022-08-14T08:50:36.515Z",
  "networkType": "ethereum",
  "devdoc": {
    "methods": {}
  },
  "userdoc": {
    "methods": {}
  }
}