{
  "contractName": "Caller",
  "abi": [
    {
      "constant": false,
      "inputs": [
        {
          "name": "a",
          "type": "address"
        }
      ],
      "name": "callAddress",
      "outputs": [],
      "payable": false,
      "stateMutability": "nonpayable",
      "type": "function"
    }
  ],
  "bytecode": "0x608060405234801561001057600080fd5b5060df8061001f6000396000f300608060405260043610603f576000357c0100000000000000000000000000000000000000000000000000000000900463ffffffff168063907c0ff9146044575b600080fd5b348015604f57600080fd5b506082600480360381019080803573ffffffffffffffffffffffffffffffffffffffff1690602001909291905050506084565b005b8073ffffffffffffffffffffffffffffffffffffffff166040516000604051808303816000865af191505050505600a165627a7a72305820379a606c5ca57af8083cfc0a537cda53963cad581cc9258c7d21336d120acf1b0029",
  "source": "/*\r\n * @source: etherscan.io \r\n * @author: -\r\n * @vulnerable_at_lines: 12\r\n */\r\n\r\npragma solidity ^0.4.10;\r\n\r\ncontract Caller {\r\n    function callAddress(address a) {\r\n        // <yes> <report> UNCHECKED_LL_CALLS\r\n        a.call();\r\n    }\r\n}",
  "sourcePath": "/workdir/truffle_example/0x0cbe050f75bc8f8c2d6c0d249fea125fd6e1acc9/contracts/0x0cbe050f75bc8f8c2d6c0d249fea125fd6e1acc9.sol",
  "compiler": {
    "name": "solc",
    "version": "0.4.25+commit.59dbf8f1.Emscripten.clang"
  },
  "schemaVersion": "3.4.8",
  "updatedAt": "2022-08-11T02:57:48.986Z",
  "networkType": "ethereum",
  "devdoc": {
    "methods": {}
  },
  "userdoc": {
    "methods": {}
  }
}