{
  "contractName": "PrivateBank",
  "abi": [
    {
      "constant": true,
      "inputs": [],
      "name": "MinDeposit",
      "outputs": [
        {
          "name": "",
          "type": "uint256"
        }
      ],
      "payable": false,
      "stateMutability": "view",
      "type": "function"
    },
    {
      "constant": true,
      "inputs": [
        {
          "name": "",
          "type": "address"
        }
      ],
      "name": "balances",
      "outputs": [
        {
          "name": "",
          "type": "uint256"
        }
      ],
      "payable": false,
      "stateMutability": "view",
      "type": "function"
    },
    {
      "inputs": [
        {
          "name": "_lib",
          "type": "address"
        }
      ],
      "payable": false,
      "stateMutability": "nonpayable",
      "type": "constructor"
    },
    {
      "payable": true,
      "stateMutability": "payable",
      "type": "fallback"
    },
    {
      "constant": false,
      "inputs": [],
      "name": "Deposit",
      "outputs": [],
      "payable": true,
      "stateMutability": "payable",
      "type": "function"
    },
    {
      "constant": false,
      "inputs": [
        {
          "name": "_am",
          "type": "uint256"
        }
      ],
      "name": "CashOut",
      "outputs": [],
      "payable": false,
      "stateMutability": "nonpayable",
      "type": "function"
    }
  ],
  "bytecode": "0x6080604052670de0b6b3a764000060025534801561001c57600080fd5b506040516020806105b28339810180604052810190808051906020019092919050505060008060006101000a81548160ff02191690831515021790555080600360006101000a81548173ffffffffffffffffffffffffffffffffffffffff021916908373ffffffffffffffffffffffffffffffffffffffff16021790555050610508806100aa6000396000f300608060405260043610610062576000357c0100000000000000000000000000000000000000000000000000000000900463ffffffff16806311bcd8301461006457806327e235e31461008f5780639ffa0711146100e6578063ed21248c14610113575b005b34801561007057600080fd5b5061007961011d565b6040518082815260200191505060405180910390f35b34801561009b57600080fd5b506100d0600480360381019080803573ffffffffffffffffffffffffffffffffffffffff169060200190929190505050610123565b6040518082815260200191505060405180910390f35b3480156100f257600080fd5b506101116004803603810190808035906020019092919050505061013b565b005b61011b61036b565b005b60025481565b60016020528060005260406000206000915090505481565b6000809054906101000a900460ff1615151561015657600080fd5b60016000806101000a81548160ff021916908315150217905550600160003373ffffffffffffffffffffffffffffffffffffffff1673ffffffffffffffffffffffffffffffffffffffff168152602001908152602001600020548111151561034e573373ffffffffffffffffffffffffffffffffffffffff168160405160006040518083038185875af1925050501561034d5780600160003373ffffffffffffffffffffffffffffffffffffffff1673ffffffffffffffffffffffffffffffffffffffff16815260200190815260200160002060008282540392505081905550600360009054906101000a900473ffffffffffffffffffffffffffffffffffffffff1673ffffffffffffffffffffffffffffffffffffffff16634c2f04a433836040518363ffffffff167c0100000000000000000000000000000000000000000000000000000000028152600401808373ffffffffffffffffffffffffffffffffffffffff1673ffffffffffffffffffffffffffffffffffffffff16815260200182815260200180602001828103825260078152602001807f436173684f7574000000000000000000000000000000000000000000000000008152506020019350505050600060405180830381600087803b15801561033457600080fd5b505af1158015610348573d6000803e3d6000fd5b505050505b5b60008060006101000a81548160ff02191690831515021790555050565b600254341015156104da5734600160003373ffffffffffffffffffffffffffffffffffffffff1673ffffffffffffffffffffffffffffffffffffffff16815260200190815260200160002060008282540192505081905550600360009054906101000a900473ffffffffffffffffffffffffffffffffffffffff1673ffffffffffffffffffffffffffffffffffffffff16634c2f04a433346040518363ffffffff167c0100000000000000000000000000000000000000000000000000000000028152600401808373ffffffffffffffffffffffffffffffffffffffff1673ffffffffffffffffffffffffffffffffffffffff16815260200182815260200180602001828103825260078152602001807f4465706f736974000000000000000000000000000000000000000000000000008152506020019350505050600060405180830381600087803b1580156104c157600080fd5b505af11580156104d5573d6000803e3d6000fd5b505050505b5600a165627a7a723058205c079d57a6e663c370ea130e2ea05ee70e388af2cbac10727e48c8fde55dabe30029",
  "source": "pragma solidity ^0.4.19;\n\ncontract sGuardPlus {\n    constructor() internal {\n        __lock_modifier0_lock = false;\n    }\n\n    bool private __lock_modifier0_lock;\n    modifier __lock_modifier0() {\n        require(!__lock_modifier0_lock);\n        __lock_modifier0_lock = true;\n        _;\n        __lock_modifier0_lock = false;\n    }\n}\n\ncontract PrivateBank is sGuardPlus {\n    mapping(address => uint256) public balances;\n    uint256 public MinDeposit = 1 ether;\n    Log TransferLog;\n\n    constructor(address _lib) {\n        TransferLog = Log(_lib);\n    }\n\n    function Deposit() public payable {\n        if (msg.value >= MinDeposit) {\n            balances[msg.sender] += msg.value;\n            TransferLog.AddMessage(msg.sender, msg.value, \"Deposit\");\n        }\n    }\n\n    function CashOut(uint256 _am) __lock_modifier0 {\n        if (_am <= balances[msg.sender]) {\n            if (msg.sender.call.value(_am)()) {\n                balances[msg.sender] -= _am;\n                TransferLog.AddMessage(msg.sender, _am, \"CashOut\");\n            }\n        }\n    }\n\n    function() public payable {}\n}\n\ncontract Log {\n    struct Message {\n        address Sender;\n        string Data;\n        uint256 Val;\n        uint256 Time;\n    }\n    Message[] public History;\n    Message LastMsg;\n\n    function AddMessage(\n        address _adr,\n        uint256 _val,\n        string _data\n    ) public {\n        LastMsg.Sender = _adr;\n        LastMsg.Time = now;\n        LastMsg.Val = _val;\n        LastMsg.Data = _data;\n        History.push(LastMsg);\n    }\n}\n",
  "sourcePath": "/workdir/truffle_example/after/0xb93430ce38ac4a6bb47fb1fc085ea669353fd89e/contracts/0xb93430ce38ac4a6bb47fb1fc085ea669353fd89e.sol.fixed.sol",
  "compiler": {
    "name": "solc",
    "version": "0.4.25+commit.59dbf8f1.Emscripten.clang"
  },
  "schemaVersion": "3.4.8",
  "updatedAt": "2022-08-13T06:13:44.899Z",
  "networkType": "ethereum",
  "devdoc": {
    "methods": {}
  },
  "userdoc": {
    "methods": {}
  }
}