{
  "contractName": "W_WALLET",
  "abi": [
    {
      "constant": true,
      "inputs": [
        {
          "name": "",
          "type": "address"
        }
      ],
      "name": "Acc",
      "outputs": [
        {
          "name": "unlockTime",
          "type": "uint256"
        },
        {
          "name": "balance",
          "type": "uint256"
        }
      ],
      "payable": false,
      "stateMutability": "view",
      "type": "function"
    },
    {
      "constant": true,
      "inputs": [],
      "name": "MinSum",
      "outputs": [
        {
          "name": "",
          "type": "uint256"
        }
      ],
      "payable": false,
      "stateMutability": "view",
      "type": "function"
    },
    {
      "inputs": [
        {
          "name": "log",
          "type": "address"
        }
      ],
      "payable": false,
      "stateMutability": "nonpayable",
      "type": "constructor"
    },
    {
      "payable": true,
      "stateMutability": "payable",
      "type": "fallback"
    },
    {
      "constant": false,
      "inputs": [
        {
          "name": "_unlockTime",
          "type": "uint256"
        }
      ],
      "name": "Put",
      "outputs": [],
      "payable": true,
      "stateMutability": "payable",
      "type": "function"
    },
    {
      "constant": false,
      "inputs": [
        {
          "name": "_am",
          "type": "uint256"
        }
      ],
      "name": "Collect",
      "outputs": [],
      "payable": true,
      "stateMutability": "payable",
      "type": "function"
    }
  ],
  "bytecode": "0x6080604052670de0b6b3a764000060025534801561001c57600080fd5b506040516020806105718339810180604052810190808051906020019092919050505080600160006101000a81548173ffffffffffffffffffffffffffffffffffffffff021916908373ffffffffffffffffffffffffffffffffffffffff160217905550506104e1806100906000396000f300608060405260043610610062576000357c0100000000000000000000000000000000000000000000000000000000900463ffffffff1680633fe438221461006e57806365f3c31a1461008e5780637731cd2a146100ae578063c2808d1a1461010c575b61006c6000610137565b005b61008c600480360381019080803590602001909291905050506102bc565b005b6100ac60048036038101908080359060200190929190505050610137565b005b3480156100ba57600080fd5b506100ef600480360381019080803573ffffffffffffffffffffffffffffffffffffffff16906020019092919050505061048b565b604051808381526020018281526020019250505060405180910390f35b34801561011857600080fd5b506101216104af565b6040518082815260200191505060405180910390f35b60008060003373ffffffffffffffffffffffffffffffffffffffff1673ffffffffffffffffffffffffffffffffffffffff1681526020019081526020016000209050348160010160008282540192505081905550428211610198574261019a565b815b8160000181905550600160009054906101000a900473ffffffffffffffffffffffffffffffffffffffff1673ffffffffffffffffffffffffffffffffffffffff16634c2f04a433346040518363ffffffff167c0100000000000000000000000000000000000000000000000000000000028152600401808373ffffffffffffffffffffffffffffffffffffffff1673ffffffffffffffffffffffffffffffffffffffff16815260200182815260200180602001828103825260038152602001807f50757400000000000000000000000000000000000000000000000000000000008152506020019350505050600060405180830381600087803b1580156102a057600080fd5b505af11580156102b4573d6000803e3d6000fd5b505050505050565b60008060003373ffffffffffffffffffffffffffffffffffffffff1673ffffffffffffffffffffffffffffffffffffffff1681526020019081526020016000209050600254816001015410158015610318575081816001015410155b80156103275750806000015442115b15610487573373ffffffffffffffffffffffffffffffffffffffff168260405160006040518083038185875af1925050501561048657818160010160008282540392505081905550600160009054906101000a900473ffffffffffffffffffffffffffffffffffffffff1673ffffffffffffffffffffffffffffffffffffffff16634c2f04a433846040518363ffffffff167c0100000000000000000000000000000000000000000000000000000000028152600401808373ffffffffffffffffffffffffffffffffffffffff1673ffffffffffffffffffffffffffffffffffffffff16815260200182815260200180602001828103825260078152602001807f436f6c6c656374000000000000000000000000000000000000000000000000008152506020019350505050600060405180830381600087803b15801561046d57600080fd5b505af1158015610481573d6000803e3d6000fd5b505050505b5b5050565b60006020528060005260406000206000915090508060000154908060010154905082565b600254815600a165627a7a72305820680743e8fec687ce35190fc611946dfe63ee0aac21a910fde4b66db93dcae19f0029",
  "source": "/*\r\n * @source: etherscan.io \r\n * @author: -\r\n * @vulnerable_at_lines: 29\r\n */\r\n\r\npragma solidity ^0.4.25;\r\n\r\ncontract W_WALLET\r\n{\r\n    function Put(uint _unlockTime)\r\n    public\r\n    payable\r\n    {\r\n        var acc = Acc[msg.sender];\r\n        acc.balance += msg.value;\r\n        acc.unlockTime = _unlockTime>now?_unlockTime:now;\r\n        LogFile.AddMessage(msg.sender,msg.value,\"Put\");\r\n    }\r\n\r\n    function Collect(uint _am)\r\n    public\r\n    payable\r\n    {\r\n        var acc = Acc[msg.sender];\r\n        if( acc.balance>=MinSum && acc.balance>=_am && now>acc.unlockTime)\r\n        {\r\n            // <yes> <report> REENTRANCY\r\n            if(msg.sender.call.value(_am)())\r\n            {\r\n                acc.balance-=_am;\r\n                LogFile.AddMessage(msg.sender,_am,\"Collect\");\r\n            }\r\n        }\r\n    }\r\n\r\n    function() \r\n    public \r\n    payable\r\n    {\r\n        Put(0);\r\n    }\r\n\r\n    struct Holder   \r\n    {\r\n        uint unlockTime;\r\n        uint balance;\r\n    }\r\n\r\n    mapping (address => Holder) public Acc;\r\n\r\n    Log LogFile;\r\n\r\n    uint public MinSum = 1 ether;    \r\n\r\n    function W_WALLET(address log) public{\r\n        LogFile = Log(log);\r\n    }\r\n}\r\n\r\n\r\ncontract Log \r\n{\r\n    struct Message\r\n    {\r\n        address Sender;\r\n        string  Data;\r\n        uint Val;\r\n        uint  Time;\r\n    }\r\n\r\n    Message[] public History;\r\n\r\n    Message LastMsg;\r\n\r\n    function AddMessage(address _adr,uint _val,string _data)\r\n    public\r\n    {\r\n        LastMsg.Sender = _adr;\r\n        LastMsg.Time = now;\r\n        LastMsg.Val = _val;\r\n        LastMsg.Data = _data;\r\n        History.push(LastMsg);\r\n    }\r\n}",
  "sourcePath": "/workdir/truffle_example/before/0x7b368c4e805c3870b6c49a3f1f49f69af8662cf3/contracts/0x7b368c4e805c3870b6c49a3f1f49f69af8662cf3.sol",
  "compiler": {
    "name": "solc",
    "version": "0.4.25+commit.59dbf8f1.Emscripten.clang"
  },
  "schemaVersion": "3.4.8",
  "updatedAt": "2022-08-14T08:37:20.799Z",
  "networkType": "ethereum",
  "devdoc": {
    "methods": {}
  },
  "userdoc": {
    "methods": {}
  }
}