{
  "contractName": "token",
  "abi": [
    {
      "constant": true,
      "inputs": [],
      "name": "name",
      "outputs": [
        {
          "name": "",
          "type": "string"
        }
      ],
      "payable": false,
      "stateMutability": "view",
      "type": "function"
    },
    {
      "constant": true,
      "inputs": [],
      "name": "totalSupply",
      "outputs": [
        {
          "name": "",
          "type": "uint256"
        }
      ],
      "payable": false,
      "stateMutability": "view",
      "type": "function"
    },
    {
      "constant": true,
      "inputs": [],
      "name": "decimals",
      "outputs": [
        {
          "name": "",
          "type": "uint8"
        }
      ],
      "payable": false,
      "stateMutability": "view",
      "type": "function"
    },
    {
      "constant": true,
      "inputs": [
        {
          "name": "",
          "type": "address"
        }
      ],
      "name": "balanceOf",
      "outputs": [
        {
          "name": "",
          "type": "uint256"
        }
      ],
      "payable": false,
      "stateMutability": "view",
      "type": "function"
    },
    {
      "constant": true,
      "inputs": [],
      "name": "symbol",
      "outputs": [
        {
          "name": "",
          "type": "string"
        }
      ],
      "payable": false,
      "stateMutability": "view",
      "type": "function"
    },
    {
      "constant": true,
      "inputs": [
        {
          "name": "",
          "type": "address"
        },
        {
          "name": "",
          "type": "address"
        }
      ],
      "name": "allowance",
      "outputs": [
        {
          "name": "",
          "type": "uint256"
        }
      ],
      "payable": false,
      "stateMutability": "view",
      "type": "function"
    },
    {
      "inputs": [
        {
          "name": "initialSupply",
          "type": "uint256"
        },
        {
          "name": "tokenName",
          "type": "string"
        },
        {
          "name": "decimalUnits",
          "type": "uint8"
        },
        {
          "name": "tokenSymbol",
          "type": "string"
        }
      ],
      "payable": false,
      "stateMutability": "nonpayable",
      "type": "constructor"
    },
    {
      "payable": false,
      "stateMutability": "nonpayable",
      "type": "fallback"
    },
    {
      "anonymous": false,
      "inputs": [
        {
          "indexed": true,
          "name": "from",
          "type": "address"
        },
        {
          "indexed": true,
          "name": "to",
          "type": "address"
        },
        {
          "indexed": false,
          "name": "value",
          "type": "uint256"
        }
      ],
      "name": "Transfer",
      "type": "event"
    },
    {
      "constant": false,
      "inputs": [
        {
          "name": "_to",
          "type": "address"
        },
        {
          "name": "_value",
          "type": "uint256"
        }
      ],
      "name": "transfer",
      "outputs": [],
      "payable": false,
      "stateMutability": "nonpayable",
      "type": "function"
    },
    {
      "constant": false,
      "inputs": [
        {
          "name": "_spender",
          "type": "address"
        },
        {
          "name": "_value",
          "type": "uint256"
        }
      ],
      "name": "approve",
      "outputs": [
        {
          "name": "success",
          "type": "bool"
        }
      ],
      "payable": false,
      "stateMutability": "nonpayable",
      "type": "function"
    },
    {
      "constant": false,
      "inputs": [
        {
          "name": "_spender",
          "type": "address"
        },
        {
          "name": "_value",
          "type": "uint256"
        },
        {
          "name": "_extraData",
          "type": "bytes"
        }
      ],
      "name": "approveAndCall",
      "outputs": [
        {
          "name": "success",
          "type": "bool"
        }
      ],
      "payable": false,
      "stateMutability": "nonpayable",
      "type": "function"
    },
    {
      "constant": false,
      "inputs": [
        {
          "name": "_from",
          "type": "address"
        },
        {
          "name": "_to",
          "type": "address"
        },
        {
          "name": "_value",
          "type": "uint256"
        }
      ],
      "name": "transferFrom",
      "outputs": [
        {
          "name": "success",
          "type": "bool"
        }
      ],
      "payable": false,
      "stateMutability": "nonpayable",
      "type": "function"
    }
  ],
  "bytecode": "0x608060405234801561001057600080fd5b50604051610f26380380610f268339810180604052810190808051906020019092919080518201929190602001805190602001909291908051820192919050505083600460003373ffffffffffffffffffffffffffffffffffffffff1673ffffffffffffffffffffffffffffffffffffffff168152602001908152602001600020819055508360038190555082600090805190602001906100b29291906100ee565b5080600190805190602001906100c99291906100ee565b5081600260006101000a81548160ff021916908360ff16021790555050505050610193565b828054600181600116156101000203166002900490600052602060002090601f016020900481019282601f1061012f57805160ff191683800117855561015d565b8280016001018555821561015d579182015b8281111561015c578251825591602001919060010190610141565b5b50905061016a919061016e565b5090565b61019091905b8082111561018c576000816000905550600101610174565b5090565b90565b610d84806101a26000396000f3006080604052600436106100a4576000357c0100000000000000000000000000000000000000000000000000000000900463ffffffff16806306fdde03146100b6578063095ea7b31461014657806318160ddd146101ab57806323b872dd146101d6578063313ce5671461025b57806370a082311461028c57806395d89b41146102e3578063a9059cbb14610373578063cae9ca51146103c0578063dd62ed3e1461046b575b3480156100b057600080fd5b50600080fd5b3480156100c257600080fd5b506100cb6104e2565b6040518080602001828103825283818151815260200191508051906020019080838360005b8381101561010b5780820151818401526020810190506100f0565b50505050905090810190601f1680156101385780820380516001836020036101000a031916815260200191505b509250505060405180910390f35b34801561015257600080fd5b50610191600480360381019080803573ffffffffffffffffffffffffffffffffffffffff16906020019092919080359060200190929190505050610580565b604051808215151515815260200191505060405180910390f35b3480156101b757600080fd5b506101c061060d565b6040518082815260200191505060405180910390f35b3480156101e257600080fd5b50610241600480360381019080803573ffffffffffffffffffffffffffffffffffffffff169060200190929190803573ffffffffffffffffffffffffffffffffffffffff16906020019092919080359060200190929190505050610613565b604051808215151515815260200191505060405180910390f35b34801561026757600080fd5b5061027061090b565b604051808260ff1660ff16815260200191505060405180910390f35b34801561029857600080fd5b506102cd600480360381019080803573ffffffffffffffffffffffffffffffffffffffff16906020019092919050505061091e565b6040518082815260200191505060405180910390f35b3480156102ef57600080fd5b506102f8610936565b6040518080602001828103825283818151815260200191508051906020019080838360005b8381101561033857808201518184015260208101905061031d565b50505050905090810190601f1680156103655780820380516001836020036101000a031916815260200191505b509250505060405180910390f35b34801561037f57600080fd5b506103be600480360381019080803573ffffffffffffffffffffffffffffffffffffffff169060200190929190803590602001909291905050506109d4565b005b3480156103cc57600080fd5b50610451600480360381019080803573ffffffffffffffffffffffffffffffffffffffff16906020019092919080359060200190929190803590602001908201803590602001908080601f0160208091040260200160405190810160405280939291908181526020018383808284378201915050505050509192919290505050610bb0565b604051808215151515815260200191505060405180910390f35b34801561047757600080fd5b506104cc600480360381019080803573ffffffffffffffffffffffffffffffffffffffff169060200190929190803573ffffffffffffffffffffffffffffffffffffffff169060200190929190505050610d33565b6040518082815260200191505060405180910390f35b60008054600181600116156101000203166002900480601f0160208091040260200160405190810160405280929190818152602001828054600181600116156101000203166002900480156105785780601f1061054d57610100808354040283529160200191610578565b820191906000526020600020905b81548152906001019060200180831161055b57829003601f168201915b505050505081565b600081600560003373ffffffffffffffffffffffffffffffffffffffff1673ffffffffffffffffffffffffffffffffffffffff16815260200190815260200160002060008573ffffffffffffffffffffffffffffffffffffffff1673ffffffffffffffffffffffffffffffffffffffff168152602001908152602001600020819055506001905092915050565b60035481565b600081600460008673ffffffffffffffffffffffffffffffffffffffff1673ffffffffffffffffffffffffffffffffffffffff16815260200190815260200160002054101561066157600080fd5b600460008473ffffffffffffffffffffffffffffffffffffffff1673ffffffffffffffffffffffffffffffffffffffff1681526020019081526020016000205482600460008673ffffffffffffffffffffffffffffffffffffffff1673ffffffffffffffffffffffffffffffffffffffff168152602001908152602001600020540110156106ee57600080fd5b600560008573ffffffffffffffffffffffffffffffffffffffff1673ffffffffffffffffffffffffffffffffffffffff16815260200190815260200160002060003373ffffffffffffffffffffffffffffffffffffffff1673ffffffffffffffffffffffffffffffffffffffff1681526020019081526020016000205482111561077757600080fd5b81600460008673ffffffffffffffffffffffffffffffffffffffff1673ffffffffffffffffffffffffffffffffffffffff1681526020019081526020016000206000828254039250508190555081600460008573ffffffffffffffffffffffffffffffffffffffff1673ffffffffffffffffffffffffffffffffffffffff1681526020019081526020016000206000828254019250508190555081600560008673ffffffffffffffffffffffffffffffffffffffff1673ffffffffffffffffffffffffffffffffffffffff16815260200190815260200160002060003373ffffffffffffffffffffffffffffffffffffffff1673ffffffffffffffffffffffffffffffffffffffff168152602001908152602001600020600082825403925050819055508273ffffffffffffffffffffffffffffffffffffffff168473ffffffffffffffffffffffffffffffffffffffff167fddf252ad1be2c89b69c2b068fc378daa952ba7f163c4a11628f55a4df523b3ef846040518082815260200191505060405180910390a3600190509392505050565b600260009054906101000a900460ff1681565b60046020528060005260406000206000915090505481565b60018054600181600116156101000203166002900480601f0160208091040260200160405190810160405280929190818152602001828054600181600116156101000203166002900480156109cc5780601f106109a1576101008083540402835291602001916109cc565b820191906000526020600020905b8154815290600101906020018083116109af57829003601f168201915b505050505081565b80600460003373ffffffffffffffffffffffffffffffffffffffff1673ffffffffffffffffffffffffffffffffffffffff168152602001908152602001600020541015610a2057600080fd5b600460008373ffffffffffffffffffffffffffffffffffffffff1673ffffffffffffffffffffffffffffffffffffffff1681526020019081526020016000205481600460008573ffffffffffffffffffffffffffffffffffffffff1673ffffffffffffffffffffffffffffffffffffffff16815260200190815260200160002054011015610aad57600080fd5b80600460003373ffffffffffffffffffffffffffffffffffffffff1673ffffffffffffffffffffffffffffffffffffffff1681526020019081526020016000206000828254039250508190555080600460008473ffffffffffffffffffffffffffffffffffffffff1673ffffffffffffffffffffffffffffffffffffffff168152602001908152602001600020600082825401925050819055508173ffffffffffffffffffffffffffffffffffffffff163373ffffffffffffffffffffffffffffffffffffffff167fddf252ad1be2c89b69c2b068fc378daa952ba7f163c4a11628f55a4df523b3ef836040518082815260200191505060405180910390a35050565b600080849050610bc08585610580565b15610d2a578073ffffffffffffffffffffffffffffffffffffffff16638f4ffcb1338630876040518563ffffffff167c0100000000000000000000000000000000000000000000000000000000028152600401808573ffffffffffffffffffffffffffffffffffffffff1673ffffffffffffffffffffffffffffffffffffffff1681526020018481526020018373ffffffffffffffffffffffffffffffffffffffff1673ffffffffffffffffffffffffffffffffffffffff16815260200180602001828103825283818151815260200191508051906020019080838360005b83811015610cba578082015181840152602081019050610c9f565b50505050905090810190601f168015610ce75780820380516001836020036101000a031916815260200191505b5095505050505050600060405180830381600087803b158015610d0957600080fd5b505af1158015610d1d573d6000803e3d6000fd5b5050505060019150610d2b565b5b509392505050565b60056020528160005260406000206020528060005260406000206000915091505054815600a165627a7a72305820cbe2ca8fadedb1692c47863722500b94fa1d7eb0e5d1a9f4aeaa32f91b9404320029",
  "source": "pragma solidity ^0.4.2;\n\ncontract sGuardPlus {\n    constructor() internal {}\n\n    function add_uint256(uint256 a, uint256 b) internal pure returns (uint256) {\n        uint256 c = a + b;\n        assert(c >= a);\n        return c;\n    }\n\n    function mul_uint256(uint256 a, uint256 b) internal pure returns (uint256) {\n        if (a == 0) {\n            return 0;\n        }\n        uint256 c = a * b;\n        assert(c / a == b);\n        return c;\n    }\n\n    function add_uint(uint256 a, uint256 b) internal pure returns (uint256) {\n        uint256 c = a + b;\n        assert(c >= a);\n        return c;\n    }\n\n    function sub_uint(uint256 a, uint256 b) internal pure returns (uint256) {\n        assert(b <= a);\n        return a - b;\n    }\n}\n\ncontract owned {\n    address public owner;\n\n    constructor() {\n        owner = msg.sender;\n    }\n\n    modifier onlyOwner() {\n        if (msg.sender != owner) revert();\n\n        _;\n    }\n\n    function transferOwnership(address newOwner) onlyOwner {\n        owner = newOwner;\n    }\n}\n\ncontract tokenRecipient {\n    function receiveApproval(\n        address _from,\n        uint256 _value,\n        address _token,\n        bytes _extraData\n    );\n}\n\ncontract token {\n    string public name;\n    string public symbol;\n    uint8 public decimals;\n    uint256 public totalSupply;\n    mapping(address => uint256) public balanceOf;\n    mapping(address => mapping(address => uint256)) public allowance;\n    event Transfer(address indexed from, address indexed to, uint256 value);\n\n    constructor(\n        uint256 initialSupply,\n        string tokenName,\n        uint8 decimalUnits,\n        string tokenSymbol\n    ) {\n        balanceOf[msg.sender] = initialSupply;\n        totalSupply = initialSupply;\n        name = tokenName;\n        symbol = tokenSymbol;\n        decimals = decimalUnits;\n    }\n\n    function transfer(address _to, uint256 _value) {\n        if (balanceOf[msg.sender] < _value) revert();\n\n        if (balanceOf[_to] + _value < balanceOf[_to]) revert();\n\n        balanceOf[msg.sender] -= _value;\n        balanceOf[_to] += _value;\n        Transfer(msg.sender, _to, _value);\n    }\n\n    function approve(address _spender, uint256 _value) returns (bool success) {\n        allowance[msg.sender][_spender] = _value;\n        return true;\n    }\n\n    function approveAndCall(\n        address _spender,\n        uint256 _value,\n        bytes _extraData\n    ) returns (bool success) {\n        tokenRecipient spender = tokenRecipient(_spender);\n        if (approve(_spender, _value)) {\n            spender.receiveApproval(msg.sender, _value, this, _extraData);\n            return true;\n        }\n    }\n\n    function transferFrom(\n        address _from,\n        address _to,\n        uint256 _value\n    ) returns (bool success) {\n        if (balanceOf[_from] < _value) revert();\n\n        if (balanceOf[_to] + _value < balanceOf[_to]) revert();\n\n        if (_value > allowance[_from][msg.sender]) revert();\n\n        balanceOf[_from] -= _value;\n        balanceOf[_to] += _value;\n        allowance[_from][msg.sender] -= _value;\n        Transfer(_from, _to, _value);\n        return true;\n    }\n\n    function() {\n        revert();\n    }\n}\n\ncontract Betcash is sGuardPlus, owned, token {\n    uint256 public buyRate = 4000;\n    bool public isSelling = true;\n    mapping(address => bool) public frozenAccount;\n    event FrozenFunds(address target, bool frozen);\n\n    constructor(\n        uint256 initialSupply,\n        string tokenName,\n        uint8 decimalUnits,\n        string tokenSymbol\n    ) token(initialSupply, tokenName, decimalUnits, tokenSymbol) {}\n\n    function transfer(address _to, uint256 _value) {\n        if (balanceOf[msg.sender] < _value) revert();\n\n        if (balanceOf[_to] + _value < balanceOf[_to]) revert();\n\n        if (frozenAccount[msg.sender]) revert();\n\n        balanceOf[msg.sender] -= _value;\n        balanceOf[_to] += _value;\n        Transfer(msg.sender, _to, _value);\n    }\n\n    function transferFrom(\n        address _from,\n        address _to,\n        uint256 _value\n    ) returns (bool success) {\n        if (frozenAccount[_from]) revert();\n\n        if (balanceOf[_from] < _value) revert();\n\n        if (balanceOf[_to] + _value < balanceOf[_to]) revert();\n\n        if (_value > allowance[_from][msg.sender]) revert();\n\n        balanceOf[_from] -= _value;\n        balanceOf[_to] += _value;\n        allowance[_from][msg.sender] -= _value;\n        Transfer(_from, _to, _value);\n        return true;\n    }\n\n    function mintToken(address target, uint256 mintedAmount) onlyOwner {\n        balanceOf[target] = add_uint256(balanceOf[target], mintedAmount);\n        Transfer(0, owner, mintedAmount);\n        Transfer(owner, target, mintedAmount);\n    }\n\n    function freezeAccount(address target, bool freeze) onlyOwner {\n        frozenAccount[target] = freeze;\n        FrozenFunds(target, freeze);\n    }\n\n    function setBuyRate(uint256 newBuyRate) onlyOwner {\n        buyRate = newBuyRate;\n    }\n\n    function setSelling(bool newStatus) onlyOwner {\n        isSelling = newStatus;\n    }\n\n    function buy() payable {\n        if (isSelling == false) revert();\n\n        uint256 amount = mul_uint256(msg.value, buyRate);\n        balanceOf[msg.sender] = add_uint(balanceOf[msg.sender], amount);\n        balanceOf[owner] = sub_uint(balanceOf[owner], amount);\n        Transfer(owner, msg.sender, amount);\n    }\n\n    function withdrawToOwner(uint256 amountWei) onlyOwner {\n        owner.transfer(amountWei);\n    }\n}\n",
  "sourcePath": "/workdir/truffle_example/after/0x4D391B4350cA1C690eBaf00d35bfcDd5721470F8/contracts/0x4D391B4350cA1C690eBaf00d35bfcDd5721470F8.sol.fixed.sol",
  "compiler": {
    "name": "solc",
    "version": "0.4.25+commit.59dbf8f1.Emscripten.clang"
  },
  "schemaVersion": "3.4.8",
  "updatedAt": "2022-08-12T12:26:38.175Z",
  "devdoc": {
    "methods": {}
  },
  "userdoc": {
    "methods": {}
  }
}