{
  "contractName": "airdrop",
  "abi": [
    {
      "constant": false,
      "inputs": [
        {
          "name": "from",
          "type": "address"
        },
        {
          "name": "caddress",
          "type": "address"
        },
        {
          "name": "_tos",
          "type": "address[]"
        },
        {
          "name": "v",
          "type": "uint256"
        }
      ],
      "name": "transfer",
      "outputs": [
        {
          "name": "",
          "type": "bool"
        }
      ],
      "payable": false,
      "stateMutability": "nonpayable",
      "type": "function"
    }
  ],
  "bytecode": "0x608060405234801561001057600080fd5b506102d8806100206000396000f300608060405260043610610041576000357c0100000000000000000000000000000000000000000000000000000000900463ffffffff1680631561ae3114610046575b600080fd5b34801561005257600080fd5b506100f4600480360381019080803573ffffffffffffffffffffffffffffffffffffffff169060200190929190803573ffffffffffffffffffffffffffffffffffffffff169060200190929190803590602001908201803590602001908080602002602001604051908101604052809392919081815260200183836020028082843782019150505050505091929192908035906020019092919050505061010e565b604051808215151515815260200191505060405180910390f35b600080600080855111151561012257600080fd5b60405180807f7472616e7366657246726f6d28616464726573732c616464726573732c75696e81526020017f7432353629000000000000000000000000000000000000000000000000000000815250602501905060405180910390209150600090505b845181101561029e578573ffffffffffffffffffffffffffffffffffffffff16827c010000000000000000000000000000000000000000000000000000000090048887848151811015156101d557fe5b90602001906020020151876040518463ffffffff167c0100000000000000000000000000000000000000000000000000000000028152600401808473ffffffffffffffffffffffffffffffffffffffff1673ffffffffffffffffffffffffffffffffffffffff1681526020018373ffffffffffffffffffffffffffffffffffffffff1673ffffffffffffffffffffffffffffffffffffffff16815260200182815260200193505050506000604051808303816000875af192505050508080600101915050610185565b6001925050509493505050505600a165627a7a7230582073472c44087f797a697798d4450cb13ab02ca9ace28c4dfabbd7cd45ba6278210029",
  "source": "/*\r\n * @source: etherscan.io \r\n * @author: -\r\n * @vulnerable_at_lines: 16\r\n */\r\n\r\npragma solidity ^0.4.24;\r\n \r\ncontract airdrop{\r\n    \r\n    function transfer(address from,address caddress,address[] _tos,uint v)public returns (bool){\r\n        require(_tos.length > 0);\r\n        bytes4 id=bytes4(keccak256(\"transferFrom(address,address,uint256)\"));\r\n        for(uint i=0;i<_tos.length;i++){\r\n             // <yes> <report> UNCHECKED_LL_CALLS\r\n            caddress.call(id,from,_tos[i],v);\r\n        }\r\n        return true;\r\n    }\r\n}",
  "sourcePath": "/workdir/truffle_example/before/0x4051334adc52057aca763453820cb0e045076ef3/contracts/0x4051334adc52057aca763453820cb0e045076ef3.sol",
  "compiler": {
    "name": "solc",
    "version": "0.4.25+commit.59dbf8f1.Emscripten.clang"
  },
  "schemaVersion": "3.4.8",
  "updatedAt": "2022-08-14T09:08:14.410Z",
  "networkType": "ethereum",
  "devdoc": {
    "methods": {}
  },
  "userdoc": {
    "methods": {}
  }
}