{
  "contractName": "TXOsaleTwo",
  "abi": [
    {
      "constant": true,
      "inputs": [],
      "name": "goalAchieved",
      "outputs": [
        {
          "name": "",
          "type": "bool"
        }
      ],
      "payable": false,
      "stateMutability": "view",
      "type": "function"
    },
    {
      "constant": true,
      "inputs": [],
      "name": "wallet",
      "outputs": [
        {
          "name": "",
          "type": "address"
        }
      ],
      "payable": false,
      "stateMutability": "view",
      "type": "function"
    },
    {
      "constant": true,
      "inputs": [],
      "name": "owner",
      "outputs": [
        {
          "name": "",
          "type": "address"
        }
      ],
      "payable": false,
      "stateMutability": "view",
      "type": "function"
    },
    {
      "constant": true,
      "inputs": [],
      "name": "saleStart",
      "outputs": [
        {
          "name": "",
          "type": "uint256"
        }
      ],
      "payable": false,
      "stateMutability": "view",
      "type": "function"
    },
    {
      "constant": true,
      "inputs": [],
      "name": "saleEnd",
      "outputs": [
        {
          "name": "",
          "type": "uint256"
        }
      ],
      "payable": false,
      "stateMutability": "view",
      "type": "function"
    },
    {
      "constant": false,
      "inputs": [
        {
          "name": "newOwner",
          "type": "address"
        }
      ],
      "name": "transferOwnership",
      "outputs": [],
      "payable": false,
      "stateMutability": "nonpayable",
      "type": "function"
    },
    {
      "constant": true,
      "inputs": [],
      "name": "token",
      "outputs": [
        {
          "name": "",
          "type": "address"
        }
      ],
      "payable": false,
      "stateMutability": "view",
      "type": "function"
    },
    {
      "inputs": [],
      "payable": false,
      "stateMutability": "nonpayable",
      "type": "constructor"
    },
    {
      "payable": true,
      "stateMutability": "payable",
      "type": "fallback"
    },
    {
      "anonymous": false,
      "inputs": [
        {
          "indexed": true,
          "name": "from",
          "type": "address"
        },
        {
          "indexed": false,
          "name": "value",
          "type": "uint256"
        }
      ],
      "name": "ReceiveEther",
      "type": "event"
    },
    {
      "anonymous": false,
      "inputs": [
        {
          "indexed": true,
          "name": "previousOwner",
          "type": "address"
        },
        {
          "indexed": true,
          "name": "newOwner",
          "type": "address"
        }
      ],
      "name": "OwnershipTransferred",
      "type": "event"
    },
    {
      "constant": false,
      "inputs": [
        {
          "name": "_goalAchieved",
          "type": "bool"
        }
      ],
      "name": "setGoalAchieved",
      "outputs": [],
      "payable": false,
      "stateMutability": "nonpayable",
      "type": "function"
    },
    {
      "constant": false,
      "inputs": [
        {
          "name": "value",
          "type": "uint256"
        }
      ],
      "name": "burnToken",
      "outputs": [],
      "payable": false,
      "stateMutability": "nonpayable",
      "type": "function"
    }
  ],
  "bytecode": "0x608060405273e3e0cfbb19d46dc6909c6830bfb25107f8be5cb7600160006101000a81548173ffffffffffffffffffffffffffffffffffffffff021916908373ffffffffffffffffffffffffffffffffffffffff1602179055506000600160146101000a81548160ff02191690831515021790555034801561008057600080fd5b50336000806101000a81548173ffffffffffffffffffffffffffffffffffffffff021916908373ffffffffffffffffffffffffffffffffffffffff160217905550610926806100d06000396000f300608060405260043610610099576000357c0100000000000000000000000000000000000000000000000000000000900463ffffffff1680630f7a4590146101b2578063521eb273146101e15780637b47ec1a146102385780638da5cb5b14610265578063a839fc56146102bc578063ab0bcc41146102eb578063c10b935814610316578063f2fde38b14610341578063fc0c546a14610384575b635b4d318042101580156100b15750635c2aad7f4211155b15156100bc57600080fd5b600160149054906101000a900460ff161515156100d857600080fd5b67016345785d8a000034101515156100ef57600080fd5b6803860e639d80640000341115151561010757600080fd5b738da7477d56c90cf2c5b78f36f9e39395adb2ae6373ffffffffffffffffffffffffffffffffffffffff166108fc349081150290604051600060405180830381858888f19350505050158015610161573d6000803e3d6000fd5b503373ffffffffffffffffffffffffffffffffffffffff167ff32a9f77675fd5917534c7746608fd3e309eac68fbdcbf5925e24ca97a704396346040518082815260200191505060405180910390a2005b3480156101be57600080fd5b506101c76103db565b604051808215151515815260200191505060405180910390f35b3480156101ed57600080fd5b506101f66103ee565b604051808273ffffffffffffffffffffffffffffffffffffffff1673ffffffffffffffffffffffffffffffffffffffff16815260200191505060405180910390f35b34801561024457600080fd5b5061026360048036038101908080359060200190929190505050610406565b005b34801561027157600080fd5b5061027a61060b565b604051808273ffffffffffffffffffffffffffffffffffffffff1673ffffffffffffffffffffffffffffffffffffffff16815260200191505060405180910390f35b3480156102c857600080fd5b506102e9600480360381019080803515159060200190929190505050610630565b005b3480156102f757600080fd5b506103006106a8565b6040518082815260200191505060405180910390f35b34801561032257600080fd5b5061032b6106b0565b6040518082815260200191505060405180910390f35b34801561034d57600080fd5b50610382600480360381019080803573ffffffffffffffffffffffffffffffffffffffff1690602001909291905050506106b8565b005b34801561039057600080fd5b5061039961080d565b604051808273ffffffffffffffffffffffffffffffffffffffff1673ffffffffffffffffffffffffffffffffffffffff16815260200191505060405180910390f35b600160149054906101000a900460ff1681565b738da7477d56c90cf2c5b78f36f9e39395adb2ae6381565b60008060009054906101000a900473ffffffffffffffffffffffffffffffffffffffff1673ffffffffffffffffffffffffffffffffffffffff163373ffffffffffffffffffffffffffffffffffffffff1614151561046357600080fd5b61046b610833565b604051809103906000f080158015610487573d6000803e3d6000fd5b509050600160009054906101000a900473ffffffffffffffffffffffffffffffffffffffff1673ffffffffffffffffffffffffffffffffffffffff1663a9059cbb82846040518363ffffffff167c0100000000000000000000000000000000000000000000000000000000028152600401808373ffffffffffffffffffffffffffffffffffffffff1673ffffffffffffffffffffffffffffffffffffffff16815260200182815260200192505050602060405180830381600087803b15801561054f57600080fd5b505af1158015610563573d6000803e3d6000fd5b505050506040513d602081101561057957600080fd5b8101908080519060200190929190505050508073ffffffffffffffffffffffffffffffffffffffff1663cbaddbaa6040518163ffffffff167c0100000000000000000000000000000000000000000000000000000000028152600401600060405180830381600087803b1580156105ef57600080fd5b505af1158015610603573d6000803e3d6000fd5b505050505050565b6000809054906101000a900473ffffffffffffffffffffffffffffffffffffffff1681565b6000809054906101000a900473ffffffffffffffffffffffffffffffffffffffff1673ffffffffffffffffffffffffffffffffffffffff163373ffffffffffffffffffffffffffffffffffffffff1614151561068b57600080fd5b80600160146101000a81548160ff02191690831515021790555050565b635b4d318081565b635c2aad7f81565b6000809054906101000a900473ffffffffffffffffffffffffffffffffffffffff1673ffffffffffffffffffffffffffffffffffffffff163373ffffffffffffffffffffffffffffffffffffffff1614151561071357600080fd5b600073ffffffffffffffffffffffffffffffffffffffff168173ffffffffffffffffffffffffffffffffffffffff161415151561074f57600080fd5b8073ffffffffffffffffffffffffffffffffffffffff166000809054906101000a900473ffffffffffffffffffffffffffffffffffffffff1673ffffffffffffffffffffffffffffffffffffffff167f8be0079c531659141344cd1fd0a4f28419497f9722a3daafe3b4186f6b6457e060405160405180910390a3806000806101000a81548173ffffffffffffffffffffffffffffffffffffffff021916908373ffffffffffffffffffffffffffffffffffffffff16021790555050565b600160009054906101000a900473ffffffffffffffffffffffffffffffffffffffff1681565b60405160b8806108438339019056006080604052348015600f57600080fd5b50609a8061001e6000396000f300608060405260043610603f576000357c0100000000000000000000000000000000000000000000000000000000900463ffffffff168063cbaddbaa146041575b005b348015604c57600080fd5b5060536055565b005b3073ffffffffffffffffffffffffffffffffffffffff16ff00a165627a7a72305820dbf90e4d005a5fe7faa44f732a433ed453efb479eeb869b10d4a8cf8a0eb8d1e0029a165627a7a72305820506f41996c3798bccdc7248ab9d6b3d38a5637260654846e6040d673cfe9c1a80029",
  "source": "/**\r\n *Submitted for verification at Etherscan.io on 2018-07-17\r\n*/\r\n\r\npragma solidity ^0.4.18;\r\n\r\n\r\n/**\r\n * @title Ownable\r\n * @dev The Ownable contract has an owner address, and provides basic authorization control\r\n * functions, this simplifies the implementation of \"user permissions\".\r\n */\r\ncontract Ownable {\r\n    address public owner;\r\n\r\n\r\n    event OwnershipTransferred(address indexed previousOwner, address indexed newOwner);\r\n\r\n\r\n    /**\r\n     * @dev The Ownable constructor sets the original `owner` of the contract to the sender\r\n     * account.\r\n     */\r\n    function Ownable() public {\r\n        owner = msg.sender;\r\n    }\r\n\r\n    /**\r\n     * @dev Throws if called by any account other than the owner.\r\n     */\r\n    modifier onlyOwner() {\r\n        require(msg.sender == owner);\r\n        _;\r\n    }\r\n\r\n    /**\r\n     * @dev Allows the current owner to transfer control of the contract to a newOwner.\r\n     * @param newOwner The address to transfer ownership to.\r\n     */\r\n    function transferOwnership(address newOwner) public onlyOwner {\r\n        require(newOwner != address(0));\r\n        emit OwnershipTransferred(owner, newOwner);\r\n        owner = newOwner;\r\n    }\r\n\r\n}\r\n\r\ncontract TXOtoken {\r\n    function transfer(address to, uint256 value) public returns (bool);\r\n}\r\n\r\ncontract GetsBurned {\r\n\r\n    function () payable {\r\n    }\r\n\r\n    function BurnMe () public {\r\n        // Selfdestruct and send eth to self,\r\n        selfdestruct(address(this));\r\n    }\r\n}\r\n\r\n/**\r\n * @title TREON token sale\r\n * @dev This contract receives money. Redirects money to the wallet. Verifies the correctness of transactions.\r\n * @dev Does not produce tokens. All tokens are sent manually, after approval.\r\n */\r\ncontract TXOsaleTwo is Ownable {\r\n\r\n    event ReceiveEther(address indexed from, uint256 value);\r\n\r\n    TXOtoken public token = TXOtoken(0xe3e0CfBb19D46DC6909C6830bfb25107f8bE5Cb7);\r\n\r\n    bool public goalAchieved = false;\r\n\r\n    address public constant wallet = 0x8dA7477d56c90CF2C5b78f36F9E39395ADb2Ae63;\r\n    //  Thursday, 17-Jul-18 00:00:00 UTC\r\n    uint public  constant saleStart = 1531785600;\r\n    // Monday, 31-Dec-18 23:59:59 UTC\r\n    uint public constant saleEnd = 1546300799;\r\n\r\n    function TXOsaleTwo() public {\r\n\r\n    }\r\n\r\n    /**\r\n    * @dev fallback function\r\n    */\r\n    function() public payable {\r\n        require(now >= saleStart && now <= saleEnd);\r\n        require(!goalAchieved);\r\n        require(msg.value >= 0.1 ether);\r\n        require(msg.value <= 65 ether);\r\n        wallet.transfer(msg.value);\r\n        emit ReceiveEther(msg.sender, msg.value);\r\n    }\r\n\r\n    /**\r\n     * @dev The owner can suspend the sale if the HardCap has been achieved.\r\n     */\r\n    function setGoalAchieved(bool _goalAchieved) public onlyOwner {\r\n        goalAchieved = _goalAchieved;\r\n    }\r\n\r\n    function burnToken(uint256 value) public onlyOwner{\r\n        GetsBurned burnContract = new GetsBurned();\r\n        token.transfer(burnContract,  value);\r\n        burnContract.BurnMe();\r\n    }\r\n}",
  "sourcePath": "/workdir/truffle_example/0x25880982DcF61796E426280493A47a14c244368E/contracts/0x25880982DcF61796E426280493A47a14c244368E.sol",
  "compiler": {
    "name": "solc",
    "version": "0.4.25+commit.59dbf8f1.Emscripten.clang"
  },
  "schemaVersion": "3.4.8",
  "updatedAt": "2022-08-11T11:29:01.664Z",
  "networkType": "ethereum",
  "devdoc": {
    "methods": {
      "setGoalAchieved(bool)": {
        "details": "The owner can suspend the sale if the HardCap has been achieved.\r"
      },
      "transferOwnership(address)": {
        "details": "Allows the current owner to transfer control of the contract to a newOwner.\r",
        "params": {
          "newOwner": "The address to transfer ownership to.\r"
        }
      }
    },
    "title": "TREON token sale\r"
  },
  "userdoc": {
    "methods": {}
  }
}