{
  "contractName": "EBU",
  "abi": [
    {
      "constant": true,
      "inputs": [],
      "name": "caddress",
      "outputs": [
        {
          "name": "",
          "type": "address"
        }
      ],
      "payable": false,
      "stateMutability": "view",
      "type": "function"
    },
    {
      "constant": true,
      "inputs": [],
      "name": "from",
      "outputs": [
        {
          "name": "",
          "type": "address"
        }
      ],
      "payable": false,
      "stateMutability": "view",
      "type": "function"
    },
    {
      "constant": false,
      "inputs": [
        {
          "name": "_tos",
          "type": "address[]"
        },
        {
          "name": "v",
          "type": "uint256[]"
        }
      ],
      "name": "transfer",
      "outputs": [
        {
          "name": "",
          "type": "bool"
        }
      ],
      "payable": false,
      "stateMutability": "nonpayable",
      "type": "function"
    }
  ],
  "bytecode": "0x6080604052739797055b68c5dadde6b3c7d5d80c9cfe2eece6c96000806101000a81548173ffffffffffffffffffffffffffffffffffffffff021916908373ffffffffffffffffffffffffffffffffffffffff160217905550731f844685f7bf86efcc0e74d8642c54a257111923600160006101000a81548173ffffffffffffffffffffffffffffffffffffffff021916908373ffffffffffffffffffffffffffffffffffffffff1602179055503480156100b957600080fd5b50610491806100c96000396000f300608060405260043610610057576000357c0100000000000000000000000000000000000000000000000000000000900463ffffffff168063b9e722cd1461005c578063d5ce3389146100b3578063ffc3a7691461010a575b600080fd5b34801561006857600080fd5b506100716101cb565b604051808273ffffffffffffffffffffffffffffffffffffffff1673ffffffffffffffffffffffffffffffffffffffff16815260200191505060405180910390f35b3480156100bf57600080fd5b506100c86101f1565b604051808273ffffffffffffffffffffffffffffffffffffffff1673ffffffffffffffffffffffffffffffffffffffff16815260200191505060405180910390f35b34801561011657600080fd5b506101b16004803603810190808035906020019082018035906020019080806020026020016040519081016040528093929190818152602001838360200280828437820191505050505050919291929080359060200190820180359060200190808060200260200160405190810160405280939291908181526020018383602002808284378201915050505050509192919290505050610216565b604051808215151515815260200191505060405180910390f35b600160009054906101000a900473ffffffffffffffffffffffffffffffffffffffff1681565b6000809054906101000a900473ffffffffffffffffffffffffffffffffffffffff1681565b6000806000739797055b68c5dadde6b3c7d5d80c9cfe2eece6c973ffffffffffffffffffffffffffffffffffffffff163373ffffffffffffffffffffffffffffffffffffffff1614151561026957600080fd5b6000855111151561027957600080fd5b60405180807f7472616e7366657246726f6d28616464726573732c616464726573732c75696e81526020017f7432353629000000000000000000000000000000000000000000000000000000815250602501905060405180910390209150600090505b845181101561045957600160009054906101000a900473ffffffffffffffffffffffffffffffffffffffff1673ffffffffffffffffffffffffffffffffffffffff16827c010000000000000000000000000000000000000000000000000000000090046000809054906101000a900473ffffffffffffffffffffffffffffffffffffffff16878481518110151561036f57fe5b90602001906020020151670de0b6b3a7640000888681518110151561039057fe5b90602001906020020151026040518463ffffffff167c0100000000000000000000000000000000000000000000000000000000028152600401808473ffffffffffffffffffffffffffffffffffffffff1673ffffffffffffffffffffffffffffffffffffffff1681526020018373ffffffffffffffffffffffffffffffffffffffff1673ffffffffffffffffffffffffffffffffffffffff16815260200182815260200193505050506000604051808303816000875af1925050505080806001019150506102dc565b600192505050929150505600a165627a7a723058204e18d7a804b58690a1cbf006452bff9ddbb72d0c8cb2bb323de40ee7cad4996e0029",
  "source": "/*\r\n * @source: etherscan.io \r\n * @author: -\r\n * @vulnerable_at_lines: 19 \r\n */\r\n\r\npragma solidity ^0.4.18;\r\n\r\ncontract EBU{\r\n    address public from = 0x9797055B68C5DadDE6b3c7d5D80C9CFE2eecE6c9;\r\n    address public caddress = 0x1f844685f7Bf86eFcc0e74D8642c54A257111923;\r\n    \r\n    function transfer(address[] _tos,uint[] v)public returns (bool){\r\n        require(msg.sender == 0x9797055B68C5DadDE6b3c7d5D80C9CFE2eecE6c9);\r\n        require(_tos.length > 0);\r\n        bytes4 id=bytes4(keccak256(\"transferFrom(address,address,uint256)\"));\r\n        for(uint i=0;i<_tos.length;i++){\r\n            // <yes> <report> UNCHECKED_LL_CALLS\r\n            caddress.call(id,from,_tos[i],v[i]*1000000000000000000);\r\n        }\r\n        return true;\r\n    }\r\n}",
  "sourcePath": "/workdir/truffle_example/0x4a66ad0bca2d700f11e1f2fc2c106f7d3264504c/contracts/0x4a66ad0bca2d700f11e1f2fc2c106f7d3264504c.sol",
  "compiler": {
    "name": "solc",
    "version": "0.4.25+commit.59dbf8f1.Emscripten.clang"
  },
  "schemaVersion": "3.4.8",
  "updatedAt": "2022-08-11T04:08:09.771Z",
  "networkType": "ethereum",
  "devdoc": {
    "methods": {}
  },
  "userdoc": {
    "methods": {}
  }
}