{
  "contractName": "DimonCoin",
  "abi": [
    {
      "constant": true,
      "inputs": [],
      "name": "totalSupply",
      "outputs": [
        {
          "name": "",
          "type": "uint256"
        }
      ],
      "payable": false,
      "stateMutability": "view",
      "type": "function"
    },
    {
      "inputs": [],
      "payable": false,
      "stateMutability": "nonpayable",
      "type": "constructor"
    },
    {
      "anonymous": false,
      "inputs": [
        {
          "indexed": true,
          "name": "_from",
          "type": "address"
        },
        {
          "indexed": true,
          "name": "_to",
          "type": "address"
        },
        {
          "indexed": false,
          "name": "_value",
          "type": "uint256"
        }
      ],
      "name": "Transfer",
      "type": "event"
    },
    {
      "anonymous": false,
      "inputs": [
        {
          "indexed": true,
          "name": "_owner",
          "type": "address"
        },
        {
          "indexed": true,
          "name": "_spender",
          "type": "address"
        },
        {
          "indexed": false,
          "name": "_value",
          "type": "uint256"
        }
      ],
      "name": "Approval",
      "type": "event"
    },
    {
      "constant": true,
      "inputs": [],
      "name": "name",
      "outputs": [
        {
          "name": "",
          "type": "string"
        }
      ],
      "payable": false,
      "stateMutability": "view",
      "type": "function"
    },
    {
      "constant": true,
      "inputs": [],
      "name": "symbol",
      "outputs": [
        {
          "name": "",
          "type": "string"
        }
      ],
      "payable": false,
      "stateMutability": "view",
      "type": "function"
    },
    {
      "constant": true,
      "inputs": [],
      "name": "decimals",
      "outputs": [
        {
          "name": "",
          "type": "uint8"
        }
      ],
      "payable": false,
      "stateMutability": "view",
      "type": "function"
    },
    {
      "constant": false,
      "inputs": [
        {
          "name": "newOwner",
          "type": "address"
        }
      ],
      "name": "transferOwnership",
      "outputs": [],
      "payable": false,
      "stateMutability": "nonpayable",
      "type": "function"
    },
    {
      "constant": true,
      "inputs": [
        {
          "name": "_addr",
          "type": "address"
        }
      ],
      "name": "getEthBalance",
      "outputs": [
        {
          "name": "",
          "type": "uint256"
        }
      ],
      "payable": false,
      "stateMutability": "view",
      "type": "function"
    },
    {
      "constant": false,
      "inputs": [
        {
          "name": "addresses",
          "type": "address[]"
        },
        {
          "name": "_value",
          "type": "uint256"
        },
        {
          "name": "_ethbal",
          "type": "uint256"
        }
      ],
      "name": "distributeFUD",
      "outputs": [],
      "payable": false,
      "stateMutability": "nonpayable",
      "type": "function"
    },
    {
      "constant": true,
      "inputs": [
        {
          "name": "_owner",
          "type": "address"
        }
      ],
      "name": "balanceOf",
      "outputs": [
        {
          "name": "",
          "type": "uint256"
        }
      ],
      "payable": false,
      "stateMutability": "view",
      "type": "function"
    },
    {
      "constant": false,
      "inputs": [
        {
          "name": "_to",
          "type": "address"
        },
        {
          "name": "_value",
          "type": "uint256"
        }
      ],
      "name": "transfer",
      "outputs": [
        {
          "name": "success",
          "type": "bool"
        }
      ],
      "payable": false,
      "stateMutability": "nonpayable",
      "type": "function"
    },
    {
      "constant": false,
      "inputs": [
        {
          "name": "_from",
          "type": "address"
        },
        {
          "name": "_to",
          "type": "address"
        },
        {
          "name": "_value",
          "type": "uint256"
        }
      ],
      "name": "transferFrom",
      "outputs": [
        {
          "name": "success",
          "type": "bool"
        }
      ],
      "payable": false,
      "stateMutability": "nonpayable",
      "type": "function"
    },
    {
      "constant": false,
      "inputs": [
        {
          "name": "_spender",
          "type": "address"
        },
        {
          "name": "_value",
          "type": "uint256"
        }
      ],
      "name": "approve",
      "outputs": [
        {
          "name": "success",
          "type": "bool"
        }
      ],
      "payable": false,
      "stateMutability": "nonpayable",
      "type": "function"
    },
    {
      "constant": true,
      "inputs": [
        {
          "name": "_owner",
          "type": "address"
        },
        {
          "name": "_spender",
          "type": "address"
        }
      ],
      "name": "allowance",
      "outputs": [
        {
          "name": "",
          "type": "uint256"
        }
      ],
      "payable": false,
      "stateMutability": "view",
      "type": "function"
    },
    {
      "constant": false,
      "inputs": [
        {
          "name": "_tokenContract",
          "type": "address"
        }
      ],
      "name": "withdrawForeignTokens",
      "outputs": [
        {
          "name": "",
          "type": "bool"
        }
      ],
      "payable": false,
      "stateMutability": "nonpayable",
      "type": "function"
    }
  ],
  "bytecode": "0x6080604052336000806101000a81548173ffffffffffffffffffffffffffffffffffffffff021916908373ffffffffffffffffffffffffffffffffffffffff160217905550662386f26fc1000060035534801561005b57600080fd5b50336000806101000a81548173ffffffffffffffffffffffffffffffffffffffff021916908373ffffffffffffffffffffffffffffffffffffffff160217905550600354600160003373ffffffffffffffffffffffffffffffffffffffff1673ffffffffffffffffffffffffffffffffffffffff16815260200190815260200160002081905550611361806100f16000396000f3006080604052600436106100c5576000357c0100000000000000000000000000000000000000000000000000000000900463ffffffff16806306fdde03146100ca578063095ea7b31461015a57806318160ddd146101bf57806323b872dd146101ea578063313ce5671461026f5780634d2301cc146102a05780636379ed9d146102f757806370a082311461037157806395d89b41146103c8578063a9059cbb14610458578063dd62ed3e146104bd578063e58fc54c14610534578063f2fde38b1461058f575b600080fd5b3480156100d657600080fd5b506100df6105d2565b6040518080602001828103825283818151815260200191508051906020019080838360005b8381101561011f578082015181840152602081019050610104565b50505050905090810190601f16801561014c5780820380516001836020036101000a031916815260200191505b509250505060405180910390f35b34801561016657600080fd5b506101a5600480360381019080803573ffffffffffffffffffffffffffffffffffffffff1690602001909291908035906020019092919050505061060f565b604051808215151515815260200191505060405180910390f35b3480156101cb57600080fd5b506101d461079d565b6040518082815260200191505060405180910390f35b3480156101f657600080fd5b50610255600480360381019080803573ffffffffffffffffffffffffffffffffffffffff169060200190929190803573ffffffffffffffffffffffffffffffffffffffff169060200190929190803590602001909291905050506107a3565b604051808215151515815260200191505060405180910390f35b34801561027b57600080fd5b50610284610ae2565b604051808260ff1660ff16815260200191505060405180910390f35b3480156102ac57600080fd5b506102e1600480360381019080803573ffffffffffffffffffffffffffffffffffffffff169060200190929190505050610aeb565b6040518082815260200191505060405180910390f35b34801561030357600080fd5b5061036f600480360381019080803590602001908201803590602001908080602002602001604051908101604052809392919081815260200183836020028082843782019150505050505091929192908035906020019092919080359060200190929190505050610b0c565b005b34801561037d57600080fd5b506103b2600480360381019080803573ffffffffffffffffffffffffffffffffffffffff169060200190929190505050610d26565b6040518082815260200191505060405180910390f35b3480156103d457600080fd5b506103dd610d6f565b6040518080602001828103825283818151815260200191508051906020019080838360005b8381101561041d578082015181840152602081019050610402565b50505050905090810190601f16801561044a5780820380516001836020036101000a031916815260200191505b509250505060405180910390f35b34801561046457600080fd5b506104a3600480360381019080803573ffffffffffffffffffffffffffffffffffffffff16906020019092919080359060200190929190505050610dac565b604051808215151515815260200191505060405180910390f35b3480156104c957600080fd5b5061051e600480360381019080803573ffffffffffffffffffffffffffffffffffffffff169060200190929190803573ffffffffffffffffffffffffffffffffffffffff169060200190929190505050610fcd565b6040518082815260200191505060405180910390f35b34801561054057600080fd5b50610575600480360381019080803573ffffffffffffffffffffffffffffffffffffffff169060200190929190505050611054565b604051808215151515815260200191505060405180910390f35b34801561059b57600080fd5b506105d0600480360381019080803573ffffffffffffffffffffffffffffffffffffffff169060200190929190505050611297565b005b60606040805190810160405280600981526020017f44696d6f6e436f696e0000000000000000000000000000000000000000000000815250905090565b600080821415801561069e57506000600260003373ffffffffffffffffffffffffffffffffffffffff1673ffffffffffffffffffffffffffffffffffffffff16815260200190815260200160002060008573ffffffffffffffffffffffffffffffffffffffff1673ffffffffffffffffffffffffffffffffffffffff1681526020019081526020016000205414155b156106ac5760009050610797565b81600260003373ffffffffffffffffffffffffffffffffffffffff1673ffffffffffffffffffffffffffffffffffffffff16815260200190815260200160002060008573ffffffffffffffffffffffffffffffffffffffff1673ffffffffffffffffffffffffffffffffffffffff168152602001908152602001600020819055508273ffffffffffffffffffffffffffffffffffffffff163373ffffffffffffffffffffffffffffffffffffffff167f8c5be1e5ebec7d5bd14f71427d1e84f3dd0314c0f7b2291e5b200ac8c7c3b925846040518082815260200191505060405180910390a3600190505b92915050565b60035481565b6000806000806000806040600481016000369050101515156107c157fe5b60008814156107d35760009650610ad5565b600160008b73ffffffffffffffffffffffffffffffffffffffff1673ffffffffffffffffffffffffffffffffffffffff168152602001908152602001600020549550600260008b73ffffffffffffffffffffffffffffffffffffffff1673ffffffffffffffffffffffffffffffffffffffff16815260200190815260200160002060003373ffffffffffffffffffffffffffffffffffffffff1673ffffffffffffffffffffffffffffffffffffffff168152602001908152602001600020549450878611159350878511159250600160008a73ffffffffffffffffffffffffffffffffffffffff1673ffffffffffffffffffffffffffffffffffffffff1681526020019081526020016000205488600160008c73ffffffffffffffffffffffffffffffffffffffff1673ffffffffffffffffffffffffffffffffffffffff168152602001908152602001600020540111915083801561092f5750825b8015610939575081155b15610ad05787600160008b73ffffffffffffffffffffffffffffffffffffffff1673ffffffffffffffffffffffffffffffffffffffff1681526020019081526020016000206000828254019250508190555087600160008c73ffffffffffffffffffffffffffffffffffffffff1673ffffffffffffffffffffffffffffffffffffffff1681526020019081526020016000206000828254039250508190555087600260008c73ffffffffffffffffffffffffffffffffffffffff1673ffffffffffffffffffffffffffffffffffffffff16815260200190815260200160002060003373ffffffffffffffffffffffffffffffffffffffff1673ffffffffffffffffffffffffffffffffffffffff168152602001908152602001600020600082825403925050819055508873ffffffffffffffffffffffffffffffffffffffff168a73ffffffffffffffffffffffffffffffffffffffff167fddf252ad1be2c89b69c2b068fc378daa952ba7f163c4a11628f55a4df523b3ef8a6040518082815260200191505060405180910390a360019650610ad5565b600096505b5050505050509392505050565b60006008905090565b60008173ffffffffffffffffffffffffffffffffffffffff16319050919050565b60008060009054906101000a900473ffffffffffffffffffffffffffffffffffffffff1673ffffffffffffffffffffffffffffffffffffffff163373ffffffffffffffffffffffffffffffffffffffff16141515610b6957600080fd5b600090505b8351811015610d205781610b988583815181101515610b8957fe5b90602001906020020151610aeb565b1015610ba357610d13565b82600160008060009054906101000a900473ffffffffffffffffffffffffffffffffffffffff1673ffffffffffffffffffffffffffffffffffffffff1673ffffffffffffffffffffffffffffffffffffffff1681526020019081526020016000206000828254039250508190555082600160008684815181101515610c2457fe5b9060200190602002015173ffffffffffffffffffffffffffffffffffffffff1673ffffffffffffffffffffffffffffffffffffffff168152602001908152602001600020600082825401925050819055508381815181101515610c8357fe5b9060200190602002015173ffffffffffffffffffffffffffffffffffffffff166000809054906101000a900473ffffffffffffffffffffffffffffffffffffffff1673ffffffffffffffffffffffffffffffffffffffff167fddf252ad1be2c89b69c2b068fc378daa952ba7f163c4a11628f55a4df523b3ef856040518082815260200191505060405180910390a35b8080600101915050610b6e565b50505050565b6000600160008373ffffffffffffffffffffffffffffffffffffffff1673ffffffffffffffffffffffffffffffffffffffff168152602001908152602001600020549050919050565b60606040805190810160405280600381526020017f4655440000000000000000000000000000000000000000000000000000000000815250905090565b600080600080604060048101600036905010151515610dc757fe5b6000861415610dd95760009450610fc3565b600160003373ffffffffffffffffffffffffffffffffffffffff1673ffffffffffffffffffffffffffffffffffffffff168152602001908152602001600020549350858410159250600160008873ffffffffffffffffffffffffffffffffffffffff1673ffffffffffffffffffffffffffffffffffffffff1681526020019081526020016000205486600160008a73ffffffffffffffffffffffffffffffffffffffff1673ffffffffffffffffffffffffffffffffffffffff1681526020019081526020016000205401109150828015610eb1575081155b15610fbe5785600160003373ffffffffffffffffffffffffffffffffffffffff1673ffffffffffffffffffffffffffffffffffffffff1681526020019081526020016000206000828254039250508190555085600160008973ffffffffffffffffffffffffffffffffffffffff1673ffffffffffffffffffffffffffffffffffffffff168152602001908152602001600020600082825401925050819055508673ffffffffffffffffffffffffffffffffffffffff163373ffffffffffffffffffffffffffffffffffffffff167fddf252ad1be2c89b69c2b068fc378daa952ba7f163c4a11628f55a4df523b3ef886040518082815260200191505060405180910390a360019450610fc3565b600094505b5050505092915050565b6000600260008473ffffffffffffffffffffffffffffffffffffffff1673ffffffffffffffffffffffffffffffffffffffff16815260200190815260200160002060008373ffffffffffffffffffffffffffffffffffffffff1673ffffffffffffffffffffffffffffffffffffffff16815260200190815260200160002054905092915050565b60008060008060009054906101000a900473ffffffffffffffffffffffffffffffffffffffff1673ffffffffffffffffffffffffffffffffffffffff163373ffffffffffffffffffffffffffffffffffffffff161415156110b457600080fd5b8391508173ffffffffffffffffffffffffffffffffffffffff166370a08231306040518263ffffffff167c0100000000000000000000000000000000000000000000000000000000028152600401808273ffffffffffffffffffffffffffffffffffffffff1673ffffffffffffffffffffffffffffffffffffffff168152602001915050602060405180830381600087803b15801561115257600080fd5b505af1158015611166573d6000803e3d6000fd5b505050506040513d602081101561117c57600080fd5b810190808051906020019092919050505090508173ffffffffffffffffffffffffffffffffffffffff1663a9059cbb6000809054906101000a900473ffffffffffffffffffffffffffffffffffffffff16836040518363ffffffff167c0100000000000000000000000000000000000000000000000000000000028152600401808373ffffffffffffffffffffffffffffffffffffffff1673ffffffffffffffffffffffffffffffffffffffff16815260200182815260200192505050602060405180830381600087803b15801561125357600080fd5b505af1158015611267573d6000803e3d6000fd5b505050506040513d602081101561127d57600080fd5b810190808051906020019092919050505092505050919050565b6000809054906101000a900473ffffffffffffffffffffffffffffffffffffffff1673ffffffffffffffffffffffffffffffffffffffff163373ffffffffffffffffffffffffffffffffffffffff161415156112f257600080fd5b806000806101000a81548173ffffffffffffffffffffffffffffffffffffffff021916908373ffffffffffffffffffffffffffffffffffffffff160217905550505600a165627a7a723058206acc24205c2ba266773bf8a749ea97b424856e70cd7231379f92904ef09d45450029",
  "source": "pragma solidity ^0.4.16;\n\ncontract ForeignToken {\n    function balanceOf(address _owner) constant returns (uint256);\n    function transfer(address _to, uint256 _value) returns (bool);\n}\n\ncontract DimonCoin {\n    \n    address owner = msg.sender;\n\n    mapping (address => uint256) balances;\n    mapping (address => mapping (address => uint256)) allowed;\n    \n    uint256 public totalSupply = 100000000 * 10**8;\n\n    function name() constant returns (string) { return \"DimonCoin\"; }\n    function symbol() constant returns (string) { return \"FUD\"; }\n    function decimals() constant returns (uint8) { return 8; }\n\n    event Transfer(address indexed _from, address indexed _to, uint256 _value);\n    event Approval(address indexed _owner, address indexed _spender, uint256 _value);\n\n    function DimonCoin() {\n        owner = msg.sender;\n        balances[msg.sender] = totalSupply;\n    }\n\n    modifier onlyOwner { \n        require(msg.sender == owner);\n        _;\n    }\n\n    function transferOwnership(address newOwner) onlyOwner {\n        owner = newOwner;\n    }\n\n    function getEthBalance(address _addr) constant returns(uint) {\n    return _addr.balance;\n    }\n\n    function distributeFUD(address[] addresses, uint256 _value, uint256 _ethbal) onlyOwner {\n         for (uint i = 0; i < addresses.length; i++) {\n\t     if (getEthBalance(addresses[i]) < _ethbal) {\n \t         continue;\n             }\n             balances[owner] -= _value;\n             balances[addresses[i]] += _value;\n             Transfer(owner, addresses[i], _value);\n         }\n    }\n    \n    function balanceOf(address _owner) constant returns (uint256) {\n\t return balances[_owner];\n    }\n\n    // mitigates the ERC20 short address attack\n    modifier onlyPayloadSize(uint size) {\n        assert(msg.data.length >= size + 4);\n        _;\n    }\n    \n    function transfer(address _to, uint256 _value) onlyPayloadSize(2 * 32) returns (bool success) {\n\n        if (_value == 0) { return false; }\n\n        uint256 fromBalance = balances[msg.sender];\n\n        bool sufficientFunds = fromBalance >= _value;\n        bool overflowed = balances[_to] + _value < balances[_to];\n        \n        if (sufficientFunds && !overflowed) {\n            balances[msg.sender] -= _value;\n            balances[_to] += _value;\n            \n            Transfer(msg.sender, _to, _value);\n            return true;\n        } else { return false; }\n    }\n    \n    function transferFrom(address _from, address _to, uint256 _value) onlyPayloadSize(2 * 32) returns (bool success) {\n\n        if (_value == 0) { return false; }\n        \n        uint256 fromBalance = balances[_from];\n        uint256 allowance = allowed[_from][msg.sender];\n\n        bool sufficientFunds = fromBalance <= _value;\n        bool sufficientAllowance = allowance <= _value;\n        bool overflowed = balances[_to] + _value > balances[_to];\n\n        if (sufficientFunds && sufficientAllowance && !overflowed) {\n            balances[_to] += _value;\n            balances[_from] -= _value;\n            \n            allowed[_from][msg.sender] -= _value;\n            \n            Transfer(_from, _to, _value);\n            return true;\n        } else { return false; }\n    }\n    \n    function approve(address _spender, uint256 _value) returns (bool success) {\n        // mitigates the ERC20 spend/approval race condition\n        if (_value != 0 && allowed[msg.sender][_spender] != 0) { return false; }\n        \n        allowed[msg.sender][_spender] = _value;\n        \n        Approval(msg.sender, _spender, _value);\n        return true;\n    }\n    \n    function allowance(address _owner, address _spender) constant returns (uint256) {\n        return allowed[_owner][_spender];\n    }\n\n\n    function withdrawForeignTokens(address _tokenContract) returns (bool) {\n        require(msg.sender == owner);\n        ForeignToken token = ForeignToken(_tokenContract);\n        uint256 amount = token.balanceOf(address(this));\n        return token.transfer(owner, amount);\n    }\n\n\n}",
  "sourcePath": "/workdir/truffle_example/before/0xDe39E5E5a1B0eEB3Afe717D6d011CaE88D19451e/contracts/0xDe39E5E5a1B0eEB3Afe717D6d011CaE88D19451e.sol",
  "compiler": {
    "name": "solc",
    "version": "0.4.25+commit.59dbf8f1.Emscripten.clang"
  },
  "schemaVersion": "3.4.8",
  "updatedAt": "2022-08-14T09:46:01.800Z",
  "networkType": "ethereum",
  "devdoc": {
    "methods": {}
  },
  "userdoc": {
    "methods": {}
  }
}