{
  "contractName": "daoPOLSKAtokens",
  "abi": [
    {
      "constant": true,
      "inputs": [],
      "name": "name",
      "outputs": [
        {
          "name": "",
          "type": "string"
        }
      ],
      "payable": false,
      "stateMutability": "view",
      "type": "function"
    },
    {
      "constant": true,
      "inputs": [],
      "name": "CreationRate",
      "outputs": [
        {
          "name": "",
          "type": "uint256"
        }
      ],
      "payable": false,
      "stateMutability": "view",
      "type": "function"
    },
    {
      "constant": true,
      "inputs": [],
      "name": "totalSupply",
      "outputs": [
        {
          "name": "",
          "type": "uint256"
        }
      ],
      "payable": false,
      "stateMutability": "view",
      "type": "function"
    },
    {
      "constant": true,
      "inputs": [],
      "name": "otherchainstotalset",
      "outputs": [
        {
          "name": "",
          "type": "bool"
        }
      ],
      "payable": false,
      "stateMutability": "view",
      "type": "function"
    },
    {
      "constant": true,
      "inputs": [],
      "name": "Chain3",
      "outputs": [
        {
          "name": "",
          "type": "address"
        }
      ],
      "payable": false,
      "stateMutability": "view",
      "type": "function"
    },
    {
      "constant": true,
      "inputs": [],
      "name": "otherchainstotalsupply",
      "outputs": [
        {
          "name": "",
          "type": "uint256"
        }
      ],
      "payable": false,
      "stateMutability": "view",
      "type": "function"
    },
    {
      "constant": true,
      "inputs": [],
      "name": "decimals",
      "outputs": [
        {
          "name": "",
          "type": "uint8"
        }
      ],
      "payable": false,
      "stateMutability": "view",
      "type": "function"
    },
    {
      "constant": true,
      "inputs": [],
      "name": "supplylimitset",
      "outputs": [
        {
          "name": "",
          "type": "bool"
        }
      ],
      "payable": false,
      "stateMutability": "view",
      "type": "function"
    },
    {
      "constant": true,
      "inputs": [],
      "name": "migrationMaster",
      "outputs": [
        {
          "name": "",
          "type": "address"
        }
      ],
      "payable": false,
      "stateMutability": "view",
      "type": "function"
    },
    {
      "constant": true,
      "inputs": [],
      "name": "migrationAgent",
      "outputs": [
        {
          "name": "",
          "type": "address"
        }
      ],
      "payable": false,
      "stateMutability": "view",
      "type": "function"
    },
    {
      "constant": true,
      "inputs": [],
      "name": "Chain4",
      "outputs": [
        {
          "name": "",
          "type": "address"
        }
      ],
      "payable": false,
      "stateMutability": "view",
      "type": "function"
    },
    {
      "constant": true,
      "inputs": [],
      "name": "owner",
      "outputs": [
        {
          "name": "",
          "type": "address"
        }
      ],
      "payable": false,
      "stateMutability": "view",
      "type": "function"
    },
    {
      "constant": true,
      "inputs": [],
      "name": "Chain2",
      "outputs": [
        {
          "name": "",
          "type": "address"
        }
      ],
      "payable": false,
      "stateMutability": "view",
      "type": "function"
    },
    {
      "constant": true,
      "inputs": [],
      "name": "fundingEndBlock",
      "outputs": [
        {
          "name": "",
          "type": "uint256"
        }
      ],
      "payable": false,
      "stateMutability": "view",
      "type": "function"
    },
    {
      "constant": true,
      "inputs": [],
      "name": "totalMigrated",
      "outputs": [
        {
          "name": "",
          "type": "uint256"
        }
      ],
      "payable": false,
      "stateMutability": "view",
      "type": "function"
    },
    {
      "constant": true,
      "inputs": [],
      "name": "symbol",
      "outputs": [
        {
          "name": "",
          "type": "string"
        }
      ],
      "payable": false,
      "stateMutability": "view",
      "type": "function"
    },
    {
      "constant": true,
      "inputs": [],
      "name": "bonusCreationRate",
      "outputs": [
        {
          "name": "",
          "type": "uint256"
        }
      ],
      "payable": false,
      "stateMutability": "view",
      "type": "function"
    },
    {
      "constant": true,
      "inputs": [],
      "name": "oneweek",
      "outputs": [
        {
          "name": "",
          "type": "uint256"
        }
      ],
      "payable": false,
      "stateMutability": "view",
      "type": "function"
    },
    {
      "constant": true,
      "inputs": [],
      "name": "funding",
      "outputs": [
        {
          "name": "",
          "type": "bool"
        }
      ],
      "payable": false,
      "stateMutability": "view",
      "type": "function"
    },
    {
      "constant": true,
      "inputs": [],
      "name": "tokenCreationRate",
      "outputs": [
        {
          "name": "",
          "type": "uint256"
        }
      ],
      "payable": false,
      "stateMutability": "view",
      "type": "function"
    },
    {
      "constant": true,
      "inputs": [],
      "name": "refundstate",
      "outputs": [
        {
          "name": "",
          "type": "bool"
        }
      ],
      "payable": false,
      "stateMutability": "view",
      "type": "function"
    },
    {
      "constant": true,
      "inputs": [],
      "name": "supplylimit",
      "outputs": [
        {
          "name": "",
          "type": "uint256"
        }
      ],
      "payable": false,
      "stateMutability": "view",
      "type": "function"
    },
    {
      "constant": true,
      "inputs": [],
      "name": "migratestate",
      "outputs": [
        {
          "name": "",
          "type": "bool"
        }
      ],
      "payable": false,
      "stateMutability": "view",
      "type": "function"
    },
    {
      "constant": true,
      "inputs": [],
      "name": "Chain1",
      "outputs": [
        {
          "name": "",
          "type": "address"
        }
      ],
      "payable": false,
      "stateMutability": "view",
      "type": "function"
    },
    {
      "inputs": [],
      "payable": false,
      "stateMutability": "nonpayable",
      "type": "constructor"
    },
    {
      "payable": true,
      "stateMutability": "payable",
      "type": "fallback"
    },
    {
      "anonymous": false,
      "inputs": [
        {
          "indexed": true,
          "name": "_from",
          "type": "address"
        },
        {
          "indexed": true,
          "name": "_to",
          "type": "address"
        },
        {
          "indexed": false,
          "name": "_value",
          "type": "uint256"
        }
      ],
      "name": "Migrate",
      "type": "event"
    },
    {
      "anonymous": false,
      "inputs": [
        {
          "indexed": true,
          "name": "_from",
          "type": "address"
        },
        {
          "indexed": false,
          "name": "_value",
          "type": "uint256"
        }
      ],
      "name": "Refund",
      "type": "event"
    },
    {
      "anonymous": false,
      "inputs": [
        {
          "indexed": false,
          "name": "newName",
          "type": "string"
        },
        {
          "indexed": false,
          "name": "newSymbol",
          "type": "string"
        }
      ],
      "name": "UpdatedTokenInformation",
      "type": "event"
    },
    {
      "anonymous": false,
      "inputs": [
        {
          "indexed": true,
          "name": "_from",
          "type": "address"
        },
        {
          "indexed": true,
          "name": "_to",
          "type": "address"
        },
        {
          "indexed": false,
          "name": "_value",
          "type": "uint256"
        }
      ],
      "name": "Transfer",
      "type": "event"
    },
    {
      "anonymous": false,
      "inputs": [
        {
          "indexed": true,
          "name": "_from",
          "type": "address"
        },
        {
          "indexed": false,
          "name": "_value",
          "type": "uint256"
        }
      ],
      "name": "receivedEther",
      "type": "event"
    },
    {
      "anonymous": false,
      "inputs": [
        {
          "indexed": true,
          "name": "_owner",
          "type": "address"
        },
        {
          "indexed": true,
          "name": "_spender",
          "type": "address"
        },
        {
          "indexed": false,
          "name": "_value",
          "type": "uint256"
        }
      ],
      "name": "Approval",
      "type": "event"
    },
    {
      "anonymous": false,
      "inputs": [
        {
          "indexed": true,
          "name": "from",
          "type": "address"
        },
        {
          "indexed": false,
          "name": "value",
          "type": "uint256"
        }
      ],
      "name": "Burn",
      "type": "event"
    },
    {
      "constant": false,
      "inputs": [
        {
          "name": "supplyLOCKER",
          "type": "uint256"
        }
      ],
      "name": "setSupply",
      "outputs": [],
      "payable": false,
      "stateMutability": "nonpayable",
      "type": "function"
    },
    {
      "constant": false,
      "inputs": [
        {
          "name": "supplyLOCKER",
          "type": "uint256"
        }
      ],
      "name": "setotherchainstotalsupply",
      "outputs": [],
      "payable": false,
      "stateMutability": "nonpayable",
      "type": "function"
    },
    {
      "constant": false,
      "inputs": [
        {
          "name": "_spender",
          "type": "address"
        },
        {
          "name": "_value",
          "type": "uint256"
        },
        {
          "name": "_extraData",
          "type": "bytes"
        }
      ],
      "name": "approveAndCall",
      "outputs": [
        {
          "name": "success",
          "type": "bool"
        }
      ],
      "payable": false,
      "stateMutability": "nonpayable",
      "type": "function"
    },
    {
      "constant": false,
      "inputs": [
        {
          "name": "_value",
          "type": "uint256"
        }
      ],
      "name": "burn",
      "outputs": [
        {
          "name": "success",
          "type": "bool"
        }
      ],
      "payable": false,
      "stateMutability": "nonpayable",
      "type": "function"
    },
    {
      "constant": false,
      "inputs": [
        {
          "name": "_from",
          "type": "address"
        },
        {
          "name": "_value",
          "type": "uint256"
        }
      ],
      "name": "burnFrom",
      "outputs": [
        {
          "name": "success",
          "type": "bool"
        }
      ],
      "payable": false,
      "stateMutability": "nonpayable",
      "type": "function"
    },
    {
      "constant": false,
      "inputs": [
        {
          "name": "_to",
          "type": "address"
        },
        {
          "name": "_value",
          "type": "uint256"
        }
      ],
      "name": "transfer",
      "outputs": [
        {
          "name": "success",
          "type": "bool"
        }
      ],
      "payable": false,
      "stateMutability": "nonpayable",
      "type": "function"
    },
    {
      "constant": false,
      "inputs": [
        {
          "name": "_from",
          "type": "address"
        },
        {
          "name": "_to",
          "type": "address"
        },
        {
          "name": "_value",
          "type": "uint256"
        }
      ],
      "name": "transferFrom",
      "outputs": [
        {
          "name": "success",
          "type": "bool"
        }
      ],
      "payable": false,
      "stateMutability": "nonpayable",
      "type": "function"
    },
    {
      "constant": true,
      "inputs": [
        {
          "name": "_owner",
          "type": "address"
        }
      ],
      "name": "balanceOf",
      "outputs": [
        {
          "name": "balance",
          "type": "uint256"
        }
      ],
      "payable": false,
      "stateMutability": "view",
      "type": "function"
    },
    {
      "constant": false,
      "inputs": [
        {
          "name": "_spender",
          "type": "address"
        },
        {
          "name": "_value",
          "type": "uint256"
        }
      ],
      "name": "approve",
      "outputs": [
        {
          "name": "success",
          "type": "bool"
        }
      ],
      "payable": false,
      "stateMutability": "nonpayable",
      "type": "function"
    },
    {
      "constant": true,
      "inputs": [
        {
          "name": "_owner",
          "type": "address"
        },
        {
          "name": "_spender",
          "type": "address"
        }
      ],
      "name": "allowance",
      "outputs": [
        {
          "name": "remaining",
          "type": "uint256"
        }
      ],
      "payable": false,
      "stateMutability": "view",
      "type": "function"
    },
    {
      "constant": false,
      "inputs": [
        {
          "name": "_name",
          "type": "string"
        },
        {
          "name": "_symbol",
          "type": "string"
        }
      ],
      "name": "setTokenInformation",
      "outputs": [],
      "payable": false,
      "stateMutability": "nonpayable",
      "type": "function"
    },
    {
      "constant": false,
      "inputs": [
        {
          "name": "chainAd",
          "type": "address"
        },
        {
          "name": "chainnumber",
          "type": "int256"
        }
      ],
      "name": "setChainsAddresses",
      "outputs": [],
      "payable": false,
      "stateMutability": "nonpayable",
      "type": "function"
    },
    {
      "constant": false,
      "inputs": [],
      "name": "DAOPolskaTokenICOregulations",
      "outputs": [
        {
          "name": "wow",
          "type": "string"
        }
      ],
      "payable": false,
      "stateMutability": "nonpayable",
      "type": "function"
    },
    {
      "constant": false,
      "inputs": [
        {
          "name": "StandardTokenAddress",
          "type": "address"
        },
        {
          "name": "receiver",
          "type": "address"
        },
        {
          "name": "amount",
          "type": "uint256"
        }
      ],
      "name": "sendTokenAw",
      "outputs": [],
      "payable": false,
      "stateMutability": "nonpayable",
      "type": "function"
    },
    {
      "constant": false,
      "inputs": [
        {
          "name": "holder",
          "type": "address"
        }
      ],
      "name": "createDaoPOLSKAtokens",
      "outputs": [],
      "payable": true,
      "stateMutability": "payable",
      "type": "function"
    },
    {
      "constant": false,
      "inputs": [
        {
          "name": "newRate",
          "type": "uint256"
        }
      ],
      "name": "setBonusCreationRate",
      "outputs": [],
      "payable": false,
      "stateMutability": "nonpayable",
      "type": "function"
    },
    {
      "constant": false,
      "inputs": [],
      "name": "FundsTransfer",
      "outputs": [],
      "payable": false,
      "stateMutability": "nonpayable",
      "type": "function"
    },
    {
      "constant": false,
      "inputs": [
        {
          "name": "SubX",
          "type": "uint256"
        }
      ],
      "name": "PartialFundsTransfer",
      "outputs": [],
      "payable": false,
      "stateMutability": "nonpayable",
      "type": "function"
    },
    {
      "constant": false,
      "inputs": [],
      "name": "turnrefund",
      "outputs": [],
      "payable": false,
      "stateMutability": "nonpayable",
      "type": "function"
    },
    {
      "constant": false,
      "inputs": [],
      "name": "fundingState",
      "outputs": [],
      "payable": false,
      "stateMutability": "nonpayable",
      "type": "function"
    },
    {
      "constant": false,
      "inputs": [],
      "name": "turnmigrate",
      "outputs": [],
      "payable": false,
      "stateMutability": "nonpayable",
      "type": "function"
    },
    {
      "constant": false,
      "inputs": [],
      "name": "finalize",
      "outputs": [],
      "payable": false,
      "stateMutability": "nonpayable",
      "type": "function"
    },
    {
      "constant": false,
      "inputs": [
        {
          "name": "_value",
          "type": "uint256"
        }
      ],
      "name": "migrate",
      "outputs": [],
      "payable": false,
      "stateMutability": "nonpayable",
      "type": "function"
    },
    {
      "constant": false,
      "inputs": [],
      "name": "refundTRA",
      "outputs": [],
      "payable": false,
      "stateMutability": "nonpayable",
      "type": "function"
    },
    {
      "constant": false,
      "inputs": [],
      "name": "preICOregulations",
      "outputs": [
        {
          "name": "wow",
          "type": "string"
        }
      ],
      "payable": false,
      "stateMutability": "nonpayable",
      "type": "function"
    }
  ],
  "bytecode": "0x60806040526040805190810160405280601a81526020017f44414f20504f4c534b4120544f4b454e2076657273696f6e2031000000000000815250600090805190602001906200005192919062000357565b506040805190810160405280600381526020017f44504c0000000000000000000000000000000000000000000000000000000000815250600190805190602001906200009f92919062000357565b50670de0b6b3a764000060045569021e19e0c9bab240000060055560006006556000600760006101000a81548173ffffffffffffffffffffffffffffffffffffffff021916908373ffffffffffffffffffffffffffffffffffffffff1602179055506000600860006101000a81548173ffffffffffffffffffffffffffffffffffffffff021916908373ffffffffffffffffffffffffffffffffffffffff1602179055506000600960006101000a81548173ffffffffffffffffffffffffffffffffffffffff021916908373ffffffffffffffffffffffffffffffffffffffff1602179055506000600a60006101000a81548173ffffffffffffffffffffffffffffffffffffffff021916908373ffffffffffffffffffffffffffffffffffffffff160217905550738585d5a25b1fa2a0e6c3bcfc098195bac9789be2600b60006101000a81548173ffffffffffffffffffffffffffffffffffffffff021916908373ffffffffffffffffffffffffffffffffffffffff1602179055506000600e556000601260006101000a81548160ff0219169083151502179055506000601260016101000a81548160ff0219169083151502179055506103e86013556103e86014556106e16015556252e9106016556001601760006101000a81548160ff0219169083151502179055506000601760016101000a81548160ff0219169083151502179055506000601760026101000a81548160ff021916908315150217905550348015620002ce57600080fd5b5033600260006101000a81548173ffffffffffffffffffffffffffffffffffffffff021916908373ffffffffffffffffffffffffffffffffffffffff16021790555033600360006101000a81548173ffffffffffffffffffffffffffffffffffffffff021916908373ffffffffffffffffffffffffffffffffffffffff16021790555062000406565b828054600181600116156101000203166002900490600052602060002090601f016020900481019282601f106200039a57805160ff1916838001178555620003cb565b82800160010185558215620003cb579182015b82811115620003ca578251825591602001919060010190620003ad565b5b509050620003da9190620003de565b5090565b6200040391905b80821115620003ff576000816000905550600101620003e5565b5090565b90565b61344f80620004166000396000f300608060405260043610610251576000357c0100000000000000000000000000000000000000000000000000000000900463ffffffff16806306fdde0314610345578063095ea7b3146103d55780630a49646b1461043a578063131be36c1461046557806318160ddd146104f55780631a1773f4146105205780631b44f4491461054f57806323b872dd146105a657806326f08aec1461062b5780632d47c29e14610658578063313ce56714610683578063327efb0c146106b45780633b4c4b25146106e357806341d003cb1461071057806342966c681461073d57806342af24781461078257806342bb5709146107af578063454b0608146107c65780634bb278f3146107f35780634eee966f1461080a5780635d5c606f146108b9578063676d2e62146109495780636d57dee4146109a05780636f766f2014610a0d57806370a0823114610a2457806379cc679014610a7b5780638328dbcd14610ae05780638842bfa014610b375780638da5cb5b14610b8e5780638e49a2c214610be557806391a7aa3714610bfc57806391b43d1314610c5357806395a0f5eb14610c7e57806395d89b4114610ca9578063a4f5b8c114610d39578063a9059cbb14610d64578063b25cdccf14610dc9578063bf5c844b14610de0578063c0a1e52514610e0b578063cae9ca5114610e41578063caecc5aa14610eec578063cb4c86b714610f03578063cf8d652c14610f32578063dcabf93f14610f5d578063dd62ed3e14610f8c578063e4eba2ef14611003578063ea16cee51461102e578063fbf7980f1461105d578063fd4faee0146110aa575b601760009054906101000a900460ff161561033e573373ffffffffffffffffffffffffffffffffffffffff167fa398b89ba344a0b23a0b9de53db298b2a1a868b396c1878b7e9dcbafecd49b13346040518082815260200191505060405180910390a234600f60003373ffffffffffffffffffffffffffffffffffffffff1673ffffffffffffffffffffffffffffffffffffffff1681526020019081526020016000205401600f60003373ffffffffffffffffffffffffffffffffffffffff1673ffffffffffffffffffffffffffffffffffffffff16815260200190815260200160002081905550610343565b600080fd5b005b34801561035157600080fd5b5061035a611101565b6040518080602001828103825283818151815260200191508051906020019080838360005b8381101561039a57808201518184015260208101905061037f565b50505050905090810190601f1680156103c75780820380516001836020036101000a031916815260200191505b509250505060405180910390f35b3480156103e157600080fd5b50610420600480360381019080803573ffffffffffffffffffffffffffffffffffffffff1690602001909291908035906020019092919050505061119f565b604051808215151515815260200191505060405180910390f35b34801561044657600080fd5b5061044f611291565b6040518082815260200191505060405180910390f35b34801561047157600080fd5b5061047a611297565b6040518080602001828103825283818151815260200191508051906020019080838360005b838110156104ba57808201518184015260208101905061049f565b50505050905090810190601f1680156104e75780820380516001836020036101000a031916815260200191505b509250505060405180910390f35b34801561050157600080fd5b5061050a6112b8565b6040518082815260200191505060405180910390f35b34801561052c57600080fd5b506105356112be565b604051808215151515815260200191505060405180910390f35b34801561055b57600080fd5b506105646112d1565b604051808273ffffffffffffffffffffffffffffffffffffffff1673ffffffffffffffffffffffffffffffffffffffff16815260200191505060405180910390f35b3480156105b257600080fd5b50610611600480360381019080803573ffffffffffffffffffffffffffffffffffffffff169060200190929190803573ffffffffffffffffffffffffffffffffffffffff169060200190929190803590602001909291905050506112f7565b604051808215151515815260200191505060405180910390f35b34801561063757600080fd5b50610656600480360381019080803590602001909291905050506115f2565b005b34801561066457600080fd5b5061066d6116a2565b6040518082815260200191505060405180910390f35b34801561068f57600080fd5b506106986116a8565b604051808260ff1660ff16815260200191505060405180910390f35b3480156106c057600080fd5b506106c96116ad565b604051808215151515815260200191505060405180910390f35b3480156106ef57600080fd5b5061070e600480360381019080803590602001909291905050506116c0565b005b34801561071c57600080fd5b5061073b60048036038101908080359060200190929190505050611770565b005b34801561074957600080fd5b50610768600480360381019080803590602001909291905050506117e5565b604051808215151515815260200191505060405180910390f35b34801561078e57600080fd5b506107ad600480360381019080803590602001909291905050506118e9565b005b3480156107bb57600080fd5b506107c46119c9565b005b3480156107d257600080fd5b506107f160048036038101908080359060200190929190505050611a65565b005b3480156107ff57600080fd5b50610808611cad565b005b34801561081657600080fd5b506108b7600480360381019080803590602001908201803590602001908080601f0160208091040260200160405190810160405280939291908181526020018383808284378201915050505050509192919290803590602001908201803590602001908080601f0160208091040260200160405190810160405280939291908181526020018383808284378201915050505050509192919290505050611def565b005b3480156108c557600080fd5b506108ce611fc2565b6040518080602001828103825283818151815260200191508051906020019080838360005b8381101561090e5780820151818401526020810190506108f3565b50505050905090810190601f16801561093b5780820380516001836020036101000a031916815260200191505b509250505060405180910390f35b34801561095557600080fd5b5061095e611fe3565b604051808273ffffffffffffffffffffffffffffffffffffffff1673ffffffffffffffffffffffffffffffffffffffff16815260200191505060405180910390f35b3480156109ac57600080fd5b50610a0b600480360381019080803573ffffffffffffffffffffffffffffffffffffffff169060200190929190803573ffffffffffffffffffffffffffffffffffffffff16906020019092919080359060200190929190505050612009565b005b348015610a1957600080fd5b50610a22612238565b005b348015610a3057600080fd5b50610a65600480360381019080803573ffffffffffffffffffffffffffffffffffffffff1690602001909291905050506123f0565b6040518082815260200191505060405180910390f35b348015610a8757600080fd5b50610ac6600480360381019080803573ffffffffffffffffffffffffffffffffffffffff16906020019092919080359060200190929190505050612439565b604051808215151515815260200191505060405180910390f35b348015610aec57600080fd5b50610af5612653565b604051808273ffffffffffffffffffffffffffffffffffffffff1673ffffffffffffffffffffffffffffffffffffffff16815260200191505060405180910390f35b348015610b4357600080fd5b50610b4c612679565b604051808273ffffffffffffffffffffffffffffffffffffffff1673ffffffffffffffffffffffffffffffffffffffff16815260200191505060405180910390f35b348015610b9a57600080fd5b50610ba361269f565b604051808273ffffffffffffffffffffffffffffffffffffffff1673ffffffffffffffffffffffffffffffffffffffff16815260200191505060405180910390f35b348015610bf157600080fd5b50610bfa6126c5565b005b348015610c0857600080fd5b50610c1161274d565b604051808273ffffffffffffffffffffffffffffffffffffffff1673ffffffffffffffffffffffffffffffffffffffff16815260200191505060405180910390f35b348015610c5f57600080fd5b50610c68612773565b6040518082815260200191505060405180910390f35b348015610c8a57600080fd5b50610c93612779565b6040518082815260200191505060405180910390f35b348015610cb557600080fd5b50610cbe61277f565b6040518080602001828103825283818151815260200191508051906020019080838360005b83811015610cfe578082015181840152602081019050610ce3565b50505050905090810190601f168015610d2b5780820380516001836020036101000a031916815260200191505b509250505060405180910390f35b348015610d4557600080fd5b50610d4e61281d565b6040518082815260200191505060405180910390f35b348015610d7057600080fd5b50610daf600480360381019080803573ffffffffffffffffffffffffffffffffffffffff16906020019092919080359060200190929190505050612823565b604051808215151515815260200191505060405180910390f35b348015610dd557600080fd5b50610dde612a0b565b005b348015610dec57600080fd5b50610df5612a93565b6040518082815260200191505060405180910390f35b610e3f600480360381019080803573ffffffffffffffffffffffffffffffffffffffff169060200190929190505050612a99565b005b348015610e4d57600080fd5b50610ed2600480360381019080803573ffffffffffffffffffffffffffffffffffffffff16906020019092919080359060200190929190803590602001908201803590602001908080601f0160208091040260200160405190810160405280939291908181526020018383808284378201915050505050509192919290505050612cf9565b604051808215151515815260200191505060405180910390f35b348015610ef857600080fd5b50610f01612e7c565b005b348015610f0f57600080fd5b50610f18612f04565b604051808215151515815260200191505060405180910390f35b348015610f3e57600080fd5b50610f47612f17565b6040518082815260200191505060405180910390f35b348015610f6957600080fd5b50610f72612f1d565b604051808215151515815260200191505060405180910390f35b348015610f9857600080fd5b50610fed600480360381019080803573ffffffffffffffffffffffffffffffffffffffff169060200190929190803573ffffffffffffffffffffffffffffffffffffffff169060200190929190505050612f30565b6040518082815260200191505060405180910390f35b34801561100f57600080fd5b50611018612fb7565b6040518082815260200191505060405180910390f35b34801561103a57600080fd5b50611043612fbd565b604051808215151515815260200191505060405180910390f35b34801561106957600080fd5b506110a8600480360381019080803573ffffffffffffffffffffffffffffffffffffffff16906020019092919080359060200190929190505050612fd0565b005b3480156110b657600080fd5b506110bf61315c565b604051808273ffffffffffffffffffffffffffffffffffffffff1673ffffffffffffffffffffffffffffffffffffffff16815260200191505060405180910390f35b60008054600181600116156101000203166002900480601f0160208091040260200160405190810160405280929190818152602001828054600181600116156101000203166002900480156111975780601f1061116c57610100808354040283529160200191611197565b820191906000526020600020905b81548152906001019060200180831161117a57829003601f168201915b505050505081565b600081601160003373ffffffffffffffffffffffffffffffffffffffff1673ffffffffffffffffffffffffffffffffffffffff16815260200190815260200160002060008573ffffffffffffffffffffffffffffffffffffffff1673ffffffffffffffffffffffffffffffffffffffff168152602001908152602001600020819055508273ffffffffffffffffffffffffffffffffffffffff163373ffffffffffffffffffffffffffffffffffffffff167f8c5be1e5ebec7d5bd14f71427d1e84f3dd0314c0f7b2291e5b200ac8c7c3b925846040518082815260200191505060405180910390a36001905092915050565b60155481565b606060c060405190810160405280609181526020016132de60919139905090565b60065481565b601260019054906101000a900460ff1681565b600960009054906101000a900473ffffffffffffffffffffffffffffffffffffffff1681565b600081600f60008673ffffffffffffffffffffffffffffffffffffffff1673ffffffffffffffffffffffffffffffffffffffff16815260200190815260200160002054101580156113c4575081601160008673ffffffffffffffffffffffffffffffffffffffff1673ffffffffffffffffffffffffffffffffffffffff16815260200190815260200160002060003373ffffffffffffffffffffffffffffffffffffffff1673ffffffffffffffffffffffffffffffffffffffff1681526020019081526020016000205410155b801561144f5750600f60008473ffffffffffffffffffffffffffffffffffffffff1673ffffffffffffffffffffffffffffffffffffffff1681526020019081526020016000205482600f60008673ffffffffffffffffffffffffffffffffffffffff1673ffffffffffffffffffffffffffffffffffffffff1681526020019081526020016000205401115b156115e65781600f60008573ffffffffffffffffffffffffffffffffffffffff1673ffffffffffffffffffffffffffffffffffffffff1681526020019081526020016000206000828254019250508190555081600f60008673ffffffffffffffffffffffffffffffffffffffff1673ffffffffffffffffffffffffffffffffffffffff1681526020019081526020016000206000828254039250508190555081601160008673ffffffffffffffffffffffffffffffffffffffff1673ffffffffffffffffffffffffffffffffffffffff16815260200190815260200160002060003373ffffffffffffffffffffffffffffffffffffffff1673ffffffffffffffffffffffffffffffffffffffff168152602001908152602001600020600082825403925050819055508273ffffffffffffffffffffffffffffffffffffffff168473ffffffffffffffffffffffffffffffffffffffff167fddf252ad1be2c89b69c2b068fc378daa952ba7f163c4a11628f55a4df523b3ef846040518082815260200191505060405180910390a3600190506115eb565b600090505b9392505050565b600260009054906101000a900473ffffffffffffffffffffffffffffffffffffffff1673ffffffffffffffffffffffffffffffffffffffff163373ffffffffffffffffffffffffffffffffffffffff1614151561164e57600080fd5b60001515601260009054906101000a900460ff16151514151561167057600080fd5b6001601260016101000a81548160ff02191690831515021790555061169981601260ff16613182565b60048190555050565b60045481565b601281565b601260009054906101000a900460ff1681565b600260009054906101000a900473ffffffffffffffffffffffffffffffffffffffff1673ffffffffffffffffffffffffffffffffffffffff163373ffffffffffffffffffffffffffffffffffffffff1614151561171c57600080fd5b60001515601260009054906101000a900460ff16151514151561173e57600080fd5b6001601260006101000a81548160ff02191690831515021790555061176781601260ff16613182565b60058190555050565b600260009054906101000a900473ffffffffffffffffffffffffffffffffffffffff1673ffffffffffffffffffffffffffffffffffffffff163373ffffffffffffffffffffffffffffffffffffffff1614156117e257806014819055506117db6013546014546131c1565b6015819055505b50565b600081600f60003373ffffffffffffffffffffffffffffffffffffffff1673ffffffffffffffffffffffffffffffffffffffff168152602001908152602001600020541015151561183557600080fd5b81600f60003373ffffffffffffffffffffffffffffffffffffffff1673ffffffffffffffffffffffffffffffffffffffff16815260200190815260200160002060008282540392505081905550816006600082825403925050819055503373ffffffffffffffffffffffffffffffffffffffff167fcc16f5dbb4873280815c1ee09dbd06736cffcc184412cf7a71a0fdb75d397ca5836040518082815260200191505060405180910390a260019050919050565b6000600260009054906101000a900473ffffffffffffffffffffffffffffffffffffffff1673ffffffffffffffffffffffffffffffffffffffff163373ffffffffffffffffffffffffffffffffffffffff1614151561194757600080fd5b600260009054906101000a900473ffffffffffffffffffffffffffffffffffffffff1673ffffffffffffffffffffffffffffffffffffffff166108fc833073ffffffffffffffffffffffffffffffffffffffff1631039081150290604051600060405180830381858888f1935050505090508015156119c557600080fd5b5050565b60011515601760009054906101000a900460ff16151514156119ea57600080fd5b600260009054906101000a900473ffffffffffffffffffffffffffffffffffffffff1673ffffffffffffffffffffffffffffffffffffffff166108fc3073ffffffffffffffffffffffffffffffffffffffff16319081150290604051600060405180830381858888f193505050501515611a6357600080fd5b565b601760029054906101000a900460ff1615611a7f57600080fd5b6000811415611a8d57600080fd5b600f60003373ffffffffffffffffffffffffffffffffffffffff1673ffffffffffffffffffffffffffffffffffffffff16815260200190815260200160002054811115611ad957600080fd5b80600f60003373ffffffffffffffffffffffffffffffffffffffff1673ffffffffffffffffffffffffffffffffffffffff168152602001908152602001600020600082825403925050819055508060066000828254039250508190555080600c60008282540192505081905550600b60009054906101000a900473ffffffffffffffffffffffffffffffffffffffff1673ffffffffffffffffffffffffffffffffffffffff16637a3130e333836040518363ffffffff167c0100000000000000000000000000000000000000000000000000000000028152600401808373ffffffffffffffffffffffffffffffffffffffff1673ffffffffffffffffffffffffffffffffffffffff16815260200182815260200192505050600060405180830381600087803b158015611c0b57600080fd5b505af1158015611c1f573d6000803e3d6000fd5b50505050600b60009054906101000a900473ffffffffffffffffffffffffffffffffffffffff1673ffffffffffffffffffffffffffffffffffffffff163373ffffffffffffffffffffffffffffffffffffffff167f18df02dcc52b9c494f391df09661519c0069bd8540141946280399408205ca1a836040518082815260200191505060405180910390a350565b6000611cc7601654611cc26008618ca06131df565b61321a565b43111515611cd457600080fd5b6000601760006101000a81548160ff021916908315150217905550601760019054906101000a900460ff1615601760016101000a81548160ff021916908315150217905550600260009054906101000a900473ffffffffffffffffffffffffffffffffffffffff1673ffffffffffffffffffffffffffffffffffffffff163373ffffffffffffffffffffffffffffffffffffffff161415611dec57600260009054906101000a900473ffffffffffffffffffffffffffffffffffffffff1673ffffffffffffffffffffffffffffffffffffffff166108fc3073ffffffffffffffffffffffffffffffffffffffff16319081150290604051600060405180830381858888f193505050509050801515611deb57600080fd5b5b50565b600260009054906101000a900473ffffffffffffffffffffffffffffffffffffffff1673ffffffffffffffffffffffffffffffffffffffff163373ffffffffffffffffffffffffffffffffffffffff16141515611e4b57600080fd5b8160009080519060200190611e61929190613238565b508060019080519060200190611e78929190613238565b507fd131ab1e6f279deea74e13a18477e13e2107deb6dc8ae955648948be5841fb4660006001604051808060200180602001838103835285818154600181600116156101000203166002900481526020019150805460018160011615610100020316600290048015611f2b5780601f10611f0057610100808354040283529160200191611f2b565b820191906000526020600020905b815481529060010190602001808311611f0e57829003601f168201915b5050838103825284818154600181600116156101000203166002900481526020019150805460018160011615610100020316600290048015611fae5780601f10611f8357610100808354040283529160200191611fae565b820191906000526020600020905b815481529060010190602001808311611f9157829003601f168201915b505094505050505060405180910390a15050565b606060e06040519081016040528060b5815260200161336f60b59139905090565b600360009054906101000a900473ffffffffffffffffffffffffffffffffffffffff1681565b600080600260009054906101000a900473ffffffffffffffffffffffffffffffffffffffff1673ffffffffffffffffffffffffffffffffffffffff163373ffffffffffffffffffffffffffffffffffffffff1614151561206857600080fd5b600d6000600e5481526020019081526020016000209150848260000160006101000a81548173ffffffffffffffffffffffffffffffffffffffff021916908373ffffffffffffffffffffffffffffffffffffffff160217905550828260010181905550838260020160006101000a81548173ffffffffffffffffffffffffffffffffffffffff021916908373ffffffffffffffffffffffffffffffffffffffff1602179055508160000160009054906101000a900473ffffffffffffffffffffffffffffffffffffffff1673ffffffffffffffffffffffffffffffffffffffff1663a9059cbb85856040518363ffffffff167c0100000000000000000000000000000000000000000000000000000000028152600401808373ffffffffffffffffffffffffffffffffffffffff1673ffffffffffffffffffffffffffffffffffffffff16815260200182815260200192505050602060405180830381600087803b1580156121d557600080fd5b505af11580156121e9573d6000803e3d6000fd5b505050506040513d60208110156121ff57600080fd5b8101908080519060200190929190505050905080151561221e57600080fd5b61222b600e5460016131c1565b600e819055505050505050565b600080601760009054906101000a900460ff161561225557600080fd5b601760019054906101000a900460ff16151561227057600080fd5b600f60003373ffffffffffffffffffffffffffffffffffffffff1673ffffffffffffffffffffffffffffffffffffffff168152602001908152602001600020549150601060003373ffffffffffffffffffffffffffffffffffffffff1673ffffffffffffffffffffffffffffffffffffffff168152602001908152602001600020549050600081141561230257600080fd5b6000601060003373ffffffffffffffffffffffffffffffffffffffff1673ffffffffffffffffffffffffffffffffffffffff16815260200190815260200160002081905550816006600082825403925050819055503373ffffffffffffffffffffffffffffffffffffffff167fbb28353e4598c3b9199101a66e0989549b659a59a54d2c27fbb183f1932c8e6d826040518082815260200191505060405180910390a23373ffffffffffffffffffffffffffffffffffffffff166108fc829081150290604051600060405180830381858888f193505050501580156123eb573d6000803e3d6000fd5b505050565b6000600f60008373ffffffffffffffffffffffffffffffffffffffff1673ffffffffffffffffffffffffffffffffffffffff168152602001908152602001600020549050919050565b600081600f60008573ffffffffffffffffffffffffffffffffffffffff1673ffffffffffffffffffffffffffffffffffffffff168152602001908152602001600020541015151561248957600080fd5b601160008473ffffffffffffffffffffffffffffffffffffffff1673ffffffffffffffffffffffffffffffffffffffff16815260200190815260200160002060003373ffffffffffffffffffffffffffffffffffffffff1673ffffffffffffffffffffffffffffffffffffffff16815260200190815260200160002054821115151561251457600080fd5b81600f60008573ffffffffffffffffffffffffffffffffffffffff1673ffffffffffffffffffffffffffffffffffffffff1681526020019081526020016000206000828254039250508190555081601160008573ffffffffffffffffffffffffffffffffffffffff1673ffffffffffffffffffffffffffffffffffffffff16815260200190815260200160002060003373ffffffffffffffffffffffffffffffffffffffff1673ffffffffffffffffffffffffffffffffffffffff16815260200190815260200160002060008282540392505081905550816006600082825403925050819055508273ffffffffffffffffffffffffffffffffffffffff167fcc16f5dbb4873280815c1ee09dbd06736cffcc184412cf7a71a0fdb75d397ca5836040518082815260200191505060405180910390a26001905092915050565b600b60009054906101000a900473ffffffffffffffffffffffffffffffffffffffff1681565b600a60009054906101000a900473ffffffffffffffffffffffffffffffffffffffff1681565b600260009054906101000a900473ffffffffffffffffffffffffffffffffffffffff1681565b600360009054906101000a900473ffffffffffffffffffffffffffffffffffffffff1673ffffffffffffffffffffffffffffffffffffffff163373ffffffffffffffffffffffffffffffffffffffff1614151561272157600080fd5b601760029054906101000a900460ff1615601760026101000a81548160ff021916908315150217905550565b600860009054906101000a900473ffffffffffffffffffffffffffffffffffffffff1681565b60165481565b600c5481565b60018054600181600116156101000203166002900480601f0160208091040260200160405190810160405280929190818152602001828054600181600116156101000203166002900480156128155780601f106127ea57610100808354040283529160200191612815565b820191906000526020600020905b8154815290600101906020018083116127f857829003601f168201915b505050505081565b60145481565b600081600f60003373ffffffffffffffffffffffffffffffffffffffff1673ffffffffffffffffffffffffffffffffffffffff16815260200190815260200160002054101580156128f35750600f60008473ffffffffffffffffffffffffffffffffffffffff1673ffffffffffffffffffffffffffffffffffffffff1681526020019081526020016000205482600f60008673ffffffffffffffffffffffffffffffffffffffff1673ffffffffffffffffffffffffffffffffffffffff1681526020019081526020016000205401115b15612a005781600f60003373ffffffffffffffffffffffffffffffffffffffff1673ffffffffffffffffffffffffffffffffffffffff1681526020019081526020016000206000828254039250508190555081600f60008573ffffffffffffffffffffffffffffffffffffffff1673ffffffffffffffffffffffffffffffffffffffff168152602001908152602001600020600082825401925050819055508273ffffffffffffffffffffffffffffffffffffffff163373ffffffffffffffffffffffffffffffffffffffff167fddf252ad1be2c89b69c2b068fc378daa952ba7f163c4a11628f55a4df523b3ef846040518082815260200191505060405180910390a360019050612a05565b600090505b92915050565b600260009054906101000a900473ffffffffffffffffffffffffffffffffffffffff1673ffffffffffffffffffffffffffffffffffffffff163373ffffffffffffffffffffffffffffffffffffffff16141515612a6757600080fd5b601760009054906101000a900460ff1615601760006101000a81548160ff021916908315150217905550565b618ca081565b600080600080601760009054906101000a900460ff161515612aba57600080fd5b6000341415612ac857600080fd5b60155460065460055403811515612adb57fe5b04341115612ae857600080fd5b349350601554340292508260066000828254019250508190555082600f60008773ffffffffffffffffffffffffffffffffffffffff1673ffffffffffffffffffffffffffffffffffffffff1681526020019081526020016000206000828254019250508190555083601060008773ffffffffffffffffffffffffffffffffffffffff1673ffffffffffffffffffffffffffffffffffffffff168152602001908152602001600020600082825401925050819055508473ffffffffffffffffffffffffffffffffffffffff1660007fddf252ad1be2c89b69c2b068fc378daa952ba7f163c4a11628f55a4df523b3ef856040518082815260200191505060405180910390a3600c91506064828402811515612bfe57fe5b0490508060066000828254019250508190555080600f6000600360009054906101000a900473ffffffffffffffffffffffffffffffffffffffff1673ffffffffffffffffffffffffffffffffffffffff1673ffffffffffffffffffffffffffffffffffffffff16815260200190815260200160002060008282540192505081905550600360009054906101000a900473ffffffffffffffffffffffffffffffffffffffff1673ffffffffffffffffffffffffffffffffffffffff1660007fddf252ad1be2c89b69c2b068fc378daa952ba7f163c4a11628f55a4df523b3ef836040518082815260200191505060405180910390a35050505050565b600080849050612d09858561119f565b15612e73578073ffffffffffffffffffffffffffffffffffffffff16638f4ffcb1338630876040518563ffffffff167c0100000000000000000000000000000000000000000000000000000000028152600401808573ffffffffffffffffffffffffffffffffffffffff1673ffffffffffffffffffffffffffffffffffffffff1681526020018481526020018373ffffffffffffffffffffffffffffffffffffffff1673ffffffffffffffffffffffffffffffffffffffff16815260200180602001828103825283818151815260200191508051906020019080838360005b83811015612e03578082015181840152602081019050612de8565b50505050905090810190601f168015612e305780820380516001836020036101000a031916815260200191505b5095505050505050600060405180830381600087803b158015612e5257600080fd5b505af1158015612e66573d6000803e3d6000fd5b5050505060019150612e74565b5b509392505050565b600260009054906101000a900473ffffffffffffffffffffffffffffffffffffffff1673ffffffffffffffffffffffffffffffffffffffff163373ffffffffffffffffffffffffffffffffffffffff16141515612ed857600080fd5b601760019054906101000a900460ff1615601760016101000a81548160ff021916908315150217905550565b601760009054906101000a900460ff1681565b60135481565b601760019054906101000a900460ff1681565b6000601160008473ffffffffffffffffffffffffffffffffffffffff1673ffffffffffffffffffffffffffffffffffffffff16815260200190815260200160002060008373ffffffffffffffffffffffffffffffffffffffff1673ffffffffffffffffffffffffffffffffffffffff16815260200190815260200160002054905092915050565b60055481565b601760029054906101000a900460ff1681565b600260009054906101000a900473ffffffffffffffffffffffffffffffffffffffff1673ffffffffffffffffffffffffffffffffffffffff163373ffffffffffffffffffffffffffffffffffffffff1614151561302c57600080fd5b60018114156130775781600760006101000a81548173ffffffffffffffffffffffffffffffffffffffff021916908373ffffffffffffffffffffffffffffffffffffffff1602179055505b60028114156130c25781600860006101000a81548173ffffffffffffffffffffffffffffffffffffffff021916908373ffffffffffffffffffffffffffffffffffffffff1602179055505b600381141561310d5781600960006101000a81548173ffffffffffffffffffffffffffffffffffffffff021916908373ffffffffffffffffffffffffffffffffffffffff1602179055505b60048114156131585781600a60006101000a81548173ffffffffffffffffffffffffffffffffffffffff021916908373ffffffffffffffffffffffffffffffffffffffff1602179055505b5050565b600760009054906101000a900473ffffffffffffffffffffffffffffffffffffffff1681565b600080600060019150600090505b838110156131b6576131a282866131df565b91506131af81600161321a565b9050613190565b819250505092915050565b60008082840190508381101515156131d557fe5b8091505092915050565b60008060008414156131f45760009150613213565b828402905082848281151561320557fe5b0414151561320f57fe5b8091505b5092915050565b600080828401905083811015151561322e57fe5b8091505092915050565b828054600181600116156101000203166002900490600052602060002090601f016020900481019282601f1061327957805160ff19168380011785556132a7565b828001600101855582156132a7579182015b828111156132a657825182559160200191906001019061328b565b5b5090506132b491906132b8565b5090565b6132da91905b808211156132d65760008160009055506001016132be565b5090565b905600526567756c6174696f6e73206f662070726549434f206172652070726573656e742061742077656273697465202064616f706f6c736b612e706c20616e64206279207573696e67207468697320736d617274636f6e747261637420796f7520636f6d6d6974207468617420796f752061636365707420616e642077696c6c20666f6c6c6f772074686f73652072756c6573526567756c6174696f6e73206f662070726549434f20616e642049434f206172652070726573656e742061742077656273697465202044414f20506f6c736b6120546f6b656e2e6e6574776f726b20616e64206279207573696e67207468697320736d617274636f6e747261637420616e6420626c6f636b636861696e7320796f7520636f6d6d6974207468617420796f752061636365707420616e642077696c6c20666f6c6c6f772074686f73652072756c6573a165627a7a723058202bc869238b55095537ee87516b7058e054a2b89f1086cd3906972c1ab8d3128b0029",
  "source": "pragma solidity ^0.4.11;\n\ncontract sGuardPlus {\n    constructor() internal {}\n\n    function add_uint256(uint256 a, uint256 b) internal pure returns (uint256) {\n        uint256 c = a + b;\n        assert(c >= a);\n        return c;\n    }\n\n    function mul_uint256(uint256 a, uint256 b) internal pure returns (uint256) {\n        if (a == 0) {\n            return 0;\n        }\n        uint256 c = a * b;\n        assert(c / a == b);\n        return c;\n    }\n\n    function pow_uint256(uint256 a, uint256 b) internal pure returns (uint256) {\n        uint256 c = 1;\n        for (uint256 i = 0; i < b; i = add_uint256(i, 1)) {\n            c = mul_uint256(c, a);\n        }\n        return c;\n    }\n\n    function add_uint(uint256 a, uint256 b) internal pure returns (uint256) {\n        uint256 c = a + b;\n        assert(c >= a);\n        return c;\n    }\n}\n\ninterface tokenRecipient {\n    function receiveApproval(\n        address _from,\n        uint256 _value,\n        address _token,\n        bytes _extraData\n    ) public;\n}\n\ncontract MigrationAgent {\n    function migrateFrom(address _from, uint256 _value);\n}\n\ncontract ERC20 {\n    uint256 public totalSupply;\n\n    function balanceOf(address who) constant returns (uint256);\n\n    function allowance(address owner, address spender)\n        constant\n        returns (uint256);\n\n    function transfer(address to, uint256 value) returns (bool ok);\n\n    function transferFrom(\n        address from,\n        address to,\n        uint256 value\n    ) returns (bool ok);\n\n    function approve(address spender, uint256 value) returns (bool ok);\n\n    event Transfer(address indexed from, address indexed to, uint256 value);\n    event Approval(\n        address indexed owner,\n        address indexed spender,\n        uint256 value\n    );\n}\n\ncontract SafeMath {\n    function safeMul(uint256 a, uint256 b) internal returns (uint256) {\n        uint256 c = a * b;\n        assert(a == 0 || c / a == b);\n        return c;\n    }\n\n    function safeDiv(uint256 a, uint256 b) internal returns (uint256) {\n        assert(b > 0);\n        uint256 c = a / b;\n        assert(a == b * c + (a % b));\n        return c;\n    }\n\n    function safeSub(uint256 a, uint256 b) internal returns (uint256) {\n        assert(b <= a);\n        return a - b;\n    }\n\n    function safeAdd(uint256 a, uint256 b) internal returns (uint256) {\n        uint256 c = a + b;\n        assert(c >= a && c >= b);\n        return c;\n    }\n\n    function max64(uint64 a, uint64 b) internal constant returns (uint64) {\n        return a >= b ? a : b;\n    }\n\n    function min64(uint64 a, uint64 b) internal constant returns (uint64) {\n        return a < b ? a : b;\n    }\n\n    function max256(uint256 a, uint256 b) internal constant returns (uint256) {\n        return a >= b ? a : b;\n    }\n\n    function min256(uint256 a, uint256 b) internal constant returns (uint256) {\n        return a < b ? a : b;\n    }\n\n    function assert(bool assertion) internal {\n        if (!assertion) {\n            throw;\n        }\n    }\n}\n\ncontract StandardToken is ERC20, SafeMath {\n    event Minted(address receiver, uint256 amount);\n    mapping(address => uint256) balances;\n    mapping(address => uint256) balancesRAW;\n    mapping(address => mapping(address => uint256)) allowed;\n\n    function isToken() public constant returns (bool weAre) {\n        return true;\n    }\n\n    function transfer(address _to, uint256 _value) returns (bool success) {\n        balances[msg.sender] = safeSub(balances[msg.sender], _value);\n        balances[_to] = safeAdd(balances[_to], _value);\n        Transfer(msg.sender, _to, _value);\n        return true;\n    }\n\n    function transferFrom(\n        address _from,\n        address _to,\n        uint256 _value\n    ) returns (bool success) {\n        uint256 _allowance = allowed[_from][msg.sender];\n        balances[_to] = safeAdd(balances[_to], _value);\n        balances[_from] = safeSub(balances[_from], _value);\n        allowed[_from][msg.sender] = safeSub(_allowance, _value);\n        Transfer(_from, _to, _value);\n        return true;\n    }\n\n    function balanceOf(address _owner) constant returns (uint256 balance) {\n        return balances[_owner];\n    }\n\n    function approve(address _spender, uint256 _value) returns (bool success) {\n        if ((_value != 0) && (allowed[msg.sender][_spender] != 0)) throw;\n        allowed[msg.sender][_spender] = _value;\n        Approval(msg.sender, _spender, _value);\n        return true;\n    }\n\n    function allowance(address _owner, address _spender)\n        constant\n        returns (uint256 remaining)\n    {\n        return allowed[_owner][_spender];\n    }\n}\n\ncontract daoPOLSKAtokens is sGuardPlus {\n    string public name = \"DAO POLSKA TOKEN version 1\";\n    string public symbol = \"DPL\";\n    uint8 public constant decimals = 18;\n    address public owner;\n    address public migrationMaster;\n    uint256 public otherchainstotalsupply = 1.0 ether;\n    uint256 public supplylimit = 10000.0 ether;\n    uint256 public totalSupply = 0.0 ether;\n    address public Chain1 = 0x0;\n    address public Chain2 = 0x0;\n    address public Chain3 = 0x0;\n    address public Chain4 = 0x0;\n    address public migrationAgent = 0x8585D5A25b1FA2A0E6c3BcfC098195bac9789BE2;\n    uint256 public totalMigrated;\n    event Migrate(address indexed _from, address indexed _to, uint256 _value);\n    event Refund(address indexed _from, uint256 _value);\n    struct sendTokenAway {\n        StandardToken coinContract;\n        uint256 amount;\n        address recipient;\n    }\n    mapping(uint256 => sendTokenAway) transfers;\n    uint256 numTransfers = 0;\n    mapping(address => uint256) balances;\n    mapping(address => uint256) balancesRAW;\n    mapping(address => mapping(address => uint256)) allowed;\n    event UpdatedTokenInformation(string newName, string newSymbol);\n    event Transfer(address indexed _from, address indexed _to, uint256 _value);\n    event receivedEther(address indexed _from, uint256 _value);\n    event Approval(\n        address indexed _owner,\n        address indexed _spender,\n        uint256 _value\n    );\n    event Burn(address indexed from, uint256 value);\n    bool public supplylimitset = false;\n    bool public otherchainstotalset = false;\n\n    constructor() {\n        owner = msg.sender;\n        migrationMaster = msg.sender;\n    }\n\n    function setSupply(uint256 supplyLOCKER) public {\n        if (msg.sender != owner) {\n            throw;\n        }\n\n        if (supplylimitset != false) {\n            throw;\n        }\n\n        supplylimitset = true;\n        supplylimit = pow_uint256(supplyLOCKER, uint256(decimals));\n    }\n\n    function setotherchainstotalsupply(uint256 supplyLOCKER) public {\n        if (msg.sender != owner) {\n            throw;\n        }\n\n        if (supplylimitset != false) {\n            throw;\n        }\n\n        otherchainstotalset = true;\n        otherchainstotalsupply = pow_uint256(supplyLOCKER, uint256(decimals));\n    }\n\n    function approveAndCall(\n        address _spender,\n        uint256 _value,\n        bytes _extraData\n    ) public returns (bool success) {\n        tokenRecipient spender = tokenRecipient(_spender);\n        if (approve(_spender, _value)) {\n            spender.receiveApproval(msg.sender, _value, this, _extraData);\n            return true;\n        }\n    }\n\n    function burn(uint256 _value) public returns (bool success) {\n        require(balances[msg.sender] >= _value);\n        balances[msg.sender] -= _value;\n        totalSupply -= _value;\n        Burn(msg.sender, _value);\n        return true;\n    }\n\n    function burnFrom(address _from, uint256 _value)\n        public\n        returns (bool success)\n    {\n        require(balances[_from] >= _value);\n        require(_value <= allowed[_from][msg.sender]);\n        balances[_from] -= _value;\n        allowed[_from][msg.sender] -= _value;\n        totalSupply -= _value;\n        Burn(_from, _value);\n        return true;\n    }\n\n    function transfer(address _to, uint256 _value) returns (bool success) {\n        if (\n            balances[msg.sender] >= _value &&\n            balances[_to] + _value > balances[_to]\n        ) {\n            balances[msg.sender] -= _value;\n            balances[_to] += _value;\n            Transfer(msg.sender, _to, _value);\n            return true;\n        } else {\n            return false;\n        }\n    }\n\n    function transferFrom(\n        address _from,\n        address _to,\n        uint256 _value\n    ) returns (bool success) {\n        if (\n            balances[_from] >= _value &&\n            allowed[_from][msg.sender] >= _value &&\n            balances[_to] + _value > balances[_to]\n        ) {\n            balances[_to] += _value;\n            balances[_from] -= _value;\n            allowed[_from][msg.sender] -= _value;\n            Transfer(_from, _to, _value);\n            return true;\n        } else {\n            return false;\n        }\n    }\n\n    function balanceOf(address _owner) constant returns (uint256 balance) {\n        return balances[_owner];\n    }\n\n    function approve(address _spender, uint256 _value) returns (bool success) {\n        allowed[msg.sender][_spender] = _value;\n        Approval(msg.sender, _spender, _value);\n        return true;\n    }\n\n    function allowance(address _owner, address _spender)\n        constant\n        returns (uint256 remaining)\n    {\n        return allowed[_owner][_spender];\n    }\n\n    function() public payable {\n        if (funding) {\n            receivedEther(msg.sender, msg.value);\n            balances[msg.sender] = balances[msg.sender] + msg.value;\n        } else throw;\n    }\n\n    function setTokenInformation(string _name, string _symbol) {\n        if (msg.sender != owner) {\n            throw;\n        }\n\n        name = _name;\n        symbol = _symbol;\n        UpdatedTokenInformation(name, symbol);\n    }\n\n    function setChainsAddresses(address chainAd, int256 chainnumber) {\n        if (msg.sender != owner) {\n            throw;\n        }\n\n        if (chainnumber == 1) {\n            Chain1 = chainAd;\n        }\n\n        if (chainnumber == 2) {\n            Chain2 = chainAd;\n        }\n\n        if (chainnumber == 3) {\n            Chain3 = chainAd;\n        }\n\n        if (chainnumber == 4) {\n            Chain4 = chainAd;\n        }\n    }\n\n    function DAOPolskaTokenICOregulations() external returns (string wow) {\n        return\n            \"Regulations of preICO and ICO are present at website  DAO Polska Token.network and by using this smartcontract and blockchains you commit that you accept and will follow those rules\";\n    }\n\n    function sendTokenAw(\n        address StandardTokenAddress,\n        address receiver,\n        uint256 amount\n    ) {\n        if (msg.sender != owner) {\n            throw;\n        }\n\n        sendTokenAway t = transfers[numTransfers];\n        t.coinContract = StandardToken(StandardTokenAddress);\n        t.amount = amount;\n        t.recipient = receiver;\n        bool __sent_result100 = t.coinContract.transfer(receiver, amount);\n        require(__sent_result100);\n        numTransfers = add_uint(numTransfers, 1);\n    }\n\n    uint256 public tokenCreationRate = 1000;\n    uint256 public bonusCreationRate = 1000;\n    uint256 public CreationRate = 1761;\n    uint256 public constant oneweek = 36000;\n    uint256 public fundingEndBlock = 5433616;\n    bool public funding = true;\n    bool public refundstate = false;\n    bool public migratestate = false;\n\n    function createDaoPOLSKAtokens(address holder) payable {\n        if (!funding) throw;\n        if (msg.value == 0) throw;\n        if (msg.value > (supplylimit - totalSupply) / CreationRate) throw;\n        var numTokensRAW = msg.value;\n        var numTokens = msg.value * CreationRate;\n        totalSupply += numTokens;\n        balances[holder] += numTokens;\n        balancesRAW[holder] += numTokensRAW;\n        Transfer(0, holder, numTokens);\n        uint256 percentOfTotal = 12;\n        uint256 additionalTokens = (numTokens * percentOfTotal) / (100);\n        totalSupply += additionalTokens;\n        balances[migrationMaster] += additionalTokens;\n        Transfer(0, migrationMaster, additionalTokens);\n    }\n\n    function setBonusCreationRate(uint256 newRate) {\n        if (msg.sender == owner) {\n            bonusCreationRate = newRate;\n            CreationRate = add_uint(tokenCreationRate, bonusCreationRate);\n        }\n    }\n\n    function FundsTransfer() external {\n        if (funding == true) throw;\n        if (!owner.send(this.balance)) throw;\n    }\n\n    function PartialFundsTransfer(uint256 SubX) external {\n        if (msg.sender != owner) throw;\n        bool __sent_result101 = owner.send(this.balance - SubX);\n        require(__sent_result101);\n    }\n\n    function turnrefund() external {\n        if (msg.sender != owner) throw;\n        refundstate = !refundstate;\n    }\n\n    function fundingState() external {\n        if (msg.sender != owner) throw;\n        funding = !funding;\n    }\n\n    function turnmigrate() external {\n        if (msg.sender != migrationMaster) throw;\n        migratestate = !migratestate;\n    }\n\n    function finalize() external {\n        if (\n            block.number <=\n            add_uint256(fundingEndBlock, mul_uint256(8, oneweek))\n        ) throw;\n        funding = false;\n        refundstate = !refundstate;\n        if (msg.sender == owner) {\n            bool __sent_result102 = owner.send(this.balance);\n            require(__sent_result102);\n        }\n    }\n\n    function migrate(uint256 _value) external {\n        if (migratestate) throw;\n        if (_value == 0) throw;\n        if (_value > balances[msg.sender]) throw;\n        balances[msg.sender] -= _value;\n        totalSupply -= _value;\n        totalMigrated += _value;\n        MigrationAgent(migrationAgent).migrateFrom(msg.sender, _value);\n        Migrate(msg.sender, migrationAgent, _value);\n    }\n\n    function refundTRA() external {\n        if (funding) throw;\n        if (!refundstate) throw;\n        var DAOPLTokenValue = balances[msg.sender];\n        var ETHValue = balancesRAW[msg.sender];\n        if (ETHValue == 0) throw;\n        balancesRAW[msg.sender] = 0;\n        totalSupply -= DAOPLTokenValue;\n        Refund(msg.sender, ETHValue);\n        msg.sender.transfer(ETHValue);\n    }\n\n    function preICOregulations() external returns (string wow) {\n        return\n            \"Regulations of preICO are present at website  daopolska.pl and by using this smartcontract you commit that you accept and will follow those rules\";\n    }\n}\n",
  "sourcePath": "/workdir/truffle_example/after/0x19cf8481ea15427a98ba3cdd6d9e14690011ab10/contracts/0x19cf8481ea15427a98ba3cdd6d9e14690011ab10.sol.fixed.sol",
  "compiler": {
    "name": "solc",
    "version": "0.4.25+commit.59dbf8f1.Emscripten.clang"
  },
  "schemaVersion": "3.4.8",
  "updatedAt": "2022-08-13T02:15:37.978Z",
  "networkType": "ethereum",
  "devdoc": {
    "methods": {}
  },
  "userdoc": {
    "methods": {}
  }
}