{
  "contractName": "token",
  "abi": [
    {
      "constant": true,
      "inputs": [],
      "name": "name",
      "outputs": [
        {
          "name": "",
          "type": "string"
        }
      ],
      "payable": false,
      "stateMutability": "view",
      "type": "function"
    },
    {
      "constant": true,
      "inputs": [],
      "name": "totalSupply",
      "outputs": [
        {
          "name": "",
          "type": "uint256"
        }
      ],
      "payable": false,
      "stateMutability": "view",
      "type": "function"
    },
    {
      "constant": true,
      "inputs": [],
      "name": "decimals",
      "outputs": [
        {
          "name": "",
          "type": "uint8"
        }
      ],
      "payable": false,
      "stateMutability": "view",
      "type": "function"
    },
    {
      "constant": true,
      "inputs": [],
      "name": "standard",
      "outputs": [
        {
          "name": "",
          "type": "string"
        }
      ],
      "payable": false,
      "stateMutability": "view",
      "type": "function"
    },
    {
      "constant": true,
      "inputs": [
        {
          "name": "",
          "type": "address"
        }
      ],
      "name": "balanceOf",
      "outputs": [
        {
          "name": "",
          "type": "uint256"
        }
      ],
      "payable": false,
      "stateMutability": "view",
      "type": "function"
    },
    {
      "constant": true,
      "inputs": [],
      "name": "symbol",
      "outputs": [
        {
          "name": "",
          "type": "string"
        }
      ],
      "payable": false,
      "stateMutability": "view",
      "type": "function"
    },
    {
      "constant": true,
      "inputs": [
        {
          "name": "",
          "type": "address"
        },
        {
          "name": "",
          "type": "address"
        }
      ],
      "name": "allowance",
      "outputs": [
        {
          "name": "",
          "type": "uint256"
        }
      ],
      "payable": false,
      "stateMutability": "view",
      "type": "function"
    },
    {
      "inputs": [
        {
          "name": "initialSupply",
          "type": "uint256"
        },
        {
          "name": "tokenName",
          "type": "string"
        },
        {
          "name": "decimalUnits",
          "type": "uint8"
        },
        {
          "name": "tokenSymbol",
          "type": "string"
        }
      ],
      "payable": false,
      "stateMutability": "nonpayable",
      "type": "constructor"
    },
    {
      "payable": false,
      "stateMutability": "nonpayable",
      "type": "fallback"
    },
    {
      "anonymous": false,
      "inputs": [
        {
          "indexed": true,
          "name": "from",
          "type": "address"
        },
        {
          "indexed": true,
          "name": "to",
          "type": "address"
        },
        {
          "indexed": false,
          "name": "value",
          "type": "uint256"
        }
      ],
      "name": "Transfer",
      "type": "event"
    },
    {
      "constant": false,
      "inputs": [
        {
          "name": "_to",
          "type": "address"
        },
        {
          "name": "_value",
          "type": "uint256"
        }
      ],
      "name": "transfer",
      "outputs": [],
      "payable": false,
      "stateMutability": "nonpayable",
      "type": "function"
    },
    {
      "constant": false,
      "inputs": [
        {
          "name": "_spender",
          "type": "address"
        },
        {
          "name": "_value",
          "type": "uint256"
        }
      ],
      "name": "approve",
      "outputs": [
        {
          "name": "success",
          "type": "bool"
        }
      ],
      "payable": false,
      "stateMutability": "nonpayable",
      "type": "function"
    },
    {
      "constant": false,
      "inputs": [
        {
          "name": "_spender",
          "type": "address"
        },
        {
          "name": "_value",
          "type": "uint256"
        },
        {
          "name": "_extraData",
          "type": "bytes"
        }
      ],
      "name": "approveAndCall",
      "outputs": [
        {
          "name": "success",
          "type": "bool"
        }
      ],
      "payable": false,
      "stateMutability": "nonpayable",
      "type": "function"
    },
    {
      "constant": false,
      "inputs": [
        {
          "name": "_from",
          "type": "address"
        },
        {
          "name": "_to",
          "type": "address"
        },
        {
          "name": "_value",
          "type": "uint256"
        }
      ],
      "name": "transferFrom",
      "outputs": [
        {
          "name": "success",
          "type": "bool"
        }
      ],
      "payable": false,
      "stateMutability": "nonpayable",
      "type": "function"
    }
  ],
  "bytecode": "0x60806040526040805190810160405280600981526020017f546f6b656e20302e310000000000000000000000000000000000000000000000815250600090805190602001906200005192919062000144565b503480156200005f57600080fd5b50604051620010c2380380620010c28339810180604052810190808051906020019092919080518201929190602001805190602001909291908051820192919050505083600560003373ffffffffffffffffffffffffffffffffffffffff1673ffffffffffffffffffffffffffffffffffffffff168152602001908152602001600020819055508360048190555082600190805190602001906200010592919062000144565b5080600290805190602001906200011e92919062000144565b5081600360006101000a81548160ff021916908360ff16021790555050505050620001f3565b828054600181600116156101000203166002900490600052602060002090601f016020900481019282601f106200018757805160ff1916838001178555620001b8565b82800160010185558215620001b8579182015b82811115620001b75782518255916020019190600101906200019a565b5b509050620001c79190620001cb565b5090565b620001f091905b80821115620001ec576000816000905550600101620001d2565b5090565b90565b610ebf80620002036000396000f3006080604052600436106100af576000357c0100000000000000000000000000000000000000000000000000000000900463ffffffff16806306fdde03146100c8578063095ea7b31461015857806318160ddd146101bd57806323b872dd146101e8578063313ce5671461026d5780635a3b7e421461029e57806370a082311461032e57806395d89b4114610385578063a9059cbb14610415578063cae9ca5114610462578063dd62ed3e1461050d575b3480156100bb57600080fd5b50600015156100c657fe5b005b3480156100d457600080fd5b506100dd610584565b6040518080602001828103825283818151815260200191508051906020019080838360005b8381101561011d578082015181840152602081019050610102565b50505050905090810190601f16801561014a5780820380516001836020036101000a031916815260200191505b509250505060405180910390f35b34801561016457600080fd5b506101a3600480360381019080803573ffffffffffffffffffffffffffffffffffffffff16906020019092919080359060200190929190505050610622565b604051808215151515815260200191505060405180910390f35b3480156101c957600080fd5b506101d26106af565b6040518082815260200191505060405180910390f35b3480156101f457600080fd5b50610253600480360381019080803573ffffffffffffffffffffffffffffffffffffffff169060200190929190803573ffffffffffffffffffffffffffffffffffffffff169060200190929190803590602001909291905050506106b5565b604051808215151515815260200191505060405180910390f35b34801561027957600080fd5b506102826109aa565b604051808260ff1660ff16815260200191505060405180910390f35b3480156102aa57600080fd5b506102b36109bd565b6040518080602001828103825283818151815260200191508051906020019080838360005b838110156102f35780820151818401526020810190506102d8565b50505050905090810190601f1680156103205780820380516001836020036101000a031916815260200191505b509250505060405180910390f35b34801561033a57600080fd5b5061036f600480360381019080803573ffffffffffffffffffffffffffffffffffffffff169060200190929190505050610a5b565b6040518082815260200191505060405180910390f35b34801561039157600080fd5b5061039a610a73565b6040518080602001828103825283818151815260200191508051906020019080838360005b838110156103da5780820151818401526020810190506103bf565b50505050905090810190601f1680156104075780820380516001836020036101000a031916815260200191505b509250505060405180910390f35b34801561042157600080fd5b50610460600480360381019080803573ffffffffffffffffffffffffffffffffffffffff16906020019092919080359060200190929190505050610b11565b005b34801561046e57600080fd5b506104f3600480360381019080803573ffffffffffffffffffffffffffffffffffffffff16906020019092919080359060200190929190803590602001908201803590602001908080601f0160208091040260200160405190810160405280939291908181526020018383808284378201915050505050509192919290505050610ceb565b604051808215151515815260200191505060405180910390f35b34801561051957600080fd5b5061056e600480360381019080803573ffffffffffffffffffffffffffffffffffffffff169060200190929190803573ffffffffffffffffffffffffffffffffffffffff169060200190929190505050610e6e565b6040518082815260200191505060405180910390f35b60018054600181600116156101000203166002900480601f01602080910402602001604051908101604052809291908181526020018280546001816001161561010002031660029004801561061a5780601f106105ef5761010080835404028352916020019161061a565b820191906000526020600020905b8154815290600101906020018083116105fd57829003601f168201915b505050505081565b600081600660003373ffffffffffffffffffffffffffffffffffffffff1673ffffffffffffffffffffffffffffffffffffffff16815260200190815260200160002060008573ffffffffffffffffffffffffffffffffffffffff1673ffffffffffffffffffffffffffffffffffffffff168152602001908152602001600020819055506001905092915050565b60045481565b600081600560008673ffffffffffffffffffffffffffffffffffffffff1673ffffffffffffffffffffffffffffffffffffffff168152602001908152602001600020541015151561070257fe5b600560008473ffffffffffffffffffffffffffffffffffffffff1673ffffffffffffffffffffffffffffffffffffffff1681526020019081526020016000205482600560008673ffffffffffffffffffffffffffffffffffffffff1673ffffffffffffffffffffffffffffffffffffffff16815260200190815260200160002054011015151561078e57fe5b600660008573ffffffffffffffffffffffffffffffffffffffff1673ffffffffffffffffffffffffffffffffffffffff16815260200190815260200160002060003373ffffffffffffffffffffffffffffffffffffffff1673ffffffffffffffffffffffffffffffffffffffff16815260200190815260200160002054821115151561081657fe5b81600560008673ffffffffffffffffffffffffffffffffffffffff1673ffffffffffffffffffffffffffffffffffffffff1681526020019081526020016000206000828254039250508190555081600560008573ffffffffffffffffffffffffffffffffffffffff1673ffffffffffffffffffffffffffffffffffffffff1681526020019081526020016000206000828254019250508190555081600660008673ffffffffffffffffffffffffffffffffffffffff1673ffffffffffffffffffffffffffffffffffffffff16815260200190815260200160002060003373ffffffffffffffffffffffffffffffffffffffff1673ffffffffffffffffffffffffffffffffffffffff168152602001908152602001600020600082825403925050819055508273ffffffffffffffffffffffffffffffffffffffff168473ffffffffffffffffffffffffffffffffffffffff167fddf252ad1be2c89b69c2b068fc378daa952ba7f163c4a11628f55a4df523b3ef846040518082815260200191505060405180910390a3600190509392505050565b600360009054906101000a900460ff1681565b60008054600181600116156101000203166002900480601f016020809104026020016040519081016040528092919081815260200182805460018160011615610100020316600290048015610a535780601f10610a2857610100808354040283529160200191610a53565b820191906000526020600020905b815481529060010190602001808311610a3657829003601f168201915b505050505081565b60056020528060005260406000206000915090505481565b60028054600181600116156101000203166002900480601f016020809104026020016040519081016040528092919081815260200182805460018160011615610100020316600290048015610b095780601f10610ade57610100808354040283529160200191610b09565b820191906000526020600020905b815481529060010190602001808311610aec57829003601f168201915b505050505081565b80600560003373ffffffffffffffffffffffffffffffffffffffff1673ffffffffffffffffffffffffffffffffffffffff1681526020019081526020016000205410151515610b5c57fe5b600560008373ffffffffffffffffffffffffffffffffffffffff1673ffffffffffffffffffffffffffffffffffffffff1681526020019081526020016000205481600560008573ffffffffffffffffffffffffffffffffffffffff1673ffffffffffffffffffffffffffffffffffffffff168152602001908152602001600020540110151515610be857fe5b80600560003373ffffffffffffffffffffffffffffffffffffffff1673ffffffffffffffffffffffffffffffffffffffff1681526020019081526020016000206000828254039250508190555080600560008473ffffffffffffffffffffffffffffffffffffffff1673ffffffffffffffffffffffffffffffffffffffff168152602001908152602001600020600082825401925050819055508173ffffffffffffffffffffffffffffffffffffffff163373ffffffffffffffffffffffffffffffffffffffff167fddf252ad1be2c89b69c2b068fc378daa952ba7f163c4a11628f55a4df523b3ef836040518082815260200191505060405180910390a35050565b600080849050610cfb8585610622565b15610e65578073ffffffffffffffffffffffffffffffffffffffff16638f4ffcb1338630876040518563ffffffff167c0100000000000000000000000000000000000000000000000000000000028152600401808573ffffffffffffffffffffffffffffffffffffffff1673ffffffffffffffffffffffffffffffffffffffff1681526020018481526020018373ffffffffffffffffffffffffffffffffffffffff1673ffffffffffffffffffffffffffffffffffffffff16815260200180602001828103825283818151815260200191508051906020019080838360005b83811015610df5578082015181840152602081019050610dda565b50505050905090810190601f168015610e225780820380516001836020036101000a031916815260200191505b5095505050505050600060405180830381600087803b158015610e4457600080fd5b505af1158015610e58573d6000803e3d6000fd5b5050505060019150610e66565b5b509392505050565b60066020528160005260406000206020528060005260406000206000915091505054815600a165627a7a72305820505862bfcd57b5ef33f3cede960d4953aab4f5207c3d64746b53826df1db0e3c0029",
  "source": "contract sGuard{\n  function sub_uint256(uint256 a, uint256 b) internal pure returns (uint256) {\n    assert(b <= a);\n    return a - b;\n  }\n  \n  function div_uint256(uint256 a, uint256 b) internal pure returns (uint256) {\n    uint256 c = a / b;\n    return c;\n  }\n  \n  function add_uint256(uint256 a, uint256 b) internal pure returns (uint256) {\n    uint256 c = a + b;\n    assert(c >= a);\n    return c;\n  }\n  \n  function mul_uint256(uint256 a, uint256 b) internal pure returns (uint256) {\n    if (a == 0) {\n      return 0;\n    }\n    uint256 c = a * b;\n    assert(c / a == b);\n    return c;\n  }\n}\npragma solidity ^0.4.13;\ncontract owned  is sGuard {\n  address public owner;\n\n  function owned() {\n    owner = msg.sender;\n  }\n\n  modifier onlyOwner {\n    assert(msg.sender == owner);\n    _;\n  }\n\n  function transferOwnership(address newOwner) onlyOwner {\n    owner = newOwner;\n  }\n}\n\ncontract tokenRecipient  is sGuard { function receiveApproval(address _from, uint256 _value, address _token, bytes _extraData); }\n\ncontract token  is sGuard {\n  /* Public variables of the token */\n  string public standard = 'Token 0.1';\n  string public name;\n  string public symbol;\n  uint8 public decimals;\n  uint256 public totalSupply;\n\n  /* This creates an array with all balances */\n  mapping (address => uint256) public balanceOf;\n  mapping (address => mapping (address => uint256)) public allowance;\n\n  /* This generates a public event on the blockchain that will notify clients */\n  event Transfer(address indexed from, address indexed to, uint256 value);\n\n  /* Initializes contract with initial supply tokens to the creator of the contract */\n  function token(\n  uint256 initialSupply,\n  string tokenName,\n  uint8 decimalUnits,\n  string tokenSymbol\n  ) {\n    balanceOf[msg.sender] = initialSupply;              // Give the creator all initial tokens\n    totalSupply = initialSupply;                        // Update total supply\n    name = tokenName;                                   // Set the name for display purposes\n    symbol = tokenSymbol;                               // Set the symbol for display purposes\n    decimals = decimalUnits;                            // Amount of decimals for display purposes\n  }\n\n  /* Send coins */\n  function transfer(address _to, uint256 _value) {\n    assert (balanceOf[msg.sender] >= _value);            // Check if the sender has enough\n    assert (balanceOf[_to] + _value >= balanceOf[_to]);  // Check for overflows\n    balanceOf[msg.sender] -= _value;                     // Subtract from the sender\n    balanceOf[_to] += _value;                            // Add the same to the recipient\n    Transfer(msg.sender, _to, _value);                   // Notify anyone listening that this transfer took place\n  }\n\n  /* Allow another contract to spend some tokens in your behalf */\n  function approve(address _spender, uint256 _value)\n  returns (bool success) {\n    allowance[msg.sender][_spender] = _value;\n    return true;\n  }\n\n  /* Approve and then communicate the approved contract in a single tx */\n  function approveAndCall(address _spender, uint256 _value, bytes _extraData)\n  returns (bool success) {\n    tokenRecipient spender = tokenRecipient(_spender);\n    if (approve(_spender, _value)) {\n      spender.receiveApproval(msg.sender, _value, this, _extraData);\n      return true;\n    }\n  }\n\n  /* A contract attempts to get the coins */\n  function transferFrom(address _from, address _to, uint256 _value) returns (bool success) {\n    assert (balanceOf[_from] >= _value);                 // Check if the sender has enough\n    assert (balanceOf[_to] + _value >= balanceOf[_to]);  // Check for overflows\n    assert (_value <= allowance[_from][msg.sender]);     // Check allowance\n    balanceOf[_from] -= _value;                          // Subtract from the sender\n    balanceOf[_to] += _value;                            // Add the same to the recipient\n    allowance[_from][msg.sender] -= _value;\n    Transfer(_from, _to, _value);\n    return true;\n  }\n\n  /* This unnamed function is called whenever someone tries to send ether to it */\n  function () {\n    assert(false);     // Prevents accidental sending of ether\n  }\n}\n\ncontract MyYLCToken is sGuard,  owned, token {\n\n  uint256 public sellPrice;\n  uint256 public buyPrice;\n\n  mapping (address => bool) public frozenAccount;\n\n  /* This generates a public event on the blockchain that will notify clients */\n  event FrozenFunds(address target, bool frozen);\n\n  /* This notifies clients about the amount burnt */\n  event Burn(address indexed from, uint256 value);\n\n  /* Initializes contract with initial supply tokens to the creator of the contract */\n  function MyYLCToken(\n  uint256 initialSupply,\n  string tokenName,\n  uint8 decimalUnits,\n  string tokenSymbol\n  ) token (initialSupply, tokenName, decimalUnits, tokenSymbol) {}\n\n  /* Send coins */\n  function transfer(address _to, uint256 _value) {\n    assert (balanceOf[msg.sender] >= _value);           // Check if the sender has enough\n    assert (add_uint256(balanceOf[_to], _value) >= balanceOf[_to]); // Check for overflows\n    assert (!frozenAccount[msg.sender]);                // Check if frozen\n    balanceOf[msg.sender] = sub_uint256(balanceOf[msg.sender], _value);                     // Subtract from the sender\n    balanceOf[_to] = add_uint256(balanceOf[_to], _value);                            // Add the same to the recipient\n    Transfer(msg.sender, _to, _value);                   // Notify anyone listening that this transfer took place\n  }\n\n\n  /* A contract attempts to get the coins */\n  function transferFrom(address _from, address _to, uint256 _value) returns (bool success) {\n    assert (!frozenAccount[_from]);                      // Check if frozen\n    assert (balanceOf[_from] >= _value);                 // Check if the sender has enough\n    assert (add_uint256(balanceOf[_to], _value) >= balanceOf[_to]);  // Check for overflows\n    assert (_value <= allowance[_from][msg.sender]);     // Check allowance\n    balanceOf[_from] = sub_uint256(balanceOf[_from], _value);                          // Subtract from the sender\n    balanceOf[_to] = add_uint256(balanceOf[_to], _value);                            // Add the same to the recipient\n    allowance[_from][msg.sender] = sub_uint256(allowance[_from][msg.sender], _value);\n    Transfer(_from, _to, _value);\n    return true;\n  }\n\n  function mintToken(address target, uint256 mintedAmount) onlyOwner {\n    balanceOf[target] = add_uint256(balanceOf[target], mintedAmount);\n    totalSupply += mintedAmount;\n    Transfer(0, this, mintedAmount);\n    Transfer(this, target, mintedAmount);\n  }\n\n  function freezeAccount(address target, bool freeze) onlyOwner {\n    frozenAccount[target] = freeze;\n    FrozenFunds(target, freeze);\n  }\n\n  function setPrices(uint256 newSellPrice, uint256 newBuyPrice) onlyOwner {\n    sellPrice = newSellPrice;\n    buyPrice = newBuyPrice;\n  }\n\n  function buy() payable {\n    uint amount = div_uint256(msg.value, buyPrice);                // calculates the amount\n    assert (balanceOf[this] >= amount);                // checks if it has enough to sell\n    balanceOf[msg.sender] = add_uint256(balanceOf[msg.sender], amount);                   // adds the amount to buyer's balance\n    balanceOf[this] = sub_uint256(balanceOf[this], amount);                         // subtracts amount from seller's balance\n    Transfer(this, msg.sender, amount);                // execute an event reflecting the change\n  }\n\n  function sell(uint256 amount) {\n    assert (balanceOf[msg.sender] >= amount );         // checks if the sender has enough to sell\n    balanceOf[this] = add_uint256(balanceOf[this], amount);                         // adds the amount to owner's balance\n    balanceOf[msg.sender] = sub_uint256(balanceOf[msg.sender], amount);                   // subtracts the amount from seller's balance\n    assert (msg.sender.send(mul_uint256(amount, sellPrice)));      // sends ether to the seller. It's important\n                                                       // to do this last to avoid recursion attacks\n    Transfer(msg.sender, this, amount);                // executes an event reflecting on the change\n  }\n\n  function burn(uint256 amount) onlyOwner returns (bool success) {\n    assert (balanceOf[msg.sender] >= amount);             // Check if the sender has enough\n    balanceOf[msg.sender] = sub_uint256(balanceOf[msg.sender], amount);                      // Subtract from the sender\n    totalSupply -= amount;                                // Updates totalSupply\n    Burn(msg.sender, amount);\n    return true;\n  }\n\n}\n",
  "sourcePath": "/workdir/truffle_example/after/0x9f03d94bf3545153cb28014bC7D1e7177cA99034/contracts/0x9f03d94bf3545153cb28014bC7D1e7177cA99034.sol.fixed.sol",
  "compiler": {
    "name": "solc",
    "version": "0.4.25+commit.59dbf8f1.Emscripten.clang"
  },
  "schemaVersion": "3.4.8",
  "updatedAt": "2022-09-02T08:02:35.498Z",
  "devdoc": {
    "methods": {}
  },
  "userdoc": {
    "methods": {}
  }
}