{
  "contractName": "Hexagon",
  "abi": [
    {
      "constant": true,
      "inputs": [],
      "name": "name",
      "outputs": [
        {
          "name": "",
          "type": "string"
        }
      ],
      "payable": false,
      "stateMutability": "view",
      "type": "function"
    },
    {
      "constant": true,
      "inputs": [],
      "name": "burnPerTransaction",
      "outputs": [
        {
          "name": "",
          "type": "uint8"
        }
      ],
      "payable": false,
      "stateMutability": "view",
      "type": "function"
    },
    {
      "constant": true,
      "inputs": [],
      "name": "decimals",
      "outputs": [
        {
          "name": "",
          "type": "uint8"
        }
      ],
      "payable": false,
      "stateMutability": "view",
      "type": "function"
    },
    {
      "constant": true,
      "inputs": [],
      "name": "initialSupply",
      "outputs": [
        {
          "name": "",
          "type": "uint256"
        }
      ],
      "payable": false,
      "stateMutability": "view",
      "type": "function"
    },
    {
      "constant": true,
      "inputs": [
        {
          "name": "",
          "type": "address"
        }
      ],
      "name": "balanceOf",
      "outputs": [
        {
          "name": "",
          "type": "uint256"
        }
      ],
      "payable": false,
      "stateMutability": "view",
      "type": "function"
    },
    {
      "constant": true,
      "inputs": [],
      "name": "currentSupply",
      "outputs": [
        {
          "name": "",
          "type": "uint256"
        }
      ],
      "payable": false,
      "stateMutability": "view",
      "type": "function"
    },
    {
      "constant": true,
      "inputs": [],
      "name": "symbol",
      "outputs": [
        {
          "name": "",
          "type": "string"
        }
      ],
      "payable": false,
      "stateMutability": "view",
      "type": "function"
    },
    {
      "constant": true,
      "inputs": [
        {
          "name": "",
          "type": "address"
        },
        {
          "name": "",
          "type": "address"
        }
      ],
      "name": "allowance",
      "outputs": [
        {
          "name": "",
          "type": "uint256"
        }
      ],
      "payable": false,
      "stateMutability": "view",
      "type": "function"
    },
    {
      "inputs": [],
      "payable": false,
      "stateMutability": "nonpayable",
      "type": "constructor"
    },
    {
      "anonymous": false,
      "inputs": [
        {
          "indexed": true,
          "name": "from",
          "type": "address"
        },
        {
          "indexed": true,
          "name": "to",
          "type": "address"
        },
        {
          "indexed": false,
          "name": "value",
          "type": "uint256"
        }
      ],
      "name": "Transfer",
      "type": "event"
    },
    {
      "anonymous": false,
      "inputs": [
        {
          "indexed": true,
          "name": "from",
          "type": "address"
        },
        {
          "indexed": false,
          "name": "value",
          "type": "uint256"
        }
      ],
      "name": "Burn",
      "type": "event"
    },
    {
      "anonymous": false,
      "inputs": [
        {
          "indexed": true,
          "name": "_owner",
          "type": "address"
        },
        {
          "indexed": true,
          "name": "_spender",
          "type": "address"
        },
        {
          "indexed": false,
          "name": "_value",
          "type": "uint256"
        }
      ],
      "name": "Approval",
      "type": "event"
    },
    {
      "constant": false,
      "inputs": [
        {
          "name": "_to",
          "type": "address"
        },
        {
          "name": "_value",
          "type": "uint256"
        }
      ],
      "name": "transfer",
      "outputs": [
        {
          "name": "success",
          "type": "bool"
        }
      ],
      "payable": false,
      "stateMutability": "nonpayable",
      "type": "function"
    },
    {
      "constant": true,
      "inputs": [],
      "name": "totalSupply",
      "outputs": [
        {
          "name": "",
          "type": "uint256"
        }
      ],
      "payable": false,
      "stateMutability": "view",
      "type": "function"
    },
    {
      "constant": false,
      "inputs": [
        {
          "name": "_value",
          "type": "uint256"
        }
      ],
      "name": "burn",
      "outputs": [
        {
          "name": "success",
          "type": "bool"
        }
      ],
      "payable": false,
      "stateMutability": "nonpayable",
      "type": "function"
    },
    {
      "constant": false,
      "inputs": [
        {
          "name": "_spender",
          "type": "address"
        },
        {
          "name": "_value",
          "type": "uint256"
        }
      ],
      "name": "approve",
      "outputs": [
        {
          "name": "success",
          "type": "bool"
        }
      ],
      "payable": false,
      "stateMutability": "nonpayable",
      "type": "function"
    },
    {
      "constant": false,
      "inputs": [
        {
          "name": "_from",
          "type": "address"
        },
        {
          "name": "_to",
          "type": "address"
        },
        {
          "name": "_value",
          "type": "uint256"
        }
      ],
      "name": "transferFrom",
      "outputs": [
        {
          "name": "success",
          "type": "bool"
        }
      ],
      "payable": false,
      "stateMutability": "nonpayable",
      "type": "function"
    }
  ],
  "bytecode": "0x608060405266017dfcdece400060005534801561001b57600080fd5b5066017dfcdece4000600160003373ffffffffffffffffffffffffffffffffffffffff1673ffffffffffffffffffffffffffffffffffffffff16815260200190815260200160002081905550610ce5806100766000396000f3006080604052600436106100c5576000357c0100000000000000000000000000000000000000000000000000000000900463ffffffff16806306fdde03146100ca578063095ea7b31461015a57806318160ddd146101bf57806323b872dd146101ea57806327edf0971461026f578063313ce567146102a0578063378dc3dc146102d157806342966c68146102fc57806370a0823114610341578063771282f61461039857806395d89b41146103c3578063a9059cbb14610453578063dd62ed3e146104b8575b600080fd5b3480156100d657600080fd5b506100df61052f565b6040518080602001828103825283818151815260200191508051906020019080838360005b8381101561011f578082015181840152602081019050610104565b50505050905090810190601f16801561014c5780820380516001836020036101000a031916815260200191505b509250505060405180910390f35b34801561016657600080fd5b506101a5600480360381019080803573ffffffffffffffffffffffffffffffffffffffff16906020019092919080359060200190929190505050610568565b604051808215151515815260200191505060405180910390f35b3480156101cb57600080fd5b506101d46106ef565b6040518082815260200191505060405180910390f35b3480156101f657600080fd5b50610255600480360381019080803573ffffffffffffffffffffffffffffffffffffffff169060200190929190803573ffffffffffffffffffffffffffffffffffffffff169060200190929190803590602001909291905050506106f8565b604051808215151515815260200191505060405180910390f35b34801561027b57600080fd5b50610284610825565b604051808260ff1660ff16815260200191505060405180910390f35b3480156102ac57600080fd5b506102b561082a565b604051808260ff1660ff16815260200191505060405180910390f35b3480156102dd57600080fd5b506102e661082f565b6040518082815260200191505060405180910390f35b34801561030857600080fd5b506103276004803603810190808035906020019092919050505061083a565b604051808215151515815260200191505060405180910390f35b34801561034d57600080fd5b50610382600480360381019080803573ffffffffffffffffffffffffffffffffffffffff169060200190929190505050610974565b6040518082815260200191505060405180910390f35b3480156103a457600080fd5b506103ad61098c565b6040518082815260200191505060405180910390f35b3480156103cf57600080fd5b506103d8610992565b6040518080602001828103825283818151815260200191508051906020019080838360005b838110156104185780820151818401526020810190506103fd565b50505050905090810190601f1680156104455780820380516001836020036101000a031916815260200191505b509250505060405180910390f35b34801561045f57600080fd5b5061049e600480360381019080803573ffffffffffffffffffffffffffffffffffffffff169060200190929190803590602001909291905050506109cb565b604051808215151515815260200191505060405180910390f35b3480156104c457600080fd5b50610519600480360381019080803573ffffffffffffffffffffffffffffffffffffffff169060200190929190803573ffffffffffffffffffffffffffffffffffffffff1690602001909291905050506109e2565b6040518082815260200191505060405180910390f35b6040805190810160405280600781526020017f48657861676f6e0000000000000000000000000000000000000000000000000081525081565b6000808214806105f457506000600260003373ffffffffffffffffffffffffffffffffffffffff1673ffffffffffffffffffffffffffffffffffffffff16815260200190815260200160002060008573ffffffffffffffffffffffffffffffffffffffff1673ffffffffffffffffffffffffffffffffffffffff16815260200190815260200160002054145b15156105ff57600080fd5b81600260003373ffffffffffffffffffffffffffffffffffffffff1673ffffffffffffffffffffffffffffffffffffffff16815260200190815260200160002060008573ffffffffffffffffffffffffffffffffffffffff1673ffffffffffffffffffffffffffffffffffffffff168152602001908152602001600020819055508273ffffffffffffffffffffffffffffffffffffffff163373ffffffffffffffffffffffffffffffffffffffff167f8c5be1e5ebec7d5bd14f71427d1e84f3dd0314c0f7b2291e5b200ac8c7c3b925846040518082815260200191505060405180910390a36001905092915050565b60008054905090565b600081600260008673ffffffffffffffffffffffffffffffffffffffff1673ffffffffffffffffffffffffffffffffffffffff16815260200190815260200160002060003373ffffffffffffffffffffffffffffffffffffffff1673ffffffffffffffffffffffffffffffffffffffff168152602001908152602001600020541015151561078557600080fd5b81600260008673ffffffffffffffffffffffffffffffffffffffff1673ffffffffffffffffffffffffffffffffffffffff16815260200190815260200160002060003373ffffffffffffffffffffffffffffffffffffffff1673ffffffffffffffffffffffffffffffffffffffff1681526020019081526020016000206000828254039250508190555061081a848484610a07565b600190509392505050565b600281565b600481565b66017dfcdece400081565b600081600160003373ffffffffffffffffffffffffffffffffffffffff1673ffffffffffffffffffffffffffffffffffffffff168152602001908152602001600020541015151561088a57600080fd5b81600160003373ffffffffffffffffffffffffffffffffffffffff1673ffffffffffffffffffffffffffffffffffffffff1681526020019081526020016000206000828254039250508190555081600160008073ffffffffffffffffffffffffffffffffffffffff168152602001908152602001600020600082825401925050819055508160008082825403925050819055503373ffffffffffffffffffffffffffffffffffffffff167fcc16f5dbb4873280815c1ee09dbd06736cffcc184412cf7a71a0fdb75d397ca5836040518082815260200191505060405180910390a260019050919050565b60016020528060005260406000206000915090505481565b60005481565b6040805190810160405280600381526020017f485847000000000000000000000000000000000000000000000000000000000081525081565b60006109d8338484610a07565b6001905092915050565b6002602052816000526040600020602052806000526040600020600091509150505481565b60008273ffffffffffffffffffffffffffffffffffffffff1614151515610a2d57600080fd5b600260ff168101600160008573ffffffffffffffffffffffffffffffffffffffff1673ffffffffffffffffffffffffffffffffffffffff1681526020019081526020016000205410151515610a8157600080fd5b600160008373ffffffffffffffffffffffffffffffffffffffff1673ffffffffffffffffffffffffffffffffffffffff1681526020019081526020016000205481600160008573ffffffffffffffffffffffffffffffffffffffff1673ffffffffffffffffffffffffffffffffffffffff1681526020019081526020016000205401111515610b0f57600080fd5b600260ff168101600160008573ffffffffffffffffffffffffffffffffffffffff1673ffffffffffffffffffffffffffffffffffffffff1681526020019081526020016000206000828254039250508190555080600160008473ffffffffffffffffffffffffffffffffffffffff1673ffffffffffffffffffffffffffffffffffffffff16815260200190815260200160002060008282540192505081905550600260ff16600160008073ffffffffffffffffffffffffffffffffffffffff16815260200190815260200160002060008282540192505081905550600260ff1660008082825403925050819055508273ffffffffffffffffffffffffffffffffffffffff167fcc16f5dbb4873280815c1ee09dbd06736cffcc184412cf7a71a0fdb75d397ca56002604051808260ff16815260200191505060405180910390a28173ffffffffffffffffffffffffffffffffffffffff168373ffffffffffffffffffffffffffffffffffffffff167fddf252ad1be2c89b69c2b068fc378daa952ba7f163c4a11628f55a4df523b3ef836040518082815260200191505060405180910390a35050505600a165627a7a72305820e763034222531bf64077b0671a6b6ab39495ba9b62e52b13b065c44382aadc2e0029",
  "source": "pragma solidity ^0.4.18;\n\ncontract Hexagon {\n  /* Main information */\n  string public constant name = \"Hexagon\";\n  string public constant symbol = \"HXG\";\n  uint8 public constant decimals = 4;\n  uint8 public constant burnPerTransaction = 2;\n  uint256 public constant initialSupply = 420000000000000;\n  uint256 public currentSupply = initialSupply;\n\n  /* Create array with balances */\n  mapping (address => uint256) public balanceOf;\n  /* Create array with allowance */\n  mapping (address => mapping (address => uint256)) public allowance;\n\n  /* Constructor */\n  function Hexagon() public {\n    /* Give creator all initial supply of tokens */\n    balanceOf[msg.sender] = initialSupply;\n  }\n\n  /* PUBLIC */\n  /* Send tokens */\n  function transfer(address _to, uint256 _value) public returns (bool success) {\n    _transfer(msg.sender, _to, _value);\n\n    return true;\n  }\n\n  /* Return current supply */\n  function totalSupply() public constant returns (uint) {\n    return currentSupply;\n  }\n\n  /* Burn tokens */\n  function burn(uint256 _value) public returns (bool success) {\n    /* Check if the sender has enough */\n    require(balanceOf[msg.sender] >= _value);\n    /* Subtract from the sender */\n    balanceOf[msg.sender] -= _value;\n    /* Send to the black hole */\n    balanceOf[0x0] += _value;\n    /* Update current supply */\n    currentSupply -= _value;\n    /* Notify network */\n    Burn(msg.sender, _value);\n\n    return true;\n  }\n\n  /* Allow someone to spend on your behalf */\n  function approve(address _spender, uint256 _value) public returns (bool success) {\n    /* Check if the sender has already  */\n    require(_value == 0 || allowance[msg.sender][_spender] == 0);\n    /* Add to allowance  */\n    allowance[msg.sender][_spender] = _value;\n    /* Notify network */\n    Approval(msg.sender, _spender, _value);\n\n    return true;\n  }\n\n  /* Transfer tokens from allowance */\n  function transferFrom(address _from, address _to, uint256 _value) public returns (bool success) {\n    /* Prevent transfer of not allowed tokens */\n    require(allowance[_from][msg.sender] >= _value);\n    /* Remove tokens from allowance */\n    allowance[_from][msg.sender] -= _value;\n\n    _transfer(_from, _to, _value);\n\n    return true;\n  }\n\n  /* INTERNAL */\n  function _transfer(address _from, address _to, uint _value) internal {\n    /* Prevent transfer to 0x0 address. Use burn() instead  */\n    require (_to != 0x0);\n    /* Check if the sender has enough */\n    require (balanceOf[_from] >= _value + burnPerTransaction);\n    /* Check for overflows */\n    require (balanceOf[_to] + _value > balanceOf[_to]);\n    /* Subtract from the sender */\n    balanceOf[_from] -= _value + burnPerTransaction;\n    /* Add the same to the recipient */\n    balanceOf[_to] += _value;\n    /* Apply transaction fee */\n    balanceOf[0x0] += burnPerTransaction;\n    /* Update current supply */\n    currentSupply -= burnPerTransaction;\n    /* Notify network */\n    Burn(_from, burnPerTransaction);\n    /* Notify network */\n    Transfer(_from, _to, _value);\n  }\n\n  /* Events */\n  event Transfer(address indexed from, address indexed to, uint256 value);\n  event Burn(address indexed from, uint256 value);\n  event Approval(address indexed _owner, address indexed _spender, uint256 _value);\n}",
  "sourcePath": "/workdir/truffle_example/before/0xB5335e24d0aB29C190AB8C2B459238Da1153cEBA/contracts/0xB5335e24d0aB29C190AB8C2B459238Da1153cEBA.sol",
  "compiler": {
    "name": "solc",
    "version": "0.4.25+commit.59dbf8f1.Emscripten.clang"
  },
  "schemaVersion": "3.4.8",
  "updatedAt": "2022-08-14T09:39:43.893Z",
  "networkType": "ethereum",
  "devdoc": {
    "methods": {}
  },
  "userdoc": {
    "methods": {}
  }
}