{
  "contractName": "StandardToken",
  "abi": [
    {
      "constant": true,
      "inputs": [],
      "name": "totalSupply",
      "outputs": [
        {
          "name": "",
          "type": "uint256"
        }
      ],
      "payable": false,
      "stateMutability": "view",
      "type": "function"
    },
    {
      "anonymous": false,
      "inputs": [
        {
          "indexed": false,
          "name": "receiver",
          "type": "address"
        },
        {
          "indexed": false,
          "name": "amount",
          "type": "uint256"
        }
      ],
      "name": "Minted",
      "type": "event"
    },
    {
      "anonymous": false,
      "inputs": [
        {
          "indexed": true,
          "name": "from",
          "type": "address"
        },
        {
          "indexed": true,
          "name": "to",
          "type": "address"
        },
        {
          "indexed": false,
          "name": "value",
          "type": "uint256"
        }
      ],
      "name": "Transfer",
      "type": "event"
    },
    {
      "anonymous": false,
      "inputs": [
        {
          "indexed": true,
          "name": "owner",
          "type": "address"
        },
        {
          "indexed": true,
          "name": "spender",
          "type": "address"
        },
        {
          "indexed": false,
          "name": "value",
          "type": "uint256"
        }
      ],
      "name": "Approval",
      "type": "event"
    },
    {
      "constant": false,
      "inputs": [
        {
          "name": "_to",
          "type": "address"
        },
        {
          "name": "_value",
          "type": "uint256"
        }
      ],
      "name": "transfer",
      "outputs": [
        {
          "name": "success",
          "type": "bool"
        }
      ],
      "payable": false,
      "stateMutability": "nonpayable",
      "type": "function"
    },
    {
      "constant": false,
      "inputs": [
        {
          "name": "_from",
          "type": "address"
        },
        {
          "name": "_to",
          "type": "address"
        },
        {
          "name": "_value",
          "type": "uint256"
        }
      ],
      "name": "transferFrom",
      "outputs": [
        {
          "name": "success",
          "type": "bool"
        }
      ],
      "payable": false,
      "stateMutability": "nonpayable",
      "type": "function"
    },
    {
      "constant": true,
      "inputs": [
        {
          "name": "_owner",
          "type": "address"
        }
      ],
      "name": "balanceOf",
      "outputs": [
        {
          "name": "balance",
          "type": "uint256"
        }
      ],
      "payable": false,
      "stateMutability": "view",
      "type": "function"
    },
    {
      "constant": false,
      "inputs": [
        {
          "name": "_spender",
          "type": "address"
        },
        {
          "name": "_value",
          "type": "uint256"
        }
      ],
      "name": "approve",
      "outputs": [
        {
          "name": "success",
          "type": "bool"
        }
      ],
      "payable": false,
      "stateMutability": "nonpayable",
      "type": "function"
    },
    {
      "constant": true,
      "inputs": [
        {
          "name": "_owner",
          "type": "address"
        },
        {
          "name": "_spender",
          "type": "address"
        }
      ],
      "name": "allowance",
      "outputs": [
        {
          "name": "remaining",
          "type": "uint256"
        }
      ],
      "payable": false,
      "stateMutability": "view",
      "type": "function"
    },
    {
      "constant": false,
      "inputs": [
        {
          "name": "_spender",
          "type": "address"
        },
        {
          "name": "_addedValue",
          "type": "uint256"
        }
      ],
      "name": "addApproval",
      "outputs": [
        {
          "name": "success",
          "type": "bool"
        }
      ],
      "payable": false,
      "stateMutability": "nonpayable",
      "type": "function"
    },
    {
      "constant": false,
      "inputs": [
        {
          "name": "_spender",
          "type": "address"
        },
        {
          "name": "_subtractedValue",
          "type": "uint256"
        }
      ],
      "name": "subApproval",
      "outputs": [
        {
          "name": "success",
          "type": "bool"
        }
      ],
      "payable": false,
      "stateMutability": "nonpayable",
      "type": "function"
    }
  ],
  "bytecode": "0x608060405234801561001057600080fd5b50610f68806100206000396000f30060806040526004361061008e576000357c0100000000000000000000000000000000000000000000000000000000900463ffffffff168063095ea7b31461009357806318160ddd146100f857806323b872dd1461012357806370a08231146101a8578063a9059cbb146101ff578063ac3cb72c14610264578063dd62ed3e146102c9578063e2301d0214610340575b600080fd5b34801561009f57600080fd5b506100de600480360381019080803573ffffffffffffffffffffffffffffffffffffffff169060200190929190803590602001909291905050506103a5565b604051808215151515815260200191505060405180910390f35b34801561010457600080fd5b5061010d61052e565b6040518082815260200191505060405180910390f35b34801561012f57600080fd5b5061018e600480360381019080803573ffffffffffffffffffffffffffffffffffffffff169060200190929190803573ffffffffffffffffffffffffffffffffffffffff16906020019092919080359060200190929190505050610534565b604051808215151515815260200191505060405180910390f35b3480156101b457600080fd5b506101e9600480360381019080803573ffffffffffffffffffffffffffffffffffffffff1690602001909291905050506107c9565b6040518082815260200191505060405180910390f35b34801561020b57600080fd5b5061024a600480360381019080803573ffffffffffffffffffffffffffffffffffffffff16906020019092919080359060200190929190505050610812565b604051808215151515815260200191505060405180910390f35b34801561027057600080fd5b506102af600480360381019080803573ffffffffffffffffffffffffffffffffffffffff169060200190929190803590602001909291905050506109b3565b604051808215151515815260200191505060405180910390f35b3480156102d557600080fd5b5061032a600480360381019080803573ffffffffffffffffffffffffffffffffffffffff169060200190929190803573ffffffffffffffffffffffffffffffffffffffff169060200190929190505050610bc3565b6040518082815260200191505060405180910390f35b34801561034c57600080fd5b5061038b600480360381019080803573ffffffffffffffffffffffffffffffffffffffff16906020019092919080359060200190929190505050610c4a565b604051808215151515815260200191505060405180910390f35b600080821415801561043457506000600260003373ffffffffffffffffffffffffffffffffffffffff1673ffffffffffffffffffffffffffffffffffffffff16815260200190815260200160002060008573ffffffffffffffffffffffffffffffffffffffff1673ffffffffffffffffffffffffffffffffffffffff1681526020019081526020016000205414155b1561043e57600080fd5b81600260003373ffffffffffffffffffffffffffffffffffffffff1673ffffffffffffffffffffffffffffffffffffffff16815260200190815260200160002060008573ffffffffffffffffffffffffffffffffffffffff1673ffffffffffffffffffffffffffffffffffffffff168152602001908152602001600020819055508273ffffffffffffffffffffffffffffffffffffffff163373ffffffffffffffffffffffffffffffffffffffff167f8c5be1e5ebec7d5bd14f71427d1e84f3dd0314c0f7b2291e5b200ac8c7c3b925846040518082815260200191505060405180910390a36001905092915050565b60005481565b600080600260008673ffffffffffffffffffffffffffffffffffffffff1673ffffffffffffffffffffffffffffffffffffffff16815260200190815260200160002060003373ffffffffffffffffffffffffffffffffffffffff1673ffffffffffffffffffffffffffffffffffffffff1681526020019081526020016000205490506105ff600160008673ffffffffffffffffffffffffffffffffffffffff1673ffffffffffffffffffffffffffffffffffffffff1681526020019081526020016000205484610eea565b600160008673ffffffffffffffffffffffffffffffffffffffff1673ffffffffffffffffffffffffffffffffffffffff1681526020019081526020016000208190555061068b600160008773ffffffffffffffffffffffffffffffffffffffff1673ffffffffffffffffffffffffffffffffffffffff1681526020019081526020016000205484610f14565b600160008773ffffffffffffffffffffffffffffffffffffffff1673ffffffffffffffffffffffffffffffffffffffff168152602001908152602001600020819055506106d88184610f14565b600260008773ffffffffffffffffffffffffffffffffffffffff1673ffffffffffffffffffffffffffffffffffffffff16815260200190815260200160002060003373ffffffffffffffffffffffffffffffffffffffff1673ffffffffffffffffffffffffffffffffffffffff168152602001908152602001600020819055508373ffffffffffffffffffffffffffffffffffffffff168573ffffffffffffffffffffffffffffffffffffffff167fddf252ad1be2c89b69c2b068fc378daa952ba7f163c4a11628f55a4df523b3ef856040518082815260200191505060405180910390a360019150509392505050565b6000600160008373ffffffffffffffffffffffffffffffffffffffff1673ffffffffffffffffffffffffffffffffffffffff168152602001908152602001600020549050919050565b6000604060048101600036905014151561082b57600080fd5b610874600160003373ffffffffffffffffffffffffffffffffffffffff1673ffffffffffffffffffffffffffffffffffffffff1681526020019081526020016000205484610f14565b600160003373ffffffffffffffffffffffffffffffffffffffff1673ffffffffffffffffffffffffffffffffffffffff16815260200190815260200160002081905550610900600160008673ffffffffffffffffffffffffffffffffffffffff1673ffffffffffffffffffffffffffffffffffffffff1681526020019081526020016000205484610eea565b600160008673ffffffffffffffffffffffffffffffffffffffff1673ffffffffffffffffffffffffffffffffffffffff168152602001908152602001600020819055508373ffffffffffffffffffffffffffffffffffffffff163373ffffffffffffffffffffffffffffffffffffffff167fddf252ad1be2c89b69c2b068fc378daa952ba7f163c4a11628f55a4df523b3ef856040518082815260200191505060405180910390a3600191505092915050565b60008060406004810160003690501415156109cd57600080fd5b600260003373ffffffffffffffffffffffffffffffffffffffff1673ffffffffffffffffffffffffffffffffffffffff16815260200190815260200160002060008673ffffffffffffffffffffffffffffffffffffffff1673ffffffffffffffffffffffffffffffffffffffff168152602001908152602001600020549150610a568285610eea565b600260003373ffffffffffffffffffffffffffffffffffffffff1673ffffffffffffffffffffffffffffffffffffffff16815260200190815260200160002060008773ffffffffffffffffffffffffffffffffffffffff1673ffffffffffffffffffffffffffffffffffffffff168152602001908152602001600020819055508473ffffffffffffffffffffffffffffffffffffffff163373ffffffffffffffffffffffffffffffffffffffff167f8c5be1e5ebec7d5bd14f71427d1e84f3dd0314c0f7b2291e5b200ac8c7c3b925600260003373ffffffffffffffffffffffffffffffffffffffff1673ffffffffffffffffffffffffffffffffffffffff16815260200190815260200160002060008973ffffffffffffffffffffffffffffffffffffffff1673ffffffffffffffffffffffffffffffffffffffff168152602001908152602001600020546040518082815260200191505060405180910390a360019250505092915050565b6000600260008473ffffffffffffffffffffffffffffffffffffffff1673ffffffffffffffffffffffffffffffffffffffff16815260200190815260200160002060008373ffffffffffffffffffffffffffffffffffffffff1673ffffffffffffffffffffffffffffffffffffffff16815260200190815260200160002054905092915050565b6000806040600481016000369050141515610c6457600080fd5b600260003373ffffffffffffffffffffffffffffffffffffffff1673ffffffffffffffffffffffffffffffffffffffff16815260200190815260200160002060008673ffffffffffffffffffffffffffffffffffffffff1673ffffffffffffffffffffffffffffffffffffffff16815260200190815260200160002054915081841115610d72576000600260003373ffffffffffffffffffffffffffffffffffffffff1673ffffffffffffffffffffffffffffffffffffffff16815260200190815260200160002060008773ffffffffffffffffffffffffffffffffffffffff1673ffffffffffffffffffffffffffffffffffffffff16815260200190815260200160002081905550610dfd565b610d7c8285610f14565b600260003373ffffffffffffffffffffffffffffffffffffffff1673ffffffffffffffffffffffffffffffffffffffff16815260200190815260200160002060008773ffffffffffffffffffffffffffffffffffffffff1673ffffffffffffffffffffffffffffffffffffffff168152602001908152602001600020819055505b8473ffffffffffffffffffffffffffffffffffffffff163373ffffffffffffffffffffffffffffffffffffffff167f8c5be1e5ebec7d5bd14f71427d1e84f3dd0314c0f7b2291e5b200ac8c7c3b925600260003373ffffffffffffffffffffffffffffffffffffffff1673ffffffffffffffffffffffffffffffffffffffff16815260200190815260200160002060008973ffffffffffffffffffffffffffffffffffffffff1673ffffffffffffffffffffffffffffffffffffffff168152602001908152602001600020546040518082815260200191505060405180910390a360019250505092915050565b6000808284019050610f0a848210158015610f055750838210155b610f2d565b8091505092915050565b6000610f2283831115610f2d565b818303905092915050565b801515610f3957600080fd5b505600a165627a7a7230582064aa152a5a1390a1c426e55c08c5b0ed8ee7114d9cfb947a45fc449f291993f30029",
  "source": "/*\n * ERC20 interface\n * see https://github.com/ethereum/EIPs/issues/20\n */\ncontract ERC20 {\n  uint public totalSupply;\n  function balanceOf(address who) constant returns (uint);\n  function allowance(address owner, address spender) constant returns (uint);\n\n  function transfer(address to, uint value) returns (bool ok);\n  function transferFrom(address from, address to, uint value) returns (bool ok);\n  function approve(address spender, uint value) returns (bool ok);\n  event Transfer(address indexed from, address indexed to, uint value);\n  event Approval(address indexed owner, address indexed spender, uint value);\n}\n\n\n\n/**\n * Math operations with safety checks\n */\ncontract SafeMath {\n  function safeMul(uint a, uint b) internal returns (uint) {\n    uint c = a * b;\n    assert(a == 0 || c / a == b);\n    return c;\n  }\n\n  function safeDiv(uint a, uint b) internal returns (uint) {\n    assert(b > 0);\n    uint c = a / b;\n    assert(a == b * c + a % b);\n    return c;\n  }\n\n  function safeSub(uint a, uint b) internal returns (uint) {\n    assert(b <= a);\n    return a - b;\n  }\n\n  function safeAdd(uint a, uint b) internal returns (uint) {\n    uint c = a + b;\n    assert(c>=a && c>=b);\n    return c;\n  }\n\n  function max64(uint64 a, uint64 b) internal constant returns (uint64) {\n    return a >= b ? a : b;\n  }\n\n  function min64(uint64 a, uint64 b) internal constant returns (uint64) {\n    return a < b ? a : b;\n  }\n\n  function max256(uint256 a, uint256 b) internal constant returns (uint256) {\n    return a >= b ? a : b;\n  }\n\n  function min256(uint256 a, uint256 b) internal constant returns (uint256) {\n    return a < b ? a : b;\n  }\n\n  function assert(bool assertion) internal {\n    if (!assertion) {\n      throw;\n    }\n  }\n}\n\n\n\n/**\n * Standard ERC20 token with Short Hand Attack and approve() race condition mitigation.\n *\n * Based on code by FirstBlood:\n * https://github.com/Firstbloodio/token/blob/master/smart_contract/FirstBloodToken.sol\n */\ncontract StandardToken is ERC20, SafeMath {\n\n  /* Token supply got increased and a new owner received these tokens */\n  event Minted(address receiver, uint amount);\n\n  /* Actual balances of token holders */\n  mapping(address => uint) balances;\n\n  /* approve() allowances */\n  mapping (address => mapping (address => uint)) allowed;\n\n  /**\n   *\n   * Fix for the ERC20 short address attack\n   *\n   * http://vessenes.com/the-erc20-short-address-attack-explained/\n   */\n  modifier onlyPayloadSize(uint size) {\n     if(msg.data.length != size + 4) {\n       throw;\n     }\n     _;\n  }\n\n  function transfer(address _to, uint _value) onlyPayloadSize(2 * 32) returns (bool success) {\n    balances[msg.sender] = safeSub(balances[msg.sender], _value);\n    balances[_to] = safeAdd(balances[_to], _value);\n    Transfer(msg.sender, _to, _value);\n    return true;\n  }\n\n  function transferFrom(address _from, address _to, uint _value) returns (bool success) {\n    uint _allowance = allowed[_from][msg.sender];\n\n    // Check is not needed because safeSub(_allowance, _value) will already throw if this condition is not met\n    // if (_value > _allowance) throw;\n\n    balances[_to] = safeAdd(balances[_to], _value);\n    balances[_from] = safeSub(balances[_from], _value);\n    allowed[_from][msg.sender] = safeSub(_allowance, _value);\n    Transfer(_from, _to, _value);\n    return true;\n  }\n\n  function balanceOf(address _owner) constant returns (uint balance) {\n    return balances[_owner];\n  }\n\n  function approve(address _spender, uint _value) returns (bool success) {\n\n    // To change the approve amount you first have to reduce the addresses`\n    //  allowance to zero by calling `approve(_spender, 0)` if it is not\n    //  already 0 to mitigate the race condition described here:\n    //  https://github.com/ethereum/EIPs/issues/20#issuecomment-263524729\n    if ((_value != 0) && (allowed[msg.sender][_spender] != 0)) throw;\n\n    allowed[msg.sender][_spender] = _value;\n    Approval(msg.sender, _spender, _value);\n    return true;\n  }\n\n  function allowance(address _owner, address _spender) constant returns (uint remaining) {\n    return allowed[_owner][_spender];\n  }\n\n  /**\n   * Atomic increment of approved spending\n   *\n   * Works around https://github.com/ethereum/EIPs/issues/20#issuecomment-263524729\n   *\n   */\n  function addApproval(address _spender, uint _addedValue)\n  onlyPayloadSize(2 * 32)\n  returns (bool success) {\n      uint oldValue = allowed[msg.sender][_spender];\n      allowed[msg.sender][_spender] = safeAdd(oldValue, _addedValue);\n      Approval(msg.sender, _spender, allowed[msg.sender][_spender]);\n      return true;\n  }\n\n  /**\n   * Atomic decrement of approved spending.\n   *\n   * Works around https://github.com/ethereum/EIPs/issues/20#issuecomment-263524729\n   */\n  function subApproval(address _spender, uint _subtractedValue)\n  onlyPayloadSize(2 * 32)\n  returns (bool success) {\n\n      uint oldVal = allowed[msg.sender][_spender];\n\n      if (_subtractedValue > oldVal) {\n          allowed[msg.sender][_spender] = 0;\n      } else {\n          allowed[msg.sender][_spender] = safeSub(oldVal, _subtractedValue);\n      }\n      Approval(msg.sender, _spender, allowed[msg.sender][_spender]);\n      return true;\n  }\n\n}\n\n\n\ncontract BurnableToken is StandardToken {\n\n  address public constant BURN_ADDRESS = 0;\n\n  /** How many tokens we burned */\n  event Burned(address burner, uint burnedAmount);\n\n  /**\n   * Burn extra tokens from a balance.\n   *\n   */\n  function burn(uint burnAmount) {\n    address burner = msg.sender;\n    balances[burner] = safeSub(balances[burner], burnAmount);\n    totalSupply = safeSub(totalSupply, burnAmount);\n    Burned(burner, burnAmount);\n  }\n}\n\n\n\n\n\n/**\n * Upgrade agent interface inspired by Lunyr.\n *\n * Upgrade agent transfers tokens to a new contract.\n * Upgrade agent itself can be the token contract, or just a middle man contract doing the heavy lifting.\n */\ncontract UpgradeAgent {\n\n  uint public originalSupply;\n\n  /** Interface marker */\n  function isUpgradeAgent() public constant returns (bool) {\n    return true;\n  }\n\n  function upgradeFrom(address _from, uint256 _value) public;\n\n}\n\n\n/**\n * A token upgrade mechanism where users can opt-in amount of tokens to the next smart contract revision.\n *\n * First envisioned by Golem and Lunyr projects.\n */\ncontract UpgradeableToken is StandardToken {\n\n  /** Contract / person who can set the upgrade path. This can be the same as team multisig wallet, as what it is with its default value. */\n  address public upgradeMaster;\n\n  /** The next contract where the tokens will be migrated. */\n  UpgradeAgent public upgradeAgent;\n\n  /** How many tokens we have upgraded by now. */\n  uint256 public totalUpgraded;\n\n  /**\n   * Upgrade states.\n   *\n   * - NotAllowed: The child contract has not reached a condition where the upgrade can bgun\n   * - WaitingForAgent: Token allows upgrade, but we don't have a new agent yet\n   * - ReadyToUpgrade: The agent is set, but not a single token has been upgraded yet\n   * - Upgrading: Upgrade agent is set and the balance holders can upgrade their tokens\n   *\n   */\n  enum UpgradeState {Unknown, NotAllowed, WaitingForAgent, ReadyToUpgrade, Upgrading}\n\n  /**\n   * Somebody has upgraded some of his tokens.\n   */\n  event Upgrade(address indexed _from, address indexed _to, uint256 _value);\n\n  /**\n   * New upgrade agent available.\n   */\n  event UpgradeAgentSet(address agent);\n\n  /**\n   * Do not allow construction without upgrade master set.\n   */\n  function UpgradeableToken(address _upgradeMaster) {\n    upgradeMaster = _upgradeMaster;\n  }\n\n  /**\n   * Allow the token holder to upgrade some of their tokens to a new contract.\n   */\n  function upgrade(uint256 value) public {\n\n      UpgradeState state = getUpgradeState();\n      if(!(state == UpgradeState.ReadyToUpgrade || state == UpgradeState.Upgrading)) {\n        // Called in a bad state\n        throw;\n      }\n\n      // Validate input value.\n      if (value == 0) throw;\n\n      balances[msg.sender] = safeSub(balances[msg.sender], value);\n\n      // Take tokens out from circulation\n      totalSupply = safeSub(totalSupply, value);\n      totalUpgraded = safeAdd(totalUpgraded, value);\n\n      // Upgrade agent reissues the tokens\n      upgradeAgent.upgradeFrom(msg.sender, value);\n      Upgrade(msg.sender, upgradeAgent, value);\n  }\n\n  /**\n   * Set an upgrade agent that handles\n   */\n  function setUpgradeAgent(address agent) external {\n\n      if(!canUpgrade()) {\n        // The token is not yet in a state that we could think upgrading\n        throw;\n      }\n\n      if (agent == 0x0) throw;\n      // Only a master can designate the next agent\n      if (msg.sender != upgradeMaster) throw;\n      // Upgrade has already begun for an agent\n      if (getUpgradeState() == UpgradeState.Upgrading) throw;\n\n      upgradeAgent = UpgradeAgent(agent);\n\n      // Bad interface\n      if(!upgradeAgent.isUpgradeAgent()) throw;\n      // Make sure that token supplies match in source and target\n      if (upgradeAgent.originalSupply() != totalSupply) throw;\n\n      UpgradeAgentSet(upgradeAgent);\n  }\n\n  /**\n   * Get the state of the token upgrade.\n   */\n  function getUpgradeState() public constant returns(UpgradeState) {\n    if(!canUpgrade()) return UpgradeState.NotAllowed;\n    else if(address(upgradeAgent) == 0x00) return UpgradeState.WaitingForAgent;\n    else if(totalUpgraded == 0) return UpgradeState.ReadyToUpgrade;\n    else return UpgradeState.Upgrading;\n  }\n\n  /**\n   * Change the upgrade master.\n   *\n   * This allows us to set a new owner for the upgrade mechanism.\n   */\n  function setUpgradeMaster(address master) public {\n      if (master == 0x0) throw;\n      if (msg.sender != upgradeMaster) throw;\n      upgradeMaster = master;\n  }\n\n  /**\n   * Child contract can enable to provide the condition when the upgrade can begun.\n   */\n  function canUpgrade() public constant returns(bool) {\n     return true;\n  }\n\n}\n\n\ncontract HYIPToken is BurnableToken, UpgradeableToken {\n\n  string public name;\n  string public symbol;\n  uint public decimals;\n  address public owner;\n\n  /** List of agents that are allowed to create new tokens */\n  mapping (address => bool) public mintAgents;\n\n  event MintingAgentChanged(address addr, bool state);\n\n  /**\n   * Create new tokens and allocate them to an address..\n   *\n   * Only callably by a crowdsale contract (mint agent).\n   */\n  function mint(address receiver, uint amount) onlyMintAgent public {\n    totalSupply = totalSupply + amount;\n    balances[receiver] = balances[receiver] + amount;\n\n    // This will make the mint transaction apper in EtherScan.io\n    // We can remove this after there is a standardized minting event\n    Transfer(0, receiver, amount);\n  }\n\n  /**\n   * Owner can allow a crowdsale contract to mint new tokens.\n   */\n  function setMintAgent(address addr, bool state) onlyOwner public {\n    mintAgents[addr] = state;\n    MintingAgentChanged(addr, state);\n  }\n\n  modifier onlyMintAgent() {\n    // Only crowdsale contracts are allowed to mint new tokens\n    if(!mintAgents[msg.sender]) {\n        throw;\n    }\n    _;\n  }\n\n  modifier onlyOwner() {\n    if (msg.sender != owner) {\n      throw;\n    }\n    _;\n  }\n\n  function HYIPToken(address _owner, string _name, string _symbol, uint _totalSupply, uint _decimals) UpgradeableToken(_owner) {\n    name = _name;\n    symbol = _symbol;\n    totalSupply = _totalSupply;\n    decimals = _decimals;\n\n    // Allocate initial balance to the owner\n    balances[_owner] = _totalSupply;\n    owner = _owner;\n  }\n}\n",
  "sourcePath": "/workdir/truffle_example/0x2d6669c810bf1444D2e5e7f4cfC56a4c10cf7A2A/contracts/0x2d6669c810bf1444D2e5e7f4cfC56a4c10cf7A2A.sol",
  "compiler": {
    "name": "solc",
    "version": "0.4.25+commit.59dbf8f1.Emscripten.clang"
  },
  "schemaVersion": "3.4.8",
  "updatedAt": "2022-08-11T03:42:12.336Z",
  "devdoc": {
    "methods": {}
  },
  "userdoc": {
    "methods": {
      "addApproval(address,uint256)": {
        "notice": "Atomic increment of approved spending   * Works around https://github.com/ethereum/EIPs/issues/20#issuecomment-263524729   "
      },
      "subApproval(address,uint256)": {
        "notice": "Atomic decrement of approved spending.   * Works around https://github.com/ethereum/EIPs/issues/20#issuecomment-263524729"
      }
    }
  }
}