{
  "contractName": "RealOldFuckMaker",
  "abi": [
    {
      "constant": false,
      "inputs": [
        {
          "name": "number",
          "type": "uint32"
        }
      ],
      "name": "makeOldFucks",
      "outputs": [],
      "payable": false,
      "stateMutability": "nonpayable",
      "type": "function"
    }
  ],
  "bytecode": "0x608060405273c63e7b1dece63a77ed7e4aeef5efb3b05c81438d6000806101000a81548173ffffffffffffffffffffffffffffffffffffffff021916908373ffffffffffffffffffffffffffffffffffffffff16021790555034801561006457600080fd5b5061019f806100746000396000f300608060405260043610610041576000357c0100000000000000000000000000000000000000000000000000000000900463ffffffff168063b535c74114610046575b600080fd5b34801561005257600080fd5b50610077600480360381019080803563ffffffff169060200190929190505050610079565b005b60008090505b8163ffffffff168163ffffffff16101561016f576000809054906101000a900473ffffffffffffffffffffffffffffffffffffffff1673ffffffffffffffffffffffffffffffffffffffff1660405180807f67697665426c6f636b5265776172642829000000000000000000000000000000815250601101905060405180910390207c010000000000000000000000000000000000000000000000000000000090046040518163ffffffff167c01000000000000000000000000000000000000000000000000000000000281526004016000604051808303816000875af19250505050808060010191505061007f565b50505600a165627a7a7230582004e1df414a48e1d8eb87a3efec67ae9b1a0e3e60f5fb3eea6a5a6155ada687b30029",
  "source": "/*\r\n * @source: etherscan.io \r\n * @author: -\r\n * @vulnerable_at_lines: 18\r\n */\r\n\r\npragma solidity ^0.4.16;\r\n\r\ncontract RealOldFuckMaker {\r\n    address fuck = 0xc63e7b1DEcE63A77eD7E4Aeef5efb3b05C81438D;\r\n    \r\n    // this can make OVER 9,000 OLD FUCKS\r\n    // (just pass in 129)\r\n    function makeOldFucks(uint32 number) {\r\n        uint32 i;\r\n        for (i = 0; i < number; i++) {\r\n            // <yes> <report> UNCHECKED_LL_CALLS\r\n            fuck.call(bytes4(sha3(\"giveBlockReward()\")));\r\n        }\r\n    }\r\n}",
  "sourcePath": "/workdir/truffle_example/before/0xf2570186500a46986f3139f65afedc2afe4f445d/contracts/0xf2570186500a46986f3139f65afedc2afe4f445d.sol",
  "compiler": {
    "name": "solc",
    "version": "0.4.25+commit.59dbf8f1.Emscripten.clang"
  },
  "schemaVersion": "3.4.8",
  "updatedAt": "2022-08-14T10:15:32.676Z",
  "networkType": "ethereum",
  "devdoc": {
    "methods": {}
  },
  "userdoc": {
    "methods": {}
  }
}