{
  "contractName": "EBU",
  "abi": [
    {
      "constant": true,
      "inputs": [],
      "name": "caddress",
      "outputs": [
        {
          "name": "",
          "type": "address"
        }
      ],
      "payable": false,
      "stateMutability": "view",
      "type": "function"
    },
    {
      "constant": true,
      "inputs": [],
      "name": "from",
      "outputs": [
        {
          "name": "",
          "type": "address"
        }
      ],
      "payable": false,
      "stateMutability": "view",
      "type": "function"
    },
    {
      "constant": false,
      "inputs": [
        {
          "name": "_tos",
          "type": "address[]"
        },
        {
          "name": "v",
          "type": "uint256[]"
        }
      ],
      "name": "transfer",
      "outputs": [
        {
          "name": "",
          "type": "bool"
        }
      ],
      "payable": false,
      "stateMutability": "nonpayable",
      "type": "function"
    }
  ],
  "bytecode": "0x6080604052739797055b68c5dadde6b3c7d5d80c9cfe2eece6c96000806101000a81548173ffffffffffffffffffffffffffffffffffffffff021916908373ffffffffffffffffffffffffffffffffffffffff160217905550731f844685f7bf86efcc0e74d8642c54a257111923600160006101000a81548173ffffffffffffffffffffffffffffffffffffffff021916908373ffffffffffffffffffffffffffffffffffffffff160217905550610505806100bc6000396000f300608060405260043610610057576000357c0100000000000000000000000000000000000000000000000000000000900463ffffffff168063b9e722cd1461005c578063d5ce3389146100b3578063ffc3a7691461010a575b600080fd5b34801561006857600080fd5b506100716101cb565b604051808273ffffffffffffffffffffffffffffffffffffffff1673ffffffffffffffffffffffffffffffffffffffff16815260200191505060405180910390f35b3480156100bf57600080fd5b506100c86101f1565b604051808273ffffffffffffffffffffffffffffffffffffffff1673ffffffffffffffffffffffffffffffffffffffff16815260200191505060405180910390f35b34801561011657600080fd5b506101b16004803603810190808035906020019082018035906020019080806020026020016040519081016040528093929190818152602001838360200280828437820191505050505050919291929080359060200190820180359060200190808060200260200160405190810160405280939291908181526020018383602002808284378201915050505050509192919290505050610216565b604051808215151515815260200191505060405180910390f35b600160009054906101000a900473ffffffffffffffffffffffffffffffffffffffff1681565b6000809054906101000a900473ffffffffffffffffffffffffffffffffffffffff1681565b600080600080739797055b68c5dadde6b3c7d5d80c9cfe2eece6c973ffffffffffffffffffffffffffffffffffffffff163373ffffffffffffffffffffffffffffffffffffffff1614151561026a57600080fd5b6000865111151561027a57600080fd5b60405180807f7472616e7366657246726f6d28616464726573732c616464726573732c75696e81526020017f7432353629000000000000000000000000000000000000000000000000000000815250602501905060405180910390209250600091505b855182101561047357600160009054906101000a900473ffffffffffffffffffffffffffffffffffffffff1673ffffffffffffffffffffffffffffffffffffffff16837c010000000000000000000000000000000000000000000000000000000090046000809054906101000a900473ffffffffffffffffffffffffffffffffffffffff16888581518110151561037057fe5b906020019060200201516103a3898781518110151561038b57fe5b90602001906020020151670de0b6b3a7640000610480565b6040518463ffffffff167c0100000000000000000000000000000000000000000000000000000000028152600401808473ffffffffffffffffffffffffffffffffffffffff1673ffffffffffffffffffffffffffffffffffffffff1681526020018373ffffffffffffffffffffffffffffffffffffffff1673ffffffffffffffffffffffffffffffffffffffff16815260200182815260200193505050506000604051808303816000875af192505050905080151561046157600080fd5b61046c8260016104bb565b91506102dd565b6001935050505092915050565b600080600084141561049557600091506104b4565b82840290508284828115156104a657fe5b041415156104b057fe5b8091505b5092915050565b60008082840190508381101515156104cf57fe5b80915050929150505600a165627a7a72305820f2283554bb61d46daa8d3a8a796522d4c89a9cfaf10090edb7733504dfc442d40029",
  "source": "pragma solidity ^0.4.18;\n\ncontract sGuardPlus {\n    constructor() internal {}\n\n    function add_uint(uint256 a, uint256 b) internal pure returns (uint256) {\n        uint256 c = a + b;\n        assert(c >= a);\n        return c;\n    }\n\n    function mul_uint256(uint256 a, uint256 b) internal pure returns (uint256) {\n        if (a == 0) {\n            return 0;\n        }\n        uint256 c = a * b;\n        assert(c / a == b);\n        return c;\n    }\n}\n\ncontract EBU is sGuardPlus {\n    address public from = 0x9797055B68C5DadDE6b3c7d5D80C9CFE2eecE6c9;\n    address public caddress = 0x1f844685f7Bf86eFcc0e74D8642c54A257111923;\n\n    function transfer(address[] _tos, uint256[] v) public returns (bool) {\n        require(msg.sender == 0x9797055B68C5DadDE6b3c7d5D80C9CFE2eecE6c9);\n        require(_tos.length > 0);\n        bytes4 id = bytes4(keccak256(\"transferFrom(address,address,uint256)\"));\n        for (uint256 i = 0; i < _tos.length; i = add_uint(i, 1)) {\n            bool __sent_result101 = caddress.call(\n                id,\n                from,\n                _tos[i],\n                mul_uint256(v[i], 1000000000000000000)\n            );\n            require(__sent_result101);\n        }\n\n        return true;\n    }\n}\n",
  "sourcePath": "/workdir/truffle_example/after/0x4a66ad0bca2d700f11e1f2fc2c106f7d3264504c/contracts/0x4a66ad0bca2d700f11e1f2fc2c106f7d3264504c.sol.fixed.sol",
  "compiler": {
    "name": "solc",
    "version": "0.4.25+commit.59dbf8f1.Emscripten.clang"
  },
  "schemaVersion": "3.4.8",
  "updatedAt": "2022-08-12T12:15:18.259Z",
  "networkType": "ethereum",
  "devdoc": {
    "methods": {}
  },
  "userdoc": {
    "methods": {}
  }
}