{
  "contractName": "Proxy",
  "abi": [
    {
      "constant": false,
      "inputs": [
        {
          "name": "_owner",
          "type": "address"
        }
      ],
      "name": "transferOwner",
      "outputs": [],
      "payable": false,
      "stateMutability": "nonpayable",
      "type": "function"
    },
    {
      "constant": false,
      "inputs": [
        {
          "name": "target",
          "type": "address"
        },
        {
          "name": "data",
          "type": "bytes"
        }
      ],
      "name": "proxy",
      "outputs": [],
      "payable": true,
      "stateMutability": "payable",
      "type": "function"
    }
  ],
  "bytecode": "0x6080604052336000806101000a81548173ffffffffffffffffffffffffffffffffffffffff021916908373ffffffffffffffffffffffffffffffffffffffff16021790555034801561005057600080fd5b50610262806100606000396000f30060806040526004361061004c576000357c0100000000000000000000000000000000000000000000000000000000900463ffffffff1680634fb2e45d14610051578063be6d055a14610094575b600080fd5b34801561005d57600080fd5b50610092600480360381019080803573ffffffffffffffffffffffffffffffffffffffff169060200190929190505050610110565b005b61010e600480360381019080803573ffffffffffffffffffffffffffffffffffffffff169060200190929190803590602001908201803590602001908080601f01602080910402602001604051908101604052809392919081815260200183838082843782019150505050505091929192905050506101a9565b005b6000809054906101000a900473ffffffffffffffffffffffffffffffffffffffff1673ffffffffffffffffffffffffffffffffffffffff163373ffffffffffffffffffffffffffffffffffffffff1614156101a657806000806101000a81548173ffffffffffffffffffffffffffffffffffffffff021916908373ffffffffffffffffffffffffffffffffffffffff1602179055505b50565b8173ffffffffffffffffffffffffffffffffffffffff16348260405180828051906020019080838360005b838110156101ef5780820151818401526020810190506101d4565b50505050905090810190601f16801561021c5780820380516001836020036101000a031916815260200191505b5091505060006040518083038185875af1925050505050505600a165627a7a723058207d4e89fb138078b181a0f54b9665d451ab2c2d111f78bca88319eb175b71f05c0029",
  "source": "/*\r\n * @source: etherscan.io \r\n * @author: -\r\n * @vulnerable_at_lines: 14\r\n */\r\n\r\npragma solidity ^0.4.24;\r\n\r\ncontract Proxy  {\r\n    modifier onlyOwner { if (msg.sender == Owner) _; } address Owner = msg.sender;\r\n    function transferOwner(address _owner) public onlyOwner { Owner = _owner; } \r\n    function proxy(address target, bytes data) public payable {\r\n        // <yes> <report> UNCHECKED_LL_CALLS\r\n        target.call.value(msg.value)(data);\r\n    }\r\n}\r\n\r\ncontract VaultProxy is Proxy {\r\n    address public Owner;\r\n    mapping (address => uint256) public Deposits;\r\n\r\n    function () public payable { }\r\n    \r\n    function Vault() public payable {\r\n        if (msg.sender == tx.origin) {\r\n            Owner = msg.sender;\r\n            deposit();\r\n        }\r\n    }\r\n    \r\n    function deposit() public payable {\r\n        if (msg.value > 0.5 ether) {\r\n            Deposits[msg.sender] += msg.value;\r\n        }\r\n    }\r\n    \r\n    function withdraw(uint256 amount) public onlyOwner {\r\n        if (amount>0 && Deposits[msg.sender]>=amount) {\r\n            msg.sender.transfer(amount);\r\n        }\r\n    }\r\n}",
  "sourcePath": "/workdir/truffle_example/0xbebbfe5b549f5db6e6c78ca97cac19d1fb03082c/contracts/0xbebbfe5b549f5db6e6c78ca97cac19d1fb03082c.sol",
  "compiler": {
    "name": "solc",
    "version": "0.4.25+commit.59dbf8f1.Emscripten.clang"
  },
  "schemaVersion": "3.4.8",
  "updatedAt": "2022-08-11T12:20:06.640Z",
  "devdoc": {
    "methods": {}
  },
  "userdoc": {
    "methods": {}
  }
}