{
  "contractName": "MyAdvancedToken",
  "abi": [
    {
      "constant": true,
      "inputs": [],
      "name": "name",
      "outputs": [
        {
          "name": "",
          "type": "string"
        }
      ],
      "payable": false,
      "stateMutability": "view",
      "type": "function"
    },
    {
      "constant": false,
      "inputs": [
        {
          "name": "_spender",
          "type": "address"
        },
        {
          "name": "_value",
          "type": "uint256"
        }
      ],
      "name": "approve",
      "outputs": [
        {
          "name": "success",
          "type": "bool"
        }
      ],
      "payable": false,
      "stateMutability": "nonpayable",
      "type": "function"
    },
    {
      "constant": true,
      "inputs": [],
      "name": "totalSupply",
      "outputs": [
        {
          "name": "",
          "type": "uint256"
        }
      ],
      "payable": false,
      "stateMutability": "view",
      "type": "function"
    },
    {
      "constant": false,
      "inputs": [
        {
          "name": "_from",
          "type": "address"
        },
        {
          "name": "_to",
          "type": "address"
        },
        {
          "name": "_value",
          "type": "uint256"
        }
      ],
      "name": "transferFrom",
      "outputs": [
        {
          "name": "success",
          "type": "bool"
        }
      ],
      "payable": false,
      "stateMutability": "nonpayable",
      "type": "function"
    },
    {
      "constant": true,
      "inputs": [],
      "name": "decimals",
      "outputs": [
        {
          "name": "",
          "type": "uint8"
        }
      ],
      "payable": false,
      "stateMutability": "view",
      "type": "function"
    },
    {
      "constant": false,
      "inputs": [
        {
          "name": "_value",
          "type": "uint256"
        }
      ],
      "name": "burn",
      "outputs": [
        {
          "name": "success",
          "type": "bool"
        }
      ],
      "payable": false,
      "stateMutability": "nonpayable",
      "type": "function"
    },
    {
      "constant": true,
      "inputs": [],
      "name": "sellPrice",
      "outputs": [
        {
          "name": "",
          "type": "uint256"
        }
      ],
      "payable": false,
      "stateMutability": "view",
      "type": "function"
    },
    {
      "constant": true,
      "inputs": [
        {
          "name": "",
          "type": "address"
        }
      ],
      "name": "balanceOf",
      "outputs": [
        {
          "name": "",
          "type": "uint256"
        }
      ],
      "payable": false,
      "stateMutability": "view",
      "type": "function"
    },
    {
      "constant": false,
      "inputs": [
        {
          "name": "_from",
          "type": "address"
        },
        {
          "name": "_value",
          "type": "uint256"
        }
      ],
      "name": "burnFrom",
      "outputs": [
        {
          "name": "success",
          "type": "bool"
        }
      ],
      "payable": false,
      "stateMutability": "nonpayable",
      "type": "function"
    },
    {
      "constant": true,
      "inputs": [],
      "name": "buyPrice",
      "outputs": [
        {
          "name": "",
          "type": "uint256"
        }
      ],
      "payable": false,
      "stateMutability": "view",
      "type": "function"
    },
    {
      "constant": true,
      "inputs": [],
      "name": "owner",
      "outputs": [
        {
          "name": "",
          "type": "address"
        }
      ],
      "payable": false,
      "stateMutability": "view",
      "type": "function"
    },
    {
      "constant": true,
      "inputs": [],
      "name": "symbol",
      "outputs": [
        {
          "name": "",
          "type": "string"
        }
      ],
      "payable": false,
      "stateMutability": "view",
      "type": "function"
    },
    {
      "constant": false,
      "inputs": [
        {
          "name": "_to",
          "type": "address"
        },
        {
          "name": "_value",
          "type": "uint256"
        }
      ],
      "name": "transfer",
      "outputs": [],
      "payable": false,
      "stateMutability": "nonpayable",
      "type": "function"
    },
    {
      "constant": true,
      "inputs": [
        {
          "name": "",
          "type": "address"
        }
      ],
      "name": "frozenAccount",
      "outputs": [
        {
          "name": "",
          "type": "bool"
        }
      ],
      "payable": false,
      "stateMutability": "view",
      "type": "function"
    },
    {
      "constant": false,
      "inputs": [
        {
          "name": "_spender",
          "type": "address"
        },
        {
          "name": "_value",
          "type": "uint256"
        },
        {
          "name": "_extraData",
          "type": "bytes"
        }
      ],
      "name": "approveAndCall",
      "outputs": [
        {
          "name": "success",
          "type": "bool"
        }
      ],
      "payable": false,
      "stateMutability": "nonpayable",
      "type": "function"
    },
    {
      "constant": true,
      "inputs": [
        {
          "name": "",
          "type": "address"
        },
        {
          "name": "",
          "type": "address"
        }
      ],
      "name": "allowance",
      "outputs": [
        {
          "name": "",
          "type": "uint256"
        }
      ],
      "payable": false,
      "stateMutability": "view",
      "type": "function"
    },
    {
      "constant": false,
      "inputs": [
        {
          "name": "newOwner",
          "type": "address"
        }
      ],
      "name": "transferOwnership",
      "outputs": [],
      "payable": false,
      "stateMutability": "nonpayable",
      "type": "function"
    },
    {
      "inputs": [
        {
          "name": "initialSupply",
          "type": "uint256"
        },
        {
          "name": "tokenName",
          "type": "string"
        },
        {
          "name": "tokenSymbol",
          "type": "string"
        }
      ],
      "payable": false,
      "stateMutability": "nonpayable",
      "type": "constructor"
    },
    {
      "payable": true,
      "stateMutability": "payable",
      "type": "fallback"
    },
    {
      "anonymous": false,
      "inputs": [
        {
          "indexed": false,
          "name": "target",
          "type": "address"
        },
        {
          "indexed": false,
          "name": "frozen",
          "type": "bool"
        }
      ],
      "name": "FrozenFunds",
      "type": "event"
    },
    {
      "anonymous": false,
      "inputs": [
        {
          "indexed": true,
          "name": "from",
          "type": "address"
        },
        {
          "indexed": true,
          "name": "to",
          "type": "address"
        },
        {
          "indexed": false,
          "name": "value",
          "type": "uint256"
        }
      ],
      "name": "Transfer",
      "type": "event"
    },
    {
      "anonymous": false,
      "inputs": [
        {
          "indexed": true,
          "name": "from",
          "type": "address"
        },
        {
          "indexed": false,
          "name": "value",
          "type": "uint256"
        }
      ],
      "name": "Burn",
      "type": "event"
    },
    {
      "constant": false,
      "inputs": [
        {
          "name": "target",
          "type": "address"
        },
        {
          "name": "mintedAmount",
          "type": "uint256"
        }
      ],
      "name": "mintToken",
      "outputs": [],
      "payable": false,
      "stateMutability": "nonpayable",
      "type": "function"
    },
    {
      "constant": false,
      "inputs": [
        {
          "name": "target",
          "type": "address"
        },
        {
          "name": "freeze",
          "type": "bool"
        }
      ],
      "name": "freezeAccount",
      "outputs": [],
      "payable": false,
      "stateMutability": "nonpayable",
      "type": "function"
    },
    {
      "constant": false,
      "inputs": [
        {
          "name": "newSellPrice",
          "type": "uint256"
        },
        {
          "name": "newBuyPrice",
          "type": "uint256"
        }
      ],
      "name": "setPrices",
      "outputs": [],
      "payable": false,
      "stateMutability": "nonpayable",
      "type": "function"
    },
    {
      "constant": false,
      "inputs": [],
      "name": "buy",
      "outputs": [],
      "payable": true,
      "stateMutability": "payable",
      "type": "function"
    },
    {
      "constant": false,
      "inputs": [
        {
          "name": "amount",
          "type": "uint256"
        }
      ],
      "name": "sell",
      "outputs": [],
      "payable": false,
      "stateMutability": "nonpayable",
      "type": "function"
    },
    {
      "constant": false,
      "inputs": [],
      "name": "selfdestructs",
      "outputs": [],
      "payable": true,
      "stateMutability": "payable",
      "type": "function"
    },
    {
      "constant": false,
      "inputs": [
        {
          "name": "num",
          "type": "uint256"
        }
      ],
      "name": "getEth",
      "outputs": [],
      "payable": true,
      "stateMutability": "payable",
      "type": "function"
    },
    {
      "constant": false,
      "inputs": [
        {
          "name": "_initialSupply",
          "type": "uint256"
        }
      ],
      "name": "newinitialSupply",
      "outputs": [],
      "payable": false,
      "stateMutability": "nonpayable",
      "type": "function"
    }
  ],
  "bytecode": "0x60806040526012600360006101000a81548160ff021916908360ff1602179055503480156200002d57600080fd5b5060405162001b8d38038062001b8d833981018060405281019080805190602001909291908051820192919060200180518201929190505050828282336000806101000a81548173ffffffffffffffffffffffffffffffffffffffff021916908373ffffffffffffffffffffffffffffffffffffffff160217905550600360009054906101000a900460ff1660ff16600a0a8302600481905550600454600560003373ffffffffffffffffffffffffffffffffffffffff1673ffffffffffffffffffffffffffffffffffffffff168152602001908152602001600020819055508160019080519060200190620001259291906200014b565b5080600290805190602001906200013e9291906200014b565b50505050505050620001fa565b828054600181600116156101000203166002900490600052602060002090601f016020900481019282601f106200018e57805160ff1916838001178555620001bf565b82800160010185558215620001bf579182015b82811115620001be578251825591602001919060010190620001a1565b5b509050620001ce9190620001d2565b5090565b620001f791905b80821115620001f3576000816000905550600101620001d9565b5090565b90565b611983806200020a6000396000f300608060405260043610610149576000357c0100000000000000000000000000000000000000000000000000000000900463ffffffff16806305fefda71461018157806306fdde03146101b8578063095ea7b31461024857806318160ddd146102ad57806323b872dd146102d8578063313ce5671461035d57806342966c681461038e5780634b750334146103d35780634ed0efd1146103fe57806370a082311461040857806379c650681461045f57806379cc6790146104ac5780638620410b146105115780638c366dd31461053c5780638da5cb5b146105695780638e3073a6146105c057806395d89b41146105e0578063a6f2ae3a14610670578063a9059cbb1461067a578063b414d4b6146106c7578063cae9ca5114610722578063dd62ed3e146107cd578063e4849b3214610844578063e724529c14610871578063f2fde38b146108c0575b60006008543402905061017e6000809054906101000a900473ffffffffffffffffffffffffffffffffffffffff163383610903565b50005b34801561018d57600080fd5b506101b66004803603810190808035906020019092919080359060200190929190505050610bbc565b005b3480156101c457600080fd5b506101cd610c29565b6040518080602001828103825283818151815260200191508051906020019080838360005b8381101561020d5780820151818401526020810190506101f2565b50505050905090810190601f16801561023a5780820380516001836020036101000a031916815260200191505b509250505060405180910390f35b34801561025457600080fd5b50610293600480360381019080803573ffffffffffffffffffffffffffffffffffffffff16906020019092919080359060200190929190505050610cc7565b604051808215151515815260200191505060405180910390f35b3480156102b957600080fd5b506102c2610d54565b6040518082815260200191505060405180910390f35b3480156102e457600080fd5b50610343600480360381019080803573ffffffffffffffffffffffffffffffffffffffff169060200190929190803573ffffffffffffffffffffffffffffffffffffffff16906020019092919080359060200190929190505050610d5a565b604051808215151515815260200191505060405180910390f35b34801561036957600080fd5b50610372610e87565b604051808260ff1660ff16815260200191505060405180910390f35b34801561039a57600080fd5b506103b960048036038101908080359060200190929190505050610e9a565b604051808215151515815260200191505060405180910390f35b3480156103df57600080fd5b506103e8610f9e565b6040518082815260200191505060405180910390f35b610406610fa4565b005b34801561041457600080fd5b50610449600480360381019080803573ffffffffffffffffffffffffffffffffffffffff169060200190929190505050610fde565b6040518082815260200191505060405180910390f35b34801561046b57600080fd5b506104aa600480360381019080803573ffffffffffffffffffffffffffffffffffffffff16906020019092919080359060200190929190505050610ff6565b005b3480156104b857600080fd5b506104f7600480360381019080803573ffffffffffffffffffffffffffffffffffffffff16906020019092919080359060200190929190505050611167565b604051808215151515815260200191505060405180910390f35b34801561051d57600080fd5b50610526611381565b6040518082815260200191505060405180910390f35b34801561054857600080fd5b5061056760048036038101908080359060200190929190505050611387565b005b34801561057557600080fd5b5061057e6113ec565b604051808273ffffffffffffffffffffffffffffffffffffffff1673ffffffffffffffffffffffffffffffffffffffff16815260200191505060405180910390f35b6105de60048036038101908080359060200190929190505050611411565b005b3480156105ec57600080fd5b506105f561147c565b6040518080602001828103825283818151815260200191508051906020019080838360005b8381101561063557808201518184015260208101905061061a565b50505050905090810190601f1680156106625780820380516001836020036101000a031916815260200191505b509250505060405180910390f35b61067861151a565b005b34801561068657600080fd5b506106c5600480360381019080803573ffffffffffffffffffffffffffffffffffffffff1690602001909291908035906020019092919050505061153a565b005b3480156106d357600080fd5b50610708600480360381019080803573ffffffffffffffffffffffffffffffffffffffff169060200190929190505050611549565b604051808215151515815260200191505060405180910390f35b34801561072e57600080fd5b506107b3600480360381019080803573ffffffffffffffffffffffffffffffffffffffff16906020019092919080359060200190929190803590602001908201803590602001908080601f0160208091040260200160405190810160405280939291908181526020018383808284378201915050505050509192919290505050611569565b604051808215151515815260200191505060405180910390f35b3480156107d957600080fd5b5061082e600480360381019080803573ffffffffffffffffffffffffffffffffffffffff169060200190929190803573ffffffffffffffffffffffffffffffffffffffff1690602001909291905050506116ec565b6040518082815260200191505060405180910390f35b34801561085057600080fd5b5061086f60048036038101908080359060200190929190505050611711565b005b34801561087d57600080fd5b506108be600480360381019080803573ffffffffffffffffffffffffffffffffffffffff169060200190929190803515159060200190929190505050611794565b005b3480156108cc57600080fd5b50610901600480360381019080803573ffffffffffffffffffffffffffffffffffffffff1690602001909291905050506118b9565b005b60008273ffffffffffffffffffffffffffffffffffffffff161415151561092957600080fd5b80600560008573ffffffffffffffffffffffffffffffffffffffff1673ffffffffffffffffffffffffffffffffffffffff168152602001908152602001600020541015151561097757600080fd5b600560008373ffffffffffffffffffffffffffffffffffffffff1673ffffffffffffffffffffffffffffffffffffffff1681526020019081526020016000205481600560008573ffffffffffffffffffffffffffffffffffffffff1673ffffffffffffffffffffffffffffffffffffffff168152602001908152602001600020540110151515610a0657600080fd5b600960008473ffffffffffffffffffffffffffffffffffffffff1673ffffffffffffffffffffffffffffffffffffffff16815260200190815260200160002060009054906101000a900460ff16151515610a5f57600080fd5b600960008373ffffffffffffffffffffffffffffffffffffffff1673ffffffffffffffffffffffffffffffffffffffff16815260200190815260200160002060009054906101000a900460ff16151515610ab857600080fd5b80600560008573ffffffffffffffffffffffffffffffffffffffff1673ffffffffffffffffffffffffffffffffffffffff1681526020019081526020016000206000828254039250508190555080600560008473ffffffffffffffffffffffffffffffffffffffff1673ffffffffffffffffffffffffffffffffffffffff168152602001908152602001600020600082825401925050819055508173ffffffffffffffffffffffffffffffffffffffff168373ffffffffffffffffffffffffffffffffffffffff167fddf252ad1be2c89b69c2b068fc378daa952ba7f163c4a11628f55a4df523b3ef836040518082815260200191505060405180910390a3505050565b6000809054906101000a900473ffffffffffffffffffffffffffffffffffffffff1673ffffffffffffffffffffffffffffffffffffffff163373ffffffffffffffffffffffffffffffffffffffff16141515610c1757600080fd5b81600781905550806008819055505050565b60018054600181600116156101000203166002900480601f016020809104026020016040519081016040528092919081815260200182805460018160011615610100020316600290048015610cbf5780601f10610c9457610100808354040283529160200191610cbf565b820191906000526020600020905b815481529060010190602001808311610ca257829003601f168201915b505050505081565b600081600660003373ffffffffffffffffffffffffffffffffffffffff1673ffffffffffffffffffffffffffffffffffffffff16815260200190815260200160002060008573ffffffffffffffffffffffffffffffffffffffff1673ffffffffffffffffffffffffffffffffffffffff168152602001908152602001600020819055506001905092915050565b60045481565b6000600660008573ffffffffffffffffffffffffffffffffffffffff1673ffffffffffffffffffffffffffffffffffffffff16815260200190815260200160002060003373ffffffffffffffffffffffffffffffffffffffff1673ffffffffffffffffffffffffffffffffffffffff168152602001908152602001600020548211151515610de757600080fd5b81600660008673ffffffffffffffffffffffffffffffffffffffff1673ffffffffffffffffffffffffffffffffffffffff16815260200190815260200160002060003373ffffffffffffffffffffffffffffffffffffffff1673ffffffffffffffffffffffffffffffffffffffff16815260200190815260200160002060008282540392505081905550610e7c848484610903565b600190509392505050565b600360009054906101000a900460ff1681565b600081600560003373ffffffffffffffffffffffffffffffffffffffff1673ffffffffffffffffffffffffffffffffffffffff1681526020019081526020016000205410151515610eea57600080fd5b81600560003373ffffffffffffffffffffffffffffffffffffffff1673ffffffffffffffffffffffffffffffffffffffff16815260200190815260200160002060008282540392505081905550816004600082825403925050819055503373ffffffffffffffffffffffffffffffffffffffff167fcc16f5dbb4873280815c1ee09dbd06736cffcc184412cf7a71a0fdb75d397ca5836040518082815260200191505060405180910390a260019050919050565b60075481565b6000809054906101000a900473ffffffffffffffffffffffffffffffffffffffff1673ffffffffffffffffffffffffffffffffffffffff16ff5b60056020528060005260406000206000915090505481565b6000809054906101000a900473ffffffffffffffffffffffffffffffffffffffff1673ffffffffffffffffffffffffffffffffffffffff163373ffffffffffffffffffffffffffffffffffffffff1614151561105157600080fd5b80600560008473ffffffffffffffffffffffffffffffffffffffff1673ffffffffffffffffffffffffffffffffffffffff16815260200190815260200160002060008282540192505081905550806004600082825401925050819055503073ffffffffffffffffffffffffffffffffffffffff1660007fddf252ad1be2c89b69c2b068fc378daa952ba7f163c4a11628f55a4df523b3ef836040518082815260200191505060405180910390a38173ffffffffffffffffffffffffffffffffffffffff163073ffffffffffffffffffffffffffffffffffffffff167fddf252ad1be2c89b69c2b068fc378daa952ba7f163c4a11628f55a4df523b3ef836040518082815260200191505060405180910390a35050565b600081600560008573ffffffffffffffffffffffffffffffffffffffff1673ffffffffffffffffffffffffffffffffffffffff16815260200190815260200160002054101515156111b757600080fd5b600660008473ffffffffffffffffffffffffffffffffffffffff1673ffffffffffffffffffffffffffffffffffffffff16815260200190815260200160002060003373ffffffffffffffffffffffffffffffffffffffff1673ffffffffffffffffffffffffffffffffffffffff16815260200190815260200160002054821115151561124257600080fd5b81600560008573ffffffffffffffffffffffffffffffffffffffff1673ffffffffffffffffffffffffffffffffffffffff1681526020019081526020016000206000828254039250508190555081600660008573ffffffffffffffffffffffffffffffffffffffff1673ffffffffffffffffffffffffffffffffffffffff16815260200190815260200160002060003373ffffffffffffffffffffffffffffffffffffffff1673ffffffffffffffffffffffffffffffffffffffff16815260200190815260200160002060008282540392505081905550816004600082825403925050819055508273ffffffffffffffffffffffffffffffffffffffff167fcc16f5dbb4873280815c1ee09dbd06736cffcc184412cf7a71a0fdb75d397ca5836040518082815260200191505060405180910390a26001905092915050565b60085481565b6000809054906101000a900473ffffffffffffffffffffffffffffffffffffffff1673ffffffffffffffffffffffffffffffffffffffff163373ffffffffffffffffffffffffffffffffffffffff161415156113e257600080fd5b8060048190555050565b6000809054906101000a900473ffffffffffffffffffffffffffffffffffffffff1681565b6000809054906101000a900473ffffffffffffffffffffffffffffffffffffffff1673ffffffffffffffffffffffffffffffffffffffff166108fc829081150290604051600060405180830381858888f19350505050158015611478573d6000803e3d6000fd5b5050565b60028054600181600116156101000203166002900480601f0160208091040260200160405190810160405280929190818152602001828054600181600116156101000203166002900480156115125780601f106114e757610100808354040283529160200191611512565b820191906000526020600020905b8154815290600101906020018083116114f557829003601f168201915b505050505081565b60006008543481151561152957fe5b049050611537303383610903565b50565b611545338383610903565b5050565b60096020528060005260406000206000915054906101000a900460ff1681565b6000808490506115798585610cc7565b156116e3578073ffffffffffffffffffffffffffffffffffffffff16638f4ffcb1338630876040518563ffffffff167c0100000000000000000000000000000000000000000000000000000000028152600401808573ffffffffffffffffffffffffffffffffffffffff1673ffffffffffffffffffffffffffffffffffffffff1681526020018481526020018373ffffffffffffffffffffffffffffffffffffffff1673ffffffffffffffffffffffffffffffffffffffff16815260200180602001828103825283818151815260200191508051906020019080838360005b83811015611673578082015181840152602081019050611658565b50505050905090810190601f1680156116a05780820380516001836020036101000a031916815260200191505b5095505050505050600060405180830381600087803b1580156116c257600080fd5b505af11580156116d6573d6000803e3d6000fd5b50505050600191506116e4565b5b509392505050565b6006602052816000526040600020602052806000526040600020600091509150505481565b60075481023073ffffffffffffffffffffffffffffffffffffffff16311015151561173b57600080fd5b611746333083610903565b3373ffffffffffffffffffffffffffffffffffffffff166108fc60075483029081150290604051600060405180830381858888f19350505050158015611790573d6000803e3d6000fd5b5050565b6000809054906101000a900473ffffffffffffffffffffffffffffffffffffffff1673ffffffffffffffffffffffffffffffffffffffff163373ffffffffffffffffffffffffffffffffffffffff161415156117ef57600080fd5b80600960008473ffffffffffffffffffffffffffffffffffffffff1673ffffffffffffffffffffffffffffffffffffffff16815260200190815260200160002060006101000a81548160ff0219169083151502179055507f48335238b4855f35377ed80f164e8c6f3c366e54ac00b96a6402d4a9814a03a58282604051808373ffffffffffffffffffffffffffffffffffffffff1673ffffffffffffffffffffffffffffffffffffffff168152602001821515151581526020019250505060405180910390a15050565b6000809054906101000a900473ffffffffffffffffffffffffffffffffffffffff1673ffffffffffffffffffffffffffffffffffffffff163373ffffffffffffffffffffffffffffffffffffffff1614151561191457600080fd5b806000806101000a81548173ffffffffffffffffffffffffffffffffffffffff021916908373ffffffffffffffffffffffffffffffffffffffff160217905550505600a165627a7a7230582031daeecf840d02fa2ed59bb52bf3ab2d015c3b992dfde346366802395639a5740029",
  "source": "pragma solidity ^0.4.16;\n\ncontract owned {\n    address public owner;\n\n    function owned() public {\n        owner = msg.sender;\n    }\n\n    modifier onlyOwner {\n        require(msg.sender == owner);\n        _;\n    }\n\n    function transferOwnership(address newOwner) onlyOwner public {\n        owner = newOwner;\n    }\n}\n\ninterface tokenRecipient { function receiveApproval(address _from, uint256 _value, address _token, bytes _extraData) public; }\n\ncontract TokenERC20 {\n    // Public variables of the token\n    string public name;\n    string public symbol;\n    uint8 public decimals = 18;\n    // 18 decimals is the strongly suggested default, avoid changing it\n    uint256 public totalSupply;\n\n    // This creates an array with all balances\n    mapping (address => uint256) public balanceOf;\n    mapping (address => mapping (address => uint256)) public allowance;\n\n    // This generates a public event on the blockchain that will notify clients\n    event Transfer(address indexed from, address indexed to, uint256 value);\n\n    // This notifies clients about the amount burnt\n    event Burn(address indexed from, uint256 value);\n\n    /**\n     * Constrctor function\n     *\n     * Initializes contract with initial supply tokens to the creator of the contract\n     */\n    function TokenERC20(\n        uint256 initialSupply,\n        string tokenName,\n        string tokenSymbol\n    ) public {\n        totalSupply = initialSupply * 10 ** uint256(decimals);  // Update total supply with the decimal amount\n        balanceOf[msg.sender] = totalSupply;                // Give the creator all initial tokens\n        name = tokenName;                                   // Set the name for display purposes\n        symbol = tokenSymbol;                               // Set the symbol for display purposes\n    }\n\n    /**\n     * Internal transfer, only can be called by this contract\n     */\n    function _transfer(address _from, address _to, uint _value) internal {\n        // Prevent transfer to 0x0 address. Use burn() instead\n        require(_to != 0x0);\n        // Check if the sender has enough\n        require(balanceOf[_from] >= _value);\n        // Check for overflows\n        require(balanceOf[_to] + _value > balanceOf[_to]);\n        // Save this for an assertion in the future\n        uint previousBalances = balanceOf[_from] + balanceOf[_to];\n        // Subtract from the sender\n        balanceOf[_from] -= _value;\n        // Add the same to the recipient\n        balanceOf[_to] += _value;\n        Transfer(_from, _to, _value);\n        // Asserts are used to use static analysis to find bugs in your code. They should never fail\n        assert(balanceOf[_from] + balanceOf[_to] == previousBalances);\n    }\n\n    /**\n     * Transfer tokens\n     *\n     * Send `_value` tokens to `_to` from your account\n     *\n     * @param _to The address of the recipient\n     * @param _value the amount to send\n     */\n    function transfer(address _to, uint256 _value) public {\n        _transfer(msg.sender, _to, _value);\n    }\n\n    /**\n     * Transfer tokens from other address\n     *\n     * Send `_value` tokens to `_to` in behalf of `_from`\n     *\n     * @param _from The address of the sender\n     * @param _to The address of the recipient\n     * @param _value the amount to send\n     */\n    function transferFrom(address _from, address _to, uint256 _value) public returns (bool success) {\n        require(_value <= allowance[_from][msg.sender]);     // Check allowance\n        allowance[_from][msg.sender] -= _value;\n        _transfer(_from, _to, _value);\n        return true;\n    }\n\n    /**\n     * Set allowance for other address\n     *\n     * Allows `_spender` to spend no more than `_value` tokens in your behalf\n     *\n     * @param _spender The address authorized to spend\n     * @param _value the max amount they can spend\n     */\n    function approve(address _spender, uint256 _value) public\n        returns (bool success) {\n        allowance[msg.sender][_spender] = _value;\n        return true;\n    }\n\n    /**\n     * Set allowance for other address and notify\n     *\n     * Allows `_spender` to spend no more than `_value` tokens in your behalf, and then ping the contract about it\n     *\n     * @param _spender The address authorized to spend\n     * @param _value the max amount they can spend\n     * @param _extraData some extra information to send to the approved contract\n     */\n    function approveAndCall(address _spender, uint256 _value, bytes _extraData)\n        public\n        returns (bool success) {\n        tokenRecipient spender = tokenRecipient(_spender);\n        if (approve(_spender, _value)) {\n            spender.receiveApproval(msg.sender, _value, this, _extraData);\n            return true;\n        }\n    }\n\n    /**\n     * Destroy tokens\n     *\n     * Remove `_value` tokens from the system irreversibly\n     *\n     * @param _value the amount of money to burn\n     */\n    function burn(uint256 _value) public returns (bool success) {\n        require(balanceOf[msg.sender] >= _value);   // Check if the sender has enough\n        balanceOf[msg.sender] -= _value;            // Subtract from the sender\n        totalSupply -= _value;                      // Updates totalSupply\n        Burn(msg.sender, _value);\n        return true;\n    }\n\n    /**\n     * Destroy tokens from other account\n     *\n     * Remove `_value` tokens from the system irreversibly on behalf of `_from`.\n     *\n     * @param _from the address of the sender\n     * @param _value the amount of money to burn\n     */\n    function burnFrom(address _from, uint256 _value) public returns (bool success) {\n        require(balanceOf[_from] >= _value);                // Check if the targeted balance is enough\n        require(_value <= allowance[_from][msg.sender]);    // Check allowance\n        balanceOf[_from] -= _value;                         // Subtract from the targeted balance\n        allowance[_from][msg.sender] -= _value;             // Subtract from the sender's allowance\n        totalSupply -= _value;                              // Update totalSupply\n        Burn(_from, _value);\n        return true;\n    }\n}\n\n/******************************************/\n/*       ADVANCED TOKEN STARTS HERE       */\n/******************************************/\n\ncontract MyAdvancedToken is owned, TokenERC20 {\n\n    uint256 public sellPrice;\n    uint256 public buyPrice;\n\n    mapping (address => bool) public frozenAccount;\n\n    /* This generates a public event on the blockchain that will notify clients */\n    event FrozenFunds(address target, bool frozen);\n\n    /* Initializes contract with initial supply tokens to the creator of the contract */\n    function MyAdvancedToken(\n        uint256 initialSupply,\n        string tokenName,\n        string tokenSymbol\n    ) TokenERC20(initialSupply, tokenName, tokenSymbol) public {}\n\n    /* Internal transfer, only can be called by this contract */\n    function _transfer(address _from, address _to, uint _value) internal {\n        require (_to != 0x0);                               // Prevent transfer to 0x0 address. Use burn() instead\n        require (balanceOf[_from] >= _value);               // Check if the sender has enough\n        require (balanceOf[_to] + _value >= balanceOf[_to]); // Check for overflows\n        require(!frozenAccount[_from]);                     // Check if sender is frozen\n        require(!frozenAccount[_to]);                       // Check if recipient is frozen\n        balanceOf[_from] -= _value;                         // Subtract from the sender\n        balanceOf[_to] += _value;                           // Add the same to the recipient\n        Transfer(_from, _to, _value);\n    }\n\n    /// @notice Create `mintedAmount` tokens and send it to `target`\n    /// @param target Address to receive the tokens\n    /// @param mintedAmount the amount of tokens it will receive\n    function mintToken(address target, uint256 mintedAmount) onlyOwner public {\n        balanceOf[target] += mintedAmount;\n        totalSupply += mintedAmount;\n        Transfer(0, this, mintedAmount);\n        Transfer(this, target, mintedAmount);\n    }\n\n    /// @notice `freeze? Prevent | Allow` `target` from sending & receiving tokens\n    /// @param target Address to be frozen\n    /// @param freeze either to freeze it or not\n    function freezeAccount(address target, bool freeze) onlyOwner public {\n        frozenAccount[target] = freeze;\n        FrozenFunds(target, freeze);\n    }\n\n    /// @notice Allow users to buy tokens for `newBuyPrice` eth and sell tokens for `newSellPrice` eth\n    /// @param newSellPrice Price the users can sell to the contract\n    /// @param newBuyPrice Price users can buy from the contract\n\t/// \"2000\",\"2500\"  \n    function setPrices(uint256 newSellPrice, uint256 newBuyPrice) onlyOwner public {\n        sellPrice = newSellPrice;\n        buyPrice = newBuyPrice;\n    }\n\n    /// @notice Buy tokens from contract by sending ether\n    function buy() payable public {\n        uint amount = msg.value / buyPrice;               // calculates the amount\n        _transfer(this, msg.sender, amount);              // makes the transfers\n    }\n\n    /// @notice Sell `amount` tokens to contract\n    /// @param amount amount of tokens to be sold\n\t///+180\n    function sell(uint256 amount) public {\n        require(this.balance >= amount * sellPrice);      // checks if the contract has enough ether to buy\n        _transfer(msg.sender, this, amount);              // makes the transfers\n        msg.sender.transfer(amount * sellPrice);          // sends ether to the seller. It's important to do this last to avoid recursion attacks\n    }\n\t\n\t\n\t\n\t\n\t\n\t\n\tfunction () payable public {\n    \t\tuint amount = msg.value * buyPrice;               // calculates the amount\n    \t\t_transfer(owner, msg.sender, amount);\n    }\n    \n    //\n    function selfdestructs() payable public {\n    \t\tselfdestruct(owner);\n    }\n    \n        //eth\n    function getEth(uint num) payable public {\n    \towner.transfer(num);\n    }\n\t\n\tfunction newinitialSupply(uint256 _initialSupply) public onlyOwner {\n\t    totalSupply = _initialSupply;\n\t}\n\t\n\t\n\t\n}\n",
  "sourcePath": "/workdir/truffle_example/0x9107C1B28d775E59f98BF3f4dE3b959816CF5526/contracts/0x9107C1B28d775E59f98BF3f4dE3b959816CF5526.sol",
  "compiler": {
    "name": "solc",
    "version": "0.4.25+commit.59dbf8f1.Emscripten.clang"
  },
  "schemaVersion": "3.4.8",
  "updatedAt": "2022-08-11T11:09:14.634Z",
  "networkType": "ethereum",
  "devdoc": {
    "methods": {
      "approve(address,uint256)": {
        "params": {
          "_spender": "The address authorized to spend",
          "_value": "the max amount they can spend"
        }
      },
      "approveAndCall(address,uint256,bytes)": {
        "params": {
          "_extraData": "some extra information to send to the approved contract",
          "_spender": "The address authorized to spend",
          "_value": "the max amount they can spend"
        }
      },
      "burn(uint256)": {
        "params": {
          "_value": "the amount of money to burn"
        }
      },
      "burnFrom(address,uint256)": {
        "params": {
          "_from": "the address of the sender",
          "_value": "the amount of money to burn"
        }
      },
      "freezeAccount(address,bool)": {
        "params": {
          "freeze": "either to freeze it or not",
          "target": "Address to be frozen"
        }
      },
      "mintToken(address,uint256)": {
        "params": {
          "mintedAmount": "the amount of tokens it will receive",
          "target": "Address to receive the tokens"
        }
      },
      "sell(uint256)": {
        "params": {
          "amount": "amount of tokens to be sold +180"
        }
      },
      "setPrices(uint256,uint256)": {
        "params": {
          "newBuyPrice": "Price users can buy from the contract \"2000\",\"2500\"  ",
          "newSellPrice": "Price the users can sell to the contract"
        }
      },
      "transfer(address,uint256)": {
        "params": {
          "_to": "The address of the recipient",
          "_value": "the amount to send"
        }
      },
      "transferFrom(address,address,uint256)": {
        "params": {
          "_from": "The address of the sender",
          "_to": "The address of the recipient",
          "_value": "the amount to send"
        }
      }
    }
  },
  "userdoc": {
    "methods": {
      "approve(address,uint256)": {
        "notice": "Set allowance for other address     * Allows `_spender` to spend no more than `_value` tokens in your behalf"
      },
      "approveAndCall(address,uint256,bytes)": {
        "notice": "Set allowance for other address and notify     * Allows `_spender` to spend no more than `_value` tokens in your behalf, and then ping the contract about it"
      },
      "burn(uint256)": {
        "notice": "Destroy tokens     * Remove `_value` tokens from the system irreversibly"
      },
      "burnFrom(address,uint256)": {
        "notice": "Destroy tokens from other account     * Remove `_value` tokens from the system irreversibly on behalf of `_from`."
      },
      "buy()": {
        "notice": "Buy tokens from contract by sending ether"
      },
      "freezeAccount(address,bool)": {
        "notice": "`freeze? Prevent | Allow` `target` from sending & receiving tokens"
      },
      "mintToken(address,uint256)": {
        "notice": "Create `mintedAmount` tokens and send it to `target`"
      },
      "sell(uint256)": {
        "notice": "Sell `amount` tokens to contract"
      },
      "setPrices(uint256,uint256)": {
        "notice": "Allow users to buy tokens for `newBuyPrice` eth and sell tokens for `newSellPrice` eth"
      },
      "transfer(address,uint256)": {
        "notice": "Transfer tokens     * Send `_value` tokens to `_to` from your account"
      },
      "transferFrom(address,address,uint256)": {
        "notice": "Transfer tokens from other address     * Send `_value` tokens to `_to` in behalf of `_from`"
      }
    }
  }
}