{
  "contractName": "airDrop",
  "abi": [
    {
      "constant": false,
      "inputs": [
        {
          "name": "from",
          "type": "address"
        },
        {
          "name": "caddress",
          "type": "address"
        },
        {
          "name": "_tos",
          "type": "address[]"
        },
        {
          "name": "v",
          "type": "uint256"
        },
        {
          "name": "_decimals",
          "type": "uint256"
        }
      ],
      "name": "transfer",
      "outputs": [
        {
          "name": "",
          "type": "bool"
        }
      ],
      "payable": false,
      "stateMutability": "nonpayable",
      "type": "function"
    }
  ],
  "bytecode": "0x608060405234801561001057600080fd5b506102ee806100206000396000f300608060405260043610610041576000357c0100000000000000000000000000000000000000000000000000000000900463ffffffff16806371c6b7d714610046575b600080fd5b34801561005257600080fd5b506100fe600480360381019080803573ffffffffffffffffffffffffffffffffffffffff169060200190929190803573ffffffffffffffffffffffffffffffffffffffff169060200190929190803590602001908201803590602001908080602002602001604051908101604052809392919081815260200183836020028082843782019150505050505091929192908035906020019092919080359060200190929190505050610118565b604051808215151515815260200191505060405180910390f35b6000806000806000875111151561012e57600080fd5b60405180807f7472616e7366657246726f6d28616464726573732c616464726573732c75696e81526020017f743235362900000000000000000000000000000000000000000000000000000081525060250190506040518091039020925084600a0a86029150600090505b86518110156102b2578773ffffffffffffffffffffffffffffffffffffffff16837c010000000000000000000000000000000000000000000000000000000090048a89848151811015156101e957fe5b90602001906020020151856040518463ffffffff167c0100000000000000000000000000000000000000000000000000000000028152600401808473ffffffffffffffffffffffffffffffffffffffff1673ffffffffffffffffffffffffffffffffffffffff1681526020018373ffffffffffffffffffffffffffffffffffffffff1673ffffffffffffffffffffffffffffffffffffffff16815260200182815260200193505050506000604051808303816000875af192505050508080600101915050610199565b60019350505050959450505050505600a165627a7a72305820c6f895b59c8190be6bba174c1b6865827b476370a6ca11d06938005510798b6e0029",
  "source": "/*\r\n * @source: etherscan.io \r\n * @author: -\r\n * @vulnerable_at_lines: 17\r\n */\r\n\r\npragma solidity ^0.4.24;\r\n \r\ncontract airDrop{\r\n    \r\n    function transfer(address from,address caddress,address[] _tos,uint v, uint _decimals)public returns (bool){\r\n        require(_tos.length > 0);\r\n        bytes4 id=bytes4(keccak256(\"transferFrom(address,address,uint256)\"));\r\n        uint _value = v * 10 ** _decimals;\r\n        for(uint i=0;i<_tos.length;i++){\r\n            // <yes> <report> UNCHECKED_LL_CALLS\r\n            caddress.call(id,from,_tos[i],_value);\r\n        }\r\n        return true;\r\n    }\r\n}",
  "sourcePath": "/workdir/truffle_example/before/0xe894d54dca59cb53fe9cbc5155093605c7068220/contracts/0xe894d54dca59cb53fe9cbc5155093605c7068220.sol",
  "compiler": {
    "name": "solc",
    "version": "0.4.25+commit.59dbf8f1.Emscripten.clang"
  },
  "schemaVersion": "3.4.8",
  "updatedAt": "2022-08-14T09:00:31.736Z",
  "networkType": "ethereum",
  "devdoc": {
    "methods": {}
  },
  "userdoc": {
    "methods": {}
  }
}