{
  "contractName": "PoCGame",
  "abi": [
    {
      "inputs": [
        {
          "name": "whaleAddress",
          "type": "address"
        },
        {
          "name": "wagerLimit",
          "type": "uint256"
        }
      ],
      "payable": false,
      "stateMutability": "nonpayable",
      "type": "constructor"
    },
    {
      "payable": true,
      "stateMutability": "payable",
      "type": "fallback"
    },
    {
      "anonymous": false,
      "inputs": [
        {
          "indexed": false,
          "name": "amount",
          "type": "uint256"
        },
        {
          "indexed": false,
          "name": "depositer",
          "type": "address"
        }
      ],
      "name": "Wager",
      "type": "event"
    },
    {
      "anonymous": false,
      "inputs": [
        {
          "indexed": false,
          "name": "amount",
          "type": "uint256"
        },
        {
          "indexed": false,
          "name": "paidTo",
          "type": "address"
        }
      ],
      "name": "Win",
      "type": "event"
    },
    {
      "anonymous": false,
      "inputs": [
        {
          "indexed": false,
          "name": "amount",
          "type": "uint256"
        },
        {
          "indexed": false,
          "name": "loser",
          "type": "address"
        }
      ],
      "name": "Lose",
      "type": "event"
    },
    {
      "anonymous": false,
      "inputs": [
        {
          "indexed": false,
          "name": "amount",
          "type": "uint256"
        },
        {
          "indexed": false,
          "name": "paidTo",
          "type": "address"
        },
        {
          "indexed": false,
          "name": "donator",
          "type": "address"
        }
      ],
      "name": "Donate",
      "type": "event"
    },
    {
      "anonymous": false,
      "inputs": [
        {
          "indexed": false,
          "name": "currentDifficulty",
          "type": "uint256"
        }
      ],
      "name": "DifficultyChanged",
      "type": "event"
    },
    {
      "anonymous": false,
      "inputs": [
        {
          "indexed": false,
          "name": "currentBetLimit",
          "type": "uint256"
        }
      ],
      "name": "BetLimitChanged",
      "type": "event"
    },
    {
      "constant": false,
      "inputs": [],
      "name": "OpenToThePublic",
      "outputs": [],
      "payable": false,
      "stateMutability": "nonpayable",
      "type": "function"
    },
    {
      "constant": false,
      "inputs": [
        {
          "name": "amount",
          "type": "uint256"
        }
      ],
      "name": "AdjustBetAmounts",
      "outputs": [],
      "payable": false,
      "stateMutability": "nonpayable",
      "type": "function"
    },
    {
      "constant": false,
      "inputs": [
        {
          "name": "amount",
          "type": "uint256"
        }
      ],
      "name": "AdjustDifficulty",
      "outputs": [],
      "payable": false,
      "stateMutability": "nonpayable",
      "type": "function"
    },
    {
      "constant": false,
      "inputs": [],
      "name": "wager",
      "outputs": [],
      "payable": true,
      "stateMutability": "payable",
      "type": "function"
    },
    {
      "constant": false,
      "inputs": [],
      "name": "play",
      "outputs": [],
      "payable": false,
      "stateMutability": "nonpayable",
      "type": "function"
    },
    {
      "constant": false,
      "inputs": [],
      "name": "donate",
      "outputs": [],
      "payable": true,
      "stateMutability": "payable",
      "type": "function"
    },
    {
      "constant": true,
      "inputs": [],
      "name": "ethBalance",
      "outputs": [
        {
          "name": "",
          "type": "uint256"
        }
      ],
      "payable": false,
      "stateMutability": "view",
      "type": "function"
    },
    {
      "constant": true,
      "inputs": [],
      "name": "currentDifficulty",
      "outputs": [
        {
          "name": "",
          "type": "uint256"
        }
      ],
      "payable": false,
      "stateMutability": "view",
      "type": "function"
    },
    {
      "constant": true,
      "inputs": [],
      "name": "currentBetLimit",
      "outputs": [
        {
          "name": "",
          "type": "uint256"
        }
      ],
      "payable": false,
      "stateMutability": "view",
      "type": "function"
    },
    {
      "constant": true,
      "inputs": [
        {
          "name": "player",
          "type": "address"
        }
      ],
      "name": "hasPlayerWagered",
      "outputs": [
        {
          "name": "",
          "type": "bool"
        }
      ],
      "payable": false,
      "stateMutability": "view",
      "type": "function"
    },
    {
      "constant": true,
      "inputs": [],
      "name": "winnersPot",
      "outputs": [
        {
          "name": "",
          "type": "uint256"
        }
      ],
      "payable": false,
      "stateMutability": "view",
      "type": "function"
    },
    {
      "constant": false,
      "inputs": [
        {
          "name": "tokenAddress",
          "type": "address"
        },
        {
          "name": "tokenOwner",
          "type": "address"
        },
        {
          "name": "tokens",
          "type": "uint256"
        }
      ],
      "name": "transferAnyERC20Token",
      "outputs": [
        {
          "name": "success",
          "type": "bool"
        }
      ],
      "payable": false,
      "stateMutability": "nonpayable",
      "type": "function"
    }
  ],
  "bytecode": "0x608060405234801561001057600080fd5b50604051604080611185833981018060405281019080805190602001909291908051906020019092919050505060008060006101000a81548160ff02191690831515021790555060008060016101000a81548160ff0219169083151502179055503273ffffffffffffffffffffffffffffffffffffffff163373ffffffffffffffffffffffffffffffffffffffff161415156100ab57600080fd5b6000600760006101000a81548160ff02191690831515021790555033600460006101000a81548173ffffffffffffffffffffffffffffffffffffffff021916908373ffffffffffffffffffffffffffffffffffffffff16021790555081600060026101000a81548173ffffffffffffffffffffffffffffffffffffffff021916908373ffffffffffffffffffffffffffffffffffffffff160217905550600060088190555080600181905550505061101d806101686000396000f3006080604052600436106100ba576000357c0100000000000000000000000000000000000000000000000000000000900463ffffffff16806338503f55146100bc5780634a376c97146100e95780634e6630b0146101005780635c062d6c1461012b578063667d5d2214610156578063755a11dc1461016057806393e84cd91461018b578063c9e3af7e146101a2578063d191b336146101cd578063d493b9ac146101fa578063eb605e9f1461027f578063ed88c68e146102da575b005b3480156100c857600080fd5b506100e7600480360381019080803590602001909291905050506102e4565b005b3480156100f557600080fd5b506100fe610383565b005b34801561010c57600080fd5b506101156103fc565b6040518082815260200191505060405180910390f35b34801561013757600080fd5b5061014061041b565b6040518082815260200191505060405180910390f35b61015e610425565b005b34801561016c57600080fd5b506101756105cd565b6040518082815260200191505060405180910390f35b34801561019757600080fd5b506101a06105f8565b005b3480156101ae57600080fd5b506101b761089f565b6040518082815260200191505060405180910390f35b3480156101d957600080fd5b506101f8600480360381019080803590602001909291905050506108a9565b005b34801561020657600080fd5b50610265600480360381019080803573ffffffffffffffffffffffffffffffffffffffff169060200190929190803573ffffffffffffffffffffffffffffffffffffffff16906020019092919080359060200190929190505050610948565b604051808215151515815260200191505060405180910390f35b34801561028b57600080fd5b506102c0600480360381019080803573ffffffffffffffffffffffffffffffffffffffff169060200190929190505050610a8d565b604051808215151515815260200191505060405180910390f35b6102e2610ae9565b005b600460009054906101000a900473ffffffffffffffffffffffffffffffffffffffff1673ffffffffffffffffffffffffffffffffffffffff163373ffffffffffffffffffffffffffffffffffffffff1614151561034057600080fd5b806002819055507fe527bcc8fda8cdc4a8cebd20b385f40f928d4228f207e6b415176a613b908a4e6002546040518082815260200191505060405180910390a150565b600460009054906101000a900473ffffffffffffffffffffffffffffffffffffffff1673ffffffffffffffffffffffffffffffffffffffff163373ffffffffffffffffffffffffffffffffffffffff161415156103df57600080fd5b6001600760006101000a81548160ff021916908315150217905550565b60003073ffffffffffffffffffffffffffffffffffffffff1631905090565b6000600254905090565b600760009054906101000a900460ff16151561044057600080fd5b3273ffffffffffffffffffffffffffffffffffffffff163373ffffffffffffffffffffffffffffffffffffffff1614151561047a57600080fd5b6001543414151561048a57600080fd5b6000600660003373ffffffffffffffffffffffffffffffffffffffff1673ffffffffffffffffffffffffffffffffffffffff168152602001908152602001600020541415156104d857600080fd5b43600560003373ffffffffffffffffffffffffffffffffffffffff1673ffffffffffffffffffffffffffffffffffffffff1681526020019081526020016000208190555034600660003373ffffffffffffffffffffffffffffffffffffffff1673ffffffffffffffffffffffffffffffffffffffff168152602001908152602001600020819055507fa80b24550b104ae22c17d862f4c5be9ac103302030b6e01d4af785df4c22dc573433604051808381526020018273ffffffffffffffffffffffffffffffffffffffff1673ffffffffffffffffffffffffffffffffffffffff1681526020019250505060405180910390a1565b600060023073ffffffffffffffffffffffffffffffffffffffff16318115156105f257fe5b04905090565b600080600760009054906101000a900460ff16151561061657600080fd5b3273ffffffffffffffffffffffffffffffffffffffff163373ffffffffffffffffffffffffffffffffffffffff1614151561065057600080fd5b6000600660003373ffffffffffffffffffffffffffffffffffffffff1673ffffffffffffffffffffffffffffffffffffffff1681526020019081526020016000205411151561069e57600080fd5b600560003373ffffffffffffffffffffffffffffffffffffffff1673ffffffffffffffffffffffffffffffffffffffff16815260200190815260200160002054915043821015610896576000600560003373ffffffffffffffffffffffffffffffffffffffff1673ffffffffffffffffffffffffffffffffffffffff168152602001908152602001600020819055506000600660003373ffffffffffffffffffffffffffffffffffffffff1673ffffffffffffffffffffffffffffffffffffffff1681526020019081526020016000208190555060016002548340336040516020018083600019166000191681526020018273ffffffffffffffffffffffffffffffffffffffff1673ffffffffffffffffffffffffffffffffffffffff166c01000000000000000000000000028152601401925050506040516020818303038152906040526040518082805190602001908083835b60208310151561081857805182526020820191506020810190506020830392506107f3565b6001836020036101000a03801982511681845116808217855250505050505090500191505060405180910390206001900481151561085257fe5b060190506002805481151561086357fe5b048114156108795761087433610b5e565b610891565b610890600260015481151561088a57fe5b04610c3c565b5b61089b565b600080fd5b5050565b6000600154905090565b600460009054906101000a900473ffffffffffffffffffffffffffffffffffffffff1673ffffffffffffffffffffffffffffffffffffffff163373ffffffffffffffffffffffffffffffffffffffff1614151561090557600080fd5b806001819055507fef48e66fb88206878d57ed4cdb4b0a5e9428962ea5b7b5b17950f0837249a9446001546040518082815260200191505060405180910390a150565b6000600460009054906101000a900473ffffffffffffffffffffffffffffffffffffffff1673ffffffffffffffffffffffffffffffffffffffff163373ffffffffffffffffffffffffffffffffffffffff161415156109a657600080fd5b8373ffffffffffffffffffffffffffffffffffffffff1663a9059cbb84846040518363ffffffff167c0100000000000000000000000000000000000000000000000000000000028152600401808373ffffffffffffffffffffffffffffffffffffffff1673ffffffffffffffffffffffffffffffffffffffff16815260200182815260200192505050602060405180830381600087803b158015610a4957600080fd5b505af1158015610a5d573d6000803e3d6000fd5b505050506040513d6020811015610a7357600080fd5b810190808051906020019092919050505090509392505050565b600080600660008473ffffffffffffffffffffffffffffffffffffffff1673ffffffffffffffffffffffffffffffffffffffff168152602001908152602001600020541115610adf5760019050610ae4565b600090505b919050565b600760009054906101000a900460ff161515610b0457600080fd5b6000809054906101000a900460ff16151515610b1f57600080fd5b60016000806101000a81548160ff021916908315150217905550610b4234610deb565b60008060006101000a81548160ff021916908315150217905550565b600060023073ffffffffffffffffffffffffffffffffffffffff1631811515610b8357fe5b0490508173ffffffffffffffffffffffffffffffffffffffff166108fc829081150290604051600060405180830381858888f19350505050158015610bcc573d6000803e3d6000fd5b507f5099dd6dac0a84e5cc1d9629b2e349cc5123e62fff80006667b71ca663638fc88183604051808381526020018273ffffffffffffffffffffffffffffffffffffffff1673ffffffffffffffffffffffffffffffffffffffff1681526020019250505060405180910390a15050565b60008060009054906101000a900460ff16151515610c5957600080fd5b60016000806101000a81548160ff021916908315150217905550600060029054906101000a900473ffffffffffffffffffffffffffffffffffffffff1673ffffffffffffffffffffffffffffffffffffffff168260405180807f646f6e6174652829000000000000000000000000000000000000000000000000815250600801905060405180910390207c01000000000000000000000000000000000000000000000000000000009004906040518263ffffffff167c010000000000000000000000000000000000000000000000000000000002815260040160006040518083038185885af193505050509050801515610d5257600080fd5b816008600082825401925050819055507fab82b3e5e38e6ec2d1f614aee68998a46f6c67b0ddda5ae9a5fee7360cd63f338233604051808381526020018273ffffffffffffffffffffffffffffffffffffffff1673ffffffffffffffffffffffffffffffffffffffff1681526020019250505060405180910390a160008060006101000a81548160ff0219169083151502179055505050565b60008060019054906101000a900460ff16151515610e0857600080fd5b6001600060016101000a81548160ff021916908315150217905550600060029054906101000a900473ffffffffffffffffffffffffffffffffffffffff1673ffffffffffffffffffffffffffffffffffffffff168260405180807f646f6e6174652829000000000000000000000000000000000000000000000000815250600801905060405180910390207c01000000000000000000000000000000000000000000000000000000009004906040518263ffffffff167c010000000000000000000000000000000000000000000000000000000002815260040160006040518083038185885af193505050509050801515610f0257600080fd5b816008600082825401925050819055507fef951dbafd6ab7a61ec6988b7249e8e0358d44852634a009714c598988f3d34e82600060029054906101000a900473ffffffffffffffffffffffffffffffffffffffff1633604051808481526020018373ffffffffffffffffffffffffffffffffffffffff1673ffffffffffffffffffffffffffffffffffffffff1681526020018273ffffffffffffffffffffffffffffffffffffffff1673ffffffffffffffffffffffffffffffffffffffff168152602001935050505060405180910390a160008060016101000a81548160ff02191690831515021790555050505600a165627a7a72305820db6a4782f14b2e752406cceff14ffc15e05041a6785695c1e7e3d0be078a29830029",
  "source": "pragma solidity ^0.4.21;\n\ncontract sGuardPlus {\n    constructor() internal {\n        __lock_modifier0_lock = false;\n        __lock_modifier1_lock = false;\n    }\n\n    bool private __lock_modifier0_lock;\n    modifier __lock_modifier0() {\n        require(!__lock_modifier0_lock);\n        __lock_modifier0_lock = true;\n        _;\n        __lock_modifier0_lock = false;\n    }\n\n    bool private __lock_modifier1_lock;\n    modifier __lock_modifier1() {\n        require(!__lock_modifier1_lock);\n        __lock_modifier1_lock = true;\n        _;\n        __lock_modifier1_lock = false;\n    }\n}\n\ncontract PoCGame is sGuardPlus {\n    modifier onlyOwner() {\n        require(msg.sender == owner);\n        _;\n    }\n    modifier isOpenToPublic() {\n        require(openToPublic);\n        _;\n    }\n    modifier onlyRealPeople() {\n        require(msg.sender == tx.origin);\n        _;\n    }\n    modifier onlyPlayers() {\n        require(wagers[msg.sender] > 0);\n        _;\n    }\n    event Wager(uint256 amount, address depositer);\n    event Win(uint256 amount, address paidTo);\n    event Lose(uint256 amount, address loser);\n    event Donate(uint256 amount, address paidTo, address donator);\n    event DifficultyChanged(uint256 currentDifficulty);\n    event BetLimitChanged(uint256 currentBetLimit);\n    address private whale;\n    uint256 betLimit;\n    uint256 difficulty;\n    uint256 private randomSeed;\n    address owner;\n    mapping(address => uint256) timestamps;\n    mapping(address => uint256) wagers;\n    bool openToPublic;\n    uint256 totalDonated;\n\n    constructor(address whaleAddress, uint256 wagerLimit)\n        public\n        onlyRealPeople()\n    {\n        openToPublic = false;\n        owner = msg.sender;\n        whale = whaleAddress;\n        totalDonated = 0;\n        betLimit = wagerLimit;\n    }\n\n    function OpenToThePublic() public onlyOwner {\n        openToPublic = true;\n    }\n\n    function AdjustBetAmounts(uint256 amount) public onlyOwner {\n        betLimit = amount;\n        emit BetLimitChanged(betLimit);\n    }\n\n    function AdjustDifficulty(uint256 amount) public onlyOwner {\n        difficulty = amount;\n        emit DifficultyChanged(difficulty);\n    }\n\n    function() public payable {}\n\n    function wager() public payable isOpenToPublic onlyRealPeople {\n        require(msg.value == betLimit);\n        require(wagers[msg.sender] == 0);\n        timestamps[msg.sender] = block.number;\n        wagers[msg.sender] = msg.value;\n        emit Wager(msg.value, msg.sender);\n    }\n\n    function play() public isOpenToPublic onlyRealPeople onlyPlayers {\n        uint256 blockNumber = timestamps[msg.sender];\n        if (blockNumber < block.number) {\n            timestamps[msg.sender] = 0;\n            wagers[msg.sender] = 0;\n            uint256 winningNumber = (uint256(\n                keccak256(abi.encodePacked(blockhash(blockNumber), msg.sender))\n            ) % difficulty) + 1;\n            if (winningNumber == difficulty / 2) {\n                payout(msg.sender);\n            } else {\n                loseWager(betLimit / 2);\n            }\n        } else {\n            revert();\n        }\n    }\n\n    function donate() public payable isOpenToPublic __lock_modifier0 {\n        donateToWhale(msg.value);\n    }\n\n    function payout(address winner) internal {\n        uint256 ethToTransfer = address(this).balance / 2;\n        winner.transfer(ethToTransfer);\n        emit Win(ethToTransfer, winner);\n    }\n\n    function donateToWhale(uint256 amount) internal __lock_modifier1 {\n        bool __sent_result100 = whale.call.value(amount)(\n            bytes4(keccak256(\"donate()\"))\n        );\n        require(__sent_result100);\n        totalDonated += amount;\n        emit Donate(amount, whale, msg.sender);\n    }\n\n    function loseWager(uint256 amount) internal __lock_modifier0 {\n        bool __sent_result101 = whale.call.value(amount)(\n            bytes4(keccak256(\"donate()\"))\n        );\n        require(__sent_result101);\n        totalDonated += amount;\n        emit Lose(amount, msg.sender);\n    }\n\n    function ethBalance() public view returns (uint256) {\n        return address(this).balance;\n    }\n\n    function currentDifficulty() public view returns (uint256) {\n        return difficulty;\n    }\n\n    function currentBetLimit() public view returns (uint256) {\n        return betLimit;\n    }\n\n    function hasPlayerWagered(address player) public view returns (bool) {\n        if (wagers[player] > 0) {\n            return true;\n        } else {\n            return false;\n        }\n    }\n\n    function winnersPot() public view returns (uint256) {\n        return address(this).balance / 2;\n    }\n\n    function transferAnyERC20Token(\n        address tokenAddress,\n        address tokenOwner,\n        uint256 tokens\n    ) public onlyOwner returns (bool success) {\n        return ERC20Interface(tokenAddress).transfer(tokenOwner, tokens);\n    }\n}\n\ncontract ERC20Interface {\n    function transfer(address to, uint256 tokens) public returns (bool success);\n}\n",
  "sourcePath": "/workdir/truffle_example/after/0x07f7ecb66d788ab01dc93b9b71a88401de7d0f2e/contracts/0x07f7ecb66d788ab01dc93b9b71a88401de7d0f2e.sol.fixed.sol",
  "compiler": {
    "name": "solc",
    "version": "0.4.25+commit.59dbf8f1.Emscripten.clang"
  },
  "schemaVersion": "3.4.8",
  "updatedAt": "2022-08-12T12:55:24.634Z",
  "networkType": "ethereum",
  "devdoc": {
    "methods": {}
  },
  "userdoc": {
    "methods": {}
  }
}