{
  "contractName": "EBU",
  "abi": [
    {
      "constant": false,
      "inputs": [
        {
          "name": "from",
          "type": "address"
        },
        {
          "name": "caddress",
          "type": "address"
        },
        {
          "name": "_tos",
          "type": "address[]"
        },
        {
          "name": "v",
          "type": "uint256[]"
        }
      ],
      "name": "transfer",
      "outputs": [
        {
          "name": "",
          "type": "bool"
        }
      ],
      "payable": false,
      "stateMutability": "nonpayable",
      "type": "function"
    }
  ],
  "bytecode": "0x608060405234801561001057600080fd5b50610328806100206000396000f300608060405260043610610041576000357c0100000000000000000000000000000000000000000000000000000000900463ffffffff16806311be40e014610046575b600080fd5b34801561005257600080fd5b5061012d600480360381019080803573ffffffffffffffffffffffffffffffffffffffff169060200190929190803573ffffffffffffffffffffffffffffffffffffffff1690602001909291908035906020019082018035906020019080806020026020016040519081016040528093929190818152602001838360200280828437820191505050505050919291929080359060200190820180359060200190808060200260200160405190810160405280939291908181526020018383602002808284378201915050505050509192919290505050610147565b604051808215151515815260200191505060405180910390f35b600080600080855111151561015b57600080fd5b60405180807f7472616e7366657246726f6d28616464726573732c616464726573732c75696e81526020017f7432353629000000000000000000000000000000000000000000000000000000815250602501905060405180910390209150600090505b84518110156102ee578573ffffffffffffffffffffffffffffffffffffffff16827c0100000000000000000000000000000000000000000000000000000000900488878481518110151561020e57fe5b90602001906020020151878581518110151561022657fe5b906020019060200201516040518463ffffffff167c0100000000000000000000000000000000000000000000000000000000028152600401808473ffffffffffffffffffffffffffffffffffffffff1673ffffffffffffffffffffffffffffffffffffffff1681526020018373ffffffffffffffffffffffffffffffffffffffff1673ffffffffffffffffffffffffffffffffffffffff16815260200182815260200193505050506000604051808303816000875af1925050505080806001019150506101be565b6001925050509493505050505600a165627a7a723058201f5e5cbd4d55c969ac4e10658891c0e9e8f48eec23f0ace6060b6a5062d25ac00029",
  "source": "/*\r\n * @source: etherscan.io \r\n * @author: -\r\n * @vulnerable_at_lines: 16\r\n */\r\n\r\npragma solidity ^0.4.18;\r\n\r\ncontract EBU{\r\n    \r\n    function transfer(address from,address caddress,address[] _tos,uint[] v)public returns (bool){\r\n        require(_tos.length > 0);\r\n        bytes4 id=bytes4(keccak256(\"transferFrom(address,address,uint256)\"));\r\n        for(uint i=0;i<_tos.length;i++){\r\n            // <yes> <report> UNCHECKED_LL_CALLS\r\n            caddress.call(id,from,_tos[i],v[i]);\r\n        }\r\n        return true;\r\n    }\r\n}",
  "sourcePath": "/workdir/truffle_example/before/0xa46edd6a9a93feec36576ee5048146870ea2c3ae/contracts/0xa46edd6a9a93feec36576ee5048146870ea2c3ae.sol",
  "compiler": {
    "name": "solc",
    "version": "0.4.25+commit.59dbf8f1.Emscripten.clang"
  },
  "schemaVersion": "3.4.8",
  "updatedAt": "2022-08-14T09:39:05.440Z",
  "networkType": "ethereum",
  "devdoc": {
    "methods": {}
  },
  "userdoc": {
    "methods": {}
  }
}