{
  "contractName": "W_WALLET",
  "abi": [
    {
      "constant": true,
      "inputs": [
        {
          "name": "",
          "type": "address"
        }
      ],
      "name": "Acc",
      "outputs": [
        {
          "name": "unlockTime",
          "type": "uint256"
        },
        {
          "name": "balance",
          "type": "uint256"
        }
      ],
      "payable": false,
      "stateMutability": "view",
      "type": "function"
    },
    {
      "constant": true,
      "inputs": [],
      "name": "MinSum",
      "outputs": [
        {
          "name": "",
          "type": "uint256"
        }
      ],
      "payable": false,
      "stateMutability": "view",
      "type": "function"
    },
    {
      "inputs": [
        {
          "name": "log",
          "type": "address"
        }
      ],
      "payable": false,
      "stateMutability": "nonpayable",
      "type": "constructor"
    },
    {
      "payable": true,
      "stateMutability": "payable",
      "type": "fallback"
    },
    {
      "constant": false,
      "inputs": [
        {
          "name": "_unlockTime",
          "type": "uint256"
        }
      ],
      "name": "Put",
      "outputs": [],
      "payable": true,
      "stateMutability": "payable",
      "type": "function"
    },
    {
      "constant": false,
      "inputs": [
        {
          "name": "_am",
          "type": "uint256"
        }
      ],
      "name": "Collect",
      "outputs": [],
      "payable": true,
      "stateMutability": "payable",
      "type": "function"
    }
  ],
  "bytecode": "0x6080604052670de0b6b3a764000060035534801561001c57600080fd5b506040516020806105dc8339810180604052810190808051906020019092919050505060008060006101000a81548160ff02191690831515021790555080600260006101000a81548173ffffffffffffffffffffffffffffffffffffffff021916908373ffffffffffffffffffffffffffffffffffffffff16021790555050610532806100aa6000396000f300608060405260043610610062576000357c0100000000000000000000000000000000000000000000000000000000900463ffffffff1680633fe438221461006e57806365f3c31a1461008e5780637731cd2a146100ae578063c2808d1a1461010c575b61006c6000610137565b005b61008c600480360381019080803590602001909291905050506102bd565b005b6100ac60048036038101908080359060200190929190505050610137565b005b3480156100ba57600080fd5b506100ef600480360381019080803573ffffffffffffffffffffffffffffffffffffffff1690602001909291905050506104dc565b604051808381526020018281526020019250505060405180910390f35b34801561011857600080fd5b50610121610500565b6040518082815260200191505060405180910390f35b6000600160003373ffffffffffffffffffffffffffffffffffffffff1673ffffffffffffffffffffffffffffffffffffffff1681526020019081526020016000209050348160010160008282540192505081905550428211610199574261019b565b815b8160000181905550600260009054906101000a900473ffffffffffffffffffffffffffffffffffffffff1673ffffffffffffffffffffffffffffffffffffffff16634c2f04a433346040518363ffffffff167c0100000000000000000000000000000000000000000000000000000000028152600401808373ffffffffffffffffffffffffffffffffffffffff1673ffffffffffffffffffffffffffffffffffffffff16815260200182815260200180602001828103825260038152602001807f50757400000000000000000000000000000000000000000000000000000000008152506020019350505050600060405180830381600087803b1580156102a157600080fd5b505af11580156102b5573d6000803e3d6000fd5b505050505050565b60008060009054906101000a900460ff161515156102da57600080fd5b60016000806101000a81548160ff021916908315150217905550600160003373ffffffffffffffffffffffffffffffffffffffff1673ffffffffffffffffffffffffffffffffffffffff168152602001908152602001600020905060035481600101541015801561034f575081816001015410155b801561035e5750806000015442115b156104be573373ffffffffffffffffffffffffffffffffffffffff168260405160006040518083038185875af192505050156104bd57818160010160008282540392505081905550600260009054906101000a900473ffffffffffffffffffffffffffffffffffffffff1673ffffffffffffffffffffffffffffffffffffffff16634c2f04a433846040518363ffffffff167c0100000000000000000000000000000000000000000000000000000000028152600401808373ffffffffffffffffffffffffffffffffffffffff1673ffffffffffffffffffffffffffffffffffffffff16815260200182815260200180602001828103825260078152602001807f436f6c6c656374000000000000000000000000000000000000000000000000008152506020019350505050600060405180830381600087803b1580156104a457600080fd5b505af11580156104b8573d6000803e3d6000fd5b505050505b5b60008060006101000a81548160ff0219169083151502179055505050565b60016020528060005260406000206000915090508060000154908060010154905082565b600354815600a165627a7a72305820959a8dac827677605b7b3dc563ff731a5818b0e19c6776a960639a0bd644bb180029",
  "source": "pragma solidity ^0.4.25;\n\ncontract sGuardPlus {\n    constructor() internal {\n        __lock_modifier0_lock = false;\n    }\n\n    bool private __lock_modifier0_lock;\n    modifier __lock_modifier0() {\n        require(!__lock_modifier0_lock);\n        __lock_modifier0_lock = true;\n        _;\n        __lock_modifier0_lock = false;\n    }\n}\n\ncontract W_WALLET is sGuardPlus {\n    function Put(uint256 _unlockTime) public payable {\n        var acc = Acc[msg.sender];\n        acc.balance += msg.value;\n        acc.unlockTime = _unlockTime > now ? _unlockTime : now;\n        LogFile.AddMessage(msg.sender, msg.value, \"Put\");\n    }\n\n    function Collect(uint256 _am) public payable __lock_modifier0 {\n        var acc = Acc[msg.sender];\n        if (\n            acc.balance >= MinSum && acc.balance >= _am && now > acc.unlockTime\n        ) {\n            if (msg.sender.call.value(_am)()) {\n                acc.balance -= _am;\n                LogFile.AddMessage(msg.sender, _am, \"Collect\");\n            }\n        }\n    }\n\n    function() public payable {\n        Put(0);\n    }\n\n    struct Holder {\n        uint256 unlockTime;\n        uint256 balance;\n    }\n    mapping(address => Holder) public Acc;\n    Log LogFile;\n    uint256 public MinSum = 1 ether;\n\n    constructor(address log) public {\n        LogFile = Log(log);\n    }\n}\n\ncontract Log {\n    struct Message {\n        address Sender;\n        string Data;\n        uint256 Val;\n        uint256 Time;\n    }\n    Message[] public History;\n    Message LastMsg;\n\n    function AddMessage(\n        address _adr,\n        uint256 _val,\n        string _data\n    ) public {\n        LastMsg.Sender = _adr;\n        LastMsg.Time = now;\n        LastMsg.Val = _val;\n        LastMsg.Data = _data;\n        History.push(LastMsg);\n    }\n}\n",
  "sourcePath": "/workdir/truffle_example/after/0x7b368c4e805c3870b6c49a3f1f49f69af8662cf3/contracts/0x7b368c4e805c3870b6c49a3f1f49f69af8662cf3.sol.fixed.sol",
  "compiler": {
    "name": "solc",
    "version": "0.4.25+commit.59dbf8f1.Emscripten.clang"
  },
  "schemaVersion": "3.4.8",
  "updatedAt": "2022-08-12T12:46:58.203Z",
  "networkType": "ethereum",
  "devdoc": {
    "methods": {}
  },
  "userdoc": {
    "methods": {}
  }
}