{
  "contractName": "SimpleWallet",
  "abi": [
    {
      "constant": true,
      "inputs": [],
      "name": "depositsCount",
      "outputs": [
        {
          "name": "",
          "type": "uint256"
        }
      ],
      "payable": false,
      "stateMutability": "view",
      "type": "function"
    },
    {
      "constant": true,
      "inputs": [],
      "name": "owner",
      "outputs": [
        {
          "name": "",
          "type": "address"
        }
      ],
      "payable": false,
      "stateMutability": "view",
      "type": "function"
    },
    {
      "payable": true,
      "stateMutability": "payable",
      "type": "fallback"
    },
    {
      "constant": false,
      "inputs": [],
      "name": "withdrawAll",
      "outputs": [],
      "payable": false,
      "stateMutability": "nonpayable",
      "type": "function"
    },
    {
      "constant": false,
      "inputs": [
        {
          "name": "_value",
          "type": "uint256"
        }
      ],
      "name": "withdraw",
      "outputs": [],
      "payable": false,
      "stateMutability": "nonpayable",
      "type": "function"
    },
    {
      "constant": false,
      "inputs": [
        {
          "name": "_target",
          "type": "address"
        },
        {
          "name": "_value",
          "type": "uint256"
        }
      ],
      "name": "sendMoney",
      "outputs": [],
      "payable": false,
      "stateMutability": "nonpayable",
      "type": "function"
    }
  ],
  "bytecode": "0x6080604052336000806101000a81548173ffffffffffffffffffffffffffffffffffffffff021916908373ffffffffffffffffffffffffffffffffffffffff16021790555034801561005057600080fd5b50610399806100606000396000f30060806040526004361061006d576000357c0100000000000000000000000000000000000000000000000000000000900463ffffffff1680632e1a7d4d146100815780634506e935146100ae578063853828b6146100d95780638da5cb5b146100f0578063ee4ae2c914610147575b600160008154809291906001019190505550005b34801561008d57600080fd5b506100ac60048036038101908080359060200190929190505050610194565b005b3480156100ba57600080fd5b506100c3610239565b6040518082815260200191505060405180910390f35b3480156100e557600080fd5b506100ee61023f565b005b3480156100fc57600080fd5b506101056102bc565b604051808273ffffffffffffffffffffffffffffffffffffffff1673ffffffffffffffffffffffffffffffffffffffff16815260200191505060405180910390f35b34801561015357600080fd5b50610192600480360381019080803573ffffffffffffffffffffffffffffffffffffffff169060200190929190803590602001909291905050506102e1565b005b6000809054906101000a900473ffffffffffffffffffffffffffffffffffffffff1673ffffffffffffffffffffffffffffffffffffffff163373ffffffffffffffffffffffffffffffffffffffff161415156101ef57600080fd5b3373ffffffffffffffffffffffffffffffffffffffff166108fc829081150290604051600060405180830381858888f19350505050158015610235573d6000803e3d6000fd5b5050565b60015481565b6000809054906101000a900473ffffffffffffffffffffffffffffffffffffffff1673ffffffffffffffffffffffffffffffffffffffff163373ffffffffffffffffffffffffffffffffffffffff1614151561029a57600080fd5b6102ba3073ffffffffffffffffffffffffffffffffffffffff1631610194565b565b6000809054906101000a900473ffffffffffffffffffffffffffffffffffffffff1681565b6000809054906101000a900473ffffffffffffffffffffffffffffffffffffffff1673ffffffffffffffffffffffffffffffffffffffff163373ffffffffffffffffffffffffffffffffffffffff1614151561033c57600080fd5b8173ffffffffffffffffffffffffffffffffffffffff168160405160006040518083038185875af1925050505050505600a165627a7a7230582051f20cfc7f2d8cf5de39e96e3af1efc232111d012f371a65ec7c4747a6e55a670029",
  "source": "/*\r\n * @source: etherscan.io \r\n * @author: -\r\n * @vulnerable_at_lines: 33\r\n */\r\n\r\npragma solidity ^0.4.24;\r\n\r\n\r\ncontract SimpleWallet {\r\n    address public owner = msg.sender;\r\n    uint public depositsCount;\r\n    \r\n    modifier onlyOwner {\r\n        require(msg.sender == owner);\r\n        _;\r\n    }\r\n    \r\n    function() public payable {\r\n        depositsCount++;\r\n    }\r\n    \r\n    function withdrawAll() public onlyOwner {\r\n        withdraw(address(this).balance);\r\n    }\r\n    \r\n    function withdraw(uint _value) public onlyOwner {\r\n        msg.sender.transfer(_value);\r\n    }\r\n    \r\n    function sendMoney(address _target, uint _value) public onlyOwner {\r\n        // <yes> <report> UNCHECKED_LL_CALLS\r\n        _target.call.value(_value)();\r\n    }\r\n}",
  "sourcePath": "/workdir/truffle_example/0xb37f18af15bafb869a065b61fc83cfc44ed9cc27/contracts/0xb37f18af15bafb869a065b61fc83cfc44ed9cc27.sol",
  "compiler": {
    "name": "solc",
    "version": "0.4.25+commit.59dbf8f1.Emscripten.clang"
  },
  "schemaVersion": "3.4.8",
  "updatedAt": "2022-08-11T11:54:15.079Z",
  "networkType": "ethereum",
  "devdoc": {
    "methods": {}
  },
  "userdoc": {
    "methods": {}
  }
}