{
  "contractName": "Owned",
  "abi": [
    {
      "constant": true,
      "inputs": [],
      "name": "owner",
      "outputs": [
        {
          "name": "",
          "type": "address"
        }
      ],
      "payable": false,
      "stateMutability": "view",
      "type": "function"
    },
    {
      "inputs": [],
      "payable": false,
      "stateMutability": "nonpayable",
      "type": "constructor"
    },
    {
      "anonymous": false,
      "inputs": [
        {
          "indexed": false,
          "name": "_prevOwner",
          "type": "address"
        },
        {
          "indexed": false,
          "name": "_newOwner",
          "type": "address"
        }
      ],
      "name": "OwnerUpdate",
      "type": "event"
    },
    {
      "constant": false,
      "inputs": [
        {
          "name": "_newOwner",
          "type": "address"
        }
      ],
      "name": "changeOwner",
      "outputs": [],
      "payable": false,
      "stateMutability": "nonpayable",
      "type": "function"
    },
    {
      "constant": false,
      "inputs": [],
      "name": "acceptOwnership",
      "outputs": [],
      "payable": false,
      "stateMutability": "nonpayable",
      "type": "function"
    }
  ],
  "bytecode": "0x60806040526000600160006101000a81548173ffffffffffffffffffffffffffffffffffffffff021916908373ffffffffffffffffffffffffffffffffffffffff16021790555034801561005257600080fd5b50336000806101000a81548173ffffffffffffffffffffffffffffffffffffffff021916908373ffffffffffffffffffffffffffffffffffffffff160217905550610435806100a26000396000f300608060405260043610610057576000357c0100000000000000000000000000000000000000000000000000000000900463ffffffff16806379ba50971461005c5780638da5cb5b14610073578063a6f9dae1146100ca575b600080fd5b34801561006857600080fd5b5061007161010d565b005b34801561007f57600080fd5b506100886102e9565b604051808273ffffffffffffffffffffffffffffffffffffffff1673ffffffffffffffffffffffffffffffffffffffff16815260200191505060405180910390f35b3480156100d657600080fd5b5061010b600480360381019080803573ffffffffffffffffffffffffffffffffffffffff16906020019092919050505061030e565b005b600160009054906101000a900473ffffffffffffffffffffffffffffffffffffffff1673ffffffffffffffffffffffffffffffffffffffff163373ffffffffffffffffffffffffffffffffffffffff1614151561016957600080fd5b7f343765429aea5a34b3ff6a3785a98a5abb2597aca87bfbb58632c173d585373a6000809054906101000a900473ffffffffffffffffffffffffffffffffffffffff16600160009054906101000a900473ffffffffffffffffffffffffffffffffffffffff16604051808373ffffffffffffffffffffffffffffffffffffffff1673ffffffffffffffffffffffffffffffffffffffff1681526020018273ffffffffffffffffffffffffffffffffffffffff1673ffffffffffffffffffffffffffffffffffffffff1681526020019250505060405180910390a1600160009054906101000a900473ffffffffffffffffffffffffffffffffffffffff166000806101000a81548173ffffffffffffffffffffffffffffffffffffffff021916908373ffffffffffffffffffffffffffffffffffffffff1602179055506000600160006101000a81548173ffffffffffffffffffffffffffffffffffffffff021916908373ffffffffffffffffffffffffffffffffffffffff160217905550565b6000809054906101000a900473ffffffffffffffffffffffffffffffffffffffff1681565b6000809054906101000a900473ffffffffffffffffffffffffffffffffffffffff1673ffffffffffffffffffffffffffffffffffffffff163373ffffffffffffffffffffffffffffffffffffffff1614151561036957600080fd5b6000809054906101000a900473ffffffffffffffffffffffffffffffffffffffff1673ffffffffffffffffffffffffffffffffffffffff168173ffffffffffffffffffffffffffffffffffffffff16141515156103c557600080fd5b80600160006101000a81548173ffffffffffffffffffffffffffffffffffffffff021916908373ffffffffffffffffffffffffffffffffffffffff160217905550505600a165627a7a723058208cde5f861225f35b00f555e1f05b42265cbcf47291b58b2ee3b7b52e00cd06f00029",
  "source": "/**\n *Submitted for verification at Etherscan.io on 2017-12-14\n*/\n\n// Abstract contract for the full ERC 20 Token standard\n// https://github.com/ethereum/EIPs/issues/20\npragma solidity ^0.4.18;\n\ncontract Token {\n    /* This is a slight change to the ERC20 base standard.*/\n    /// total amount of tokens\n    uint256 public totalSupply;\n\n    /// @param _owner The address from which the balance will be retrieved\n    /// @return The balance\n    function balanceOf(address _owner) public constant returns (uint256 balance);\n\n    /// @notice send `_value` token to `_to` from `msg.sender`\n    /// @param _to The address of the recipient\n    /// @param _value The amount of token to be transferred\n    /// @return Whether the transfer was successful or not\n    function transfer(address _to, uint256 _value) public returns (bool success);\n\n    /// @notice send `_value` token to `_to` from `_from` on the condition it is approved by `_from`\n    /// @param _from The address of the sender\n    /// @param _to The address of the recipient\n    /// @param _value The amount of token to be transferred\n    /// @return Whether the transfer was successful or not\n    function transferFrom(address _from, address _to, uint256 _value) public returns (bool success);\n\n    /// @notice `msg.sender` approves `_spender` to spend `_value` tokens\n    /// @param _spender The address of the account able to transfer the tokens\n    /// @param _value The amount of tokens to be approved for transfer\n    /// @return Whether the approval was successful or not\n    function approve(address _spender, uint256 _value) public returns (bool success);\n\n    /// @param _owner The address of the account owning tokens\n    /// @param _spender The address of the account able to transfer the tokens\n    /// @return Amount of remaining tokens allowed to spent\n    function allowance(address _owner, address _spender) public constant returns (uint256 remaining);\n\n    event Transfer(address indexed _from, address indexed _to, uint256 _value);\n    event Approval(address indexed _owner, address indexed _spender, uint256 _value);\n}\n\ncontract Owned {\n\n    /// `owner` is the only address that can call a function with this\n    /// modifier\n    modifier onlyOwner() {\n        require(msg.sender == owner);\n        _;\n    }\n\n    address public owner;\n\n    /// @notice The Constructor assigns the message sender to be `owner`\n    function Owned() public {\n        owner = msg.sender;\n    }\n\n    address newOwner=0x0;\n\n    event OwnerUpdate(address _prevOwner, address _newOwner);\n\n    ///change the owner\n    function changeOwner(address _newOwner) public onlyOwner {\n        require(_newOwner != owner);\n        newOwner = _newOwner;\n    }\n\n    /// accept the ownership\n    function acceptOwnership() public{\n        require(msg.sender == newOwner);\n        OwnerUpdate(owner, newOwner);\n        owner = newOwner;\n        newOwner = 0x0;\n    }\n}\n\ncontract Controlled is Owned{\n\n    function Controlled() public {\n       setExclude(msg.sender);\n    }\n\n    // Flag that determines if the token is transferable or not.\n    bool public transferEnabled = false;\n\n    // flag that makes locked address effect\n    bool lockFlag=true;\n    mapping(address => bool) locked;\n    mapping(address => bool) exclude;\n\n    function enableTransfer(bool _enable) public onlyOwner{\n        transferEnabled=_enable;\n    }\n\n    function disableLock(bool _enable) public onlyOwner returns (bool success){\n        lockFlag=_enable;\n        return true;\n    }\n\n    function addLock(address _addr) public onlyOwner returns (bool success){\n        require(_addr!=msg.sender);\n        locked[_addr]=true;\n        return true;\n    }\n\n    function setExclude(address _addr) public onlyOwner returns (bool success){\n        exclude[_addr]=true;\n        return true;\n    }\n\n    function removeLock(address _addr) public onlyOwner returns (bool success){\n        locked[_addr]=false;\n        return true;\n    }\n\n    modifier transferAllowed(address _addr) {\n        if (!exclude[_addr]) {\n            assert(transferEnabled);\n            if(lockFlag){\n                assert(!locked[_addr]);\n            }\n        }\n\n        _;\n    }\n\n}\n\ncontract StandardToken is Token,Controlled {\n\n    function transfer(address _to, uint256 _value) public transferAllowed(msg.sender) returns (bool success) {\n        //Default assumes totalSupply can't be over max (2^256 - 1).\n        //If your token leaves out totalSupply and can issue more tokens as time goes on, you need to check if it doesn't wrap.\n        //Replace the if with this one instead.\n        if (balances[msg.sender] >= _value && balances[_to] + _value > balances[_to]) {\n            balances[msg.sender] -= _value;\n            balances[_to] += _value;\n            Transfer(msg.sender, _to, _value);\n            return true;\n        } else { return false; }\n    }\n\n    function transferFrom(address _from, address _to, uint256 _value) public transferAllowed(_from) returns (bool success) {\n        //same as above. Replace this line with the following if you want to protect against wrapping uints.\n        if (balances[_from] >= _value && allowed[_from][msg.sender] >= _value && balances[_to] + _value > balances[_to]) {\n            balances[_to] += _value;\n            balances[_from] -= _value;\n            allowed[_from][msg.sender] -= _value;\n            Transfer(_from, _to, _value);\n            return true;\n        } else { return false; }\n    }\n\n    function balanceOf(address _owner) public constant returns (uint256 balance) {\n        return balances[_owner];\n    }\n\n    function approve(address _spender, uint256 _value) public returns (bool success) {\n        allowed[msg.sender][_spender] = _value;\n        Approval(msg.sender, _spender, _value);\n        return true;\n    }\n\n    function allowance(address _owner, address _spender) public constant returns (uint256 remaining) {\n      return allowed[_owner][_spender];\n    }\n\n    mapping (address => uint256) balances;\n    mapping (address => mapping (address => uint256)) allowed;\n}\n\ncontract MESH is StandardToken {\n\n    function () public {\n        revert();\n    }\n\n    string public name = \"M2C Mesh Network\";\n    uint8 public decimals = 18;\n    string public symbol = \"mesh\";\n\n\n    // The nonce for avoid transfer replay attacks\n    mapping(address => uint256) nonces;\n\n    function MESH (uint256 initialSupply) public {\n        totalSupply = initialSupply * 10 ** uint256(decimals);\n        balances[msg.sender] = totalSupply;\n    }\n    /*\n     * Proxy transfer token. When some users of the ethereum account has no ether,\n     * he or she can authorize the agent for broadcast transactions, and agents may charge agency fees\n     * @param _from\n     * @param _to\n     * @param _value\n     * @param fee\n     * @param _v\n     * @param _r\n     * @param _s\n     */\n    function transferProxy(address _from, address _to, uint256 _value, uint256 _fee,\n        uint8 _v,bytes32 _r, bytes32 _s) public transferAllowed(_from) returns (bool){\n\n        if(balances[_from] < _fee + _value) revert();\n\n        uint256 nonce = nonces[_from];\n        bytes32 h = keccak256(_from,_to,_value,_fee,nonce);\n        if(_from != ecrecover(h,_v,_r,_s)) revert();\n\n        if(balances[_to] + _value < balances[_to]\n            || balances[msg.sender] + _fee < balances[msg.sender]) revert();\n        balances[_to] += _value;\n        Transfer(_from, _to, _value);\n\n        balances[msg.sender] += _fee;\n        Transfer(_from, msg.sender, _fee);\n\n        balances[_from] -= _value + _fee;\n        nonces[_from] = nonce + 1;\n        return true;\n    }\n\n    /*\n     * Proxy approve that some one can authorize the agent for broadcast transaction\n     * which call approve method, and agents may charge agency fees\n     * @param _from The address which should tranfer tokens to others\n     * @param _spender The spender who allowed by _from\n     * @param _value The value that should be tranfered.\n     * @param _v\n     * @param _r\n     * @param _s\n     */\n    function approveProxy(address _from, address _spender, uint256 _value,\n        uint8 _v,bytes32 _r, bytes32 _s) public returns (bool success) {\n\n        uint256 nonce = nonces[_from];\n        bytes32 hash = keccak256(_from,_spender,_value,nonce);\n        if(_from != ecrecover(hash,_v,_r,_s)) revert();\n        allowed[_from][_spender] = _value;\n        Approval(_from, _spender, _value);\n        nonces[_from] = nonce + 1;\n        return true;\n    }\n\n\n    /*\n     * Get the nonce\n     * @param _addr\n     */\n    function getNonce(address _addr) public constant returns (uint256){\n        return nonces[_addr];\n    }\n\n    /* Approves and then calls the receiving contract */\n    function approveAndCall(address _spender, uint256 _value, bytes _extraData) public returns (bool success) {\n        allowed[msg.sender][_spender] = _value;\n        Approval(msg.sender, _spender, _value);\n\n        //call the receiveApproval function on the contract you want to be notified. This crafts the function signature manually so one doesn't have to include a contract in here just for this.\n        //receiveApproval(address _from, uint256 _value, address _tokenContract, bytes _extraData)\n        //it is assumed that when does this that the call *should* succeed, otherwise one would use vanilla approve instead.\n        if(!_spender.call(bytes4(bytes32(keccak256(\"receiveApproval(address,uint256,address,bytes)\"))), msg.sender, _value, this, _extraData)) { revert(); }\n        return true;\n    }\n\n    /* Approves and then calls the contract code*/\n    function approveAndCallcode(address _spender, uint256 _value, bytes _extraData) public returns (bool success) {\n        allowed[msg.sender][_spender] = _value;\n        Approval(msg.sender, _spender, _value);\n\n        //Call the contract code\n        if(!_spender.call(_extraData)) { revert(); }\n        return true;\n    }\n}",
  "sourcePath": "/workdir/truffle_example/0x3ac6cb00f5a44712022a51fbace4c7497f56ee31/contracts/0x3ac6cb00f5a44712022a51fbace4c7497f56ee31.sol",
  "compiler": {
    "name": "solc",
    "version": "0.4.25+commit.59dbf8f1.Emscripten.clang"
  },
  "schemaVersion": "3.4.8",
  "updatedAt": "2022-08-11T03:50:31.881Z",
  "devdoc": {
    "methods": {}
  },
  "userdoc": {
    "methods": {
      "acceptOwnership()": {
        "notice": "accept the ownership"
      },
      "changeOwner(address)": {
        "notice": "change the owner"
      }
    }
  }
}