{
  "contractName": "BCOExtendedToken",
  "abi": [
    {
      "constant": true,
      "inputs": [],
      "name": "mintingFinished",
      "outputs": [
        {
          "name": "",
          "type": "bool"
        }
      ],
      "payable": false,
      "stateMutability": "view",
      "type": "function"
    },
    {
      "constant": true,
      "inputs": [],
      "name": "name",
      "outputs": [
        {
          "name": "",
          "type": "string"
        }
      ],
      "payable": false,
      "stateMutability": "view",
      "type": "function"
    },
    {
      "constant": false,
      "inputs": [
        {
          "name": "_spender",
          "type": "address"
        },
        {
          "name": "_value",
          "type": "uint256"
        }
      ],
      "name": "approve",
      "outputs": [
        {
          "name": "success",
          "type": "bool"
        }
      ],
      "payable": false,
      "stateMutability": "nonpayable",
      "type": "function"
    },
    {
      "constant": true,
      "inputs": [],
      "name": "totalSupply",
      "outputs": [
        {
          "name": "",
          "type": "uint256"
        }
      ],
      "payable": false,
      "stateMutability": "view",
      "type": "function"
    },
    {
      "constant": false,
      "inputs": [
        {
          "name": "_from",
          "type": "address"
        },
        {
          "name": "_to",
          "type": "address"
        },
        {
          "name": "_value",
          "type": "uint256"
        }
      ],
      "name": "transferFrom",
      "outputs": [
        {
          "name": "success",
          "type": "bool"
        }
      ],
      "payable": false,
      "stateMutability": "nonpayable",
      "type": "function"
    },
    {
      "constant": true,
      "inputs": [],
      "name": "decimals",
      "outputs": [
        {
          "name": "",
          "type": "uint256"
        }
      ],
      "payable": false,
      "stateMutability": "view",
      "type": "function"
    },
    {
      "constant": false,
      "inputs": [
        {
          "name": "burnAmount",
          "type": "uint256"
        }
      ],
      "name": "burn",
      "outputs": [],
      "payable": false,
      "stateMutability": "nonpayable",
      "type": "function"
    },
    {
      "constant": true,
      "inputs": [
        {
          "name": "",
          "type": "address"
        }
      ],
      "name": "mintAgents",
      "outputs": [
        {
          "name": "",
          "type": "bool"
        }
      ],
      "payable": false,
      "stateMutability": "view",
      "type": "function"
    },
    {
      "constant": false,
      "inputs": [
        {
          "name": "value",
          "type": "uint256"
        }
      ],
      "name": "upgrade",
      "outputs": [],
      "payable": false,
      "stateMutability": "nonpayable",
      "type": "function"
    },
    {
      "constant": true,
      "inputs": [],
      "name": "upgradeAgent",
      "outputs": [
        {
          "name": "",
          "type": "address"
        }
      ],
      "payable": false,
      "stateMutability": "view",
      "type": "function"
    },
    {
      "constant": true,
      "inputs": [],
      "name": "upgradeMaster",
      "outputs": [
        {
          "name": "",
          "type": "address"
        }
      ],
      "payable": false,
      "stateMutability": "view",
      "type": "function"
    },
    {
      "constant": true,
      "inputs": [
        {
          "name": "_owner",
          "type": "address"
        }
      ],
      "name": "balanceOf",
      "outputs": [
        {
          "name": "balance",
          "type": "uint256"
        }
      ],
      "payable": false,
      "stateMutability": "view",
      "type": "function"
    },
    {
      "constant": true,
      "inputs": [],
      "name": "getUpgradeState",
      "outputs": [
        {
          "name": "",
          "type": "uint8"
        }
      ],
      "payable": false,
      "stateMutability": "view",
      "type": "function"
    },
    {
      "constant": true,
      "inputs": [
        {
          "name": "",
          "type": "address"
        }
      ],
      "name": "previligedBalances",
      "outputs": [
        {
          "name": "",
          "type": "uint256"
        }
      ],
      "payable": false,
      "stateMutability": "view",
      "type": "function"
    },
    {
      "constant": true,
      "inputs": [],
      "name": "owner",
      "outputs": [
        {
          "name": "",
          "type": "address"
        }
      ],
      "payable": false,
      "stateMutability": "view",
      "type": "function"
    },
    {
      "constant": true,
      "inputs": [],
      "name": "symbol",
      "outputs": [
        {
          "name": "",
          "type": "string"
        }
      ],
      "payable": false,
      "stateMutability": "view",
      "type": "function"
    },
    {
      "constant": true,
      "inputs": [],
      "name": "canUpgrade",
      "outputs": [
        {
          "name": "",
          "type": "bool"
        }
      ],
      "payable": false,
      "stateMutability": "view",
      "type": "function"
    },
    {
      "constant": false,
      "inputs": [
        {
          "name": "_to",
          "type": "address"
        },
        {
          "name": "_value",
          "type": "uint256"
        }
      ],
      "name": "transfer",
      "outputs": [
        {
          "name": "success",
          "type": "bool"
        }
      ],
      "payable": false,
      "stateMutability": "nonpayable",
      "type": "function"
    },
    {
      "constant": false,
      "inputs": [
        {
          "name": "_spender",
          "type": "address"
        },
        {
          "name": "_addedValue",
          "type": "uint256"
        }
      ],
      "name": "addApproval",
      "outputs": [
        {
          "name": "success",
          "type": "bool"
        }
      ],
      "payable": false,
      "stateMutability": "nonpayable",
      "type": "function"
    },
    {
      "constant": true,
      "inputs": [],
      "name": "totalUpgraded",
      "outputs": [
        {
          "name": "",
          "type": "uint256"
        }
      ],
      "payable": false,
      "stateMutability": "view",
      "type": "function"
    },
    {
      "constant": false,
      "inputs": [
        {
          "name": "agent",
          "type": "address"
        }
      ],
      "name": "setUpgradeAgent",
      "outputs": [],
      "payable": false,
      "stateMutability": "nonpayable",
      "type": "function"
    },
    {
      "constant": true,
      "inputs": [
        {
          "name": "_owner",
          "type": "address"
        },
        {
          "name": "_spender",
          "type": "address"
        }
      ],
      "name": "allowance",
      "outputs": [
        {
          "name": "remaining",
          "type": "uint256"
        }
      ],
      "payable": false,
      "stateMutability": "view",
      "type": "function"
    },
    {
      "constant": false,
      "inputs": [
        {
          "name": "_spender",
          "type": "address"
        },
        {
          "name": "_subtractedValue",
          "type": "uint256"
        }
      ],
      "name": "subApproval",
      "outputs": [
        {
          "name": "success",
          "type": "bool"
        }
      ],
      "payable": false,
      "stateMutability": "nonpayable",
      "type": "function"
    },
    {
      "constant": true,
      "inputs": [],
      "name": "BURN_ADDRESS",
      "outputs": [
        {
          "name": "",
          "type": "address"
        }
      ],
      "payable": false,
      "stateMutability": "view",
      "type": "function"
    },
    {
      "constant": false,
      "inputs": [
        {
          "name": "master",
          "type": "address"
        }
      ],
      "name": "setUpgradeMaster",
      "outputs": [],
      "payable": false,
      "stateMutability": "nonpayable",
      "type": "function"
    },
    {
      "inputs": [
        {
          "name": "_owner",
          "type": "address"
        },
        {
          "name": "_name",
          "type": "string"
        },
        {
          "name": "_symbol",
          "type": "string"
        },
        {
          "name": "_totalSupply",
          "type": "uint256"
        },
        {
          "name": "_decimals",
          "type": "uint256"
        }
      ],
      "payable": false,
      "stateMutability": "nonpayable",
      "type": "constructor"
    },
    {
      "anonymous": false,
      "inputs": [
        {
          "indexed": false,
          "name": "addr",
          "type": "address"
        },
        {
          "indexed": false,
          "name": "state",
          "type": "bool"
        }
      ],
      "name": "MintingAgentChanged",
      "type": "event"
    },
    {
      "anonymous": false,
      "inputs": [
        {
          "indexed": true,
          "name": "_from",
          "type": "address"
        },
        {
          "indexed": true,
          "name": "_to",
          "type": "address"
        },
        {
          "indexed": false,
          "name": "_value",
          "type": "uint256"
        }
      ],
      "name": "Upgrade",
      "type": "event"
    },
    {
      "anonymous": false,
      "inputs": [
        {
          "indexed": false,
          "name": "agent",
          "type": "address"
        }
      ],
      "name": "UpgradeAgentSet",
      "type": "event"
    },
    {
      "anonymous": false,
      "inputs": [
        {
          "indexed": false,
          "name": "burner",
          "type": "address"
        },
        {
          "indexed": false,
          "name": "burnedAmount",
          "type": "uint256"
        }
      ],
      "name": "Burned",
      "type": "event"
    },
    {
      "anonymous": false,
      "inputs": [
        {
          "indexed": false,
          "name": "receiver",
          "type": "address"
        },
        {
          "indexed": false,
          "name": "amount",
          "type": "uint256"
        }
      ],
      "name": "Minted",
      "type": "event"
    },
    {
      "anonymous": false,
      "inputs": [
        {
          "indexed": true,
          "name": "from",
          "type": "address"
        },
        {
          "indexed": true,
          "name": "to",
          "type": "address"
        },
        {
          "indexed": false,
          "name": "value",
          "type": "uint256"
        }
      ],
      "name": "Transfer",
      "type": "event"
    },
    {
      "anonymous": false,
      "inputs": [
        {
          "indexed": true,
          "name": "owner",
          "type": "address"
        },
        {
          "indexed": true,
          "name": "spender",
          "type": "address"
        },
        {
          "indexed": false,
          "name": "value",
          "type": "uint256"
        }
      ],
      "name": "Approval",
      "type": "event"
    },
    {
      "constant": false,
      "inputs": [
        {
          "name": "newOwner",
          "type": "address"
        }
      ],
      "name": "transferOwnership",
      "outputs": [],
      "payable": false,
      "stateMutability": "nonpayable",
      "type": "function"
    },
    {
      "constant": false,
      "inputs": [
        {
          "name": "_to",
          "type": "address"
        },
        {
          "name": "_value",
          "type": "uint256"
        }
      ],
      "name": "transferPrivileged",
      "outputs": [
        {
          "name": "success",
          "type": "bool"
        }
      ],
      "payable": false,
      "stateMutability": "nonpayable",
      "type": "function"
    },
    {
      "constant": true,
      "inputs": [
        {
          "name": "_owner",
          "type": "address"
        }
      ],
      "name": "getPrivilegedBalance",
      "outputs": [
        {
          "name": "balance",
          "type": "uint256"
        }
      ],
      "payable": false,
      "stateMutability": "view",
      "type": "function"
    },
    {
      "constant": false,
      "inputs": [
        {
          "name": "_from",
          "type": "address"
        },
        {
          "name": "_to",
          "type": "address"
        },
        {
          "name": "_value",
          "type": "uint256"
        }
      ],
      "name": "transferFromPrivileged",
      "outputs": [
        {
          "name": "success",
          "type": "bool"
        }
      ],
      "payable": false,
      "stateMutability": "nonpayable",
      "type": "function"
    },
    {
      "constant": false,
      "inputs": [
        {
          "name": "receiver",
          "type": "address"
        },
        {
          "name": "amount",
          "type": "uint256"
        }
      ],
      "name": "mint",
      "outputs": [],
      "payable": false,
      "stateMutability": "nonpayable",
      "type": "function"
    },
    {
      "constant": false,
      "inputs": [
        {
          "name": "addr",
          "type": "address"
        },
        {
          "name": "state",
          "type": "bool"
        }
      ],
      "name": "setMintAgent",
      "outputs": [],
      "payable": false,
      "stateMutability": "nonpayable",
      "type": "function"
    }
  ],
  "bytecode": "0x60806040526000600960146101000a81548160ff0219169083151502179055503480156200002c57600080fd5b5060405162002d6038038062002d6083398101806040528101908080519060200190929190805182019291906020018051820192919060200180519060200190929190805190602001909291905050508480600360006101000a81548173ffffffffffffffffffffffffffffffffffffffff021916908373ffffffffffffffffffffffffffffffffffffffff160217905550508360069080519060200190620000d79291906200018f565b508260079080519060200190620000f09291906200018f565b50816000819055508060088190555081600160008773ffffffffffffffffffffffffffffffffffffffff1673ffffffffffffffffffffffffffffffffffffffff1681526020019081526020016000208190555084600960006101000a81548173ffffffffffffffffffffffffffffffffffffffff021916908373ffffffffffffffffffffffffffffffffffffffff16021790555050505050506200023e565b828054600181600116156101000203166002900490600052602060002090601f016020900481019282601f10620001d257805160ff191683800117855562000203565b8280016001018555821562000203579182015b8281111562000202578251825591602001919060010190620001e5565b5b50905062000212919062000216565b5090565b6200023b91905b80821115620002375760008160009055506001016200021d565b5090565b90565b612b12806200024e6000396000f30060806040526004361061018b576000357c0100000000000000000000000000000000000000000000000000000000900463ffffffff16806305d2035b1461019057806306fdde03146101bf578063095ea7b31461024f57806318160ddd146102b45780631a017f3f146102df57806323b872dd14610344578063313ce567146103c957806340c10f19146103f457806342966c681461044157806342c1867b1461046e57806343214675146104c957806345977d03146105185780635d3171d9146105455780635de4ccb0146105ca578063600440cb1461062157806370a08231146106785780638444b391146106cf5780638c133a77146107085780638da5cb5b1461075f57806395d89b41146107b65780639738968c14610846578063a9059cbb14610875578063ab7e9dca146108da578063ac3cb72c14610931578063c752ff6214610996578063d7e7088a146109c1578063dd62ed3e14610a04578063e2301d0214610a7b578063f2fde38b14610ae0578063fccc281314610b23578063ffeb7d7514610b7a575b600080fd5b34801561019c57600080fd5b506101a5610bbd565b604051808215151515815260200191505060405180910390f35b3480156101cb57600080fd5b506101d4610bd0565b6040518080602001828103825283818151815260200191508051906020019080838360005b838110156102145780820151818401526020810190506101f9565b50505050905090810190601f1680156102415780820380516001836020036101000a031916815260200191505b509250505060405180910390f35b34801561025b57600080fd5b5061029a600480360381019080803573ffffffffffffffffffffffffffffffffffffffff16906020019092919080359060200190929190505050610c6e565b604051808215151515815260200191505060405180910390f35b3480156102c057600080fd5b506102c9610df7565b6040518082815260200191505060405180910390f35b3480156102eb57600080fd5b5061032a600480360381019080803573ffffffffffffffffffffffffffffffffffffffff16906020019092919080359060200190929190505050610dfd565b604051808215151515815260200191505060405180910390f35b34801561035057600080fd5b506103af600480360381019080803573ffffffffffffffffffffffffffffffffffffffff169060200190929190803573ffffffffffffffffffffffffffffffffffffffff1690602001909291908035906020019092919050505061106e565b604051808215151515815260200191505060405180910390f35b3480156103d557600080fd5b506103de611303565b6040518082815260200191505060405180910390f35b34801561040057600080fd5b5061043f600480360381019080803573ffffffffffffffffffffffffffffffffffffffff16906020019092919080359060200190929190505050611309565b005b34801561044d57600080fd5b5061046c6004803603810190808035906020019092919050505061146d565b005b34801561047a57600080fd5b506104af600480360381019080803573ffffffffffffffffffffffffffffffffffffffff16906020019092919050505061157f565b604051808215151515815260200191505060405180910390f35b3480156104d557600080fd5b50610516600480360381019080803573ffffffffffffffffffffffffffffffffffffffff16906020019092919080351515906020019092919050505061159f565b005b34801561052457600080fd5b50610543600480360381019080803590602001909291905050506116df565b005b34801561055157600080fd5b506105b0600480360381019080803573ffffffffffffffffffffffffffffffffffffffff169060200190929190803573ffffffffffffffffffffffffffffffffffffffff16906020019092919080359060200190929190505050611956565b604051808215151515815260200191505060405180910390f35b3480156105d657600080fd5b506105df611bcd565b604051808273ffffffffffffffffffffffffffffffffffffffff1673ffffffffffffffffffffffffffffffffffffffff16815260200191505060405180910390f35b34801561062d57600080fd5b50610636611bf3565b604051808273ffffffffffffffffffffffffffffffffffffffff1673ffffffffffffffffffffffffffffffffffffffff16815260200191505060405180910390f35b34801561068457600080fd5b506106b9600480360381019080803573ffffffffffffffffffffffffffffffffffffffff169060200190929190505050611c19565b6040518082815260200191505060405180910390f35b3480156106db57600080fd5b506106e4611c62565b604051808260048111156106f457fe5b60ff16815260200191505060405180910390f35b34801561071457600080fd5b50610749600480360381019080803573ffffffffffffffffffffffffffffffffffffffff169060200190929190505050611ce1565b6040518082815260200191505060405180910390f35b34801561076b57600080fd5b50610774611cf9565b604051808273ffffffffffffffffffffffffffffffffffffffff1673ffffffffffffffffffffffffffffffffffffffff16815260200191505060405180910390f35b3480156107c257600080fd5b506107cb611d1f565b6040518080602001828103825283818151815260200191508051906020019080838360005b8381101561080b5780820151818401526020810190506107f0565b50505050905090810190601f1680156108385780820380516001836020036101000a031916815260200191505b509250505060405180910390f35b34801561085257600080fd5b5061085b611dbd565b604051808215151515815260200191505060405180910390f35b34801561088157600080fd5b506108c0600480360381019080803573ffffffffffffffffffffffffffffffffffffffff16906020019092919080359060200190929190505050611dc6565b604051808215151515815260200191505060405180910390f35b3480156108e657600080fd5b5061091b600480360381019080803573ffffffffffffffffffffffffffffffffffffffff169060200190929190505050612036565b6040518082815260200191505060405180910390f35b34801561093d57600080fd5b5061097c600480360381019080803573ffffffffffffffffffffffffffffffffffffffff1690602001909291908035906020019092919050505061207f565b604051808215151515815260200191505060405180910390f35b3480156109a257600080fd5b506109ab61228f565b6040518082815260200191505060405180910390f35b3480156109cd57600080fd5b50610a02600480360381019080803573ffffffffffffffffffffffffffffffffffffffff169060200190929190505050612295565b005b348015610a1057600080fd5b50610a65600480360381019080803573ffffffffffffffffffffffffffffffffffffffff169060200190929190803573ffffffffffffffffffffffffffffffffffffffff1690602001909291905050506125b7565b6040518082815260200191505060405180910390f35b348015610a8757600080fd5b50610ac6600480360381019080803573ffffffffffffffffffffffffffffffffffffffff1690602001909291908035906020019092919050505061263e565b604051808215151515815260200191505060405180910390f35b348015610aec57600080fd5b50610b21600480360381019080803573ffffffffffffffffffffffffffffffffffffffff1690602001909291905050506128de565b005b348015610b2f57600080fd5b50610b386129b5565b604051808273ffffffffffffffffffffffffffffffffffffffff1673ffffffffffffffffffffffffffffffffffffffff16815260200191505060405180910390f35b348015610b8657600080fd5b50610bbb600480360381019080803573ffffffffffffffffffffffffffffffffffffffff1690602001909291905050506129ba565b005b600960149054906101000a900460ff1681565b60068054600181600116156101000203166002900480601f016020809104026020016040519081016040528092919081815260200182805460018160011615610100020316600290048015610c665780601f10610c3b57610100808354040283529160200191610c66565b820191906000526020600020905b815481529060010190602001808311610c4957829003601f168201915b505050505081565b6000808214158015610cfd57506000600260003373ffffffffffffffffffffffffffffffffffffffff1673ffffffffffffffffffffffffffffffffffffffff16815260200190815260200160002060008573ffffffffffffffffffffffffffffffffffffffff1673ffffffffffffffffffffffffffffffffffffffff1681526020019081526020016000205414155b15610d0757600080fd5b81600260003373ffffffffffffffffffffffffffffffffffffffff1673ffffffffffffffffffffffffffffffffffffffff16815260200190815260200160002060008573ffffffffffffffffffffffffffffffffffffffff1673ffffffffffffffffffffffffffffffffffffffff168152602001908152602001600020819055508273ffffffffffffffffffffffffffffffffffffffff163373ffffffffffffffffffffffffffffffffffffffff167f8c5be1e5ebec7d5bd14f71427d1e84f3dd0314c0f7b2291e5b200ac8c7c3b925846040518082815260200191505060405180910390a36001905092915050565b60005481565b6000600960009054906101000a900473ffffffffffffffffffffffffffffffffffffffff1673ffffffffffffffffffffffffffffffffffffffff163373ffffffffffffffffffffffffffffffffffffffff16141515610e5b57600080fd5b610ea4600160003373ffffffffffffffffffffffffffffffffffffffff1673ffffffffffffffffffffffffffffffffffffffff1681526020019081526020016000205483612a7e565b600160003373ffffffffffffffffffffffffffffffffffffffff1673ffffffffffffffffffffffffffffffffffffffff16815260200190815260200160002081905550610f30600160008573ffffffffffffffffffffffffffffffffffffffff1673ffffffffffffffffffffffffffffffffffffffff1681526020019081526020016000205483612a97565b600160008573ffffffffffffffffffffffffffffffffffffffff1673ffffffffffffffffffffffffffffffffffffffff16815260200190815260200160002081905550610fbc600a60008573ffffffffffffffffffffffffffffffffffffffff1673ffffffffffffffffffffffffffffffffffffffff1681526020019081526020016000205483612a97565b600a60008573ffffffffffffffffffffffffffffffffffffffff1673ffffffffffffffffffffffffffffffffffffffff168152602001908152602001600020819055508273ffffffffffffffffffffffffffffffffffffffff163373ffffffffffffffffffffffffffffffffffffffff167fddf252ad1be2c89b69c2b068fc378daa952ba7f163c4a11628f55a4df523b3ef846040518082815260200191505060405180910390a36001905092915050565b600080600260008673ffffffffffffffffffffffffffffffffffffffff1673ffffffffffffffffffffffffffffffffffffffff16815260200190815260200160002060003373ffffffffffffffffffffffffffffffffffffffff1673ffffffffffffffffffffffffffffffffffffffff168152602001908152602001600020549050611139600160008673ffffffffffffffffffffffffffffffffffffffff1673ffffffffffffffffffffffffffffffffffffffff1681526020019081526020016000205484612a97565b600160008673ffffffffffffffffffffffffffffffffffffffff1673ffffffffffffffffffffffffffffffffffffffff168152602001908152602001600020819055506111c5600160008773ffffffffffffffffffffffffffffffffffffffff1673ffffffffffffffffffffffffffffffffffffffff1681526020019081526020016000205484612a7e565b600160008773ffffffffffffffffffffffffffffffffffffffff1673ffffffffffffffffffffffffffffffffffffffff168152602001908152602001600020819055506112128184612a7e565b600260008773ffffffffffffffffffffffffffffffffffffffff1673ffffffffffffffffffffffffffffffffffffffff16815260200190815260200160002060003373ffffffffffffffffffffffffffffffffffffffff1673ffffffffffffffffffffffffffffffffffffffff168152602001908152602001600020819055508373ffffffffffffffffffffffffffffffffffffffff168573ffffffffffffffffffffffffffffffffffffffff167fddf252ad1be2c89b69c2b068fc378daa952ba7f163c4a11628f55a4df523b3ef856040518082815260200191505060405180910390a360019150509392505050565b60085481565b600b60003373ffffffffffffffffffffffffffffffffffffffff1673ffffffffffffffffffffffffffffffffffffffff16815260200190815260200160002060009054906101000a900460ff16151561136157600080fd5b600960149054906101000a900460ff161561137b57600080fd5b61138760005482612a97565b6000819055506113d6600160008473ffffffffffffffffffffffffffffffffffffffff1673ffffffffffffffffffffffffffffffffffffffff1681526020019081526020016000205482612a97565b600160008473ffffffffffffffffffffffffffffffffffffffff1673ffffffffffffffffffffffffffffffffffffffff168152602001908152602001600020819055508173ffffffffffffffffffffffffffffffffffffffff1660007fddf252ad1be2c89b69c2b068fc378daa952ba7f163c4a11628f55a4df523b3ef836040518082815260200191505060405180910390a35050565b60003390506114bb600160008373ffffffffffffffffffffffffffffffffffffffff1673ffffffffffffffffffffffffffffffffffffffff1681526020019081526020016000205483612a7e565b600160008373ffffffffffffffffffffffffffffffffffffffff1673ffffffffffffffffffffffffffffffffffffffff1681526020019081526020016000208190555061150a60005483612a7e565b6000819055507f696de425f79f4a40bc6d2122ca50507f0efbeabbff86a84871b7196ab8ea8df78183604051808373ffffffffffffffffffffffffffffffffffffffff1673ffffffffffffffffffffffffffffffffffffffff1681526020018281526020019250505060405180910390a15050565b600b6020528060005260406000206000915054906101000a900460ff1681565b600960009054906101000a900473ffffffffffffffffffffffffffffffffffffffff1673ffffffffffffffffffffffffffffffffffffffff163373ffffffffffffffffffffffffffffffffffffffff161415156115fb57600080fd5b600960149054906101000a900460ff161561161557600080fd5b80600b60008473ffffffffffffffffffffffffffffffffffffffff1673ffffffffffffffffffffffffffffffffffffffff16815260200190815260200160002060006101000a81548160ff0219169083151502179055507f4b0adf6c802794c7dde28a08a4e07131abcff3bf9603cd71f14f90bec7865efa8282604051808373ffffffffffffffffffffffffffffffffffffffff1673ffffffffffffffffffffffffffffffffffffffff168152602001821515151581526020019250505060405180910390a15050565b60006116e9611c62565b9050600360048111156116f857fe5b81600481111561170457fe5b1480611725575060048081111561171757fe5b81600481111561172357fe5b145b151561173057600080fd5b600082141561173e57600080fd5b611787600160003373ffffffffffffffffffffffffffffffffffffffff1673ffffffffffffffffffffffffffffffffffffffff1681526020019081526020016000205483612a7e565b600160003373ffffffffffffffffffffffffffffffffffffffff1673ffffffffffffffffffffffffffffffffffffffff168152602001908152602001600020819055506117d660005483612a7e565b6000819055506117e860055483612a97565b600581905550600460009054906101000a900473ffffffffffffffffffffffffffffffffffffffff1673ffffffffffffffffffffffffffffffffffffffff1663753e88e533846040518363ffffffff167c0100000000000000000000000000000000000000000000000000000000028152600401808373ffffffffffffffffffffffffffffffffffffffff1673ffffffffffffffffffffffffffffffffffffffff16815260200182815260200192505050600060405180830381600087803b1580156118b357600080fd5b505af11580156118c7573d6000803e3d6000fd5b50505050600460009054906101000a900473ffffffffffffffffffffffffffffffffffffffff1673ffffffffffffffffffffffffffffffffffffffff163373ffffffffffffffffffffffffffffffffffffffff167f7e5c344a8141a805725cb476f76c6953b842222b967edd1f78ddb6e8b3f397ac846040518082815260200191505060405180910390a35050565b600080600960009054906101000a900473ffffffffffffffffffffffffffffffffffffffff1673ffffffffffffffffffffffffffffffffffffffff163373ffffffffffffffffffffffffffffffffffffffff161415156119b557600080fd5b600a60008673ffffffffffffffffffffffffffffffffffffffff1673ffffffffffffffffffffffffffffffffffffffff168152602001908152602001600020549050611a40600160008773ffffffffffffffffffffffffffffffffffffffff1673ffffffffffffffffffffffffffffffffffffffff1681526020019081526020016000205484612a7e565b600160008773ffffffffffffffffffffffffffffffffffffffff1673ffffffffffffffffffffffffffffffffffffffff16815260200190815260200160002081905550611acc600160008673ffffffffffffffffffffffffffffffffffffffff1673ffffffffffffffffffffffffffffffffffffffff1681526020019081526020016000205484612a97565b600160008673ffffffffffffffffffffffffffffffffffffffff1673ffffffffffffffffffffffffffffffffffffffff16815260200190815260200160002081905550611b198184612a7e565b600a60008773ffffffffffffffffffffffffffffffffffffffff1673ffffffffffffffffffffffffffffffffffffffff168152602001908152602001600020819055508373ffffffffffffffffffffffffffffffffffffffff168573ffffffffffffffffffffffffffffffffffffffff167fddf252ad1be2c89b69c2b068fc378daa952ba7f163c4a11628f55a4df523b3ef856040518082815260200191505060405180910390a360019150509392505050565b600460009054906101000a900473ffffffffffffffffffffffffffffffffffffffff1681565b600360009054906101000a900473ffffffffffffffffffffffffffffffffffffffff1681565b6000600160008373ffffffffffffffffffffffffffffffffffffffff1673ffffffffffffffffffffffffffffffffffffffff168152602001908152602001600020549050919050565b6000611c6c611dbd565b1515611c7b5760019050611cde565b6000600460009054906101000a900473ffffffffffffffffffffffffffffffffffffffff1673ffffffffffffffffffffffffffffffffffffffff161415611cc55760029050611cde565b60006005541415611cd95760039050611cde565b600490505b90565b600a6020528060005260406000206000915090505481565b600960009054906101000a900473ffffffffffffffffffffffffffffffffffffffff1681565b60078054600181600116156101000203166002900480601f016020809104026020016040519081016040528092919081815260200182805460018160011615610100020316600290048015611db55780601f10611d8a57610100808354040283529160200191611db5565b820191906000526020600020905b815481529060010190602001808311611d9857829003601f168201915b505050505081565b60006001905090565b6000806040600481016000369050141515611de057600080fd5b611e29600160003373ffffffffffffffffffffffffffffffffffffffff1673ffffffffffffffffffffffffffffffffffffffff1681526020019081526020016000205485612a7e565b600160003373ffffffffffffffffffffffffffffffffffffffff1673ffffffffffffffffffffffffffffffffffffffff16815260200190815260200160002081905550611eb5600160008773ffffffffffffffffffffffffffffffffffffffff1673ffffffffffffffffffffffffffffffffffffffff1681526020019081526020016000205485612a97565b600160008773ffffffffffffffffffffffffffffffffffffffff1673ffffffffffffffffffffffffffffffffffffffff168152602001908152602001600020819055508473ffffffffffffffffffffffffffffffffffffffff163373ffffffffffffffffffffffffffffffffffffffff167fddf252ad1be2c89b69c2b068fc378daa952ba7f163c4a11628f55a4df523b3ef866040518082815260200191505060405180910390a3611f6685612ac1565b1561202a578491508173ffffffffffffffffffffffffffffffffffffffff16633b66d02b33866040518363ffffffff167c0100000000000000000000000000000000000000000000000000000000028152600401808373ffffffffffffffffffffffffffffffffffffffff1673ffffffffffffffffffffffffffffffffffffffff16815260200182815260200192505050600060405180830381600087803b15801561201157600080fd5b505af1158015612025573d6000803e3d6000fd5b505050505b60019250505092915050565b6000600a60008373ffffffffffffffffffffffffffffffffffffffff1673ffffffffffffffffffffffffffffffffffffffff168152602001908152602001600020549050919050565b600080604060048101600036905014151561209957600080fd5b600260003373ffffffffffffffffffffffffffffffffffffffff1673ffffffffffffffffffffffffffffffffffffffff16815260200190815260200160002060008673ffffffffffffffffffffffffffffffffffffffff1673ffffffffffffffffffffffffffffffffffffffff1681526020019081526020016000205491506121228285612a97565b600260003373ffffffffffffffffffffffffffffffffffffffff1673ffffffffffffffffffffffffffffffffffffffff16815260200190815260200160002060008773ffffffffffffffffffffffffffffffffffffffff1673ffffffffffffffffffffffffffffffffffffffff168152602001908152602001600020819055508473ffffffffffffffffffffffffffffffffffffffff163373ffffffffffffffffffffffffffffffffffffffff167f8c5be1e5ebec7d5bd14f71427d1e84f3dd0314c0f7b2291e5b200ac8c7c3b925600260003373ffffffffffffffffffffffffffffffffffffffff1673ffffffffffffffffffffffffffffffffffffffff16815260200190815260200160002060008973ffffffffffffffffffffffffffffffffffffffff1673ffffffffffffffffffffffffffffffffffffffff168152602001908152602001600020546040518082815260200191505060405180910390a360019250505092915050565b60055481565b61229d611dbd565b15156122a857600080fd5b60008173ffffffffffffffffffffffffffffffffffffffff1614156122cc57600080fd5b600360009054906101000a900473ffffffffffffffffffffffffffffffffffffffff1673ffffffffffffffffffffffffffffffffffffffff163373ffffffffffffffffffffffffffffffffffffffff1614151561232857600080fd5b60048081111561233457fe5b61233c611c62565b600481111561234757fe5b141561235257600080fd5b80600460006101000a81548173ffffffffffffffffffffffffffffffffffffffff021916908373ffffffffffffffffffffffffffffffffffffffff160217905550600460009054906101000a900473ffffffffffffffffffffffffffffffffffffffff1673ffffffffffffffffffffffffffffffffffffffff166361d3d7a66040518163ffffffff167c0100000000000000000000000000000000000000000000000000000000028152600401602060405180830381600087803b15801561241957600080fd5b505af115801561242d573d6000803e3d6000fd5b505050506040513d602081101561244357600080fd5b8101908080519060200190929190505050151561245f57600080fd5b600054600460009054906101000a900473ffffffffffffffffffffffffffffffffffffffff1673ffffffffffffffffffffffffffffffffffffffff16634b2ba0dd6040518163ffffffff167c0100000000000000000000000000000000000000000000000000000000028152600401602060405180830381600087803b1580156124e857600080fd5b505af11580156124fc573d6000803e3d6000fd5b505050506040513d602081101561251257600080fd5b810190808051906020019092919050505014151561252f57600080fd5b7f7845d5aa74cc410e35571258d954f23b82276e160fe8c188fa80566580f279cc600460009054906101000a900473ffffffffffffffffffffffffffffffffffffffff16604051808273ffffffffffffffffffffffffffffffffffffffff1673ffffffffffffffffffffffffffffffffffffffff16815260200191505060405180910390a150565b6000600260008473ffffffffffffffffffffffffffffffffffffffff1673ffffffffffffffffffffffffffffffffffffffff16815260200190815260200160002060008373ffffffffffffffffffffffffffffffffffffffff1673ffffffffffffffffffffffffffffffffffffffff16815260200190815260200160002054905092915050565b600080604060048101600036905014151561265857600080fd5b600260003373ffffffffffffffffffffffffffffffffffffffff1673ffffffffffffffffffffffffffffffffffffffff16815260200190815260200160002060008673ffffffffffffffffffffffffffffffffffffffff1673ffffffffffffffffffffffffffffffffffffffff16815260200190815260200160002054915081841115612766576000600260003373ffffffffffffffffffffffffffffffffffffffff1673ffffffffffffffffffffffffffffffffffffffff16815260200190815260200160002060008773ffffffffffffffffffffffffffffffffffffffff1673ffffffffffffffffffffffffffffffffffffffff168152602001908152602001600020819055506127f1565b6127708285612a7e565b600260003373ffffffffffffffffffffffffffffffffffffffff1673ffffffffffffffffffffffffffffffffffffffff16815260200190815260200160002060008773ffffffffffffffffffffffffffffffffffffffff1673ffffffffffffffffffffffffffffffffffffffff168152602001908152602001600020819055505b8473ffffffffffffffffffffffffffffffffffffffff163373ffffffffffffffffffffffffffffffffffffffff167f8c5be1e5ebec7d5bd14f71427d1e84f3dd0314c0f7b2291e5b200ac8c7c3b925600260003373ffffffffffffffffffffffffffffffffffffffff1673ffffffffffffffffffffffffffffffffffffffff16815260200190815260200160002060008973ffffffffffffffffffffffffffffffffffffffff1673ffffffffffffffffffffffffffffffffffffffff168152602001908152602001600020546040518082815260200191505060405180910390a360019250505092915050565b600960009054906101000a900473ffffffffffffffffffffffffffffffffffffffff1673ffffffffffffffffffffffffffffffffffffffff163373ffffffffffffffffffffffffffffffffffffffff1614151561293a57600080fd5b600073ffffffffffffffffffffffffffffffffffffffff168173ffffffffffffffffffffffffffffffffffffffff161415156129b25780600960006101000a81548173ffffffffffffffffffffffffffffffffffffffff021916908373ffffffffffffffffffffffffffffffffffffffff1602179055505b50565b600081565b60008173ffffffffffffffffffffffffffffffffffffffff1614156129de57600080fd5b600360009054906101000a900473ffffffffffffffffffffffffffffffffffffffff1673ffffffffffffffffffffffffffffffffffffffff163373ffffffffffffffffffffffffffffffffffffffff16141515612a3a57600080fd5b80600360006101000a81548173ffffffffffffffffffffffffffffffffffffffff021916908373ffffffffffffffffffffffffffffffffffffffff16021790555050565b6000612a8c83831115612ad7565b818303905092915050565b6000808284019050612ab7848210158015612ab25750838210155b612ad7565b8091505092915050565b600080829250823b905060008111915050919050565b801515612ae357600080fd5b505600a165627a7a72305820772902f0ebef199b6f112c3524b279855af541fc205361a43d2e0e6cba049e490029",
  "source": "/**\r\n *Submitted for verification at Etherscan.io on 2017-09-08\r\n*/\r\n\r\npragma solidity ^0.4.11;\r\n\r\n/*\r\n * ERC20 interface\r\n * see https://github.com/ethereum/EIPs/issues/20\r\n */\r\ncontract ERC20 {\r\n  uint public totalSupply;\r\n  function balanceOf(address who) constant returns (uint);\r\n  function allowance(address owner, address spender) constant returns (uint);\r\n\r\n  function transfer(address to, uint value) returns (bool ok);\r\n  function transferFrom(address from, address to, uint value) returns (bool ok);\r\n  function approve(address spender, uint value) returns (bool ok);\r\n  event Transfer(address indexed from, address indexed to, uint value);\r\n  event Approval(address indexed owner, address indexed spender, uint value);\r\n}\r\n\r\n// ERC223\r\ncontract ContractReceiver {\r\n  function tokenFallback(address from, uint value);\r\n}\r\n\r\n/**\r\n * Math operations with safety checks\r\n */\r\ncontract SafeMath {\r\n  function safeMul(uint a, uint b) internal returns (uint) {\r\n    uint c = a * b;\r\n    assert(a == 0 || c / a == b);\r\n    return c;\r\n  }\r\n\r\n  function safeDiv(uint a, uint b) internal returns (uint) {\r\n    assert(b > 0);\r\n    uint c = a / b;\r\n    assert(a == b * c + a % b);\r\n    return c;\r\n  }\r\n\r\n  function safeSub(uint a, uint b) internal returns (uint) {\r\n    assert(b <= a);\r\n    return a - b;\r\n  }\r\n\r\n  function safeAdd(uint a, uint b) internal returns (uint) {\r\n    uint c = a + b;\r\n    assert(c>=a && c>=b);\r\n    return c;\r\n  }\r\n\r\n  function max64(uint64 a, uint64 b) internal constant returns (uint64) {\r\n    return a >= b ? a : b;\r\n  }\r\n\r\n  function min64(uint64 a, uint64 b) internal constant returns (uint64) {\r\n    return a < b ? a : b;\r\n  }\r\n\r\n  function max256(uint256 a, uint256 b) internal constant returns (uint256) {\r\n    return a >= b ? a : b;\r\n  }\r\n\r\n  function min256(uint256 a, uint256 b) internal constant returns (uint256) {\r\n    return a < b ? a : b;\r\n  }\r\n\r\n  function assert(bool assertion) internal {\r\n    if (!assertion) {\r\n      revert();\r\n    }\r\n  }\r\n}\r\n\r\n\r\n\r\n/**\r\n * Standard ERC20 token with Short Hand Attack and approve() race condition mitigation.\r\n *\r\n * Based on code by FirstBlood:\r\n * https://github.com/Firstbloodio/token/blob/master/smart_contract/FirstBloodToken.sol\r\n */\r\ncontract StandardToken is ERC20, SafeMath {\r\n\r\n  /* Token supply got increased and a new owner received these tokens */\r\n  event Minted(address receiver, uint amount);\r\n\r\n  /* Actual balances of token holders */\r\n  mapping(address => uint) balances;\r\n\r\n  /* approve() allowances */\r\n  mapping (address => mapping (address => uint)) allowed;\r\n\r\n  /**\r\n   *\r\n   * Fix for the ERC20 short address attack\r\n   *\r\n   * http://vessenes.com/the-erc20-short-address-attack-explained/\r\n   */\r\n  modifier onlyPayloadSize(uint size) {\r\n     if(msg.data.length != size + 4) {\r\n       revert();\r\n     }\r\n     _;\r\n  }\r\n\r\n  function transfer(address _to, uint _value) onlyPayloadSize(2 * 32) returns (bool success) {\r\n    balances[msg.sender] = safeSub(balances[msg.sender], _value);\r\n    balances[_to] = safeAdd(balances[_to], _value);\r\n    Transfer(msg.sender, _to, _value);\r\n\r\n    if (isContract(_to)) {\r\n      ContractReceiver rx = ContractReceiver(_to);\r\n      rx.tokenFallback(msg.sender, _value);\r\n    }\r\n\r\n    return true;\r\n  }\r\n\r\n  // ERC223 fetch contract size (must be nonzero to be a contract)\r\n  function isContract( address _addr ) private returns (bool) {\r\n    uint length;\r\n    _addr = _addr;\r\n    assembly { length := extcodesize(_addr) }\r\n    return (length > 0);\r\n  }\r\n\r\n  function transferFrom(address _from, address _to, uint _value) returns (bool success) {\r\n    uint _allowance = allowed[_from][msg.sender];\r\n\r\n    // Check is not needed because safeSub(_allowance, _value) will already throw if this condition is not met\r\n    // if (_value > _allowance) revert();\r\n\r\n    balances[_to] = safeAdd(balances[_to], _value);\r\n    balances[_from] = safeSub(balances[_from], _value);\r\n    allowed[_from][msg.sender] = safeSub(_allowance, _value);\r\n    Transfer(_from, _to, _value);\r\n    return true;\r\n  }\r\n\r\n  function balanceOf(address _owner) constant returns (uint balance) {\r\n    return balances[_owner];\r\n  }\r\n\r\n  function approve(address _spender, uint _value) returns (bool success) {\r\n\r\n    // To change the approve amount you first have to reduce the addresses`\r\n    //  allowance to zero by calling `approve(_spender, 0)` if it is not\r\n    //  already 0 to mitigate the race condition described here:\r\n    //  https://github.com/ethereum/EIPs/issues/20#issuecomment-263524729\r\n    if ((_value != 0) && (allowed[msg.sender][_spender] != 0)) revert();\r\n\r\n    allowed[msg.sender][_spender] = _value;\r\n    Approval(msg.sender, _spender, _value);\r\n    return true;\r\n  }\r\n\r\n  function allowance(address _owner, address _spender) constant returns (uint remaining) {\r\n    return allowed[_owner][_spender];\r\n  }\r\n\r\n  /**\r\n   * Atomic increment of approved spending\r\n   *\r\n   * Works around https://github.com/ethereum/EIPs/issues/20#issuecomment-263524729\r\n   *\r\n   */\r\n  function addApproval(address _spender, uint _addedValue)\r\n  onlyPayloadSize(2 * 32)\r\n  returns (bool success) {\r\n      uint oldValue = allowed[msg.sender][_spender];\r\n      allowed[msg.sender][_spender] = safeAdd(oldValue, _addedValue);\r\n      Approval(msg.sender, _spender, allowed[msg.sender][_spender]);\r\n      return true;\r\n  }\r\n\r\n  /**\r\n   * Atomic decrement of approved spending.\r\n   *\r\n   * Works around https://github.com/ethereum/EIPs/issues/20#issuecomment-263524729\r\n   */\r\n  function subApproval(address _spender, uint _subtractedValue)\r\n  onlyPayloadSize(2 * 32)\r\n  returns (bool success) {\r\n\r\n      uint oldVal = allowed[msg.sender][_spender];\r\n\r\n      if (_subtractedValue > oldVal) {\r\n          allowed[msg.sender][_spender] = 0;\r\n      } else {\r\n          allowed[msg.sender][_spender] = safeSub(oldVal, _subtractedValue);\r\n      }\r\n      Approval(msg.sender, _spender, allowed[msg.sender][_spender]);\r\n      return true;\r\n  }\r\n\r\n}\r\n\r\n\r\n\r\ncontract BurnableToken is StandardToken {\r\n\r\n  address public constant BURN_ADDRESS = 0;\r\n\r\n  /** How many tokens we burned */\r\n  event Burned(address burner, uint burnedAmount);\r\n\r\n  /**\r\n   * Burn extra tokens from a balance.\r\n   *\r\n   */\r\n  function burn(uint burnAmount) {\r\n    address burner = msg.sender;\r\n    balances[burner] = safeSub(balances[burner], burnAmount);\r\n    totalSupply = safeSub(totalSupply, burnAmount);\r\n    Burned(burner, burnAmount);\r\n  }\r\n}\r\n\r\n\r\n\r\n\r\n\r\n/**\r\n * Upgrade agent interface inspired by Lunyr.\r\n *\r\n * Upgrade agent transfers tokens to a new contract.\r\n * Upgrade agent itself can be the token contract, or just a middle man contract doing the heavy lifting.\r\n */\r\ncontract UpgradeAgent {\r\n\r\n  uint public originalSupply;\r\n\r\n  /** Interface marker */\r\n  function isUpgradeAgent() public constant returns (bool) {\r\n    return true;\r\n  }\r\n\r\n  function upgradeFrom(address _from, uint256 _value) public;\r\n\r\n}\r\n\r\n\r\n/**\r\n * A token upgrade mechanism where users can opt-in amount of tokens to the next smart contract revision.\r\n *\r\n * First envisioned by Golem and Lunyr projects.\r\n */\r\ncontract UpgradeableToken is StandardToken {\r\n\r\n  /** Contract / person who can set the upgrade path. This can be the same as team multisig wallet, as what it is with its default value. */\r\n  address public upgradeMaster;\r\n\r\n  /** The next contract where the tokens will be migrated. */\r\n  UpgradeAgent public upgradeAgent;\r\n\r\n  /** How many tokens we have upgraded by now. */\r\n  uint256 public totalUpgraded;\r\n\r\n  /**\r\n   * Upgrade states.\r\n   *\r\n   * - NotAllowed: The child contract has not reached a condition where the upgrade can bgun\r\n   * - WaitingForAgent: Token allows upgrade, but we don't have a new agent yet\r\n   * - ReadyToUpgrade: The agent is set, but not a single token has been upgraded yet\r\n   * - Upgrading: Upgrade agent is set and the balance holders can upgrade their tokens\r\n   *\r\n   */\r\n  enum UpgradeState {Unknown, NotAllowed, WaitingForAgent, ReadyToUpgrade, Upgrading}\r\n\r\n  /**\r\n   * Somebody has upgraded some of his tokens.\r\n   */\r\n  event Upgrade(address indexed _from, address indexed _to, uint256 _value);\r\n\r\n  /**\r\n   * New upgrade agent available.\r\n   */\r\n  event UpgradeAgentSet(address agent);\r\n\r\n  /**\r\n   * Do not allow construction without upgrade master set.\r\n   */\r\n  function UpgradeableToken(address _upgradeMaster) {\r\n    upgradeMaster = _upgradeMaster;\r\n  }\r\n\r\n  /**\r\n   * Allow the token holder to upgrade some of their tokens to a new contract.\r\n   */\r\n  function upgrade(uint256 value) public {\r\n\r\n      UpgradeState state = getUpgradeState();\r\n      if(!(state == UpgradeState.ReadyToUpgrade || state == UpgradeState.Upgrading)) {\r\n        // Called in a bad state\r\n        revert();\r\n      }\r\n\r\n      // Validate input value.\r\n      if (value == 0) revert();\r\n\r\n      balances[msg.sender] = safeSub(balances[msg.sender], value);\r\n\r\n      // Take tokens out from circulation\r\n      totalSupply = safeSub(totalSupply, value);\r\n      totalUpgraded = safeAdd(totalUpgraded, value);\r\n\r\n      // Upgrade agent reissues the tokens\r\n      upgradeAgent.upgradeFrom(msg.sender, value);\r\n      Upgrade(msg.sender, upgradeAgent, value);\r\n  }\r\n\r\n  /**\r\n   * Set an upgrade agent that handles\r\n   */\r\n  function setUpgradeAgent(address agent) external {\r\n\r\n      if(!canUpgrade()) {\r\n        // The token is not yet in a state that we could think upgrading\r\n        revert();\r\n      }\r\n\r\n      if (agent == 0x0) revert();\r\n      // Only a master can designate the next agent\r\n      if (msg.sender != upgradeMaster) revert();\r\n      // Upgrade has already begun for an agent\r\n      if (getUpgradeState() == UpgradeState.Upgrading) revert();\r\n\r\n      upgradeAgent = UpgradeAgent(agent);\r\n\r\n      // Bad interface\r\n      if(!upgradeAgent.isUpgradeAgent()) revert();\r\n      // Make sure that token supplies match in source and target\r\n      if (upgradeAgent.originalSupply() != totalSupply) revert();\r\n\r\n      UpgradeAgentSet(upgradeAgent);\r\n  }\r\n\r\n  /**\r\n   * Get the state of the token upgrade.\r\n   */\r\n  function getUpgradeState() public constant returns(UpgradeState) {\r\n    if(!canUpgrade()) return UpgradeState.NotAllowed;\r\n    else if(address(upgradeAgent) == 0x00) return UpgradeState.WaitingForAgent;\r\n    else if(totalUpgraded == 0) return UpgradeState.ReadyToUpgrade;\r\n    else return UpgradeState.Upgrading;\r\n  }\r\n\r\n  /**\r\n   * Change the upgrade master.\r\n   *\r\n   * This allows us to set a new owner for the upgrade mechanism.\r\n   */\r\n  function setUpgradeMaster(address master) public {\r\n      if (master == 0x0) revert();\r\n      if (msg.sender != upgradeMaster) revert();\r\n      upgradeMaster = master;\r\n  }\r\n\r\n  /**\r\n   * Child contract can enable to provide the condition when the upgrade can begun.\r\n   */\r\n  function canUpgrade() public constant returns(bool) {\r\n     return true;\r\n  }\r\n\r\n}\r\n\r\n\r\ncontract BCOExtendedToken is BurnableToken, UpgradeableToken {\r\n\r\n  string public name;\r\n  string public symbol;\r\n  uint public decimals;\r\n  address public owner;\r\n\r\n  bool public mintingFinished = false;\r\n\r\n  mapping(address => uint) public previligedBalances;\r\n\r\n  /** List of agents that are allowed to create new tokens */\r\n  mapping(address => bool) public mintAgents;\r\n  event MintingAgentChanged(address addr, bool state);\r\n\r\n  modifier onlyOwner() {\r\n    if(msg.sender != owner) revert();\r\n    _;\r\n  }\r\n\r\n  modifier onlyMintAgent() {\r\n    // Only crowdsale contracts are allowed to mint new tokens\r\n    if(!mintAgents[msg.sender]) revert();\r\n    _;\r\n  }\r\n\r\n  /** Make sure we are not done yet. */\r\n  modifier canMint() {\r\n    if(mintingFinished) revert();\r\n    _;\r\n  }\r\n\r\n  function transferOwnership(address newOwner) onlyOwner {\r\n    if (newOwner != address(0)) {\r\n      owner = newOwner;\r\n    }\r\n  }\r\n\r\n  function BCOExtendedToken(address _owner, string _name, string _symbol, uint _totalSupply, uint _decimals)  UpgradeableToken(_owner) {\r\n    name = _name;\r\n    symbol = _symbol;\r\n    totalSupply = _totalSupply;\r\n    decimals = _decimals;\r\n\r\n    // Allocate initial balance to the owner\r\n    balances[_owner] = _totalSupply;\r\n\r\n    // save the owner\r\n    owner = _owner;\r\n  }\r\n\r\n  // privileged transfer\r\n  function transferPrivileged(address _to, uint _value) onlyOwner returns (bool success) {\r\n    balances[msg.sender] = safeSub(balances[msg.sender], _value);\r\n    balances[_to] = safeAdd(balances[_to], _value);\r\n    previligedBalances[_to] = safeAdd(previligedBalances[_to], _value);\r\n    Transfer(msg.sender, _to, _value);\r\n    return true;\r\n  }\r\n\r\n  // get priveleged balance\r\n  function getPrivilegedBalance(address _owner) constant returns (uint balance) {\r\n    return previligedBalances[_owner];\r\n  }\r\n\r\n  // admin only can transfer from the privileged accounts\r\n  function transferFromPrivileged(address _from, address _to, uint _value) onlyOwner returns (bool success) {\r\n    uint availablePrevilegedBalance = previligedBalances[_from];\r\n\r\n    balances[_from] = safeSub(balances[_from], _value);\r\n    balances[_to] = safeAdd(balances[_to], _value);\r\n    previligedBalances[_from] = safeSub(availablePrevilegedBalance, _value);\r\n    Transfer(_from, _to, _value);\r\n    return true;\r\n  }\r\n\r\n  /**\r\n   * Create new tokens and allocate them to an address..\r\n   *\r\n   * Only callably by a crowdsale contract (mint agent).\r\n   */\r\n  function mint(address receiver, uint amount) onlyMintAgent canMint public {\r\n    totalSupply = safeAdd(totalSupply, amount);\r\n    balances[receiver] = safeAdd(balances[receiver], amount);\r\n\r\n    // This will make the mint transaction apper in EtherScan.io\r\n    // We can remove this after there is a standardized minting event\r\n    Transfer(0, receiver, amount);\r\n  }\r\n\r\n  /**\r\n   * Owner can allow a crowdsale contract to mint new tokens.\r\n   */\r\n  function setMintAgent(address addr, bool state) onlyOwner canMint public {\r\n    mintAgents[addr] = state;\r\n    MintingAgentChanged(addr, state);\r\n  }\r\n\r\n}\r\n\r\ncontract SaleExtendedBCO {\r\n    address public beneficiary;\r\n    uint public startline;\r\n    uint public deadline;\r\n    uint public price;\r\n    uint public amountRaised;\r\n    uint public incomingTokensTransactions;\r\n\r\n    mapping(address => uint) public actualGotETH;\r\n    BCOExtendedToken public tokenReward;\r\n\r\n    event TokenFallback( address indexed from,\r\n                         uint256 value);\r\n\r\n    modifier onlyOwner() {\r\n        if(msg.sender != beneficiary) revert();\r\n        _;\r\n    }\r\n\r\n    modifier whenCrowdsaleIsFinished() {\r\n        if(now < deadline) revert();\r\n        _;\r\n    }\r\n\r\n    modifier whenRefundAvailable() {\r\n        if(tokenReward.balanceOf(address(this)) <= 0) revert();\r\n        _;\r\n    }\r\n\r\n    function SaleExtendedBCO(\r\n        uint start,\r\n        uint end,\r\n        uint costOfEachToken,\r\n        BCOExtendedToken addressOfTokenUsedAsReward\r\n    ) {\r\n        beneficiary = msg.sender;\r\n        startline = start;\r\n        deadline = end;\r\n        price = costOfEachToken;\r\n        tokenReward = BCOExtendedToken(addressOfTokenUsedAsReward);\r\n    }\r\n\r\n    function () payable {\r\n        if (now <= startline) revert();\r\n        if (now >= deadline) revert();\r\n\r\n        uint amount = msg.value;\r\n        if (amount < price) revert();\r\n\r\n        amountRaised += amount;\r\n\r\n        uint tokensToSend = amount / price;\r\n\r\n        actualGotETH[msg.sender] += amount;\r\n\r\n        tokenReward.transfer(msg.sender, tokensToSend);\r\n    }\r\n\r\n    function transferOwnership(address newOwner) onlyOwner {\r\n        if (newOwner != address(0)) {\r\n            beneficiary = newOwner;\r\n        }\r\n    }\r\n\r\n    function Refund() whenRefundAvailable whenCrowdsaleIsFinished {\r\n        msg.sender.transfer(actualGotETH[msg.sender]);\r\n    }\r\n\r\n    function WithdrawETH(uint amount) onlyOwner {\r\n        beneficiary.transfer(amount);\r\n    }\r\n\r\n    function WithdrawAllETH() onlyOwner {\r\n        beneficiary.transfer(amountRaised);\r\n    }\r\n\r\n    function WithdrawTokens(uint amount) onlyOwner {\r\n        tokenReward.transfer(beneficiary, amount);\r\n    }\r\n\r\n    function ChangeCost(uint costOfEachToken) onlyOwner {\r\n        price = costOfEachToken;\r\n    }\r\n\r\n    function ChangeStart(uint start) onlyOwner {\r\n        startline = start;\r\n    }\r\n\r\n    function ChangeEnd(uint end) onlyOwner {\r\n        deadline = end;\r\n    }\r\n\r\n    // ERC223\r\n    // function in contract 'ContractReceiver'\r\n    function tokenFallback(address from, uint value) {\r\n        incomingTokensTransactions += 1;\r\n        TokenFallback(from, value);\r\n    }\r\n}",
  "sourcePath": "/workdir/truffle_example/0x87be69e5c196e0309cdf6957fd7141fda1df2b97/contracts/0x87be69e5c196e0309cdf6957fd7141fda1df2b97.sol",
  "compiler": {
    "name": "solc",
    "version": "0.4.25+commit.59dbf8f1.Emscripten.clang"
  },
  "schemaVersion": "3.4.8",
  "updatedAt": "2022-08-11T08:44:50.809Z",
  "devdoc": {
    "methods": {}
  },
  "userdoc": {
    "methods": {
      "addApproval(address,uint256)": {
        "notice": "Atomic increment of approved spending\r    * Works around https://github.com/ethereum/EIPs/issues/20#issuecomment-263524729\r    "
      },
      "burn(uint256)": {
        "notice": "Burn extra tokens from a balance.\r    "
      },
      "canUpgrade()": {
        "notice": "Child contract can enable to provide the condition when the upgrade can begun.\r"
      },
      "getUpgradeState()": {
        "notice": "Get the state of the token upgrade.\r"
      },
      "mint(address,uint256)": {
        "notice": "Create new tokens and allocate them to an address..\r    * Only callably by a crowdsale contract (mint agent).\r"
      },
      "setMintAgent(address,bool)": {
        "notice": "Owner can allow a crowdsale contract to mint new tokens.\r"
      },
      "setUpgradeAgent(address)": {
        "notice": "Set an upgrade agent that handles\r"
      },
      "setUpgradeMaster(address)": {
        "notice": "Change the upgrade master.\r    * This allows us to set a new owner for the upgrade mechanism.\r"
      },
      "subApproval(address,uint256)": {
        "notice": "Atomic decrement of approved spending.\r    * Works around https://github.com/ethereum/EIPs/issues/20#issuecomment-263524729\r"
      },
      "upgrade(uint256)": {
        "notice": "Allow the token holder to upgrade some of their tokens to a new contract.\r"
      }
    }
  }
}