{
  "contractName": "tokensale",
  "abi": [
    {
      "constant": true,
      "inputs": [],
      "name": "name",
      "outputs": [
        {
          "name": "",
          "type": "string"
        }
      ],
      "payable": false,
      "stateMutability": "view",
      "type": "function"
    },
    {
      "constant": true,
      "inputs": [],
      "name": "totalSupply",
      "outputs": [
        {
          "name": "",
          "type": "uint256"
        }
      ],
      "payable": false,
      "stateMutability": "view",
      "type": "function"
    },
    {
      "constant": true,
      "inputs": [],
      "name": "numberOfTokensLeft",
      "outputs": [
        {
          "name": "",
          "type": "uint256"
        }
      ],
      "payable": false,
      "stateMutability": "view",
      "type": "function"
    },
    {
      "constant": true,
      "inputs": [],
      "name": "decimals",
      "outputs": [
        {
          "name": "",
          "type": "uint8"
        }
      ],
      "payable": false,
      "stateMutability": "view",
      "type": "function"
    },
    {
      "constant": true,
      "inputs": [],
      "name": "numberOfDates",
      "outputs": [
        {
          "name": "",
          "type": "uint256"
        }
      ],
      "payable": false,
      "stateMutability": "view",
      "type": "function"
    },
    {
      "constant": true,
      "inputs": [],
      "name": "numberOfAddress",
      "outputs": [
        {
          "name": "",
          "type": "uint256"
        }
      ],
      "payable": false,
      "stateMutability": "view",
      "type": "function"
    },
    {
      "constant": true,
      "inputs": [],
      "name": "finalAddress",
      "outputs": [
        {
          "name": "",
          "type": "address"
        }
      ],
      "payable": false,
      "stateMutability": "view",
      "type": "function"
    },
    {
      "constant": true,
      "inputs": [
        {
          "name": "",
          "type": "uint256"
        }
      ],
      "name": "dates",
      "outputs": [
        {
          "name": "",
          "type": "uint256"
        }
      ],
      "payable": false,
      "stateMutability": "view",
      "type": "function"
    },
    {
      "constant": true,
      "inputs": [
        {
          "name": "",
          "type": "address"
        }
      ],
      "name": "balanceOf",
      "outputs": [
        {
          "name": "",
          "type": "uint256"
        }
      ],
      "payable": false,
      "stateMutability": "view",
      "type": "function"
    },
    {
      "constant": true,
      "inputs": [],
      "name": "pricePerToken",
      "outputs": [
        {
          "name": "",
          "type": "uint256"
        }
      ],
      "payable": false,
      "stateMutability": "view",
      "type": "function"
    },
    {
      "constant": true,
      "inputs": [],
      "name": "tokensFromPreviousTokensale",
      "outputs": [
        {
          "name": "",
          "type": "uint256"
        }
      ],
      "payable": false,
      "stateMutability": "view",
      "type": "function"
    },
    {
      "constant": true,
      "inputs": [],
      "name": "owner",
      "outputs": [
        {
          "name": "",
          "type": "address"
        }
      ],
      "payable": false,
      "stateMutability": "view",
      "type": "function"
    },
    {
      "constant": true,
      "inputs": [
        {
          "name": "",
          "type": "uint256"
        }
      ],
      "name": "percents",
      "outputs": [
        {
          "name": "",
          "type": "uint256"
        }
      ],
      "payable": false,
      "stateMutability": "view",
      "type": "function"
    },
    {
      "constant": true,
      "inputs": [
        {
          "name": "",
          "type": "address"
        }
      ],
      "name": "addressIndex",
      "outputs": [
        {
          "name": "",
          "type": "uint256"
        }
      ],
      "payable": false,
      "stateMutability": "view",
      "type": "function"
    },
    {
      "constant": true,
      "inputs": [],
      "name": "tokensFromPresale",
      "outputs": [
        {
          "name": "",
          "type": "uint256"
        }
      ],
      "payable": false,
      "stateMutability": "view",
      "type": "function"
    },
    {
      "constant": true,
      "inputs": [],
      "name": "symbol",
      "outputs": [
        {
          "name": "",
          "type": "string"
        }
      ],
      "payable": false,
      "stateMutability": "view",
      "type": "function"
    },
    {
      "constant": true,
      "inputs": [
        {
          "name": "",
          "type": "address"
        }
      ],
      "name": "addressExists",
      "outputs": [
        {
          "name": "",
          "type": "bool"
        }
      ],
      "payable": false,
      "stateMutability": "view",
      "type": "function"
    },
    {
      "constant": true,
      "inputs": [
        {
          "name": "",
          "type": "uint256"
        }
      ],
      "name": "addresses",
      "outputs": [
        {
          "name": "",
          "type": "address"
        }
      ],
      "payable": false,
      "stateMutability": "view",
      "type": "function"
    },
    {
      "constant": true,
      "inputs": [],
      "name": "withdrawLimit",
      "outputs": [
        {
          "name": "",
          "type": "uint256"
        }
      ],
      "payable": false,
      "stateMutability": "view",
      "type": "function"
    },
    {
      "constant": true,
      "inputs": [],
      "name": "numberOfTokens",
      "outputs": [
        {
          "name": "",
          "type": "uint256"
        }
      ],
      "payable": false,
      "stateMutability": "view",
      "type": "function"
    },
    {
      "constant": true,
      "inputs": [],
      "name": "token",
      "outputs": [
        {
          "name": "",
          "type": "address"
        }
      ],
      "payable": false,
      "stateMutability": "view",
      "type": "function"
    },
    {
      "inputs": [
        {
          "name": "tokenAddress",
          "type": "address"
        },
        {
          "name": "noOfTokens",
          "type": "uint256"
        },
        {
          "name": "prPerToken",
          "type": "uint256"
        }
      ],
      "payable": false,
      "stateMutability": "nonpayable",
      "type": "constructor"
    },
    {
      "payable": true,
      "stateMutability": "payable",
      "type": "fallback"
    },
    {
      "anonymous": false,
      "inputs": [
        {
          "indexed": true,
          "name": "_from",
          "type": "address"
        },
        {
          "indexed": true,
          "name": "_to",
          "type": "address"
        },
        {
          "indexed": false,
          "name": "_value",
          "type": "uint256"
        }
      ],
      "name": "Transfer",
      "type": "event"
    },
    {
      "constant": false,
      "inputs": [],
      "name": "endPresale",
      "outputs": [],
      "payable": false,
      "stateMutability": "nonpayable",
      "type": "function"
    },
    {
      "constant": false,
      "inputs": [
        {
          "name": "amount",
          "type": "uint256"
        }
      ],
      "name": "withdraw",
      "outputs": [],
      "payable": false,
      "stateMutability": "nonpayable",
      "type": "function"
    },
    {
      "constant": false,
      "inputs": [],
      "name": "updatePresaleNumbers",
      "outputs": [],
      "payable": false,
      "stateMutability": "nonpayable",
      "type": "function"
    }
  ],
  "bytecode": "0x6080604052600060055560006006556002600760006101000a81548160ff021916908360ff160217905550680ad78ebc5ac6200000600855735904957d25d0c6213491882a64765967f88bccc7600c60006101000a81548173ffffffffffffffffffffffffffffffffffffffff021916908373ffffffffffffffffffffffffffffffffffffffff1602179055506000601155600760145573ed6c0654cd61de5b1355ae4e9d9c786005e9d5bd601560006101000a81548173ffffffffffffffffffffffffffffffffffffffff021916908373ffffffffffffffffffffffffffffffffffffffff160217905550348015620000f857600080fd5b5060405160608062001b568339810180604052810190808051906020019092919080519060200190929190805190602001909291905050506359bc698060126000808152602001908152602001600020819055506359caea006012600060018152602001908152602001600020819055506359d576006012600060028152602001908152602001600020819055506359e002006012600060038152602001908152602001600020819055506359ea8e006012600060048152602001908152602001600020819055506359ebdf806012600060058152602001908152602001600020819055506359ee8280601260006006815260200190815260200160002081905550620111706013600080815260200190815260200160002081905550619c40601360006001815260200190815260200160002081905550614e20601360006002815260200190815260200160002081905550612710601360006003815260200190815260200160002081905550611388601360006004815260200190815260200160002081905550612329601360006005815260200190815260200160002081905550612329601360006006815260200190815260200160002081905550826000806101000a81548173ffffffffffffffffffffffffffffffffffffffff021916908373ffffffffffffffffffffffffffffffffffffffff1602179055506064820260028190555060648202600181905550606482026003819055508060048190555033600960006101000a81548173ffffffffffffffffffffffffffffffffffffffff021916908373ffffffffffffffffffffffffffffffffffffffff1602179055506040805190810160405280600b81526020017f4175746f6e696f2049434f000000000000000000000000000000000000000000815250600a9080519060200190620003aa92919062000632565b506040805190810160405280600381526020017f4e494f0000000000000000000000000000000000000000000000000000000000815250600b9080519060200190620003f892919062000632565b50620004126200041b640100000000026401000000009004565b505050620006e1565b600080600960009054906101000a900473ffffffffffffffffffffffffffffffffffffffff1673ffffffffffffffffffffffffffffffffffffffff163373ffffffffffffffffffffffffffffffffffffffff16141562000629576006549150601560009054906101000a900473ffffffffffffffffffffffffffffffffffffffff1673ffffffffffffffffffffffffffffffffffffffff166327ea06b86040518163ffffffff167c0100000000000000000000000000000000000000000000000000000000028152600401602060405180830381600087803b1580156200050157600080fd5b505af115801562000516573d6000803e3d6000fd5b505050506040513d60208110156200052d57600080fd5b8101908080519060200190929190505050601560009054906101000a900473ffffffffffffffffffffffffffffffffffffffff1673ffffffffffffffffffffffffffffffffffffffff1663f9f16ef26040518163ffffffff167c0100000000000000000000000000000000000000000000000000000000028152600401602060405180830381600087803b158015620005c557600080fd5b505af1158015620005da573d6000803e3d6000fd5b505050506040513d6020811015620005f157600080fd5b81019080805190602001909291905050500360068190555081600654039050600281026003600082825403925050819055506200062e565b600080fd5b5050565b828054600181600116156101000203166002900490600052602060002090601f016020900481019282601f106200067557805160ff1916838001178555620006a6565b82800160010185558215620006a6579182015b82811115620006a557825182559160200191906001019062000688565b5b509050620006b59190620006b9565b5090565b620006de91905b80821115620006da576000816000905550600101620006c0565b5090565b90565b61146580620006f16000396000f30060806040526004361061013e576000357c0100000000000000000000000000000000000000000000000000000000900463ffffffff16806306fdde03146105ec57806318160ddd1461067c57806327ea06b8146106a75780632e1a7d4d146106d2578063313ce567146106ff5780633328d3f01461073057806334686b731461075b5780633c745371146107865780635133ae24146107dd578063685b47c71461081e57806370a08231146108355780637b1b1de61461088c5780638b2909cf146108b75780638da5cb5b146108e25780638db1342d14610939578063935c1fb11461097a57806393d865e3146109d157806395d89b41146109fc578063a43be57b14610a8c578063a502522214610aa3578063edf26d9b14610afe578063f848d54114610b6b578063f9f16ef214610b96578063fc0c546a14610bc1575b6000806000806000806000806006549750601560009054906101000a900473ffffffffffffffffffffffffffffffffffffffff1673ffffffffffffffffffffffffffffffffffffffff166327ea06b86040518163ffffffff167c0100000000000000000000000000000000000000000000000000000000028152600401602060405180830381600087803b1580156101d557600080fd5b505af11580156101e9573d6000803e3d6000fd5b505050506040513d60208110156101ff57600080fd5b8101908080519060200190929190505050601560009054906101000a900473ffffffffffffffffffffffffffffffffffffffff1673ffffffffffffffffffffffffffffffffffffffff1663f9f16ef26040518163ffffffff167c0100000000000000000000000000000000000000000000000000000000028152600401602060405180830381600087803b15801561029657600080fd5b505af11580156102aa573d6000803e3d6000fd5b505050506040513d60208110156102c057600080fd5b8101908080519060200190929190505050036006819055508760065403965060028702600360008282540392505081905550606434029550600086141561030657600080fd5b60009450600060035411158061032e5750601260008081526020019081526020016000205442105b8061035057506012600060016014540381526020019081526020016000205442115b1561035a57600080fd5b6123299350600092505b6001601454038310156103db57601260008481526020019081526020016000205442101580156103aa575060126000600185018152602001908152602001600020544211155b156103ce576013600084815260200190815260200160002054935060016014540392505b8280600101935050610364565b6123298414156103ea57600080fd5b600454868115156103f757fe5b0491508560045483021115610410578180600190039250505b620186a084620186a001830281151561042557fe5b04915060035482111561044357600454600354830302945060035491505b81600360008282540392505081905550600e60003373ffffffffffffffffffffffffffffffffffffffff1673ffffffffffffffffffffffffffffffffffffffff16815260200190815260200160002060009054906101000a900460ff16156104f75781600d60003373ffffffffffffffffffffffffffffffffffffffff1673ffffffffffffffffffffffffffffffffffffffff16815260200190815260200160002060008282540192505081905550610545565b61050033610c18565b81600d60003373ffffffffffffffffffffffffffffffffffffffff1673ffffffffffffffffffffffffffffffffffffffff168152602001908152602001600020819055505b3373ffffffffffffffffffffffffffffffffffffffff1660007fddf252ad1be2c89b69c2b068fc378daa952ba7f163c4a11628f55a4df523b3ef846040518082815260200191505060405180910390a360008511156105e2573373ffffffffffffffffffffffffffffffffffffffff166108fc869081150290604051600060405180830381858888f1935050505090508015156105e157600080fd5b5b5050505050505050005b3480156105f857600080fd5b50610601610d6f565b6040518080602001828103825283818151815260200191508051906020019080838360005b83811015610641578082015181840152602081019050610626565b50505050905090810190601f16801561066e5780820380516001836020036101000a031916815260200191505b509250505060405180910390f35b34801561068857600080fd5b50610691610e0d565b6040518082815260200191505060405180910390f35b3480156106b357600080fd5b506106bc610e13565b6040518082815260200191505060405180910390f35b3480156106de57600080fd5b506106fd60048036038101908080359060200190929190505050610e19565b005b34801561070b57600080fd5b50610714610f03565b604051808260ff1660ff16815260200191505060405180910390f35b34801561073c57600080fd5b50610745610f16565b6040518082815260200191505060405180910390f35b34801561076757600080fd5b50610770610f1c565b6040518082815260200191505060405180910390f35b34801561079257600080fd5b5061079b610f22565b604051808273ffffffffffffffffffffffffffffffffffffffff1673ffffffffffffffffffffffffffffffffffffffff16815260200191505060405180910390f35b3480156107e957600080fd5b5061080860048036038101908080359060200190929190505050610f48565b6040518082815260200191505060405180910390f35b34801561082a57600080fd5b50610833610f60565b005b34801561084157600080fd5b50610876600480360381019080803573ffffffffffffffffffffffffffffffffffffffff16906020019092919050505061116f565b6040518082815260200191505060405180910390f35b34801561089857600080fd5b506108a1611187565b6040518082815260200191505060405180910390f35b3480156108c357600080fd5b506108cc61118d565b6040518082815260200191505060405180910390f35b3480156108ee57600080fd5b506108f7611193565b604051808273ffffffffffffffffffffffffffffffffffffffff1673ffffffffffffffffffffffffffffffffffffffff16815260200191505060405180910390f35b34801561094557600080fd5b50610964600480360381019080803590602001909291905050506111b9565b6040518082815260200191505060405180910390f35b34801561098657600080fd5b506109bb600480360381019080803573ffffffffffffffffffffffffffffffffffffffff1690602001909291905050506111d1565b6040518082815260200191505060405180910390f35b3480156109dd57600080fd5b506109e66111e9565b6040518082815260200191505060405180910390f35b348015610a0857600080fd5b50610a116111ef565b6040518080602001828103825283818151815260200191508051906020019080838360005b83811015610a51578082015181840152602081019050610a36565b50505050905090810190601f168015610a7e5780820380516001836020036101000a031916815260200191505b509250505060405180910390f35b348015610a9857600080fd5b50610aa161128d565b005b348015610aaf57600080fd5b50610ae4600480360381019080803573ffffffffffffffffffffffffffffffffffffffff16906020019092919050505061133a565b604051808215151515815260200191505060405180910390f35b348015610b0a57600080fd5b50610b296004803603810190808035906020019092919050505061135a565b604051808273ffffffffffffffffffffffffffffffffffffffff1673ffffffffffffffffffffffffffffffffffffffff16815260200191505060405180910390f35b348015610b7757600080fd5b50610b8061138d565b6040518082815260200191505060405180910390f35b348015610ba257600080fd5b50610bab611393565b6040518082815260200191505060405180910390f35b348015610bcd57600080fd5b50610bd6611399565b604051808273ffffffffffffffffffffffffffffffffffffffff1673ffffffffffffffffffffffffffffffffffffffff16815260200191505060405180910390f35b600e60008273ffffffffffffffffffffffffffffffffffffffff1673ffffffffffffffffffffffffffffffffffffffff16815260200190815260200160002060009054906101000a900460ff161515610d6c57601154601060008373ffffffffffffffffffffffffffffffffffffffff1673ffffffffffffffffffffffffffffffffffffffff1681526020019081526020016000208190555080600f60006011600081548092919060010191905055815260200190815260200160002060006101000a81548173ffffffffffffffffffffffffffffffffffffffff021916908373ffffffffffffffffffffffffffffffffffffffff1602179055506001600e60008373ffffffffffffffffffffffffffffffffffffffff1673ffffffffffffffffffffffffffffffffffffffff16815260200190815260200160002060006101000a81548160ff0219169083151502179055505b50565b600a8054600181600116156101000203166002900480601f016020809104026020016040519081016040528092919081815260200182805460018160011615610100020316600290048015610e055780601f10610dda57610100808354040283529160200191610e05565b820191906000526020600020905b815481529060010190602001808311610de857829003601f168201915b505050505081565b60015481565b60035481565b600960009054906101000a900473ffffffffffffffffffffffffffffffffffffffff1673ffffffffffffffffffffffffffffffffffffffff163373ffffffffffffffffffffffffffffffffffffffff161415610efb5760085481111515610ef15780600860008282540392505081905550600c60009054906101000a900473ffffffffffffffffffffffffffffffffffffffff1673ffffffffffffffffffffffffffffffffffffffff166108fc829081150290604051600060405180830381858888f193505050501515610eec57600080fd5b610ef6565b600080fd5b610f00565b600080fd5b50565b600760009054906101000a900460ff1681565b60145481565b60115481565b600c60009054906101000a900473ffffffffffffffffffffffffffffffffffffffff1681565b60126020528060005260406000206000915090505481565b600080600960009054906101000a900473ffffffffffffffffffffffffffffffffffffffff1673ffffffffffffffffffffffffffffffffffffffff163373ffffffffffffffffffffffffffffffffffffffff161415611166576006549150601560009054906101000a900473ffffffffffffffffffffffffffffffffffffffff1673ffffffffffffffffffffffffffffffffffffffff166327ea06b86040518163ffffffff167c0100000000000000000000000000000000000000000000000000000000028152600401602060405180830381600087803b15801561104457600080fd5b505af1158015611058573d6000803e3d6000fd5b505050506040513d602081101561106e57600080fd5b8101908080519060200190929190505050601560009054906101000a900473ffffffffffffffffffffffffffffffffffffffff1673ffffffffffffffffffffffffffffffffffffffff1663f9f16ef26040518163ffffffff167c0100000000000000000000000000000000000000000000000000000000028152600401602060405180830381600087803b15801561110557600080fd5b505af1158015611119573d6000803e3d6000fd5b505050506040513d602081101561112f57600080fd5b810190808051906020019092919050505003600681905550816006540390506002810260036000828254039250508190555061116b565b600080fd5b5050565b600d6020528060005260406000206000915090505481565b60045481565b60065481565b600960009054906101000a900473ffffffffffffffffffffffffffffffffffffffff1681565b60136020528060005260406000206000915090505481565b60106020528060005260406000206000915090505481565b60055481565b600b8054600181600116156101000203166002900480601f0160208091040260200160405190810160405280929190818152602001828054600181600116156101000203166002900480156112855780601f1061125a57610100808354040283529160200191611285565b820191906000526020600020905b81548152906001019060200180831161126857829003601f168201915b505050505081565b600960009054906101000a900473ffffffffffffffffffffffffffffffffffffffff1673ffffffffffffffffffffffffffffffffffffffff163373ffffffffffffffffffffffffffffffffffffffff16141561133357601260006001601454038152602001908152602001600020544211156113105761130b6113be565b61132e565b60006003541415611328576113236113be565b61132d565b600080fd5b5b611338565b600080fd5b565b600e6020528060005260406000206000915054906101000a900460ff1681565b600f6020528060005260406000206000915054906101000a900473ffffffffffffffffffffffffffffffffffffffff1681565b60085481565b60025481565b6000809054906101000a900473ffffffffffffffffffffffffffffffffffffffff1681565b600c60009054906101000a900473ffffffffffffffffffffffffffffffffffffffff1673ffffffffffffffffffffffffffffffffffffffff166108fc3073ffffffffffffffffffffffffffffffffffffffff16319081150290604051600060405180830381858888f19350505050151561143757600080fd5b5600a165627a7a72305820116e4eab586d5ef9185ae80b45e616b879850e99d817f10badfa36ace2d7d1ad0029",
  "source": "pragma solidity ^0.4.10;\n\n                        contract sGuardPlus {\n                                constructor() internal {\n                                        \n                                        \n                                }\n                                function sub_uint256(uint256 a, uint256 b) internal pure returns (uint256) {\n                                assert(b <= a);\n                                return a - b;\n                        }\nfunction add_uint(uint a, uint b) internal pure returns (uint) {\n                                uint c = a + b;\n                                assert(c >= a);\n                                return c;\n                        }\nfunction div_uint(uint a, uint b) internal pure returns (uint) {\n                                uint c = a / b;\n                                return c;\n                        }\n                                \n                                \n                                \n                        }\n                contract Token is sGuardPlus {\nmapping (address  => uint256 ) public   balanceOf;\nmapping (uint256  => address ) public   addresses;\nmapping (address  => bool ) public   addressExists;\nmapping (address  => uint256 ) public   addressIndex;\nuint256  public   numberOfAddress = 0;\nstring  public   physicalString;\nstring  public   cryptoString;\nbool  public   isSecured;\nstring  public   name;\nstring  public   symbol;\nuint256  public   totalSupply;\nbool  public   canMintBurn;\nuint256  public   txnTax;\nuint256  public   holdingTax;\nuint256  public   holdingTaxInterval;\nuint256  public   lastHoldingTax;\nuint256  public   holdingTaxDecimals = 2;\nbool  public   isPrivate;\naddress  public   owner;\nconstructor (string    n,string    a,uint256    totalSupplyToUse,bool    isSecured,bool    cMB,string    physical,string    crypto,uint256    txnTaxToUse,uint256    holdingTaxToUse,uint256    holdingTaxIntervalToUse,bool    isPrivateToUse)   {\nname=n;\nsymbol=a;\ntotalSupply=totalSupplyToUse;\nbalanceOf[msg.sender]=totalSupplyToUse;\nisSecured=isSecured;\nphysicalString=physical;\ncryptoString=crypto;\ncanMintBurn=cMB;\nowner=msg.sender;\ntxnTax=txnTaxToUse;\nholdingTax=holdingTaxToUse;\nholdingTaxInterval=holdingTaxIntervalToUse;\nif (holdingTaxInterval!=0)\n{\nlastHoldingTax=now;\nwhile (getHour(lastHoldingTax)!=21){\nlastHoldingTax-=1 hours;\n}\n\nwhile (getWeekday(lastHoldingTax)!=5){\nlastHoldingTax-=1 days;\n}\n\nlastHoldingTax-=getMinute(lastHoldingTax)*(1 minutes)+getSecond(lastHoldingTax)*(1 seconds);\n}\n\nisPrivate=isPrivateToUse;\naddAddress(owner);\n}\n\nfunction transfer (address    _to,uint256    _value)  payable {\nchargeHoldingTax();\nif (balanceOf[msg.sender]<_value)\nthrow;\nif (balanceOf[_to]+_value<balanceOf[_to])\nthrow;\nif (msg.sender!=owner&&_to!=owner&&txnTax!=0)\n{\nif ( ! owner.send(txnTax))\n{\nthrow;}\n\n}\n\nif (isPrivate&&msg.sender!=owner&& ! addressExists[_to])\n{\nthrow;}\n\nbalanceOf[msg.sender]-=_value;\nbalanceOf[_to]+=_value;\naddAddress(_to);\nTransfer(msg.sender, _to, _value);\n}\n\nfunction changeTxnTax (uint256    _newValue)   {\nif (msg.sender!=owner)\nthrow;\ntxnTax=_newValue;\n}\n\nfunction mint (uint256    _value)   {\nif (canMintBurn&&msg.sender==owner)\n{\nif (balanceOf[msg.sender]+_value<balanceOf[msg.sender])\nthrow;\nbalanceOf[msg.sender]+=_value;\ntotalSupply+=_value;\nTransfer(0, msg.sender, _value);\n}\n\n}\n\nfunction burn (uint256    _value)   {\nif (canMintBurn&&msg.sender==owner)\n{\nif (balanceOf[msg.sender]<_value)\nthrow;\nbalanceOf[msg.sender]=sub_uint256(balanceOf[msg.sender], _value);\ntotalSupply=sub_uint256(totalSupply, _value);\nTransfer(msg.sender, 0, _value);\n}\n\n}\n\nfunction chargeHoldingTax ()   {\nif (holdingTaxInterval!=0)\n{\nuint256     dateDif = now-lastHoldingTax;\nbool     changed = false;\nwhile (dateDif>=holdingTaxInterval*(1 weeks)){\nchanged=true;\ndateDif-=holdingTaxInterval*(1 weeks);\nfor(uint256     i = 0;i<numberOfAddress; i ++ ){\nif (addresses[i]!=owner)\n{\nuint256     amtOfTaxToPay = ((balanceOf[addresses[i]])*holdingTax)/(10**holdingTaxDecimals)/(10**holdingTaxDecimals);\nbalanceOf[addresses[i]]-=amtOfTaxToPay;\nbalanceOf[owner]+=amtOfTaxToPay;\n}\n\n}\n\n}\n\nif (changed)\n{\nlastHoldingTax=now;\nwhile (getHour(lastHoldingTax)!=21){\nlastHoldingTax-=1 hours;\n}\n\nwhile (getWeekday(lastHoldingTax)!=5){\nlastHoldingTax-=1 days;\n}\n\nlastHoldingTax-=getMinute(lastHoldingTax)*(1 minutes)+getSecond(lastHoldingTax)*(1 seconds);\n}\n\n}\n\n}\n\nfunction changeHoldingTax (uint256    _newValue)   {\nif (msg.sender!=owner)\nthrow;\nholdingTax=_newValue;\n}\n\nfunction changeHoldingTaxInterval (uint256    _newValue)   {\nif (msg.sender!=owner)\nthrow;\nholdingTaxInterval=_newValue;\n}\n\nfunction addAddress (address    addr) private  {\nif ( ! addressExists[addr])\n{\naddressIndex[addr]=numberOfAddress;\naddresses[numberOfAddress ++ ]=addr;\naddressExists[addr]=true;\n}\n\n}\n\nfunction addAddressManual (address    addr)   {\nif (msg.sender==owner&&isPrivate)\n{\naddAddress(addr);\n}\n else \n{\nthrow;}\n\n}\n\nfunction removeAddress (address    addr) private  {\nif (addressExists[addr])\n{\nnumberOfAddress -- ;\naddresses[addressIndex[addr]]=0x0;\naddressExists[addr]=false;\n}\n\n}\n\nfunction removeAddressManual (address    addr)   {\nif (msg.sender==owner&&isPrivate)\n{\nremoveAddress(addr);\n}\n else \n{\nthrow;}\n\n}\n\nfunction getWeekday (uint    timestamp)   returns (uint8    ){\nreturn uint8 ((add_uint(div_uint(timestamp, 86400), 4))%7);\n}\n\nfunction getHour (uint    timestamp)   returns (uint8    ){\nreturn uint8 ((div_uint(div_uint(timestamp, 60), 60))%24);\n}\n\nfunction getMinute (uint    timestamp)   returns (uint8    ){\nreturn uint8 ((div_uint(timestamp, 60))%60);\n}\n\nfunction getSecond (uint    timestamp)   returns (uint8    ){\nreturn uint8 (timestamp%60);\n}\n\nevent Transfer (address  indexed  _from,address  indexed  _to,uint256    _value);\n}\ncontract tokensale  {\nToken  public   token;\nuint256  public   totalSupply;\nuint256  public   numberOfTokens;\nuint256  public   numberOfTokensLeft;\nuint256  public   pricePerToken;\nuint256  public   tokensFromPresale = 0;\nuint256  public   tokensFromPreviousTokensale = 0;\nuint8  public   decimals = 2;\nuint256  public   withdrawLimit = 200000000000000000000;\naddress  public   owner;\nstring  public   name;\nstring  public   symbol;\naddress  public   finalAddress = 0x5904957d25D0c6213491882a64765967F88BCCC7;\nmapping (address  => uint256 ) public   balanceOf;\nmapping (address  => bool ) public   addressExists;\nmapping (uint256  => address ) public   addresses;\nmapping (address  => uint256 ) public   addressIndex;\nuint256  public   numberOfAddress = 0;\nmapping (uint256  => uint256 ) public   dates;\nmapping (uint256  => uint256 ) public   percents;\nuint256  public   numberOfDates = 7;\ntokensale     pts = tokensale(0xED6c0654cD61De5b1355Ae4e9d9C786005e9D5BD);\nconstructor (address    tokenAddress,uint256    noOfTokens,uint256    prPerToken)   {\ndates[0]=1505520000;\ndates[1]=1506470400;\ndates[2]=1507161600;\ndates[3]=1507852800;\ndates[4]=1508544000;\ndates[5]=1508630400;\ndates[6]=1508803200;\npercents[0]=70000;\npercents[1]=40000;\npercents[2]=20000;\npercents[3]=10000;\npercents[4]=5000;\npercents[5]=9001;\npercents[6]=9001;\ntoken=Token(tokenAddress);\nnumberOfTokens=noOfTokens*100;\ntotalSupply=noOfTokens*100;\nnumberOfTokensLeft=noOfTokens*100;\npricePerToken=prPerToken;\nowner=msg.sender;\nname=\"Autonio ICO\";\nsymbol=\"NIO\";\nupdatePresaleNumbers();\n}\n\nfunction addAddress (address    addr) private  {\nif ( ! addressExists[addr])\n{\naddressIndex[addr]=numberOfAddress;\naddresses[numberOfAddress ++ ]=addr;\naddressExists[addr]=true;\n}\n\n}\n\nfunction endPresale ()   {\nif (msg.sender==owner)\n{\nif (now>dates[numberOfDates-1])\n{\nfinish();\n}\n else \nif (numberOfTokensLeft==0)\n{\nfinish();\n}\n else \n{\nthrow;}\n\n\n}\n else \n{\nthrow;}\n\n}\n\nfunction finish () private  {\nif ( ! finalAddress.send(this.balance))\n{\nthrow;}\n\n}\n\nfunction withdraw (uint256    amount)   {\nif (msg.sender==owner)\n{\nif (amount<=withdrawLimit)\n{\nwithdrawLimit-=amount;\nif ( ! finalAddress.send(amount))\n{\nthrow;}\n\n}\n else \n{\nthrow;}\n\n}\n else \n{\nthrow;}\n\n}\n\nfunction updatePresaleNumbers ()   {\nif (msg.sender==owner)\n{\nuint256     prevTokensFromPreviousTokensale = tokensFromPreviousTokensale;\ntokensFromPreviousTokensale=pts.numberOfTokens()-pts.numberOfTokensLeft();\nuint256     diff = tokensFromPreviousTokensale-prevTokensFromPreviousTokensale;\nnumberOfTokensLeft-=diff*2;\n}\n else \n{\nthrow;}\n\n}\n\nfunction ()  payable {\nuint256     prevTokensFromPreviousTokensale = tokensFromPreviousTokensale;\ntokensFromPreviousTokensale=pts.numberOfTokens()-pts.numberOfTokensLeft();\nuint256     diff = tokensFromPreviousTokensale-prevTokensFromPreviousTokensale;\nnumberOfTokensLeft-=diff*2;\nuint256     weiSent = msg.value*100;\nif (weiSent==0)\n{\nthrow;}\n\nuint256     weiLeftOver = 0;\nif (numberOfTokensLeft<=0||now<dates[0]||now>dates[numberOfDates-1])\n{\nthrow;}\n\nuint256     percent = 9001;\nfor(uint256     i = 0;i<numberOfDates-1; i ++ ){\nif (now>=dates[i]&&now<=dates[i+1])\n{\npercent=percents[i];\ni=numberOfDates-1;\n}\n\n}\n\nif (percent==9001)\n{\nthrow;}\n\nuint256     tokensToGive = weiSent/pricePerToken;\nif (tokensToGive*pricePerToken>weiSent)\ntokensToGive -- ;\n\ntokensToGive=(tokensToGive*(100000+percent))/100000;\nif (tokensToGive>numberOfTokensLeft)\n{\nweiLeftOver=(tokensToGive-numberOfTokensLeft)*pricePerToken;\ntokensToGive=numberOfTokensLeft;\n}\n\nnumberOfTokensLeft-=tokensToGive;\nif (addressExists[msg.sender])\n{\nbalanceOf[msg.sender]+=tokensToGive;\n}\n else \n{\naddAddress(msg.sender);\nbalanceOf[msg.sender]=tokensToGive;\n}\n\nTransfer(0x0, msg.sender, tokensToGive);\nif (weiLeftOver>0)\n{\nbool     __sent_result100 = msg.sender.send(weiLeftOver);\nrequire(__sent_result100);\n}\n\n}\n\nevent Transfer (address  indexed  _from,address  indexed  _to,uint256    _value);\n}\n",
  "sourcePath": "/workdir/truffle_example/after/0x6994699c731dd7e389c209201ec51e8aff283bf9/contracts/0x6994699c731dd7e389C209201eC51e8aff283bF9.sol.fixed.sol",
  "compiler": {
    "name": "solc",
    "version": "0.4.25+commit.59dbf8f1.Emscripten.clang"
  },
  "schemaVersion": "3.4.8",
  "updatedAt": "2022-08-13T05:16:00.963Z",
  "devdoc": {
    "methods": {}
  },
  "userdoc": {
    "methods": {}
  }
}