{
  "contractName": "EasyMineToken",
  "abi": [
    {
      "constant": true,
      "inputs": [],
      "name": "name",
      "outputs": [
        {
          "name": "",
          "type": "string"
        }
      ],
      "payable": false,
      "stateMutability": "view",
      "type": "function"
    },
    {
      "constant": false,
      "inputs": [
        {
          "name": "_spender",
          "type": "address"
        },
        {
          "name": "_value",
          "type": "uint256"
        }
      ],
      "name": "approve",
      "outputs": [
        {
          "name": "success",
          "type": "bool"
        }
      ],
      "payable": false,
      "stateMutability": "nonpayable",
      "type": "function"
    },
    {
      "constant": true,
      "inputs": [],
      "name": "totalSupply",
      "outputs": [
        {
          "name": "",
          "type": "uint256"
        }
      ],
      "payable": false,
      "stateMutability": "view",
      "type": "function"
    },
    {
      "constant": false,
      "inputs": [
        {
          "name": "_from",
          "type": "address"
        },
        {
          "name": "_to",
          "type": "address"
        },
        {
          "name": "_value",
          "type": "uint256"
        }
      ],
      "name": "transferFrom",
      "outputs": [
        {
          "name": "success",
          "type": "bool"
        }
      ],
      "payable": false,
      "stateMutability": "nonpayable",
      "type": "function"
    },
    {
      "constant": true,
      "inputs": [],
      "name": "decimals",
      "outputs": [
        {
          "name": "",
          "type": "uint8"
        }
      ],
      "payable": false,
      "stateMutability": "view",
      "type": "function"
    },
    {
      "constant": true,
      "inputs": [
        {
          "name": "_owner",
          "type": "address"
        }
      ],
      "name": "balanceOf",
      "outputs": [
        {
          "name": "balance",
          "type": "uint256"
        }
      ],
      "payable": false,
      "stateMutability": "view",
      "type": "function"
    },
    {
      "constant": true,
      "inputs": [],
      "name": "symbol",
      "outputs": [
        {
          "name": "",
          "type": "string"
        }
      ],
      "payable": false,
      "stateMutability": "view",
      "type": "function"
    },
    {
      "constant": false,
      "inputs": [
        {
          "name": "_to",
          "type": "address"
        },
        {
          "name": "_value",
          "type": "uint256"
        }
      ],
      "name": "transfer",
      "outputs": [
        {
          "name": "success",
          "type": "bool"
        }
      ],
      "payable": false,
      "stateMutability": "nonpayable",
      "type": "function"
    },
    {
      "constant": true,
      "inputs": [
        {
          "name": "_owner",
          "type": "address"
        },
        {
          "name": "_spender",
          "type": "address"
        }
      ],
      "name": "allowance",
      "outputs": [
        {
          "name": "remaining",
          "type": "uint256"
        }
      ],
      "payable": false,
      "stateMutability": "view",
      "type": "function"
    },
    {
      "inputs": [
        {
          "name": "_icoAddress",
          "type": "address"
        },
        {
          "name": "_preIcoAddress",
          "type": "address"
        },
        {
          "name": "_easyMineWalletAddress",
          "type": "address"
        },
        {
          "name": "_bountyWalletAddress",
          "type": "address"
        }
      ],
      "payable": false,
      "stateMutability": "nonpayable",
      "type": "constructor"
    },
    {
      "anonymous": false,
      "inputs": [
        {
          "indexed": true,
          "name": "_from",
          "type": "address"
        },
        {
          "indexed": true,
          "name": "_to",
          "type": "address"
        },
        {
          "indexed": false,
          "name": "_value",
          "type": "uint256"
        }
      ],
      "name": "Transfer",
      "type": "event"
    },
    {
      "anonymous": false,
      "inputs": [
        {
          "indexed": true,
          "name": "_owner",
          "type": "address"
        },
        {
          "indexed": true,
          "name": "_spender",
          "type": "address"
        },
        {
          "indexed": false,
          "name": "_value",
          "type": "uint256"
        }
      ],
      "name": "Approval",
      "type": "event"
    },
    {
      "constant": false,
      "inputs": [
        {
          "name": "_value",
          "type": "uint256"
        }
      ],
      "name": "burn",
      "outputs": [
        {
          "name": "success",
          "type": "bool"
        }
      ],
      "payable": false,
      "stateMutability": "nonpayable",
      "type": "function"
    }
  ],
  "bytecode": "0x608060405234801561001057600080fd5b50604051608080610f9e8339810180604052810190808051906020019092919080519060200190929190805190602001909291908051906020019092919050505060008060008060008873ffffffffffffffffffffffffffffffffffffffff161415151561007d57600080fd5b60008773ffffffffffffffffffffffffffffffffffffffff16141515156100a357600080fd5b60008673ffffffffffffffffffffffffffffffffffffffff16141515156100c957600080fd5b60008573ffffffffffffffffffffffffffffffffffffffff16141515156100ef57600080fd5b6a1b4c0595a86aa1c10000006000819055506a165578eecf9d0ffb00000093506a01a784379d99db4200000092506a027b46536c66c8e3000000915069d3c21bcecceda100000090506000548183858701010114151561014b57fe5b83600160008a73ffffffffffffffffffffffffffffffffffffffff1673ffffffffffffffffffffffffffffffffffffffff168152602001908152602001600020819055508773ffffffffffffffffffffffffffffffffffffffff1660007fddf252ad1be2c89b69c2b068fc378daa952ba7f163c4a11628f55a4df523b3ef866040518082815260200191505060405180910390a382600160008973ffffffffffffffffffffffffffffffffffffffff1673ffffffffffffffffffffffffffffffffffffffff168152602001908152602001600020819055508673ffffffffffffffffffffffffffffffffffffffff1660007fddf252ad1be2c89b69c2b068fc378daa952ba7f163c4a11628f55a4df523b3ef856040518082815260200191505060405180910390a381600160008873ffffffffffffffffffffffffffffffffffffffff1673ffffffffffffffffffffffffffffffffffffffff168152602001908152602001600020819055508573ffffffffffffffffffffffffffffffffffffffff1660007fddf252ad1be2c89b69c2b068fc378daa952ba7f163c4a11628f55a4df523b3ef846040518082815260200191505060405180910390a380600160008773ffffffffffffffffffffffffffffffffffffffff1673ffffffffffffffffffffffffffffffffffffffff168152602001908152602001600020819055508473ffffffffffffffffffffffffffffffffffffffff1660007fddf252ad1be2c89b69c2b068fc378daa952ba7f163c4a11628f55a4df523b3ef836040518082815260200191505060405180910390a35050505050505050610bec806103b26000396000f3006080604052600436106100a4576000357c0100000000000000000000000000000000000000000000000000000000900463ffffffff16806306fdde03146100a9578063095ea7b31461013957806318160ddd1461019e57806323b872dd146101c9578063313ce5671461024e57806342966c681461027f57806370a08231146102c457806395d89b411461031b578063a9059cbb146103ab578063dd62ed3e14610410575b600080fd5b3480156100b557600080fd5b506100be610487565b6040518080602001828103825283818151815260200191508051906020019080838360005b838110156100fe5780820151818401526020810190506100e3565b50505050905090810190601f16801561012b5780820380516001836020036101000a031916815260200191505b509250505060405180910390f35b34801561014557600080fd5b50610184600480360381019080803573ffffffffffffffffffffffffffffffffffffffff169060200190929190803590602001909291905050506104c0565b604051808215151515815260200191505060405180910390f35b3480156101aa57600080fd5b506101b36105b2565b6040518082815260200191505060405180910390f35b3480156101d557600080fd5b50610234600480360381019080803573ffffffffffffffffffffffffffffffffffffffff169060200190929190803573ffffffffffffffffffffffffffffffffffffffff169060200190929190803590602001909291905050506105b8565b604051808215151515815260200191505060405180910390f35b34801561025a57600080fd5b50610263610834565b604051808260ff1660ff16815260200191505060405180910390f35b34801561028b57600080fd5b506102aa60048036038101908080359060200190929190505050610839565b604051808215151515815260200191505060405180910390f35b3480156102d057600080fd5b50610305600480360381019080803573ffffffffffffffffffffffffffffffffffffffff16906020019092919050505061094e565b6040518082815260200191505060405180910390f35b34801561032757600080fd5b50610330610997565b6040518080602001828103825283818151815260200191508051906020019080838360005b83811015610370578082015181840152602081019050610355565b50505050905090810190601f16801561039d5780820380516001836020036101000a031916815260200191505b509250505060405180910390f35b3480156103b757600080fd5b506103f6600480360381019080803573ffffffffffffffffffffffffffffffffffffffff169060200190929190803590602001909291905050506109d0565b604051808215151515815260200191505060405180910390f35b34801561041c57600080fd5b50610471600480360381019080803573ffffffffffffffffffffffffffffffffffffffff169060200190929190803573ffffffffffffffffffffffffffffffffffffffff169060200190929190505050610b39565b6040518082815260200191505060405180910390f35b6040805190810160405280600e81526020017f656173794d494e4520546f6b656e00000000000000000000000000000000000081525081565b600081600260003373ffffffffffffffffffffffffffffffffffffffff1673ffffffffffffffffffffffffffffffffffffffff16815260200190815260200160002060008573ffffffffffffffffffffffffffffffffffffffff1673ffffffffffffffffffffffffffffffffffffffff168152602001908152602001600020819055508273ffffffffffffffffffffffffffffffffffffffff163373ffffffffffffffffffffffffffffffffffffffff167f8c5be1e5ebec7d5bd14f71427d1e84f3dd0314c0f7b2291e5b200ac8c7c3b925846040518082815260200191505060405180910390a36001905092915050565b60005481565b600081600160008673ffffffffffffffffffffffffffffffffffffffff1673ffffffffffffffffffffffffffffffffffffffff1681526020019081526020016000205410158015610685575081600260008673ffffffffffffffffffffffffffffffffffffffff1673ffffffffffffffffffffffffffffffffffffffff16815260200190815260200160002060003373ffffffffffffffffffffffffffffffffffffffff1673ffffffffffffffffffffffffffffffffffffffff1681526020019081526020016000205410155b80156106915750600082115b156108285781600160008573ffffffffffffffffffffffffffffffffffffffff1673ffffffffffffffffffffffffffffffffffffffff1681526020019081526020016000206000828254019250508190555081600160008673ffffffffffffffffffffffffffffffffffffffff1673ffffffffffffffffffffffffffffffffffffffff1681526020019081526020016000206000828254039250508190555081600260008673ffffffffffffffffffffffffffffffffffffffff1673ffffffffffffffffffffffffffffffffffffffff16815260200190815260200160002060003373ffffffffffffffffffffffffffffffffffffffff1673ffffffffffffffffffffffffffffffffffffffff168152602001908152602001600020600082825403925050819055508273ffffffffffffffffffffffffffffffffffffffff168473ffffffffffffffffffffffffffffffffffffffff167fddf252ad1be2c89b69c2b068fc378daa952ba7f163c4a11628f55a4df523b3ef846040518082815260200191505060405180910390a36001905061082d565b600090505b9392505050565b601281565b600081600160003373ffffffffffffffffffffffffffffffffffffffff1673ffffffffffffffffffffffffffffffffffffffff168152602001908152602001600020541015801561088a5750600082115b156109445781600160003373ffffffffffffffffffffffffffffffffffffffff1673ffffffffffffffffffffffffffffffffffffffff1681526020019081526020016000206000828254039250508190555081600080828254039250508190555060003373ffffffffffffffffffffffffffffffffffffffff167fddf252ad1be2c89b69c2b068fc378daa952ba7f163c4a11628f55a4df523b3ef846040518082815260200191505060405180910390a360019050610949565b600090505b919050565b6000600160008373ffffffffffffffffffffffffffffffffffffffff1673ffffffffffffffffffffffffffffffffffffffff168152602001908152602001600020549050919050565b6040805190810160405280600381526020017f454d54000000000000000000000000000000000000000000000000000000000081525081565b600081600160003373ffffffffffffffffffffffffffffffffffffffff1673ffffffffffffffffffffffffffffffffffffffff1681526020019081526020016000205410158015610a215750600082115b15610b2e5781600160003373ffffffffffffffffffffffffffffffffffffffff1673ffffffffffffffffffffffffffffffffffffffff1681526020019081526020016000206000828254039250508190555081600160008573ffffffffffffffffffffffffffffffffffffffff1673ffffffffffffffffffffffffffffffffffffffff168152602001908152602001600020600082825401925050819055508273ffffffffffffffffffffffffffffffffffffffff163373ffffffffffffffffffffffffffffffffffffffff167fddf252ad1be2c89b69c2b068fc378daa952ba7f163c4a11628f55a4df523b3ef846040518082815260200191505060405180910390a360019050610b33565b600090505b92915050565b6000600260008473ffffffffffffffffffffffffffffffffffffffff1673ffffffffffffffffffffffffffffffffffffffff16815260200190815260200160002060008373ffffffffffffffffffffffffffffffffffffffff1673ffffffffffffffffffffffffffffffffffffffff168152602001908152602001600020549050929150505600a165627a7a7230582058de25c2ed0193307040eddb28b962927c60abba3afd5371c9dccf7e58e03c600029",
  "source": "/**\r\n *Submitted for verification at Etherscan.io on 2017-08-24\r\n*/\r\n\r\npragma solidity ^0.4.13;\r\n\r\ncontract Token {\r\n  /* This is a slight change to the ERC20 base standard.\r\n     function totalSupply() constant returns (uint256 supply);\r\n     is replaced with:\r\n     uint256 public totalSupply;\r\n     This automatically creates a getter function for the totalSupply.\r\n     This is moved to the base contract since public getter functions are not\r\n     currently recognised as an implementation of the matching abstract\r\n     function by the compiler.\r\n  */\r\n  /// total amount of tokens\r\n  uint256 public totalSupply;\r\n\r\n  /// @param _owner The address from which the balance will be retrieved\r\n  /// @return The balance\r\n  function balanceOf(address _owner) constant returns (uint256 balance);\r\n\r\n  /// @notice send `_value` token to `_to` from `msg.sender`\r\n  /// @param _to The address of the recipient\r\n  /// @param _value The amount of token to be transferred\r\n  /// @return Whether the transfer was successful or not\r\n  function transfer(address _to, uint256 _value) returns (bool success);\r\n\r\n  /// @notice send `_value` token to `_to` from `_from` on the condition it is approved by `_from`\r\n  /// @param _from The address of the sender\r\n  /// @param _to The address of the recipient\r\n  /// @param _value The amount of token to be transferred\r\n  /// @return Whether the transfer was successful or not\r\n  function transferFrom(address _from, address _to, uint256 _value) returns (bool success);\r\n\r\n  /// @notice `msg.sender` approves `_spender` to spend `_value` tokens\r\n  /// @param _spender The address of the account able to transfer the tokens\r\n  /// @param _value The amount of tokens to be approved for transfer\r\n  /// @return Whether the approval was successful or not\r\n  function approve(address _spender, uint256 _value) returns (bool success);\r\n\r\n  /// @param _owner The address of the account owning tokens\r\n  /// @param _spender The address of the account able to transfer the tokens\r\n  /// @return Amount of remaining tokens allowed to spent\r\n  function allowance(address _owner, address _spender) constant returns (uint256 remaining);\r\n\r\n  event Transfer(address indexed _from, address indexed _to, uint256 _value);\r\n  event Approval(address indexed _owner, address indexed _spender, uint256 _value);\r\n}\r\n\r\ncontract StandardToken is Token {\r\n\r\n  function transfer(address _to, uint256 _value) returns (bool success) {\r\n    //Default assumes totalSupply can't be over max (2^256 - 1).\r\n    //If your token leaves out totalSupply and can issue more tokens as time goes on, you need to check if it doesn't wrap.\r\n    //Replace the if with this one instead.\r\n    //if (balances[msg.sender] >= _value && balances[_to] + _value > balances[_to]) {\r\n    if (balances[msg.sender] >= _value && _value > 0) {\r\n      balances[msg.sender] -= _value;\r\n      balances[_to] += _value;\r\n      Transfer(msg.sender, _to, _value);\r\n      return true;\r\n    } else { return false; }\r\n  }\r\n\r\n  function transferFrom(address _from, address _to, uint256 _value) returns (bool success) {\r\n    //same as above. Replace this line with the following if you want to protect against wrapping uints.\r\n    //if (balances[_from] >= _value && allowed[_from][msg.sender] >= _value && balances[_to] + _value > balances[_to]) {\r\n    if (balances[_from] >= _value && allowed[_from][msg.sender] >= _value && _value > 0) {\r\n      balances[_to] += _value;\r\n      balances[_from] -= _value;\r\n      allowed[_from][msg.sender] -= _value;\r\n      Transfer(_from, _to, _value);\r\n      return true;\r\n    } else { return false; }\r\n  }\r\n\r\n  function balanceOf(address _owner) constant returns (uint256 balance) {\r\n    return balances[_owner];\r\n  }\r\n\r\n  function approve(address _spender, uint256 _value) returns (bool success) {\r\n    allowed[msg.sender][_spender] = _value;\r\n    Approval(msg.sender, _spender, _value);\r\n    return true;\r\n  }\r\n\r\n  function allowance(address _owner, address _spender) constant returns (uint256 remaining) {\r\n    return allowed[_owner][_spender];\r\n  }\r\n\r\n  mapping (address => uint256) balances;\r\n  mapping (address => mapping (address => uint256)) allowed;\r\n}\r\n\r\ncontract EasyMineToken is StandardToken {\r\n\r\n  string public constant name = \"easyMINE Token\";\r\n  string public constant symbol = \"EMT\";\r\n  uint8 public constant decimals = 18;\r\n\r\n  function EasyMineToken(address _icoAddress,\r\n                         address _preIcoAddress,\r\n                         address _easyMineWalletAddress,\r\n                         address _bountyWalletAddress) {\r\n    require(_icoAddress != 0x0);\r\n    require(_preIcoAddress != 0x0);\r\n    require(_easyMineWalletAddress != 0x0);\r\n    require(_bountyWalletAddress != 0x0);\r\n\r\n    totalSupply = 33000000 * 10**18;                     // 33.000.000 EMT\r\n\r\n    uint256 icoTokens = 27000000 * 10**18;               // 27.000.000 EMT\r\n\r\n    uint256 preIcoTokens = 2000000 * 10**18;             // 2.000.000 EMT\r\n\r\n    uint256 easyMineTokens = 3000000 * 10**18;           // 1.500.000 EMT dev team +\r\n                                                         // 500.000 EMT advisors +\r\n                                                         // 1.000.000 EMT easyMINE corporation +\r\n                                                         // = 3.000.000 EMT\r\n\r\n    uint256 bountyTokens = 1000000 * 10**18;             // 1.000.000 EMT\r\n\r\n    assert(icoTokens + preIcoTokens + easyMineTokens + bountyTokens == totalSupply);\r\n\r\n    balances[_icoAddress] = icoTokens;\r\n    Transfer(0, _icoAddress, icoTokens);\r\n\r\n    balances[_preIcoAddress] = preIcoTokens;\r\n    Transfer(0, _preIcoAddress, preIcoTokens);\r\n\r\n    balances[_easyMineWalletAddress] = easyMineTokens;\r\n    Transfer(0, _easyMineWalletAddress, easyMineTokens);\r\n\r\n    balances[_bountyWalletAddress] = bountyTokens;\r\n    Transfer(0, _bountyWalletAddress, bountyTokens);\r\n  }\r\n\r\n  function burn(uint256 _value) returns (bool success) {\r\n    if (balances[msg.sender] >= _value && _value > 0) {\r\n      balances[msg.sender] -= _value;\r\n      totalSupply -= _value;\r\n      Transfer(msg.sender, 0x0, _value);\r\n      return true;\r\n    } else {\r\n      return false;\r\n    }\r\n  }\r\n}\r\n\r\ncontract EasyMineTokenWallet {\r\n\r\n  uint256 constant public VESTING_PERIOD = 180 days;\r\n  uint256 constant public DAILY_FUNDS_RELEASE = 15000 * 10**18; // 0.5% * 3M tokens = 15k tokens a day\r\n\r\n  address public owner;\r\n  address public withdrawalAddress;\r\n  Token public easyMineToken;\r\n  uint256 public startTime;\r\n  uint256 public totalWithdrawn;\r\n\r\n  modifier isOwner() {\r\n    require(msg.sender == owner);\r\n    _;\r\n  }\r\n\r\n  function EasyMineTokenWallet() {\r\n    owner = msg.sender;\r\n  }\r\n\r\n  function setup(address _easyMineToken, address _withdrawalAddress)\r\n    public\r\n    isOwner\r\n  {\r\n    require(_easyMineToken != 0x0);\r\n    require(_withdrawalAddress != 0x0);\r\n\r\n    easyMineToken = Token(_easyMineToken);\r\n    withdrawalAddress = _withdrawalAddress;\r\n    startTime = now;\r\n  }\r\n\r\n  function withdraw(uint256 requestedAmount)\r\n    public\r\n    isOwner\r\n    returns (uint256 amount)\r\n  {\r\n    uint256 limit = maxPossibleWithdrawal();\r\n    uint256 withdrawalAmount = requestedAmount;\r\n    if (requestedAmount > limit) {\r\n      withdrawalAmount = limit;\r\n    }\r\n\r\n    if (withdrawalAmount > 0) {\r\n      if (!easyMineToken.transfer(withdrawalAddress, withdrawalAmount)) {\r\n        revert();\r\n      }\r\n      totalWithdrawn += withdrawalAmount;\r\n    }\r\n\r\n    return withdrawalAmount;\r\n  }\r\n\r\n  function maxPossibleWithdrawal()\r\n    public\r\n    constant\r\n    returns (uint256)\r\n  {\r\n    if (now < startTime + VESTING_PERIOD) {\r\n      return 0;\r\n    } else {\r\n      uint256 daysPassed = (now - (startTime + VESTING_PERIOD)) / 86400;\r\n      uint256 res = DAILY_FUNDS_RELEASE * daysPassed - totalWithdrawn;\r\n      if (res < 0) {\r\n        return 0;\r\n      } else {\r\n        return res;\r\n      }\r\n    }\r\n  }\r\n\r\n}\r\n\r\ncontract EasyMineIco {\r\n\r\n  event TokensSold(address indexed buyer, uint256 amount);\r\n  event TokensReserved(uint256 amount);\r\n  event IcoFinished(uint256 burned);\r\n\r\n  struct PriceThreshold {\r\n    uint256 tokenCount;\r\n    uint256 price;\r\n    uint256 tokensSold;\r\n  }\r\n\r\n  /* Maximum duration of ICO */\r\n  uint256 public maxDuration;\r\n\r\n  /* Minimum start delay in blocks */\r\n  uint256 public minStartDelay;\r\n\r\n  /* The owner of this contract */\r\n  address public owner;\r\n\r\n  /* The sys address that handles token reservation */\r\n  address public sys;\r\n\r\n  /* The reservation address - where reserved tokens will be send */\r\n  address public reservationAddress;\r\n\r\n  /* The easyMINE wallet address */\r\n  address public wallet;\r\n\r\n  /* The easyMINE token */\r\n  EasyMineToken public easyMineToken;\r\n\r\n  /* ICO start block */\r\n  uint256 public startBlock;\r\n\r\n  /* ICO end block */\r\n  uint256 public endBlock;\r\n\r\n  /* The three price thresholds */\r\n  PriceThreshold[3] public priceThresholds;\r\n\r\n  /* Current stage */\r\n  Stages public stage;\r\n\r\n  enum Stages {\r\n    Deployed,\r\n    SetUp,\r\n    StartScheduled,\r\n    Started,\r\n    Ended\r\n  }\r\n\r\n  modifier atStage(Stages _stage) {\r\n    require(stage == _stage);\r\n    _;\r\n  }\r\n\r\n  modifier isOwner() {\r\n    require(msg.sender == owner);\r\n    _;\r\n  }\r\n\r\n  modifier isSys() {\r\n    require(msg.sender == sys);\r\n    _;\r\n  }\r\n\r\n  modifier isValidPayload() {\r\n    require(msg.data.length == 0 || msg.data.length == 4);\r\n    _;\r\n  }\r\n\r\n  modifier timedTransitions() {\r\n    if (stage == Stages.StartScheduled && block.number >= startBlock) {\r\n      stage = Stages.Started;\r\n    }\r\n    if (stage == Stages.Started && block.number >= endBlock) {\r\n      finalize();\r\n    }\r\n    _;\r\n  }\r\n\r\n  function EasyMineIco(address _wallet)\r\n    public {\r\n    require(_wallet != 0x0);\r\n\r\n    owner = msg.sender;\r\n    wallet = _wallet;\r\n    stage = Stages.Deployed;\r\n  }\r\n\r\n  /* Fallback function */\r\n  function()\r\n    public\r\n    payable\r\n    timedTransitions {\r\n    if (stage == Stages.Started) {\r\n      buyTokens();\r\n    } else {\r\n      revert();\r\n    }\r\n  }\r\n\r\n  function setup(address _easyMineToken, address _sys, address _reservationAddress, uint256 _minStartDelay, uint256 _maxDuration)\r\n    public\r\n    isOwner\r\n    atStage(Stages.Deployed)\r\n  {\r\n    require(_easyMineToken != 0x0);\r\n    require(_sys != 0x0);\r\n    require(_reservationAddress != 0x0);\r\n    require(_minStartDelay > 0);\r\n    require(_maxDuration > 0);\r\n\r\n    priceThresholds[0] = PriceThreshold(2000000  * 10**18, 0.00070 * 10**18, 0);\r\n    priceThresholds[1] = PriceThreshold(2000000  * 10**18, 0.00075 * 10**18, 0);\r\n    priceThresholds[2] = PriceThreshold(23000000 * 10**18, 0.00080 * 10**18, 0);\r\n\r\n    easyMineToken = EasyMineToken(_easyMineToken);\r\n    sys = _sys;\r\n    reservationAddress = _reservationAddress;\r\n    minStartDelay = _minStartDelay;\r\n    maxDuration = _maxDuration;\r\n\r\n    // Validate token balance\r\n    assert(easyMineToken.balanceOf(this) == maxTokensSold());\r\n\r\n    stage = Stages.SetUp;\r\n  }\r\n\r\n  function maxTokensSold()\r\n    public\r\n    constant\r\n    returns (uint256) {\r\n    uint256 total = 0;\r\n    for (uint8 i = 0; i < priceThresholds.length; i++) {\r\n      total += priceThresholds[i].tokenCount;\r\n    }\r\n    return total;\r\n  }\r\n\r\n  function totalTokensSold()\r\n    public\r\n    constant\r\n    returns (uint256) {\r\n    uint256 total = 0;\r\n    for (uint8 i = 0; i < priceThresholds.length; i++) {\r\n      total += priceThresholds[i].tokensSold;\r\n    }\r\n    return total;\r\n  }\r\n\r\n  /* Schedules start of the ICO */\r\n  function scheduleStart(uint256 _startBlock)\r\n    public\r\n    isOwner\r\n    atStage(Stages.SetUp)\r\n  {\r\n    // Start allowed minimum 5000 blocks from now\r\n    require(_startBlock > block.number + minStartDelay);\r\n\r\n    startBlock = _startBlock;\r\n    endBlock = startBlock + maxDuration;\r\n    stage = Stages.StartScheduled;\r\n  }\r\n\r\n  function updateStage()\r\n    public\r\n    timedTransitions\r\n    returns (Stages)\r\n  {\r\n    return stage;\r\n  }\r\n\r\n  function buyTokens()\r\n    public\r\n    payable\r\n    isValidPayload\r\n    timedTransitions\r\n    atStage(Stages.Started)\r\n  {\r\n    require(msg.value > 0);\r\n\r\n    uint256 amountRemaining = msg.value;\r\n    uint256 tokensToReceive = 0;\r\n\r\n    for (uint8 i = 0; i < priceThresholds.length; i++) {\r\n      uint256 tokensAvailable = priceThresholds[i].tokenCount - priceThresholds[i].tokensSold;\r\n      uint256 maxTokensByAmount = amountRemaining * 10**18 / priceThresholds[i].price;\r\n\r\n      uint256 tokens;\r\n      if (maxTokensByAmount > tokensAvailable) {\r\n        tokens = tokensAvailable;\r\n        amountRemaining -= (priceThresholds[i].price * tokens) / 10**18;\r\n      } else {\r\n        tokens = maxTokensByAmount;\r\n        amountRemaining = 0;\r\n      }\r\n      priceThresholds[i].tokensSold += tokens;\r\n      tokensToReceive += tokens;\r\n    }\r\n\r\n    assert(tokensToReceive > 0);\r\n\r\n    if (amountRemaining != 0) {\r\n      assert(msg.sender.send(amountRemaining));\r\n    }\r\n\r\n    assert(wallet.send(msg.value - amountRemaining));\r\n    assert(easyMineToken.transfer(msg.sender, tokensToReceive));\r\n\r\n    if (totalTokensSold() == maxTokensSold()) {\r\n      finalize();\r\n    }\r\n\r\n    TokensSold(msg.sender, tokensToReceive);\r\n  }\r\n\r\n  function reserveTokens(uint256 tokenCount)\r\n    public\r\n    isSys\r\n    timedTransitions\r\n    atStage(Stages.Started)\r\n  {\r\n    require(tokenCount > 0);\r\n\r\n    uint256 tokensRemaining = tokenCount;\r\n\r\n    for (uint8 i = 0; i < priceThresholds.length; i++) {\r\n      uint256 tokensAvailable = priceThresholds[i].tokenCount - priceThresholds[i].tokensSold;\r\n\r\n      uint256 tokens;\r\n      if (tokensRemaining > tokensAvailable) {\r\n        tokens = tokensAvailable;\r\n      } else {\r\n        tokens = tokensRemaining;\r\n      }\r\n      priceThresholds[i].tokensSold += tokens;\r\n      tokensRemaining -= tokens;\r\n    }\r\n\r\n    uint256 tokensReserved = tokenCount - tokensRemaining;\r\n\r\n    assert(easyMineToken.transfer(reservationAddress, tokensReserved));\r\n\r\n    if (totalTokensSold() == maxTokensSold()) {\r\n      finalize();\r\n    }\r\n\r\n    TokensReserved(tokensReserved);\r\n  }\r\n\r\n  /* Transfer any ether accidentally left in this contract */\r\n  function cleanup()\r\n    public\r\n    isOwner\r\n    timedTransitions\r\n    atStage(Stages.Ended)\r\n  {\r\n    assert(owner.send(this.balance));\r\n  }\r\n\r\n  function finalize()\r\n    private\r\n  {\r\n    stage = Stages.Ended;\r\n\r\n    // burn unsold tokens\r\n    uint256 balance = easyMineToken.balanceOf(this);\r\n    easyMineToken.burn(balance);\r\n    IcoFinished(balance);\r\n  }\r\n\r\n}",
  "sourcePath": "/workdir/truffle_example/0x53CE47cbe7F2be0AEcD086a70182A98c907D024d/contracts/0x53CE47cbe7F2be0AEcD086a70182A98c907D024d.sol",
  "compiler": {
    "name": "solc",
    "version": "0.4.25+commit.59dbf8f1.Emscripten.clang"
  },
  "schemaVersion": "3.4.8",
  "updatedAt": "2022-08-11T07:52:47.091Z",
  "devdoc": {
    "methods": {}
  },
  "userdoc": {
    "methods": {}
  }
}