{
  "contractName": "dgame",
  "abi": [
    {
      "constant": true,
      "inputs": [],
      "name": "endRegisterTime",
      "outputs": [
        {
          "name": "",
          "type": "uint256"
        }
      ],
      "payable": false,
      "stateMutability": "view",
      "type": "function"
    },
    {
      "constant": true,
      "inputs": [],
      "name": "registerDuration",
      "outputs": [
        {
          "name": "",
          "type": "uint256"
        }
      ],
      "payable": false,
      "stateMutability": "view",
      "type": "function"
    },
    {
      "constant": true,
      "inputs": [
        {
          "name": "",
          "type": "uint256"
        },
        {
          "name": "",
          "type": "address"
        }
      ],
      "name": "registered",
      "outputs": [
        {
          "name": "",
          "type": "bool"
        }
      ],
      "payable": false,
      "stateMutability": "view",
      "type": "function"
    },
    {
      "constant": true,
      "inputs": [],
      "name": "numPlayers",
      "outputs": [
        {
          "name": "",
          "type": "uint256"
        }
      ],
      "payable": false,
      "stateMutability": "view",
      "type": "function"
    },
    {
      "constant": true,
      "inputs": [
        {
          "name": "",
          "type": "uint256"
        },
        {
          "name": "",
          "type": "uint256"
        }
      ],
      "name": "players",
      "outputs": [
        {
          "name": "",
          "type": "address"
        }
      ],
      "payable": false,
      "stateMutability": "view",
      "type": "function"
    },
    {
      "constant": true,
      "inputs": [],
      "name": "gameNumber",
      "outputs": [
        {
          "name": "",
          "type": "uint256"
        }
      ],
      "payable": false,
      "stateMutability": "view",
      "type": "function"
    },
    {
      "inputs": [],
      "payable": false,
      "stateMutability": "nonpayable",
      "type": "constructor"
    },
    {
      "payable": true,
      "stateMutability": "payable",
      "type": "fallback"
    },
    {
      "anonymous": false,
      "inputs": [
        {
          "indexed": false,
          "name": "initiator",
          "type": "address"
        },
        {
          "indexed": false,
          "name": "regTimeEnd",
          "type": "uint256"
        },
        {
          "indexed": false,
          "name": "amountSent",
          "type": "uint256"
        },
        {
          "indexed": false,
          "name": "gameNumber",
          "type": "uint256"
        }
      ],
      "name": "StartedGame",
      "type": "event"
    },
    {
      "anonymous": false,
      "inputs": [
        {
          "indexed": false,
          "name": "player",
          "type": "address"
        },
        {
          "indexed": false,
          "name": "gameNumber",
          "type": "uint256"
        }
      ],
      "name": "RegisteredPlayer",
      "type": "event"
    },
    {
      "anonymous": false,
      "inputs": [
        {
          "indexed": false,
          "name": "player",
          "type": "address"
        },
        {
          "indexed": false,
          "name": "gameNumber",
          "type": "uint256"
        }
      ],
      "name": "FoundWinner",
      "type": "event"
    }
  ],
  "bytecode": "0x608060405234801561001057600080fd5b506102586000819055506106bd806100296000396000f300608060405260043610610078576000357c0100000000000000000000000000000000000000000000000000000000900463ffffffff1680636aaf0a0d1461048057806375a5b1ab146104ab5780638c817b6e146104d657806397b2f5561461053b578063998f1b8014610566578063d8d40cee146105dd575b60008060006001541415610123576000544201600181905550600034141561009f57600080fd5b7f3c26777bbaae7d9b62392c780c9aee77e2dc344ceb702da973d37d30f82b0e083360015434600254604051808573ffffffffffffffffffffffffffffffffffffffff1673ffffffffffffffffffffffffffffffffffffffff16815260200184815260200183815260200182815260200194505050505060405180910390a161047c565b6001544211801561013657506000600354115b156102bf5760035460014303406001900481151561015057fe5b06915060025490507f25625608a546595ae7bc49f318400fb098daf566dafa183a7fd373341c37e30760046000838152602001908152602001600020600084815260200190815260200160002060009054906101000a900473ffffffffffffffffffffffffffffffffffffffff1682604051808373ffffffffffffffffffffffffffffffffffffffff1673ffffffffffffffffffffffffffffffffffffffff1681526020018281526020019250505060405180910390a16000600181905550600060038190555060026000815480929190600101919050555060046000828152602001908152602001600020600083815260200190815260200160002060009054906101000a900473ffffffffffffffffffffffffffffffffffffffff1673ffffffffffffffffffffffffffffffffffffffff166108fc3073ffffffffffffffffffffffffffffffffffffffff16319081150290604051600060405180830381858888f193505050505061047b565b60056000600254815260200190815260200160002060003373ffffffffffffffffffffffffffffffffffffffff1673ffffffffffffffffffffffffffffffffffffffff16815260200190815260200160002060009054906101000a900460ff161561032957600080fd5b600160056000600254815260200190815260200160002060003373ffffffffffffffffffffffffffffffffffffffff1673ffffffffffffffffffffffffffffffffffffffff16815260200190815260200160002060006101000a81548160ff021916908315150217905550336004600060025481526020019081526020016000206000600354815260200190815260200160002060006101000a81548173ffffffffffffffffffffffffffffffffffffffff021916908373ffffffffffffffffffffffffffffffffffffffff1602179055506003600081548092919060010191905055507f0d145d16b2bc227dbba053ee8ebad2364e38aebbf3cfe1f04b32b1e2996e5ea233600254604051808373ffffffffffffffffffffffffffffffffffffffff1673ffffffffffffffffffffffffffffffffffffffff1681526020018281526020019250505060405180910390a15b5b5050005b34801561048c57600080fd5b50610495610608565b6040518082815260200191505060405180910390f35b3480156104b757600080fd5b506104c061060e565b6040518082815260200191505060405180910390f35b3480156104e257600080fd5b5061052160048036038101908080359060200190929190803573ffffffffffffffffffffffffffffffffffffffff169060200190929190505050610614565b604051808215151515815260200191505060405180910390f35b34801561054757600080fd5b50610550610643565b6040518082815260200191505060405180910390f35b34801561057257600080fd5b5061059b6004803603810190808035906020019092919080359060200190929190505050610649565b604051808273ffffffffffffffffffffffffffffffffffffffff1673ffffffffffffffffffffffffffffffffffffffff16815260200191505060405180910390f35b3480156105e957600080fd5b506105f261068b565b6040518082815260200191505060405180910390f35b60015481565b60005481565b60056020528160005260406000206020528060005260406000206000915091509054906101000a900460ff1681565b60035481565b60046020528160005260406000206020528060005260406000206000915091509054906101000a900473ffffffffffffffffffffffffffffffffffffffff1681565b600254815600a165627a7a723058201f5e43d470fc652bb4de9b164c15c7d2cbf2c4fe29e55c4354b77b8f1ced76390029",
  "source": "/**\r\n *Submitted for verification at Etherscan.io on 2017-06-01\r\n*/\r\n\r\npragma solidity ^0.4.10;\r\n\r\n/*\r\n * This is an example gambling contract that works without any ABI interface.\r\n * The entire game logic is invoked by calling the fallback function which\r\n * is triggered, e.g. upon receiving a transaction at the contract address\r\n * without any data sent along. The contract is attackable in a number of ways:\r\n * - as soon as someone paid in Ether and starts the game, register with a\r\n *   large number of addresses to spam the player list and most likely win.\r\n * - blockhash as source of entropy is attackable by miners\r\n * - probably further exploits\r\n * This only serves as a minimalistic example of how to gamble on Ethereum\r\n * Author: S.C. Buergel for Validity Labs AG\r\n */\r\n\r\ncontract dgame {\r\n    uint public registerDuration;\r\n    uint public endRegisterTime;\r\n    uint public gameNumber;\r\n    uint public numPlayers;\r\n    mapping(uint => mapping(uint => address)) public players;\r\n    mapping(uint => mapping(address => bool)) public registered;\r\n    event StartedGame(address initiator, uint regTimeEnd, uint amountSent, uint gameNumber);\r\n    event RegisteredPlayer(address player, uint gameNumber);\r\n    event FoundWinner(address player, uint gameNumber);\r\n    \r\n    // constructor sets default registration duration to 5min\r\n    function dgame() {\r\n        registerDuration = 600;\r\n    }\r\n    \r\n    // fallback function is used for entire game logic\r\n    function() payable {\r\n        // status idle: start new game and transition to status ongoing\r\n        if (endRegisterTime == 0) {\r\n            endRegisterTime = now + registerDuration;\r\n            if (msg.value == 0)\r\n                throw;  // prevent a new game to be started with empty pot\r\n            StartedGame(msg.sender, endRegisterTime, msg.value, gameNumber);\r\n        } else if (now > endRegisterTime && numPlayers > 0) {\r\n            // status completed: find winner and transition to status idle\r\n            uint winner = uint(block.blockhash(block.number - 1)) % numPlayers; // find index of winner (take blockhash as source of entropy -> exploitable!)\r\n            uint currentGamenumber = gameNumber;\r\n            FoundWinner(players[currentGamenumber][winner], currentGamenumber);\r\n            endRegisterTime = 0;\r\n            numPlayers = 0;\r\n            gameNumber++;\r\n\r\n            // pay winner all Ether that we have\r\n            // ignore if winner rejects prize\r\n            // in that case Ether will be added to prize of the next game\r\n            players[currentGamenumber][winner].send(this.balance);\r\n        } else {\r\n            // status ongoing: register player\r\n            if (registered[gameNumber][msg.sender])\r\n                throw;  // prevent same player to register twice with same address\r\n            registered[gameNumber][msg.sender] = true;\r\n            players[gameNumber][numPlayers] = (msg.sender);\r\n            numPlayers++;\r\n            RegisteredPlayer(msg.sender, gameNumber);\r\n        }\r\n    }\r\n}",
  "sourcePath": "/workdir/truffle_example/0x0a630de26e5B41eaef08741e74da4018A6C2E14c/contracts/0x0a630de26e5B41eaef08741e74da4018A6C2E14c.sol",
  "compiler": {
    "name": "solc",
    "version": "0.4.25+commit.59dbf8f1.Emscripten.clang"
  },
  "schemaVersion": "3.4.8",
  "updatedAt": "2022-08-11T02:45:25.337Z",
  "networkType": "ethereum",
  "devdoc": {
    "methods": {}
  },
  "userdoc": {
    "methods": {}
  }
}