{
  "contractName": "SaleExtendedBCO",
  "abi": [
    {
      "constant": true,
      "inputs": [],
      "name": "startline",
      "outputs": [
        {
          "name": "",
          "type": "uint256"
        }
      ],
      "payable": false,
      "stateMutability": "view",
      "type": "function"
    },
    {
      "constant": true,
      "inputs": [],
      "name": "deadline",
      "outputs": [
        {
          "name": "",
          "type": "uint256"
        }
      ],
      "payable": false,
      "stateMutability": "view",
      "type": "function"
    },
    {
      "constant": true,
      "inputs": [
        {
          "name": "",
          "type": "address"
        }
      ],
      "name": "actualGotETH",
      "outputs": [
        {
          "name": "",
          "type": "uint256"
        }
      ],
      "payable": false,
      "stateMutability": "view",
      "type": "function"
    },
    {
      "constant": true,
      "inputs": [],
      "name": "beneficiary",
      "outputs": [
        {
          "name": "",
          "type": "address"
        }
      ],
      "payable": false,
      "stateMutability": "view",
      "type": "function"
    },
    {
      "constant": true,
      "inputs": [],
      "name": "tokenReward",
      "outputs": [
        {
          "name": "",
          "type": "address"
        }
      ],
      "payable": false,
      "stateMutability": "view",
      "type": "function"
    },
    {
      "constant": true,
      "inputs": [],
      "name": "amountRaised",
      "outputs": [
        {
          "name": "",
          "type": "uint256"
        }
      ],
      "payable": false,
      "stateMutability": "view",
      "type": "function"
    },
    {
      "constant": true,
      "inputs": [],
      "name": "incomingTokensTransactions",
      "outputs": [
        {
          "name": "",
          "type": "uint256"
        }
      ],
      "payable": false,
      "stateMutability": "view",
      "type": "function"
    },
    {
      "constant": true,
      "inputs": [],
      "name": "price",
      "outputs": [
        {
          "name": "",
          "type": "uint256"
        }
      ],
      "payable": false,
      "stateMutability": "view",
      "type": "function"
    },
    {
      "inputs": [
        {
          "name": "start",
          "type": "uint256"
        },
        {
          "name": "end",
          "type": "uint256"
        },
        {
          "name": "costOfEachToken",
          "type": "uint256"
        },
        {
          "name": "addressOfTokenUsedAsReward",
          "type": "address"
        }
      ],
      "payable": false,
      "stateMutability": "nonpayable",
      "type": "constructor"
    },
    {
      "payable": true,
      "stateMutability": "payable",
      "type": "fallback"
    },
    {
      "anonymous": false,
      "inputs": [
        {
          "indexed": true,
          "name": "from",
          "type": "address"
        },
        {
          "indexed": false,
          "name": "value",
          "type": "uint256"
        }
      ],
      "name": "TokenFallback",
      "type": "event"
    },
    {
      "constant": false,
      "inputs": [
        {
          "name": "newOwner",
          "type": "address"
        }
      ],
      "name": "transferOwnership",
      "outputs": [],
      "payable": false,
      "stateMutability": "nonpayable",
      "type": "function"
    },
    {
      "constant": false,
      "inputs": [],
      "name": "Refund",
      "outputs": [],
      "payable": false,
      "stateMutability": "nonpayable",
      "type": "function"
    },
    {
      "constant": false,
      "inputs": [
        {
          "name": "amount",
          "type": "uint256"
        }
      ],
      "name": "WithdrawETH",
      "outputs": [],
      "payable": false,
      "stateMutability": "nonpayable",
      "type": "function"
    },
    {
      "constant": false,
      "inputs": [],
      "name": "WithdrawAllETH",
      "outputs": [],
      "payable": false,
      "stateMutability": "nonpayable",
      "type": "function"
    },
    {
      "constant": false,
      "inputs": [
        {
          "name": "amount",
          "type": "uint256"
        }
      ],
      "name": "WithdrawTokens",
      "outputs": [],
      "payable": false,
      "stateMutability": "nonpayable",
      "type": "function"
    },
    {
      "constant": false,
      "inputs": [
        {
          "name": "costOfEachToken",
          "type": "uint256"
        }
      ],
      "name": "ChangeCost",
      "outputs": [],
      "payable": false,
      "stateMutability": "nonpayable",
      "type": "function"
    },
    {
      "constant": false,
      "inputs": [
        {
          "name": "start",
          "type": "uint256"
        }
      ],
      "name": "ChangeStart",
      "outputs": [],
      "payable": false,
      "stateMutability": "nonpayable",
      "type": "function"
    },
    {
      "constant": false,
      "inputs": [
        {
          "name": "end",
          "type": "uint256"
        }
      ],
      "name": "ChangeEnd",
      "outputs": [],
      "payable": false,
      "stateMutability": "nonpayable",
      "type": "function"
    },
    {
      "constant": false,
      "inputs": [
        {
          "name": "from",
          "type": "address"
        },
        {
          "name": "value",
          "type": "uint256"
        }
      ],
      "name": "tokenFallback",
      "outputs": [],
      "payable": false,
      "stateMutability": "nonpayable",
      "type": "function"
    }
  ],
  "bytecode": "0x608060405234801561001057600080fd5b50604051608080610eeb83398101806040528101908080519060200190929190805190602001909291908051906020019092919080519060200190929190505050336000806101000a81548173ffffffffffffffffffffffffffffffffffffffff021916908373ffffffffffffffffffffffffffffffffffffffff16021790555083600181905550826002819055508160038190555080600760006101000a81548173ffffffffffffffffffffffffffffffffffffffff021916908373ffffffffffffffffffffffffffffffffffffffff16021790555050505050610df1806100fa6000396000f3006080604052600436106100f1576000357c0100000000000000000000000000000000000000000000000000000000900463ffffffff1680630e78501f146102a8578063162bc80c146102d55780631ffe4cca1461030257806329a5c0f41461032d57806329dcb0cf146103445780632ae8b4a31461036f57806338af3eed146103c65780633b66d02b1461041d5780635d2686291461046a5780636e66f6e9146104815780637b3e5e7b146104d857806380d7bcba1461050357806394effa141461052e578063a035b1fe1461055b578063c47af5cf14610586578063f2fde38b146105b3578063f72f6826146105f6575b60008060006001544211151561010657600080fd5b6002544210151561011657600080fd5b34925060035483101561012857600080fd5b826004600082825401925050819055506003548381151561014557fe5b04915082600660003373ffffffffffffffffffffffffffffffffffffffff1673ffffffffffffffffffffffffffffffffffffffff16815260200190815260200160002060008282540192505081905550600760009054906101000a900473ffffffffffffffffffffffffffffffffffffffff1673ffffffffffffffffffffffffffffffffffffffff1663a9059cbb33846040518363ffffffff167c0100000000000000000000000000000000000000000000000000000000028152600401808373ffffffffffffffffffffffffffffffffffffffff1673ffffffffffffffffffffffffffffffffffffffff16815260200182815260200192505050602060405180830381600087803b15801561025a57600080fd5b505af115801561026e573d6000803e3d6000fd5b505050506040513d602081101561028457600080fd5b810190808051906020019092919050505090508015156102a357600080fd5b505050005b3480156102b457600080fd5b506102d360048036038101908080359060200190929190505050610623565b005b3480156102e157600080fd5b5061030060048036038101908080359060200190929190505050610688565b005b34801561030e57600080fd5b50610317610818565b6040518082815260200191505060405180910390f35b34801561033957600080fd5b5061034261081e565b005b34801561035057600080fd5b506103596108e5565b6040518082815260200191505060405180910390f35b34801561037b57600080fd5b506103b0600480360381019080803573ffffffffffffffffffffffffffffffffffffffff1690602001909291905050506108eb565b6040518082815260200191505060405180910390f35b3480156103d257600080fd5b506103db610903565b604051808273ffffffffffffffffffffffffffffffffffffffff1673ffffffffffffffffffffffffffffffffffffffff16815260200191505060405180910390f35b34801561042957600080fd5b50610468600480360381019080803573ffffffffffffffffffffffffffffffffffffffff16906020019092919080359060200190929190505050610928565b005b34801561047657600080fd5b5061047f61098b565b005b34801561048d57600080fd5b50610496610b28565b604051808273ffffffffffffffffffffffffffffffffffffffff1673ffffffffffffffffffffffffffffffffffffffff16815260200191505060405180910390f35b3480156104e457600080fd5b506104ed610b4e565b6040518082815260200191505060405180910390f35b34801561050f57600080fd5b50610518610b54565b6040518082815260200191505060405180910390f35b34801561053a57600080fd5b5061055960048036038101908080359060200190929190505050610b5a565b005b34801561056757600080fd5b50610570610c20565b6040518082815260200191505060405180910390f35b34801561059257600080fd5b506105b160048036038101908080359060200190929190505050610c26565b005b3480156105bf57600080fd5b506105f4600480360381019080803573ffffffffffffffffffffffffffffffffffffffff169060200190929190505050610c8b565b005b34801561060257600080fd5b5061062160048036038101908080359060200190929190505050610d60565b005b6000809054906101000a900473ffffffffffffffffffffffffffffffffffffffff1673ffffffffffffffffffffffffffffffffffffffff163373ffffffffffffffffffffffffffffffffffffffff1614151561067e57600080fd5b8060018190555050565b60008060009054906101000a900473ffffffffffffffffffffffffffffffffffffffff1673ffffffffffffffffffffffffffffffffffffffff163373ffffffffffffffffffffffffffffffffffffffff161415156106e557600080fd5b600760009054906101000a900473ffffffffffffffffffffffffffffffffffffffff1673ffffffffffffffffffffffffffffffffffffffff1663a9059cbb6000809054906101000a900473ffffffffffffffffffffffffffffffffffffffff16846040518363ffffffff167c0100000000000000000000000000000000000000000000000000000000028152600401808373ffffffffffffffffffffffffffffffffffffffff1673ffffffffffffffffffffffffffffffffffffffff16815260200182815260200192505050602060405180830381600087803b1580156107cb57600080fd5b505af11580156107df573d6000803e3d6000fd5b505050506040513d60208110156107f557600080fd5b8101908080519060200190929190505050905080151561081457600080fd5b5050565b60015481565b6000809054906101000a900473ffffffffffffffffffffffffffffffffffffffff1673ffffffffffffffffffffffffffffffffffffffff163373ffffffffffffffffffffffffffffffffffffffff1614151561087957600080fd5b6000809054906101000a900473ffffffffffffffffffffffffffffffffffffffff1673ffffffffffffffffffffffffffffffffffffffff166108fc6004549081150290604051600060405180830381858888f193505050501580156108e2573d6000803e3d6000fd5b50565b60025481565b60066020528060005260406000206000915090505481565b6000809054906101000a900473ffffffffffffffffffffffffffffffffffffffff1681565b60016005600082825401925050819055508173ffffffffffffffffffffffffffffffffffffffff167f6eac22c52ef303dffeb53cd2aa77c3a121e72c1d71cd4ea9a14ecba2de0e1238826040518082815260200191505060405180910390a25050565b6000600760009054906101000a900473ffffffffffffffffffffffffffffffffffffffff1673ffffffffffffffffffffffffffffffffffffffff166370a08231306040518263ffffffff167c0100000000000000000000000000000000000000000000000000000000028152600401808273ffffffffffffffffffffffffffffffffffffffff1673ffffffffffffffffffffffffffffffffffffffff168152602001915050602060405180830381600087803b158015610a4a57600080fd5b505af1158015610a5e573d6000803e3d6000fd5b505050506040513d6020811015610a7457600080fd5b8101908080519060200190929190505050111515610a9157600080fd5b600254421015610aa057600080fd5b3373ffffffffffffffffffffffffffffffffffffffff166108fc600660003373ffffffffffffffffffffffffffffffffffffffff1673ffffffffffffffffffffffffffffffffffffffff168152602001908152602001600020549081150290604051600060405180830381858888f19350505050158015610b25573d6000803e3d6000fd5b50565b600760009054906101000a900473ffffffffffffffffffffffffffffffffffffffff1681565b60045481565b60055481565b6000809054906101000a900473ffffffffffffffffffffffffffffffffffffffff1673ffffffffffffffffffffffffffffffffffffffff163373ffffffffffffffffffffffffffffffffffffffff16141515610bb557600080fd5b6000809054906101000a900473ffffffffffffffffffffffffffffffffffffffff1673ffffffffffffffffffffffffffffffffffffffff166108fc829081150290604051600060405180830381858888f19350505050158015610c1c573d6000803e3d6000fd5b5050565b60035481565b6000809054906101000a900473ffffffffffffffffffffffffffffffffffffffff1673ffffffffffffffffffffffffffffffffffffffff163373ffffffffffffffffffffffffffffffffffffffff16141515610c8157600080fd5b8060038190555050565b6000809054906101000a900473ffffffffffffffffffffffffffffffffffffffff1673ffffffffffffffffffffffffffffffffffffffff163373ffffffffffffffffffffffffffffffffffffffff16141515610ce657600080fd5b600073ffffffffffffffffffffffffffffffffffffffff168173ffffffffffffffffffffffffffffffffffffffff16141515610d5d57806000806101000a81548173ffffffffffffffffffffffffffffffffffffffff021916908373ffffffffffffffffffffffffffffffffffffffff1602179055505b50565b6000809054906101000a900473ffffffffffffffffffffffffffffffffffffffff1673ffffffffffffffffffffffffffffffffffffffff163373ffffffffffffffffffffffffffffffffffffffff16141515610dbb57600080fd5b80600281905550505600a165627a7a72305820dff6a77fb3b9dd00ea66845eabef5eb97c88f0ac4bcc65c1fb1a9f9f8142e4a70029",
  "source": "pragma solidity ^0.4.11;\n\n                        contract sGuardPlus {\n                                constructor() internal {\n                                        \n                                        \n                                }\n                                \n                                \n                                \n                                \n                        }\n                contract ERC20  {\nuint  public   totalSupply;\nfunction balanceOf (address    who)  constant returns (uint    );\nfunction allowance (address    owner,address    spender)  constant returns (uint    );\nfunction transfer (address    to,uint    value)   returns (bool    ok);\nfunction transferFrom (address    from,address    to,uint    value)   returns (bool    ok);\nfunction approve (address    spender,uint    value)   returns (bool    ok);\nevent Transfer (address  indexed  from,address  indexed  to,uint    value);\nevent Approval (address  indexed  owner,address  indexed  spender,uint    value);\n}\ncontract ContractReceiver  {\nfunction tokenFallback (address    from,uint    value)   ;\n}\ncontract SafeMath  {\nfunction safeMul (uint    a,uint    b) internal  returns (uint    ){\nuint     c = a*b;\nassert(a==0||c/a==b);\nreturn c;\n}\n\nfunction safeDiv (uint    a,uint    b) internal  returns (uint    ){\nassert(b>0);\nuint     c = a/b;\nassert(a==b*c+a%b);\nreturn c;\n}\n\nfunction safeSub (uint    a,uint    b) internal  returns (uint    ){\nassert(b<=a);\nreturn a-b;\n}\n\nfunction safeAdd (uint    a,uint    b) internal  returns (uint    ){\nuint     c = a+b;\nassert(c>=a&&c>=b);\nreturn c;\n}\n\nfunction max64 (uint64    a,uint64    b) internal constant returns (uint64    ){\nreturn a>=b ? a : b;\n}\n\nfunction min64 (uint64    a,uint64    b) internal constant returns (uint64    ){\nreturn a<b ? a : b;\n}\n\nfunction max256 (uint256    a,uint256    b) internal constant returns (uint256    ){\nreturn a>=b ? a : b;\n}\n\nfunction min256 (uint256    a,uint256    b) internal constant returns (uint256    ){\nreturn a<b ? a : b;\n}\n\nfunction assert (bool    assertion) internal  {\nif ( ! assertion)\n{\nrevert();\n}\n\n}\n\n}\ncontract StandardToken is ERC20,SafeMath {\nevent Minted (address    receiver,uint    amount);\nmapping (address  => uint )    balances;\nmapping (address  => mapping (address  => uint ))    allowed;\nmodifier onlyPayloadSize (uint    size){\nif (msg.data.length!=size+4)\n{\nrevert();\n}\n\n_;\n}\nfunction transfer (address    _to,uint    _value)  onlyPayloadSize(2*32)  returns (bool    success){\nbalances[msg.sender]=safeSub(balances[msg.sender], _value);\nbalances[_to]=safeAdd(balances[_to], _value);\nTransfer(msg.sender, _to, _value);\nif (isContract(_to))\n{\nContractReceiver     rx = ContractReceiver(_to);\nrx.tokenFallback(msg.sender, _value);\n}\n\nreturn true;\n}\n\nfunction isContract (address    _addr) private  returns (bool    ){\nuint     length;\n_addr=_addr;\nassembly{\nlength := extcodesize(_addr)\n}\nreturn (length>0);\n}\n\nfunction transferFrom (address    _from,address    _to,uint    _value)   returns (bool    success){\nuint     _allowance = allowed[_from][msg.sender];\nbalances[_to]=safeAdd(balances[_to], _value);\nbalances[_from]=safeSub(balances[_from], _value);\nallowed[_from][msg.sender]=safeSub(_allowance, _value);\nTransfer(_from, _to, _value);\nreturn true;\n}\n\nfunction balanceOf (address    _owner)  constant returns (uint    balance){\nreturn balances[_owner];\n}\n\nfunction approve (address    _spender,uint    _value)   returns (bool    success){\nif ((_value!=0)&&(allowed[msg.sender][_spender]!=0))\nrevert();\n\nallowed[msg.sender][_spender]=_value;\nApproval(msg.sender, _spender, _value);\nreturn true;\n}\n\nfunction allowance (address    _owner,address    _spender)  constant returns (uint    remaining){\nreturn allowed[_owner][_spender];\n}\n\nfunction addApproval (address    _spender,uint    _addedValue)  onlyPayloadSize(2*32)  returns (bool    success){\nuint     oldValue = allowed[msg.sender][_spender];\nallowed[msg.sender][_spender]=safeAdd(oldValue, _addedValue);\nApproval(msg.sender, _spender, allowed[msg.sender][_spender]);\nreturn true;\n}\n\nfunction subApproval (address    _spender,uint    _subtractedValue)  onlyPayloadSize(2*32)  returns (bool    success){\nuint     oldVal = allowed[msg.sender][_spender];\nif (_subtractedValue>oldVal)\n{\nallowed[msg.sender][_spender]=0;\n}\n else \n{\nallowed[msg.sender][_spender]=safeSub(oldVal, _subtractedValue);\n}\n\nApproval(msg.sender, _spender, allowed[msg.sender][_spender]);\nreturn true;\n}\n\n}\ncontract BurnableToken is StandardToken {\naddress  public constant  BURN_ADDRESS = 0;\nevent Burned (address    burner,uint    burnedAmount);\nfunction burn (uint    burnAmount)   {\naddress     burner = msg.sender;\nbalances[burner]=safeSub(balances[burner], burnAmount);\ntotalSupply=safeSub(totalSupply, burnAmount);\nBurned(burner, burnAmount);\n}\n\n}\ncontract UpgradeAgent  {\nuint  public   originalSupply;\nfunction isUpgradeAgent () public constant returns (bool    ){\nreturn true;\n}\n\nfunction upgradeFrom (address    _from,uint256    _value) public  ;\n}\ncontract UpgradeableToken is StandardToken {\naddress  public   upgradeMaster;\nUpgradeAgent  public   upgradeAgent;\nuint256  public   totalUpgraded;\nenum UpgradeState {\nUnknown, \nNotAllowed, \nWaitingForAgent, \nReadyToUpgrade, \nUpgrading\n}\nevent Upgrade (address  indexed  _from,address  indexed  _to,uint256    _value);\nevent UpgradeAgentSet (address    agent);\nconstructor (address    _upgradeMaster)   {\nupgradeMaster=_upgradeMaster;\n}\n\nfunction upgrade (uint256    value) public  {\nUpgradeState     state = getUpgradeState();\nif ( ! (state==UpgradeState.ReadyToUpgrade||state==UpgradeState.Upgrading))\n{\nrevert();\n}\n\nif (value==0)\nrevert();\n\nbalances[msg.sender]=safeSub(balances[msg.sender], value);\ntotalSupply=safeSub(totalSupply, value);\ntotalUpgraded=safeAdd(totalUpgraded, value);\nupgradeAgent.upgradeFrom(msg.sender, value);\nUpgrade(msg.sender, upgradeAgent, value);\n}\n\nfunction setUpgradeAgent (address    agent) external  {\nif ( ! canUpgrade())\n{\nrevert();\n}\n\nif (agent==0x0)\nrevert();\n\nif (msg.sender!=upgradeMaster)\nrevert();\n\nif (getUpgradeState()==UpgradeState.Upgrading)\nrevert();\n\nupgradeAgent=UpgradeAgent(agent);\nif ( ! upgradeAgent.isUpgradeAgent())\nrevert();\n\nif (upgradeAgent.originalSupply()!=totalSupply)\nrevert();\n\nUpgradeAgentSet(upgradeAgent);\n}\n\nfunction getUpgradeState () public constant returns (UpgradeState    ){\nif ( ! canUpgrade())\nreturn UpgradeState.NotAllowed;\n else \nif (address (upgradeAgent)==0x00)\nreturn UpgradeState.WaitingForAgent;\n else \nif (totalUpgraded==0)\nreturn UpgradeState.ReadyToUpgrade;\n else \nreturn UpgradeState.Upgrading;\n\n\n\n}\n\nfunction setUpgradeMaster (address    master) public  {\nif (master==0x0)\nrevert();\n\nif (msg.sender!=upgradeMaster)\nrevert();\n\nupgradeMaster=master;\n}\n\nfunction canUpgrade () public constant returns (bool    ){\nreturn true;\n}\n\n}\ncontract BCOExtendedToken is BurnableToken,UpgradeableToken {\nstring  public   name;\nstring  public   symbol;\nuint  public   decimals;\naddress  public   owner;\nbool  public   mintingFinished = false;\nmapping (address  => uint ) public   previligedBalances;\nmapping (address  => bool ) public   mintAgents;\nevent MintingAgentChanged (address    addr,bool    state);\nmodifier onlyOwner (){\nif (msg.sender!=owner)\nrevert();\n\n_;\n}\nmodifier onlyMintAgent (){\nif ( ! mintAgents[msg.sender])\nrevert();\n\n_;\n}\nmodifier canMint (){\nif (mintingFinished)\nrevert();\n\n_;\n}\nfunction transferOwnership (address    newOwner)  onlyOwner  {\nif (newOwner!=address (0))\n{\nowner=newOwner;\n}\n\n}\n\nconstructor (address    _owner,string    _name,string    _symbol,uint    _totalSupply,uint    _decimals)  UpgradeableToken(_owner)  {\nname=_name;\nsymbol=_symbol;\ntotalSupply=_totalSupply;\ndecimals=_decimals;\nbalances[_owner]=_totalSupply;\nowner=_owner;\n}\n\nfunction transferPrivileged (address    _to,uint    _value)  onlyOwner  returns (bool    success){\nbalances[msg.sender]=safeSub(balances[msg.sender], _value);\nbalances[_to]=safeAdd(balances[_to], _value);\npreviligedBalances[_to]=safeAdd(previligedBalances[_to], _value);\nTransfer(msg.sender, _to, _value);\nreturn true;\n}\n\nfunction getPrivilegedBalance (address    _owner)  constant returns (uint    balance){\nreturn previligedBalances[_owner];\n}\n\nfunction transferFromPrivileged (address    _from,address    _to,uint    _value)  onlyOwner  returns (bool    success){\nuint     availablePrevilegedBalance = previligedBalances[_from];\nbalances[_from]=safeSub(balances[_from], _value);\nbalances[_to]=safeAdd(balances[_to], _value);\npreviligedBalances[_from]=safeSub(availablePrevilegedBalance, _value);\nTransfer(_from, _to, _value);\nreturn true;\n}\n\nfunction mint (address    receiver,uint    amount) public onlyMintAgent canMint  {\ntotalSupply=safeAdd(totalSupply, amount);\nbalances[receiver]=safeAdd(balances[receiver], amount);\nTransfer(0, receiver, amount);\n}\n\nfunction setMintAgent (address    addr,bool    state) public onlyOwner canMint  {\nmintAgents[addr]=state;\nMintingAgentChanged(addr, state);\n}\n\n}\ncontract SaleExtendedBCO  {\naddress  public   beneficiary;\nuint  public   startline;\nuint  public   deadline;\nuint  public   price;\nuint  public   amountRaised;\nuint  public   incomingTokensTransactions;\nmapping (address  => uint ) public   actualGotETH;\nBCOExtendedToken  public   tokenReward;\nevent TokenFallback (address  indexed  from,uint256    value);\nmodifier onlyOwner (){\nif (msg.sender!=beneficiary)\nrevert();\n\n_;\n}\nmodifier whenCrowdsaleIsFinished (){\nif (now<deadline)\nrevert();\n\n_;\n}\nmodifier whenRefundAvailable (){\nif (tokenReward.balanceOf(address (this))<=0)\nrevert();\n\n_;\n}\nconstructor (uint    start,uint    end,uint    costOfEachToken,BCOExtendedToken    addressOfTokenUsedAsReward)   {\nbeneficiary=msg.sender;\nstartline=start;\ndeadline=end;\nprice=costOfEachToken;\ntokenReward=BCOExtendedToken(addressOfTokenUsedAsReward);\n}\n\nfunction ()  payable {\nif (now<=startline)\nrevert();\n\nif (now>=deadline)\nrevert();\n\nuint     amount = msg.value;\nif (amount<price)\nrevert();\n\namountRaised+=amount;\nuint     tokensToSend = amount/price;\nactualGotETH[msg.sender]+=amount;\nbool     __sent_result100 = tokenReward.transfer(msg.sender, tokensToSend);\nrequire(__sent_result100);\n}\n\nfunction transferOwnership (address    newOwner)  onlyOwner  {\nif (newOwner!=address (0))\n{\nbeneficiary=newOwner;\n}\n\n}\n\nfunction Refund ()  whenRefundAvailable whenCrowdsaleIsFinished  {\nmsg.sender.transfer(actualGotETH[msg.sender]);\n}\n\nfunction WithdrawETH (uint    amount)  onlyOwner  {\nbeneficiary.transfer(amount);\n}\n\nfunction WithdrawAllETH ()  onlyOwner  {\nbeneficiary.transfer(amountRaised);\n}\n\nfunction WithdrawTokens (uint    amount)  onlyOwner  {\nbool     __sent_result101 = tokenReward.transfer(beneficiary, amount);\nrequire(__sent_result101);\n}\n\nfunction ChangeCost (uint    costOfEachToken)  onlyOwner  {\nprice=costOfEachToken;\n}\n\nfunction ChangeStart (uint    start)  onlyOwner  {\nstartline=start;\n}\n\nfunction ChangeEnd (uint    end)  onlyOwner  {\ndeadline=end;\n}\n\nfunction tokenFallback (address    from,uint    value)   {\nincomingTokensTransactions+=1;\nTokenFallback(from, value);\n}\n\n}\n",
  "sourcePath": "/workdir/truffle_example/after/0x87be69e5c196e0309cdf6957fd7141fda1df2b97/contracts/0x87bE69E5C196E0309CDF6957FD7141FDA1DF2B97.sol.fixed.sol",
  "compiler": {
    "name": "solc",
    "version": "0.4.25+commit.59dbf8f1.Emscripten.clang"
  },
  "schemaVersion": "3.4.8",
  "updatedAt": "2022-08-13T03:53:45.323Z",
  "networkType": "ethereum",
  "devdoc": {
    "methods": {}
  },
  "userdoc": {
    "methods": {}
  }
}