{
  "contractName": "MyYLCToken",
  "abi": [
    {
      "constant": true,
      "inputs": [],
      "name": "name",
      "outputs": [
        {
          "name": "",
          "type": "string"
        }
      ],
      "payable": false,
      "stateMutability": "view",
      "type": "function"
    },
    {
      "constant": false,
      "inputs": [
        {
          "name": "_spender",
          "type": "address"
        },
        {
          "name": "_value",
          "type": "uint256"
        }
      ],
      "name": "approve",
      "outputs": [
        {
          "name": "success",
          "type": "bool"
        }
      ],
      "payable": false,
      "stateMutability": "nonpayable",
      "type": "function"
    },
    {
      "constant": true,
      "inputs": [],
      "name": "totalSupply",
      "outputs": [
        {
          "name": "",
          "type": "uint256"
        }
      ],
      "payable": false,
      "stateMutability": "view",
      "type": "function"
    },
    {
      "constant": true,
      "inputs": [],
      "name": "decimals",
      "outputs": [
        {
          "name": "",
          "type": "uint8"
        }
      ],
      "payable": false,
      "stateMutability": "view",
      "type": "function"
    },
    {
      "constant": true,
      "inputs": [],
      "name": "sellPrice",
      "outputs": [
        {
          "name": "",
          "type": "uint256"
        }
      ],
      "payable": false,
      "stateMutability": "view",
      "type": "function"
    },
    {
      "constant": true,
      "inputs": [],
      "name": "standard",
      "outputs": [
        {
          "name": "",
          "type": "string"
        }
      ],
      "payable": false,
      "stateMutability": "view",
      "type": "function"
    },
    {
      "constant": true,
      "inputs": [
        {
          "name": "",
          "type": "address"
        }
      ],
      "name": "balanceOf",
      "outputs": [
        {
          "name": "",
          "type": "uint256"
        }
      ],
      "payable": false,
      "stateMutability": "view",
      "type": "function"
    },
    {
      "constant": true,
      "inputs": [],
      "name": "buyPrice",
      "outputs": [
        {
          "name": "",
          "type": "uint256"
        }
      ],
      "payable": false,
      "stateMutability": "view",
      "type": "function"
    },
    {
      "constant": true,
      "inputs": [],
      "name": "owner",
      "outputs": [
        {
          "name": "",
          "type": "address"
        }
      ],
      "payable": false,
      "stateMutability": "view",
      "type": "function"
    },
    {
      "constant": true,
      "inputs": [],
      "name": "symbol",
      "outputs": [
        {
          "name": "",
          "type": "string"
        }
      ],
      "payable": false,
      "stateMutability": "view",
      "type": "function"
    },
    {
      "constant": true,
      "inputs": [
        {
          "name": "",
          "type": "address"
        }
      ],
      "name": "frozenAccount",
      "outputs": [
        {
          "name": "",
          "type": "bool"
        }
      ],
      "payable": false,
      "stateMutability": "view",
      "type": "function"
    },
    {
      "constant": false,
      "inputs": [
        {
          "name": "_spender",
          "type": "address"
        },
        {
          "name": "_value",
          "type": "uint256"
        },
        {
          "name": "_extraData",
          "type": "bytes"
        }
      ],
      "name": "approveAndCall",
      "outputs": [
        {
          "name": "success",
          "type": "bool"
        }
      ],
      "payable": false,
      "stateMutability": "nonpayable",
      "type": "function"
    },
    {
      "constant": true,
      "inputs": [
        {
          "name": "",
          "type": "address"
        },
        {
          "name": "",
          "type": "address"
        }
      ],
      "name": "allowance",
      "outputs": [
        {
          "name": "",
          "type": "uint256"
        }
      ],
      "payable": false,
      "stateMutability": "view",
      "type": "function"
    },
    {
      "constant": false,
      "inputs": [
        {
          "name": "newOwner",
          "type": "address"
        }
      ],
      "name": "transferOwnership",
      "outputs": [],
      "payable": false,
      "stateMutability": "nonpayable",
      "type": "function"
    },
    {
      "inputs": [
        {
          "name": "initialSupply",
          "type": "uint256"
        },
        {
          "name": "tokenName",
          "type": "string"
        },
        {
          "name": "decimalUnits",
          "type": "uint8"
        },
        {
          "name": "tokenSymbol",
          "type": "string"
        }
      ],
      "payable": false,
      "stateMutability": "nonpayable",
      "type": "constructor"
    },
    {
      "payable": false,
      "stateMutability": "nonpayable",
      "type": "fallback"
    },
    {
      "anonymous": false,
      "inputs": [
        {
          "indexed": false,
          "name": "target",
          "type": "address"
        },
        {
          "indexed": false,
          "name": "frozen",
          "type": "bool"
        }
      ],
      "name": "FrozenFunds",
      "type": "event"
    },
    {
      "anonymous": false,
      "inputs": [
        {
          "indexed": true,
          "name": "from",
          "type": "address"
        },
        {
          "indexed": false,
          "name": "value",
          "type": "uint256"
        }
      ],
      "name": "Burn",
      "type": "event"
    },
    {
      "anonymous": false,
      "inputs": [
        {
          "indexed": true,
          "name": "from",
          "type": "address"
        },
        {
          "indexed": true,
          "name": "to",
          "type": "address"
        },
        {
          "indexed": false,
          "name": "value",
          "type": "uint256"
        }
      ],
      "name": "Transfer",
      "type": "event"
    },
    {
      "constant": false,
      "inputs": [
        {
          "name": "_to",
          "type": "address"
        },
        {
          "name": "_value",
          "type": "uint256"
        }
      ],
      "name": "transfer",
      "outputs": [],
      "payable": false,
      "stateMutability": "nonpayable",
      "type": "function"
    },
    {
      "constant": false,
      "inputs": [
        {
          "name": "_from",
          "type": "address"
        },
        {
          "name": "_to",
          "type": "address"
        },
        {
          "name": "_value",
          "type": "uint256"
        }
      ],
      "name": "transferFrom",
      "outputs": [
        {
          "name": "success",
          "type": "bool"
        }
      ],
      "payable": false,
      "stateMutability": "nonpayable",
      "type": "function"
    },
    {
      "constant": false,
      "inputs": [
        {
          "name": "target",
          "type": "address"
        },
        {
          "name": "mintedAmount",
          "type": "uint256"
        }
      ],
      "name": "mintToken",
      "outputs": [],
      "payable": false,
      "stateMutability": "nonpayable",
      "type": "function"
    },
    {
      "constant": false,
      "inputs": [
        {
          "name": "target",
          "type": "address"
        },
        {
          "name": "freeze",
          "type": "bool"
        }
      ],
      "name": "freezeAccount",
      "outputs": [],
      "payable": false,
      "stateMutability": "nonpayable",
      "type": "function"
    },
    {
      "constant": false,
      "inputs": [
        {
          "name": "newSellPrice",
          "type": "uint256"
        },
        {
          "name": "newBuyPrice",
          "type": "uint256"
        }
      ],
      "name": "setPrices",
      "outputs": [],
      "payable": false,
      "stateMutability": "nonpayable",
      "type": "function"
    },
    {
      "constant": false,
      "inputs": [],
      "name": "buy",
      "outputs": [],
      "payable": true,
      "stateMutability": "payable",
      "type": "function"
    },
    {
      "constant": false,
      "inputs": [
        {
          "name": "amount",
          "type": "uint256"
        }
      ],
      "name": "sell",
      "outputs": [],
      "payable": false,
      "stateMutability": "nonpayable",
      "type": "function"
    },
    {
      "constant": false,
      "inputs": [
        {
          "name": "amount",
          "type": "uint256"
        }
      ],
      "name": "burn",
      "outputs": [
        {
          "name": "success",
          "type": "bool"
        }
      ],
      "payable": false,
      "stateMutability": "nonpayable",
      "type": "function"
    }
  ],
  "bytecode": "0x60806040526040805190810160405280600981526020017f546f6b656e20302e31000000000000000000000000000000000000000000000081525060019080519060200190620000519291906200018c565b503480156200005f57600080fd5b5060405162001cf538038062001cf58339810180604052810190808051906020019092919080518201929190602001805190602001909291908051820192919050505083838383336000806101000a81548173ffffffffffffffffffffffffffffffffffffffff021916908373ffffffffffffffffffffffffffffffffffffffff16021790555083600660003373ffffffffffffffffffffffffffffffffffffffff1673ffffffffffffffffffffffffffffffffffffffff16815260200190815260200160002081905550836005819055508260029080519060200190620001499291906200018c565b508060039080519060200190620001629291906200018c565b5081600460006101000a81548160ff021916908360ff16021790555050505050505050506200023b565b828054600181600116156101000203166002900490600052602060002090601f016020900481019282601f10620001cf57805160ff191683800117855562000200565b8280016001018555821562000200579182015b82811115620001ff578251825591602001919060010190620001e2565b5b5090506200020f919062000213565b5090565b6200023891905b80821115620002345760008160009055506001016200021a565b5090565b90565b611aaa806200024b6000396000f300608060405260043610610128576000357c0100000000000000000000000000000000000000000000000000000000900463ffffffff16806305fefda71461014157806306fdde0314610178578063095ea7b31461020857806318160ddd1461026d57806323b872dd14610298578063313ce5671461031d57806342966c681461034e5780634b750334146103935780635a3b7e42146103be57806370a082311461044e57806379c65068146104a55780638620410b146104f25780638da5cb5b1461051d57806395d89b4114610574578063a6f2ae3a14610604578063a9059cbb1461060e578063b414d4b61461065b578063cae9ca51146106b6578063dd62ed3e14610761578063e4849b32146107d8578063e724529c14610805578063f2fde38b14610854575b34801561013457600080fd5b506000151561013f57fe5b005b34801561014d57600080fd5b506101766004803603810190808035906020019092919080359060200190929190505050610897565b005b34801561018457600080fd5b5061018d610901565b6040518080602001828103825283818151815260200191508051906020019080838360005b838110156101cd5780820151818401526020810190506101b2565b50505050905090810190601f1680156101fa5780820380516001836020036101000a031916815260200191505b509250505060405180910390f35b34801561021457600080fd5b50610253600480360381019080803573ffffffffffffffffffffffffffffffffffffffff1690602001909291908035906020019092919050505061099f565b604051808215151515815260200191505060405180910390f35b34801561027957600080fd5b50610282610a2c565b6040518082815260200191505060405180910390f35b3480156102a457600080fd5b50610303600480360381019080803573ffffffffffffffffffffffffffffffffffffffff169060200190929190803573ffffffffffffffffffffffffffffffffffffffff16906020019092919080359060200190929190505050610a32565b604051808215151515815260200191505060405180910390f35b34801561032957600080fd5b50610332610d7d565b604051808260ff1660ff16815260200191505060405180910390f35b34801561035a57600080fd5b5061037960048036038101908080359060200190929190505050610d90565b604051808215151515815260200191505060405180910390f35b34801561039f57600080fd5b506103a8610ee9565b6040518082815260200191505060405180910390f35b3480156103ca57600080fd5b506103d3610eef565b6040518080602001828103825283818151815260200191508051906020019080838360005b838110156104135780820151818401526020810190506103f8565b50505050905090810190601f1680156104405780820380516001836020036101000a031916815260200191505b509250505060405180910390f35b34801561045a57600080fd5b5061048f600480360381019080803573ffffffffffffffffffffffffffffffffffffffff169060200190929190505050610f8d565b6040518082815260200191505060405180910390f35b3480156104b157600080fd5b506104f0600480360381019080803573ffffffffffffffffffffffffffffffffffffffff16906020019092919080359060200190929190505050610fa5565b005b3480156104fe57600080fd5b50610507611113565b6040518082815260200191505060405180910390f35b34801561052957600080fd5b50610532611119565b604051808273ffffffffffffffffffffffffffffffffffffffff1673ffffffffffffffffffffffffffffffffffffffff16815260200191505060405180910390f35b34801561058057600080fd5b5061058961113e565b6040518080602001828103825283818151815260200191508051906020019080838360005b838110156105c95780820151818401526020810190506105ae565b50505050905090810190601f1680156105f65780820380516001836020036101000a031916815260200191505b509250505060405180910390f35b61060c6111dc565b005b34801561061a57600080fd5b50610659600480360381019080803573ffffffffffffffffffffffffffffffffffffffff1690602001909291908035906020019092919050505061133b565b005b34801561066757600080fd5b5061069c600480360381019080803573ffffffffffffffffffffffffffffffffffffffff16906020019092919050505061156b565b604051808215151515815260200191505060405180910390f35b3480156106c257600080fd5b50610747600480360381019080803573ffffffffffffffffffffffffffffffffffffffff16906020019092919080359060200190929190803590602001908201803590602001908080601f016020809104026020016040519081016040528093929190818152602001838380828437820191505050505050919291929050505061158b565b604051808215151515815260200191505060405180910390f35b34801561076d57600080fd5b506107c2600480360381019080803573ffffffffffffffffffffffffffffffffffffffff169060200190929190803573ffffffffffffffffffffffffffffffffffffffff16906020019092919050505061170e565b6040518082815260200191505060405180910390f35b3480156107e457600080fd5b5061080360048036038101908080359060200190929190505050611733565b005b34801561081157600080fd5b50610852600480360381019080803573ffffffffffffffffffffffffffffffffffffffff1690602001909291908035151590602001909291905050506118c1565b005b34801561086057600080fd5b50610895600480360381019080803573ffffffffffffffffffffffffffffffffffffffff1690602001909291905050506119e3565b005b6000809054906101000a900473ffffffffffffffffffffffffffffffffffffffff1673ffffffffffffffffffffffffffffffffffffffff163373ffffffffffffffffffffffffffffffffffffffff161415156108ef57fe5b81600881905550806009819055505050565b60028054600181600116156101000203166002900480601f0160208091040260200160405190810160405280929190818152602001828054600181600116156101000203166002900480156109975780601f1061096c57610100808354040283529160200191610997565b820191906000526020600020905b81548152906001019060200180831161097a57829003601f168201915b505050505081565b600081600760003373ffffffffffffffffffffffffffffffffffffffff1673ffffffffffffffffffffffffffffffffffffffff16815260200190815260200160002060008573ffffffffffffffffffffffffffffffffffffffff1673ffffffffffffffffffffffffffffffffffffffff168152602001908152602001600020819055506001905092915050565b60055481565b6000600a60008573ffffffffffffffffffffffffffffffffffffffff1673ffffffffffffffffffffffffffffffffffffffff16815260200190815260200160002060009054906101000a900460ff16151515610a8a57fe5b81600660008673ffffffffffffffffffffffffffffffffffffffff1673ffffffffffffffffffffffffffffffffffffffff1681526020019081526020016000205410151515610ad557fe5b600660008473ffffffffffffffffffffffffffffffffffffffff1673ffffffffffffffffffffffffffffffffffffffff1681526020019081526020016000205482600660008673ffffffffffffffffffffffffffffffffffffffff1673ffffffffffffffffffffffffffffffffffffffff168152602001908152602001600020540110151515610b6157fe5b600760008573ffffffffffffffffffffffffffffffffffffffff1673ffffffffffffffffffffffffffffffffffffffff16815260200190815260200160002060003373ffffffffffffffffffffffffffffffffffffffff1673ffffffffffffffffffffffffffffffffffffffff168152602001908152602001600020548211151515610be957fe5b81600660008673ffffffffffffffffffffffffffffffffffffffff1673ffffffffffffffffffffffffffffffffffffffff1681526020019081526020016000206000828254039250508190555081600660008573ffffffffffffffffffffffffffffffffffffffff1673ffffffffffffffffffffffffffffffffffffffff1681526020019081526020016000206000828254019250508190555081600760008673ffffffffffffffffffffffffffffffffffffffff1673ffffffffffffffffffffffffffffffffffffffff16815260200190815260200160002060003373ffffffffffffffffffffffffffffffffffffffff1673ffffffffffffffffffffffffffffffffffffffff168152602001908152602001600020600082825403925050819055508273ffffffffffffffffffffffffffffffffffffffff168473ffffffffffffffffffffffffffffffffffffffff167fddf252ad1be2c89b69c2b068fc378daa952ba7f163c4a11628f55a4df523b3ef846040518082815260200191505060405180910390a3600190509392505050565b600460009054906101000a900460ff1681565b60008060009054906101000a900473ffffffffffffffffffffffffffffffffffffffff1673ffffffffffffffffffffffffffffffffffffffff163373ffffffffffffffffffffffffffffffffffffffff16141515610dea57fe5b81600660003373ffffffffffffffffffffffffffffffffffffffff1673ffffffffffffffffffffffffffffffffffffffff1681526020019081526020016000205410151515610e3557fe5b81600660003373ffffffffffffffffffffffffffffffffffffffff1673ffffffffffffffffffffffffffffffffffffffff16815260200190815260200160002060008282540392505081905550816005600082825403925050819055503373ffffffffffffffffffffffffffffffffffffffff167fcc16f5dbb4873280815c1ee09dbd06736cffcc184412cf7a71a0fdb75d397ca5836040518082815260200191505060405180910390a260019050919050565b60085481565b60018054600181600116156101000203166002900480601f016020809104026020016040519081016040528092919081815260200182805460018160011615610100020316600290048015610f855780601f10610f5a57610100808354040283529160200191610f85565b820191906000526020600020905b815481529060010190602001808311610f6857829003601f168201915b505050505081565b60066020528060005260406000206000915090505481565b6000809054906101000a900473ffffffffffffffffffffffffffffffffffffffff1673ffffffffffffffffffffffffffffffffffffffff163373ffffffffffffffffffffffffffffffffffffffff16141515610ffd57fe5b80600660008473ffffffffffffffffffffffffffffffffffffffff1673ffffffffffffffffffffffffffffffffffffffff16815260200190815260200160002060008282540192505081905550806005600082825401925050819055503073ffffffffffffffffffffffffffffffffffffffff1660007fddf252ad1be2c89b69c2b068fc378daa952ba7f163c4a11628f55a4df523b3ef836040518082815260200191505060405180910390a38173ffffffffffffffffffffffffffffffffffffffff163073ffffffffffffffffffffffffffffffffffffffff167fddf252ad1be2c89b69c2b068fc378daa952ba7f163c4a11628f55a4df523b3ef836040518082815260200191505060405180910390a35050565b60095481565b6000809054906101000a900473ffffffffffffffffffffffffffffffffffffffff1681565b60038054600181600116156101000203166002900480601f0160208091040260200160405190810160405280929190818152602001828054600181600116156101000203166002900480156111d45780601f106111a9576101008083540402835291602001916111d4565b820191906000526020600020905b8154815290600101906020018083116111b757829003601f168201915b505050505081565b6000600954348115156111eb57fe5b04905080600660003073ffffffffffffffffffffffffffffffffffffffff1673ffffffffffffffffffffffffffffffffffffffff168152602001908152602001600020541015151561123957fe5b80600660003373ffffffffffffffffffffffffffffffffffffffff1673ffffffffffffffffffffffffffffffffffffffff1681526020019081526020016000206000828254019250508190555080600660003073ffffffffffffffffffffffffffffffffffffffff1673ffffffffffffffffffffffffffffffffffffffff168152602001908152602001600020600082825403925050819055503373ffffffffffffffffffffffffffffffffffffffff163073ffffffffffffffffffffffffffffffffffffffff167fddf252ad1be2c89b69c2b068fc378daa952ba7f163c4a11628f55a4df523b3ef836040518082815260200191505060405180910390a350565b80600660003373ffffffffffffffffffffffffffffffffffffffff1673ffffffffffffffffffffffffffffffffffffffff168152602001908152602001600020541015151561138657fe5b600660008373ffffffffffffffffffffffffffffffffffffffff1673ffffffffffffffffffffffffffffffffffffffff1681526020019081526020016000205481600660008573ffffffffffffffffffffffffffffffffffffffff1673ffffffffffffffffffffffffffffffffffffffff16815260200190815260200160002054011015151561141257fe5b600a60003373ffffffffffffffffffffffffffffffffffffffff1673ffffffffffffffffffffffffffffffffffffffff16815260200190815260200160002060009054906101000a900460ff1615151561146857fe5b80600660003373ffffffffffffffffffffffffffffffffffffffff1673ffffffffffffffffffffffffffffffffffffffff1681526020019081526020016000206000828254039250508190555080600660008473ffffffffffffffffffffffffffffffffffffffff1673ffffffffffffffffffffffffffffffffffffffff168152602001908152602001600020600082825401925050819055508173ffffffffffffffffffffffffffffffffffffffff163373ffffffffffffffffffffffffffffffffffffffff167fddf252ad1be2c89b69c2b068fc378daa952ba7f163c4a11628f55a4df523b3ef836040518082815260200191505060405180910390a35050565b600a6020528060005260406000206000915054906101000a900460ff1681565b60008084905061159b858561099f565b15611705578073ffffffffffffffffffffffffffffffffffffffff16638f4ffcb1338630876040518563ffffffff167c0100000000000000000000000000000000000000000000000000000000028152600401808573ffffffffffffffffffffffffffffffffffffffff1673ffffffffffffffffffffffffffffffffffffffff1681526020018481526020018373ffffffffffffffffffffffffffffffffffffffff1673ffffffffffffffffffffffffffffffffffffffff16815260200180602001828103825283818151815260200191508051906020019080838360005b8381101561169557808201518184015260208101905061167a565b50505050905090810190601f1680156116c25780820380516001836020036101000a031916815260200191505b5095505050505050600060405180830381600087803b1580156116e457600080fd5b505af11580156116f8573d6000803e3d6000fd5b5050505060019150611706565b5b509392505050565b6007602052816000526040600020602052806000526040600020600091509150505481565b80600660003373ffffffffffffffffffffffffffffffffffffffff1673ffffffffffffffffffffffffffffffffffffffff168152602001908152602001600020541015151561177e57fe5b80600660003073ffffffffffffffffffffffffffffffffffffffff1673ffffffffffffffffffffffffffffffffffffffff1681526020019081526020016000206000828254019250508190555080600660003373ffffffffffffffffffffffffffffffffffffffff1673ffffffffffffffffffffffffffffffffffffffff168152602001908152602001600020600082825403925050819055503373ffffffffffffffffffffffffffffffffffffffff166108fc60085483029081150290604051600060405180830381858888f19350505050151561185957fe5b3073ffffffffffffffffffffffffffffffffffffffff163373ffffffffffffffffffffffffffffffffffffffff167fddf252ad1be2c89b69c2b068fc378daa952ba7f163c4a11628f55a4df523b3ef836040518082815260200191505060405180910390a350565b6000809054906101000a900473ffffffffffffffffffffffffffffffffffffffff1673ffffffffffffffffffffffffffffffffffffffff163373ffffffffffffffffffffffffffffffffffffffff1614151561191957fe5b80600a60008473ffffffffffffffffffffffffffffffffffffffff1673ffffffffffffffffffffffffffffffffffffffff16815260200190815260200160002060006101000a81548160ff0219169083151502179055507f48335238b4855f35377ed80f164e8c6f3c366e54ac00b96a6402d4a9814a03a58282604051808373ffffffffffffffffffffffffffffffffffffffff1673ffffffffffffffffffffffffffffffffffffffff168152602001821515151581526020019250505060405180910390a15050565b6000809054906101000a900473ffffffffffffffffffffffffffffffffffffffff1673ffffffffffffffffffffffffffffffffffffffff163373ffffffffffffffffffffffffffffffffffffffff16141515611a3b57fe5b806000806101000a81548173ffffffffffffffffffffffffffffffffffffffff021916908373ffffffffffffffffffffffffffffffffffffffff160217905550505600a165627a7a723058200413b8adcce9b268423b4d51d3b73cb3dc3ea6bce8e3807eefd811a4f7b062740029",
  "source": "pragma solidity ^0.4.13;\ncontract owned {\n  address public owner;\n\n  function owned() {\n    owner = msg.sender;\n  }\n\n  modifier onlyOwner {\n    assert(msg.sender == owner);\n    _;\n  }\n\n  function transferOwnership(address newOwner) onlyOwner {\n    owner = newOwner;\n  }\n}\n\ncontract tokenRecipient { function receiveApproval(address _from, uint256 _value, address _token, bytes _extraData); }\n\ncontract token {\n  /* Public variables of the token */\n  string public standard = 'Token 0.1';\n  string public name;\n  string public symbol;\n  uint8 public decimals;\n  uint256 public totalSupply;\n\n  /* This creates an array with all balances */\n  mapping (address => uint256) public balanceOf;\n  mapping (address => mapping (address => uint256)) public allowance;\n\n  /* This generates a public event on the blockchain that will notify clients */\n  event Transfer(address indexed from, address indexed to, uint256 value);\n\n  /* Initializes contract with initial supply tokens to the creator of the contract */\n  function token(\n  uint256 initialSupply,\n  string tokenName,\n  uint8 decimalUnits,\n  string tokenSymbol\n  ) {\n    balanceOf[msg.sender] = initialSupply;              // Give the creator all initial tokens\n    totalSupply = initialSupply;                        // Update total supply\n    name = tokenName;                                   // Set the name for display purposes\n    symbol = tokenSymbol;                               // Set the symbol for display purposes\n    decimals = decimalUnits;                            // Amount of decimals for display purposes\n  }\n\n  /* Send coins */\n  function transfer(address _to, uint256 _value) {\n    assert (balanceOf[msg.sender] >= _value);            // Check if the sender has enough\n    assert (balanceOf[_to] + _value >= balanceOf[_to]);  // Check for overflows\n    balanceOf[msg.sender] -= _value;                     // Subtract from the sender\n    balanceOf[_to] += _value;                            // Add the same to the recipient\n    Transfer(msg.sender, _to, _value);                   // Notify anyone listening that this transfer took place\n  }\n\n  /* Allow another contract to spend some tokens in your behalf */\n  function approve(address _spender, uint256 _value)\n  returns (bool success) {\n    allowance[msg.sender][_spender] = _value;\n    return true;\n  }\n\n  /* Approve and then communicate the approved contract in a single tx */\n  function approveAndCall(address _spender, uint256 _value, bytes _extraData)\n  returns (bool success) {\n    tokenRecipient spender = tokenRecipient(_spender);\n    if (approve(_spender, _value)) {\n      spender.receiveApproval(msg.sender, _value, this, _extraData);\n      return true;\n    }\n  }\n\n  /* A contract attempts to get the coins */\n  function transferFrom(address _from, address _to, uint256 _value) returns (bool success) {\n    assert (balanceOf[_from] >= _value);                 // Check if the sender has enough\n    assert (balanceOf[_to] + _value >= balanceOf[_to]);  // Check for overflows\n    assert (_value <= allowance[_from][msg.sender]);     // Check allowance\n    balanceOf[_from] -= _value;                          // Subtract from the sender\n    balanceOf[_to] += _value;                            // Add the same to the recipient\n    allowance[_from][msg.sender] -= _value;\n    Transfer(_from, _to, _value);\n    return true;\n  }\n\n  /* This unnamed function is called whenever someone tries to send ether to it */\n  function () {\n    assert(false);     // Prevents accidental sending of ether\n  }\n}\n\ncontract MyYLCToken is owned, token {\n\n  uint256 public sellPrice;\n  uint256 public buyPrice;\n\n  mapping (address => bool) public frozenAccount;\n\n  /* This generates a public event on the blockchain that will notify clients */\n  event FrozenFunds(address target, bool frozen);\n\n  /* This notifies clients about the amount burnt */\n  event Burn(address indexed from, uint256 value);\n\n  /* Initializes contract with initial supply tokens to the creator of the contract */\n  function MyYLCToken(\n  uint256 initialSupply,\n  string tokenName,\n  uint8 decimalUnits,\n  string tokenSymbol\n  ) token (initialSupply, tokenName, decimalUnits, tokenSymbol) {}\n\n  /* Send coins */\n  function transfer(address _to, uint256 _value) {\n    assert (balanceOf[msg.sender] >= _value);           // Check if the sender has enough\n    assert (balanceOf[_to] + _value >= balanceOf[_to]); // Check for overflows\n    assert (!frozenAccount[msg.sender]);                // Check if frozen\n    balanceOf[msg.sender] -= _value;                     // Subtract from the sender\n    balanceOf[_to] += _value;                            // Add the same to the recipient\n    Transfer(msg.sender, _to, _value);                   // Notify anyone listening that this transfer took place\n  }\n\n\n  /* A contract attempts to get the coins */\n  function transferFrom(address _from, address _to, uint256 _value) returns (bool success) {\n    assert (!frozenAccount[_from]);                      // Check if frozen\n    assert (balanceOf[_from] >= _value);                 // Check if the sender has enough\n    assert (balanceOf[_to] + _value >= balanceOf[_to]);  // Check for overflows\n    assert (_value <= allowance[_from][msg.sender]);     // Check allowance\n    balanceOf[_from] -= _value;                          // Subtract from the sender\n    balanceOf[_to] += _value;                            // Add the same to the recipient\n    allowance[_from][msg.sender] -= _value;\n    Transfer(_from, _to, _value);\n    return true;\n  }\n\n  function mintToken(address target, uint256 mintedAmount) onlyOwner {\n    balanceOf[target] += mintedAmount;\n    totalSupply += mintedAmount;\n    Transfer(0, this, mintedAmount);\n    Transfer(this, target, mintedAmount);\n  }\n\n  function freezeAccount(address target, bool freeze) onlyOwner {\n    frozenAccount[target] = freeze;\n    FrozenFunds(target, freeze);\n  }\n\n  function setPrices(uint256 newSellPrice, uint256 newBuyPrice) onlyOwner {\n    sellPrice = newSellPrice;\n    buyPrice = newBuyPrice;\n  }\n\n  function buy() payable {\n    uint amount = msg.value / buyPrice;                // calculates the amount\n    assert (balanceOf[this] >= amount);                // checks if it has enough to sell\n    balanceOf[msg.sender] += amount;                   // adds the amount to buyer's balance\n    balanceOf[this] -= amount;                         // subtracts amount from seller's balance\n    Transfer(this, msg.sender, amount);                // execute an event reflecting the change\n  }\n\n  function sell(uint256 amount) {\n    assert (balanceOf[msg.sender] >= amount );         // checks if the sender has enough to sell\n    balanceOf[this] += amount;                         // adds the amount to owner's balance\n    balanceOf[msg.sender] -= amount;                   // subtracts the amount from seller's balance\n    assert (msg.sender.send(amount * sellPrice));      // sends ether to the seller. It's important\n                                                       // to do this last to avoid recursion attacks\n    Transfer(msg.sender, this, amount);                // executes an event reflecting on the change\n  }\n\n  function burn(uint256 amount) onlyOwner returns (bool success) {\n    assert (balanceOf[msg.sender] >= amount);             // Check if the sender has enough\n    balanceOf[msg.sender] -= amount;                      // Subtract from the sender\n    totalSupply -= amount;                                // Updates totalSupply\n    Burn(msg.sender, amount);\n    return true;\n  }\n\n}\n",
  "sourcePath": "/workdir/truffle_example/before/0x9f03d94bf3545153cb28014bC7D1e7177cA99034/contracts/0x9f03d94bf3545153cb28014bC7D1e7177cA99034.sol",
  "compiler": {
    "name": "solc",
    "version": "0.4.25+commit.59dbf8f1.Emscripten.clang"
  },
  "schemaVersion": "3.4.8",
  "updatedAt": "2022-08-14T09:36:02.235Z",
  "networkType": "ethereum",
  "devdoc": {
    "methods": {}
  },
  "userdoc": {
    "methods": {}
  }
}