{
  "contractName": "CarbonExchangeCoinToken",
  "abi": [
    {
      "constant": true,
      "inputs": [],
      "name": "name",
      "outputs": [
        {
          "name": "",
          "type": "string"
        }
      ],
      "payable": false,
      "stateMutability": "view",
      "type": "function"
    },
    {
      "constant": false,
      "inputs": [
        {
          "name": "_spender",
          "type": "address"
        },
        {
          "name": "_value",
          "type": "uint256"
        }
      ],
      "name": "approve",
      "outputs": [
        {
          "name": "success",
          "type": "bool"
        }
      ],
      "payable": false,
      "stateMutability": "nonpayable",
      "type": "function"
    },
    {
      "constant": true,
      "inputs": [],
      "name": "totalSupply",
      "outputs": [
        {
          "name": "",
          "type": "uint256"
        }
      ],
      "payable": false,
      "stateMutability": "view",
      "type": "function"
    },
    {
      "constant": false,
      "inputs": [
        {
          "name": "_from",
          "type": "address"
        },
        {
          "name": "_to",
          "type": "address"
        },
        {
          "name": "_value",
          "type": "uint256"
        }
      ],
      "name": "transferFrom",
      "outputs": [
        {
          "name": "success",
          "type": "bool"
        }
      ],
      "payable": false,
      "stateMutability": "nonpayable",
      "type": "function"
    },
    {
      "constant": false,
      "inputs": [],
      "name": "destruct",
      "outputs": [],
      "payable": false,
      "stateMutability": "nonpayable",
      "type": "function"
    },
    {
      "constant": true,
      "inputs": [],
      "name": "decimals",
      "outputs": [
        {
          "name": "",
          "type": "uint256"
        }
      ],
      "payable": false,
      "stateMutability": "view",
      "type": "function"
    },
    {
      "constant": false,
      "inputs": [
        {
          "name": "_value",
          "type": "uint256"
        }
      ],
      "name": "burn",
      "outputs": [
        {
          "name": "success",
          "type": "bool"
        }
      ],
      "payable": false,
      "stateMutability": "nonpayable",
      "type": "function"
    },
    {
      "constant": true,
      "inputs": [],
      "name": "sellPrice",
      "outputs": [
        {
          "name": "",
          "type": "uint256"
        }
      ],
      "payable": false,
      "stateMutability": "view",
      "type": "function"
    },
    {
      "constant": true,
      "inputs": [],
      "name": "tokenName",
      "outputs": [
        {
          "name": "",
          "type": "string"
        }
      ],
      "payable": false,
      "stateMutability": "view",
      "type": "function"
    },
    {
      "constant": true,
      "inputs": [
        {
          "name": "",
          "type": "address"
        }
      ],
      "name": "balanceOf",
      "outputs": [
        {
          "name": "",
          "type": "uint256"
        }
      ],
      "payable": false,
      "stateMutability": "view",
      "type": "function"
    },
    {
      "constant": false,
      "inputs": [
        {
          "name": "_from",
          "type": "address"
        },
        {
          "name": "_value",
          "type": "uint256"
        }
      ],
      "name": "burnFrom",
      "outputs": [
        {
          "name": "success",
          "type": "bool"
        }
      ],
      "payable": false,
      "stateMutability": "nonpayable",
      "type": "function"
    },
    {
      "constant": true,
      "inputs": [],
      "name": "tokenSymbol",
      "outputs": [
        {
          "name": "",
          "type": "string"
        }
      ],
      "payable": false,
      "stateMutability": "view",
      "type": "function"
    },
    {
      "constant": true,
      "inputs": [],
      "name": "buyPrice",
      "outputs": [
        {
          "name": "",
          "type": "uint256"
        }
      ],
      "payable": false,
      "stateMutability": "view",
      "type": "function"
    },
    {
      "constant": true,
      "inputs": [],
      "name": "owner",
      "outputs": [
        {
          "name": "",
          "type": "address"
        }
      ],
      "payable": false,
      "stateMutability": "view",
      "type": "function"
    },
    {
      "constant": true,
      "inputs": [],
      "name": "symbol",
      "outputs": [
        {
          "name": "",
          "type": "string"
        }
      ],
      "payable": false,
      "stateMutability": "view",
      "type": "function"
    },
    {
      "constant": false,
      "inputs": [
        {
          "name": "_to",
          "type": "address"
        },
        {
          "name": "_value",
          "type": "uint256"
        }
      ],
      "name": "transfer",
      "outputs": [],
      "payable": false,
      "stateMutability": "nonpayable",
      "type": "function"
    },
    {
      "constant": true,
      "inputs": [
        {
          "name": "",
          "type": "address"
        }
      ],
      "name": "frozenAccount",
      "outputs": [
        {
          "name": "",
          "type": "bool"
        }
      ],
      "payable": false,
      "stateMutability": "view",
      "type": "function"
    },
    {
      "constant": false,
      "inputs": [
        {
          "name": "_spender",
          "type": "address"
        },
        {
          "name": "_value",
          "type": "uint256"
        },
        {
          "name": "_extraData",
          "type": "bytes"
        }
      ],
      "name": "approveAndCall",
      "outputs": [
        {
          "name": "success",
          "type": "bool"
        }
      ],
      "payable": false,
      "stateMutability": "nonpayable",
      "type": "function"
    },
    {
      "constant": true,
      "inputs": [
        {
          "name": "",
          "type": "address"
        },
        {
          "name": "",
          "type": "address"
        }
      ],
      "name": "allowance",
      "outputs": [
        {
          "name": "",
          "type": "uint256"
        }
      ],
      "payable": false,
      "stateMutability": "view",
      "type": "function"
    },
    {
      "constant": false,
      "inputs": [
        {
          "name": "newOwner",
          "type": "address"
        }
      ],
      "name": "transferOwnership",
      "outputs": [],
      "payable": false,
      "stateMutability": "nonpayable",
      "type": "function"
    },
    {
      "inputs": [],
      "payable": false,
      "stateMutability": "nonpayable",
      "type": "constructor"
    },
    {
      "anonymous": false,
      "inputs": [
        {
          "indexed": false,
          "name": "target",
          "type": "address"
        },
        {
          "indexed": false,
          "name": "frozen",
          "type": "bool"
        }
      ],
      "name": "FrozenFunds",
      "type": "event"
    },
    {
      "anonymous": false,
      "inputs": [
        {
          "indexed": true,
          "name": "from",
          "type": "address"
        },
        {
          "indexed": true,
          "name": "to",
          "type": "address"
        },
        {
          "indexed": false,
          "name": "value",
          "type": "uint256"
        }
      ],
      "name": "Transfer",
      "type": "event"
    },
    {
      "anonymous": false,
      "inputs": [
        {
          "indexed": true,
          "name": "from",
          "type": "address"
        },
        {
          "indexed": false,
          "name": "value",
          "type": "uint256"
        }
      ],
      "name": "Burn",
      "type": "event"
    },
    {
      "constant": false,
      "inputs": [
        {
          "name": "target",
          "type": "address"
        },
        {
          "name": "mintedAmount",
          "type": "uint256"
        }
      ],
      "name": "mintToken",
      "outputs": [],
      "payable": false,
      "stateMutability": "nonpayable",
      "type": "function"
    },
    {
      "constant": false,
      "inputs": [
        {
          "name": "target",
          "type": "address"
        },
        {
          "name": "freeze",
          "type": "bool"
        }
      ],
      "name": "freezeAccount",
      "outputs": [],
      "payable": false,
      "stateMutability": "nonpayable",
      "type": "function"
    },
    {
      "constant": false,
      "inputs": [
        {
          "name": "newSellPrice",
          "type": "uint256"
        },
        {
          "name": "newBuyPrice",
          "type": "uint256"
        }
      ],
      "name": "setPrices",
      "outputs": [],
      "payable": false,
      "stateMutability": "nonpayable",
      "type": "function"
    },
    {
      "constant": false,
      "inputs": [],
      "name": "buy",
      "outputs": [],
      "payable": true,
      "stateMutability": "payable",
      "type": "function"
    },
    {
      "constant": false,
      "inputs": [
        {
          "name": "amount",
          "type": "uint256"
        }
      ],
      "name": "sell",
      "outputs": [],
      "payable": false,
      "stateMutability": "nonpayable",
      "type": "function"
    },
    {
      "constant": false,
      "inputs": [
        {
          "name": "minimumBalanceInFinney",
          "type": "uint256"
        }
      ],
      "name": "setMinBalance",
      "outputs": [],
      "payable": false,
      "stateMutability": "nonpayable",
      "type": "function"
    },
    {
      "constant": false,
      "inputs": [
        {
          "name": "newTokenName",
          "type": "string"
        }
      ],
      "name": "setTokenName",
      "outputs": [],
      "payable": false,
      "stateMutability": "nonpayable",
      "type": "function"
    },
    {
      "constant": false,
      "inputs": [
        {
          "name": "newTokenSymbol",
          "type": "string"
        }
      ],
      "name": "setTokenSymbol",
      "outputs": [],
      "payable": false,
      "stateMutability": "nonpayable",
      "type": "function"
    }
  ],
  "bytecode": "0x60806040526012600360006101000a81548160ff021916908360ff16021790555060126009553480156200003257600080fd5b50336000806101000a81548173ffffffffffffffffffffffffffffffffffffffff021916908373ffffffffffffffffffffffffffffffffffffffff160217905550600360009054906101000a900460ff1660ff16600a0a64746a52880002600481905550600454600560003373ffffffffffffffffffffffffffffffffffffffff1673ffffffffffffffffffffffffffffffffffffffff168152602001908152602001600020819055506040805190810160405280601a81526020017f436172626f6e2045786368616e676520436f696e20546f6b656e0000000000008152506001908051906020019062000129929190620002d4565b506040805190810160405280600381526020017f43454300000000000000000000000000000000000000000000000000000000008152506002908051906020019062000177929190620002d4565b50336000806101000a81548173ffffffffffffffffffffffffffffffffffffffff021916908373ffffffffffffffffffffffffffffffffffffffff1602179055506ba18f07d736b90be550000000600481905550600454600560008060009054906101000a900473ffffffffffffffffffffffffffffffffffffffff1673ffffffffffffffffffffffffffffffffffffffff1673ffffffffffffffffffffffffffffffffffffffff168152602001908152602001600020819055506040805190810160405280601a81526020017f436172626f6e2045786368616e676520436f696e20546f6b656e000000000000815250600a90805190602001906200027f929190620002d4565b506040805190810160405280600381526020017f4345430000000000000000000000000000000000000000000000000000000000815250600b9080519060200190620002cd929190620002d4565b5062000383565b828054600181600116156101000203166002900490600052602060002090601f016020900481019282601f106200031757805160ff191683800117855562000348565b8280016001018555821562000348579182015b82811115620003475782518255916020019190600101906200032a565b5b5090506200035791906200035b565b5090565b6200038091905b808211156200037c57600081600090555060010162000362565b5090565b90565b611ea180620003936000396000f30060806040526004361061016a576000357c0100000000000000000000000000000000000000000000000000000000900463ffffffff16806305fefda71461016f57806306fdde03146101a6578063095ea7b31461023657806318160ddd1461029b57806323b872dd146102c65780632b68b9c61461034b578063313ce5671461036257806342966c681461038d5780634b750334146103d25780636c02a931146103fd57806370a082311461048d57806379c65068146104e457806379cc6790146105315780637b61c320146105965780638620410b146106265780638da5cb5b1461065157806395d89b41146106a8578063a4f29aad14610738578063a6f2ae3a146107a1578063a9059cbb146107ab578063b414d4b6146107f8578063ba51b1b414610853578063c91d956c146108bc578063cae9ca51146108e9578063dd62ed3e14610994578063e4849b3214610a0b578063e724529c14610a38578063f2fde38b14610a87575b600080fd5b34801561017b57600080fd5b506101a46004803603810190808035906020019092919080359060200190929190505050610aca565b005b3480156101b257600080fd5b506101bb610b37565b6040518080602001828103825283818151815260200191508051906020019080838360005b838110156101fb5780820151818401526020810190506101e0565b50505050905090810190601f1680156102285780820380516001836020036101000a031916815260200191505b509250505060405180910390f35b34801561024257600080fd5b50610281600480360381019080803573ffffffffffffffffffffffffffffffffffffffff16906020019092919080359060200190929190505050610bd5565b604051808215151515815260200191505060405180910390f35b3480156102a757600080fd5b506102b0610c62565b6040518082815260200191505060405180910390f35b3480156102d257600080fd5b50610331600480360381019080803573ffffffffffffffffffffffffffffffffffffffff169060200190929190803573ffffffffffffffffffffffffffffffffffffffff16906020019092919080359060200190929190505050610c68565b604051808215151515815260200191505060405180910390f35b34801561035757600080fd5b50610360610d95565b005b34801561036e57600080fd5b50610377610e2a565b6040518082815260200191505060405180910390f35b34801561039957600080fd5b506103b860048036038101908080359060200190929190505050610e30565b604051808215151515815260200191505060405180910390f35b3480156103de57600080fd5b506103e7610f34565b6040518082815260200191505060405180910390f35b34801561040957600080fd5b50610412610f3a565b6040518080602001828103825283818151815260200191508051906020019080838360005b83811015610452578082015181840152602081019050610437565b50505050905090810190601f16801561047f5780820380516001836020036101000a031916815260200191505b509250505060405180910390f35b34801561049957600080fd5b506104ce600480360381019080803573ffffffffffffffffffffffffffffffffffffffff169060200190929190505050610fd8565b6040518082815260200191505060405180910390f35b3480156104f057600080fd5b5061052f600480360381019080803573ffffffffffffffffffffffffffffffffffffffff16906020019092919080359060200190929190505050610ff0565b005b34801561053d57600080fd5b5061057c600480360381019080803573ffffffffffffffffffffffffffffffffffffffff169060200190929190803590602001909291905050506111a2565b604051808215151515815260200191505060405180910390f35b3480156105a257600080fd5b506105ab6113bc565b6040518080602001828103825283818151815260200191508051906020019080838360005b838110156105eb5780820151818401526020810190506105d0565b50505050905090810190601f1680156106185780820380516001836020036101000a031916815260200191505b509250505060405180910390f35b34801561063257600080fd5b5061063b61145a565b6040518082815260200191505060405180910390f35b34801561065d57600080fd5b50610666611460565b604051808273ffffffffffffffffffffffffffffffffffffffff1673ffffffffffffffffffffffffffffffffffffffff16815260200191505060405180910390f35b3480156106b457600080fd5b506106bd611485565b6040518080602001828103825283818151815260200191508051906020019080838360005b838110156106fd5780820151818401526020810190506106e2565b50505050905090810190601f16801561072a5780820380516001836020036101000a031916815260200191505b509250505060405180910390f35b34801561074457600080fd5b5061079f600480360381019080803590602001908201803590602001908080601f0160208091040260200160405190810160405280939291908181526020018383808284378201915050505050509192919290505050611523565b005b6107a9611598565b005b3480156107b757600080fd5b506107f6600480360381019080803573ffffffffffffffffffffffffffffffffffffffff169060200190929190803590602001909291905050506115b8565b005b34801561080457600080fd5b50610839600480360381019080803573ffffffffffffffffffffffffffffffffffffffff1690602001909291905050506115c7565b604051808215151515815260200191505060405180910390f35b34801561085f57600080fd5b506108ba600480360381019080803590602001908201803590602001908080601f01602080910402602001604051908101604052809392919081815260200183838082843782019150505050505091929192905050506115e7565b005b3480156108c857600080fd5b506108e76004803603810190808035906020019092919050505061165c565b005b3480156108f557600080fd5b5061097a600480360381019080803573ffffffffffffffffffffffffffffffffffffffff16906020019092919080359060200190929190803590602001908201803590602001908080601f01602080910402602001604051908101604052809392919081815260200183838082843782019150505050505091929192905050506116d1565b604051808215151515815260200191505060405180910390f35b3480156109a057600080fd5b506109f5600480360381019080803573ffffffffffffffffffffffffffffffffffffffff169060200190929190803573ffffffffffffffffffffffffffffffffffffffff169060200190929190505050611854565b6040518082815260200191505060405180910390f35b348015610a1757600080fd5b50610a3660048036038101908080359060200190929190505050611879565b005b348015610a4457600080fd5b50610a85600480360381019080803573ffffffffffffffffffffffffffffffffffffffff1690602001909291908035151590602001909291905050506118fc565b005b348015610a9357600080fd5b50610ac8600480360381019080803573ffffffffffffffffffffffffffffffffffffffff169060200190929190505050611a21565b005b6000809054906101000a900473ffffffffffffffffffffffffffffffffffffffff1673ffffffffffffffffffffffffffffffffffffffff163373ffffffffffffffffffffffffffffffffffffffff16141515610b2557600080fd5b81600781905550806008819055505050565b60018054600181600116156101000203166002900480601f016020809104026020016040519081016040528092919081815260200182805460018160011615610100020316600290048015610bcd5780601f10610ba257610100808354040283529160200191610bcd565b820191906000526020600020905b815481529060010190602001808311610bb057829003601f168201915b505050505081565b600081600660003373ffffffffffffffffffffffffffffffffffffffff1673ffffffffffffffffffffffffffffffffffffffff16815260200190815260200160002060008573ffffffffffffffffffffffffffffffffffffffff1673ffffffffffffffffffffffffffffffffffffffff168152602001908152602001600020819055506001905092915050565b60045481565b6000600660008573ffffffffffffffffffffffffffffffffffffffff1673ffffffffffffffffffffffffffffffffffffffff16815260200190815260200160002060003373ffffffffffffffffffffffffffffffffffffffff1673ffffffffffffffffffffffffffffffffffffffff168152602001908152602001600020548211151515610cf557600080fd5b81600660008673ffffffffffffffffffffffffffffffffffffffff1673ffffffffffffffffffffffffffffffffffffffff16815260200190815260200160002060003373ffffffffffffffffffffffffffffffffffffffff1673ffffffffffffffffffffffffffffffffffffffff16815260200190815260200160002060008282540392505081905550610d8a848484611abf565b600190509392505050565b6000809054906101000a900473ffffffffffffffffffffffffffffffffffffffff1673ffffffffffffffffffffffffffffffffffffffff163373ffffffffffffffffffffffffffffffffffffffff16141515610df057600080fd5b6000809054906101000a900473ffffffffffffffffffffffffffffffffffffffff1673ffffffffffffffffffffffffffffffffffffffff16ff5b60095481565b600081600560003373ffffffffffffffffffffffffffffffffffffffff1673ffffffffffffffffffffffffffffffffffffffff1681526020019081526020016000205410151515610e8057600080fd5b81600560003373ffffffffffffffffffffffffffffffffffffffff1673ffffffffffffffffffffffffffffffffffffffff16815260200190815260200160002060008282540392505081905550816004600082825403925050819055503373ffffffffffffffffffffffffffffffffffffffff167fcc16f5dbb4873280815c1ee09dbd06736cffcc184412cf7a71a0fdb75d397ca5836040518082815260200191505060405180910390a260019050919050565b60075481565b600a8054600181600116156101000203166002900480601f016020809104026020016040519081016040528092919081815260200182805460018160011615610100020316600290048015610fd05780601f10610fa557610100808354040283529160200191610fd0565b820191906000526020600020905b815481529060010190602001808311610fb357829003601f168201915b505050505081565b60056020528060005260406000206000915090505481565b6000809054906101000a900473ffffffffffffffffffffffffffffffffffffffff1673ffffffffffffffffffffffffffffffffffffffff163373ffffffffffffffffffffffffffffffffffffffff1614151561104b57600080fd5b611094600560008473ffffffffffffffffffffffffffffffffffffffff1673ffffffffffffffffffffffffffffffffffffffff1681526020019081526020016000205482611d77565b600560008473ffffffffffffffffffffffffffffffffffffffff1673ffffffffffffffffffffffffffffffffffffffff168152602001908152602001600020819055506110e360045482611d77565b6004819055503073ffffffffffffffffffffffffffffffffffffffff1660007fddf252ad1be2c89b69c2b068fc378daa952ba7f163c4a11628f55a4df523b3ef836040518082815260200191505060405180910390a38173ffffffffffffffffffffffffffffffffffffffff163073ffffffffffffffffffffffffffffffffffffffff167fddf252ad1be2c89b69c2b068fc378daa952ba7f163c4a11628f55a4df523b3ef836040518082815260200191505060405180910390a35050565b600081600560008573ffffffffffffffffffffffffffffffffffffffff1673ffffffffffffffffffffffffffffffffffffffff16815260200190815260200160002054101515156111f257600080fd5b600660008473ffffffffffffffffffffffffffffffffffffffff1673ffffffffffffffffffffffffffffffffffffffff16815260200190815260200160002060003373ffffffffffffffffffffffffffffffffffffffff1673ffffffffffffffffffffffffffffffffffffffff16815260200190815260200160002054821115151561127d57600080fd5b81600560008573ffffffffffffffffffffffffffffffffffffffff1673ffffffffffffffffffffffffffffffffffffffff1681526020019081526020016000206000828254039250508190555081600660008573ffffffffffffffffffffffffffffffffffffffff1673ffffffffffffffffffffffffffffffffffffffff16815260200190815260200160002060003373ffffffffffffffffffffffffffffffffffffffff1673ffffffffffffffffffffffffffffffffffffffff16815260200190815260200160002060008282540392505081905550816004600082825403925050819055508273ffffffffffffffffffffffffffffffffffffffff167fcc16f5dbb4873280815c1ee09dbd06736cffcc184412cf7a71a0fdb75d397ca5836040518082815260200191505060405180910390a26001905092915050565b600b8054600181600116156101000203166002900480601f0160208091040260200160405190810160405280929190818152602001828054600181600116156101000203166002900480156114525780601f1061142757610100808354040283529160200191611452565b820191906000526020600020905b81548152906001019060200180831161143557829003601f168201915b505050505081565b60085481565b6000809054906101000a900473ffffffffffffffffffffffffffffffffffffffff1681565b60028054600181600116156101000203166002900480601f01602080910402602001604051908101604052809291908181526020018280546001816001161561010002031660029004801561151b5780601f106114f05761010080835404028352916020019161151b565b820191906000526020600020905b8154815290600101906020018083116114fe57829003601f168201915b505050505081565b6000809054906101000a900473ffffffffffffffffffffffffffffffffffffffff1673ffffffffffffffffffffffffffffffffffffffff163373ffffffffffffffffffffffffffffffffffffffff1614151561157e57600080fd5b80600a9080519060200190611594929190611dd0565b5050565b6000600854348115156115a757fe5b0490506115b5303383611abf565b50565b6115c3338383611abf565b5050565b600d6020528060005260406000206000915054906101000a900460ff1681565b6000809054906101000a900473ffffffffffffffffffffffffffffffffffffffff1673ffffffffffffffffffffffffffffffffffffffff163373ffffffffffffffffffffffffffffffffffffffff1614151561164257600080fd5b80600b9080519060200190611658929190611dd0565b5050565b6000809054906101000a900473ffffffffffffffffffffffffffffffffffffffff1673ffffffffffffffffffffffffffffffffffffffff163373ffffffffffffffffffffffffffffffffffffffff161415156116b757600080fd5b6116c88166038d7ea4c68000611d95565b600c8190555050565b6000808490506116e18585610bd5565b1561184b578073ffffffffffffffffffffffffffffffffffffffff16638f4ffcb1338630876040518563ffffffff167c0100000000000000000000000000000000000000000000000000000000028152600401808573ffffffffffffffffffffffffffffffffffffffff1673ffffffffffffffffffffffffffffffffffffffff1681526020018481526020018373ffffffffffffffffffffffffffffffffffffffff1673ffffffffffffffffffffffffffffffffffffffff16815260200180602001828103825283818151815260200191508051906020019080838360005b838110156117db5780820151818401526020810190506117c0565b50505050905090810190601f1680156118085780820380516001836020036101000a031916815260200191505b5095505050505050600060405180830381600087803b15801561182a57600080fd5b505af115801561183e573d6000803e3d6000fd5b505050506001915061184c565b5b509392505050565b6006602052816000526040600020602052806000526040600020600091509150505481565b60075481023073ffffffffffffffffffffffffffffffffffffffff1631101515156118a357600080fd5b6118ae333083611abf565b3373ffffffffffffffffffffffffffffffffffffffff166108fc60075483029081150290604051600060405180830381858888f193505050501580156118f8573d6000803e3d6000fd5b5050565b6000809054906101000a900473ffffffffffffffffffffffffffffffffffffffff1673ffffffffffffffffffffffffffffffffffffffff163373ffffffffffffffffffffffffffffffffffffffff1614151561195757600080fd5b80600d60008473ffffffffffffffffffffffffffffffffffffffff1673ffffffffffffffffffffffffffffffffffffffff16815260200190815260200160002060006101000a81548160ff0219169083151502179055507f48335238b4855f35377ed80f164e8c6f3c366e54ac00b96a6402d4a9814a03a58282604051808373ffffffffffffffffffffffffffffffffffffffff1673ffffffffffffffffffffffffffffffffffffffff168152602001821515151581526020019250505060405180910390a15050565b6000809054906101000a900473ffffffffffffffffffffffffffffffffffffffff1673ffffffffffffffffffffffffffffffffffffffff163373ffffffffffffffffffffffffffffffffffffffff16141515611a7c57600080fd5b806000806101000a81548173ffffffffffffffffffffffffffffffffffffffff021916908373ffffffffffffffffffffffffffffffffffffffff16021790555050565b60008273ffffffffffffffffffffffffffffffffffffffff1614151515611ae557600080fd5b80600560008573ffffffffffffffffffffffffffffffffffffffff1673ffffffffffffffffffffffffffffffffffffffff1681526020019081526020016000205410151515611b3357600080fd5b600560008373ffffffffffffffffffffffffffffffffffffffff1673ffffffffffffffffffffffffffffffffffffffff1681526020019081526020016000205481600560008573ffffffffffffffffffffffffffffffffffffffff1673ffffffffffffffffffffffffffffffffffffffff1681526020019081526020016000205401111515611bc157600080fd5b600d60008473ffffffffffffffffffffffffffffffffffffffff1673ffffffffffffffffffffffffffffffffffffffff16815260200190815260200160002060009054906101000a900460ff16151515611c1a57600080fd5b600d60008373ffffffffffffffffffffffffffffffffffffffff1673ffffffffffffffffffffffffffffffffffffffff16815260200190815260200160002060009054906101000a900460ff16151515611c7357600080fd5b80600560008573ffffffffffffffffffffffffffffffffffffffff1673ffffffffffffffffffffffffffffffffffffffff1681526020019081526020016000206000828254039250508190555080600560008473ffffffffffffffffffffffffffffffffffffffff1673ffffffffffffffffffffffffffffffffffffffff168152602001908152602001600020600082825401925050819055508173ffffffffffffffffffffffffffffffffffffffff168373ffffffffffffffffffffffffffffffffffffffff167fddf252ad1be2c89b69c2b068fc378daa952ba7f163c4a11628f55a4df523b3ef836040518082815260200191505060405180910390a3505050565b6000808284019050838110151515611d8b57fe5b8091505092915050565b6000806000841415611daa5760009150611dc9565b8284029050828482811515611dbb57fe5b04141515611dc557fe5b8091505b5092915050565b828054600181600116156101000203166002900490600052602060002090601f016020900481019282601f10611e1157805160ff1916838001178555611e3f565b82800160010185558215611e3f579182015b82811115611e3e578251825591602001919060010190611e23565b5b509050611e4c9190611e50565b5090565b611e7291905b80821115611e6e576000816000905550600101611e56565b5090565b905600a165627a7a723058206ae523e0b4db55fcf71d8b7d673bc694a2ca1a97c05725d6a739df58645feeb90029",
  "source": "pragma solidity ^0.4.18;\n\ncontract sGuardPlus {\n    constructor() internal {}\n\n    function add_uint256(uint256 a, uint256 b) internal pure returns (uint256) {\n        uint256 c = a + b;\n        assert(c >= a);\n        return c;\n    }\n\n    function mul_uint(uint256 a, uint256 b) internal pure returns (uint256) {\n        if (a == 0) {\n            return 0;\n        }\n        uint256 c = a * b;\n        assert(c / a == b);\n        return c;\n    }\n}\n\ncontract owned {\n    address public owner;\n\n    constructor() public {\n        owner = msg.sender;\n    }\n\n    modifier onlyOwner() {\n        require(msg.sender == owner);\n        _;\n    }\n\n    function transferOwnership(address newOwner) public onlyOwner {\n        owner = newOwner;\n    }\n\n    function destruct() public onlyOwner {\n        selfdestruct(owner);\n    }\n}\n\ninterface tokenRecipient {\n    function receiveApproval(\n        address _from,\n        uint256 _value,\n        address _token,\n        bytes _extraData\n    ) public;\n}\n\ncontract TokenERC20 {\n    string public name;\n    string public symbol;\n    uint8 public decimals = 18;\n    uint256 public totalSupply;\n    mapping(address => uint256) public balanceOf;\n    mapping(address => mapping(address => uint256)) public allowance;\n    event Transfer(address indexed from, address indexed to, uint256 value);\n    event Burn(address indexed from, uint256 value);\n\n    constructor() public {\n        totalSupply = 500000000000 * 10**uint256(decimals);\n        balanceOf[msg.sender] = totalSupply;\n        name = \"Carbon Exchange Coin Token\";\n        symbol = \"CEC\";\n    }\n\n    function _transfer(\n        address _from,\n        address _to,\n        uint256 _value\n    ) internal {\n        require(_to != 0x0);\n        require(balanceOf[_from] >= _value);\n        require(balanceOf[_to] + _value > balanceOf[_to]);\n        uint256 previousBalances = balanceOf[_from] + balanceOf[_to];\n        balanceOf[_from] -= _value;\n        balanceOf[_to] += _value;\n        Transfer(_from, _to, _value);\n        assert(balanceOf[_from] + balanceOf[_to] == previousBalances);\n    }\n\n    function transfer(address _to, uint256 _value) public {\n        _transfer(msg.sender, _to, _value);\n    }\n\n    function transferFrom(\n        address _from,\n        address _to,\n        uint256 _value\n    ) public returns (bool success) {\n        require(_value <= allowance[_from][msg.sender]);\n        allowance[_from][msg.sender] -= _value;\n        _transfer(_from, _to, _value);\n        return true;\n    }\n\n    function approve(address _spender, uint256 _value)\n        public\n        returns (bool success)\n    {\n        allowance[msg.sender][_spender] = _value;\n        return true;\n    }\n\n    function approveAndCall(\n        address _spender,\n        uint256 _value,\n        bytes _extraData\n    ) public returns (bool success) {\n        tokenRecipient spender = tokenRecipient(_spender);\n        if (approve(_spender, _value)) {\n            spender.receiveApproval(msg.sender, _value, this, _extraData);\n            return true;\n        }\n    }\n\n    function burn(uint256 _value) public returns (bool success) {\n        require(balanceOf[msg.sender] >= _value);\n        balanceOf[msg.sender] -= _value;\n        totalSupply -= _value;\n        Burn(msg.sender, _value);\n        return true;\n    }\n\n    function burnFrom(address _from, uint256 _value)\n        public\n        returns (bool success)\n    {\n        require(balanceOf[_from] >= _value);\n        require(_value <= allowance[_from][msg.sender]);\n        balanceOf[_from] -= _value;\n        allowance[_from][msg.sender] -= _value;\n        totalSupply -= _value;\n        Burn(_from, _value);\n        return true;\n    }\n}\n\ncontract CarbonExchangeCoinToken is sGuardPlus, owned, TokenERC20 {\n    uint256 public sellPrice;\n    uint256 public buyPrice;\n    uint256 public decimals = 18;\n    string public tokenName;\n    string public tokenSymbol;\n    uint256 minBalanceForAccounts;\n    mapping(address => bool) public frozenAccount;\n    event FrozenFunds(address target, bool frozen);\n\n    constructor() public {\n        owner = msg.sender;\n        totalSupply = 50000000000000000000000000000;\n        balanceOf[owner] = totalSupply;\n        tokenName = \"Carbon Exchange Coin Token\";\n        tokenSymbol = \"CEC\";\n    }\n\n    function _transfer(\n        address _from,\n        address _to,\n        uint256 _value\n    ) internal {\n        require(_to != 0x0);\n        require(balanceOf[_from] >= _value);\n        require(balanceOf[_to] + _value > balanceOf[_to]);\n        require(!frozenAccount[_from]);\n        require(!frozenAccount[_to]);\n        balanceOf[_from] -= _value;\n        balanceOf[_to] += _value;\n        Transfer(_from, _to, _value);\n    }\n\n    function mintToken(address target, uint256 mintedAmount) public onlyOwner {\n        balanceOf[target] = add_uint256(balanceOf[target], mintedAmount);\n        totalSupply = add_uint256(totalSupply, mintedAmount);\n        Transfer(0, this, mintedAmount);\n        Transfer(this, target, mintedAmount);\n    }\n\n    function freezeAccount(address target, bool freeze) public onlyOwner {\n        frozenAccount[target] = freeze;\n        FrozenFunds(target, freeze);\n    }\n\n    function setPrices(uint256 newSellPrice, uint256 newBuyPrice)\n        public\n        onlyOwner\n    {\n        sellPrice = newSellPrice;\n        buyPrice = newBuyPrice;\n    }\n\n    function buy() public payable {\n        uint256 amount = msg.value / buyPrice;\n        _transfer(this, msg.sender, amount);\n    }\n\n    function sell(uint256 amount) public {\n        require(this.balance >= amount * sellPrice);\n        _transfer(msg.sender, this, amount);\n        msg.sender.transfer(amount * sellPrice);\n    }\n\n    function setMinBalance(uint256 minimumBalanceInFinney) public onlyOwner {\n        minBalanceForAccounts = mul_uint(minimumBalanceInFinney, 1 finney);\n    }\n\n    function setTokenName(string newTokenName) public onlyOwner {\n        tokenName = newTokenName;\n    }\n\n    function setTokenSymbol(string newTokenSymbol) public onlyOwner {\n        tokenSymbol = newTokenSymbol;\n    }\n}\n",
  "sourcePath": "/workdir/truffle_example/after/0x0Eb152d2bba8aF722D7E296A1F223d819C3bbB1f/contracts/0x0Eb152d2bba8aF722D7E296A1F223d819C3bbB1f.sol.fixed.sol",
  "compiler": {
    "name": "solc",
    "version": "0.4.25+commit.59dbf8f1.Emscripten.clang"
  },
  "schemaVersion": "3.4.8",
  "updatedAt": "2022-08-12T11:56:32.760Z",
  "networkType": "ethereum",
  "devdoc": {
    "methods": {}
  },
  "userdoc": {
    "methods": {}
  }
}