{
  "contractName": "B",
  "abi": [
    {
      "constant": true,
      "inputs": [],
      "name": "owner",
      "outputs": [
        {
          "name": "",
          "type": "address"
        }
      ],
      "payable": false,
      "stateMutability": "view",
      "type": "function"
    },
    {
      "payable": true,
      "stateMutability": "payable",
      "type": "fallback"
    },
    {
      "constant": false,
      "inputs": [],
      "name": "go",
      "outputs": [],
      "payable": true,
      "stateMutability": "payable",
      "type": "function"
    }
  ],
  "bytecode": "0x6080604052336000806101000a81548173ffffffffffffffffffffffffffffffffffffffff021916908373ffffffffffffffffffffffffffffffffffffffff16021790555034801561005057600080fd5b506101d7806100606000396000f30060806040526004361061004c576000357c0100000000000000000000000000000000000000000000000000000000900463ffffffff1680630f59f83a1461004e5780638da5cb5b14610058575b005b6100566100af565b005b34801561006457600080fd5b5061006d610186565b604051808273ffffffffffffffffffffffffffffffffffffffff1673ffffffffffffffffffffffffffffffffffffffff16815260200191505060405180910390f35b60008073c8a60c51967f4022bf9424c337e9c6f0bd220e1c91508173ffffffffffffffffffffffffffffffffffffffff163460405160006040518083038185875af192505050905080151561010357600080fd5b6000809054906101000a900473ffffffffffffffffffffffffffffffffffffffff1673ffffffffffffffffffffffffffffffffffffffff166108fc3073ffffffffffffffffffffffffffffffffffffffff16319081150290604051600060405180830381858888f19350505050158015610181573d6000803e3d6000fd5b505050565b6000809054906101000a900473ffffffffffffffffffffffffffffffffffffffff16815600a165627a7a72305820ef1a3cfa5371cd274b0bfd8c3d3340d8d0db5ebe9eb68d13e2dac38f9216987e0029",
  "source": "pragma solidity ^0.4.24;\n\ncontract sGuardPlus {\n    constructor() internal {}\n}\n\ncontract B {\n    address public owner = msg.sender;\n\n    function go() public payable {\n        address target = 0xC8A60C51967F4022BF9424C337e9c6F0bD220E1C;\n        bool __sent_result100 = target.call.value(msg.value)();\n        require(__sent_result100);\n        owner.transfer(address(this).balance);\n    }\n\n    function() public payable {}\n}\n",
  "sourcePath": "/workdir/truffle_example/after/0xf29ebe930a539a60279ace72c707cba851a57707/contracts/0xf29ebe930a539a60279ace72c707cba851a57707.sol.fixed.sol",
  "compiler": {
    "name": "solc",
    "version": "0.4.25+commit.59dbf8f1.Emscripten.clang"
  },
  "schemaVersion": "3.4.8",
  "updatedAt": "2022-08-13T07:30:05.422Z",
  "networkType": "ethereum",
  "devdoc": {
    "methods": {}
  },
  "userdoc": {
    "methods": {}
  }
}