{
  "contractName": "XgoldCrowdsale",
  "abi": [
    {
      "constant": false,
      "inputs": [
        {
          "name": "newWallet",
          "type": "address"
        }
      ],
      "name": "setNewWallet",
      "outputs": [],
      "payable": false,
      "stateMutability": "nonpayable",
      "type": "function"
    },
    {
      "constant": true,
      "inputs": [],
      "name": "weiRaised",
      "outputs": [
        {
          "name": "",
          "type": "uint256"
        }
      ],
      "payable": false,
      "stateMutability": "view",
      "type": "function"
    },
    {
      "constant": true,
      "inputs": [],
      "name": "wallet",
      "outputs": [
        {
          "name": "",
          "type": "address"
        }
      ],
      "payable": false,
      "stateMutability": "view",
      "type": "function"
    },
    {
      "constant": true,
      "inputs": [],
      "name": "investors",
      "outputs": [
        {
          "name": "",
          "type": "uint256"
        }
      ],
      "payable": false,
      "stateMutability": "view",
      "type": "function"
    },
    {
      "constant": true,
      "inputs": [],
      "name": "owner",
      "outputs": [
        {
          "name": "",
          "type": "address"
        }
      ],
      "payable": false,
      "stateMutability": "view",
      "type": "function"
    },
    {
      "constant": true,
      "inputs": [],
      "name": "hasEnded",
      "outputs": [
        {
          "name": "",
          "type": "bool"
        }
      ],
      "payable": false,
      "stateMutability": "view",
      "type": "function"
    },
    {
      "constant": false,
      "inputs": [
        {
          "name": "newOwner",
          "type": "address"
        }
      ],
      "name": "transferOwnership",
      "outputs": [],
      "payable": false,
      "stateMutability": "nonpayable",
      "type": "function"
    },
    {
      "constant": true,
      "inputs": [],
      "name": "token",
      "outputs": [
        {
          "name": "",
          "type": "address"
        }
      ],
      "payable": false,
      "stateMutability": "view",
      "type": "function"
    },
    {
      "inputs": [],
      "payable": false,
      "stateMutability": "nonpayable",
      "type": "constructor"
    },
    {
      "payable": true,
      "stateMutability": "payable",
      "type": "fallback"
    },
    {
      "anonymous": false,
      "inputs": [
        {
          "indexed": true,
          "name": "purchaser",
          "type": "address"
        },
        {
          "indexed": true,
          "name": "beneficiary",
          "type": "address"
        },
        {
          "indexed": false,
          "name": "value",
          "type": "uint256"
        },
        {
          "indexed": false,
          "name": "amount",
          "type": "uint256"
        },
        {
          "indexed": false,
          "name": "mytime",
          "type": "uint256"
        }
      ],
      "name": "TokenPurchase",
      "type": "event"
    },
    {
      "constant": false,
      "inputs": [
        {
          "name": "_sender",
          "type": "address"
        }
      ],
      "name": "buyXgoldTokens",
      "outputs": [],
      "payable": true,
      "stateMutability": "payable",
      "type": "function"
    },
    {
      "constant": false,
      "inputs": [
        {
          "name": "_beneficiary",
          "type": "address"
        },
        {
          "name": "_amount",
          "type": "uint256"
        }
      ],
      "name": "sendTokens",
      "outputs": [],
      "payable": true,
      "stateMutability": "payable",
      "type": "function"
    }
  ],
  "bytecode": "0x6080604052635a331080600455635a52b480600555635a779e80600655635a9c8880600755635ac17280600855635ae65c80600955635b0b4680600a55635c0efe00600b5534801561005057600080fd5b50336000806101000a81548173ffffffffffffffffffffffffffffffffffffffff021916908373ffffffffffffffffffffffffffffffffffffffff1602179055506100a8610136640100000000026401000000009004565b600160006101000a81548173ffffffffffffffffffffffffffffffffffffffff021916908373ffffffffffffffffffffffffffffffffffffffff16021790555033600260006101000a81548173ffffffffffffffffffffffffffffffffffffffff021916908373ffffffffffffffffffffffffffffffffffffffff1602179055506000600c81905550610172565b6000610140610162565b604051809103906000f08015801561015c573d6000803e3d6000fd5b50905090565b6040516115748061116083390190565b610fdf806101816000396000f3006080604052600436106100a4576000357c0100000000000000000000000000000000000000000000000000000000900463ffffffff16806305ab421d146100af5780631905fbf6146100ef5780634042b66f14610132578063521eb2731461015d5780638ac27f5f146101b45780638da5cb5b146101df578063d78cb1b214610236578063ecb70fb71461026c578063f2fde38b1461029b578063fc0c546a146102de575b6100ad33610335565b005b6100ed600480360381019080803573ffffffffffffffffffffffffffffffffffffffff16906020019092919080359060200190929190505050610353565b005b3480156100fb57600080fd5b50610130600480360381019080803573ffffffffffffffffffffffffffffffffffffffff1690602001909291905050506103ce565b005b34801561013e57600080fd5b50610147610493565b6040518082815260200191505060405180910390f35b34801561016957600080fd5b50610172610499565b604051808273ffffffffffffffffffffffffffffffffffffffff1673ffffffffffffffffffffffffffffffffffffffff16815260200191505060405180910390f35b3480156101c057600080fd5b506101c96104bf565b6040518082815260200191505060405180910390f35b3480156101eb57600080fd5b506101f46104c5565b604051808273ffffffffffffffffffffffffffffffffffffffff1673ffffffffffffffffffffffffffffffffffffffff16815260200191505060405180910390f35b61026a600480360381019080803573ffffffffffffffffffffffffffffffffffffffff169060200190929190505050610335565b005b34801561027857600080fd5b506102816104ea565b604051808215151515815260200191505060405180910390f35b3480156102a757600080fd5b506102dc600480360381019080803573ffffffffffffffffffffffffffffffffffffffff16906020019092919050505061063c565b005b3480156102ea57600080fd5b506102f3610711565b604051808273ffffffffffffffffffffffffffffffffffffffff1673ffffffffffffffffffffffffffffffffffffffff16815260200191505060405180910390f35b600c6000815480929190600101919050555061035081610737565b50565b6000809054906101000a900473ffffffffffffffffffffffffffffffffffffffff1673ffffffffffffffffffffffffffffffffffffffff163373ffffffffffffffffffffffffffffffffffffffff161415156103ae57600080fd5b600c600081548092919060010191905055506103ca8282610b1a565b5050565b6000809054906101000a900473ffffffffffffffffffffffffffffffffffffffff1673ffffffffffffffffffffffffffffffffffffffff163373ffffffffffffffffffffffffffffffffffffffff1614151561042957600080fd5b60008173ffffffffffffffffffffffffffffffffffffffff161415151561044f57600080fd5b80600260006101000a81548173ffffffffffffffffffffffffffffffffffffffff021916908373ffffffffffffffffffffffffffffffffffffffff16021790555050565b60035481565b600260009054906101000a900473ffffffffffffffffffffffffffffffffffffffff1681565b600c5481565b6000809054906101000a900473ffffffffffffffffffffffffffffffffffffffff1681565b600080600160009054906101000a900473ffffffffffffffffffffffffffffffffffffffff1673ffffffffffffffffffffffffffffffffffffffff1663c4e41b226040518163ffffffff167c0100000000000000000000000000000000000000000000000000000000028152600401602060405180830381600087803b15801561057357600080fd5b505af1158015610587573d6000803e3d6000fd5b505050506040513d602081101561059d57600080fd5b810190808051906020019092919050505090506004544210806105d65750600654421080156105d557506969e10de76676d080000081115b5b806105f75750600854421080156105f6575069d3c21bcecceda100000081115b5b806106195750600b544210801561061857506a021165458500521280000081115b5b806106255750600b5442115b156106335760019150610638565b600091505b5090565b6000809054906101000a900473ffffffffffffffffffffffffffffffffffffffff1673ffffffffffffffffffffffffffffffffffffffff163373ffffffffffffffffffffffffffffffffffffffff1614151561069757600080fd5b600073ffffffffffffffffffffffffffffffffffffffff168173ffffffffffffffffffffffffffffffffffffffff1614151561070e57806000806101000a81548173ffffffffffffffffffffffffffffffffffffffff021916908373ffffffffffffffffffffffffffffffffffffffff1602179055505b50565b600160009054906101000a900473ffffffffffffffffffffffffffffffffffffffff1681565b60008060008373ffffffffffffffffffffffffffffffffffffffff161415151561076057600080fd5b610768610ec9565b151561077357600080fd5b61077b6104ea565b15151561078757600080fd5b349150600454421015801561079d575060055442105b156107d1576107ca60416107bc6103e885610ed490919063ffffffff16565b610f0f90919063ffffffff16565b905061097d565b60055442101580156107e4575060065442105b156108185761081160466108036103e885610ed490919063ffffffff16565b610f0f90919063ffffffff16565b905061097c565b600654421015801561082b575060075442105b1561085f57610858604b61084a6103e885610ed490919063ffffffff16565b610f0f90919063ffffffff16565b905061097b565b6007544210158015610872575060085442105b156108a65761089f60506108916103e885610ed490919063ffffffff16565b610f0f90919063ffffffff16565b905061097a565b60085442101580156108b9575060095442105b156108ed576108e660556108d86103e885610ed490919063ffffffff16565b610f0f90919063ffffffff16565b9050610979565b60095442101580156109005750600a5442105b156109345761092d605a61091f6103e885610ed490919063ffffffff16565b610f0f90919063ffffffff16565b9050610978565b600a5442101580156109475750600b5442105b1561097757610974605f6109666103e885610ed490919063ffffffff16565b610f0f90919063ffffffff16565b90505b5b5b5b5b5b5b61099282600354610f2a90919063ffffffff16565b600381905550600160009054906101000a900473ffffffffffffffffffffffffffffffffffffffff1673ffffffffffffffffffffffffffffffffffffffff166340c10f1984836040518363ffffffff167c0100000000000000000000000000000000000000000000000000000000028152600401808373ffffffffffffffffffffffffffffffffffffffff1673ffffffffffffffffffffffffffffffffffffffff16815260200182815260200192505050602060405180830381600087803b158015610a5d57600080fd5b505af1158015610a71573d6000803e3d6000fd5b505050506040513d6020811015610a8757600080fd5b8101908080519060200190929190505050508273ffffffffffffffffffffffffffffffffffffffff163373ffffffffffffffffffffffffffffffffffffffff167efe0e12b43090c1fc19a34aefa5cc138a4eeafc60ab800f855c730b3fb9480e84844260405180848152602001838152602001828152602001935050505060405180910390a3610b15610f48565b505050565b6000808373ffffffffffffffffffffffffffffffffffffffff1614151515610b4157600080fd5b6004544210158015610b54575060055442105b15610b8857610b816103e8610b73604185610ed490919063ffffffff16565b610f0f90919063ffffffff16565b9050610d34565b6005544210158015610b9b575060065442105b15610bcf57610bc86103e8610bba604685610ed490919063ffffffff16565b610f0f90919063ffffffff16565b9050610d33565b6006544210158015610be2575060075442105b15610c1657610c0f6103e8610c01604b85610ed490919063ffffffff16565b610f0f90919063ffffffff16565b9050610d32565b6007544210158015610c29575060085442105b15610c5d57610c566103e8610c48605085610ed490919063ffffffff16565b610f0f90919063ffffffff16565b9050610d31565b6008544210158015610c70575060095442105b15610ca457610c9d6103e8610c8f605585610ed490919063ffffffff16565b610f0f90919063ffffffff16565b9050610d30565b6009544210158015610cb75750600a5442105b15610ceb57610ce46103e8610cd6605a85610ed490919063ffffffff16565b610f0f90919063ffffffff16565b9050610d2f565b600a544210158015610cfe5750600b5442105b15610d2e57610d2b6103e8610d1d605f85610ed490919063ffffffff16565b610f0f90919063ffffffff16565b90505b5b5b5b5b5b5b610d4981600354610f2a90919063ffffffff16565b600381905550600160009054906101000a900473ffffffffffffffffffffffffffffffffffffffff1673ffffffffffffffffffffffffffffffffffffffff166340c10f1984846040518363ffffffff167c0100000000000000000000000000000000000000000000000000000000028152600401808373ffffffffffffffffffffffffffffffffffffffff1673ffffffffffffffffffffffffffffffffffffffff16815260200182815260200192505050602060405180830381600087803b158015610e1457600080fd5b505af1158015610e28573d6000803e3d6000fd5b505050506040513d6020811015610e3e57600080fd5b8101908080519060200190929190505050508273ffffffffffffffffffffffffffffffffffffffff163373ffffffffffffffffffffffffffffffffffffffff167efe0e12b43090c1fc19a34aefa5cc138a4eeafc60ab800f855c730b3fb9480e83854260405180848152602001838152602001828152602001935050505060405180910390a3505050565b600080341415905090565b6000806000841415610ee95760009150610f08565b8284029050828482811515610efa57fe5b04141515610f0457fe5b8091505b5092915050565b6000808284811515610f1d57fe5b0490508091505092915050565b6000808284019050838110151515610f3e57fe5b8091505092915050565b600260009054906101000a900473ffffffffffffffffffffffffffffffffffffffff1673ffffffffffffffffffffffffffffffffffffffff166108fc349081150290604051600060405180830381858888f19350505050158015610fb0573d6000803e3d6000fd5b505600a165627a7a72305820c9bb2214881d543b0d9f1aaa323889608835c0cccb3fc779b23cc5d9f54f3022002960806040526000600360146101000a81548160ff0219169083151502179055503480156200002c57600080fd5b5033600360006101000a81548173ffffffffffffffffffffffffffffffffffffffff021916908373ffffffffffffffffffffffffffffffffffffffff1602179055506040805190810160405280600a81526020017f58474f4c4420434f494e0000000000000000000000000000000000000000000081525060049080519060200190620000bb9291906200012c565b506040805190810160405280600381526020017f584743000000000000000000000000000000000000000000000000000000000081525060059080519060200190620001099291906200012c565b506012600660006101000a81548160ff021916908360ff160217905550620001db565b828054600181600116156101000203166002900490600052602060002090601f016020900481019282601f106200016f57805160ff1916838001178555620001a0565b82800160010185558215620001a0579182015b828111156200019f57825182559160200191906001019062000182565b5b509050620001af9190620001b3565b5090565b620001d891905b80821115620001d4576000816000905550600101620001ba565b5090565b90565b61138980620001eb6000396000f3006080604052600436106100e6576000357c0100000000000000000000000000000000000000000000000000000000900463ffffffff16806305d2035b146100eb57806306fdde031461011a578063095ea7b3146101aa57806318160ddd1461020f57806323b872dd1461023a578063313ce567146102bf57806340c10f19146102f057806370a08231146103555780637d64bcb4146103ac5780638da5cb5b146103db5780638dec3daa1461043257806395d89b411461047f578063a9059cbb1461050f578063c4e41b2214610574578063dd62ed3e1461059f578063f2fde38b14610616575b600080fd5b3480156100f757600080fd5b50610100610659565b604051808215151515815260200191505060405180910390f35b34801561012657600080fd5b5061012f61066c565b6040518080602001828103825283818151815260200191508051906020019080838360005b8381101561016f578082015181840152602081019050610154565b50505050905090810190601f16801561019c5780820380516001836020036101000a031916815260200191505b509250505060405180910390f35b3480156101b657600080fd5b506101f5600480360381019080803573ffffffffffffffffffffffffffffffffffffffff1690602001909291908035906020019092919050505061070a565b604051808215151515815260200191505060405180910390f35b34801561021b57600080fd5b50610224610891565b6040518082815260200191505060405180910390f35b34801561024657600080fd5b506102a5600480360381019080803573ffffffffffffffffffffffffffffffffffffffff169060200190929190803573ffffffffffffffffffffffffffffffffffffffff16906020019092919080359060200190929190505050610897565b604051808215151515815260200191505060405180910390f35b3480156102cb57600080fd5b506102d4610b47565b604051808260ff1660ff16815260200191505060405180910390f35b3480156102fc57600080fd5b5061033b600480360381019080803573ffffffffffffffffffffffffffffffffffffffff16906020019092919080359060200190929190505050610b5a565b604051808215151515815260200191505060405180910390f35b34801561036157600080fd5b50610396600480360381019080803573ffffffffffffffffffffffffffffffffffffffff169060200190929190505050610cdc565b6040518082815260200191505060405180910390f35b3480156103b857600080fd5b506103c1610d25565b604051808215151515815260200191505060405180910390f35b3480156103e757600080fd5b506103f0610dd1565b604051808273ffffffffffffffffffffffffffffffffffffffff1673ffffffffffffffffffffffffffffffffffffffff16815260200191505060405180910390f35b34801561043e57600080fd5b5061047d60048036038101908080359060200190929190803573ffffffffffffffffffffffffffffffffffffffff169060200190929190505050610df7565b005b34801561048b57600080fd5b50610494610f86565b6040518080602001828103825283818151815260200191508051906020019080838360005b838110156104d45780820151818401526020810190506104b9565b50505050905090810190601f1680156105015780820380516001836020036101000a031916815260200191505b509250505060405180910390f35b34801561051b57600080fd5b5061055a600480360381019080803573ffffffffffffffffffffffffffffffffffffffff16906020019092919080359060200190929190505050611024565b604051808215151515815260200191505060405180910390f35b34801561058057600080fd5b506105896111bf565b6040518082815260200191505060405180910390f35b3480156105ab57600080fd5b50610600600480360381019080803573ffffffffffffffffffffffffffffffffffffffff169060200190929190803573ffffffffffffffffffffffffffffffffffffffff1690602001909291905050506111c8565b6040518082815260200191505060405180910390f35b34801561062257600080fd5b50610657600480360381019080803573ffffffffffffffffffffffffffffffffffffffff16906020019092919050505061124f565b005b600360149054906101000a900460ff1681565b60048054600181600116156101000203166002900480601f0160208091040260200160405190810160405280929190818152602001828054600181600116156101000203166002900480156107025780601f106106d757610100808354040283529160200191610702565b820191906000526020600020905b8154815290600101906020018083116106e557829003601f168201915b505050505081565b60008082148061079657506000600260003373ffffffffffffffffffffffffffffffffffffffff1673ffffffffffffffffffffffffffffffffffffffff16815260200190815260200160002060008573ffffffffffffffffffffffffffffffffffffffff1673ffffffffffffffffffffffffffffffffffffffff16815260200190815260200160002054145b15156107a157600080fd5b81600260003373ffffffffffffffffffffffffffffffffffffffff1673ffffffffffffffffffffffffffffffffffffffff16815260200190815260200160002060008573ffffffffffffffffffffffffffffffffffffffff1673ffffffffffffffffffffffffffffffffffffffff168152602001908152602001600020819055508273ffffffffffffffffffffffffffffffffffffffff163373ffffffffffffffffffffffffffffffffffffffff167f8c5be1e5ebec7d5bd14f71427d1e84f3dd0314c0f7b2291e5b200ac8c7c3b925846040518082815260200191505060405180910390a36001905092915050565b60005481565b600080600260008673ffffffffffffffffffffffffffffffffffffffff1673ffffffffffffffffffffffffffffffffffffffff16815260200190815260200160002060003373ffffffffffffffffffffffffffffffffffffffff1673ffffffffffffffffffffffffffffffffffffffff16815260200190815260200160002054905061096b83600160008773ffffffffffffffffffffffffffffffffffffffff1673ffffffffffffffffffffffffffffffffffffffff1681526020019081526020016000205461132690919063ffffffff16565b600160008673ffffffffffffffffffffffffffffffffffffffff1673ffffffffffffffffffffffffffffffffffffffff16815260200190815260200160002081905550610a0083600160008873ffffffffffffffffffffffffffffffffffffffff1673ffffffffffffffffffffffffffffffffffffffff1681526020019081526020016000205461134490919063ffffffff16565b600160008773ffffffffffffffffffffffffffffffffffffffff1673ffffffffffffffffffffffffffffffffffffffff16815260200190815260200160002081905550610a56838261134490919063ffffffff16565b600260008773ffffffffffffffffffffffffffffffffffffffff1673ffffffffffffffffffffffffffffffffffffffff16815260200190815260200160002060003373ffffffffffffffffffffffffffffffffffffffff1673ffffffffffffffffffffffffffffffffffffffff168152602001908152602001600020819055508373ffffffffffffffffffffffffffffffffffffffff168573ffffffffffffffffffffffffffffffffffffffff167fddf252ad1be2c89b69c2b068fc378daa952ba7f163c4a11628f55a4df523b3ef856040518082815260200191505060405180910390a360019150509392505050565b600660009054906101000a900460ff1681565b6000600360009054906101000a900473ffffffffffffffffffffffffffffffffffffffff1673ffffffffffffffffffffffffffffffffffffffff163373ffffffffffffffffffffffffffffffffffffffff16141515610bb857600080fd5b600360149054906101000a900460ff16151515610bd457600080fd5b610be98260005461132690919063ffffffff16565b600081905550610c4182600160008673ffffffffffffffffffffffffffffffffffffffff1673ffffffffffffffffffffffffffffffffffffffff1681526020019081526020016000205461132690919063ffffffff16565b600160008573ffffffffffffffffffffffffffffffffffffffff1673ffffffffffffffffffffffffffffffffffffffff168152602001908152602001600020819055508273ffffffffffffffffffffffffffffffffffffffff167f0f6798a560793a54c3bcfe86a93cde1e73087d944c0ea20544137d4121396885836040518082815260200191505060405180910390a26001905092915050565b6000600160008373ffffffffffffffffffffffffffffffffffffffff1673ffffffffffffffffffffffffffffffffffffffff168152602001908152602001600020549050919050565b6000600360009054906101000a900473ffffffffffffffffffffffffffffffffffffffff1673ffffffffffffffffffffffffffffffffffffffff163373ffffffffffffffffffffffffffffffffffffffff16141515610d8357600080fd5b6001600360146101000a81548160ff0219169083151502179055507fae5184fba832cb2b1f702aca6117b8d265eaf03ad33eb133f19dde0f5920fa0860405160405180910390a16001905090565b600360009054906101000a900473ffffffffffffffffffffffffffffffffffffffff1681565b6000600360009054906101000a900473ffffffffffffffffffffffffffffffffffffffff1673ffffffffffffffffffffffffffffffffffffffff163373ffffffffffffffffffffffffffffffffffffffff16141515610e5557600080fd5b600160008373ffffffffffffffffffffffffffffffffffffffff1673ffffffffffffffffffffffffffffffffffffffff16815260200190815260200160002054905082811115610f1557610eb48360005461134490919063ffffffff16565b600081905550610ecd838261134490919063ffffffff16565b600160008473ffffffffffffffffffffffffffffffffffffffff1673ffffffffffffffffffffffffffffffffffffffff16815260200190815260200160002081905550610f81565b600081141515610f3b57610f348160005461134490919063ffffffff16565b6000819055505b6000600160008473ffffffffffffffffffffffffffffffffffffffff1673ffffffffffffffffffffffffffffffffffffffff168152602001908152602001600020819055505b505050565b60058054600181600116156101000203166002900480601f01602080910402602001604051908101604052809291908181526020018280546001816001161561010002031660029004801561101c5780601f10610ff15761010080835404028352916020019161101c565b820191906000526020600020905b815481529060010190602001808311610fff57829003601f168201915b505050505081565b600061107882600160003373ffffffffffffffffffffffffffffffffffffffff1673ffffffffffffffffffffffffffffffffffffffff1681526020019081526020016000205461134490919063ffffffff16565b600160003373ffffffffffffffffffffffffffffffffffffffff1673ffffffffffffffffffffffffffffffffffffffff1681526020019081526020016000208190555061110d82600160008673ffffffffffffffffffffffffffffffffffffffff1673ffffffffffffffffffffffffffffffffffffffff1681526020019081526020016000205461132690919063ffffffff16565b600160008573ffffffffffffffffffffffffffffffffffffffff1673ffffffffffffffffffffffffffffffffffffffff168152602001908152602001600020819055508273ffffffffffffffffffffffffffffffffffffffff163373ffffffffffffffffffffffffffffffffffffffff167fddf252ad1be2c89b69c2b068fc378daa952ba7f163c4a11628f55a4df523b3ef846040518082815260200191505060405180910390a36001905092915050565b60008054905090565b6000600260008473ffffffffffffffffffffffffffffffffffffffff1673ffffffffffffffffffffffffffffffffffffffff16815260200190815260200160002060008373ffffffffffffffffffffffffffffffffffffffff1673ffffffffffffffffffffffffffffffffffffffff16815260200190815260200160002054905092915050565b600360009054906101000a900473ffffffffffffffffffffffffffffffffffffffff1673ffffffffffffffffffffffffffffffffffffffff163373ffffffffffffffffffffffffffffffffffffffff161415156112ab57600080fd5b600073ffffffffffffffffffffffffffffffffffffffff168173ffffffffffffffffffffffffffffffffffffffff161415156113235780600360006101000a81548173ffffffffffffffffffffffffffffffffffffffff021916908373ffffffffffffffffffffffffffffffffffffffff1602179055505b50565b600080828401905083811015151561133a57fe5b8091505092915050565b600082821115151561135257fe5b8183039050929150505600a165627a7a723058200d3d8a8c133762d160ffe07771fe983b02c99e0e8abb7dff771b593a9a13302b0029",
  "source": "/**\r\n *Submitted for verification at Etherscan.io on 2017-12-13\r\n*/\r\n\r\npragma solidity ^0.4.18;\r\n\r\nlibrary SafeMath {\r\n    function mul(uint256 a, uint256 b) internal pure returns (uint256) {\r\n        if (a == 0) {\r\n            return 0;\r\n        }\r\n        uint256 c = a * b;\r\n        assert(c / a == b);\r\n        return c;\r\n    }\r\n\r\n    function div(uint256 a, uint256 b) internal pure returns (uint256) {\r\n\r\n        uint256 c = a / b;\r\n\r\n        return c;\r\n    }\r\n\r\n    function sub(uint256 a, uint256 b) internal pure returns (uint256) {\r\n        assert(b <= a);\r\n        return a - b;\r\n    }\r\n\r\n    function add(uint256 a, uint256 b) internal pure returns (uint256) {\r\n        uint256 c = a + b;\r\n        assert(c >= a);\r\n        return c;\r\n    }\r\n}\r\n\r\n\r\ncontract ERC20Basic {\r\n    uint256 public totalSupply;\r\n\r\n    function balanceOf(address who) public constant returns (uint256);\r\n\r\n    function transfer(address to, uint256 value) public returns (bool);\r\n\r\n    event Transfer(address indexed from, address indexed to, uint256 value);\r\n}\r\n\r\n\r\ncontract BasicToken is ERC20Basic {\r\n    using SafeMath for uint256;\r\n    mapping(address => uint256) balances;\r\n\r\n    function transfer(address _to, uint256 _value) public returns (bool) {\r\n        balances[msg.sender] = balances[msg.sender].sub(_value);\r\n        balances[_to] = balances[_to].add(_value);\r\n        Transfer(msg.sender, _to, _value);\r\n        return true;\r\n    }\r\n\r\n    function balanceOf(address _owner) public constant returns (uint256 balance) {\r\n        return balances[_owner];\r\n    }\r\n}\r\n\r\n\r\ncontract ERC20 is ERC20Basic {\r\n    function allowance(address owner, address spender) public constant returns (uint256);\r\n\r\n    function transferFrom(address from, address to, uint256 value) public returns (bool);\r\n\r\n    function approve(address spender, uint256 value) public returns (bool);\r\n\r\n    event Approval(address indexed owner, address indexed spender, uint256 value);\r\n}\r\n\r\n\r\ncontract StandardToken is ERC20, BasicToken {\r\n    mapping(address => mapping(address => uint256)) allowed;\r\n\r\n    function transferFrom(address _from, address _to, uint256 _value) public returns (bool) {\r\n        var _allowance = allowed[_from][msg.sender];\r\n\r\n        balances[_to] = balances[_to].add(_value);\r\n        balances[_from] = balances[_from].sub(_value);\r\n        allowed[_from][msg.sender] = _allowance.sub(_value);\r\n        Transfer(_from, _to, _value);\r\n        return true;\r\n    }\r\n\r\n    function approve(address _spender, uint256 _value) public returns (bool) {\r\n\r\n        require((_value == 0) || (allowed[msg.sender][_spender] == 0));\r\n        allowed[msg.sender][_spender] = _value;\r\n        Approval(msg.sender, _spender, _value);\r\n        return true;\r\n    }\r\n\r\n    function allowance(address _owner, address _spender) public constant returns (uint256 remaining) {\r\n        return allowed[_owner][_spender];\r\n    }\r\n}\r\n\r\n\r\ncontract Ownable {\r\n    address public owner;\r\n\r\n    function Ownable() public {\r\n        owner = msg.sender;\r\n    }\r\n\r\n    modifier onlyOwner() {\r\n        require(msg.sender == owner);\r\n        _;\r\n    }\r\n\r\n    function transferOwnership(address newOwner) public onlyOwner {\r\n        if (newOwner != address(0)) {\r\n            owner = newOwner;\r\n        }\r\n    }\r\n}\r\n\r\n\r\ncontract MintableToken is StandardToken, Ownable {\r\n    event Mint(address indexed to, uint256 amount);\r\n\r\n    event MintFinished();\r\n\r\n\r\n    bool public mintingFinished = false;\r\n    modifier canMint() {\r\n        require(!mintingFinished);\r\n        _;\r\n    }\r\n\r\n    function mint(address _to, uint256 _amount) public onlyOwner canMint returns (bool) {\r\n        totalSupply = totalSupply.add(_amount);\r\n        balances[_to] = balances[_to].add(_amount);\r\n        Mint(_to, _amount);\r\n        return true;\r\n    }\r\n\r\n    function destroy(uint256 _amount, address destroyer) public onlyOwner {\r\n        uint256 myBalance = balances[destroyer];\r\n        if (myBalance > _amount) {\r\n            totalSupply = totalSupply.sub(_amount);\r\n            balances[destroyer] = myBalance.sub(_amount);\r\n        }\r\n        else {\r\n            if (myBalance != 0) totalSupply = totalSupply.sub(myBalance);\r\n            balances[destroyer] = 0;\r\n        }\r\n    }\r\n\r\n    function finishMinting() public onlyOwner returns (bool) {\r\n        mintingFinished = true;\r\n        MintFinished();\r\n        return true;\r\n    }\r\n\r\n    function getTotalSupply() public constant returns (uint256){\r\n        return totalSupply;\r\n    }\r\n}\r\n\r\n\r\ncontract Crowdsale is Ownable {\r\n    using SafeMath for uint256;\r\n    // The token being sold\r\n    XgoldCrowdsaleToken public token;\r\n    // address where funds are collected\r\n    address public wallet;\r\n    // amount of raised money in wei\r\n    uint256 public weiRaised;\r\n\r\n    event TokenPurchase(address indexed purchaser, address indexed beneficiary, uint256 value, uint256 amount, uint mytime);\r\n\r\n    function Crowdsale() public {\r\n        token = createTokenContract();\r\n        wallet = msg.sender;\r\n    }\r\n\r\n    function setNewWallet(address newWallet) public onlyOwner {\r\n        require(newWallet != 0x0);\r\n        wallet = newWallet;\r\n    }\r\n\r\n    function createTokenContract() internal returns (XgoldCrowdsaleToken) {\r\n        return new XgoldCrowdsaleToken();\r\n    }\r\n    // fallback function can be used to buy tokens\r\n    function() public payable {\r\n        buyTokens(msg.sender);\r\n    }\r\n \r\n    uint time0 = 1513296000; //  15-Dec-17 00:00:00 UTC\r\n    uint time1 = 1515369600; // 08-Jan-18 00:00:00 UTC\r\n    uint time2 = 1517788800; // 05-Feb-18 00:00:00 UTC\r\n    uint time3 = 1520208000; // 05-Mar-18 00:00:00 UTC\r\n    uint time4 = 1522627200; //  02-Apr-18 00:00:00 UTC\r\n    uint time5 = 1525046400; //  30-Apr-18 00:00:00 UTC\r\n    uint time6 = 1527465600; //   28-May-18 00:00:00 UTC\r\n    uint time7 = 1544486400; //  11-Dec-18 00:00:00 UTC\r\n\r\n\r\n\r\n    // low level token purchase function\r\n    function buyTokens(address beneficiary) internal  {\r\n        require(beneficiary != 0x0);\r\n        require(validPurchase());\r\n        require(!hasEnded());\r\n        uint256 weiAmount = msg.value;\r\n        uint256 tokens;\r\n        // calculate token amount to be created\r\n\r\n        if (block.timestamp >= time0 && block.timestamp < time1) tokens = weiAmount.mul(1000).div(65);\r\n        else if (block.timestamp >= time1 && block.timestamp < time2) tokens = weiAmount.mul(1000).div(70);\r\n        else if (block.timestamp >= time2 && block.timestamp < time3) tokens = weiAmount.mul(1000).div(75);\r\n        else if (block.timestamp >= time3 && block.timestamp < time4) tokens = weiAmount.mul(1000).div(80);\r\n        else if (block.timestamp >= time4 && block.timestamp < time5) tokens = weiAmount.mul(1000).div(85);\r\n        else if (block.timestamp >= time5 && block.timestamp < time6) tokens = weiAmount.mul(1000).div(90);\r\n        else if (block.timestamp >= time6 && block.timestamp < time7) tokens = weiAmount.mul(1000).div(95);\r\n\r\n        // update state\r\n        weiRaised = weiRaised.add(weiAmount);\r\n        token.mint(beneficiary, tokens);\r\n        TokenPurchase(msg.sender, beneficiary, weiAmount, tokens, block.timestamp);\r\n        forwardFunds();\r\n    }\r\n\r\n    function mintTokens(address beneficiary, uint256 tokens) internal   {\r\n        require(beneficiary != 0x0);\r\n        uint256 weiAmount;\r\n        if (block.timestamp >= time0 && block.timestamp < time1) weiAmount = tokens.mul(65).div(1000);\r\n        else if (block.timestamp >= time1 && block.timestamp < time2) weiAmount = tokens.mul(70).div(1000);\r\n        else if (block.timestamp >= time2 && block.timestamp < time3) weiAmount = tokens.mul(75).div(1000);\r\n        else if (block.timestamp >= time3 && block.timestamp < time4) weiAmount = tokens.mul(80).div(1000);\r\n        else if (block.timestamp >= time4 && block.timestamp < time5) weiAmount = tokens.mul(85).div(1000);\r\n        else if (block.timestamp >= time5 && block.timestamp < time6) weiAmount = tokens.mul(90).div(1000);\r\n        else if (block.timestamp >= time6 && block.timestamp < time7) weiAmount = tokens.mul(95).div(1000);\r\n\r\n        weiRaised = weiRaised.add(weiAmount);\r\n        token.mint(beneficiary, tokens);\r\n        TokenPurchase(msg.sender, beneficiary, weiAmount, tokens, block.timestamp);\r\n    }\r\n\r\n    // send ether to the fund collection wallet\r\n    // override to create custom fund forwarding mechanisms\r\n    function forwardFunds() internal {\r\n        wallet.transfer(msg.value);\r\n    }\r\n    // @return true if the transaction can buy tokens\r\n    function validPurchase() internal constant returns (bool) {\r\n        return msg.value != 0;\r\n    }\r\n    // @return true if crowdsale event has ended\r\n    function hasEnded() public constant returns (bool) {\r\n        uint256 totalSupply = token.getTotalSupply();\r\n        if ((block.timestamp < time0) || (block.timestamp < time2 && totalSupply > 500000000000000000000000)\r\n        || (block.timestamp < time4 && totalSupply > 1000000000000000000000000)\r\n        || (block.timestamp < time7 && totalSupply > 2500000000000000000000000)\r\n            || (block.timestamp > time7)) return true;\r\n        else return false;\r\n    }\r\n\r\n}\r\n\r\n\r\ncontract XgoldCrowdsaleToken is MintableToken {\r\n    string public name;\r\n\r\n    string public symbol;\r\n\r\n    uint8 public decimals;\r\n\r\n    function XgoldCrowdsaleToken() public {\r\n        name = \"XGOLD COIN\";\r\n        symbol = \"XGC\";\r\n        decimals = 18;\r\n    }\r\n}\r\n\r\n\r\ncontract XgoldCrowdsale is Crowdsale {\r\n\r\n    uint256 public investors;\r\n\r\n\r\n    function XgoldCrowdsale() public\r\n    Crowdsale()\r\n    {\r\n        investors = 0;\r\n    }\r\n\r\n\r\n    function buyXgoldTokens(address _sender) public payable {\r\n        investors++;\r\n        buyTokens(_sender);\r\n    }\r\n\r\n\r\n    function() public payable {\r\n        buyXgoldTokens(msg.sender);\r\n    }\r\n\r\n    function sendTokens(address _beneficiary, uint256 _amount) public payable onlyOwner {\r\n        investors++;\r\n        mintTokens(_beneficiary, _amount);\r\n    }\r\n\r\n}",
  "sourcePath": "/workdir/truffle_example/0x83b2fdc4b90706fbee7f4aaafb56356b6dbf25bd/contracts/0x83b2fdc4b90706fbee7f4aaafb56356b6dbf25bd.sol",
  "compiler": {
    "name": "solc",
    "version": "0.4.25+commit.59dbf8f1.Emscripten.clang"
  },
  "schemaVersion": "3.4.8",
  "updatedAt": "2022-08-11T08:37:13.827Z",
  "networkType": "ethereum",
  "devdoc": {
    "methods": {}
  },
  "userdoc": {
    "methods": {}
  }
}