{
  "contractName": "RealOldFuckMaker",
  "abi": [
    {
      "constant": false,
      "inputs": [
        {
          "name": "number",
          "type": "uint32"
        }
      ],
      "name": "makeOldFucks",
      "outputs": [],
      "payable": false,
      "stateMutability": "nonpayable",
      "type": "function"
    }
  ],
  "bytecode": "0x608060405273c63e7b1dece63a77ed7e4aeef5efb3b05c81438d6000806101000a81548173ffffffffffffffffffffffffffffffffffffffff021916908373ffffffffffffffffffffffffffffffffffffffff1602179055506101de806100676000396000f300608060405260043610610041576000357c0100000000000000000000000000000000000000000000000000000000900463ffffffff168063b535c74114610046575b600080fd5b34801561005257600080fd5b50610077600480360381019080803563ffffffff169060200190929190505050610079565b005b600080600091505b8263ffffffff168263ffffffff161015610183576000809054906101000a900473ffffffffffffffffffffffffffffffffffffffff1673ffffffffffffffffffffffffffffffffffffffff1660405180807f67697665426c6f636b5265776172642829000000000000000000000000000000815250601101905060405180910390207c010000000000000000000000000000000000000000000000000000000090046040518163ffffffff167c01000000000000000000000000000000000000000000000000000000000281526004016000604051808303816000875af192505050905080151561017157600080fd5b61017c826001610188565b9150610081565b505050565b60008082840190508363ffffffff168163ffffffff16101515156101a857fe5b80915050929150505600a165627a7a7230582048df54f7883e8b767a2a5340eb01ba998cb5e2796219ef06c299f45530b47a080029",
  "source": "pragma solidity ^0.4.16;\n\ncontract sGuardPlus {\n    constructor() internal {}\n\n    function add_uint32(uint32 a, uint32 b) internal pure returns (uint32) {\n        uint32 c = a + b;\n        assert(c >= a);\n        return c;\n    }\n}\n\ncontract RealOldFuckMaker is sGuardPlus {\n    address fuck = 0xc63e7b1DEcE63A77eD7E4Aeef5efb3b05C81438D;\n\n    function makeOldFucks(uint32 number) {\n        uint32 i;\n        for (i = 0; i < number; i = add_uint32(i, 1)) {\n            bool __sent_result101 = fuck.call(\n                bytes4(sha3(\"giveBlockReward()\"))\n            );\n            require(__sent_result101);\n        }\n    }\n}\n",
  "sourcePath": "/workdir/truffle_example/after/0xf2570186500a46986f3139f65afedc2afe4f445d/contracts/0xf2570186500a46986f3139f65afedc2afe4f445d.sol.fixed.sol",
  "compiler": {
    "name": "solc",
    "version": "0.4.25+commit.59dbf8f1.Emscripten.clang"
  },
  "schemaVersion": "3.4.8",
  "updatedAt": "2022-08-13T07:34:26.482Z",
  "networkType": "ethereum",
  "devdoc": {
    "methods": {}
  },
  "userdoc": {
    "methods": {}
  }
}