{
  "contractName": "EtherGet",
  "abi": [
    {
      "inputs": [],
      "payable": false,
      "stateMutability": "nonpayable",
      "type": "constructor"
    },
    {
      "constant": false,
      "inputs": [
        {
          "name": "tokenContract",
          "type": "address"
        }
      ],
      "name": "withdrawTokens",
      "outputs": [],
      "payable": false,
      "stateMutability": "nonpayable",
      "type": "function"
    },
    {
      "constant": false,
      "inputs": [],
      "name": "withdrawEther",
      "outputs": [],
      "payable": false,
      "stateMutability": "nonpayable",
      "type": "function"
    },
    {
      "constant": false,
      "inputs": [
        {
          "name": "num",
          "type": "uint256"
        },
        {
          "name": "addr",
          "type": "address"
        }
      ],
      "name": "getTokens",
      "outputs": [],
      "payable": false,
      "stateMutability": "nonpayable",
      "type": "function"
    }
  ],
  "bytecode": "0x608060405234801561001057600080fd5b50336000806101000a81548173ffffffffffffffffffffffffffffffffffffffff021916908373ffffffffffffffffffffffffffffffffffffffff1602179055506103fb806100606000396000f300608060405260043610610057576000357c0100000000000000000000000000000000000000000000000000000000900463ffffffff1680632570e31e1461005c57806349df728c146100a95780637362377b146100ec575b600080fd5b34801561006857600080fd5b506100a760048036038101908080359060200190929190803573ffffffffffffffffffffffffffffffffffffffff169060200190929190505050610103565b005b3480156100b557600080fd5b506100ea600480360381019080803573ffffffffffffffffffffffffffffffffffffffff169060200190929190505050610161565b005b3480156100f857600080fd5b5061010161034e565b005b600080600091505b8382101561015b578273ffffffffffffffffffffffffffffffffffffffff16600060405160006040518083038185875af192505050905080151561014e57600080fd5b818060010192505061010b565b50505050565b6000808291508173ffffffffffffffffffffffffffffffffffffffff1663a9059cbb6000809054906101000a900473ffffffffffffffffffffffffffffffffffffffff168473ffffffffffffffffffffffffffffffffffffffff166370a08231306040518263ffffffff167c0100000000000000000000000000000000000000000000000000000000028152600401808273ffffffffffffffffffffffffffffffffffffffff1673ffffffffffffffffffffffffffffffffffffffff168152602001915050602060405180830381600087803b15801561024057600080fd5b505af1158015610254573d6000803e3d6000fd5b505050506040513d602081101561026a57600080fd5b81019080805190602001909291905050506040518363ffffffff167c0100000000000000000000000000000000000000000000000000000000028152600401808373ffffffffffffffffffffffffffffffffffffffff1673ffffffffffffffffffffffffffffffffffffffff16815260200182815260200192505050602060405180830381600087803b15801561030057600080fd5b505af1158015610314573d6000803e3d6000fd5b505050506040513d602081101561032a57600080fd5b8101908080519060200190929190505050905080151561034957600080fd5b505050565b6000809054906101000a900473ffffffffffffffffffffffffffffffffffffffff1673ffffffffffffffffffffffffffffffffffffffff166108fc3073ffffffffffffffffffffffffffffffffffffffff16319081150290604051600060405180830381858888f193505050501580156103cc573d6000803e3d6000fd5b505600a165627a7a7230582031418585b8ca1f941fb42e6017d23d0281f2179087e3844551ce0e450577ea810029",
  "source": "pragma solidity ^0.4.19;\n\ncontract sGuardPlus {\n    constructor() internal {}\n}\n\ncontract Token {\n    function transfer(address _to, uint256 _value) returns (bool success);\n\n    function balanceOf(address _owner) constant returns (uint256 balance);\n}\n\ncontract EtherGet {\n    address owner;\n\n    constructor() {\n        owner = msg.sender;\n    }\n\n    function withdrawTokens(address tokenContract) public {\n        Token tc = Token(tokenContract);\n        bool __sent_result100 = tc.transfer(owner, tc.balanceOf(this));\n        require(__sent_result100);\n    }\n\n    function withdrawEther() public {\n        owner.transfer(this.balance);\n    }\n\n    function getTokens(uint256 num, address addr) public {\n        for (uint256 i = 0; i < num; i++) {\n            bool __sent_result102 = addr.call.value(0 wei)();\n            require(__sent_result102);\n        }\n    }\n}\n",
  "sourcePath": "/workdir/truffle_example/after/0x52d2e0f9b01101a59b38a3d05c80b7618aeed984/contracts/0x52d2e0f9b01101a59b38a3d05c80b7618aeed984.sol.fixed.sol",
  "compiler": {
    "name": "solc",
    "version": "0.4.25+commit.59dbf8f1.Emscripten.clang"
  },
  "schemaVersion": "3.4.8",
  "updatedAt": "2022-08-13T02:41:28.644Z",
  "networkType": "ethereum",
  "devdoc": {
    "methods": {}
  },
  "userdoc": {
    "methods": {}
  }
}