{
  "contractName": "GrowToken",
  "abi": [
    {
      "constant": true,
      "inputs": [],
      "name": "name",
      "outputs": [
        {
          "name": "",
          "type": "string"
        }
      ],
      "payable": false,
      "stateMutability": "view",
      "type": "function"
    },
    {
      "constant": true,
      "inputs": [],
      "name": "totalSupply",
      "outputs": [
        {
          "name": "",
          "type": "uint256"
        }
      ],
      "payable": false,
      "stateMutability": "view",
      "type": "function"
    },
    {
      "constant": true,
      "inputs": [],
      "name": "decimals",
      "outputs": [
        {
          "name": "",
          "type": "uint8"
        }
      ],
      "payable": false,
      "stateMutability": "view",
      "type": "function"
    },
    {
      "constant": true,
      "inputs": [],
      "name": "buyOpen",
      "outputs": [
        {
          "name": "",
          "type": "bool"
        }
      ],
      "payable": false,
      "stateMutability": "view",
      "type": "function"
    },
    {
      "constant": true,
      "inputs": [],
      "name": "sellPrice",
      "outputs": [
        {
          "name": "",
          "type": "uint256"
        }
      ],
      "payable": false,
      "stateMutability": "view",
      "type": "function"
    },
    {
      "constant": true,
      "inputs": [
        {
          "name": "",
          "type": "address"
        }
      ],
      "name": "balanceOf",
      "outputs": [
        {
          "name": "",
          "type": "uint256"
        }
      ],
      "payable": false,
      "stateMutability": "view",
      "type": "function"
    },
    {
      "constant": true,
      "inputs": [],
      "name": "buyPrice",
      "outputs": [
        {
          "name": "",
          "type": "uint256"
        }
      ],
      "payable": false,
      "stateMutability": "view",
      "type": "function"
    },
    {
      "constant": true,
      "inputs": [],
      "name": "owner",
      "outputs": [
        {
          "name": "",
          "type": "address"
        }
      ],
      "payable": false,
      "stateMutability": "view",
      "type": "function"
    },
    {
      "constant": true,
      "inputs": [],
      "name": "sellOpen",
      "outputs": [
        {
          "name": "",
          "type": "bool"
        }
      ],
      "payable": false,
      "stateMutability": "view",
      "type": "function"
    },
    {
      "constant": true,
      "inputs": [],
      "name": "symbol",
      "outputs": [
        {
          "name": "",
          "type": "string"
        }
      ],
      "payable": false,
      "stateMutability": "view",
      "type": "function"
    },
    {
      "constant": true,
      "inputs": [
        {
          "name": "",
          "type": "address"
        }
      ],
      "name": "frozenAccount",
      "outputs": [
        {
          "name": "",
          "type": "bool"
        }
      ],
      "payable": false,
      "stateMutability": "view",
      "type": "function"
    },
    {
      "constant": true,
      "inputs": [
        {
          "name": "",
          "type": "address"
        },
        {
          "name": "",
          "type": "address"
        }
      ],
      "name": "allowance",
      "outputs": [
        {
          "name": "",
          "type": "uint256"
        }
      ],
      "payable": false,
      "stateMutability": "view",
      "type": "function"
    },
    {
      "inputs": [],
      "payable": false,
      "stateMutability": "nonpayable",
      "type": "constructor"
    },
    {
      "payable": true,
      "stateMutability": "payable",
      "type": "fallback"
    },
    {
      "anonymous": false,
      "inputs": [
        {
          "indexed": true,
          "name": "from",
          "type": "address"
        },
        {
          "indexed": true,
          "name": "to",
          "type": "address"
        },
        {
          "indexed": false,
          "name": "value",
          "type": "uint256"
        }
      ],
      "name": "Transfer",
      "type": "event"
    },
    {
      "anonymous": false,
      "inputs": [
        {
          "indexed": true,
          "name": "owner",
          "type": "address"
        },
        {
          "indexed": true,
          "name": "spender",
          "type": "address"
        },
        {
          "indexed": false,
          "name": "value",
          "type": "uint256"
        }
      ],
      "name": "Approval",
      "type": "event"
    },
    {
      "anonymous": false,
      "inputs": [
        {
          "indexed": false,
          "name": "target",
          "type": "address"
        },
        {
          "indexed": false,
          "name": "freeze",
          "type": "bool"
        }
      ],
      "name": "FrozenFunds",
      "type": "event"
    },
    {
      "anonymous": false,
      "inputs": [
        {
          "indexed": false,
          "name": "seller",
          "type": "address"
        },
        {
          "indexed": false,
          "name": "sellPrice",
          "type": "uint256"
        },
        {
          "indexed": false,
          "name": "amount",
          "type": "uint256"
        },
        {
          "indexed": false,
          "name": "getEth",
          "type": "uint256"
        }
      ],
      "name": "SellToken",
      "type": "event"
    },
    {
      "anonymous": false,
      "inputs": [
        {
          "indexed": false,
          "name": "buyer",
          "type": "address"
        },
        {
          "indexed": false,
          "name": "buyPrice",
          "type": "uint256"
        },
        {
          "indexed": false,
          "name": "amount",
          "type": "uint256"
        },
        {
          "indexed": false,
          "name": "spendEth",
          "type": "uint256"
        }
      ],
      "name": "BuyToken",
      "type": "event"
    },
    {
      "constant": false,
      "inputs": [
        {
          "name": "_to",
          "type": "address"
        },
        {
          "name": "_value",
          "type": "uint256"
        }
      ],
      "name": "transfer",
      "outputs": [],
      "payable": false,
      "stateMutability": "nonpayable",
      "type": "function"
    },
    {
      "constant": false,
      "inputs": [
        {
          "name": "_from",
          "type": "address"
        },
        {
          "name": "_to",
          "type": "address"
        },
        {
          "name": "_value",
          "type": "uint256"
        }
      ],
      "name": "transferFrom",
      "outputs": [
        {
          "name": "success",
          "type": "bool"
        }
      ],
      "payable": false,
      "stateMutability": "nonpayable",
      "type": "function"
    },
    {
      "constant": false,
      "inputs": [
        {
          "name": "_spender",
          "type": "address"
        },
        {
          "name": "_value",
          "type": "uint256"
        }
      ],
      "name": "approve",
      "outputs": [
        {
          "name": "success",
          "type": "bool"
        }
      ],
      "payable": false,
      "stateMutability": "nonpayable",
      "type": "function"
    },
    {
      "constant": false,
      "inputs": [
        {
          "name": "_spender",
          "type": "address"
        },
        {
          "name": "_value",
          "type": "uint256"
        },
        {
          "name": "_extraData",
          "type": "bytes"
        }
      ],
      "name": "approveAndCall",
      "outputs": [
        {
          "name": "success",
          "type": "bool"
        }
      ],
      "payable": false,
      "stateMutability": "nonpayable",
      "type": "function"
    },
    {
      "constant": false,
      "inputs": [
        {
          "name": "target",
          "type": "address"
        },
        {
          "name": "freeze",
          "type": "bool"
        }
      ],
      "name": "freezeAccount",
      "outputs": [],
      "payable": false,
      "stateMutability": "nonpayable",
      "type": "function"
    },
    {
      "constant": false,
      "inputs": [
        {
          "name": "newOwner",
          "type": "address"
        }
      ],
      "name": "transferOwnership",
      "outputs": [],
      "payable": false,
      "stateMutability": "nonpayable",
      "type": "function"
    },
    {
      "constant": false,
      "inputs": [
        {
          "name": "newSellPrice",
          "type": "uint256"
        },
        {
          "name": "newBuyPrice",
          "type": "uint256"
        }
      ],
      "name": "setPrices",
      "outputs": [],
      "payable": false,
      "stateMutability": "nonpayable",
      "type": "function"
    },
    {
      "constant": false,
      "inputs": [
        {
          "name": "newBuyOpen",
          "type": "bool"
        }
      ],
      "name": "setBuyOpen",
      "outputs": [],
      "payable": false,
      "stateMutability": "nonpayable",
      "type": "function"
    },
    {
      "constant": false,
      "inputs": [
        {
          "name": "newSellOpen",
          "type": "bool"
        }
      ],
      "name": "setSellOpen",
      "outputs": [],
      "payable": false,
      "stateMutability": "nonpayable",
      "type": "function"
    },
    {
      "constant": false,
      "inputs": [
        {
          "name": "amount",
          "type": "uint256"
        }
      ],
      "name": "transferEth",
      "outputs": [],
      "payable": false,
      "stateMutability": "nonpayable",
      "type": "function"
    }
  ],
  "bytecode": "0x60806040523480156200001157600080fd5b5073757d7fbb9822b5033a6bbd4e17f95714942f921f6000806101000a81548173ffffffffffffffffffffffffffffffffffffffff021916908373ffffffffffffffffffffffffffffffffffffffff1602179055506040805190810160405280600981526020017f47524f57434841494e000000000000000000000000000000000000000000000081525060019080519060200190620000b39291906200019d565b506040805190810160405280600481526020017f47524f570000000000000000000000000000000000000000000000000000000081525060029080519060200190620001019291906200019d565b506008600360006101000a81548160ff021916908360ff1602179055506008600a0a64012a05f20002600481905550600454600860008060009054906101000a900473ffffffffffffffffffffffffffffffffffffffff1673ffffffffffffffffffffffffffffffffffffffff1673ffffffffffffffffffffffffffffffffffffffff168152602001908152602001600020819055506200024c565b828054600181600116156101000203166002900490600052602060002090601f016020900481019282601f10620001e057805160ff191683800117855562000211565b8280016001018555821562000211579182015b8281111562000210578251825591602001919060010190620001f3565b5b50905062000220919062000224565b5090565b6200024991905b80821115620002455760008160009055506001016200022b565b5090565b90565b611b0e806200025c6000396000f300608060405260043610610128576000357c0100000000000000000000000000000000000000000000000000000000900463ffffffff16806305fefda71461018a57806306fdde03146101c1578063095ea7b31461025157806318160ddd146102b65780631f57256f146102e157806323b872dd1461030e578063313ce5671461039357806343a88da6146103c45780634b750334146103f3578063603d1d1c1461041e57806370a082311461044d5780638620410b146104a45780638da5cb5b146104cf578063900726c21461052657806395d89b41146105555780639769eacf146105e5578063a9059cbb14610614578063b414d4b614610661578063cae9ca51146106bc578063dd62ed3e14610767578063e724529c146107de578063f2fde38b1461082d575b6000809054906101000a900473ffffffffffffffffffffffffffffffffffffffff1673ffffffffffffffffffffffffffffffffffffffff163373ffffffffffffffffffffffffffffffffffffffff1614151561018857610186610870565b505b005b34801561019657600080fd5b506101bf600480360381019080803590602001909291908035906020019092919050505061096c565b005b3480156101cd57600080fd5b506101d66109d9565b6040518080602001828103825283818151815260200191508051906020019080838360005b838110156102165780820151818401526020810190506101fb565b50505050905090810190601f1680156102435780820380516001836020036101000a031916815260200191505b509250505060405180910390f35b34801561025d57600080fd5b5061029c600480360381019080803573ffffffffffffffffffffffffffffffffffffffff16906020019092919080359060200190929190505050610a77565b604051808215151515815260200191505060405180910390f35b3480156102c257600080fd5b506102cb610b5d565b6040518082815260200191505060405180910390f35b3480156102ed57600080fd5b5061030c60048036038101908080359060200190929190505050610b63565b005b34801561031a57600080fd5b50610379600480360381019080803573ffffffffffffffffffffffffffffffffffffffff169060200190929190803573ffffffffffffffffffffffffffffffffffffffff16906020019092919080359060200190929190505050610c0e565b604051808215151515815260200191505060405180910390f35b34801561039f57600080fd5b506103a8610e2f565b604051808260ff1660ff16815260200191505060405180910390f35b3480156103d057600080fd5b506103d9610e42565b604051808215151515815260200191505060405180910390f35b3480156103ff57600080fd5b50610408610e55565b6040518082815260200191505060405180910390f35b34801561042a57600080fd5b5061044b600480360381019080803515159060200190929190505050610e5b565b005b34801561045957600080fd5b5061048e600480360381019080803573ffffffffffffffffffffffffffffffffffffffff169060200190929190505050610ee4565b6040518082815260200191505060405180910390f35b3480156104b057600080fd5b506104b9610efc565b6040518082815260200191505060405180910390f35b3480156104db57600080fd5b506104e4610f02565b604051808273ffffffffffffffffffffffffffffffffffffffff1673ffffffffffffffffffffffffffffffffffffffff16815260200191505060405180910390f35b34801561053257600080fd5b5061053b610f27565b604051808215151515815260200191505060405180910390f35b34801561056157600080fd5b5061056a610f3a565b6040518080602001828103825283818151815260200191508051906020019080838360005b838110156105aa57808201518184015260208101905061058f565b50505050905090810190601f1680156105d75780820380516001836020036101000a031916815260200191505b509250505060405180910390f35b3480156105f157600080fd5b50610612600480360381019080803515159060200190929190505050610fd8565b005b34801561062057600080fd5b5061065f600480360381019080803573ffffffffffffffffffffffffffffffffffffffff16906020019092919080359060200190929190505050611061565b005b34801561066d57600080fd5b506106a2600480360381019080803573ffffffffffffffffffffffffffffffffffffffff16906020019092919050505061110e565b604051808215151515815260200191505060405180910390f35b3480156106c857600080fd5b5061074d600480360381019080803573ffffffffffffffffffffffffffffffffffffffff16906020019092919080359060200190929190803590602001908201803590602001908080601f016020809104026020016040519081016040528093929190818152602001838380828437820191505050505050919291929050505061112e565b604051808215151515815260200191505060405180910390f35b34801561077357600080fd5b506107c8600480360381019080803573ffffffffffffffffffffffffffffffffffffffff169060200190929190803573ffffffffffffffffffffffffffffffffffffffff16906020019092919050505061130a565b6040518082815260200191505060405180910390f35b3480156107ea57600080fd5b5061082b600480360381019080803573ffffffffffffffffffffffffffffffffffffffff16906020019092919080351515906020019092919050505061132f565b005b34801561083957600080fd5b5061086e600480360381019080803573ffffffffffffffffffffffffffffffffffffffff1690602001909291905050506114b0565b005b6000600760019054906101000a900460ff16151561088d57600080fd5b600060065411151561089e57600080fd5b6000341115156108ad57600080fd5b600654348115156108ba57fe5b0490506108e96000809054906101000a900473ffffffffffffffffffffffffffffffffffffffff1633836115da565b7f047d414ddce29eba94711e9709b1446c3bb9339c2472cf6ff20610f80b186912336006548334604051808573ffffffffffffffffffffffffffffffffffffffff1673ffffffffffffffffffffffffffffffffffffffff16815260200184815260200183815260200182815260200194505050505060405180910390a180905090565b6000809054906101000a900473ffffffffffffffffffffffffffffffffffffffff1673ffffffffffffffffffffffffffffffffffffffff163373ffffffffffffffffffffffffffffffffffffffff161415156109c757600080fd5b81600581905550806006819055505050565b60018054600181600116156101000203166002900480601f016020809104026020016040519081016040528092919081815260200182805460018160011615610100020316600290048015610a6f5780601f10610a4457610100808354040283529160200191610a6f565b820191906000526020600020905b815481529060010190602001808311610a5257829003601f168201915b505050505081565b6000600a60003373ffffffffffffffffffffffffffffffffffffffff1673ffffffffffffffffffffffffffffffffffffffff16815260200190815260200160002060009054906101000a900460ff16151515610ad257600080fd5b81600960003373ffffffffffffffffffffffffffffffffffffffff1673ffffffffffffffffffffffffffffffffffffffff16815260200190815260200160002060008573ffffffffffffffffffffffffffffffffffffffff1673ffffffffffffffffffffffffffffffffffffffff168152602001908152602001600020819055506001905092915050565b60045481565b6000809054906101000a900473ffffffffffffffffffffffffffffffffffffffff1673ffffffffffffffffffffffffffffffffffffffff163373ffffffffffffffffffffffffffffffffffffffff16141515610bbe57600080fd5b3373ffffffffffffffffffffffffffffffffffffffff166108fc6012600a0a83029081150290604051600060405180830381858888f19350505050158015610c0a573d6000803e3d6000fd5b5050565b6000600a60008573ffffffffffffffffffffffffffffffffffffffff1673ffffffffffffffffffffffffffffffffffffffff16815260200190815260200160002060009054906101000a900460ff16158015610cb45750600a60003373ffffffffffffffffffffffffffffffffffffffff1673ffffffffffffffffffffffffffffffffffffffff16815260200190815260200160002060009054906101000a900460ff16155b1515610cbf57600080fd5b600960008573ffffffffffffffffffffffffffffffffffffffff1673ffffffffffffffffffffffffffffffffffffffff16815260200190815260200160002060003373ffffffffffffffffffffffffffffffffffffffff1673ffffffffffffffffffffffffffffffffffffffff168152602001908152602001600020548211151515610d4a57600080fd5b81600960008673ffffffffffffffffffffffffffffffffffffffff1673ffffffffffffffffffffffffffffffffffffffff16815260200190815260200160002060003373ffffffffffffffffffffffffffffffffffffffff1673ffffffffffffffffffffffffffffffffffffffff168152602001908152602001600020600082825403925050819055503073ffffffffffffffffffffffffffffffffffffffff168373ffffffffffffffffffffffffffffffffffffffff161415610e1857610e1284836118f0565b50610e24565b610e238484846115da565b5b600190509392505050565b600360009054906101000a900460ff1681565b600760019054906101000a900460ff1681565b60055481565b6000809054906101000a900473ffffffffffffffffffffffffffffffffffffffff1673ffffffffffffffffffffffffffffffffffffffff163373ffffffffffffffffffffffffffffffffffffffff16141515610eb657600080fd5b6000600554111515610ec757600080fd5b80600760006101000a81548160ff02191690831515021790555050565b60086020528060005260406000206000915090505481565b60065481565b6000809054906101000a900473ffffffffffffffffffffffffffffffffffffffff1681565b600760009054906101000a900460ff1681565b60028054600181600116156101000203166002900480601f016020809104026020016040519081016040528092919081815260200182805460018160011615610100020316600290048015610fd05780601f10610fa557610100808354040283529160200191610fd0565b820191906000526020600020905b815481529060010190602001808311610fb357829003601f168201915b505050505081565b6000809054906101000a900473ffffffffffffffffffffffffffffffffffffffff1673ffffffffffffffffffffffffffffffffffffffff163373ffffffffffffffffffffffffffffffffffffffff1614151561103357600080fd5b600060065411151561104457600080fd5b80600760016101000a81548160ff02191690831515021790555050565b600a60003373ffffffffffffffffffffffffffffffffffffffff1673ffffffffffffffffffffffffffffffffffffffff16815260200190815260200160002060009054906101000a900460ff161515156110ba57600080fd5b3073ffffffffffffffffffffffffffffffffffffffff168273ffffffffffffffffffffffffffffffffffffffff1614156110fe576110f833826118f0565b5061110a565b6111093383836115da565b5b5050565b600a6020528060005260406000206000915054906101000a900460ff1681565b600080600a60003373ffffffffffffffffffffffffffffffffffffffff1673ffffffffffffffffffffffffffffffffffffffff16815260200190815260200160002060009054906101000a900460ff1615151561118a57600080fd5b8490506111978585610a77565b15611301578073ffffffffffffffffffffffffffffffffffffffff16638f4ffcb1338630876040518563ffffffff167c0100000000000000000000000000000000000000000000000000000000028152600401808573ffffffffffffffffffffffffffffffffffffffff1673ffffffffffffffffffffffffffffffffffffffff1681526020018481526020018373ffffffffffffffffffffffffffffffffffffffff1673ffffffffffffffffffffffffffffffffffffffff16815260200180602001828103825283818151815260200191508051906020019080838360005b83811015611291578082015181840152602081019050611276565b50505050905090810190601f1680156112be5780820380516001836020036101000a031916815260200191505b5095505050505050600060405180830381600087803b1580156112e057600080fd5b505af11580156112f4573d6000803e3d6000fd5b5050505060019150611302565b5b509392505050565b6009602052816000526040600020602052806000526040600020600091509150505481565b6000809054906101000a900473ffffffffffffffffffffffffffffffffffffffff1673ffffffffffffffffffffffffffffffffffffffff163373ffffffffffffffffffffffffffffffffffffffff1614151561138a57600080fd5b6000809054906101000a900473ffffffffffffffffffffffffffffffffffffffff1673ffffffffffffffffffffffffffffffffffffffff168273ffffffffffffffffffffffffffffffffffffffff16141515156113e657600080fd5b80600a60008473ffffffffffffffffffffffffffffffffffffffff1673ffffffffffffffffffffffffffffffffffffffff16815260200190815260200160002060006101000a81548160ff0219169083151502179055507f48335238b4855f35377ed80f164e8c6f3c366e54ac00b96a6402d4a9814a03a58282604051808373ffffffffffffffffffffffffffffffffffffffff1673ffffffffffffffffffffffffffffffffffffffff168152602001821515151581526020019250505060405180910390a15050565b6000809054906101000a900473ffffffffffffffffffffffffffffffffffffffff1673ffffffffffffffffffffffffffffffffffffffff163373ffffffffffffffffffffffffffffffffffffffff1614151561150b57600080fd5b6115976000809054906101000a900473ffffffffffffffffffffffffffffffffffffffff1682600860008060009054906101000a900473ffffffffffffffffffffffffffffffffffffffff1673ffffffffffffffffffffffffffffffffffffffff1673ffffffffffffffffffffffffffffffffffffffff168152602001908152602001600020546115da565b806000806101000a81548173ffffffffffffffffffffffffffffffffffffffff021916908373ffffffffffffffffffffffffffffffffffffffff16021790555050565b6000808373ffffffffffffffffffffffffffffffffffffffff161415151561160157600080fd5b81600860008673ffffffffffffffffffffffffffffffffffffffff1673ffffffffffffffffffffffffffffffffffffffff168152602001908152602001600020541015151561164f57600080fd5b600860008473ffffffffffffffffffffffffffffffffffffffff1673ffffffffffffffffffffffffffffffffffffffff1681526020019081526020016000205482600860008673ffffffffffffffffffffffffffffffffffffffff1673ffffffffffffffffffffffffffffffffffffffff16815260200190815260200160002054011115156116dd57600080fd5b600860008473ffffffffffffffffffffffffffffffffffffffff1673ffffffffffffffffffffffffffffffffffffffff16815260200190815260200160002054600860008673ffffffffffffffffffffffffffffffffffffffff1673ffffffffffffffffffffffffffffffffffffffff1681526020019081526020016000205401905081600860008673ffffffffffffffffffffffffffffffffffffffff1673ffffffffffffffffffffffffffffffffffffffff1681526020019081526020016000206000828254039250508190555081600860008573ffffffffffffffffffffffffffffffffffffffff1673ffffffffffffffffffffffffffffffffffffffff168152602001908152602001600020600082825401925050819055508273ffffffffffffffffffffffffffffffffffffffff168473ffffffffffffffffffffffffffffffffffffffff167fddf252ad1be2c89b69c2b068fc378daa952ba7f163c4a11628f55a4df523b3ef846040518082815260200191505060405180910390a380600860008573ffffffffffffffffffffffffffffffffffffffff1673ffffffffffffffffffffffffffffffffffffffff16815260200190815260200160002054600860008773ffffffffffffffffffffffffffffffffffffffff1673ffffffffffffffffffffffffffffffffffffffff16815260200190815260200160002054011415156118ea57fe5b50505050565b6000600760009054906101000a900460ff16151561190d57600080fd5b600a60008473ffffffffffffffffffffffffffffffffffffffff1673ffffffffffffffffffffffffffffffffffffffff16815260200190815260200160002060009054906101000a900460ff1615151561196657600080fd5b60008211151561197557600080fd5b600060055411151561198657600080fd5b6000809054906101000a900473ffffffffffffffffffffffffffffffffffffffff1673ffffffffffffffffffffffffffffffffffffffff168373ffffffffffffffffffffffffffffffffffffffff16141515156119e257600080fd5b611a0e836000809054906101000a900473ffffffffffffffffffffffffffffffffffffffff16846115da565b600554820290508273ffffffffffffffffffffffffffffffffffffffff166108fc829081150290604051600060405180830381858888f19350505050158015611a5b573d6000803e3d6000fd5b507fbc6a70357c1f438297a419fdda7ea10b11e5e821fa940afc814d2e1fa9c755d7836005548484604051808573ffffffffffffffffffffffffffffffffffffffff1673ffffffffffffffffffffffffffffffffffffffff16815260200184815260200183815260200182815260200194505050505060405180910390a1809050929150505600a165627a7a7230582011ac4dbad13848f2ec1fc8c8516cd0e544139b10c65d3ea421c4ee1a331ddb300029",
  "source": "pragma solidity ^0.4.18;\ninterface tokenRecipient{\n    function receiveApproval(address _from,uint256 _value,address _token,bytes _extraData) external ;\n}\ncontract GrowToken{\n    //public var\n    address public owner;\n    string public name;\n    string public symbol;\n    uint8 public decimals;\n    uint256 public totalSupply;\n    uint256 public sellPrice; //grow to wei not eth!\n    uint256 public buyPrice;\n    bool public sellOpen;\n    bool public buyOpen;\n    \n    //store token data set\n    mapping(address => uint256) public balanceOf;\n    //transition limite\n    mapping(address => mapping(address => uint256)) public allowance;\n    //freeze account \n    mapping(address=>bool) public frozenAccount;\n    \n    //event for transition\n    event Transfer(address indexed from,address indexed to , uint256 value);\n    //event for allowance\n    event Approval(address indexed owner,address indexed spender,uint256 value);\n    //event for freeze/unfreeze Account \n    event FrozenFunds(address target,bool freeze);\n    //TODO event for sell token , do't need it now\n    event SellToken(address seller,uint256 sellPrice, uint256 amount,uint256 getEth);\n    //TODO event for buy token , do't need it now \n    event BuyToken(address buyer,uint256 buyPrice,uint256 amount,uint256 spendEth);\n    \n    modifier onlyOwner {\n        require(msg.sender == owner);\n        _;\n    }\n    //func constructor\n    function GrowToken() public {\n        owner = 0x757D7FbB9822b5033a6BBD4e17F95714942f921f;\n        name = \"GROWCHAIN\";\n        symbol = \"GROW\";\n        decimals = 8;\n        totalSupply = 5000000000 * 10 ** uint256(8);\n        \n        //init totalSupply to map(db)\n        balanceOf[owner] = totalSupply;\n    }\n    \n function () public payable {  \n     if(msg.sender!=owner){\n         _buy();    \n     }\n }\n \n    // public functions\n    // 1 Transfer tokens \n    function transfer(address _to,uint256 _value) public{\n        require(!frozenAccount[msg.sender]);\n        if(_to == address(this)){\n          _sell(msg.sender,_value);\n        }else{\n            _transfer(msg.sender,_to,_value);\n        }\n    }\n    \n    // 2 Transfer Other's tokens ,who had approve some token to me \n    function transferFrom(address _from,address _to,uint256 _value) public returns (bool success){\n        //validate the allowance \n        require(!frozenAccount[_from]&&!frozenAccount[msg.sender]);\n        require(_value<=allowance[_from][msg.sender]);\n        //do action :sub allowance and do transfer \n        allowance[_from][msg.sender] -= _value;\n        if(_to == address(this)){\n            _sell(_from,_value);\n        }else\n        {\n            _transfer(_from,_to,_value);\n        }\n        \n        return true;\n    }\n    //A is msg.sender or i \n    //B is the person who has approve me to use his token or _from \n    //C is the receipient or _to\n    \n    // 3 set allowance for other address,like B approve A(_spender) to use his token\n    function approve(address _spender,uint256 _value) public returns (bool success){\n        require(!frozenAccount[msg.sender]);\n        allowance[msg.sender][_spender] = _value;\n        return true;\n    }\n    // 4 allowance and notify the receipient/spender \n    function approveAndCall(address _spender,uint256 _value,bytes _extraData)\n    public returns (bool success){\n        require(!frozenAccount[msg.sender]);\n        tokenRecipient spender = tokenRecipient(_spender);\n        if(approve(_spender,_value)){\n            spender.receiveApproval(msg.sender,_value,this,_extraData);\n            return true;\n        }\n    }\n    \n    // onlyOwner function \n    // 11 freeze or unfreeze account \n    function freezeAccount(address target,bool freeze)  onlyOwner public{\n        require(target!=owner);\n        frozenAccount[target] = freeze;\n        FrozenFunds(target,freeze);\n    }\n    // 12 transfer contract  Ownership to newOwner and transfer all balanceOf oldOwner to newOwner\n    function transferOwnership(address newOwner) onlyOwner public{\n        _transfer(owner,newOwner,balanceOf[owner]);\n        owner = newOwner;\n    }\n    // 13 set prices for sellPrice or buyPrice\n    function setPrices(uint256 newSellPrice,uint256 newBuyPrice) onlyOwner public{\n        sellPrice = newSellPrice;\n        buyPrice = newBuyPrice;\n    }\n    // 14 open/close user to  buy token \n    function setBuyOpen(bool newBuyOpen) onlyOwner public{\n        require(buyPrice>0);\n        buyOpen = newBuyOpen;\n    }\n    // 15 open/close user to  sell token \n    function setSellOpen(bool newSellOpen) onlyOwner public{\n        require(sellPrice>0);\n        sellOpen = newSellOpen;\n    }\n    // 16 transfer eth back to owner \n    function transferEth(uint256 amount) onlyOwner public{\n        msg.sender.transfer(amount*10**uint256(18));\n    }\n    \n    //internal transfer function\n // 1 _transfer\n    function _transfer(address _from,address _to, uint256 _value) internal {\n        //validate input and other internal limites\n        require(_to != 0x0);//check to address\n        require(balanceOf[_from] >= _value);//check from address has enough balance \n        require(balanceOf[_to] + _value >balanceOf[_to]);//after transfer the balance of _to address is ok ,no overflow\n        uint256 previousBalances = balanceOf[_from]+balanceOf[_to];//store it for add asset to power the security\n        //do transfer:sub from _from address,and add to the _to address\n        balanceOf[_from] -= _value;\n        balanceOf[_to] += _value;\n        //after transfer: emit transfer event,and add asset for security\n        Transfer(_from,_to,_value);\n        assert(balanceOf[_from]+balanceOf[_to] == previousBalances);\n    }\n // 2 _buy \n    function _buy() internal returns (uint256 amount){\n        require(buyOpen);\n        require(buyPrice>0);\n        require(msg.value>0);\n        amount = msg.value / buyPrice;                    // calculates the amount\n        _transfer(owner,msg.sender,amount);\n        BuyToken(msg.sender,buyPrice,amount,msg.value);\n        return amount;                                    // ends function and returns\n    }\n    \n    // 3 _sell \n    function _sell(address _from,uint256 amount) internal returns (uint256 revenue){\n        require(sellOpen);\n        require(!frozenAccount[_from]);\n        require(amount>0);\n        require(sellPrice>0);\n        require(_from!=owner);\n        _transfer(_from,owner,amount);\n        revenue = amount * sellPrice;\n        _from.transfer(revenue);                     // sends ether to the seller: it's important to do this last to prevent recursion attacks\n        SellToken(_from,sellPrice,amount,revenue);\n        return revenue;                                   // ends function and returns\n    }\n}\n",
  "sourcePath": "/workdir/truffle_example/0x0a9A9ce600D08BF9b76F49FA4e7b38A67EBEB1E6/contracts/0x0a9A9ce600D08BF9b76F49FA4e7b38A67EBEB1E6.sol",
  "compiler": {
    "name": "solc",
    "version": "0.4.25+commit.59dbf8f1.Emscripten.clang"
  },
  "schemaVersion": "3.4.8",
  "updatedAt": "2022-08-11T02:32:43.165Z",
  "networkType": "ethereum",
  "devdoc": {
    "methods": {}
  },
  "userdoc": {
    "methods": {}
  }
}