{
  "contractName": "Delta",
  "abi": [
    {
      "constant": true,
      "inputs": [],
      "name": "active",
      "outputs": [
        {
          "name": "",
          "type": "uint256"
        }
      ],
      "payable": false,
      "stateMutability": "view",
      "type": "function"
    },
    {
      "constant": true,
      "inputs": [],
      "name": "owner2",
      "outputs": [
        {
          "name": "",
          "type": "address"
        }
      ],
      "payable": false,
      "stateMutability": "view",
      "type": "function"
    },
    {
      "constant": true,
      "inputs": [],
      "name": "token_price",
      "outputs": [
        {
          "name": "",
          "type": "uint256"
        }
      ],
      "payable": false,
      "stateMutability": "view",
      "type": "function"
    },
    {
      "constant": true,
      "inputs": [],
      "name": "owner",
      "outputs": [
        {
          "name": "",
          "type": "address"
        }
      ],
      "payable": false,
      "stateMutability": "view",
      "type": "function"
    },
    {
      "constant": true,
      "inputs": [],
      "name": "c",
      "outputs": [
        {
          "name": "",
          "type": "address"
        }
      ],
      "payable": false,
      "stateMutability": "view",
      "type": "function"
    },
    {
      "payable": true,
      "stateMutability": "payable",
      "type": "fallback"
    },
    {
      "constant": false,
      "inputs": [],
      "name": "tokens_buy",
      "outputs": [
        {
          "name": "",
          "type": "bool"
        }
      ],
      "payable": true,
      "stateMutability": "payable",
      "type": "function"
    },
    {
      "constant": false,
      "inputs": [
        {
          "name": "_amount",
          "type": "uint256"
        }
      ],
      "name": "withdraw",
      "outputs": [
        {
          "name": "result",
          "type": "bool"
        }
      ],
      "payable": false,
      "stateMutability": "nonpayable",
      "type": "function"
    },
    {
      "constant": false,
      "inputs": [
        {
          "name": "_token_price",
          "type": "uint256"
        }
      ],
      "name": "change_token_price",
      "outputs": [
        {
          "name": "result",
          "type": "bool"
        }
      ],
      "payable": false,
      "stateMutability": "nonpayable",
      "type": "function"
    },
    {
      "constant": false,
      "inputs": [
        {
          "name": "_active",
          "type": "uint256"
        }
      ],
      "name": "change_active",
      "outputs": [
        {
          "name": "result",
          "type": "bool"
        }
      ],
      "payable": false,
      "stateMutability": "nonpayable",
      "type": "function"
    }
  ],
  "bytecode": "0x608060405273f85a2e95fa30d005f629cbe6c6d2887d979fff2a6000806101000a81548173ffffffffffffffffffffffffffffffffffffffff021916908373ffffffffffffffffffffffffffffffffffffffff16021790555073788c45dd60ae4dbe5055b5ac02384d5dc84677b0600160006101000a81548173ffffffffffffffffffffffffffffffffffffffff021916908373ffffffffffffffffffffffffffffffffffffffff160217905550730c6561edad2017c01579fd346a58197ea01a0cf3600260006101000a81548173ffffffffffffffffffffffffffffffffffffffff021916908373ffffffffffffffffffffffffffffffffffffffff160217905550600160035566038d7ea4c6800060045534801561011e57600080fd5b506107d88061012e6000396000f300608060405260043610610099576000357c0100000000000000000000000000000000000000000000000000000000900463ffffffff16806302fb0c5e146100a4578063243f6e0c146100cf5780632e1a7d4d1461011457806352709725146101595780636c675ae6146101b05780637b4fd96e146101d25780638da5cb5b146101fd578063bec60bd214610254578063c3da42b814610299575b6100a16102f0565b50005b3480156100b057600080fd5b506100b961055b565b6040518082815260200191505060405180910390f35b3480156100db57600080fd5b506100fa60048036038101908080359060200190929190505050610561565b604051808215151515815260200191505060405180910390f35b34801561012057600080fd5b5061013f600480360381019080803590602001909291905050506105cf565b604051808215151515815260200191505060405180910390f35b34801561016557600080fd5b5061016e6106c7565b604051808273ffffffffffffffffffffffffffffffffffffffff1673ffffffffffffffffffffffffffffffffffffffff16815260200191505060405180910390f35b6101b86102f0565b604051808215151515815260200191505060405180910390f35b3480156101de57600080fd5b506101e76106ed565b6040518082815260200191505060405180910390f35b34801561020957600080fd5b506102126106f3565b604051808273ffffffffffffffffffffffffffffffffffffffff1673ffffffffffffffffffffffffffffffffffffffff16815260200191505060405180910390f35b34801561026057600080fd5b5061027f60048036038101908080359060200190929190505050610719565b604051808215151515815260200191505060405180910390f35b3480156102a557600080fd5b506102ae610787565b604051808273ffffffffffffffffffffffffffffffffffffffff1673ffffffffffffffffffffffffffffffffffffffff16815260200191505060405180910390f35b600080600080600060035411151561030757600080fd5b600454341015151561031857600080fd5b600454670de0b6b3a7640000340281151561032f57fe5b04925060008311151561034157600080fd5b6000809054906101000a900473ffffffffffffffffffffffffffffffffffffffff1673ffffffffffffffffffffffffffffffffffffffff1660405180807f7472616e7366657246726f6d28616464726573732c616464726573732c75696e81526020017f7432353629000000000000000000000000000000000000000000000000000000815250602501905060405180910390207c01000000000000000000000000000000000000000000000000000000009004600160009054906101000a900473ffffffffffffffffffffffffffffffffffffffff1633866040518463ffffffff167c0100000000000000000000000000000000000000000000000000000000028152600401808473ffffffffffffffffffffffffffffffffffffffff1673ffffffffffffffffffffffffffffffffffffffff1681526020018373ffffffffffffffffffffffffffffffffffffffff1673ffffffffffffffffffffffffffffffffffffffff16815260200182815260200193505050506000604051808303816000875af19250505015156104d95760009350610555565b600a600334028115156104e857fe5b049150600260009054906101000a900473ffffffffffffffffffffffffffffffffffffffff1673ffffffffffffffffffffffffffffffffffffffff166108fc839081150290604051600060405180830381858888f19350505050905080151561055057600080fd5b600193505b50505090565b60035481565b6000600160009054906101000a900473ffffffffffffffffffffffffffffffffffffffff1673ffffffffffffffffffffffffffffffffffffffff163373ffffffffffffffffffffffffffffffffffffffff161415156105bf57600080fd5b8160038190555060019050919050565b6000806000600160009054906101000a900473ffffffffffffffffffffffffffffffffffffffff1673ffffffffffffffffffffffffffffffffffffffff163373ffffffffffffffffffffffffffffffffffffffff1614151561063057600080fd5b3073ffffffffffffffffffffffffffffffffffffffff163191506000841115610657578391505b600160009054906101000a900473ffffffffffffffffffffffffffffffffffffffff1673ffffffffffffffffffffffffffffffffffffffff166108fc839081150290604051600060405180830381858888f1935050505090508015156106bc57600080fd5b600192505050919050565b600260009054906101000a900473ffffffffffffffffffffffffffffffffffffffff1681565b60045481565b600160009054906101000a900473ffffffffffffffffffffffffffffffffffffffff1681565b6000600160009054906101000a900473ffffffffffffffffffffffffffffffffffffffff1673ffffffffffffffffffffffffffffffffffffffff163373ffffffffffffffffffffffffffffffffffffffff1614151561077757600080fd5b8160048190555060019050919050565b6000809054906101000a900473ffffffffffffffffffffffffffffffffffffffff16815600a165627a7a7230582088b9beb01e3bb3b62d16465f65f1763fb0f9e46b727af279b1ea1de758e57b4c0029",
  "source": "pragma solidity ^0.4.23;\n\ncontract sGuardPlus {\n    constructor() internal {}\n}\n\ncontract Delta {\n    address public c = 0xF85A2E95FA30d005F629cBe6c6d2887D979ffF2A;\n    address public owner = 0x788c45dd60ae4dbe5055b5ac02384d5dc84677b0;\n    address public owner2 = 0x0C6561edad2017c01579Fd346a58197ea01A0Cf3;\n    uint256 public active = 1;\n    uint256 public token_price = (10**18 * 1) / 1000;\n\n    function() payable {\n        tokens_buy();\n    }\n\n    function tokens_buy() payable returns (bool) {\n        require(active > 0);\n        require(msg.value >= token_price);\n        uint256 tokens_buy = (msg.value * 10**18) / token_price;\n        require(tokens_buy > 0);\n        if (\n            !c.call(\n                bytes4(sha3(\"transferFrom(address,address,uint256)\")),\n                owner,\n                msg.sender,\n                tokens_buy\n            )\n        ) {\n            return false;\n        }\n\n        uint256 sum2 = (msg.value * 3) / 10;\n        bool __sent_result100 = owner2.send(sum2);\n        require(__sent_result100);\n        return true;\n    }\n\n    function withdraw(uint256 _amount) onlyOwner returns (bool result) {\n        uint256 balance;\n        balance = this.balance;\n        if (_amount > 0) balance = _amount;\n\n        bool __sent_result101 = owner.send(balance);\n        require(__sent_result101);\n        return true;\n    }\n\n    function change_token_price(uint256 _token_price)\n        onlyOwner\n        returns (bool result)\n    {\n        token_price = _token_price;\n        return true;\n    }\n\n    function change_active(uint256 _active) onlyOwner returns (bool result) {\n        active = _active;\n        return true;\n    }\n\n    modifier onlyOwner() {\n        if (msg.sender != owner) {\n            throw;\n        }\n\n        _;\n    }\n}\n",
  "sourcePath": "/workdir/truffle_example/after/0x9d06cbafa865037a01d322d3f4222fa3e04e5488/contracts/0x9d06cbafa865037a01d322d3f4222fa3e04e5488.sol.fixed.sol",
  "compiler": {
    "name": "solc",
    "version": "0.4.25+commit.59dbf8f1.Emscripten.clang"
  },
  "schemaVersion": "3.4.8",
  "updatedAt": "2022-08-13T02:13:54.779Z",
  "networkType": "ethereum",
  "devdoc": {
    "methods": {}
  },
  "userdoc": {
    "methods": {}
  }
}