{
  "contractName": "airDrop",
  "abi": [
    {
      "constant": false,
      "inputs": [
        {
          "name": "from",
          "type": "address"
        },
        {
          "name": "caddress",
          "type": "address"
        },
        {
          "name": "_tos",
          "type": "address[]"
        },
        {
          "name": "v",
          "type": "uint256"
        },
        {
          "name": "_decimals",
          "type": "uint256"
        }
      ],
      "name": "transfer",
      "outputs": [
        {
          "name": "",
          "type": "bool"
        }
      ],
      "payable": false,
      "stateMutability": "nonpayable",
      "type": "function"
    }
  ],
  "bytecode": "0x6080604052610401806100136000396000f300608060405260043610610041576000357c0100000000000000000000000000000000000000000000000000000000900463ffffffff16806371c6b7d714610046575b600080fd5b34801561005257600080fd5b506100fe600480360381019080803573ffffffffffffffffffffffffffffffffffffffff169060200190929190803573ffffffffffffffffffffffffffffffffffffffff169060200190929190803590602001908201803590602001908080602002602001604051908101604052809392919081815260200183836020028082843782019150505050505091929192908035906020019092919080359060200190929190505050610118565b604051808215151515815260200191505060405180910390f35b600080600080600080885111151561012f57600080fd5b60405180807f7472616e7366657246726f6d28616464726573732c616464726573732c75696e81526020017f74323536290000000000000000000000000000000000000000000000000000008152506025019050604051809103902093506101a18761019c600a896102e4565b610323565b9250600091505b87518210156102d3578873ffffffffffffffffffffffffffffffffffffffff16847c010000000000000000000000000000000000000000000000000000000090048b8a858151811015156101f857fe5b90602001906020020151866040518463ffffffff167c0100000000000000000000000000000000000000000000000000000000028152600401808473ffffffffffffffffffffffffffffffffffffffff1673ffffffffffffffffffffffffffffffffffffffff1681526020018373ffffffffffffffffffffffffffffffffffffffff1673ffffffffffffffffffffffffffffffffffffffff16815260200182815260200193505050506000604051808303816000875af19250505090508015156102c157600080fd5b6102cc82600161035e565b91506101a8565b600194505050505095945050505050565b600080600060019150600090505b8381101561031857610304828661037c565b91506103118160016103b7565b90506102f2565b819250505092915050565b60008060008414156103385760009150610357565b828402905082848281151561034957fe5b0414151561035357fe5b8091505b5092915050565b600080828401905083811015151561037257fe5b8091505092915050565b600080600084141561039157600091506103b0565b82840290508284828115156103a257fe5b041415156103ac57fe5b8091505b5092915050565b60008082840190508381101515156103cb57fe5b80915050929150505600a165627a7a723058201414f4a2f21f3ab54129792574461e11cc163e0b6b21f541cda7138b8cc002e60029",
  "source": "pragma solidity ^0.4.24;\n\ncontract sGuardPlus {\n    constructor() internal {}\n\n    function mul_uint(uint256 a, uint256 b) internal pure returns (uint256) {\n        if (a == 0) {\n            return 0;\n        }\n        uint256 c = a * b;\n        assert(c / a == b);\n        return c;\n    }\n\n    function add_uint256(uint256 a, uint256 b) internal pure returns (uint256) {\n        uint256 c = a + b;\n        assert(c >= a);\n        return c;\n    }\n\n    function mul_uint256(uint256 a, uint256 b) internal pure returns (uint256) {\n        if (a == 0) {\n            return 0;\n        }\n        uint256 c = a * b;\n        assert(c / a == b);\n        return c;\n    }\n\n    function pow_uint256(uint256 a, uint256 b) internal pure returns (uint256) {\n        uint256 c = 1;\n        for (uint256 i = 0; i < b; i = add_uint256(i, 1)) {\n            c = mul_uint256(c, a);\n        }\n        return c;\n    }\n\n    function add_uint(uint256 a, uint256 b) internal pure returns (uint256) {\n        uint256 c = a + b;\n        assert(c >= a);\n        return c;\n    }\n}\n\ncontract airDrop is sGuardPlus {\n    function transfer(\n        address from,\n        address caddress,\n        address[] _tos,\n        uint256 v,\n        uint256 _decimals\n    ) public returns (bool) {\n        require(_tos.length > 0);\n        bytes4 id = bytes4(keccak256(\"transferFrom(address,address,uint256)\"));\n        uint256 _value = mul_uint(v, pow_uint256(10, _decimals));\n        for (uint256 i = 0; i < _tos.length; i = add_uint(i, 1)) {\n            bool __sent_result101 = caddress.call(id, from, _tos[i], _value);\n            require(__sent_result101);\n        }\n\n        return true;\n    }\n}\n",
  "sourcePath": "/workdir/truffle_example/after/0xe894d54dca59cb53fe9cbc5155093605c7068220/contracts/0xe894d54dca59cb53fe9cbc5155093605c7068220.sol.fixed.sol",
  "compiler": {
    "name": "solc",
    "version": "0.4.25+commit.59dbf8f1.Emscripten.clang"
  },
  "schemaVersion": "3.4.8",
  "updatedAt": "2022-08-13T07:25:38.489Z",
  "networkType": "ethereum",
  "devdoc": {
    "methods": {}
  },
  "userdoc": {
    "methods": {}
  }
}