{
  "contractName": "Ownable",
  "abi": [
    {
      "constant": false,
      "inputs": [
        {
          "name": "addr",
          "type": "address"
        }
      ],
      "name": "changeOwner",
      "outputs": [],
      "payable": false,
      "stateMutability": "nonpayable",
      "type": "function"
    },
    {
      "constant": false,
      "inputs": [],
      "name": "confirmOwner",
      "outputs": [],
      "payable": false,
      "stateMutability": "nonpayable",
      "type": "function"
    }
  ],
  "bytecode": "0x608060405233600160006101000a81548173ffffffffffffffffffffffffffffffffffffffff021916908373ffffffffffffffffffffffffffffffffffffffff16021790555034801561005157600080fd5b5061022b806100616000396000f30060806040526004361061004c576000357c0100000000000000000000000000000000000000000000000000000000900463ffffffff168063a6f9dae114610051578063bd9b6d8614610094575b600080fd5b34801561005d57600080fd5b50610092600480360381019080803573ffffffffffffffffffffffffffffffffffffffff1690602001909291905050506100ab565b005b3480156100a057600080fd5b506100a9610145565b005b3373ffffffffffffffffffffffffffffffffffffffff16600160009054906101000a900473ffffffffffffffffffffffffffffffffffffffff1673ffffffffffffffffffffffffffffffffffffffff16141561014257806000806101000a81548173ffffffffffffffffffffffffffffffffffffffff021916908373ffffffffffffffffffffffffffffffffffffffff1602179055505b50565b6000809054906101000a900473ffffffffffffffffffffffffffffffffffffffff1673ffffffffffffffffffffffffffffffffffffffff163373ffffffffffffffffffffffffffffffffffffffff1614156101fd576000809054906101000a900473ffffffffffffffffffffffffffffffffffffffff16600160006101000a81548173ffffffffffffffffffffffffffffffffffffffff021916908373ffffffffffffffffffffffffffffffffffffffff1602179055505b5600a165627a7a72305820a063e358c6059b220da0440a05f778620a93a4081f2b9a00df04492a8e06cac40029",
  "source": "pragma solidity ^0.4.18;\n\ncontract sGuardPlus {\n    constructor() internal {}\n}\n\ncontract Ownable {\n    address newOwner;\n    address owner = msg.sender;\n\n    function changeOwner(address addr) public onlyOwner {\n        newOwner = addr;\n    }\n\n    function confirmOwner() public {\n        if (msg.sender == newOwner) {\n            owner = newOwner;\n        }\n    }\n\n    modifier onlyOwner() {\n        if (owner == msg.sender) _;\n    }\n}\n\ncontract Token is Ownable {\n    address owner = msg.sender;\n\n    function WithdrawToken(\n        address token,\n        uint256 amount,\n        address to\n    ) public onlyOwner {\n        bool __sent_result100 = token.call(\n            bytes4(sha3(\"transfer(address,uint256)\")),\n            to,\n            amount\n        );\n        require(__sent_result100);\n    }\n}\n\ncontract TokenBank is Token {\n    uint256 public MinDeposit;\n    mapping(address => uint256) public Holders;\n\n    function initTokenBank() public {\n        owner = msg.sender;\n        MinDeposit = 1 ether;\n    }\n\n    function() payable {\n        Deposit();\n    }\n\n    function Deposit() payable {\n        if (msg.value > MinDeposit) {\n            Holders[msg.sender] += msg.value;\n        }\n    }\n\n    function WitdrawTokenToHolder(\n        address _to,\n        address _token,\n        uint256 _amount\n    ) public onlyOwner {\n        if (Holders[_to] > 0) {\n            Holders[_to] = 0;\n            WithdrawToken(_token, _amount, _to);\n        }\n    }\n\n    function WithdrawToHolder(address _addr, uint256 _wei)\n        public\n        payable\n        onlyOwner\n    {\n        if (Holders[msg.sender] > 0) {\n            if (Holders[_addr] >= _wei) {\n                _addr.call.value(_wei);\n                Holders[_addr] -= _wei;\n            }\n        }\n    }\n}\n",
  "sourcePath": "/workdir/truffle_example/after/0x39cfd754c85023648bf003bea2dd498c5612abfa/contracts/0x39cfd754c85023648bf003bea2dd498c5612abfa.sol.fixed.sol",
  "compiler": {
    "name": "solc",
    "version": "0.4.25+commit.59dbf8f1.Emscripten.clang"
  },
  "schemaVersion": "3.4.8",
  "updatedAt": "2022-08-13T02:32:38.970Z",
  "devdoc": {
    "methods": {}
  },
  "userdoc": {
    "methods": {}
  }
}