{
  "contractName": "Krown",
  "abi": [
    {
      "constant": true,
      "inputs": [],
      "name": "decentralizedEconomy",
      "outputs": [
        {
          "name": "",
          "type": "string"
        }
      ],
      "payable": false,
      "stateMutability": "view",
      "type": "function"
    },
    {
      "constant": true,
      "inputs": [],
      "name": "name",
      "outputs": [
        {
          "name": "",
          "type": "string"
        }
      ],
      "payable": false,
      "stateMutability": "view",
      "type": "function"
    },
    {
      "constant": false,
      "inputs": [
        {
          "name": "_spender",
          "type": "address"
        },
        {
          "name": "_value",
          "type": "uint256"
        }
      ],
      "name": "approve",
      "outputs": [
        {
          "name": "success",
          "type": "bool"
        }
      ],
      "payable": false,
      "stateMutability": "nonpayable",
      "type": "function"
    },
    {
      "constant": true,
      "inputs": [],
      "name": "totalSupply",
      "outputs": [
        {
          "name": "",
          "type": "uint256"
        }
      ],
      "payable": false,
      "stateMutability": "view",
      "type": "function"
    },
    {
      "constant": true,
      "inputs": [],
      "name": "notificationFee",
      "outputs": [
        {
          "name": "",
          "type": "uint256"
        }
      ],
      "payable": false,
      "stateMutability": "view",
      "type": "function"
    },
    {
      "constant": false,
      "inputs": [
        {
          "name": "newPlutocrat",
          "type": "address"
        }
      ],
      "name": "transfekbolPlutocrat",
      "outputs": [],
      "payable": false,
      "stateMutability": "nonpayable",
      "type": "function"
    },
    {
      "constant": true,
      "inputs": [],
      "name": "sign",
      "outputs": [
        {
          "name": "",
          "type": "string"
        }
      ],
      "payable": false,
      "stateMutability": "view",
      "type": "function"
    },
    {
      "constant": true,
      "inputs": [],
      "name": "decimals",
      "outputs": [
        {
          "name": "",
          "type": "uint8"
        }
      ],
      "payable": false,
      "stateMutability": "view",
      "type": "function"
    },
    {
      "constant": true,
      "inputs": [
        {
          "name": "",
          "type": "address"
        }
      ],
      "name": "balanceOf",
      "outputs": [
        {
          "name": "",
          "type": "uint256"
        }
      ],
      "payable": false,
      "stateMutability": "view",
      "type": "function"
    },
    {
      "constant": true,
      "inputs": [],
      "name": "symbol",
      "outputs": [
        {
          "name": "",
          "type": "string"
        }
      ],
      "payable": false,
      "stateMutability": "view",
      "type": "function"
    },
    {
      "constant": true,
      "inputs": [],
      "name": "nominalValue",
      "outputs": [
        {
          "name": "",
          "type": "string"
        }
      ],
      "payable": false,
      "stateMutability": "view",
      "type": "function"
    },
    {
      "constant": true,
      "inputs": [],
      "name": "update",
      "outputs": [
        {
          "name": "",
          "type": "string"
        }
      ],
      "payable": false,
      "stateMutability": "view",
      "type": "function"
    },
    {
      "constant": false,
      "inputs": [
        {
          "name": "newOwner",
          "type": "address"
        }
      ],
      "name": "transfekbolOwnership",
      "outputs": [],
      "payable": false,
      "stateMutability": "nonpayable",
      "type": "function"
    },
    {
      "constant": true,
      "inputs": [],
      "name": "plutocrat",
      "outputs": [
        {
          "name": "",
          "type": "address"
        }
      ],
      "payable": false,
      "stateMutability": "view",
      "type": "function"
    },
    {
      "constant": true,
      "inputs": [
        {
          "name": "",
          "type": "address"
        }
      ],
      "name": "frozenAccount",
      "outputs": [
        {
          "name": "",
          "type": "bool"
        }
      ],
      "payable": false,
      "stateMutability": "view",
      "type": "function"
    },
    {
      "constant": true,
      "inputs": [],
      "name": "website",
      "outputs": [
        {
          "name": "",
          "type": "string"
        }
      ],
      "payable": false,
      "stateMutability": "view",
      "type": "function"
    },
    {
      "constant": false,
      "inputs": [
        {
          "name": "_spender",
          "type": "address"
        },
        {
          "name": "_value",
          "type": "uint256"
        },
        {
          "name": "_extraData",
          "type": "bytes"
        }
      ],
      "name": "approveAndCall",
      "outputs": [
        {
          "name": "success",
          "type": "bool"
        }
      ],
      "payable": false,
      "stateMutability": "nonpayable",
      "type": "function"
    },
    {
      "constant": true,
      "inputs": [
        {
          "name": "",
          "type": "address"
        },
        {
          "name": "",
          "type": "address"
        }
      ],
      "name": "allowance",
      "outputs": [
        {
          "name": "",
          "type": "uint256"
        }
      ],
      "payable": false,
      "stateMutability": "view",
      "type": "function"
    },
    {
      "constant": true,
      "inputs": [],
      "name": "centralAuthority",
      "outputs": [
        {
          "name": "",
          "type": "address"
        }
      ],
      "payable": false,
      "stateMutability": "view",
      "type": "function"
    },
    {
      "inputs": [
        {
          "name": "initialSupply",
          "type": "uint256"
        },
        {
          "name": "tokenName",
          "type": "string"
        },
        {
          "name": "decimalUnits",
          "type": "uint8"
        },
        {
          "name": "tokenSymbol",
          "type": "string"
        },
        {
          "name": "centralMinter",
          "type": "address"
        }
      ],
      "payable": false,
      "stateMutability": "nonpayable",
      "type": "constructor"
    },
    {
      "payable": false,
      "stateMutability": "nonpayable",
      "type": "fallback"
    },
    {
      "anonymous": false,
      "inputs": [
        {
          "indexed": false,
          "name": "target",
          "type": "address"
        },
        {
          "indexed": false,
          "name": "frozen",
          "type": "bool"
        }
      ],
      "name": "FrozenFunds",
      "type": "event"
    },
    {
      "anonymous": false,
      "inputs": [
        {
          "indexed": true,
          "name": "from",
          "type": "address"
        },
        {
          "indexed": true,
          "name": "to",
          "type": "address"
        },
        {
          "indexed": false,
          "name": "value",
          "type": "uint256"
        }
      ],
      "name": "Transfer",
      "type": "event"
    },
    {
      "anonymous": false,
      "inputs": [
        {
          "indexed": true,
          "name": "owner",
          "type": "address"
        },
        {
          "indexed": true,
          "name": "spender",
          "type": "address"
        },
        {
          "indexed": false,
          "name": "value",
          "type": "uint256"
        }
      ],
      "name": "Approval",
      "type": "event"
    },
    {
      "anonymous": false,
      "inputs": [
        {
          "indexed": true,
          "name": "from",
          "type": "address"
        },
        {
          "indexed": true,
          "name": "to",
          "type": "address"
        },
        {
          "indexed": false,
          "name": "value",
          "type": "uint256"
        },
        {
          "indexed": false,
          "name": "duration_in_days",
          "type": "uint256"
        }
      ],
      "name": "InterestFreeLending",
      "type": "event"
    },
    {
      "anonymous": false,
      "inputs": [
        {
          "indexed": true,
          "name": "from",
          "type": "address"
        },
        {
          "indexed": true,
          "name": "to",
          "type": "address"
        },
        {
          "indexed": false,
          "name": "value",
          "type": "uint256"
        },
        {
          "indexed": false,
          "name": "notes",
          "type": "string"
        },
        {
          "indexed": false,
          "name": "reference",
          "type": "string"
        }
      ],
      "name": "Settlement",
      "type": "event"
    },
    {
      "anonymous": false,
      "inputs": [
        {
          "indexed": false,
          "name": "notes",
          "type": "string"
        },
        {
          "indexed": false,
          "name": "reference",
          "type": "string"
        }
      ],
      "name": "AuthorityNotified",
      "type": "event"
    },
    {
      "anonymous": false,
      "inputs": [
        {
          "indexed": false,
          "name": "notes",
          "type": "string"
        },
        {
          "indexed": false,
          "name": "reference",
          "type": "string"
        }
      ],
      "name": "ClientsNotified",
      "type": "event"
    },
    {
      "anonymous": false,
      "inputs": [
        {
          "indexed": true,
          "name": "from",
          "type": "address"
        },
        {
          "indexed": true,
          "name": "to",
          "type": "address"
        },
        {
          "indexed": false,
          "name": "value",
          "type": "uint256"
        },
        {
          "indexed": false,
          "name": "reference",
          "type": "string"
        }
      ],
      "name": "LoanRepaid",
      "type": "event"
    },
    {
      "anonymous": false,
      "inputs": [
        {
          "indexed": true,
          "name": "from",
          "type": "address"
        },
        {
          "indexed": false,
          "name": "value",
          "type": "uint256"
        }
      ],
      "name": "TokenBurnt",
      "type": "event"
    },
    {
      "anonymous": false,
      "inputs": [
        {
          "indexed": false,
          "name": "base_value",
          "type": "string"
        },
        {
          "indexed": false,
          "name": "target_value",
          "type": "string"
        },
        {
          "indexed": false,
          "name": "tax_rate",
          "type": "string"
        },
        {
          "indexed": false,
          "name": "taxed_value",
          "type": "string"
        },
        {
          "indexed": false,
          "name": "notes",
          "type": "string"
        }
      ],
      "name": "EconomyTaxed",
      "type": "event"
    },
    {
      "anonymous": false,
      "inputs": [
        {
          "indexed": false,
          "name": "base_value",
          "type": "string"
        },
        {
          "indexed": false,
          "name": "target_value",
          "type": "string"
        },
        {
          "indexed": false,
          "name": "rebate_rate",
          "type": "string"
        },
        {
          "indexed": false,
          "name": "rebated_value",
          "type": "string"
        },
        {
          "indexed": false,
          "name": "notes",
          "type": "string"
        }
      ],
      "name": "EconomyRebated",
      "type": "event"
    },
    {
      "anonymous": false,
      "inputs": [
        {
          "indexed": false,
          "name": "value",
          "type": "string"
        },
        {
          "indexed": false,
          "name": "notes",
          "type": "string"
        }
      ],
      "name": "PlutocracyAchieved",
      "type": "event"
    },
    {
      "constant": false,
      "inputs": [
        {
          "name": "_to",
          "type": "address"
        },
        {
          "name": "_value",
          "type": "uint256"
        }
      ],
      "name": "transfer",
      "outputs": [],
      "payable": false,
      "stateMutability": "nonpayable",
      "type": "function"
    },
    {
      "constant": false,
      "inputs": [
        {
          "name": "_to",
          "type": "address"
        },
        {
          "name": "_value",
          "type": "uint256"
        },
        {
          "name": "_duration_in_days",
          "type": "uint256"
        }
      ],
      "name": "lend",
      "outputs": [],
      "payable": false,
      "stateMutability": "nonpayable",
      "type": "function"
    },
    {
      "constant": false,
      "inputs": [
        {
          "name": "_to",
          "type": "address"
        },
        {
          "name": "_value",
          "type": "uint256"
        },
        {
          "name": "_reference",
          "type": "string"
        }
      ],
      "name": "repayLoan",
      "outputs": [],
      "payable": false,
      "stateMutability": "nonpayable",
      "type": "function"
    },
    {
      "constant": false,
      "inputs": [
        {
          "name": "_from",
          "type": "address"
        },
        {
          "name": "_value",
          "type": "uint256"
        },
        {
          "name": "_to",
          "type": "address"
        },
        {
          "name": "_notes",
          "type": "string"
        },
        {
          "name": "_reference",
          "type": "string"
        }
      ],
      "name": "settlvlement",
      "outputs": [],
      "payable": false,
      "stateMutability": "nonpayable",
      "type": "function"
    },
    {
      "constant": false,
      "inputs": [
        {
          "name": "_notes",
          "type": "string"
        },
        {
          "name": "_reference",
          "type": "string"
        }
      ],
      "name": "notifyAuthority",
      "outputs": [],
      "payable": false,
      "stateMutability": "nonpayable",
      "type": "function"
    },
    {
      "constant": false,
      "inputs": [
        {
          "name": "_notes",
          "type": "string"
        },
        {
          "name": "_reference",
          "type": "string"
        }
      ],
      "name": "notifylvlClients",
      "outputs": [],
      "payable": false,
      "stateMutability": "nonpayable",
      "type": "function"
    },
    {
      "constant": false,
      "inputs": [
        {
          "name": "_base_value",
          "type": "string"
        },
        {
          "name": "_target_value",
          "type": "string"
        },
        {
          "name": "_tax_rate",
          "type": "string"
        },
        {
          "name": "_taxed_value",
          "type": "string"
        },
        {
          "name": "_notes",
          "type": "string"
        }
      ],
      "name": "taxlvlEconomy",
      "outputs": [],
      "payable": false,
      "stateMutability": "nonpayable",
      "type": "function"
    },
    {
      "constant": false,
      "inputs": [
        {
          "name": "_base_value",
          "type": "string"
        },
        {
          "name": "_target_value",
          "type": "string"
        },
        {
          "name": "_rebate_rate",
          "type": "string"
        },
        {
          "name": "_rebated_value",
          "type": "string"
        },
        {
          "name": "_notes",
          "type": "string"
        }
      ],
      "name": "rebatelvlEconomy",
      "outputs": [],
      "payable": false,
      "stateMutability": "nonpayable",
      "type": "function"
    },
    {
      "constant": false,
      "inputs": [
        {
          "name": "_value",
          "type": "string"
        },
        {
          "name": "_notes",
          "type": "string"
        }
      ],
      "name": "plutocracylvlAchieved",
      "outputs": [],
      "payable": false,
      "stateMutability": "nonpayable",
      "type": "function"
    },
    {
      "constant": false,
      "inputs": [
        {
          "name": "_from",
          "type": "address"
        },
        {
          "name": "_to",
          "type": "address"
        },
        {
          "name": "_value",
          "type": "uint256"
        }
      ],
      "name": "transferFrom",
      "outputs": [
        {
          "name": "success",
          "type": "bool"
        }
      ],
      "payable": false,
      "stateMutability": "nonpayable",
      "type": "function"
    },
    {
      "constant": false,
      "inputs": [
        {
          "name": "target",
          "type": "address"
        },
        {
          "name": "mintedAmount",
          "type": "uint256"
        }
      ],
      "name": "mintlvlToken",
      "outputs": [],
      "payable": false,
      "stateMutability": "nonpayable",
      "type": "function"
    },
    {
      "constant": false,
      "inputs": [
        {
          "name": "_from",
          "type": "address"
        },
        {
          "name": "_value",
          "type": "uint256"
        }
      ],
      "name": "burnlvlToken",
      "outputs": [],
      "payable": false,
      "stateMutability": "nonpayable",
      "type": "function"
    },
    {
      "constant": false,
      "inputs": [
        {
          "name": "target",
          "type": "address"
        },
        {
          "name": "freeze",
          "type": "bool"
        }
      ],
      "name": "freezelvlAccount",
      "outputs": [],
      "payable": false,
      "stateMutability": "nonpayable",
      "type": "function"
    },
    {
      "constant": false,
      "inputs": [
        {
          "name": "newSign",
          "type": "string"
        }
      ],
      "name": "setlvlSign",
      "outputs": [],
      "payable": false,
      "stateMutability": "nonpayable",
      "type": "function"
    },
    {
      "constant": false,
      "inputs": [
        {
          "name": "newNominalValue",
          "type": "string"
        }
      ],
      "name": "setlvlNominalValue",
      "outputs": [],
      "payable": false,
      "stateMutability": "nonpayable",
      "type": "function"
    },
    {
      "constant": false,
      "inputs": [
        {
          "name": "newUpdate",
          "type": "string"
        }
      ],
      "name": "setlvlUpdate",
      "outputs": [],
      "payable": false,
      "stateMutability": "nonpayable",
      "type": "function"
    },
    {
      "constant": false,
      "inputs": [
        {
          "name": "newWebsite",
          "type": "string"
        }
      ],
      "name": "setlvlWebsite",
      "outputs": [],
      "payable": false,
      "stateMutability": "nonpayable",
      "type": "function"
    },
    {
      "constant": false,
      "inputs": [
        {
          "name": "newFee",
          "type": "uint256"
        }
      ],
      "name": "setlvlNfee",
      "outputs": [],
      "payable": false,
      "stateMutability": "nonpayable",
      "type": "function"
    }
  ],
  "bytecode": "0x60806040526040805190810160405280600a81526020017f504c55544f4352414359000000000000000000000000000000000000000000008152506002908051906020019062000051929190620002a2565b503480156200005f57600080fd5b506040516200433138038062004331833981018060405281019080805190602001909291908051820192919060200180519060200190929190805182019291906020018051906020019092919050505084848484336000806101000a81548173ffffffffffffffffffffffffffffffffffffffff021916908373ffffffffffffffffffffffffffffffffffffffff16021790555033600160006101000a81548173ffffffffffffffffffffffffffffffffffffffff021916908373ffffffffffffffffffffffffffffffffffffffff16021790555083600760003373ffffffffffffffffffffffffffffffffffffffff1673ffffffffffffffffffffffffffffffffffffffff1681526020019081526020016000208190555083600681905550826003908051906020019062000197929190620002a2565b508060049080519060200190620001b0929190620002a2565b5081600560006101000a81548160ff021916908360ff1602179055505050505060008173ffffffffffffffffffffffffffffffffffffffff161415156200023257806000806101000a81548173ffffffffffffffffffffffffffffffffffffffff021916908373ffffffffffffffffffffffffffffffffffffffff1602179055505b84600760008060009054906101000a900473ffffffffffffffffffffffffffffffffffffffff1673ffffffffffffffffffffffffffffffffffffffff1673ffffffffffffffffffffffffffffffffffffffff16815260200190815260200160002081905550505050505062000351565b828054600181600116156101000203166002900490600052602060002090601f016020900481019282601f10620002e557805160ff191683800117855562000316565b8280016001018555821562000316579182015b8281111562000315578251825591602001919060010190620002f8565b5b50905062000325919062000329565b5090565b6200034e91905b808211156200034a57600081600090555060010162000330565b5090565b90565b613fd080620003616000396000f3006080604052600436106101cc576000357c0100000000000000000000000000000000000000000000000000000000900463ffffffff168062b79dd9146101de578063064f5dcd1461035f57806306fdde03146103ef578063095ea7b31461047f578063170c28a2146104e457806318160ddd146105315780631bde9bc11461055c5780631ec762a4146106dd578063214847861461074657806322a8fb181461077157806323b872dd146107c05780632670cc14146108455780632ca1512214610888578063313ce567146109185780633a87852814610949578063518adacd146109b257806359758ebe14610a615780636b7a247e14610af45780637082d20314610b5d57806370a0823114610bb45780637c5e694914610c0b57806391d1addb14610c7457806395d89b4114610d235780639bb0489514610db3578063a2e6204514610e43578063a340ceac14610ed3578063a3c9df3f14610f16578063a9059cbb14610f6d578063b414d4b614610fba578063b5a312c614611015578063b6ade10014611062578063be7a154014611111578063beb0a4161461113e578063cae9ca51146111ce578063dd62ed3e14611279578063deaca58e146112f0578063e77ff2f6146113e9575b3480156101d857600080fd5b50600080fd5b3480156101ea57600080fd5b5061035d600480360381019080803590602001908201803590602001908080601f0160208091040260200160405190810160405280939291908181526020018383808284378201915050505050509192919290803590602001908201803590602001908080601f0160208091040260200160405190810160405280939291908181526020018383808284378201915050505050509192919290803590602001908201803590602001908080601f0160208091040260200160405190810160405280939291908181526020018383808284378201915050505050509192919290803590602001908201803590602001908080601f0160208091040260200160405190810160405280939291908181526020018383808284378201915050505050509192919290803590602001908201803590602001908080601f0160208091040260200160405190810160405280939291908181526020018383808284378201915050505050509192919290505050611440565b005b34801561036b57600080fd5b506103746116f2565b6040518080602001828103825283818151815260200191508051906020019080838360005b838110156103b4578082015181840152602081019050610399565b50505050905090810190601f1680156103e15780820380516001836020036101000a031916815260200191505b509250505060405180910390f35b3480156103fb57600080fd5b50610404611790565b6040518080602001828103825283818151815260200191508051906020019080838360005b83811015610444578082015181840152602081019050610429565b50505050905090810190601f1680156104715780820380516001836020036101000a031916815260200191505b509250505060405180910390f35b34801561048b57600080fd5b506104ca600480360381019080803573ffffffffffffffffffffffffffffffffffffffff1690602001909291908035906020019092919050505061182e565b604051808215151515815260200191505060405180910390f35b3480156104f057600080fd5b5061052f600480360381019080803573ffffffffffffffffffffffffffffffffffffffff16906020019092919080359060200190929190505050611920565b005b34801561053d57600080fd5b50610546611b12565b6040518082815260200191505060405180910390f35b34801561056857600080fd5b506106db600480360381019080803590602001908201803590602001908080601f0160208091040260200160405190810160405280939291908181526020018383808284378201915050505050509192919290803590602001908201803590602001908080601f0160208091040260200160405190810160405280939291908181526020018383808284378201915050505050509192919290803590602001908201803590602001908080601f0160208091040260200160405190810160405280939291908181526020018383808284378201915050505050509192919290803590602001908201803590602001908080601f0160208091040260200160405190810160405280939291908181526020018383808284378201915050505050509192919290803590602001908201803590602001908080601f0160208091040260200160405190810160405280939291908181526020018383808284378201915050505050509192919290505050611b18565b005b3480156106e957600080fd5b50610744600480360381019080803590602001908201803590602001908080601f0160208091040260200160405190810160405280939291908181526020018383808284378201915050505050509192919290505050611dca565b005b34801561075257600080fd5b5061075b611e3f565b6040518082815260200191505060405180910390f35b34801561077d57600080fd5b506107be600480360381019080803573ffffffffffffffffffffffffffffffffffffffff169060200190929190803515159060200190929190505050611e45565b005b3480156107cc57600080fd5b5061082b600480360381019080803573ffffffffffffffffffffffffffffffffffffffff169060200190929190803573ffffffffffffffffffffffffffffffffffffffff16906020019092919080359060200190929190505050611fc5565b604051808215151515815260200191505060405180910390f35b34801561085157600080fd5b50610886600480360381019080803573ffffffffffffffffffffffffffffffffffffffff169060200190929190505050612337565b005b34801561089457600080fd5b5061089d6123d7565b6040518080602001828103825283818151815260200191508051906020019080838360005b838110156108dd5780820151818401526020810190506108c2565b50505050905090810190601f16801561090a5780820380516001836020036101000a031916815260200191505b509250505060405180910390f35b34801561092457600080fd5b5061092d612475565b604051808260ff1660ff16815260200191505060405180910390f35b34801561095557600080fd5b506109b0600480360381019080803590602001908201803590602001908080601f0160208091040260200160405190810160405280939291908181526020018383808284378201915050505050509192919290505050612488565b005b3480156109be57600080fd5b50610a5f600480360381019080803590602001908201803590602001908080601f0160208091040260200160405190810160405280939291908181526020018383808284378201915050505050509192919290803590602001908201803590602001908080601f01602080910402602001604051908101604052809392919081815260200183838082843782019150505050505091929192905050506124fd565b005b348015610a6d57600080fd5b50610af2600480360381019080803573ffffffffffffffffffffffffffffffffffffffff16906020019092919080359060200190929190803590602001908201803590602001908080601f01602080910402602001604051908101604052809392919081815260200183838082843782019150505050505091929192905050506127d4565b005b348015610b0057600080fd5b50610b5b600480360381019080803590602001908201803590602001908080601f0160208091040260200160405190810160405280939291908181526020018383808284378201915050505050509192919290505050612aa9565b005b348015610b6957600080fd5b50610bb2600480360381019080803573ffffffffffffffffffffffffffffffffffffffff1690602001909291908035906020019092919080359060200190929190505050612b1e565b005b348015610bc057600080fd5b50610bf5600480360381019080803573ffffffffffffffffffffffffffffffffffffffff169060200190929190505050612d8d565b6040518082815260200191505060405180910390f35b348015610c1757600080fd5b50610c72600480360381019080803590602001908201803590602001908080601f0160208091040260200160405190810160405280939291908181526020018383808284378201915050505050509192919290505050612da5565b005b348015610c8057600080fd5b50610d21600480360381019080803590602001908201803590602001908080601f0160208091040260200160405190810160405280939291908181526020018383808284378201915050505050509192919290803590602001908201803590602001908080601f0160208091040260200160405190810160405280939291908181526020018383808284378201915050505050509192919290505050612e1a565b005b348015610d2f57600080fd5b50610d38612f82565b6040518080602001828103825283818151815260200191508051906020019080838360005b83811015610d78578082015181840152602081019050610d5d565b50505050905090810190601f168015610da55780820380516001836020036101000a031916815260200191505b509250505060405180910390f35b348015610dbf57600080fd5b50610dc8613020565b6040518080602001828103825283818151815260200191508051906020019080838360005b83811015610e08578082015181840152602081019050610ded565b50505050905090810190601f168015610e355780820380516001836020036101000a031916815260200191505b509250505060405180910390f35b348015610e4f57600080fd5b50610e586130be565b6040518080602001828103825283818151815260200191508051906020019080838360005b83811015610e98578082015181840152602081019050610e7d565b50505050905090810190601f168015610ec55780820380516001836020036101000a031916815260200191505b509250505060405180910390f35b348015610edf57600080fd5b50610f14600480360381019080803573ffffffffffffffffffffffffffffffffffffffff16906020019092919050505061315c565b005b348015610f2257600080fd5b50610f2b6131fb565b604051808273ffffffffffffffffffffffffffffffffffffffff1673ffffffffffffffffffffffffffffffffffffffff16815260200191505060405180910390f35b348015610f7957600080fd5b50610fb8600480360381019080803573ffffffffffffffffffffffffffffffffffffffff16906020019092919080359060200190929190505050613221565b005b348015610fc657600080fd5b50610ffb600480360381019080803573ffffffffffffffffffffffffffffffffffffffff169060200190929190505050613478565b604051808215151515815260200191505060405180910390f35b34801561102157600080fd5b50611060600480360381019080803573ffffffffffffffffffffffffffffffffffffffff16906020019092919080359060200190929190505050613498565b005b34801561106e57600080fd5b5061110f600480360381019080803590602001908201803590602001908080601f0160208091040260200160405190810160405280939291908181526020018383808284378201915050505050509192919290803590602001908201803590602001908080601f016020809104026020016040519081016040528093929190818152602001838380828437820191505050505050919291929050505061364a565b005b34801561111d57600080fd5b5061113c600480360381019080803590602001909291905050506137d0565b005b34801561114a57600080fd5b50611153613835565b6040518080602001828103825283818151815260200191508051906020019080838360005b83811015611193578082015181840152602081019050611178565b50505050905090810190601f1680156111c05780820380516001836020036101000a031916815260200191505b509250505060405180910390f35b3480156111da57600080fd5b5061125f600480360381019080803573ffffffffffffffffffffffffffffffffffffffff16906020019092919080359060200190929190803590602001908201803590602001908080601f01602080910402602001604051908101604052809392919081815260200183838082843782019150505050505091929192905050506138d3565b604051808215151515815260200191505060405180910390f35b34801561128557600080fd5b506112da600480360381019080803573ffffffffffffffffffffffffffffffffffffffff169060200190929190803573ffffffffffffffffffffffffffffffffffffffff169060200190929190505050613a56565b6040518082815260200191505060405180910390f35b3480156112fc57600080fd5b506113e7600480360381019080803573ffffffffffffffffffffffffffffffffffffffff16906020019092919080359060200190929190803573ffffffffffffffffffffffffffffffffffffffff169060200190929190803590602001908201803590602001908080601f0160208091040260200160405190810160405280939291908181526020018383808284378201915050505050509192919290803590602001908201803590602001908080601f0160208091040260200160405190810160405280939291908181526020018383808284378201915050505050509192919290505050613a7b565b005b3480156113f557600080fd5b506113fe613ea3565b604051808273ffffffffffffffffffffffffffffffffffffffff1673ffffffffffffffffffffffffffffffffffffffff16815260200191505060405180910390f35b6000809054906101000a900473ffffffffffffffffffffffffffffffffffffffff1673ffffffffffffffffffffffffffffffffffffffff163373ffffffffffffffffffffffffffffffffffffffff1614151561149b57600080fd5b7f7660473ab038c5486b5fc6664e05192d7270b75ae35f9880641c850fb4a34ae2858585858560405180806020018060200180602001806020018060200186810386528b818151815260200191508051906020019080838360005b838110156115115780820151818401526020810190506114f6565b50505050905090810190601f16801561153e5780820380516001836020036101000a031916815260200191505b5086810385528a818151815260200191508051906020019080838360005b8381101561157757808201518184015260208101905061155c565b50505050905090810190601f1680156115a45780820380516001836020036101000a031916815260200191505b50868103845289818151815260200191508051906020019080838360005b838110156115dd5780820151818401526020810190506115c2565b50505050905090810190601f16801561160a5780820380516001836020036101000a031916815260200191505b50868103835288818151815260200191508051906020019080838360005b83811015611643578082015181840152602081019050611628565b50505050905090810190601f1680156116705780820380516001836020036101000a031916815260200191505b50868103825287818151815260200191508051906020019080838360005b838110156116a957808201518184015260208101905061168e565b50505050905090810190601f1680156116d65780820380516001836020036101000a031916815260200191505b509a505050505050505050505060405180910390a15050505050565b60028054600181600116156101000203166002900480601f0160208091040260200160405190810160405280929190818152602001828054600181600116156101000203166002900480156117885780601f1061175d57610100808354040283529160200191611788565b820191906000526020600020905b81548152906001019060200180831161176b57829003601f168201915b505050505081565b60038054600181600116156101000203166002900480601f0160208091040260200160405190810160405280929190818152602001828054600181600116156101000203166002900480156118265780601f106117fb57610100808354040283529160200191611826565b820191906000526020600020905b81548152906001019060200180831161180957829003601f168201915b505050505081565b600081600860003373ffffffffffffffffffffffffffffffffffffffff1673ffffffffffffffffffffffffffffffffffffffff16815260200190815260200160002060008573ffffffffffffffffffffffffffffffffffffffff1673ffffffffffffffffffffffffffffffffffffffff168152602001908152602001600020819055508273ffffffffffffffffffffffffffffffffffffffff163373ffffffffffffffffffffffffffffffffffffffff167f8c5be1e5ebec7d5bd14f71427d1e84f3dd0314c0f7b2291e5b200ac8c7c3b925846040518082815260200191505060405180910390a36001905092915050565b6000809054906101000a900473ffffffffffffffffffffffffffffffffffffffff1673ffffffffffffffffffffffffffffffffffffffff163373ffffffffffffffffffffffffffffffffffffffff1614151561197b57600080fd5b600160009054906101000a900473ffffffffffffffffffffffffffffffffffffffff1673ffffffffffffffffffffffffffffffffffffffff168273ffffffffffffffffffffffffffffffffffffffff1614156119d657600080fd5b80600760008473ffffffffffffffffffffffffffffffffffffffff1673ffffffffffffffffffffffffffffffffffffffff168152602001908152602001600020541015611a2257600080fd5b611a6b600760008473ffffffffffffffffffffffffffffffffffffffff1673ffffffffffffffffffffffffffffffffffffffff1681526020019081526020016000205482613ec8565b600760008473ffffffffffffffffffffffffffffffffffffffff1673ffffffffffffffffffffffffffffffffffffffff16815260200190815260200160002081905550611aba600d5482613ec8565b600d819055508173ffffffffffffffffffffffffffffffffffffffff167f1011952107dd9857c3fc7ee54aaef4f9565140a58923d80c6e15162f7d40a415826040518082815260200191505060405180910390a25050565b600d5481565b6000809054906101000a900473ffffffffffffffffffffffffffffffffffffffff1673ffffffffffffffffffffffffffffffffffffffff163373ffffffffffffffffffffffffffffffffffffffff16141515611b7357600080fd5b7fcd4d1664a3315492ae35419cbc6d6a3fba17f265d011527200cbaf458ac1fbb0858585858560405180806020018060200180602001806020018060200186810386528b818151815260200191508051906020019080838360005b83811015611be9578082015181840152602081019050611bce565b50505050905090810190601f168015611c165780820380516001836020036101000a031916815260200191505b5086810385528a818151815260200191508051906020019080838360005b83811015611c4f578082015181840152602081019050611c34565b50505050905090810190601f168015611c7c5780820380516001836020036101000a031916815260200191505b50868103845289818151815260200191508051906020019080838360005b83811015611cb5578082015181840152602081019050611c9a565b50505050905090810190601f168015611ce25780820380516001836020036101000a031916815260200191505b50868103835288818151815260200191508051906020019080838360005b83811015611d1b578082015181840152602081019050611d00565b50505050905090810190601f168015611d485780820380516001836020036101000a031916815260200191505b50868103825287818151815260200191508051906020019080838360005b83811015611d81578082015181840152602081019050611d66565b50505050905090810190601f168015611dae5780820380516001836020036101000a031916815260200191505b509a505050505050505050505060405180910390a15050505050565b6000809054906101000a900473ffffffffffffffffffffffffffffffffffffffff1673ffffffffffffffffffffffffffffffffffffffff163373ffffffffffffffffffffffffffffffffffffffff16141515611e2557600080fd5b80600c9080519060200190611e3b929190613eff565b5050565b600e5481565b6000809054906101000a900473ffffffffffffffffffffffffffffffffffffffff1673ffffffffffffffffffffffffffffffffffffffff163373ffffffffffffffffffffffffffffffffffffffff16141515611ea057600080fd5b600160009054906101000a900473ffffffffffffffffffffffffffffffffffffffff1673ffffffffffffffffffffffffffffffffffffffff168273ffffffffffffffffffffffffffffffffffffffff161415611efb57600080fd5b80600f60008473ffffffffffffffffffffffffffffffffffffffff1673ffffffffffffffffffffffffffffffffffffffff16815260200190815260200160002060006101000a81548160ff0219169083151502179055507f48335238b4855f35377ed80f164e8c6f3c366e54ac00b96a6402d4a9814a03a58282604051808373ffffffffffffffffffffffffffffffffffffffff1673ffffffffffffffffffffffffffffffffffffffff168152602001821515151581526020019250505060405180910390a15050565b6000808373ffffffffffffffffffffffffffffffffffffffff161415611fea57600080fd5b600f60008573ffffffffffffffffffffffffffffffffffffffff1673ffffffffffffffffffffffffffffffffffffffff16815260200190815260200160002060009054906101000a900460ff161561204157600080fd5b81600760008673ffffffffffffffffffffffffffffffffffffffff1673ffffffffffffffffffffffffffffffffffffffff16815260200190815260200160002054101561208d57600080fd5b600760008473ffffffffffffffffffffffffffffffffffffffff1673ffffffffffffffffffffffffffffffffffffffff1681526020019081526020016000205482600760008673ffffffffffffffffffffffffffffffffffffffff1673ffffffffffffffffffffffffffffffffffffffff1681526020019081526020016000205401101561211a57600080fd5b600860008573ffffffffffffffffffffffffffffffffffffffff1673ffffffffffffffffffffffffffffffffffffffff16815260200190815260200160002060003373ffffffffffffffffffffffffffffffffffffffff1673ffffffffffffffffffffffffffffffffffffffff168152602001908152602001600020548211156121a357600080fd5b81600760008673ffffffffffffffffffffffffffffffffffffffff1673ffffffffffffffffffffffffffffffffffffffff1681526020019081526020016000206000828254039250508190555081600760008573ffffffffffffffffffffffffffffffffffffffff1673ffffffffffffffffffffffffffffffffffffffff1681526020019081526020016000206000828254019250508190555081600860008673ffffffffffffffffffffffffffffffffffffffff1673ffffffffffffffffffffffffffffffffffffffff16815260200190815260200160002060003373ffffffffffffffffffffffffffffffffffffffff1673ffffffffffffffffffffffffffffffffffffffff168152602001908152602001600020600082825403925050819055508273ffffffffffffffffffffffffffffffffffffffff168473ffffffffffffffffffffffffffffffffffffffff167fddf252ad1be2c89b69c2b068fc378daa952ba7f163c4a11628f55a4df523b3ef846040518082815260200191505060405180910390a3600190509392505050565b600160009054906101000a900473ffffffffffffffffffffffffffffffffffffffff1673ffffffffffffffffffffffffffffffffffffffff163373ffffffffffffffffffffffffffffffffffffffff1614151561239357600080fd5b80600160006101000a81548173ffffffffffffffffffffffffffffffffffffffff021916908373ffffffffffffffffffffffffffffffffffffffff16021790555050565b600b8054600181600116156101000203166002900480601f01602080910402602001604051908101604052809291908181526020018280546001816001161561010002031660029004801561246d5780601f106124425761010080835404028352916020019161246d565b820191906000526020600020905b81548152906001019060200180831161245057829003601f168201915b505050505081565b600560009054906101000a900460ff1681565b6000809054906101000a900473ffffffffffffffffffffffffffffffffffffffff1673ffffffffffffffffffffffffffffffffffffffff163373ffffffffffffffffffffffffffffffffffffffff161415156124e357600080fd5b80600990805190602001906124f9929190613eff565b5050565b600e54600760003373ffffffffffffffffffffffffffffffffffffffff1673ffffffffffffffffffffffffffffffffffffffff16815260200190815260200160002054101561254b57600080fd5b60428151111561255a57600080fd5b60408251111561256957600080fd5b6125b4600760003373ffffffffffffffffffffffffffffffffffffffff1673ffffffffffffffffffffffffffffffffffffffff16815260200190815260200160002054600e54613ec8565b600760003373ffffffffffffffffffffffffffffffffffffffff1673ffffffffffffffffffffffffffffffffffffffff16815260200190815260200160002081905550612663600760008060009054906101000a900473ffffffffffffffffffffffffffffffffffffffff1673ffffffffffffffffffffffffffffffffffffffff1673ffffffffffffffffffffffffffffffffffffffff16815260200190815260200160002054600e54613ee1565b600760008060009054906101000a900473ffffffffffffffffffffffffffffffffffffffff1673ffffffffffffffffffffffffffffffffffffffff1673ffffffffffffffffffffffffffffffffffffffff168152602001908152602001600020819055507f700dd5eb553726860a6e65d2f1e16cf1cf1fcd2477beb5dd80b5aec14e57cd8c8282604051808060200180602001838103835285818151815260200191508051906020019080838360005b8381101561272e578082015181840152602081019050612713565b50505050905090810190601f16801561275b5780820380516001836020036101000a031916815260200191505b50838103825284818151815260200191508051906020019080838360005b83811015612794578082015181840152602081019050612779565b50505050905090810190601f1680156127c15780820380516001836020036101000a031916815260200191505b5094505050505060405180910390a15050565b60008373ffffffffffffffffffffffffffffffffffffffff1614156127f857600080fd5b81600760003373ffffffffffffffffffffffffffffffffffffffff1673ffffffffffffffffffffffffffffffffffffffff16815260200190815260200160002054101561284457600080fd5b600760008473ffffffffffffffffffffffffffffffffffffffff1673ffffffffffffffffffffffffffffffffffffffff1681526020019081526020016000205482600760008673ffffffffffffffffffffffffffffffffffffffff1673ffffffffffffffffffffffffffffffffffffffff168152602001908152602001600020540110156128d157600080fd5b600f60003373ffffffffffffffffffffffffffffffffffffffff1673ffffffffffffffffffffffffffffffffffffffff16815260200190815260200160002060009054906101000a900460ff161561292857600080fd5b6042815114151561293857600080fd5b81600760003373ffffffffffffffffffffffffffffffffffffffff1673ffffffffffffffffffffffffffffffffffffffff1681526020019081526020016000206000828254039250508190555081600760008573ffffffffffffffffffffffffffffffffffffffff1673ffffffffffffffffffffffffffffffffffffffff168152602001908152602001600020600082825401925050819055508273ffffffffffffffffffffffffffffffffffffffff163373ffffffffffffffffffffffffffffffffffffffff167f7728c75a25ae68f7d4fafc7c48be9aae8756a9b8ccffff12b524ef4ea9ba1afc84846040518083815260200180602001828103825283818151815260200191508051906020019080838360005b83811015612a69578082015181840152602081019050612a4e565b50505050905090810190601f168015612a965780820380516001836020036101000a031916815260200191505b50935050505060405180910390a3505050565b6000809054906101000a900473ffffffffffffffffffffffffffffffffffffffff1673ffffffffffffffffffffffffffffffffffffffff163373ffffffffffffffffffffffffffffffffffffffff16141515612b0457600080fd5b80600b9080519060200190612b1a929190613eff565b5050565b60008373ffffffffffffffffffffffffffffffffffffffff161415612b4257600080fd5b81600760003373ffffffffffffffffffffffffffffffffffffffff1673ffffffffffffffffffffffffffffffffffffffff168152602001908152602001600020541015612b8e57600080fd5b600760008473ffffffffffffffffffffffffffffffffffffffff1673ffffffffffffffffffffffffffffffffffffffff1681526020019081526020016000205482600760008673ffffffffffffffffffffffffffffffffffffffff1673ffffffffffffffffffffffffffffffffffffffff16815260200190815260200160002054011015612c1b57600080fd5b600f60003373ffffffffffffffffffffffffffffffffffffffff1673ffffffffffffffffffffffffffffffffffffffff16815260200190815260200160002060009054906101000a900460ff1615612c7257600080fd5b618d27811115612c8157600080fd5b81600760003373ffffffffffffffffffffffffffffffffffffffff1673ffffffffffffffffffffffffffffffffffffffff1681526020019081526020016000206000828254039250508190555081600760008573ffffffffffffffffffffffffffffffffffffffff1673ffffffffffffffffffffffffffffffffffffffff168152602001908152602001600020600082825401925050819055508273ffffffffffffffffffffffffffffffffffffffff163373ffffffffffffffffffffffffffffffffffffffff167f6bacdc87ed4f01c78549e80c99b8fee66a421728113b4d5bb8b44502139666c38484604051808381526020018281526020019250505060405180910390a3505050565b60076020528060005260406000206000915090505481565b6000809054906101000a900473ffffffffffffffffffffffffffffffffffffffff1673ffffffffffffffffffffffffffffffffffffffff163373ffffffffffffffffffffffffffffffffffffffff16141515612e0057600080fd5b80600a9080519060200190612e16929190613eff565b5050565b6000809054906101000a900473ffffffffffffffffffffffffffffffffffffffff1673ffffffffffffffffffffffffffffffffffffffff163373ffffffffffffffffffffffffffffffffffffffff16141515612e7557600080fd5b7f30a69b5337f856f3145c387be9442f588215a94127de2585e8a24e1cf9effb408282604051808060200180602001838103835285818151815260200191508051906020019080838360005b83811015612edc578082015181840152602081019050612ec1565b50505050905090810190601f168015612f095780820380516001836020036101000a031916815260200191505b50838103825284818151815260200191508051906020019080838360005b83811015612f42578082015181840152602081019050612f27565b50505050905090810190601f168015612f6f5780820380516001836020036101000a031916815260200191505b5094505050505060405180910390a15050565b60048054600181600116156101000203166002900480601f0160208091040260200160405190810160405280929190818152602001828054600181600116156101000203166002900480156130185780601f10612fed57610100808354040283529160200191613018565b820191906000526020600020905b815481529060010190602001808311612ffb57829003601f168201915b505050505081565b60098054600181600116156101000203166002900480601f0160208091040260200160405190810160405280929190818152602001828054600181600116156101000203166002900480156130b65780601f1061308b576101008083540402835291602001916130b6565b820191906000526020600020905b81548152906001019060200180831161309957829003601f168201915b505050505081565b600a8054600181600116156101000203166002900480601f0160208091040260200160405190810160405280929190818152602001828054600181600116156101000203166002900480156131545780601f1061312957610100808354040283529160200191613154565b820191906000526020600020905b81548152906001019060200180831161313757829003601f168201915b505050505081565b600160009054906101000a900473ffffffffffffffffffffffffffffffffffffffff1673ffffffffffffffffffffffffffffffffffffffff163373ffffffffffffffffffffffffffffffffffffffff161415156131b857600080fd5b806000806101000a81548173ffffffffffffffffffffffffffffffffffffffff021916908373ffffffffffffffffffffffffffffffffffffffff16021790555050565b600160009054906101000a900473ffffffffffffffffffffffffffffffffffffffff1681565b60008273ffffffffffffffffffffffffffffffffffffffff16141561324557600080fd5b80600760003373ffffffffffffffffffffffffffffffffffffffff1673ffffffffffffffffffffffffffffffffffffffff16815260200190815260200160002054101561329157600080fd5b600760008373ffffffffffffffffffffffffffffffffffffffff1673ffffffffffffffffffffffffffffffffffffffff1681526020019081526020016000205481600760008573ffffffffffffffffffffffffffffffffffffffff1673ffffffffffffffffffffffffffffffffffffffff1681526020019081526020016000205401101561331e57600080fd5b600f60003373ffffffffffffffffffffffffffffffffffffffff1673ffffffffffffffffffffffffffffffffffffffff16815260200190815260200160002060009054906101000a900460ff161561337557600080fd5b80600760003373ffffffffffffffffffffffffffffffffffffffff1673ffffffffffffffffffffffffffffffffffffffff1681526020019081526020016000206000828254039250508190555080600760008473ffffffffffffffffffffffffffffffffffffffff1673ffffffffffffffffffffffffffffffffffffffff168152602001908152602001600020600082825401925050819055508173ffffffffffffffffffffffffffffffffffffffff163373ffffffffffffffffffffffffffffffffffffffff167fddf252ad1be2c89b69c2b068fc378daa952ba7f163c4a11628f55a4df523b3ef836040518082815260200191505060405180910390a35050565b600f6020528060005260406000206000915054906101000a900460ff1681565b6000809054906101000a900473ffffffffffffffffffffffffffffffffffffffff1673ffffffffffffffffffffffffffffffffffffffff163373ffffffffffffffffffffffffffffffffffffffff161415156134f357600080fd5b61353c600760008473ffffffffffffffffffffffffffffffffffffffff1673ffffffffffffffffffffffffffffffffffffffff1681526020019081526020016000205482613ee1565b600760008473ffffffffffffffffffffffffffffffffffffffff1673ffffffffffffffffffffffffffffffffffffffff1681526020019081526020016000208190555061358b600d5482613ee1565b600d819055503073ffffffffffffffffffffffffffffffffffffffff1660007fddf252ad1be2c89b69c2b068fc378daa952ba7f163c4a11628f55a4df523b3ef836040518082815260200191505060405180910390a38173ffffffffffffffffffffffffffffffffffffffff163073ffffffffffffffffffffffffffffffffffffffff167fddf252ad1be2c89b69c2b068fc378daa952ba7f163c4a11628f55a4df523b3ef836040518082815260200191505060405180910390a35050565b6000809054906101000a900473ffffffffffffffffffffffffffffffffffffffff1673ffffffffffffffffffffffffffffffffffffffff163373ffffffffffffffffffffffffffffffffffffffff161415156136a557600080fd5b6042815111156136b457600080fd5b6040825111156136c357600080fd5b7f96617ba463f31f4e9bd8c916902f5a9c2d6daceeba95335ea4b6a3d9c883943e8282604051808060200180602001838103835285818151815260200191508051906020019080838360005b8381101561372a57808201518184015260208101905061370f565b50505050905090810190601f1680156137575780820380516001836020036101000a031916815260200191505b50838103825284818151815260200191508051906020019080838360005b83811015613790578082015181840152602081019050613775565b50505050905090810190601f1680156137bd5780820380516001836020036101000a031916815260200191505b5094505050505060405180910390a15050565b6000809054906101000a900473ffffffffffffffffffffffffffffffffffffffff1673ffffffffffffffffffffffffffffffffffffffff163373ffffffffffffffffffffffffffffffffffffffff1614151561382b57600080fd5b80600e8190555050565b600c8054600181600116156101000203166002900480601f0160208091040260200160405190810160405280929190818152602001828054600181600116156101000203166002900480156138cb5780601f106138a0576101008083540402835291602001916138cb565b820191906000526020600020905b8154815290600101906020018083116138ae57829003601f168201915b505050505081565b6000808490506138e3858561182e565b15613a4d578073ffffffffffffffffffffffffffffffffffffffff16638f4ffcb1338630876040518563ffffffff167c0100000000000000000000000000000000000000000000000000000000028152600401808573ffffffffffffffffffffffffffffffffffffffff1673ffffffffffffffffffffffffffffffffffffffff1681526020018481526020018373ffffffffffffffffffffffffffffffffffffffff1673ffffffffffffffffffffffffffffffffffffffff16815260200180602001828103825283818151815260200191508051906020019080838360005b838110156139dd5780820151818401526020810190506139c2565b50505050905090810190601f168015613a0a5780820380516001836020036101000a031916815260200191505b5095505050505050600060405180830381600087803b158015613a2c57600080fd5b505af1158015613a40573d6000803e3d6000fd5b5050505060019150613a4e565b5b509392505050565b6008602052816000526040600020602052806000526040600020600091509150505481565b6000809054906101000a900473ffffffffffffffffffffffffffffffffffffffff1673ffffffffffffffffffffffffffffffffffffffff163373ffffffffffffffffffffffffffffffffffffffff16141515613ad657600080fd5b600160009054906101000a900473ffffffffffffffffffffffffffffffffffffffff1673ffffffffffffffffffffffffffffffffffffffff168573ffffffffffffffffffffffffffffffffffffffff161415613b3157600080fd5b60008373ffffffffffffffffffffffffffffffffffffffff161415613b5557600080fd5b83600760008773ffffffffffffffffffffffffffffffffffffffff1673ffffffffffffffffffffffffffffffffffffffff168152602001908152602001600020541015613ba157600080fd5b600760008473ffffffffffffffffffffffffffffffffffffffff1673ffffffffffffffffffffffffffffffffffffffff16815260200190815260200160002054613c2a600760008673ffffffffffffffffffffffffffffffffffffffff1673ffffffffffffffffffffffffffffffffffffffff1681526020019081526020016000205486613ee1565b1015613c3557600080fd5b60428151141515613c4557600080fd5b613c8e600760008773ffffffffffffffffffffffffffffffffffffffff1673ffffffffffffffffffffffffffffffffffffffff1681526020019081526020016000205485613ec8565b600760008773ffffffffffffffffffffffffffffffffffffffff1673ffffffffffffffffffffffffffffffffffffffff16815260200190815260200160002081905550613d1a600760008573ffffffffffffffffffffffffffffffffffffffff1673ffffffffffffffffffffffffffffffffffffffff1681526020019081526020016000205485613ee1565b600760008573ffffffffffffffffffffffffffffffffffffffff1673ffffffffffffffffffffffffffffffffffffffff168152602001908152602001600020819055508273ffffffffffffffffffffffffffffffffffffffff168573ffffffffffffffffffffffffffffffffffffffff167f27315b5fe4cd802d1046669af8e73a445d6ce7b0112c983178668c9e685ac822868585604051808481526020018060200180602001838103835285818151815260200191508051906020019080838360005b83811015613df9578082015181840152602081019050613dde565b50505050905090810190601f168015613e265780820380516001836020036101000a031916815260200191505b50838103825284818151815260200191508051906020019080838360005b83811015613e5f578082015181840152602081019050613e44565b50505050905090810190601f168015613e8c5780820380516001836020036101000a031916815260200191505b509550505050505060405180910390a35050505050565b6000809054906101000a900473ffffffffffffffffffffffffffffffffffffffff1681565b6000828211151515613ed657fe5b818303905092915050565b6000808284019050838110151515613ef557fe5b8091505092915050565b828054600181600116156101000203166002900490600052602060002090601f016020900481019282601f10613f4057805160ff1916838001178555613f6e565b82800160010185558215613f6e579182015b82811115613f6d578251825591602001919060010190613f52565b5b509050613f7b9190613f7f565b5090565b613fa191905b80821115613f9d576000816000905550600101613f85565b5090565b905600a165627a7a72305820a2978ffa367c938a6f31b1935fff1e9e94203092242658b9a7240660591ab6640029",
  "source": "pragma solidity ^0.4.13;\n\ncontract sGuardPlus {\n    constructor() internal {}\n\n    function add_uint256(uint256 a, uint256 b) internal pure returns (uint256) {\n        uint256 c = a + b;\n        assert(c >= a);\n        return c;\n    }\n\n    function sub_uint256(uint256 a, uint256 b) internal pure returns (uint256) {\n        assert(b <= a);\n        return a - b;\n    }\n}\n\ncontract owned {\n    address public centralAuthority;\n    address public plutocrat;\n\n    constructor() {\n        centralAuthority = msg.sender;\n        plutocrat = msg.sender;\n    }\n\n    modifier onlyOwner() {\n        if (msg.sender != centralAuthority) revert();\n\n        _;\n    }\n    modifier onlyPlutocrat() {\n        if (msg.sender != plutocrat) revert();\n\n        _;\n    }\n\n    function transfekbolOwnership(address newOwner) onlyPlutocrat {\n        centralAuthority = newOwner;\n    }\n\n    function transfekbolPlutocrat(address newPlutocrat) onlyPlutocrat {\n        plutocrat = newPlutocrat;\n    }\n}\n\ncontract tokenRecipient {\n    function receiveApproval(\n        address _from,\n        uint256 _value,\n        address _token,\n        bytes _extraData\n    );\n}\n\ncontract token {\n    string public decentralizedEconomy = \"PLUTOCRACY\";\n    string public name;\n    string public symbol;\n    uint8 public decimals;\n    uint256 public totalSupply;\n    mapping(address => uint256) public balanceOf;\n    mapping(address => mapping(address => uint256)) public allowance;\n    event Transfer(address indexed from, address indexed to, uint256 value);\n    event Approval(\n        address indexed owner,\n        address indexed spender,\n        uint256 value\n    );\n    event InterestFreeLending(\n        address indexed from,\n        address indexed to,\n        uint256 value,\n        uint256 duration_in_days\n    );\n    event Settlement(\n        address indexed from,\n        address indexed to,\n        uint256 value,\n        string notes,\n        string reference\n    );\n    event AuthorityNotified(string notes, string reference);\n    event ClientsNotified(string notes, string reference);\n    event LoanRepaid(\n        address indexed from,\n        address indexed to,\n        uint256 value,\n        string reference\n    );\n    event TokenBurnt(address indexed from, uint256 value);\n    event EconomyTaxed(\n        string base_value,\n        string target_value,\n        string tax_rate,\n        string taxed_value,\n        string notes\n    );\n    event EconomyRebated(\n        string base_value,\n        string target_value,\n        string rebate_rate,\n        string rebated_value,\n        string notes\n    );\n    event PlutocracyAchieved(string value, string notes);\n\n    constructor(\n        uint256 initialSupply,\n        string tokenName,\n        uint8 decimalUnits,\n        string tokenSymbol\n    ) {\n        balanceOf[msg.sender] = initialSupply;\n        totalSupply = initialSupply;\n        name = tokenName;\n        symbol = tokenSymbol;\n        decimals = decimalUnits;\n    }\n\n    function transfer(address _to, uint256 _value) {\n        if (_to == 0x0) revert();\n\n        if (balanceOf[msg.sender] < _value) revert();\n\n        if (balanceOf[_to] + _value < balanceOf[_to]) revert();\n\n        balanceOf[msg.sender] -= _value;\n        balanceOf[_to] += _value;\n        Transfer(msg.sender, _to, _value);\n    }\n\n    function approve(address _spender, uint256 _value) returns (bool success) {\n        allowance[msg.sender][_spender] = _value;\n        Approval(msg.sender, _spender, _value);\n        return true;\n    }\n\n    function approveAndCall(\n        address _spender,\n        uint256 _value,\n        bytes _extraData\n    ) returns (bool success) {\n        tokenRecipient spender = tokenRecipient(_spender);\n        if (approve(_spender, _value)) {\n            spender.receiveApproval(msg.sender, _value, this, _extraData);\n            return true;\n        }\n    }\n\n    function transferFrom(\n        address _from,\n        address _to,\n        uint256 _value\n    ) returns (bool success) {\n        if (_to == 0x0) revert();\n\n        if (balanceOf[_from] < _value) revert();\n\n        if (balanceOf[_to] + _value < balanceOf[_to]) revert();\n\n        if (_value > allowance[_from][msg.sender]) revert();\n\n        balanceOf[_from] -= _value;\n        balanceOf[_to] += _value;\n        allowance[_from][msg.sender] -= _value;\n        Transfer(_from, _to, _value);\n        return true;\n    }\n\n    function() {\n        revert();\n    }\n}\n\ncontract Krown is sGuardPlus, owned, token {\n    string public nominalValue;\n    string public update;\n    string public sign;\n    string public website;\n    uint256 public totalSupply;\n    uint256 public notificationFee;\n    mapping(address => bool) public frozenAccount;\n    event FrozenFunds(address target, bool frozen);\n\n    constructor(\n        uint256 initialSupply,\n        string tokenName,\n        uint8 decimalUnits,\n        string tokenSymbol,\n        address centralMinter\n    ) token(initialSupply, tokenName, decimalUnits, tokenSymbol) {\n        if (centralMinter != 0) centralAuthority = centralMinter;\n\n        balanceOf[centralAuthority] = initialSupply;\n    }\n\n    function transfer(address _to, uint256 _value) {\n        if (_to == 0x0) revert();\n\n        if (balanceOf[msg.sender] < _value) revert();\n\n        if (balanceOf[_to] + _value < balanceOf[_to]) revert();\n\n        if (frozenAccount[msg.sender]) revert();\n\n        balanceOf[msg.sender] -= _value;\n        balanceOf[_to] += _value;\n        Transfer(msg.sender, _to, _value);\n    }\n\n    function lend(\n        address _to,\n        uint256 _value,\n        uint256 _duration_in_days\n    ) {\n        if (_to == 0x0) revert();\n\n        if (balanceOf[msg.sender] < _value) revert();\n\n        if (balanceOf[_to] + _value < balanceOf[_to]) revert();\n\n        if (frozenAccount[msg.sender]) revert();\n\n        if (_duration_in_days > 36135) revert();\n\n        balanceOf[msg.sender] -= _value;\n        balanceOf[_to] += _value;\n        InterestFreeLending(msg.sender, _to, _value, _duration_in_days);\n    }\n\n    function repayLoan(\n        address _to,\n        uint256 _value,\n        string _reference\n    ) {\n        if (_to == 0x0) revert();\n\n        if (balanceOf[msg.sender] < _value) revert();\n\n        if (balanceOf[_to] + _value < balanceOf[_to]) revert();\n\n        if (frozenAccount[msg.sender]) revert();\n\n        if (bytes(_reference).length != 66) revert();\n\n        balanceOf[msg.sender] -= _value;\n        balanceOf[_to] += _value;\n        LoanRepaid(msg.sender, _to, _value, _reference);\n    }\n\n    function settlvlement(\n        address _from,\n        uint256 _value,\n        address _to,\n        string _notes,\n        string _reference\n    ) onlyOwner {\n        if (_from == plutocrat) revert();\n\n        if (_to == 0x0) revert();\n\n        if (balanceOf[_from] < _value) revert();\n\n        if (add_uint256(balanceOf[_to], _value) < balanceOf[_to]) revert();\n\n        if (bytes(_reference).length != 66) revert();\n\n        balanceOf[_from] = sub_uint256(balanceOf[_from], _value);\n        balanceOf[_to] = add_uint256(balanceOf[_to], _value);\n        Settlement(_from, _to, _value, _notes, _reference);\n    }\n\n    function notifyAuthority(string _notes, string _reference) {\n        if (balanceOf[msg.sender] < notificationFee) revert();\n\n        if (bytes(_reference).length > 66) revert();\n\n        if (bytes(_notes).length > 64) revert();\n\n        balanceOf[msg.sender] = sub_uint256(\n            balanceOf[msg.sender],\n            notificationFee\n        );\n        balanceOf[centralAuthority] = add_uint256(\n            balanceOf[centralAuthority],\n            notificationFee\n        );\n        AuthorityNotified(_notes, _reference);\n    }\n\n    function notifylvlClients(string _notes, string _reference) onlyOwner {\n        if (bytes(_reference).length > 66) revert();\n\n        if (bytes(_notes).length > 64) revert();\n\n        ClientsNotified(_notes, _reference);\n    }\n\n    function taxlvlEconomy(\n        string _base_value,\n        string _target_value,\n        string _tax_rate,\n        string _taxed_value,\n        string _notes\n    ) onlyOwner {\n        EconomyTaxed(\n            _base_value,\n            _target_value,\n            _tax_rate,\n            _taxed_value,\n            _notes\n        );\n    }\n\n    function rebatelvlEconomy(\n        string _base_value,\n        string _target_value,\n        string _rebate_rate,\n        string _rebated_value,\n        string _notes\n    ) onlyOwner {\n        EconomyRebated(\n            _base_value,\n            _target_value,\n            _rebate_rate,\n            _rebated_value,\n            _notes\n        );\n    }\n\n    function plutocracylvlAchieved(string _value, string _notes) onlyOwner {\n        PlutocracyAchieved(_value, _notes);\n    }\n\n    function transferFrom(\n        address _from,\n        address _to,\n        uint256 _value\n    ) returns (bool success) {\n        if (_to == 0x0) revert();\n\n        if (frozenAccount[_from]) revert();\n\n        if (balanceOf[_from] < _value) revert();\n\n        if (balanceOf[_to] + _value < balanceOf[_to]) revert();\n\n        if (_value > allowance[_from][msg.sender]) revert();\n\n        balanceOf[_from] -= _value;\n        balanceOf[_to] += _value;\n        allowance[_from][msg.sender] -= _value;\n        Transfer(_from, _to, _value);\n        return true;\n    }\n\n    function mintlvlToken(address target, uint256 mintedAmount) onlyOwner {\n        balanceOf[target] = add_uint256(balanceOf[target], mintedAmount);\n        totalSupply = add_uint256(totalSupply, mintedAmount);\n        Transfer(0, this, mintedAmount);\n        Transfer(this, target, mintedAmount);\n    }\n\n    function burnlvlToken(address _from, uint256 _value) onlyOwner {\n        if (_from == plutocrat) revert();\n\n        if (balanceOf[_from] < _value) revert();\n\n        balanceOf[_from] = sub_uint256(balanceOf[_from], _value);\n        totalSupply = sub_uint256(totalSupply, _value);\n        TokenBurnt(_from, _value);\n    }\n\n    function freezelvlAccount(address target, bool freeze) onlyOwner {\n        if (target == plutocrat) revert();\n\n        frozenAccount[target] = freeze;\n        FrozenFunds(target, freeze);\n    }\n\n    function setlvlSign(string newSign) onlyOwner {\n        sign = newSign;\n    }\n\n    function setlvlNominalValue(string newNominalValue) onlyOwner {\n        nominalValue = newNominalValue;\n    }\n\n    function setlvlUpdate(string newUpdate) onlyOwner {\n        update = newUpdate;\n    }\n\n    function setlvlWebsite(string newWebsite) onlyOwner {\n        website = newWebsite;\n    }\n\n    function setlvlNfee(uint256 newFee) onlyOwner {\n        notificationFee = newFee;\n    }\n}\n",
  "sourcePath": "/workdir/truffle_example/after/0x10E886BAcD4A12C21Bb39646751374Eae495B776/contracts/0x10E886BAcD4A12C21Bb39646751374Eae495B776.sol.fixed.sol",
  "compiler": {
    "name": "solc",
    "version": "0.4.25+commit.59dbf8f1.Emscripten.clang"
  },
  "schemaVersion": "3.4.8",
  "updatedAt": "2022-08-13T02:14:58.406Z",
  "networkType": "ethereum",
  "devdoc": {
    "methods": {}
  },
  "userdoc": {
    "methods": {}
  }
}