{
  "contractName": "Owned",
  "abi": [
    {
      "constant": true,
      "inputs": [],
      "name": "owner",
      "outputs": [
        {
          "name": "",
          "type": "address"
        }
      ],
      "payable": false,
      "stateMutability": "view",
      "type": "function"
    },
    {
      "constant": true,
      "inputs": [],
      "name": "newOwner",
      "outputs": [
        {
          "name": "",
          "type": "address"
        }
      ],
      "payable": false,
      "stateMutability": "view",
      "type": "function"
    },
    {
      "inputs": [],
      "payable": false,
      "stateMutability": "nonpayable",
      "type": "constructor"
    },
    {
      "constant": false,
      "inputs": [
        {
          "name": "_newOwner",
          "type": "address"
        }
      ],
      "name": "changeOwner",
      "outputs": [],
      "payable": false,
      "stateMutability": "nonpayable",
      "type": "function"
    },
    {
      "constant": false,
      "inputs": [],
      "name": "acceptOwnership",
      "outputs": [],
      "payable": false,
      "stateMutability": "nonpayable",
      "type": "function"
    },
    {
      "constant": false,
      "inputs": [
        {
          "name": "_dst",
          "type": "address"
        },
        {
          "name": "_value",
          "type": "uint256"
        },
        {
          "name": "_data",
          "type": "bytes"
        }
      ],
      "name": "execute",
      "outputs": [],
      "payable": false,
      "stateMutability": "nonpayable",
      "type": "function"
    }
  ],
  "bytecode": "0x608060405234801561001057600080fd5b50336000806101000a81548173ffffffffffffffffffffffffffffffffffffffff021916908373ffffffffffffffffffffffffffffffffffffffff1602179055506104d7806100606000396000f30060806040526004361061006d576000357c0100000000000000000000000000000000000000000000000000000000900463ffffffff16806379ba5097146100725780638da5cb5b14610089578063a6f9dae1146100e0578063b61d27f614610123578063d4ee1d90146101b6575b600080fd5b34801561007e57600080fd5b5061008761020d565b005b34801561009557600080fd5b5061009e6102c8565b604051808273ffffffffffffffffffffffffffffffffffffffff1673ffffffffffffffffffffffffffffffffffffffff16815260200191505060405180910390f35b3480156100ec57600080fd5b50610121600480360381019080803573ffffffffffffffffffffffffffffffffffffffff1690602001909291905050506102ed565b005b34801561012f57600080fd5b506101b4600480360381019080803573ffffffffffffffffffffffffffffffffffffffff16906020019092919080359060200190929190803590602001908201803590602001908080601f016020809104026020016040519081016040528093929190818152602001838380828437820191505050505050919291929050505061038c565b005b3480156101c257600080fd5b506101cb610485565b604051808273ffffffffffffffffffffffffffffffffffffffff1673ffffffffffffffffffffffffffffffffffffffff16815260200191505060405180910390f35b600160009054906101000a900473ffffffffffffffffffffffffffffffffffffffff1673ffffffffffffffffffffffffffffffffffffffff163373ffffffffffffffffffffffffffffffffffffffff1614156102c657600160009054906101000a900473ffffffffffffffffffffffffffffffffffffffff166000806101000a81548173ffffffffffffffffffffffffffffffffffffffff021916908373ffffffffffffffffffffffffffffffffffffffff1602179055505b565b6000809054906101000a900473ffffffffffffffffffffffffffffffffffffffff1681565b6000809054906101000a900473ffffffffffffffffffffffffffffffffffffffff1673ffffffffffffffffffffffffffffffffffffffff163373ffffffffffffffffffffffffffffffffffffffff1614151561034857600080fd5b80600160006101000a81548173ffffffffffffffffffffffffffffffffffffffff021916908373ffffffffffffffffffffffffffffffffffffffff16021790555050565b60008060009054906101000a900473ffffffffffffffffffffffffffffffffffffffff1673ffffffffffffffffffffffffffffffffffffffff163373ffffffffffffffffffffffffffffffffffffffff161415156103e957600080fd5b8373ffffffffffffffffffffffffffffffffffffffff16838360405180828051906020019080838360005b8381101561042f578082015181840152602081019050610414565b50505050905090810190601f16801561045c5780820380516001836020036101000a031916815260200191505b5091505060006040518083038185875af192505050905080151561047f57600080fd5b50505050565b600160009054906101000a900473ffffffffffffffffffffffffffffffffffffffff16815600a165627a7a723058206ae3dd836bf930aeaf95f311a2caf8e8b766dddb4f84bd3ad877a6592b9a8b580029",
  "source": "pragma solidity ^0.4.16;\n\ncontract sGuardPlus {\n    constructor() internal {}\n}\n\ncontract Owned {\n    modifier onlyOwner() {\n        require(msg.sender == owner);\n        _;\n    }\n    address public owner;\n\n    constructor() {\n        owner = msg.sender;\n    }\n\n    address public newOwner;\n\n    function changeOwner(address _newOwner) onlyOwner {\n        newOwner = _newOwner;\n    }\n\n    function acceptOwnership() {\n        if (msg.sender == newOwner) {\n            owner = newOwner;\n        }\n    }\n\n    function execute(\n        address _dst,\n        uint256 _value,\n        bytes _data\n    ) onlyOwner {\n        bool __sent_result100 = _dst.call.value(_value)(_data);\n        require(__sent_result100);\n    }\n}\n\ncontract Marriage is Owned {\n    string public partner1;\n    string public partner2;\n    uint256 public marriageDate;\n    string public marriageStatus;\n    string public vows;\n    Event[] public majorEvents;\n    Message[] public messages;\n    struct Event {\n        uint256 date;\n        string name;\n        string description;\n        string url;\n    }\n    struct Message {\n        uint256 date;\n        string nameFrom;\n        string text;\n        string url;\n        uint256 value;\n    }\n    modifier areMarried() {\n        require(sha3(marriageStatus) == sha3(\"Married\"));\n        _;\n    }\n\n    constructor(address _owner) {\n        owner = _owner;\n    }\n\n    function numberOfMajorEvents() public constant returns (uint256) {\n        return majorEvents.length;\n    }\n\n    function numberOfMessages() public constant returns (uint256) {\n        return messages.length;\n    }\n\n    function createMarriage(\n        string _partner1,\n        string _partner2,\n        string _vows,\n        string url\n    ) onlyOwner {\n        require(majorEvents.length == 0);\n        partner1 = _partner1;\n        partner2 = _partner2;\n        marriageDate = now;\n        vows = _vows;\n        marriageStatus = \"Married\";\n        majorEvents.push(Event(now, \"Marriage\", vows, url));\n        MajorEvent(\"Marrigage\", vows, url);\n    }\n\n    function setStatus(string status, string url) onlyOwner {\n        marriageStatus = status;\n        setMajorEvent(\"Changed Status\", status, url);\n    }\n\n    function setMajorEvent(\n        string name,\n        string description,\n        string url\n    ) onlyOwner areMarried {\n        majorEvents.push(Event(now, name, description, url));\n        MajorEvent(name, description, url);\n    }\n\n    function sendMessage(\n        string nameFrom,\n        string text,\n        string url\n    ) payable areMarried {\n        if (msg.value > 0) {\n            owner.transfer(this.balance);\n        }\n\n        messages.push(Message(now, nameFrom, text, url, msg.value));\n        MessageSent(nameFrom, text, url, msg.value);\n    }\n\n    event MajorEvent(string name, string description, string url);\n    event MessageSent(\n        string name,\n        string description,\n        string url,\n        uint256 value\n    );\n}\n",
  "sourcePath": "/workdir/truffle_example/after/0x958a8f594101d2c0485a52319f29b2647f2ebc06/contracts/0x958a8f594101d2c0485a52319f29b2647f2ebc06.sol.fixed.sol",
  "compiler": {
    "name": "solc",
    "version": "0.4.25+commit.59dbf8f1.Emscripten.clang"
  },
  "schemaVersion": "3.4.8",
  "updatedAt": "2022-08-13T04:37:05.064Z",
  "devdoc": {
    "methods": {}
  },
  "userdoc": {
    "methods": {}
  }
}