{
  "contractName": "StandardToken",
  "abi": [
    {
      "constant": true,
      "inputs": [],
      "name": "name",
      "outputs": [
        {
          "name": "",
          "type": "string"
        }
      ],
      "payable": false,
      "stateMutability": "view",
      "type": "function"
    },
    {
      "constant": true,
      "inputs": [],
      "name": "totalSupply",
      "outputs": [
        {
          "name": "",
          "type": "uint256"
        }
      ],
      "payable": false,
      "stateMutability": "view",
      "type": "function"
    },
    {
      "constant": true,
      "inputs": [],
      "name": "decimals",
      "outputs": [
        {
          "name": "",
          "type": "uint8"
        }
      ],
      "payable": false,
      "stateMutability": "view",
      "type": "function"
    },
    {
      "constant": true,
      "inputs": [
        {
          "name": "",
          "type": "address"
        }
      ],
      "name": "balanceOf",
      "outputs": [
        {
          "name": "",
          "type": "uint256"
        }
      ],
      "payable": false,
      "stateMutability": "view",
      "type": "function"
    },
    {
      "constant": true,
      "inputs": [],
      "name": "symbol",
      "outputs": [
        {
          "name": "",
          "type": "string"
        }
      ],
      "payable": false,
      "stateMutability": "view",
      "type": "function"
    },
    {
      "constant": true,
      "inputs": [
        {
          "name": "",
          "type": "address"
        },
        {
          "name": "",
          "type": "address"
        }
      ],
      "name": "allowance",
      "outputs": [
        {
          "name": "",
          "type": "uint256"
        }
      ],
      "payable": false,
      "stateMutability": "view",
      "type": "function"
    },
    {
      "inputs": [
        {
          "name": "initialSupply",
          "type": "uint256"
        },
        {
          "name": "tokenName",
          "type": "string"
        },
        {
          "name": "tokenSymbol",
          "type": "string"
        }
      ],
      "payable": false,
      "stateMutability": "nonpayable",
      "type": "constructor"
    },
    {
      "anonymous": false,
      "inputs": [
        {
          "indexed": true,
          "name": "from",
          "type": "address"
        },
        {
          "indexed": true,
          "name": "to",
          "type": "address"
        },
        {
          "indexed": false,
          "name": "value",
          "type": "uint256"
        }
      ],
      "name": "Transfer",
      "type": "event"
    },
    {
      "anonymous": false,
      "inputs": [
        {
          "indexed": true,
          "name": "from",
          "type": "address"
        },
        {
          "indexed": false,
          "name": "value",
          "type": "uint256"
        }
      ],
      "name": "Burn",
      "type": "event"
    },
    {
      "constant": false,
      "inputs": [
        {
          "name": "_from",
          "type": "address"
        },
        {
          "name": "_to",
          "type": "address"
        },
        {
          "name": "_value",
          "type": "uint256"
        }
      ],
      "name": "_transfer",
      "outputs": [],
      "payable": false,
      "stateMutability": "nonpayable",
      "type": "function"
    },
    {
      "constant": false,
      "inputs": [
        {
          "name": "_to",
          "type": "address"
        },
        {
          "name": "_value",
          "type": "uint256"
        }
      ],
      "name": "transfer",
      "outputs": [
        {
          "name": "success",
          "type": "bool"
        }
      ],
      "payable": false,
      "stateMutability": "nonpayable",
      "type": "function"
    },
    {
      "constant": false,
      "inputs": [
        {
          "name": "_from",
          "type": "address"
        },
        {
          "name": "_to",
          "type": "address"
        },
        {
          "name": "_value",
          "type": "uint256"
        }
      ],
      "name": "transferFrom",
      "outputs": [
        {
          "name": "success",
          "type": "bool"
        }
      ],
      "payable": false,
      "stateMutability": "nonpayable",
      "type": "function"
    },
    {
      "constant": false,
      "inputs": [
        {
          "name": "_spender",
          "type": "address"
        },
        {
          "name": "_value",
          "type": "uint256"
        }
      ],
      "name": "approve",
      "outputs": [
        {
          "name": "success",
          "type": "bool"
        }
      ],
      "payable": false,
      "stateMutability": "nonpayable",
      "type": "function"
    },
    {
      "constant": false,
      "inputs": [
        {
          "name": "_spender",
          "type": "address"
        },
        {
          "name": "_value",
          "type": "uint256"
        },
        {
          "name": "_extraData",
          "type": "bytes"
        }
      ],
      "name": "approveAndCall",
      "outputs": [
        {
          "name": "success",
          "type": "bool"
        }
      ],
      "payable": false,
      "stateMutability": "nonpayable",
      "type": "function"
    },
    {
      "constant": false,
      "inputs": [
        {
          "name": "_value",
          "type": "uint256"
        }
      ],
      "name": "burn",
      "outputs": [
        {
          "name": "success",
          "type": "bool"
        }
      ],
      "payable": false,
      "stateMutability": "nonpayable",
      "type": "function"
    },
    {
      "constant": false,
      "inputs": [
        {
          "name": "_from",
          "type": "address"
        },
        {
          "name": "_value",
          "type": "uint256"
        }
      ],
      "name": "burnFrom",
      "outputs": [
        {
          "name": "success",
          "type": "bool"
        }
      ],
      "payable": false,
      "stateMutability": "nonpayable",
      "type": "function"
    }
  ],
  "bytecode": "0x60806040526012600260006101000a81548160ff021916908360ff1602179055503480156200002d57600080fd5b506040516200132f3803806200132f833981018060405281019080805190602001909291908051820192919060200180518201929190505050600260009054906101000a900460ff1660ff16600a0a8302600381905550600354600460003373ffffffffffffffffffffffffffffffffffffffff1673ffffffffffffffffffffffffffffffffffffffff168152602001908152602001600020819055508160009080519060200190620000e292919062000105565b508060019080519060200190620000fb92919062000105565b50505050620001b4565b828054600181600116156101000203166002900490600052602060002090601f016020900481019282601f106200014857805160ff191683800117855562000179565b8280016001018555821562000179579182015b82811115620001785782518255916020019190600101906200015b565b5b5090506200018891906200018c565b5090565b620001b191905b80821115620001ad57600081600090555060010162000193565b5090565b90565b61116b80620001c46000396000f3006080604052600436106100c5576000357c0100000000000000000000000000000000000000000000000000000000900463ffffffff16806306fdde03146100ca578063095ea7b31461015a57806318160ddd146101bf57806323b872dd146101ea57806330e0789e1461026f578063313ce567146102dc57806342966c681461030d57806370a082311461035257806379cc6790146103a957806395d89b411461040e578063a9059cbb1461049e578063cae9ca5114610503578063dd62ed3e146105ae575b600080fd5b3480156100d657600080fd5b506100df610625565b6040518080602001828103825283818151815260200191508051906020019080838360005b8381101561011f578082015181840152602081019050610104565b50505050905090810190601f16801561014c5780820380516001836020036101000a031916815260200191505b509250505060405180910390f35b34801561016657600080fd5b506101a5600480360381019080803573ffffffffffffffffffffffffffffffffffffffff169060200190929190803590602001909291905050506106c3565b604051808215151515815260200191505060405180910390f35b3480156101cb57600080fd5b506101d4610750565b6040518082815260200191505060405180910390f35b3480156101f657600080fd5b50610255600480360381019080803573ffffffffffffffffffffffffffffffffffffffff169060200190929190803573ffffffffffffffffffffffffffffffffffffffff16906020019092919080359060200190929190505050610756565b604051808215151515815260200191505060405180910390f35b34801561027b57600080fd5b506102da600480360381019080803573ffffffffffffffffffffffffffffffffffffffff169060200190929190803573ffffffffffffffffffffffffffffffffffffffff16906020019092919080359060200190929190505050610883565b005b3480156102e857600080fd5b506102f1610b99565b604051808260ff1660ff16815260200191505060405180910390f35b34801561031957600080fd5b5061033860048036038101908080359060200190929190505050610bac565b604051808215151515815260200191505060405180910390f35b34801561035e57600080fd5b50610393600480360381019080803573ffffffffffffffffffffffffffffffffffffffff169060200190929190505050610cb0565b6040518082815260200191505060405180910390f35b3480156103b557600080fd5b506103f4600480360381019080803573ffffffffffffffffffffffffffffffffffffffff16906020019092919080359060200190929190505050610cc8565b604051808215151515815260200191505060405180910390f35b34801561041a57600080fd5b50610423610ee2565b6040518080602001828103825283818151815260200191508051906020019080838360005b83811015610463578082015181840152602081019050610448565b50505050905090810190601f1680156104905780820380516001836020036101000a031916815260200191505b509250505060405180910390f35b3480156104aa57600080fd5b506104e9600480360381019080803573ffffffffffffffffffffffffffffffffffffffff16906020019092919080359060200190929190505050610f80565b604051808215151515815260200191505060405180910390f35b34801561050f57600080fd5b50610594600480360381019080803573ffffffffffffffffffffffffffffffffffffffff16906020019092919080359060200190929190803590602001908201803590602001908080601f0160208091040260200160405190810160405280939291908181526020018383808284378201915050505050509192919290505050610f97565b604051808215151515815260200191505060405180910390f35b3480156105ba57600080fd5b5061060f600480360381019080803573ffffffffffffffffffffffffffffffffffffffff169060200190929190803573ffffffffffffffffffffffffffffffffffffffff16906020019092919050505061111a565b6040518082815260200191505060405180910390f35b60008054600181600116156101000203166002900480601f0160208091040260200160405190810160405280929190818152602001828054600181600116156101000203166002900480156106bb5780601f10610690576101008083540402835291602001916106bb565b820191906000526020600020905b81548152906001019060200180831161069e57829003601f168201915b505050505081565b600081600560003373ffffffffffffffffffffffffffffffffffffffff1673ffffffffffffffffffffffffffffffffffffffff16815260200190815260200160002060008573ffffffffffffffffffffffffffffffffffffffff1673ffffffffffffffffffffffffffffffffffffffff168152602001908152602001600020819055506001905092915050565b60035481565b6000600560008573ffffffffffffffffffffffffffffffffffffffff1673ffffffffffffffffffffffffffffffffffffffff16815260200190815260200160002060003373ffffffffffffffffffffffffffffffffffffffff1673ffffffffffffffffffffffffffffffffffffffff1681526020019081526020016000205482111515156107e357600080fd5b81600560008673ffffffffffffffffffffffffffffffffffffffff1673ffffffffffffffffffffffffffffffffffffffff16815260200190815260200160002060003373ffffffffffffffffffffffffffffffffffffffff1673ffffffffffffffffffffffffffffffffffffffff16815260200190815260200160002060008282540392505081905550610878848484610883565b600190509392505050565b6000808373ffffffffffffffffffffffffffffffffffffffff16141515156108aa57600080fd5b81600460008673ffffffffffffffffffffffffffffffffffffffff1673ffffffffffffffffffffffffffffffffffffffff16815260200190815260200160002054101515156108f857600080fd5b600460008473ffffffffffffffffffffffffffffffffffffffff1673ffffffffffffffffffffffffffffffffffffffff1681526020019081526020016000205482600460008673ffffffffffffffffffffffffffffffffffffffff1673ffffffffffffffffffffffffffffffffffffffff168152602001908152602001600020540111151561098657600080fd5b600460008473ffffffffffffffffffffffffffffffffffffffff1673ffffffffffffffffffffffffffffffffffffffff16815260200190815260200160002054600460008673ffffffffffffffffffffffffffffffffffffffff1673ffffffffffffffffffffffffffffffffffffffff1681526020019081526020016000205401905081600460008673ffffffffffffffffffffffffffffffffffffffff1673ffffffffffffffffffffffffffffffffffffffff1681526020019081526020016000206000828254039250508190555081600460008573ffffffffffffffffffffffffffffffffffffffff1673ffffffffffffffffffffffffffffffffffffffff168152602001908152602001600020600082825401925050819055508273ffffffffffffffffffffffffffffffffffffffff168473ffffffffffffffffffffffffffffffffffffffff167fddf252ad1be2c89b69c2b068fc378daa952ba7f163c4a11628f55a4df523b3ef846040518082815260200191505060405180910390a380600460008573ffffffffffffffffffffffffffffffffffffffff1673ffffffffffffffffffffffffffffffffffffffff16815260200190815260200160002054600460008773ffffffffffffffffffffffffffffffffffffffff1673ffffffffffffffffffffffffffffffffffffffff1681526020019081526020016000205401141515610b9357fe5b50505050565b600260009054906101000a900460ff1681565b600081600460003373ffffffffffffffffffffffffffffffffffffffff1673ffffffffffffffffffffffffffffffffffffffff1681526020019081526020016000205410151515610bfc57600080fd5b81600460003373ffffffffffffffffffffffffffffffffffffffff1673ffffffffffffffffffffffffffffffffffffffff16815260200190815260200160002060008282540392505081905550816003600082825403925050819055503373ffffffffffffffffffffffffffffffffffffffff167fcc16f5dbb4873280815c1ee09dbd06736cffcc184412cf7a71a0fdb75d397ca5836040518082815260200191505060405180910390a260019050919050565b60046020528060005260406000206000915090505481565b600081600460008573ffffffffffffffffffffffffffffffffffffffff1673ffffffffffffffffffffffffffffffffffffffff1681526020019081526020016000205410151515610d1857600080fd5b600560008473ffffffffffffffffffffffffffffffffffffffff1673ffffffffffffffffffffffffffffffffffffffff16815260200190815260200160002060003373ffffffffffffffffffffffffffffffffffffffff1673ffffffffffffffffffffffffffffffffffffffff168152602001908152602001600020548211151515610da357600080fd5b81600460008573ffffffffffffffffffffffffffffffffffffffff1673ffffffffffffffffffffffffffffffffffffffff1681526020019081526020016000206000828254039250508190555081600560008573ffffffffffffffffffffffffffffffffffffffff1673ffffffffffffffffffffffffffffffffffffffff16815260200190815260200160002060003373ffffffffffffffffffffffffffffffffffffffff1673ffffffffffffffffffffffffffffffffffffffff16815260200190815260200160002060008282540392505081905550816003600082825403925050819055508273ffffffffffffffffffffffffffffffffffffffff167fcc16f5dbb4873280815c1ee09dbd06736cffcc184412cf7a71a0fdb75d397ca5836040518082815260200191505060405180910390a26001905092915050565b60018054600181600116156101000203166002900480601f016020809104026020016040519081016040528092919081815260200182805460018160011615610100020316600290048015610f785780601f10610f4d57610100808354040283529160200191610f78565b820191906000526020600020905b815481529060010190602001808311610f5b57829003601f168201915b505050505081565b6000610f8d338484610883565b6001905092915050565b600080849050610fa785856106c3565b15611111578073ffffffffffffffffffffffffffffffffffffffff16638f4ffcb1338630876040518563ffffffff167c0100000000000000000000000000000000000000000000000000000000028152600401808573ffffffffffffffffffffffffffffffffffffffff1673ffffffffffffffffffffffffffffffffffffffff1681526020018481526020018373ffffffffffffffffffffffffffffffffffffffff1673ffffffffffffffffffffffffffffffffffffffff16815260200180602001828103825283818151815260200191508051906020019080838360005b838110156110a1578082015181840152602081019050611086565b50505050905090810190601f1680156110ce5780820380516001836020036101000a031916815260200191505b5095505050505050600060405180830381600087803b1580156110f057600080fd5b505af1158015611104573d6000803e3d6000fd5b5050505060019150611112565b5b509392505050565b60056020528160005260406000206020528060005260406000206000915091505054815600a165627a7a723058206f0c5f3c5f3e55ce0234849b9dfd43e94d7c80707b41dbf359db1bfdb06e323f0029",
  "source": "/**\n *Submitted for verification at Etherscan.io on 2018-03-28\n*/\n\npragma solidity ^0.4.16;\n\ncontract owned {\n    address public owner;\n\n    function owned() public {\n        owner = msg.sender;\n    }\n\n    modifier onlyOwner {\n        require(msg.sender == owner);\n        _;\n    }\n\n    function transferOwnership(address newOwner) onlyOwner public {\n        owner = newOwner;\n    }\n}\n\ninterface tokenRecipient \n{ \nfunction receiveApproval(address _from, uint256 _value, address _token, bytes _extraData) public; \n}\n\ncontract StandardToken {\n    \n    string public name;\n    string public symbol;\n    uint8 public decimals = 18;    \n    uint256 public totalSupply;\n\n    mapping (address => uint256) public balanceOf;\n    mapping (address => mapping (address => uint256)) public allowance;\n\n    event Transfer(address indexed from, address indexed to, uint256 value);\n\n    event Burn(address indexed from, uint256 value);\n\n    function StandardToken(\n        uint256 initialSupply,\n        string tokenName,\n        string tokenSymbol\n    ) public {\n        totalSupply = initialSupply * 10 ** uint256(decimals);  \n        balanceOf[msg.sender] = totalSupply;                \n        name = tokenName;                                   \n        symbol = tokenSymbol;                               \n    }\n\n    function _transfer(address _from, address _to, uint _value) {\n        require(_to != 0x0);\n        require(balanceOf[_from] >= _value);\n        require(balanceOf[_to] + _value > balanceOf[_to]);\n        uint previousBalances = balanceOf[_from] + balanceOf[_to];\n        balanceOf[_from] -= _value;\n        balanceOf[_to] += _value;\n        Transfer(_from, _to, _value);\n        assert(balanceOf[_from] + balanceOf[_to] == previousBalances);\n    }\n\n    function transfer(address _to, uint256 _value) public returns (bool success) \n\t{\n        _transfer(msg.sender, _to, _value);\n\t\treturn true;\n    }\n\n    function transferFrom(address _from, address _to, uint256 _value) public returns (bool success) {\n        require(_value <= allowance[_from][msg.sender]);     \n        allowance[_from][msg.sender] -= _value;\n        _transfer(_from, _to, _value);\n        return true;\n    }\n\n    function approve(address _spender, uint256 _value) public\n        returns (bool success) {\n        allowance[msg.sender][_spender] = _value;\n        return true;\n    }\n\n    function approveAndCall(address _spender, uint256 _value, bytes _extraData)\n        public\n        returns (bool success) {\n        tokenRecipient spender = tokenRecipient(_spender);\n        if (approve(_spender, _value)) {\n            spender.receiveApproval(msg.sender, _value, this, _extraData);\n            return true;\n        }\n    }\n    \n    function burn(uint256 _value) public returns (bool success) {\n        require(balanceOf[msg.sender] >= _value);   \n        balanceOf[msg.sender] -= _value;            \n        totalSupply -= _value;                      \n        Burn(msg.sender, _value);\n        return true;\n    }\n\n    function burnFrom(address _from, uint256 _value) public returns (bool success) {\n        require(balanceOf[_from] >= _value);                \n        require(_value <= allowance[_from][msg.sender]);    \n        balanceOf[_from] -= _value;                         \n        allowance[_from][msg.sender] -= _value;             \n        totalSupply -= _value;                              \n        Burn(_from, _value);\n        return true;\n    }\n}\n\ncontract GoodTimeCoin is owned, StandardToken {\n\n    uint256 public sellPrice;\n    uint256 public buyPrice;\n\n    mapping (address => bool) public frozenAccount;\n\n    event FrozenFunds(address target, bool frozen);\n\n    function GoodTimeCoin(\n        uint256 initialSupply,\n        string tokenName,\n        string tokenSymbol\n    ) StandardToken(initialSupply, tokenName, tokenSymbol) public {}\n\n    function mintToken(address target, uint256 mintedAmount) onlyOwner public {\n        balanceOf[target] += mintedAmount;\n        totalSupply += mintedAmount;\n        Transfer(0, this, mintedAmount);\n        Transfer(this, target, mintedAmount);\n    }\n\n    function freezeAccount(address target, bool freeze) onlyOwner public {\n        frozenAccount[target] = freeze;\n        FrozenFunds(target, freeze);\n    }\n\n    function setPrices(uint256 newSellPrice, uint256 newBuyPrice) onlyOwner public {\n        sellPrice = newSellPrice;\n        buyPrice = newBuyPrice;\n    }\n\n    function buy() payable public {\n        uint amount = msg.value / buyPrice;               \n        _transfer(this, msg.sender, amount);              \n    }\n\n    function sell(uint256 amount) public {\n        require(this.balance >= amount * sellPrice);      \n        _transfer(msg.sender, this, amount);              \n        msg.sender.transfer(amount * sellPrice);          \n    }\n}",
  "sourcePath": "/workdir/truffle_example/0x584a0EC8A7A3fcfEd27Db5C234A9062863883778/contracts/0x584a0EC8A7A3fcfEd27Db5C234A9062863883778.sol",
  "compiler": {
    "name": "solc",
    "version": "0.4.25+commit.59dbf8f1.Emscripten.clang"
  },
  "schemaVersion": "3.4.8",
  "updatedAt": "2022-08-11T10:22:21.174Z",
  "devdoc": {
    "methods": {}
  },
  "userdoc": {
    "methods": {}
  }
}