{
  "contractName": "GZSToken",
  "abi": [
    {
      "constant": true,
      "inputs": [],
      "name": "name",
      "outputs": [
        {
          "name": "",
          "type": "string"
        }
      ],
      "payable": false,
      "stateMutability": "view",
      "type": "function"
    },
    {
      "constant": false,
      "inputs": [
        {
          "name": "_spender",
          "type": "address"
        },
        {
          "name": "_value",
          "type": "uint256"
        }
      ],
      "name": "approve",
      "outputs": [
        {
          "name": "success",
          "type": "bool"
        }
      ],
      "payable": false,
      "stateMutability": "nonpayable",
      "type": "function"
    },
    {
      "constant": true,
      "inputs": [],
      "name": "totalSupply",
      "outputs": [
        {
          "name": "",
          "type": "uint256"
        }
      ],
      "payable": false,
      "stateMutability": "view",
      "type": "function"
    },
    {
      "constant": true,
      "inputs": [],
      "name": "decimals",
      "outputs": [
        {
          "name": "",
          "type": "uint8"
        }
      ],
      "payable": false,
      "stateMutability": "view",
      "type": "function"
    },
    {
      "constant": true,
      "inputs": [],
      "name": "standard",
      "outputs": [
        {
          "name": "",
          "type": "string"
        }
      ],
      "payable": false,
      "stateMutability": "view",
      "type": "function"
    },
    {
      "constant": true,
      "inputs": [
        {
          "name": "",
          "type": "address"
        }
      ],
      "name": "balanceOf",
      "outputs": [
        {
          "name": "",
          "type": "uint256"
        }
      ],
      "payable": false,
      "stateMutability": "view",
      "type": "function"
    },
    {
      "constant": true,
      "inputs": [],
      "name": "owner",
      "outputs": [
        {
          "name": "",
          "type": "address"
        }
      ],
      "payable": false,
      "stateMutability": "view",
      "type": "function"
    },
    {
      "constant": true,
      "inputs": [],
      "name": "symbol",
      "outputs": [
        {
          "name": "",
          "type": "string"
        }
      ],
      "payable": false,
      "stateMutability": "view",
      "type": "function"
    },
    {
      "constant": true,
      "inputs": [
        {
          "name": "",
          "type": "address"
        }
      ],
      "name": "frozenAccount",
      "outputs": [
        {
          "name": "",
          "type": "bool"
        }
      ],
      "payable": false,
      "stateMutability": "view",
      "type": "function"
    },
    {
      "constant": false,
      "inputs": [
        {
          "name": "_spender",
          "type": "address"
        },
        {
          "name": "_value",
          "type": "uint256"
        },
        {
          "name": "_extraData",
          "type": "bytes"
        }
      ],
      "name": "approveAndCall",
      "outputs": [
        {
          "name": "success",
          "type": "bool"
        }
      ],
      "payable": false,
      "stateMutability": "nonpayable",
      "type": "function"
    },
    {
      "constant": true,
      "inputs": [],
      "name": "isSelling",
      "outputs": [
        {
          "name": "",
          "type": "bool"
        }
      ],
      "payable": false,
      "stateMutability": "view",
      "type": "function"
    },
    {
      "constant": true,
      "inputs": [
        {
          "name": "",
          "type": "address"
        },
        {
          "name": "",
          "type": "address"
        }
      ],
      "name": "allowance",
      "outputs": [
        {
          "name": "",
          "type": "uint256"
        }
      ],
      "payable": false,
      "stateMutability": "view",
      "type": "function"
    },
    {
      "constant": false,
      "inputs": [
        {
          "name": "newOwner",
          "type": "address"
        }
      ],
      "name": "transferOwnership",
      "outputs": [],
      "payable": false,
      "stateMutability": "nonpayable",
      "type": "function"
    },
    {
      "constant": true,
      "inputs": [],
      "name": "buyRate",
      "outputs": [
        {
          "name": "",
          "type": "uint256"
        }
      ],
      "payable": false,
      "stateMutability": "view",
      "type": "function"
    },
    {
      "inputs": [
        {
          "name": "initialSupply",
          "type": "uint256"
        },
        {
          "name": "tokenName",
          "type": "string"
        },
        {
          "name": "decimalUnits",
          "type": "uint8"
        },
        {
          "name": "tokenSymbol",
          "type": "string"
        }
      ],
      "payable": false,
      "stateMutability": "nonpayable",
      "type": "constructor"
    },
    {
      "payable": false,
      "stateMutability": "nonpayable",
      "type": "fallback"
    },
    {
      "anonymous": false,
      "inputs": [
        {
          "indexed": false,
          "name": "target",
          "type": "address"
        },
        {
          "indexed": false,
          "name": "frozen",
          "type": "bool"
        }
      ],
      "name": "FrozenFunds",
      "type": "event"
    },
    {
      "anonymous": false,
      "inputs": [
        {
          "indexed": true,
          "name": "from",
          "type": "address"
        },
        {
          "indexed": true,
          "name": "to",
          "type": "address"
        },
        {
          "indexed": false,
          "name": "value",
          "type": "uint256"
        }
      ],
      "name": "Transfer",
      "type": "event"
    },
    {
      "constant": false,
      "inputs": [
        {
          "name": "_to",
          "type": "address"
        },
        {
          "name": "_value",
          "type": "uint256"
        }
      ],
      "name": "transfer",
      "outputs": [],
      "payable": false,
      "stateMutability": "nonpayable",
      "type": "function"
    },
    {
      "constant": false,
      "inputs": [
        {
          "name": "_from",
          "type": "address"
        },
        {
          "name": "_to",
          "type": "address"
        },
        {
          "name": "_value",
          "type": "uint256"
        }
      ],
      "name": "transferFrom",
      "outputs": [
        {
          "name": "success",
          "type": "bool"
        }
      ],
      "payable": false,
      "stateMutability": "nonpayable",
      "type": "function"
    },
    {
      "constant": false,
      "inputs": [
        {
          "name": "target",
          "type": "address"
        },
        {
          "name": "mintedAmount",
          "type": "uint256"
        }
      ],
      "name": "mintToken",
      "outputs": [],
      "payable": false,
      "stateMutability": "nonpayable",
      "type": "function"
    },
    {
      "constant": false,
      "inputs": [
        {
          "name": "target",
          "type": "address"
        },
        {
          "name": "freeze",
          "type": "bool"
        }
      ],
      "name": "freezeAccount",
      "outputs": [],
      "payable": false,
      "stateMutability": "nonpayable",
      "type": "function"
    },
    {
      "constant": false,
      "inputs": [
        {
          "name": "newBuyRate",
          "type": "uint256"
        }
      ],
      "name": "setBuyRate",
      "outputs": [],
      "payable": false,
      "stateMutability": "nonpayable",
      "type": "function"
    },
    {
      "constant": false,
      "inputs": [
        {
          "name": "newStatus",
          "type": "bool"
        }
      ],
      "name": "setSelling",
      "outputs": [],
      "payable": false,
      "stateMutability": "nonpayable",
      "type": "function"
    },
    {
      "constant": false,
      "inputs": [],
      "name": "buy",
      "outputs": [],
      "payable": true,
      "stateMutability": "payable",
      "type": "function"
    },
    {
      "constant": false,
      "inputs": [
        {
          "name": "amountWei",
          "type": "uint256"
        }
      ],
      "name": "withdrawToOwner",
      "outputs": [],
      "payable": false,
      "stateMutability": "nonpayable",
      "type": "function"
    }
  ],
  "bytecode": "0x60806040526040805190810160405280600981526020017f546f6b656e20302e3100000000000000000000000000000000000000000000008152506001908051906020019062000051929190620001ad565b5061b3b06008556001600960006101000a81548160ff0219169083151502179055503480156200008057600080fd5b5060405162001b2e38038062001b2e8339810180604052810190808051906020019092919080518201929190602001805190602001909291908051820192919050505083838383336000806101000a81548173ffffffffffffffffffffffffffffffffffffffff021916908373ffffffffffffffffffffffffffffffffffffffff16021790555083600660003373ffffffffffffffffffffffffffffffffffffffff1673ffffffffffffffffffffffffffffffffffffffff168152602001908152602001600020819055508360058190555082600290805190602001906200016a929190620001ad565b50806003908051906020019062000183929190620001ad565b5081600460006101000a81548160ff021916908360ff16021790555050505050505050506200025c565b828054600181600116156101000203166002900490600052602060002090601f016020900481019282601f10620001f057805160ff191683800117855562000221565b8280016001018555821562000221579182015b828111156200022057825182559160200191906001019062000203565b5b50905062000230919062000234565b5090565b6200025991905b80821115620002555760008160009055506001016200023b565b5090565b90565b6118c2806200026c6000396000f300608060405260043610610128576000357c0100000000000000000000000000000000000000000000000000000000900463ffffffff16806306fdde031461013a578063095ea7b3146101ca57806318160ddd1461022f57806323b872dd1461025a578063313ce567146102df5780635a3b7e42146103105780636a5bbc1d146103a057806370a08231146103cd57806379c650681461042457806385e436bf146104715780638da5cb5b1461049e57806395d89b41146104f5578063a6f2ae3a14610585578063a9059cbb1461058f578063b414d4b6146105dc578063cae9ca5114610637578063cbf21837146106e2578063dd62ed3e14610711578063e724529c14610788578063f2fde38b146107d7578063fc37987b1461081a578063fce3bbb514610845575b34801561013457600080fd5b50600080fd5b34801561014657600080fd5b5061014f610874565b6040518080602001828103825283818151815260200191508051906020019080838360005b8381101561018f578082015181840152602081019050610174565b50505050905090810190601f1680156101bc5780820380516001836020036101000a031916815260200191505b509250505060405180910390f35b3480156101d657600080fd5b50610215600480360381019080803573ffffffffffffffffffffffffffffffffffffffff16906020019092919080359060200190929190505050610912565b604051808215151515815260200191505060405180910390f35b34801561023b57600080fd5b5061024461099f565b6040518082815260200191505060405180910390f35b34801561026657600080fd5b506102c5600480360381019080803573ffffffffffffffffffffffffffffffffffffffff169060200190929190803573ffffffffffffffffffffffffffffffffffffffff169060200190929190803590602001909291905050506109a5565b604051808215151515815260200191505060405180910390f35b3480156102eb57600080fd5b506102f4610cf4565b604051808260ff1660ff16815260200191505060405180910390f35b34801561031c57600080fd5b50610325610d07565b6040518080602001828103825283818151815260200191508051906020019080838360005b8381101561036557808201518184015260208101905061034a565b50505050905090810190601f1680156103925780820380516001836020036101000a031916815260200191505b509250505060405180910390f35b3480156103ac57600080fd5b506103cb60048036038101908080359060200190929190505050610da5565b005b3480156103d957600080fd5b5061040e600480360381019080803573ffffffffffffffffffffffffffffffffffffffff169060200190929190505050610e6b565b6040518082815260200191505060405180910390f35b34801561043057600080fd5b5061046f600480360381019080803573ffffffffffffffffffffffffffffffffffffffff16906020019092919080359060200190929190505050610e83565b005b34801561047d57600080fd5b5061049c60048036038101908080359060200190929190505050610ff4565b005b3480156104aa57600080fd5b506104b3611059565b604051808273ffffffffffffffffffffffffffffffffffffffff1673ffffffffffffffffffffffffffffffffffffffff16815260200191505060405180910390f35b34801561050157600080fd5b5061050a61107e565b6040518080602001828103825283818151815260200191508051906020019080838360005b8381101561054a57808201518184015260208101905061052f565b50505050905090810190601f1680156105775780820380516001836020036101000a031916815260200191505b509250505060405180910390f35b61058d61111c565b005b34801561059b57600080fd5b506105da600480360381019080803573ffffffffffffffffffffffffffffffffffffffff16906020019092919080359060200190929190505050611247565b005b3480156105e857600080fd5b5061061d600480360381019080803573ffffffffffffffffffffffffffffffffffffffff16906020019092919050505061147a565b604051808215151515815260200191505060405180910390f35b34801561064357600080fd5b506106c8600480360381019080803573ffffffffffffffffffffffffffffffffffffffff16906020019092919080359060200190929190803590602001908201803590602001908080601f016020809104026020016040519081016040528093929190818152602001838380828437820191505050505050919291929050505061149a565b604051808215151515815260200191505060405180910390f35b3480156106ee57600080fd5b506106f761161d565b604051808215151515815260200191505060405180910390f35b34801561071d57600080fd5b50610772600480360381019080803573ffffffffffffffffffffffffffffffffffffffff169060200190929190803573ffffffffffffffffffffffffffffffffffffffff169060200190929190505050611630565b6040518082815260200191505060405180910390f35b34801561079457600080fd5b506107d5600480360381019080803573ffffffffffffffffffffffffffffffffffffffff169060200190929190803515159060200190929190505050611655565b005b3480156107e357600080fd5b50610818600480360381019080803573ffffffffffffffffffffffffffffffffffffffff16906020019092919050505061177a565b005b34801561082657600080fd5b5061082f611818565b6040518082815260200191505060405180910390f35b34801561085157600080fd5b5061087260048036038101908080351515906020019092919050505061181e565b005b60028054600181600116156101000203166002900480601f01602080910402602001604051908101604052809291908181526020018280546001816001161561010002031660029004801561090a5780601f106108df5761010080835404028352916020019161090a565b820191906000526020600020905b8154815290600101906020018083116108ed57829003601f168201915b505050505081565b600081600760003373ffffffffffffffffffffffffffffffffffffffff1673ffffffffffffffffffffffffffffffffffffffff16815260200190815260200160002060008573ffffffffffffffffffffffffffffffffffffffff1673ffffffffffffffffffffffffffffffffffffffff168152602001908152602001600020819055506001905092915050565b60055481565b6000600a60008573ffffffffffffffffffffffffffffffffffffffff1673ffffffffffffffffffffffffffffffffffffffff16815260200190815260200160002060009054906101000a900460ff16156109fe57600080fd5b81600660008673ffffffffffffffffffffffffffffffffffffffff1673ffffffffffffffffffffffffffffffffffffffff168152602001908152602001600020541015610a4a57600080fd5b600660008473ffffffffffffffffffffffffffffffffffffffff1673ffffffffffffffffffffffffffffffffffffffff1681526020019081526020016000205482600660008673ffffffffffffffffffffffffffffffffffffffff1673ffffffffffffffffffffffffffffffffffffffff16815260200190815260200160002054011015610ad757600080fd5b600760008573ffffffffffffffffffffffffffffffffffffffff1673ffffffffffffffffffffffffffffffffffffffff16815260200190815260200160002060003373ffffffffffffffffffffffffffffffffffffffff1673ffffffffffffffffffffffffffffffffffffffff16815260200190815260200160002054821115610b6057600080fd5b81600660008673ffffffffffffffffffffffffffffffffffffffff1673ffffffffffffffffffffffffffffffffffffffff1681526020019081526020016000206000828254039250508190555081600660008573ffffffffffffffffffffffffffffffffffffffff1673ffffffffffffffffffffffffffffffffffffffff1681526020019081526020016000206000828254019250508190555081600760008673ffffffffffffffffffffffffffffffffffffffff1673ffffffffffffffffffffffffffffffffffffffff16815260200190815260200160002060003373ffffffffffffffffffffffffffffffffffffffff1673ffffffffffffffffffffffffffffffffffffffff168152602001908152602001600020600082825403925050819055508273ffffffffffffffffffffffffffffffffffffffff168473ffffffffffffffffffffffffffffffffffffffff167fddf252ad1be2c89b69c2b068fc378daa952ba7f163c4a11628f55a4df523b3ef846040518082815260200191505060405180910390a3600190509392505050565b600460009054906101000a900460ff1681565b60018054600181600116156101000203166002900480601f016020809104026020016040519081016040528092919081815260200182805460018160011615610100020316600290048015610d9d5780601f10610d7257610100808354040283529160200191610d9d565b820191906000526020600020905b815481529060010190602001808311610d8057829003601f168201915b505050505081565b6000809054906101000a900473ffffffffffffffffffffffffffffffffffffffff1673ffffffffffffffffffffffffffffffffffffffff163373ffffffffffffffffffffffffffffffffffffffff16141515610e0057600080fd5b6000809054906101000a900473ffffffffffffffffffffffffffffffffffffffff1673ffffffffffffffffffffffffffffffffffffffff166108fc829081150290604051600060405180830381858888f19350505050158015610e67573d6000803e3d6000fd5b5050565b60066020528060005260406000206000915090505481565b6000809054906101000a900473ffffffffffffffffffffffffffffffffffffffff1673ffffffffffffffffffffffffffffffffffffffff163373ffffffffffffffffffffffffffffffffffffffff16141515610ede57600080fd5b80600660008473ffffffffffffffffffffffffffffffffffffffff1673ffffffffffffffffffffffffffffffffffffffff16815260200190815260200160002060008282540192505081905550806005600082825401925050819055503073ffffffffffffffffffffffffffffffffffffffff1660007fddf252ad1be2c89b69c2b068fc378daa952ba7f163c4a11628f55a4df523b3ef836040518082815260200191505060405180910390a38173ffffffffffffffffffffffffffffffffffffffff163073ffffffffffffffffffffffffffffffffffffffff167fddf252ad1be2c89b69c2b068fc378daa952ba7f163c4a11628f55a4df523b3ef836040518082815260200191505060405180910390a35050565b6000809054906101000a900473ffffffffffffffffffffffffffffffffffffffff1673ffffffffffffffffffffffffffffffffffffffff163373ffffffffffffffffffffffffffffffffffffffff1614151561104f57600080fd5b8060088190555050565b6000809054906101000a900473ffffffffffffffffffffffffffffffffffffffff1681565b60038054600181600116156101000203166002900480601f0160208091040260200160405190810160405280929190818152602001828054600181600116156101000203166002900480156111145780601f106110e957610100808354040283529160200191611114565b820191906000526020600020905b8154815290600101906020018083116110f757829003601f168201915b505050505081565b6000801515600960009054906101000a900460ff161515141561113e57600080fd5b6008543402905080600660003373ffffffffffffffffffffffffffffffffffffffff1673ffffffffffffffffffffffffffffffffffffffff1681526020019081526020016000206000828254019250508190555080600660003073ffffffffffffffffffffffffffffffffffffffff1673ffffffffffffffffffffffffffffffffffffffff168152602001908152602001600020600082825403925050819055503373ffffffffffffffffffffffffffffffffffffffff163073ffffffffffffffffffffffffffffffffffffffff167fddf252ad1be2c89b69c2b068fc378daa952ba7f163c4a11628f55a4df523b3ef836040518082815260200191505060405180910390a350565b80600660003373ffffffffffffffffffffffffffffffffffffffff1673ffffffffffffffffffffffffffffffffffffffff16815260200190815260200160002054101561129357600080fd5b600660008373ffffffffffffffffffffffffffffffffffffffff1673ffffffffffffffffffffffffffffffffffffffff1681526020019081526020016000205481600660008573ffffffffffffffffffffffffffffffffffffffff1673ffffffffffffffffffffffffffffffffffffffff1681526020019081526020016000205401101561132057600080fd5b600a60003373ffffffffffffffffffffffffffffffffffffffff1673ffffffffffffffffffffffffffffffffffffffff16815260200190815260200160002060009054906101000a900460ff161561137757600080fd5b80600660003373ffffffffffffffffffffffffffffffffffffffff1673ffffffffffffffffffffffffffffffffffffffff1681526020019081526020016000206000828254039250508190555080600660008473ffffffffffffffffffffffffffffffffffffffff1673ffffffffffffffffffffffffffffffffffffffff168152602001908152602001600020600082825401925050819055508173ffffffffffffffffffffffffffffffffffffffff163373ffffffffffffffffffffffffffffffffffffffff167fddf252ad1be2c89b69c2b068fc378daa952ba7f163c4a11628f55a4df523b3ef836040518082815260200191505060405180910390a35050565b600a6020528060005260406000206000915054906101000a900460ff1681565b6000808490506114aa8585610912565b15611614578073ffffffffffffffffffffffffffffffffffffffff16638f4ffcb1338630876040518563ffffffff167c0100000000000000000000000000000000000000000000000000000000028152600401808573ffffffffffffffffffffffffffffffffffffffff1673ffffffffffffffffffffffffffffffffffffffff1681526020018481526020018373ffffffffffffffffffffffffffffffffffffffff1673ffffffffffffffffffffffffffffffffffffffff16815260200180602001828103825283818151815260200191508051906020019080838360005b838110156115a4578082015181840152602081019050611589565b50505050905090810190601f1680156115d15780820380516001836020036101000a031916815260200191505b5095505050505050600060405180830381600087803b1580156115f357600080fd5b505af1158015611607573d6000803e3d6000fd5b5050505060019150611615565b5b509392505050565b600960009054906101000a900460ff1681565b6007602052816000526040600020602052806000526040600020600091509150505481565b6000809054906101000a900473ffffffffffffffffffffffffffffffffffffffff1673ffffffffffffffffffffffffffffffffffffffff163373ffffffffffffffffffffffffffffffffffffffff161415156116b057600080fd5b80600a60008473ffffffffffffffffffffffffffffffffffffffff1673ffffffffffffffffffffffffffffffffffffffff16815260200190815260200160002060006101000a81548160ff0219169083151502179055507f48335238b4855f35377ed80f164e8c6f3c366e54ac00b96a6402d4a9814a03a58282604051808373ffffffffffffffffffffffffffffffffffffffff1673ffffffffffffffffffffffffffffffffffffffff168152602001821515151581526020019250505060405180910390a15050565b6000809054906101000a900473ffffffffffffffffffffffffffffffffffffffff1673ffffffffffffffffffffffffffffffffffffffff163373ffffffffffffffffffffffffffffffffffffffff161415156117d557600080fd5b806000806101000a81548173ffffffffffffffffffffffffffffffffffffffff021916908373ffffffffffffffffffffffffffffffffffffffff16021790555050565b60085481565b6000809054906101000a900473ffffffffffffffffffffffffffffffffffffffff1673ffffffffffffffffffffffffffffffffffffffff163373ffffffffffffffffffffffffffffffffffffffff1614151561187957600080fd5b80600960006101000a81548160ff021916908315150217905550505600a165627a7a72305820669a88a3e862b5c0560dbb833c7138d8f16def021ccb4a2d96f6b3fabc50a6830029",
  "source": "/**\n *Submitted for verification at Etherscan.io on 2017-07-19\n*/\n\npragma solidity ^0.4.2;\ncontract owned {\n    address public owner;\n\n    function owned() {\n        owner = msg.sender;\n    }\n\n    modifier onlyOwner {\n        if (msg.sender != owner) throw;\n        _;\n    }\n\n    function transferOwnership(address newOwner) onlyOwner {\n        owner = newOwner;\n    }\n}\n\ncontract tokenRecipient { function receiveApproval(address _from, uint256 _value, address _token, bytes _extraData); }\n\ncontract token {\n    /* Public variables of the token */\n    string public standard = 'Token 0.1';\n    string public name;\n    string public symbol;\n    uint8 public decimals;\n    uint256 public totalSupply;\n\n    /* This creates an array with all balances */\n    mapping (address => uint256) public balanceOf;\n    mapping (address => mapping (address => uint256)) public allowance;\n\n    /* This generates a public event on the blockchain that will notify clients */\n    event Transfer(address indexed from, address indexed to, uint256 value);\n\n    /* Initializes contract with initial supply tokens to the creator of the contract */\n    function token(\n        uint256 initialSupply,\n        string tokenName,\n        uint8 decimalUnits,\n        string tokenSymbol\n        ) {\n        balanceOf[msg.sender] = initialSupply;              // Give the creator all initial tokens\n        totalSupply = initialSupply;                        // Update total supply\n        name = tokenName;                                   // Set the name for display purposes\n        symbol = tokenSymbol;                               // Set the symbol for display purposes\n        decimals = decimalUnits;                            // Amount of decimals for display purposes\n    }\n\n    /* Send coins */\n    function transfer(address _to, uint256 _value) {\n        if (balanceOf[msg.sender] < _value) throw;           // Check if the sender has enough\n        if (balanceOf[_to] + _value < balanceOf[_to]) throw; // Check for overflows\n        balanceOf[msg.sender] -= _value;                     // Subtract from the sender\n        balanceOf[_to] += _value;                            // Add the same to the recipient\n        Transfer(msg.sender, _to, _value);                   // Notify anyone listening that this transfer took place\n    }\n\n    /* Allow another contract to spend some tokens in your behalf */\n    function approve(address _spender, uint256 _value)\n        returns (bool success) {\n        allowance[msg.sender][_spender] = _value;\n        return true;\n    }\n\n    /* Approve and then communicate the approved contract in a single tx */\n    function approveAndCall(address _spender, uint256 _value, bytes _extraData)\n        returns (bool success) {    \n        tokenRecipient spender = tokenRecipient(_spender);\n        if (approve(_spender, _value)) {\n            spender.receiveApproval(msg.sender, _value, this, _extraData);\n            return true;\n        }\n    }\n\n    /* A contract attempts to get the coins */\n    function transferFrom(address _from, address _to, uint256 _value) returns (bool success) {\n        if (balanceOf[_from] < _value) throw;                 // Check if the sender has enough\n        if (balanceOf[_to] + _value < balanceOf[_to]) throw;  // Check for overflows\n        if (_value > allowance[_from][msg.sender]) throw;   // Check allowance\n        balanceOf[_from] -= _value;                          // Subtract from the sender\n        balanceOf[_to] += _value;                            // Add the same to the recipient\n        allowance[_from][msg.sender] -= _value;\n        Transfer(_from, _to, _value);\n        return true;\n    }\n\n    /* This unnamed function is called whenever someone tries to send ether to it */\n    function () {\n        throw;     // Prevents accidental sending of ether\n    }\n}\n\ncontract GZSToken is owned, token {\n\n    uint public buyRate = 46000; // price one token per ether\n    bool public isSelling = true;\n\n    mapping (address => bool) public frozenAccount;\n\n    /* This generates a public event on the blockchain that will notify clients */\n    event FrozenFunds(address target, bool frozen);\n\n    /* Initializes contract with initial supply tokens to the creator of the contract */\n    function GZSToken(\n        uint256 initialSupply,\n        string tokenName,\n        uint8 decimalUnits,\n        string tokenSymbol\n    ) token (initialSupply, tokenName, decimalUnits, tokenSymbol) {}\n\n    /* Send coins */\n    function transfer(address _to, uint256 _value) {\n        if (balanceOf[msg.sender] < _value) throw;           // Check if the sender has enough\n        if (balanceOf[_to] + _value < balanceOf[_to]) throw; // Check for overflows\n        if (frozenAccount[msg.sender]) throw;                // Check if frozen\n        balanceOf[msg.sender] -= _value;                     // Subtract from the sender\n        balanceOf[_to] += _value;                            // Add the same to the recipient\n        Transfer(msg.sender, _to, _value);                   // Notify anyone listening that this transfer took place\n    }\n\n\n    /* A contract attempts to get the coins */\n    function transferFrom(address _from, address _to, uint256 _value) returns (bool success) {\n        if (frozenAccount[_from]) throw;                        // Check if frozen            \n        if (balanceOf[_from] < _value) throw;                 // Check if the sender has enough\n        if (balanceOf[_to] + _value < balanceOf[_to]) throw;  // Check for overflows\n        if (_value > allowance[_from][msg.sender]) throw;   // Check allowance\n        balanceOf[_from] -= _value;                          // Subtract from the sender\n        balanceOf[_to] += _value;                            // Add the same to the recipient\n        allowance[_from][msg.sender] -= _value;\n        Transfer(_from, _to, _value);\n        return true;\n    }\n\n    function mintToken(address target, uint256 mintedAmount) onlyOwner {\n        balanceOf[target] += mintedAmount;\n        totalSupply += mintedAmount;\n        Transfer(0, this, mintedAmount);\n        Transfer(this, target, mintedAmount);\n    }\n\n    function freezeAccount(address target, bool freeze) onlyOwner {\n        frozenAccount[target] = freeze;\n        FrozenFunds(target, freeze);\n    }\n\n    function setBuyRate(uint newBuyRate) onlyOwner {\n        buyRate = newBuyRate;\n    }\n    \n    function setSelling(bool newStatus) onlyOwner {\n        isSelling = newStatus;\n    }\n\n    function buy() payable {\n        if(isSelling == false) throw;\n        uint amount = msg.value * buyRate;                  // calculates the amount\n        balanceOf[msg.sender] += amount;                   // adds the amount to buyer's balance\n        balanceOf[this] -= amount;                         // subtracts amount from seller's balance\n        Transfer(this, msg.sender, amount);                // execute an event reflecting the change\n    }\n    \n    function withdrawToOwner(uint256 amountWei) onlyOwner {\n        owner.transfer(amountWei);\n    }\n}",
  "sourcePath": "/workdir/truffle_example/before/0xA1f87895550EAc6a8e9E4318466F482612a5986D/contracts/0xA1f87895550EAc6a8e9E4318466F482612a5986D.sol",
  "compiler": {
    "name": "solc",
    "version": "0.4.25+commit.59dbf8f1.Emscripten.clang"
  },
  "schemaVersion": "3.4.8",
  "updatedAt": "2022-08-14T08:57:22.496Z",
  "networkType": "ethereum",
  "devdoc": {
    "methods": {}
  },
  "userdoc": {
    "methods": {}
  }
}