{
  "contractName": "CERB_Coin",
  "abi": [
    {
      "constant": true,
      "inputs": [],
      "name": "name",
      "outputs": [
        {
          "name": "",
          "type": "string"
        }
      ],
      "payable": false,
      "stateMutability": "view",
      "type": "function"
    },
    {
      "constant": true,
      "inputs": [],
      "name": "decimals",
      "outputs": [
        {
          "name": "",
          "type": "uint8"
        }
      ],
      "payable": false,
      "stateMutability": "view",
      "type": "function"
    },
    {
      "constant": true,
      "inputs": [],
      "name": "amountCollected",
      "outputs": [
        {
          "name": "",
          "type": "uint256"
        }
      ],
      "payable": false,
      "stateMutability": "view",
      "type": "function"
    },
    {
      "constant": true,
      "inputs": [],
      "name": "remaining",
      "outputs": [
        {
          "name": "",
          "type": "uint256"
        }
      ],
      "payable": false,
      "stateMutability": "view",
      "type": "function"
    },
    {
      "constant": true,
      "inputs": [],
      "name": "icoTokenPrice",
      "outputs": [
        {
          "name": "",
          "type": "uint256"
        }
      ],
      "payable": false,
      "stateMutability": "view",
      "type": "function"
    },
    {
      "constant": true,
      "inputs": [],
      "name": "bkaddress",
      "outputs": [
        {
          "name": "",
          "type": "address"
        }
      ],
      "payable": false,
      "stateMutability": "view",
      "type": "function"
    },
    {
      "constant": true,
      "inputs": [],
      "name": "owner",
      "outputs": [
        {
          "name": "",
          "type": "address"
        }
      ],
      "payable": false,
      "stateMutability": "view",
      "type": "function"
    },
    {
      "constant": true,
      "inputs": [],
      "name": "symbol",
      "outputs": [
        {
          "name": "",
          "type": "string"
        }
      ],
      "payable": false,
      "stateMutability": "view",
      "type": "function"
    },
    {
      "constant": true,
      "inputs": [
        {
          "name": "",
          "type": "address"
        }
      ],
      "name": "frozenAccount",
      "outputs": [
        {
          "name": "",
          "type": "bool"
        }
      ],
      "payable": false,
      "stateMutability": "view",
      "type": "function"
    },
    {
      "constant": true,
      "inputs": [],
      "name": "ethRate",
      "outputs": [
        {
          "name": "",
          "type": "uint256"
        }
      ],
      "payable": false,
      "stateMutability": "view",
      "type": "function"
    },
    {
      "constant": true,
      "inputs": [],
      "name": "icoStatus",
      "outputs": [
        {
          "name": "",
          "type": "uint256"
        }
      ],
      "payable": false,
      "stateMutability": "view",
      "type": "function"
    },
    {
      "constant": true,
      "inputs": [
        {
          "name": "",
          "type": "address"
        },
        {
          "name": "",
          "type": "address"
        }
      ],
      "name": "allowance",
      "outputs": [
        {
          "name": "",
          "type": "uint256"
        }
      ],
      "payable": false,
      "stateMutability": "view",
      "type": "function"
    },
    {
      "constant": true,
      "inputs": [],
      "name": "benAddress",
      "outputs": [
        {
          "name": "",
          "type": "address"
        }
      ],
      "payable": false,
      "stateMutability": "view",
      "type": "function"
    },
    {
      "constant": true,
      "inputs": [],
      "name": "allowTransferToken",
      "outputs": [
        {
          "name": "",
          "type": "uint256"
        }
      ],
      "payable": false,
      "stateMutability": "view",
      "type": "function"
    },
    {
      "inputs": [],
      "payable": false,
      "stateMutability": "nonpayable",
      "type": "constructor"
    },
    {
      "payable": true,
      "stateMutability": "payable",
      "type": "fallback"
    },
    {
      "anonymous": false,
      "inputs": [
        {
          "indexed": false,
          "name": "target",
          "type": "address"
        },
        {
          "indexed": false,
          "name": "frozen",
          "type": "bool"
        }
      ],
      "name": "FrozenFunds",
      "type": "event"
    },
    {
      "anonymous": false,
      "inputs": [
        {
          "indexed": true,
          "name": "from",
          "type": "address"
        },
        {
          "indexed": true,
          "name": "to",
          "type": "address"
        },
        {
          "indexed": false,
          "name": "value",
          "type": "uint256"
        }
      ],
      "name": "Transfer",
      "type": "event"
    },
    {
      "anonymous": false,
      "inputs": [
        {
          "indexed": true,
          "name": "from",
          "type": "address"
        },
        {
          "indexed": false,
          "name": "value",
          "type": "uint256"
        }
      ],
      "name": "Burn",
      "type": "event"
    },
    {
      "anonymous": false,
      "inputs": [
        {
          "indexed": true,
          "name": "from",
          "type": "address"
        },
        {
          "indexed": true,
          "name": "to",
          "type": "address"
        },
        {
          "indexed": false,
          "name": "value",
          "type": "uint256"
        },
        {
          "indexed": false,
          "name": "typex",
          "type": "string"
        }
      ],
      "name": "TransferSell",
      "type": "event"
    },
    {
      "constant": false,
      "inputs": [
        {
          "name": "rec_address",
          "type": "address"
        },
        {
          "name": "token_amount",
          "type": "uint256"
        }
      ],
      "name": "sellOffline",
      "outputs": [],
      "payable": false,
      "stateMutability": "nonpayable",
      "type": "function"
    },
    {
      "constant": true,
      "inputs": [],
      "name": "getEthRate",
      "outputs": [
        {
          "name": "",
          "type": "uint256"
        }
      ],
      "payable": false,
      "stateMutability": "view",
      "type": "function"
    },
    {
      "constant": true,
      "inputs": [],
      "name": "getConBal",
      "outputs": [
        {
          "name": "",
          "type": "uint256"
        }
      ],
      "payable": false,
      "stateMutability": "view",
      "type": "function"
    },
    {
      "constant": false,
      "inputs": [
        {
          "name": "newEthRate",
          "type": "uint256"
        }
      ],
      "name": "setEthRate",
      "outputs": [],
      "payable": false,
      "stateMutability": "nonpayable",
      "type": "function"
    },
    {
      "constant": true,
      "inputs": [],
      "name": "getTokenPrice",
      "outputs": [
        {
          "name": "",
          "type": "uint256"
        }
      ],
      "payable": false,
      "stateMutability": "view",
      "type": "function"
    },
    {
      "constant": false,
      "inputs": [
        {
          "name": "newTokenRate",
          "type": "uint256"
        }
      ],
      "name": "setTokenPrice",
      "outputs": [],
      "payable": false,
      "stateMutability": "nonpayable",
      "type": "function"
    },
    {
      "constant": false,
      "inputs": [
        {
          "name": "status",
          "type": "uint256"
        }
      ],
      "name": "setTransferStatus",
      "outputs": [],
      "payable": false,
      "stateMutability": "nonpayable",
      "type": "function"
    },
    {
      "constant": false,
      "inputs": [
        {
          "name": "statx",
          "type": "uint8"
        }
      ],
      "name": "changeIcoStatus",
      "outputs": [],
      "payable": false,
      "stateMutability": "nonpayable",
      "type": "function"
    },
    {
      "constant": false,
      "inputs": [
        {
          "name": "amountWith",
          "type": "uint256"
        }
      ],
      "name": "withdraw",
      "outputs": [],
      "payable": false,
      "stateMutability": "nonpayable",
      "type": "function"
    },
    {
      "constant": false,
      "inputs": [],
      "name": "withdraw_all",
      "outputs": [],
      "payable": false,
      "stateMutability": "nonpayable",
      "type": "function"
    },
    {
      "constant": false,
      "inputs": [
        {
          "name": "tokensToMint",
          "type": "uint256"
        }
      ],
      "name": "mintToken",
      "outputs": [],
      "payable": false,
      "stateMutability": "nonpayable",
      "type": "function"
    },
    {
      "constant": false,
      "inputs": [
        {
          "name": "_from",
          "type": "address"
        },
        {
          "name": "_to",
          "type": "address"
        },
        {
          "name": "_value",
          "type": "uint256"
        }
      ],
      "name": "adm_trasfer",
      "outputs": [],
      "payable": false,
      "stateMutability": "nonpayable",
      "type": "function"
    },
    {
      "constant": false,
      "inputs": [
        {
          "name": "target",
          "type": "address"
        },
        {
          "name": "freeze",
          "type": "bool"
        }
      ],
      "name": "freezeAccount",
      "outputs": [],
      "payable": false,
      "stateMutability": "nonpayable",
      "type": "function"
    },
    {
      "constant": true,
      "inputs": [],
      "name": "getCollectedAmount",
      "outputs": [
        {
          "name": "balance",
          "type": "uint256"
        }
      ],
      "payable": false,
      "stateMutability": "view",
      "type": "function"
    },
    {
      "constant": true,
      "inputs": [
        {
          "name": "_owner",
          "type": "address"
        }
      ],
      "name": "balanceOf",
      "outputs": [
        {
          "name": "balance",
          "type": "uint256"
        }
      ],
      "payable": false,
      "stateMutability": "view",
      "type": "function"
    },
    {
      "constant": true,
      "inputs": [],
      "name": "totalSupply",
      "outputs": [
        {
          "name": "",
          "type": "uint256"
        }
      ],
      "payable": false,
      "stateMutability": "view",
      "type": "function"
    },
    {
      "constant": false,
      "inputs": [
        {
          "name": "newOwner",
          "type": "address"
        }
      ],
      "name": "transferOwnership",
      "outputs": [],
      "payable": false,
      "stateMutability": "nonpayable",
      "type": "function"
    },
    {
      "constant": false,
      "inputs": [
        {
          "name": "_to",
          "type": "address"
        },
        {
          "name": "_value",
          "type": "uint256"
        }
      ],
      "name": "transfer",
      "outputs": [],
      "payable": false,
      "stateMutability": "nonpayable",
      "type": "function"
    },
    {
      "constant": false,
      "inputs": [
        {
          "name": "_from",
          "type": "address"
        },
        {
          "name": "_to",
          "type": "address"
        },
        {
          "name": "_value",
          "type": "uint256"
        }
      ],
      "name": "transferFrom",
      "outputs": [
        {
          "name": "success",
          "type": "bool"
        }
      ],
      "payable": false,
      "stateMutability": "nonpayable",
      "type": "function"
    },
    {
      "constant": false,
      "inputs": [
        {
          "name": "_spender",
          "type": "address"
        },
        {
          "name": "_value",
          "type": "uint256"
        }
      ],
      "name": "approve",
      "outputs": [
        {
          "name": "success",
          "type": "bool"
        }
      ],
      "payable": false,
      "stateMutability": "nonpayable",
      "type": "function"
    },
    {
      "constant": false,
      "inputs": [
        {
          "name": "_spender",
          "type": "address"
        },
        {
          "name": "_value",
          "type": "uint256"
        },
        {
          "name": "_extraData",
          "type": "bytes"
        }
      ],
      "name": "approveAndCall",
      "outputs": [
        {
          "name": "success",
          "type": "bool"
        }
      ],
      "payable": false,
      "stateMutability": "nonpayable",
      "type": "function"
    },
    {
      "constant": false,
      "inputs": [
        {
          "name": "_value",
          "type": "uint256"
        }
      ],
      "name": "burn",
      "outputs": [
        {
          "name": "success",
          "type": "bool"
        }
      ],
      "payable": false,
      "stateMutability": "nonpayable",
      "type": "function"
    },
    {
      "constant": false,
      "inputs": [
        {
          "name": "_from",
          "type": "address"
        },
        {
          "name": "_value",
          "type": "uint256"
        }
      ],
      "name": "burnFrom",
      "outputs": [
        {
          "name": "success",
          "type": "bool"
        }
      ],
      "payable": false,
      "stateMutability": "nonpayable",
      "type": "function"
    }
  ],
  "bytecode": "0x60806040523480156200001157600080fd5b506b033b2e3c9fd0803ce800000060038190555033600660006101000a81548173ffffffffffffffffffffffffffffffffffffffff021916908373ffffffffffffffffffffffffffffffffffffffff160217905550600354600d6000600660009054906101000a900473ffffffffffffffffffffffffffffffffffffffff1673ffffffffffffffffffffffffffffffffffffffff1673ffffffffffffffffffffffffffffffffffffffff168152602001908152602001600020819055506040805190810160405280600981526020017f4345524220436f696e0000000000000000000000000000000000000000000000815250600090805190602001906200011b92919062000260565b506040805190810160405280600481526020017f4345524200000000000000000000000000000000000000000000000000000000815250600190805190602001906200016992919062000260565b506012600260006101000a81548160ff021916908360ff16021790555060035460048190555061029960058190555060016008819055506032600981905550734532828ec057e6cfa04a42b153d74b345084c4c2600a60006101000a81548173ffffffffffffffffffffffffffffffffffffffff021916908373ffffffffffffffffffffffffffffffffffffffff160217905550731d38b496176bdab78d430cebf25b2fe413d3bf84600b60006101000a81548173ffffffffffffffffffffffffffffffffffffffff021916908373ffffffffffffffffffffffffffffffffffffffff1602179055506000600c819055506200030f565b828054600181600116156101000203166002900490600052602060002090601f016020900481019282601f10620002a357805160ff1916838001178555620002d4565b82800160010185558215620002d4579182015b82811115620002d3578251825591602001919060010190620002b6565b5b509050620002e39190620002e7565b5090565b6200030c91905b8082111562000308576000816000905550600101620002ee565b5090565b90565b61296e806200031f6000396000f3006080604052600436106101cd576000357c0100000000000000000000000000000000000000000000000000000000900463ffffffff16806306fdde03146101cf578063095ea7b31461025f57806311d414af146102c457806318160ddd146102f45780632242cf7f1461031f57806323b872dd1461034a5780632e1a7d4d146103cf578063313ce567146103fc578063332f7acf1461042d57806342966c68146104585780634b94f50e1461049d57806355234ec0146104c85780635c0e6bc4146104f357806362d216021461051e5780636a61e5fc146105755780636f4215b1146105a257806370a08231146105cf57806375b44aea1461062657806379cc67901461065157806388af883b146106b65780638da5cb5b1461072357806395d89b411461077a578063a9059cbb1461080a578063b414d4b614610857578063c634d032146108b2578063cae9ca51146108df578063cf3d1e3c1461098a578063d2d93f90146109d7578063d6e89cf014610a02578063d96e1f7614610a2f578063dd473d2b14610a5a578063dd62ed3e14610a71578063de571e4814610ae8578063e724529c14610b13578063ea4dfce914610b62578063ef6a676d14610bb9578063f2fde38b14610be4575b005b3480156101db57600080fd5b506101e4610c27565b6040518080602001828103825283818151815260200191508051906020019080838360005b83811015610224578082015181840152602081019050610209565b50505050905090810190601f1680156102515780820380516001836020036101000a031916815260200191505b509250505060405180910390f35b34801561026b57600080fd5b506102aa600480360381019080803573ffffffffffffffffffffffffffffffffffffffff16906020019092919080359060200190929190505050610cc5565b604051808215151515815260200191505060405180910390f35b3480156102d057600080fd5b506102f2600480360381019080803560ff169060200190929190505050610d52565b005b34801561030057600080fd5b50610309610e13565b6040518082815260200191505060405180910390f35b34801561032b57600080fd5b50610334610e19565b6040518082815260200191505060405180910390f35b34801561035657600080fd5b506103b5600480360381019080803573ffffffffffffffffffffffffffffffffffffffff169060200190929190803573ffffffffffffffffffffffffffffffffffffffff16906020019092919080359060200190929190505050610eec565b604051808215151515815260200191505060405180910390f35b3480156103db57600080fd5b506103fa60048036038101908080359060200190929190505050611018565b005b34801561040857600080fd5b506104116111f0565b604051808260ff1660ff16815260200191505060405180910390f35b34801561043957600080fd5b50610442611203565b6040518082815260200191505060405180910390f35b34801561046457600080fd5b5061048360048036038101908080359060200190929190505050611209565b604051808215151515815260200191505060405180910390f35b3480156104a957600080fd5b506104b261130c565b6040518082815260200191505060405180910390f35b3480156104d457600080fd5b506104dd6113ca565b6040518082815260200191505060405180910390f35b3480156104ff57600080fd5b506105086113d0565b6040518082815260200191505060405180910390f35b34801561052a57600080fd5b506105336113d6565b604051808273ffffffffffffffffffffffffffffffffffffffff1673ffffffffffffffffffffffffffffffffffffffff16815260200191505060405180910390f35b34801561058157600080fd5b506105a0600480360381019080803590602001909291905050506113fc565b005b3480156105ae57600080fd5b506105cd600480360381019080803590602001909291905050506114ba565b005b3480156105db57600080fd5b50610610600480360381019080803573ffffffffffffffffffffffffffffffffffffffff169060200190929190505050611578565b6040518082815260200191505060405180910390f35b34801561063257600080fd5b5061063b6115c1565b6040518082815260200191505060405180910390f35b34801561065d57600080fd5b5061069c600480360381019080803573ffffffffffffffffffffffffffffffffffffffff1690602001909291908035906020019092919050505061167f565b604051808215151515815260200191505060405180910390f35b3480156106c257600080fd5b50610721600480360381019080803573ffffffffffffffffffffffffffffffffffffffff169060200190929190803573ffffffffffffffffffffffffffffffffffffffff16906020019092919080359060200190929190505050611899565b005b34801561072f57600080fd5b5061073861195d565b604051808273ffffffffffffffffffffffffffffffffffffffff1673ffffffffffffffffffffffffffffffffffffffff16815260200191505060405180910390f35b34801561078657600080fd5b5061078f611983565b6040518080602001828103825283818151815260200191508051906020019080838360005b838110156107cf5780820151818401526020810190506107b4565b50505050905090810190601f1680156107fc5780820380516001836020036101000a031916815260200191505b509250505060405180910390f35b34801561081657600080fd5b50610855600480360381019080803573ffffffffffffffffffffffffffffffffffffffff16906020019092919080359060200190929190505050611a21565b005b34801561086357600080fd5b50610898600480360381019080803573ffffffffffffffffffffffffffffffffffffffff169060200190929190505050611a30565b604051808215151515815260200191505060405180910390f35b3480156108be57600080fd5b506108dd60048036038101908080359060200190929190505050611a50565b005b3480156108eb57600080fd5b50610970600480360381019080803573ffffffffffffffffffffffffffffffffffffffff16906020019092919080359060200190929190803590602001908201803590602001908080601f0160208091040260200160405190810160405280939291908181526020018383808284378201915050505050509192919290505050611c12565b604051808215151515815260200191505060405180910390f35b34801561099657600080fd5b506109d5600480360381019080803573ffffffffffffffffffffffffffffffffffffffff16906020019092919080359060200190929190505050611d95565b005b3480156109e357600080fd5b506109ec611f7e565b6040518082815260200191505060405180910390f35b348015610a0e57600080fd5b50610a2d60048036038101908080359060200190929190505050611f84565b005b348015610a3b57600080fd5b50610a44612042565b6040518082815260200191505060405180910390f35b348015610a6657600080fd5b50610a6f612048565b005b348015610a7d57600080fd5b50610ad2600480360381019080803573ffffffffffffffffffffffffffffffffffffffff169060200190929190803573ffffffffffffffffffffffffffffffffffffffff169060200190929190505050612245565b6040518082815260200191505060405180910390f35b348015610af457600080fd5b50610afd61226a565b6040518082815260200191505060405180910390f35b348015610b1f57600080fd5b50610b60600480360381019080803573ffffffffffffffffffffffffffffffffffffffff169060200190929190803515159060200190929190505050612328565b005b348015610b6e57600080fd5b50610b776124a6565b604051808273ffffffffffffffffffffffffffffffffffffffff1673ffffffffffffffffffffffffffffffffffffffff16815260200191505060405180910390f35b348015610bc557600080fd5b50610bce6124cc565b6040518082815260200191505060405180910390f35b348015610bf057600080fd5b50610c25600480360381019080803573ffffffffffffffffffffffffffffffffffffffff1690602001909291905050506124d2565b005b60008054600181600116156101000203166002900480601f016020809104026020016040519081016040528092919081815260200182805460018160011615610100020316600290048015610cbd5780601f10610c9257610100808354040283529160200191610cbd565b820191906000526020600020905b815481529060010190602001808311610ca057829003601f168201915b505050505081565b600081600e60003373ffffffffffffffffffffffffffffffffffffffff1673ffffffffffffffffffffffffffffffffffffffff16815260200190815260200160002060008573ffffffffffffffffffffffffffffffffffffffff1673ffffffffffffffffffffffffffffffffffffffff168152602001908152602001600020819055506001905092915050565b600660009054906101000a900473ffffffffffffffffffffffffffffffffffffffff1673ffffffffffffffffffffffffffffffffffffffff163373ffffffffffffffffffffffffffffffffffffffff161480610dfb5750600b60009054906101000a900473ffffffffffffffffffffffffffffffffffffffff1673ffffffffffffffffffffffffffffffffffffffff163373ffffffffffffffffffffffffffffffffffffffff16145b1515610e0657600080fd5b8060ff1660088190555050565b60035481565b6000600660009054906101000a900473ffffffffffffffffffffffffffffffffffffffff1673ffffffffffffffffffffffffffffffffffffffff163373ffffffffffffffffffffffffffffffffffffffff161480610ec45750600b60009054906101000a900473ffffffffffffffffffffffffffffffffffffffff1673ffffffffffffffffffffffffffffffffffffffff163373ffffffffffffffffffffffffffffffffffffffff16145b1515610ecf57600080fd5b3073ffffffffffffffffffffffffffffffffffffffff1631905090565b6000600e60008573ffffffffffffffffffffffffffffffffffffffff1673ffffffffffffffffffffffffffffffffffffffff16815260200190815260200160002060003373ffffffffffffffffffffffffffffffffffffffff1673ffffffffffffffffffffffffffffffffffffffff1681526020019081526020016000205482101515610f7857600080fd5b81600e60008673ffffffffffffffffffffffffffffffffffffffff1673ffffffffffffffffffffffffffffffffffffffff16815260200190815260200160002060003373ffffffffffffffffffffffffffffffffffffffff1673ffffffffffffffffffffffffffffffffffffffff1681526020019081526020016000206000828254039250508190555061100d848484612677565b600190509392505050565b600660009054906101000a900473ffffffffffffffffffffffffffffffffffffffff1673ffffffffffffffffffffffffffffffffffffffff163373ffffffffffffffffffffffffffffffffffffffff1614806110c15750600b60009054906101000a900473ffffffffffffffffffffffffffffffffffffffff1673ffffffffffffffffffffffffffffffffffffffff163373ffffffffffffffffffffffffffffffffffffffff16145b15156110cc57600080fd5b600660009054906101000a900473ffffffffffffffffffffffffffffffffffffffff1673ffffffffffffffffffffffffffffffffffffffff163373ffffffffffffffffffffffffffffffffffffffff1614806111755750600b60009054906101000a900473ffffffffffffffffffffffffffffffffffffffff1673ffffffffffffffffffffffffffffffffffffffff163373ffffffffffffffffffffffffffffffffffffffff16145b156111e857600a60009054906101000a900473ffffffffffffffffffffffffffffffffffffffff1673ffffffffffffffffffffffffffffffffffffffff166108fc829081150290604051600060405180830381858888f193505050501580156111e2573d6000803e3d6000fd5b506111ed565b600080fd5b50565b600260009054906101000a900460ff1681565b60075481565b600081600d60003373ffffffffffffffffffffffffffffffffffffffff1673ffffffffffffffffffffffffffffffffffffffff1681526020019081526020016000205411151561125857600080fd5b81600d60003373ffffffffffffffffffffffffffffffffffffffff1673ffffffffffffffffffffffffffffffffffffffff16815260200190815260200160002060008282540392505081905550816003600082825403925050819055503373ffffffffffffffffffffffffffffffffffffffff167fcc16f5dbb4873280815c1ee09dbd06736cffcc184412cf7a71a0fdb75d397ca5836040518082815260200191505060405180910390a260019050919050565b6000600660009054906101000a900473ffffffffffffffffffffffffffffffffffffffff1673ffffffffffffffffffffffffffffffffffffffff163373ffffffffffffffffffffffffffffffffffffffff1614806113b75750600b60009054906101000a900473ffffffffffffffffffffffffffffffffffffffff1673ffffffffffffffffffffffffffffffffffffffff163373ffffffffffffffffffffffffffffffffffffffff16145b15156113c257600080fd5b600954905090565b60045481565b60095481565b600b60009054906101000a900473ffffffffffffffffffffffffffffffffffffffff1681565b600660009054906101000a900473ffffffffffffffffffffffffffffffffffffffff1673ffffffffffffffffffffffffffffffffffffffff163373ffffffffffffffffffffffffffffffffffffffff1614806114a55750600b60009054906101000a900473ffffffffffffffffffffffffffffffffffffffff1673ffffffffffffffffffffffffffffffffffffffff163373ffffffffffffffffffffffffffffffffffffffff16145b15156114b057600080fd5b8060098190555050565b600660009054906101000a900473ffffffffffffffffffffffffffffffffffffffff1673ffffffffffffffffffffffffffffffffffffffff163373ffffffffffffffffffffffffffffffffffffffff1614806115635750600b60009054906101000a900473ffffffffffffffffffffffffffffffffffffffff1673ffffffffffffffffffffffffffffffffffffffff163373ffffffffffffffffffffffffffffffffffffffff16145b151561156e57600080fd5b8060058190555050565b6000600d60008373ffffffffffffffffffffffffffffffffffffffff1673ffffffffffffffffffffffffffffffffffffffff168152602001908152602001600020549050919050565b6000600660009054906101000a900473ffffffffffffffffffffffffffffffffffffffff1673ffffffffffffffffffffffffffffffffffffffff163373ffffffffffffffffffffffffffffffffffffffff16148061166c5750600b60009054906101000a900473ffffffffffffffffffffffffffffffffffffffff1673ffffffffffffffffffffffffffffffffffffffff163373ffffffffffffffffffffffffffffffffffffffff16145b151561167757600080fd5b600554905090565b600081600d60008573ffffffffffffffffffffffffffffffffffffffff1673ffffffffffffffffffffffffffffffffffffffff16815260200190815260200160002054101515156116cf57600080fd5b600e60008473ffffffffffffffffffffffffffffffffffffffff1673ffffffffffffffffffffffffffffffffffffffff16815260200190815260200160002060003373ffffffffffffffffffffffffffffffffffffffff1673ffffffffffffffffffffffffffffffffffffffff16815260200190815260200160002054821115151561175a57600080fd5b81600d60008573ffffffffffffffffffffffffffffffffffffffff1673ffffffffffffffffffffffffffffffffffffffff1681526020019081526020016000206000828254039250508190555081600e60008573ffffffffffffffffffffffffffffffffffffffff1673ffffffffffffffffffffffffffffffffffffffff16815260200190815260200160002060003373ffffffffffffffffffffffffffffffffffffffff1673ffffffffffffffffffffffffffffffffffffffff16815260200190815260200160002060008282540392505081905550816003600082825403925050819055508273ffffffffffffffffffffffffffffffffffffffff167fcc16f5dbb4873280815c1ee09dbd06736cffcc184412cf7a71a0fdb75d397ca5836040518082815260200191505060405180910390a26001905092915050565b600660009054906101000a900473ffffffffffffffffffffffffffffffffffffffff1673ffffffffffffffffffffffffffffffffffffffff163373ffffffffffffffffffffffffffffffffffffffff1614806119425750600b60009054906101000a900473ffffffffffffffffffffffffffffffffffffffff1673ffffffffffffffffffffffffffffffffffffffff163373ffffffffffffffffffffffffffffffffffffffff16145b151561194d57600080fd5b611958838383612677565b505050565b600660009054906101000a900473ffffffffffffffffffffffffffffffffffffffff1681565b60018054600181600116156101000203166002900480601f016020809104026020016040519081016040528092919081815260200182805460018160011615610100020316600290048015611a195780601f106119ee57610100808354040283529160200191611a19565b820191906000526020600020905b8154815290600101906020018083116119fc57829003601f168201915b505050505081565b611a2c338383612677565b5050565b600f6020528060005260406000206000915054906101000a900460ff1681565b6000600660009054906101000a900473ffffffffffffffffffffffffffffffffffffffff1673ffffffffffffffffffffffffffffffffffffffff163373ffffffffffffffffffffffffffffffffffffffff161480611afb5750600b60009054906101000a900473ffffffffffffffffffffffffffffffffffffffff1673ffffffffffffffffffffffffffffffffffffffff163373ffffffffffffffffffffffffffffffffffffffff16145b1515611b0657600080fd5b6000821115611c0e57670de0b6b3a76400008202905080600d6000600660009054906101000a900473ffffffffffffffffffffffffffffffffffffffff1673ffffffffffffffffffffffffffffffffffffffff1673ffffffffffffffffffffffffffffffffffffffff1681526020019081526020016000206000828254019250508190555080600360008282540192505081905550600660009054906101000a900473ffffffffffffffffffffffffffffffffffffffff1673ffffffffffffffffffffffffffffffffffffffff1660007fddf252ad1be2c89b69c2b068fc378daa952ba7f163c4a11628f55a4df523b3ef836040518082815260200191505060405180910390a35b5050565b600080849050611c228585610cc5565b15611d8c578073ffffffffffffffffffffffffffffffffffffffff16638f4ffcb1338630876040518563ffffffff167c0100000000000000000000000000000000000000000000000000000000028152600401808573ffffffffffffffffffffffffffffffffffffffff1673ffffffffffffffffffffffffffffffffffffffff1681526020018481526020018373ffffffffffffffffffffffffffffffffffffffff1673ffffffffffffffffffffffffffffffffffffffff16815260200180602001828103825283818151815260200191508051906020019080838360005b83811015611d1c578082015181840152602081019050611d01565b50505050905090810190601f168015611d495780820380516001836020036101000a031916815260200191505b5095505050505050600060405180830381600087803b158015611d6b57600080fd5b505af1158015611d7f573d6000803e3d6000fd5b5050505060019150611d8d565b5b509392505050565b6000600660009054906101000a900473ffffffffffffffffffffffffffffffffffffffff1673ffffffffffffffffffffffffffffffffffffffff163373ffffffffffffffffffffffffffffffffffffffff161480611e405750600b60009054906101000a900473ffffffffffffffffffffffffffffffffffffffff1673ffffffffffffffffffffffffffffffffffffffff163373ffffffffffffffffffffffffffffffffffffffff16145b1515611e4b57600080fd5b60006004541115611f7457670de0b6b3a764000082029050600454811015611f6a578060045403600481905550611ea5600660009054906101000a900473ffffffffffffffffffffffffffffffffffffffff168483612677565b8273ffffffffffffffffffffffffffffffffffffffff16600660009054906101000a900473ffffffffffffffffffffffffffffffffffffffff1673ffffffffffffffffffffffffffffffffffffffff167f26e43db5cbb10b8b28a64e99af6d76d8c7b0edffd9c3414bee4941e9c5231c48836040518082815260200180602001828103825260078152602001807f4f66666c696e65000000000000000000000000000000000000000000000000008152506020019250505060405180910390a3611f6f565b600080fd5b611f79565b600080fd5b505050565b60055481565b600660009054906101000a900473ffffffffffffffffffffffffffffffffffffffff1673ffffffffffffffffffffffffffffffffffffffff163373ffffffffffffffffffffffffffffffffffffffff16148061202d5750600b60009054906101000a900473ffffffffffffffffffffffffffffffffffffffff1673ffffffffffffffffffffffffffffffffffffffff163373ffffffffffffffffffffffffffffffffffffffff16145b151561203857600080fd5b80600c8190555050565b60085481565b6000600660009054906101000a900473ffffffffffffffffffffffffffffffffffffffff1673ffffffffffffffffffffffffffffffffffffffff163373ffffffffffffffffffffffffffffffffffffffff1614806120f35750600b60009054906101000a900473ffffffffffffffffffffffffffffffffffffffff1673ffffffffffffffffffffffffffffffffffffffff163373ffffffffffffffffffffffffffffffffffffffff16145b15156120fe57600080fd5b600660009054906101000a900473ffffffffffffffffffffffffffffffffffffffff1673ffffffffffffffffffffffffffffffffffffffff163373ffffffffffffffffffffffffffffffffffffffff1614806121a75750600b60009054906101000a900473ffffffffffffffffffffffffffffffffffffffff1673ffffffffffffffffffffffffffffffffffffffff163373ffffffffffffffffffffffffffffffffffffffff16145b1561223d57662386f26fc100003073ffffffffffffffffffffffffffffffffffffffff1631039050600a60009054906101000a900473ffffffffffffffffffffffffffffffffffffffff1673ffffffffffffffffffffffffffffffffffffffff166108fc829081150290604051600060405180830381858888f19350505050158015612237573d6000803e3d6000fd5b50612242565b600080fd5b50565b600e602052816000526040600020602052806000526040600020600091509150505481565b6000600660009054906101000a900473ffffffffffffffffffffffffffffffffffffffff1673ffffffffffffffffffffffffffffffffffffffff163373ffffffffffffffffffffffffffffffffffffffff1614806123155750600b60009054906101000a900473ffffffffffffffffffffffffffffffffffffffff1673ffffffffffffffffffffffffffffffffffffffff163373ffffffffffffffffffffffffffffffffffffffff16145b151561232057600080fd5b600754905090565b600660009054906101000a900473ffffffffffffffffffffffffffffffffffffffff1673ffffffffffffffffffffffffffffffffffffffff163373ffffffffffffffffffffffffffffffffffffffff1614806123d15750600b60009054906101000a900473ffffffffffffffffffffffffffffffffffffffff1673ffffffffffffffffffffffffffffffffffffffff163373ffffffffffffffffffffffffffffffffffffffff16145b15156123dc57600080fd5b80600f60008473ffffffffffffffffffffffffffffffffffffffff1673ffffffffffffffffffffffffffffffffffffffff16815260200190815260200160002060006101000a81548160ff0219169083151502179055507f48335238b4855f35377ed80f164e8c6f3c366e54ac00b96a6402d4a9814a03a58282604051808373ffffffffffffffffffffffffffffffffffffffff1673ffffffffffffffffffffffffffffffffffffffff168152602001821515151581526020019250505060405180910390a15050565b600a60009054906101000a900473ffffffffffffffffffffffffffffffffffffffff1681565b600c5481565b600660009054906101000a900473ffffffffffffffffffffffffffffffffffffffff1673ffffffffffffffffffffffffffffffffffffffff163373ffffffffffffffffffffffffffffffffffffffff16148061257b5750600b60009054906101000a900473ffffffffffffffffffffffffffffffffffffffff1673ffffffffffffffffffffffffffffffffffffffff163373ffffffffffffffffffffffffffffffffffffffff16145b151561258657600080fd5b6000600d6000600660009054906101000a900473ffffffffffffffffffffffffffffffffffffffff1673ffffffffffffffffffffffffffffffffffffffff1673ffffffffffffffffffffffffffffffffffffffff16815260200190815260200160002081905550600454600d60008373ffffffffffffffffffffffffffffffffffffffff1673ffffffffffffffffffffffffffffffffffffffff1681526020019081526020016000208190555080600660006101000a81548173ffffffffffffffffffffffffffffffffffffffff021916908373ffffffffffffffffffffffffffffffffffffffff16021790555050565b6001600c5414806126d55750600660009054906101000a900473ffffffffffffffffffffffffffffffffffffffff1673ffffffffffffffffffffffffffffffffffffffff168373ffffffffffffffffffffffffffffffffffffffff16145b1561293857600f60008473ffffffffffffffffffffffffffffffffffffffff1673ffffffffffffffffffffffffffffffffffffffff16815260200190815260200160002060009054906101000a900460ff1615151561273357600080fd5b60008273ffffffffffffffffffffffffffffffffffffffff161415151561275957600080fd5b80600d60008573ffffffffffffffffffffffffffffffffffffffff1673ffffffffffffffffffffffffffffffffffffffff168152602001908152602001600020541115156127a657600080fd5b600d60008373ffffffffffffffffffffffffffffffffffffffff1673ffffffffffffffffffffffffffffffffffffffff1681526020019081526020016000205481600d60008573ffffffffffffffffffffffffffffffffffffffff1673ffffffffffffffffffffffffffffffffffffffff168152602001908152602001600020540111151561283457600080fd5b80600d60008573ffffffffffffffffffffffffffffffffffffffff1673ffffffffffffffffffffffffffffffffffffffff1681526020019081526020016000206000828254039250508190555080600d60008473ffffffffffffffffffffffffffffffffffffffff1673ffffffffffffffffffffffffffffffffffffffff168152602001908152602001600020600082825401925050819055508173ffffffffffffffffffffffffffffffffffffffff168373ffffffffffffffffffffffffffffffffffffffff167fddf252ad1be2c89b69c2b068fc378daa952ba7f163c4a11628f55a4df523b3ef836040518082815260200191505060405180910390a361293d565b600080fd5b5050505600a165627a7a723058203e27cdb3ca10dee91ba89a6969bba291540981b3211a7a260d196add0b237de80029",
  "source": "pragma solidity ^0.4.21;\ncontract tokenRecipient { function receiveApproval(address from, uint256 value, address token, bytes extraData) public; }\ncontract CERB_Coin\n  { \n     /* Variables  */\n    string  public name;                                                        // name  of contract\n    string  public symbol;                                                      // symbol of contract\n    uint8   public decimals;                                                    // how many decimals to keep , 18 is best \n    uint256 public totalSupply;                                                 // how many tokens to create\n    uint256 public remaining;                                                   // how many tokens has left\n    uint    public ethRate;                                                     // current rate of ether\n    address public owner;                                                       // contract creator\n    uint256 public amountCollected;                                             // how much funds has been collected\n    uint    public icoStatus;                                                   // allow / disallow online purchase\n    uint    public icoTokenPrice;                                               // token price, start with 10 cents\n    address public benAddress;                                                  // funds withdraw address\n    address public bkaddress;                                                   \n    uint    public allowTransferToken;                                          // allow / disallow token transfer for members\n    \n     /* Array  */\n    mapping (address => uint256) public balanceOf;                              // array of all balances\n    mapping (address => mapping (address => uint256)) public allowance;\n    mapping (address => bool) public frozenAccount;\n    \n    /* Events  */\n    event FrozenFunds(address target, bool frozen);\n    event Transfer(address indexed from, address indexed to, uint256 value);\n    event Burn(address indexed from, uint256 value);\n    event TransferSell(address indexed from, address indexed to, uint256 value, string typex); // only for ico sales\n    \n\n     /* Initializes contract with initial supply tokens to the creator of the contract */\n    function CERB_Coin() public\n    {\n      totalSupply = 1000000000000000000000000000;                                 // as the decimals are 18, we add 18 zero after total supply, as all values are stored in wei\n      owner =  msg.sender;                                                      // Set owner of contract\n      balanceOf[owner] = totalSupply;                                           // Give the creator all initial tokens\n      name = \"CERB Coin\";                                                     // Set the name for display purposes\n      symbol = \"CERB\";                                                          // Set the symbol for display purposes\n      decimals = 18;                                                            // Amount of decimals for display purposes\n      remaining = totalSupply;                                                  // How many tokens are left\n      ethRate = 665;                                                            // default token price\n      icoStatus = 1;                                                            // default ico status\n      icoTokenPrice = 50;                                                       // values are in cents\n      benAddress = 0x4532828EC057e6cFa04a42b153d74B345084C4C2;                  // funds withdraw address\n      bkaddress  = 0x1D38b496176bDaB78D430cebf25B2Fe413d3BF84;                   \n      allowTransferToken = 0;                                                   // default set to disable, it will be enable after ICO is over\n    }\n\n   modifier onlyOwner()\n    {\n        require((msg.sender == owner) || (msg.sender ==  bkaddress));\n        _;\n    }\n\n\n    function () public payable                                                  // called when ether is send to contract\n    {\n    }    \n    \n    function sellOffline(address rec_address,uint256 token_amount) public onlyOwner \n    {\n        if (remaining > 0)\n        {\n            uint finalTokens =  (token_amount  * (10 ** 18));              \n            if(finalTokens < remaining)\n                {\n                    remaining = remaining - finalTokens;\n                    _transfer(owner,rec_address, finalTokens);    \n                    TransferSell(owner, rec_address, finalTokens,'Offline');\n                }\n            else\n                {\n                    revert();\n                }\n        }\n        else\n        {\n            revert();\n        }        \n    }\n    \n    function getEthRate() onlyOwner public constant returns  (uint)            // Get current rate of ether \n    {\n        return ethRate;\n    }\n\n    \n    function getConBal() onlyOwner public constant returns  (uint)            // Get  Balance \n    {\n        return this.balance;\n    }    \n    \n    function setEthRate (uint newEthRate) public  onlyOwner                    // Set ether price\n    {\n        ethRate = newEthRate;\n    } \n\n\n    function getTokenPrice() onlyOwner public constant returns  (uint)         // Get current token price\n    {\n        return icoTokenPrice;\n    }\n    \n    function setTokenPrice (uint newTokenRate) public  onlyOwner               // Set one token price\n    {\n        icoTokenPrice = newTokenRate;\n    }     \n    \n    \n    function setTransferStatus (uint status) public  onlyOwner                 // Set transfer status\n    {\n        allowTransferToken = status;\n    }   \n    \n    function changeIcoStatus (uint8 statx)  public onlyOwner                   // Change ICO Status\n    {\n        icoStatus = statx;\n    } \n    \n\n    function withdraw(uint amountWith) public onlyOwner                        // withdraw partical amount\n        {\n            if((msg.sender == owner) || (msg.sender ==  bkaddress))\n            {\n                benAddress.transfer(amountWith);\n            }\n            else\n            {\n                revert();\n            }\n        }\n\n    function withdraw_all() public onlyOwner                                   // call to withdraw all available balance\n        {\n            if((msg.sender == owner) || (msg.sender ==  bkaddress) )\n            {\n                var amountWith = this.balance - 10000000000000000;\n                benAddress.transfer(amountWith);\n            }\n            else\n            {\n                revert();\n            }\n        }\n\n    function mintToken(uint256 tokensToMint) public onlyOwner \n        {\n            if(tokensToMint > 0)\n            {\n                var totalTokenToMint = tokensToMint * (10 ** 18);\n                balanceOf[owner] += totalTokenToMint;\n                totalSupply += totalTokenToMint;\n                Transfer(0, owner, totalTokenToMint);\n            }\n        }\n\t\t\n\n\t /* Admin Trasfer  */\n\t function adm_trasfer(address _from,address _to, uint256 _value)  public onlyOwner\n\t\t  {\n\t\t\t  _transfer(_from, _to, _value);\n\t\t  }\n\t\t\n\n    function freezeAccount(address target, bool freeze) public onlyOwner \n        {\n            frozenAccount[target] = freeze;\n            FrozenFunds(target, freeze);\n        }\n            \n\n    function getCollectedAmount() onlyOwner public constant returns (uint256 balance) \n        {\n            return amountCollected;\n        }        \n\n    function balanceOf(address _owner) public constant returns (uint256 balance) \n        {\n            return balanceOf[_owner];\n        }\n\n    function totalSupply() private constant returns (uint256 tsupply) \n        {\n            tsupply = totalSupply;\n        }    \n\n\n    function transferOwnership(address newOwner) public onlyOwner \n        { \n            balanceOf[owner] = 0;                        \n            balanceOf[newOwner] = remaining;               \n            owner = newOwner; \n        }        \n\n  /* Internal transfer, only can be called by this contract */\n  function _transfer(address _from, address _to, uint _value) internal \n      {\n          if(allowTransferToken == 1 || _from == owner )\n          {\n              require(!frozenAccount[_from]);                                   // Prevent transfer from frozenfunds\n              require (_to != 0x0);                                             // Prevent transfer to 0x0 address. Use burn() instead\n              require (balanceOf[_from] > _value);                              // Check if the sender has enough\n              require (balanceOf[_to] + _value > balanceOf[_to]);               // Check for overflows\n              balanceOf[_from] -= _value;                                       // Subtract from the sender\n              balanceOf[_to] += _value;                                         // Add to the recipient\n              Transfer(_from, _to, _value);                                     // raise event\n          }\n          else\n          {\n               revert();\n          }\n      }\n\n  function transfer(address _to, uint256 _value)  public\n      {\n          _transfer(msg.sender, _to, _value);\n      }\n\n  function transferFrom(address _from, address _to, uint256 _value) public returns (bool success) \n      {\n          require (_value < allowance[_from][msg.sender]);                      // Check allowance\n          allowance[_from][msg.sender] -= _value;\n          _transfer(_from, _to, _value);\n          return true;\n      }\n\n  function approve(address _spender, uint256 _value) public returns (bool success) \n      {\n          allowance[msg.sender][_spender] = _value;\n          return true;\n      }\n\n  function approveAndCall(address _spender, uint256 _value, bytes _extraData) public returns (bool success)\n      {\n          tokenRecipient spender = tokenRecipient(_spender);\n          if (approve(_spender, _value)) {\n              spender.receiveApproval(msg.sender, _value, this, _extraData);\n              return true;\n          }\n      }        \n\n  function burn(uint256 _value) public returns (bool success) \n      {\n          require (balanceOf[msg.sender] > _value);                             // Check if the sender has enough\n          balanceOf[msg.sender] -= _value;                                      // Subtract from the sender\n          totalSupply -= _value;                                                // Updates totalSupply\n          Burn(msg.sender, _value);\n          return true;\n      }\n\n  function burnFrom(address _from, uint256 _value) public returns (bool success) \n      {\n          require(balanceOf[_from] >= _value);                                  // Check if the targeted balance is enough\n          require(_value <= allowance[_from][msg.sender]);                      // Check allowance\n          balanceOf[_from] -= _value;                                           // Subtract from the targeted balance\n          allowance[_from][msg.sender] -= _value;                               // Subtract from the sender's allowance\n          totalSupply -= _value;                                                // Update totalSupply\n          Burn(_from, _value);\n          return true;\n      }\n} // end of contract\n",
  "sourcePath": "/workdir/truffle_example/before/0x81d4703c5b3499B57397C999A72f492Fc681410D/contracts/0x81d4703c5b3499B57397C999A72f492Fc681410D.sol",
  "compiler": {
    "name": "solc",
    "version": "0.4.25+commit.59dbf8f1.Emscripten.clang"
  },
  "schemaVersion": "3.4.8",
  "updatedAt": "2022-08-15T04:44:35.213Z",
  "networkType": "ethereum",
  "devdoc": {
    "methods": {}
  },
  "userdoc": {
    "methods": {}
  }
}