{
  "contractName": "AirDropContract",
  "abi": [
    {
      "inputs": [],
      "payable": false,
      "stateMutability": "nonpayable",
      "type": "constructor"
    },
    {
      "constant": false,
      "inputs": [
        {
          "name": "contract_address",
          "type": "address"
        },
        {
          "name": "tos",
          "type": "address[]"
        },
        {
          "name": "vs",
          "type": "uint256[]"
        }
      ],
      "name": "transfer",
      "outputs": [
        {
          "name": "",
          "type": "bool"
        }
      ],
      "payable": false,
      "stateMutability": "nonpayable",
      "type": "function"
    }
  ],
  "bytecode": "0x608060405234801561001057600080fd5b506103b0806100206000396000f300608060405260043610610041576000357c0100000000000000000000000000000000000000000000000000000000900463ffffffff16806372a503be14610046575b600080fd5b34801561005257600080fd5b5061010d600480360381019080803573ffffffffffffffffffffffffffffffffffffffff1690602001909291908035906020019082018035906020019080806020026020016040519081016040528093929190818152602001838360200280828437820191505050505050919291929080359060200190820180359060200190808060200260200160405190810160405280939291908181526020018383602002808284378201915050505050509192919290505050610127565b604051808215151515815260200191505060405180910390f35b60008060008086600073ffffffffffffffffffffffffffffffffffffffff168173ffffffffffffffffffffffffffffffffffffffff161415151561016a57600080fd5b3073ffffffffffffffffffffffffffffffffffffffff168173ffffffffffffffffffffffffffffffffffffffff16141515156101a557600080fd5b600087511115156101b557600080fd5b600086511115156101c557600080fd5b855187511415156101d557600080fd5b60405180807f7472616e7366657246726f6d28616464726573732c616464726573732c75696e81526020017f7432353629000000000000000000000000000000000000000000000000000000815250602501905060405180910390209350600092505b8651831015610375578773ffffffffffffffffffffffffffffffffffffffff16847c0100000000000000000000000000000000000000000000000000000000900433898681518110151561028857fe5b9060200190602002015189878151811015156102a057fe5b906020019060200201516040518463ffffffff167c0100000000000000000000000000000000000000000000000000000000028152600401808473ffffffffffffffffffffffffffffffffffffffff1673ffffffffffffffffffffffffffffffffffffffff1681526020018373ffffffffffffffffffffffffffffffffffffffff1673ffffffffffffffffffffffffffffffffffffffff16815260200182815260200193505050506000604051808303816000875af192505050915081151561036857600080fd5b8280600101935050610238565b600194505050505093925050505600a165627a7a723058203ba48e12b6362fe6d687ef6df8de5cd0e153798463883ce67d98a1ec30ef4ca10029",
  "source": "pragma solidity ^0.4.18;\n\ncontract sGuardPlus {\n    constructor() internal {}\n}\n\ncontract AirDropContract {\n    constructor() public {}\n\n    modifier validAddress(address addr) {\n        require(addr != address(0x0));\n        require(addr != address(this));\n        _;\n    }\n\n    function transfer(\n        address contract_address,\n        address[] tos,\n        uint256[] vs\n    ) public validAddress(contract_address) returns (bool) {\n        require(tos.length > 0);\n        require(vs.length > 0);\n        require(tos.length == vs.length);\n        bytes4 id = bytes4(keccak256(\"transferFrom(address,address,uint256)\"));\n        for (uint256 i = 0; i < tos.length; i++) {\n            bool __sent_result101 = contract_address.call(\n                id,\n                msg.sender,\n                tos[i],\n                vs[i]\n            );\n            require(__sent_result101);\n        }\n\n        return true;\n    }\n}\n",
  "sourcePath": "/workdir/truffle_example/after/0xa1fceeff3acc57d257b917e30c4df661401d6431/contracts/0xa1fceeff3acc57d257b917e30c4df661401d6431.sol.fixed.sol",
  "compiler": {
    "name": "solc",
    "version": "0.4.25+commit.59dbf8f1.Emscripten.clang"
  },
  "schemaVersion": "3.4.8",
  "updatedAt": "2022-08-13T05:23:16.488Z",
  "networkType": "ethereum",
  "devdoc": {
    "methods": {}
  },
  "userdoc": {
    "methods": {}
  }
}