{
  "contractName": "token",
  "abi": [
    {
      "constant": true,
      "inputs": [],
      "name": "name",
      "outputs": [
        {
          "name": "",
          "type": "string"
        }
      ],
      "payable": false,
      "stateMutability": "view",
      "type": "function"
    },
    {
      "constant": true,
      "inputs": [],
      "name": "totalSupply",
      "outputs": [
        {
          "name": "",
          "type": "uint256"
        }
      ],
      "payable": false,
      "stateMutability": "view",
      "type": "function"
    },
    {
      "constant": true,
      "inputs": [],
      "name": "decimals",
      "outputs": [
        {
          "name": "",
          "type": "uint8"
        }
      ],
      "payable": false,
      "stateMutability": "view",
      "type": "function"
    },
    {
      "constant": true,
      "inputs": [],
      "name": "standard",
      "outputs": [
        {
          "name": "",
          "type": "string"
        }
      ],
      "payable": false,
      "stateMutability": "view",
      "type": "function"
    },
    {
      "constant": true,
      "inputs": [
        {
          "name": "",
          "type": "address"
        }
      ],
      "name": "balanceOf",
      "outputs": [
        {
          "name": "",
          "type": "uint256"
        }
      ],
      "payable": false,
      "stateMutability": "view",
      "type": "function"
    },
    {
      "constant": true,
      "inputs": [],
      "name": "symbol",
      "outputs": [
        {
          "name": "",
          "type": "string"
        }
      ],
      "payable": false,
      "stateMutability": "view",
      "type": "function"
    },
    {
      "constant": true,
      "inputs": [
        {
          "name": "",
          "type": "address"
        },
        {
          "name": "",
          "type": "address"
        }
      ],
      "name": "allowance",
      "outputs": [
        {
          "name": "",
          "type": "uint256"
        }
      ],
      "payable": false,
      "stateMutability": "view",
      "type": "function"
    },
    {
      "inputs": [
        {
          "name": "initialSupply",
          "type": "uint256"
        },
        {
          "name": "tokenName",
          "type": "string"
        },
        {
          "name": "decimalUnits",
          "type": "uint8"
        },
        {
          "name": "tokenSymbol",
          "type": "string"
        }
      ],
      "payable": false,
      "stateMutability": "nonpayable",
      "type": "constructor"
    },
    {
      "payable": false,
      "stateMutability": "nonpayable",
      "type": "fallback"
    },
    {
      "anonymous": false,
      "inputs": [
        {
          "indexed": true,
          "name": "from",
          "type": "address"
        },
        {
          "indexed": true,
          "name": "to",
          "type": "address"
        },
        {
          "indexed": false,
          "name": "value",
          "type": "uint256"
        }
      ],
      "name": "Transfer",
      "type": "event"
    },
    {
      "constant": false,
      "inputs": [
        {
          "name": "_to",
          "type": "address"
        },
        {
          "name": "_value",
          "type": "uint256"
        }
      ],
      "name": "transfer",
      "outputs": [],
      "payable": false,
      "stateMutability": "nonpayable",
      "type": "function"
    },
    {
      "constant": false,
      "inputs": [
        {
          "name": "_spender",
          "type": "address"
        },
        {
          "name": "_value",
          "type": "uint256"
        }
      ],
      "name": "approve",
      "outputs": [
        {
          "name": "success",
          "type": "bool"
        }
      ],
      "payable": false,
      "stateMutability": "nonpayable",
      "type": "function"
    },
    {
      "constant": false,
      "inputs": [
        {
          "name": "_spender",
          "type": "address"
        },
        {
          "name": "_value",
          "type": "uint256"
        },
        {
          "name": "_extraData",
          "type": "bytes"
        }
      ],
      "name": "approveAndCall",
      "outputs": [
        {
          "name": "success",
          "type": "bool"
        }
      ],
      "payable": false,
      "stateMutability": "nonpayable",
      "type": "function"
    },
    {
      "constant": false,
      "inputs": [
        {
          "name": "_from",
          "type": "address"
        },
        {
          "name": "_to",
          "type": "address"
        },
        {
          "name": "_value",
          "type": "uint256"
        }
      ],
      "name": "transferFrom",
      "outputs": [
        {
          "name": "success",
          "type": "bool"
        }
      ],
      "payable": false,
      "stateMutability": "nonpayable",
      "type": "function"
    }
  ],
  "bytecode": "0x60806040526040805190810160405280600d81526020017f44657374694e65656420312e3000000000000000000000000000000000000000815250600090805190602001906200005192919062000144565b503480156200005f57600080fd5b50604051620010c0380380620010c08339810180604052810190808051906020019092919080518201929190602001805190602001909291908051820192919050505083600560003373ffffffffffffffffffffffffffffffffffffffff1673ffffffffffffffffffffffffffffffffffffffff168152602001908152602001600020819055508360048190555082600190805190602001906200010592919062000144565b5080600290805190602001906200011e92919062000144565b5081600360006101000a81548160ff021916908360ff16021790555050505050620001f3565b828054600181600116156101000203166002900490600052602060002090601f016020900481019282601f106200018757805160ff1916838001178555620001b8565b82800160010185558215620001b8579182015b82811115620001b75782518255916020019190600101906200019a565b5b509050620001c79190620001cb565b5090565b620001f091905b80821115620001ec576000816000905550600101620001d2565b5090565b90565b610ebd80620002036000396000f3006080604052600436106100af576000357c0100000000000000000000000000000000000000000000000000000000900463ffffffff16806306fdde03146100c1578063095ea7b31461015157806318160ddd146101b657806323b872dd146101e1578063313ce567146102665780635a3b7e421461029757806370a082311461032757806395d89b411461037e578063a9059cbb1461040e578063cae9ca511461045b578063dd62ed3e14610506575b3480156100bb57600080fd5b50600080fd5b3480156100cd57600080fd5b506100d661057d565b6040518080602001828103825283818151815260200191508051906020019080838360005b838110156101165780820151818401526020810190506100fb565b50505050905090810190601f1680156101435780820380516001836020036101000a031916815260200191505b509250505060405180910390f35b34801561015d57600080fd5b5061019c600480360381019080803573ffffffffffffffffffffffffffffffffffffffff1690602001909291908035906020019092919050505061061b565b604051808215151515815260200191505060405180910390f35b3480156101c257600080fd5b506101cb6106a8565b6040518082815260200191505060405180910390f35b3480156101ed57600080fd5b5061024c600480360381019080803573ffffffffffffffffffffffffffffffffffffffff169060200190929190803573ffffffffffffffffffffffffffffffffffffffff169060200190929190803590602001909291905050506106ae565b604051808215151515815260200191505060405180910390f35b34801561027257600080fd5b5061027b6109a6565b604051808260ff1660ff16815260200191505060405180910390f35b3480156102a357600080fd5b506102ac6109b9565b6040518080602001828103825283818151815260200191508051906020019080838360005b838110156102ec5780820151818401526020810190506102d1565b50505050905090810190601f1680156103195780820380516001836020036101000a031916815260200191505b509250505060405180910390f35b34801561033357600080fd5b50610368600480360381019080803573ffffffffffffffffffffffffffffffffffffffff169060200190929190505050610a57565b6040518082815260200191505060405180910390f35b34801561038a57600080fd5b50610393610a6f565b6040518080602001828103825283818151815260200191508051906020019080838360005b838110156103d35780820151818401526020810190506103b8565b50505050905090810190601f1680156104005780820380516001836020036101000a031916815260200191505b509250505060405180910390f35b34801561041a57600080fd5b50610459600480360381019080803573ffffffffffffffffffffffffffffffffffffffff16906020019092919080359060200190929190505050610b0d565b005b34801561046757600080fd5b506104ec600480360381019080803573ffffffffffffffffffffffffffffffffffffffff16906020019092919080359060200190929190803590602001908201803590602001908080601f0160208091040260200160405190810160405280939291908181526020018383808284378201915050505050509192919290505050610ce9565b604051808215151515815260200191505060405180910390f35b34801561051257600080fd5b50610567600480360381019080803573ffffffffffffffffffffffffffffffffffffffff169060200190929190803573ffffffffffffffffffffffffffffffffffffffff169060200190929190505050610e6c565b6040518082815260200191505060405180910390f35b60018054600181600116156101000203166002900480601f0160208091040260200160405190810160405280929190818152602001828054600181600116156101000203166002900480156106135780601f106105e857610100808354040283529160200191610613565b820191906000526020600020905b8154815290600101906020018083116105f657829003601f168201915b505050505081565b600081600660003373ffffffffffffffffffffffffffffffffffffffff1673ffffffffffffffffffffffffffffffffffffffff16815260200190815260200160002060008573ffffffffffffffffffffffffffffffffffffffff1673ffffffffffffffffffffffffffffffffffffffff168152602001908152602001600020819055506001905092915050565b60045481565b600081600560008673ffffffffffffffffffffffffffffffffffffffff1673ffffffffffffffffffffffffffffffffffffffff1681526020019081526020016000205410156106fc57600080fd5b600560008473ffffffffffffffffffffffffffffffffffffffff1673ffffffffffffffffffffffffffffffffffffffff1681526020019081526020016000205482600560008673ffffffffffffffffffffffffffffffffffffffff1673ffffffffffffffffffffffffffffffffffffffff1681526020019081526020016000205401101561078957600080fd5b600660008573ffffffffffffffffffffffffffffffffffffffff1673ffffffffffffffffffffffffffffffffffffffff16815260200190815260200160002060003373ffffffffffffffffffffffffffffffffffffffff1673ffffffffffffffffffffffffffffffffffffffff1681526020019081526020016000205482111561081257600080fd5b81600560008673ffffffffffffffffffffffffffffffffffffffff1673ffffffffffffffffffffffffffffffffffffffff1681526020019081526020016000206000828254039250508190555081600560008573ffffffffffffffffffffffffffffffffffffffff1673ffffffffffffffffffffffffffffffffffffffff1681526020019081526020016000206000828254019250508190555081600660008673ffffffffffffffffffffffffffffffffffffffff1673ffffffffffffffffffffffffffffffffffffffff16815260200190815260200160002060003373ffffffffffffffffffffffffffffffffffffffff1673ffffffffffffffffffffffffffffffffffffffff168152602001908152602001600020600082825403925050819055508273ffffffffffffffffffffffffffffffffffffffff168473ffffffffffffffffffffffffffffffffffffffff167fddf252ad1be2c89b69c2b068fc378daa952ba7f163c4a11628f55a4df523b3ef846040518082815260200191505060405180910390a3600190509392505050565b600360009054906101000a900460ff1681565b60008054600181600116156101000203166002900480601f016020809104026020016040519081016040528092919081815260200182805460018160011615610100020316600290048015610a4f5780601f10610a2457610100808354040283529160200191610a4f565b820191906000526020600020905b815481529060010190602001808311610a3257829003601f168201915b505050505081565b60056020528060005260406000206000915090505481565b60028054600181600116156101000203166002900480601f016020809104026020016040519081016040528092919081815260200182805460018160011615610100020316600290048015610b055780601f10610ada57610100808354040283529160200191610b05565b820191906000526020600020905b815481529060010190602001808311610ae857829003601f168201915b505050505081565b80600560003373ffffffffffffffffffffffffffffffffffffffff1673ffffffffffffffffffffffffffffffffffffffff168152602001908152602001600020541015610b5957600080fd5b600560008373ffffffffffffffffffffffffffffffffffffffff1673ffffffffffffffffffffffffffffffffffffffff1681526020019081526020016000205481600560008573ffffffffffffffffffffffffffffffffffffffff1673ffffffffffffffffffffffffffffffffffffffff16815260200190815260200160002054011015610be657600080fd5b80600560003373ffffffffffffffffffffffffffffffffffffffff1673ffffffffffffffffffffffffffffffffffffffff1681526020019081526020016000206000828254039250508190555080600560008473ffffffffffffffffffffffffffffffffffffffff1673ffffffffffffffffffffffffffffffffffffffff168152602001908152602001600020600082825401925050819055508173ffffffffffffffffffffffffffffffffffffffff163373ffffffffffffffffffffffffffffffffffffffff167fddf252ad1be2c89b69c2b068fc378daa952ba7f163c4a11628f55a4df523b3ef836040518082815260200191505060405180910390a35050565b600080849050610cf9858561061b565b15610e63578073ffffffffffffffffffffffffffffffffffffffff16638f4ffcb1338630876040518563ffffffff167c0100000000000000000000000000000000000000000000000000000000028152600401808573ffffffffffffffffffffffffffffffffffffffff1673ffffffffffffffffffffffffffffffffffffffff1681526020018481526020018373ffffffffffffffffffffffffffffffffffffffff1673ffffffffffffffffffffffffffffffffffffffff16815260200180602001828103825283818151815260200191508051906020019080838360005b83811015610df3578082015181840152602081019050610dd8565b50505050905090810190601f168015610e205780820380516001836020036101000a031916815260200191505b5095505050505050600060405180830381600087803b158015610e4257600080fd5b505af1158015610e56573d6000803e3d6000fd5b5050505060019150610e64565b5b509392505050565b60066020528160005260406000206020528060005260406000206000915091505054815600a165627a7a72305820c2cbca6768bd9305b05703104564a8e7bf97504012252e7bb2be98076a0c773d0029",
  "source": "pragma solidity ^0.4.2;\n\ncontract sGuardPlus {\n    constructor() internal {}\n\n    function add_uint256(uint256 a, uint256 b) internal pure returns (uint256) {\n        uint256 c = a + b;\n        assert(c >= a);\n        return c;\n    }\n}\n\ncontract owned {\n    address public owner;\n\n    constructor() {\n        owner = msg.sender;\n    }\n\n    modifier onlyOwner() {\n        if (msg.sender != owner) throw;\n        _;\n    }\n\n    function transferOwnership(address newOwner) onlyOwner {\n        owner = newOwner;\n    }\n}\n\ncontract tokenRecipient {\n    function receiveApproval(\n        address _from,\n        uint256 _value,\n        address _token,\n        bytes _extraData\n    );\n}\n\ncontract token {\n    string public standard = \"DestiNeed 1.0\";\n    string public name;\n    string public symbol;\n    uint8 public decimals;\n    uint256 public totalSupply;\n    mapping(address => uint256) public balanceOf;\n    mapping(address => mapping(address => uint256)) public allowance;\n    event Transfer(address indexed from, address indexed to, uint256 value);\n\n    constructor(\n        uint256 initialSupply,\n        string tokenName,\n        uint8 decimalUnits,\n        string tokenSymbol\n    ) {\n        balanceOf[msg.sender] = initialSupply;\n        totalSupply = initialSupply;\n        name = tokenName;\n        symbol = tokenSymbol;\n        decimals = decimalUnits;\n    }\n\n    function transfer(address _to, uint256 _value) {\n        if (balanceOf[msg.sender] < _value) throw;\n        if (balanceOf[_to] + _value < balanceOf[_to]) throw;\n        balanceOf[msg.sender] -= _value;\n        balanceOf[_to] += _value;\n        Transfer(msg.sender, _to, _value);\n    }\n\n    function approve(address _spender, uint256 _value) returns (bool success) {\n        allowance[msg.sender][_spender] = _value;\n        return true;\n    }\n\n    function approveAndCall(\n        address _spender,\n        uint256 _value,\n        bytes _extraData\n    ) returns (bool success) {\n        tokenRecipient spender = tokenRecipient(_spender);\n        if (approve(_spender, _value)) {\n            spender.receiveApproval(msg.sender, _value, this, _extraData);\n            return true;\n        }\n    }\n\n    function transferFrom(\n        address _from,\n        address _to,\n        uint256 _value\n    ) returns (bool success) {\n        if (balanceOf[_from] < _value) throw;\n        if (balanceOf[_to] + _value < balanceOf[_to]) throw;\n        if (_value > allowance[_from][msg.sender]) throw;\n        balanceOf[_from] -= _value;\n        balanceOf[_to] += _value;\n        allowance[_from][msg.sender] -= _value;\n        Transfer(_from, _to, _value);\n        return true;\n    }\n\n    function() {\n        throw;\n    }\n}\n\ncontract DestiNeedToken is sGuardPlus, owned, token {\n    uint256 public sellPrice;\n    uint256 public buyPrice;\n    mapping(address => bool) public frozenAccount;\n    event FrozenFunds(address target, bool frozen);\n    uint256 public constant initialSupply = 950000000 * 10**18;\n    uint8 public constant decimalUnits = 18;\n    string public tokenName = \"DestiNeed\";\n    string public tokenSymbol = \"DSN\";\n\n    constructor() token(initialSupply, tokenName, decimalUnits, tokenSymbol) {}\n\n    function transfer(address _to, uint256 _value) {\n        if (balanceOf[msg.sender] < _value) throw;\n        if (balanceOf[_to] + _value < balanceOf[_to]) throw;\n        if (frozenAccount[msg.sender]) throw;\n        balanceOf[msg.sender] -= _value;\n        balanceOf[_to] += _value;\n        Transfer(msg.sender, _to, _value);\n    }\n\n    function transferFrom(\n        address _from,\n        address _to,\n        uint256 _value\n    ) returns (bool success) {\n        if (frozenAccount[_from]) throw;\n        if (balanceOf[_from] < _value) throw;\n        if (balanceOf[_to] + _value < balanceOf[_to]) throw;\n        if (_value > allowance[_from][msg.sender]) throw;\n        balanceOf[_from] -= _value;\n        balanceOf[_to] += _value;\n        allowance[_from][msg.sender] -= _value;\n        Transfer(_from, _to, _value);\n        return true;\n    }\n\n    function mintToken(address target, uint256 mintedAmount) onlyOwner {\n        balanceOf[target] = add_uint256(balanceOf[target], mintedAmount);\n        totalSupply = add_uint256(totalSupply, mintedAmount);\n        Transfer(0, this, mintedAmount);\n        Transfer(this, target, mintedAmount);\n    }\n\n    function freezeAccount(address target, bool freeze) onlyOwner {\n        frozenAccount[target] = freeze;\n        FrozenFunds(target, freeze);\n    }\n\n    function setPrices(uint256 newSellPrice, uint256 newBuyPrice) onlyOwner {\n        sellPrice = newSellPrice;\n        buyPrice = newBuyPrice;\n    }\n\n    function buy() payable {\n        uint256 amount = msg.value / buyPrice;\n        if (balanceOf[this] < amount) throw;\n        balanceOf[msg.sender] += amount;\n        balanceOf[this] -= amount;\n        Transfer(this, msg.sender, amount);\n    }\n\n    function sell(uint256 amount) {\n        if (balanceOf[msg.sender] < amount) throw;\n        balanceOf[this] += amount;\n        balanceOf[msg.sender] -= amount;\n        if (!msg.sender.send(amount * sellPrice)) {\n            throw;\n        } else {\n            Transfer(msg.sender, this, amount);\n        }\n    }\n}\n",
  "sourcePath": "/workdir/truffle_example/after/0xdFF8e7f5496D1e1A4Af3497Cb4712017a9C65442/contracts/0xdFF8e7f5496D1e1A4Af3497Cb4712017a9C65442.sol.fixed.sol",
  "compiler": {
    "name": "solc",
    "version": "0.4.25+commit.59dbf8f1.Emscripten.clang"
  },
  "schemaVersion": "3.4.8",
  "updatedAt": "2022-08-13T07:03:22.963Z",
  "devdoc": {
    "methods": {}
  },
  "userdoc": {
    "methods": {}
  }
}