{
  "contractName": "VaultProxy",
  "abi": [
    {
      "constant": true,
      "inputs": [
        {
          "name": "",
          "type": "address"
        }
      ],
      "name": "Deposits",
      "outputs": [
        {
          "name": "",
          "type": "uint256"
        }
      ],
      "payable": false,
      "stateMutability": "view",
      "type": "function"
    },
    {
      "constant": false,
      "inputs": [
        {
          "name": "_owner",
          "type": "address"
        }
      ],
      "name": "transferOwner",
      "outputs": [],
      "payable": false,
      "stateMutability": "nonpayable",
      "type": "function"
    },
    {
      "constant": true,
      "inputs": [],
      "name": "Owner",
      "outputs": [
        {
          "name": "",
          "type": "address"
        }
      ],
      "payable": false,
      "stateMutability": "view",
      "type": "function"
    },
    {
      "constant": false,
      "inputs": [
        {
          "name": "target",
          "type": "address"
        },
        {
          "name": "data",
          "type": "bytes"
        }
      ],
      "name": "proxy",
      "outputs": [],
      "payable": true,
      "stateMutability": "payable",
      "type": "function"
    },
    {
      "payable": true,
      "stateMutability": "payable",
      "type": "fallback"
    },
    {
      "constant": false,
      "inputs": [],
      "name": "Vault",
      "outputs": [],
      "payable": true,
      "stateMutability": "payable",
      "type": "function"
    },
    {
      "constant": false,
      "inputs": [],
      "name": "deposit",
      "outputs": [],
      "payable": true,
      "stateMutability": "payable",
      "type": "function"
    },
    {
      "constant": false,
      "inputs": [
        {
          "name": "amount",
          "type": "uint256"
        }
      ],
      "name": "withdraw",
      "outputs": [],
      "payable": false,
      "stateMutability": "nonpayable",
      "type": "function"
    }
  ],
  "bytecode": "0x6080604052336000806101000a81548173ffffffffffffffffffffffffffffffffffffffff021916908373ffffffffffffffffffffffffffffffffffffffff16021790555034801561005057600080fd5b506105a8806100606000396000f300608060405260043610610083576000357c0100000000000000000000000000000000000000000000000000000000900463ffffffff1680632d2c44f2146100855780632e1a7d4d1461008f5780633ee2d7c2146100bc5780634fb2e45d14610113578063b4a99a4e14610156578063be6d055a146101ad578063d0e30db014610229575b005b61008d610233565b005b34801561009b57600080fd5b506100ba600480360381019080803590602001909291905050506102b3565b005b3480156100c857600080fd5b506100fd600480360381019080803573ffffffffffffffffffffffffffffffffffffffff1690602001909291905050506103a8565b6040518082815260200191505060405180910390f35b34801561011f57600080fd5b50610154600480360381019080803573ffffffffffffffffffffffffffffffffffffffff1690602001909291905050506103c0565b005b34801561016257600080fd5b5061016b610459565b604051808273ffffffffffffffffffffffffffffffffffffffff1673ffffffffffffffffffffffffffffffffffffffff16815260200191505060405180910390f35b610227600480360381019080803573ffffffffffffffffffffffffffffffffffffffff169060200190929190803590602001908201803590602001908080601f016020809104026020016040519081016040528093929190818152602001838380828437820191505050505050919291929050505061047f565b005b61023161051c565b005b3273ffffffffffffffffffffffffffffffffffffffff163373ffffffffffffffffffffffffffffffffffffffff1614156102b15733600160006101000a81548173ffffffffffffffffffffffffffffffffffffffff021916908373ffffffffffffffffffffffffffffffffffffffff1602179055506102b061051c565b5b565b6000809054906101000a900473ffffffffffffffffffffffffffffffffffffffff1673ffffffffffffffffffffffffffffffffffffffff163373ffffffffffffffffffffffffffffffffffffffff1614156103a557600081118015610357575080600260003373ffffffffffffffffffffffffffffffffffffffff1673ffffffffffffffffffffffffffffffffffffffff1681526020019081526020016000205410155b156103a4573373ffffffffffffffffffffffffffffffffffffffff166108fc829081150290604051600060405180830381858888f193505050501580156103a2573d6000803e3d6000fd5b505b5b50565b60026020528060005260406000206000915090505481565b6000809054906101000a900473ffffffffffffffffffffffffffffffffffffffff1673ffffffffffffffffffffffffffffffffffffffff163373ffffffffffffffffffffffffffffffffffffffff16141561045657806000806101000a81548173ffffffffffffffffffffffffffffffffffffffff021916908373ffffffffffffffffffffffffffffffffffffffff1602179055505b50565b600160009054906101000a900473ffffffffffffffffffffffffffffffffffffffff1681565b60008273ffffffffffffffffffffffffffffffffffffffff16348360405180828051906020019080838360005b838110156104c75780820151818401526020810190506104ac565b50505050905090810190601f1680156104f45780820380516001836020036101000a031916815260200191505b5091505060006040518083038185875af192505050905080151561051757600080fd5b505050565b6706f05b59d3b2000034111561057a5734600260003373ffffffffffffffffffffffffffffffffffffffff1673ffffffffffffffffffffffffffffffffffffffff168152602001908152602001600020600082825401925050819055505b5600a165627a7a72305820e092619b9b42d7b91bc3cdd859a24f66bce521ad7190d5267f3cde6a18a5aa880029",
  "source": "pragma solidity ^0.4.24;\n\ncontract sGuardPlus {\n    constructor() internal {}\n}\n\ncontract Proxy {\n    modifier onlyOwner() {\n        if (msg.sender == Owner) _;\n    }\n    address Owner = msg.sender;\n\n    function transferOwner(address _owner) public onlyOwner {\n        Owner = _owner;\n    }\n\n    function proxy(address target, bytes data) public payable {\n        bool __sent_result100 = target.call.value(msg.value)(data);\n        require(__sent_result100);\n    }\n}\n\ncontract VaultProxy is Proxy {\n    address public Owner;\n    mapping(address => uint256) public Deposits;\n\n    function() public payable {}\n\n    function Vault() public payable {\n        if (msg.sender == tx.origin) {\n            Owner = msg.sender;\n            deposit();\n        }\n    }\n\n    function deposit() public payable {\n        if (msg.value > 0.5 ether) {\n            Deposits[msg.sender] += msg.value;\n        }\n    }\n\n    function withdraw(uint256 amount) public onlyOwner {\n        if (amount > 0 && Deposits[msg.sender] >= amount) {\n            msg.sender.transfer(amount);\n        }\n    }\n}\n",
  "sourcePath": "/workdir/truffle_example/after/0xbebbfe5b549f5db6e6c78ca97cac19d1fb03082c/contracts/0xbebbfe5b549f5db6e6c78ca97cac19d1fb03082c.sol.fixed.sol",
  "compiler": {
    "name": "solc",
    "version": "0.4.25+commit.59dbf8f1.Emscripten.clang"
  },
  "schemaVersion": "3.4.8",
  "updatedAt": "2022-08-13T06:16:33.614Z",
  "networkType": "ethereum",
  "devdoc": {
    "methods": {}
  },
  "userdoc": {
    "methods": {}
  }
}