{
  "contractName": "IcoOKOToken",
  "abi": [
    {
      "constant": true,
      "inputs": [],
      "name": "emergencyFlagAndHiddenCap",
      "outputs": [
        {
          "name": "",
          "type": "bool"
        }
      ],
      "payable": false,
      "stateMutability": "view",
      "type": "function"
    },
    {
      "constant": true,
      "inputs": [],
      "name": "endTime",
      "outputs": [
        {
          "name": "",
          "type": "uint256"
        }
      ],
      "payable": false,
      "stateMutability": "view",
      "type": "function"
    },
    {
      "constant": true,
      "inputs": [],
      "name": "USDto1ETH",
      "outputs": [
        {
          "name": "",
          "type": "uint256"
        }
      ],
      "payable": false,
      "stateMutability": "view",
      "type": "function"
    },
    {
      "constant": true,
      "inputs": [],
      "name": "wallet",
      "outputs": [
        {
          "name": "",
          "type": "address"
        }
      ],
      "payable": false,
      "stateMutability": "view",
      "type": "function"
    },
    {
      "constant": true,
      "inputs": [],
      "name": "maxTokensToSold",
      "outputs": [
        {
          "name": "",
          "type": "uint256"
        }
      ],
      "payable": false,
      "stateMutability": "view",
      "type": "function"
    },
    {
      "constant": true,
      "inputs": [],
      "name": "totalTokensSold",
      "outputs": [
        {
          "name": "",
          "type": "uint256"
        }
      ],
      "payable": false,
      "stateMutability": "view",
      "type": "function"
    },
    {
      "constant": true,
      "inputs": [],
      "name": "startTime",
      "outputs": [
        {
          "name": "",
          "type": "uint256"
        }
      ],
      "payable": false,
      "stateMutability": "view",
      "type": "function"
    },
    {
      "constant": true,
      "inputs": [],
      "name": "owner",
      "outputs": [
        {
          "name": "",
          "type": "address"
        }
      ],
      "payable": false,
      "stateMutability": "view",
      "type": "function"
    },
    {
      "constant": true,
      "inputs": [],
      "name": "price",
      "outputs": [
        {
          "name": "",
          "type": "uint256"
        }
      ],
      "payable": false,
      "stateMutability": "view",
      "type": "function"
    },
    {
      "constant": false,
      "inputs": [
        {
          "name": "newOwner",
          "type": "address"
        }
      ],
      "name": "transferOwnership",
      "outputs": [],
      "payable": false,
      "stateMutability": "nonpayable",
      "type": "function"
    },
    {
      "constant": true,
      "inputs": [],
      "name": "allTokenAddress",
      "outputs": [
        {
          "name": "",
          "type": "address"
        }
      ],
      "payable": false,
      "stateMutability": "view",
      "type": "function"
    },
    {
      "constant": true,
      "inputs": [],
      "name": "token",
      "outputs": [
        {
          "name": "",
          "type": "address"
        }
      ],
      "payable": false,
      "stateMutability": "view",
      "type": "function"
    },
    {
      "inputs": [
        {
          "name": "_wallet",
          "type": "address"
        },
        {
          "name": "_token",
          "type": "address"
        }
      ],
      "payable": false,
      "stateMutability": "nonpayable",
      "type": "constructor"
    },
    {
      "payable": true,
      "stateMutability": "payable",
      "type": "fallback"
    },
    {
      "anonymous": false,
      "inputs": [
        {
          "indexed": true,
          "name": "previousOwner",
          "type": "address"
        },
        {
          "indexed": true,
          "name": "newOwner",
          "type": "address"
        }
      ],
      "name": "OwnershipTransferred",
      "type": "event"
    },
    {
      "constant": false,
      "inputs": [
        {
          "name": "_USDto1ETH",
          "type": "uint256"
        }
      ],
      "name": "ChangeUSDto1ETH",
      "outputs": [],
      "payable": false,
      "stateMutability": "nonpayable",
      "type": "function"
    },
    {
      "constant": false,
      "inputs": [],
      "name": "ChangePrice",
      "outputs": [],
      "payable": false,
      "stateMutability": "nonpayable",
      "type": "function"
    },
    {
      "constant": false,
      "inputs": [
        {
          "name": "_startTime",
          "type": "uint256"
        }
      ],
      "name": "ChangeStart",
      "outputs": [],
      "payable": false,
      "stateMutability": "nonpayable",
      "type": "function"
    },
    {
      "constant": false,
      "inputs": [
        {
          "name": "_endTime",
          "type": "uint256"
        }
      ],
      "name": "ChangeEnd",
      "outputs": [],
      "payable": false,
      "stateMutability": "nonpayable",
      "type": "function"
    },
    {
      "constant": false,
      "inputs": [],
      "name": "emergencyAndHiddenCapToggle",
      "outputs": [],
      "payable": false,
      "stateMutability": "nonpayable",
      "type": "function"
    }
  ],
  "bytecode": "0x60806040526000600260146101000a81548160ff021916908315150217905550635a691e00600355635ae1168060045561044c600555647a177cbd4560075534801561004a57600080fd5b50604051604080610f028339810180604052810190808051906020019092919080519060200190929190505050336000806101000a81548173ffffffffffffffffffffffffffffffffffffffff021916908373ffffffffffffffffffffffffffffffffffffffff16021790555081600160006101000a81548173ffffffffffffffffffffffffffffffffffffffff021916908373ffffffffffffffffffffffffffffffffffffffff16021790555080600860006101000a81548173ffffffffffffffffffffffffffffffffffffffff021916908373ffffffffffffffffffffffffffffffffffffffff160217905550600860009054906101000a900473ffffffffffffffffffffffffffffffffffffffff1673ffffffffffffffffffffffffffffffffffffffff1663d9520c9a6040518163ffffffff167c0100000000000000000000000000000000000000000000000000000000028152600401602060405180830381600087803b1580156101bf57600080fd5b505af11580156101d3573d6000803e3d6000fd5b505050506040513d60208110156101e957600080fd5b8101908080519060200190929190505050600260006101000a81548173ffffffffffffffffffffffffffffffffffffffff021916908373ffffffffffffffffffffffffffffffffffffffff160217905550600a601b620f4240600554670de0b6b3a764000081151561025757fe5b0481151561026157fe5b040281151561026c57fe5b046006819055505050610c7e806102846000396000f3006080604052600436106100f1576000357c0100000000000000000000000000000000000000000000000000000000900463ffffffff16806307fb37d4146103bf5780630ccc642e146103d65780630e78501f146104055780633197cbb6146104325780633445679a1461045d578063521eb27314610488578063536dd8f9146104df57806363b201171461050a57806378e97925146105355780637d29f868146105605780638a5ddd9b1461058d5780638da5cb5b146105a4578063a035b1fe146105fb578063f2fde38b14610626578063f72f682614610669578063f990727414610696578063fc0c546a146106ed575b600080600080600454421115801561010b57506003544210155b151561011657600080fd5b600260149054906101000a900460ff1615151561013257600080fd5b654c65c629400060075410151561014857600080fd5b34935061015784600654610744565b9250620f42408310158015610171575064517da02c008311155b151561017c57600080fd5b61018a846006548502610785565b91506101968483610785565b9050600160009054906101000a900473ffffffffffffffffffffffffffffffffffffffff1673ffffffffffffffffffffffffffffffffffffffff166108fc829081150290604051600060405180830381858888f19350505050158015610200573d6000803e3d6000fd5b506000821115610252573373ffffffffffffffffffffffffffffffffffffffff166108fc839081150290604051600060405180830381858888f19350505050158015610250573d6000803e3d6000fd5b505b600860009054906101000a900473ffffffffffffffffffffffffffffffffffffffff1673ffffffffffffffffffffffffffffffffffffffff166323b872dd600260009054906101000a900473ffffffffffffffffffffffffffffffffffffffff1633866040518463ffffffff167c0100000000000000000000000000000000000000000000000000000000028152600401808473ffffffffffffffffffffffffffffffffffffffff1673ffffffffffffffffffffffffffffffffffffffff1681526020018373ffffffffffffffffffffffffffffffffffffffff1673ffffffffffffffffffffffffffffffffffffffff1681526020018281526020019350505050602060405180830381600087803b15801561036d57600080fd5b505af1158015610381573d6000803e3d6000fd5b505050506040513d602081101561039757600080fd5b8101908080519060200190929190505050508260076000828254019250508190555050505050005b3480156103cb57600080fd5b506103d461079e565b005b3480156103e257600080fd5b506103eb61086d565b604051808215151515815260200191505060405180910390f35b34801561041157600080fd5b5061043060048036038101908080359060200190929190505050610880565b005b34801561043e57600080fd5b506104476108e5565b6040518082815260200191505060405180910390f35b34801561046957600080fd5b506104726108eb565b6040518082815260200191505060405180910390f35b34801561049457600080fd5b5061049d6108f1565b604051808273ffffffffffffffffffffffffffffffffffffffff1673ffffffffffffffffffffffffffffffffffffffff16815260200191505060405180910390f35b3480156104eb57600080fd5b506104f4610917565b6040518082815260200191505060405180910390f35b34801561051657600080fd5b5061051f610921565b6040518082815260200191505060405180910390f35b34801561054157600080fd5b5061054a610927565b6040518082815260200191505060405180910390f35b34801561056c57600080fd5b5061058b6004803603810190808035906020019092919050505061092d565b005b34801561059957600080fd5b506105a261099a565b005b3480156105b057600080fd5b506105b9610a21565b604051808273ffffffffffffffffffffffffffffffffffffffff1673ffffffffffffffffffffffffffffffffffffffff16815260200191505060405180910390f35b34801561060757600080fd5b50610610610a46565b6040518082815260200191505060405180910390f35b34801561063257600080fd5b50610667600480360381019080803573ffffffffffffffffffffffffffffffffffffffff169060200190929190505050610a4c565b005b34801561067557600080fd5b5061069460048036038101908080359060200190929190505050610ba1565b005b3480156106a257600080fd5b506106ab610c06565b604051808273ffffffffffffffffffffffffffffffffffffffff1673ffffffffffffffffffffffffffffffffffffffff16815260200191505060405180910390f35b3480156106f957600080fd5b50610702610c2c565b604051808273ffffffffffffffffffffffffffffffffffffffff1673ffffffffffffffffffffffffffffffffffffffff16815260200191505060405180910390f35b60008060008311151561075357fe5b828481151561075e57fe5b049050828481151561076c57fe5b06818402018414151561077b57fe5b8091505092915050565b600082821115151561079357fe5b818303905092915050565b60008060009054906101000a900473ffffffffffffffffffffffffffffffffffffffff1673ffffffffffffffffffffffffffffffffffffffff163373ffffffffffffffffffffffffffffffffffffffff161415156107fb57600080fd5b600554670de0b6b3a764000081151561081057fe5b04905062093a80600354420381151561082557fe5b0460026001620f42408481151561083857fe5b040281151561084357fe5b0402600a601b620f42408481151561085757fe5b040281151561086257fe5b040160068190555050565b600260149054906101000a900460ff1681565b6000809054906101000a900473ffffffffffffffffffffffffffffffffffffffff1673ffffffffffffffffffffffffffffffffffffffff163373ffffffffffffffffffffffffffffffffffffffff161415156108db57600080fd5b8060038190555050565b60045481565b60055481565b600160009054906101000a900473ffffffffffffffffffffffffffffffffffffffff1681565b654c65c629400081565b60075481565b60035481565b6000809054906101000a900473ffffffffffffffffffffffffffffffffffffffff1673ffffffffffffffffffffffffffffffffffffffff163373ffffffffffffffffffffffffffffffffffffffff1614151561098857600080fd5b8060058190555061099761079e565b50565b6000809054906101000a900473ffffffffffffffffffffffffffffffffffffffff1673ffffffffffffffffffffffffffffffffffffffff163373ffffffffffffffffffffffffffffffffffffffff161415156109f557600080fd5b600260149054906101000a900460ff1615600260146101000a81548160ff021916908315150217905550565b6000809054906101000a900473ffffffffffffffffffffffffffffffffffffffff1681565b60065481565b6000809054906101000a900473ffffffffffffffffffffffffffffffffffffffff1673ffffffffffffffffffffffffffffffffffffffff163373ffffffffffffffffffffffffffffffffffffffff16141515610aa757600080fd5b600073ffffffffffffffffffffffffffffffffffffffff168173ffffffffffffffffffffffffffffffffffffffff1614151515610ae357600080fd5b8073ffffffffffffffffffffffffffffffffffffffff166000809054906101000a900473ffffffffffffffffffffffffffffffffffffffff1673ffffffffffffffffffffffffffffffffffffffff167f8be0079c531659141344cd1fd0a4f28419497f9722a3daafe3b4186f6b6457e060405160405180910390a3806000806101000a81548173ffffffffffffffffffffffffffffffffffffffff021916908373ffffffffffffffffffffffffffffffffffffffff16021790555050565b6000809054906101000a900473ffffffffffffffffffffffffffffffffffffffff1673ffffffffffffffffffffffffffffffffffffffff163373ffffffffffffffffffffffffffffffffffffffff16141515610bfc57600080fd5b8060048190555050565b600260009054906101000a900473ffffffffffffffffffffffffffffffffffffffff1681565b600860009054906101000a900473ffffffffffffffffffffffffffffffffffffffff16815600a165627a7a72305820cc350d3f16947360b24e05525a01e411b3f092c4f67ac6151c93dcd4bf558b430029",
  "source": "/**\r\n *Submitted for verification at Etherscan.io on 2018-01-24\r\n*/\r\n\r\npragma solidity ^0.4.19;\r\n\r\n/**\r\n * Math operations with safety checks\r\n */\r\ncontract SafeMath {\r\n\r\n  function safeMul(uint256 a, uint256 b) internal pure returns (uint256) {\r\n    uint256 c = a * b;\r\n    assert(a == 0 || c / a == b);\r\n    return c;\r\n  }\r\n\r\n  function safeDiv(uint256 a, uint256 b) internal pure returns (uint256) {\r\n    assert(b > 0);\r\n    uint256 c = a / b;\r\n    assert(a == b * c + a % b);\r\n    return c;\r\n  }\r\n\r\n  function safeSub(uint256 a, uint256 b) internal pure returns (uint256) {\r\n    assert(b <= a);\r\n    return a - b;\r\n  }\r\n\r\n  function safeAdd(uint256 a, uint256 b) internal pure returns (uint256) {\r\n    uint256 c = a + b;\r\n    assert(c >= a && c >= b);\r\n    return c;\r\n  }\r\n\r\n}\r\n\r\n/**\r\n * Standard ERC20 token with Short Hand Attack and approve() race condition mitigation.\r\n *\r\n * Based on code by FirstBlood:\r\n * https://github.com/Firstbloodio/token/blob/master/smart_contract/FirstBloodToken.sol\r\n */\r\ncontract StandardToken is SafeMath {\r\n\r\n  uint256 public totalSupply;\r\n\r\n  /* Actual balances of token holders */\r\n  mapping(address => uint) balances;\r\n\r\n  /* approve() allowances */\r\n  mapping (address => mapping (address => uint)) allowed;\r\n  event Transfer(address indexed from, address indexed to, uint256 value);\r\n  event Approval(address indexed owner, address indexed spender, uint256 value);\r\n  /**\r\n   *\r\n   * Fix for the ERC20 short address attack\r\n   *\r\n   * http://vessenes.com/the-erc20-short-address-attack-explained/\r\n   */\r\n  modifier onlyPayloadSize(uint256 size) {\r\n     require(msg.data.length == size + 4);\r\n     _;\r\n  }\r\n\r\n  function transfer(address _to, uint256 _value) onlyPayloadSize(2 * 32) public returns (bool success) {\r\n    require(_to != 0);\r\n    uint256 balanceFrom = balances[msg.sender];\r\n    require(_value <= balanceFrom);\r\n\r\n    // SafeMath safeSub will throw if there is not enough balance.\r\n    balances[msg.sender] = safeSub(balanceFrom, _value);\r\n    balances[_to] = safeAdd(balances[_to], _value);\r\n    Transfer(msg.sender, _to, _value);\r\n    return true;\r\n  }\r\n\r\n  function transferFrom(address _from, address _to, uint256 _value) public returns (bool success) {\r\n    require(_to != 0);\r\n    uint256 allowToTrans = allowed[_from][msg.sender];\r\n    uint256 balanceFrom = balances[_from];\r\n    require(_value <= balanceFrom);\r\n    require(_value <= allowToTrans);\r\n\r\n    balances[_to] = safeAdd(balances[_to], _value);\r\n    balances[_from] = safeSub(balanceFrom, _value);\r\n    allowed[_from][msg.sender] = safeSub(allowToTrans, _value);\r\n    Transfer(_from, _to, _value);\r\n    return true;\r\n  }\r\n\r\n  function balanceOf(address _owner) public view returns (uint256 balance) {\r\n    return balances[_owner];\r\n  }\r\n\r\n  function approve(address _spender, uint256 _value) public returns (bool success) {\r\n\r\n    // To change the approve amount you first have to reduce the addresses`\r\n    //  allowance to zero by calling `approve(_spender, 0)` if it is not\r\n    //  already 0 to mitigate the race condition described here:\r\n    //  https://github.com/ethereum/EIPs/issues/20#issuecomment-263524729\r\n//    if ((_value != 0) && (allowed[msg.sender][_spender] != 0)) throw;\r\n    // require((_value == 0) || (allowed[msg.sender][_spender] == 0));\r\n\r\n    allowed[msg.sender][_spender] = _value;\r\n    Approval(msg.sender, _spender, _value);\r\n    return true;\r\n  }\r\n\r\n  function allowance(address _owner, address _spender) public view returns (uint256 remaining) {\r\n    return allowed[_owner][_spender];\r\n  }\r\n\r\n  /**\r\n   * Atomic increment of approved spending\r\n   *\r\n   * Works around https://github.com/ethereum/EIPs/issues/20#issuecomment-263524729\r\n   *\r\n   */\r\n  function addApproval(address _spender, uint256 _addedValue)\r\n  onlyPayloadSize(2 * 32)\r\n  public returns (bool success) {\r\n      uint256 oldValue = allowed[msg.sender][_spender];\r\n      allowed[msg.sender][_spender] = safeAdd(oldValue, _addedValue);\r\n      Approval(msg.sender, _spender, allowed[msg.sender][_spender]);\r\n      return true;\r\n  }\r\n\r\n  /**\r\n   * Atomic decrement of approved spending.\r\n   *\r\n   * Works around https://github.com/ethereum/EIPs/issues/20#issuecomment-263524729\r\n   */\r\n  function subApproval(address _spender, uint256 _subtractedValue)\r\n  onlyPayloadSize(2 * 32)\r\n  public returns (bool success) {\r\n\r\n      uint256 oldVal = allowed[msg.sender][_spender];\r\n\r\n      if (_subtractedValue > oldVal) {\r\n          allowed[msg.sender][_spender] = 0;\r\n      } else {\r\n          allowed[msg.sender][_spender] = safeSub(oldVal, _subtractedValue);\r\n      }\r\n      Approval(msg.sender, _spender, allowed[msg.sender][_spender]);\r\n      return true;\r\n  }\r\n\r\n}\r\n\r\n/**\r\n * @title Ownable\r\n * @dev The Ownable contract has an owner address, and provides basic authorization control\r\n * functions, this simplifies the implementation of \"user permissions\".\r\n */\r\ncontract Ownable {\r\n  address public owner;\r\n\r\n  event OwnershipTransferred(address indexed previousOwner, address indexed newOwner);\r\n\r\n  /**\r\n   * @dev The Ownable constructor sets the original `owner` of the contract to the sender\r\n   * account.\r\n   */\r\n  function Ownable() public {\r\n    owner = msg.sender;\r\n  }\r\n\r\n  /**\r\n   * @dev Throws if called by any account other than the owner.\r\n   */\r\n  modifier onlyOwner() {\r\n    require(msg.sender == owner);\r\n    _;\r\n  }\r\n\r\n  /**\r\n   * @dev Allows the current owner to transfer control of the contract to a newOwner.\r\n   * @param newOwner The address to transfer ownership to.\r\n   */\r\n  function transferOwnership(address newOwner) onlyOwner public {\r\n    require(newOwner != address(0));\r\n    OwnershipTransferred(owner, newOwner);\r\n    owner = newOwner;\r\n  }\r\n\r\n}\r\n\r\ncontract MigrationAgent {\r\n  function migrateFrom(address _from, uint256 _value) public;\r\n}\r\n\r\ncontract UpgradeableToken is Ownable, StandardToken {\r\n  address public migrationAgent;\r\n\r\n  /**\r\n   * Somebody has upgraded some of his tokens.\r\n   */\r\n  event Upgrade(address indexed from, address indexed to, uint256 value);\r\n\r\n  /**\r\n   * New upgrade agent available.\r\n   */\r\n  event UpgradeAgentSet(address agent);\r\n\r\n    // Migrate tokens to the new token contract\r\n    function migrate() public {\r\n        require(migrationAgent != 0);\r\n        uint value = balances[msg.sender];\r\n        balances[msg.sender] = safeSub(balances[msg.sender], value);\r\n        totalSupply = safeSub(totalSupply, value);\r\n        MigrationAgent(migrationAgent).migrateFrom(msg.sender, value);\r\n        Upgrade(msg.sender, migrationAgent, value);\r\n    }\r\n\r\n    function () public payable {\r\n      require(migrationAgent != 0);\r\n      require(balances[msg.sender] > 0);\r\n      migrate();\r\n      msg.sender.transfer(msg.value);\r\n    }\r\n\r\n    function setMigrationAgent(address _agent) onlyOwner external {\r\n        migrationAgent = _agent;\r\n        UpgradeAgentSet(_agent);\r\n    }\r\n\r\n}\r\ncontract OKOToken is UpgradeableToken {\r\n  event Mint(address indexed to, uint256 amount);\r\n  event MintFinished();\r\n\r\n\r\n  address public allTokenOwnerOnStart;\r\n  string public constant name = \"OKOIN\";\r\n  string public constant symbol = \"OKO\";\r\n  uint256 public constant decimals = 6;\r\n  \r\n\r\n  function OKOToken() public {\r\n    allTokenOwnerOnStart = msg.sender;\r\n    totalSupply = 240000000000000;\r\n    balances[allTokenOwnerOnStart] = totalSupply;\r\n    Mint(allTokenOwnerOnStart, totalSupply);\r\n    Transfer(0x0, allTokenOwnerOnStart ,totalSupply);\r\n    MintFinished();\r\n  }\r\n  \r\n\r\n\r\n}\r\n\r\n// ============================================================================\r\n\r\ncontract IcoOKOToken is Ownable, SafeMath {\r\n  address public wallet;\r\n  address public allTokenAddress;\r\n  bool public emergencyFlagAndHiddenCap = false;\r\n  // UNIX format\r\n  uint256 public startTime = 1516838400; // 25 Jan 2017 00:00:00 GMT\r\n  uint256 public endTime =   1524700800; // 26 Apr 2018 00:00:00 GMT\r\n\r\n  uint256 public USDto1ETH = 1100; // 1 ether = 1100$\r\n  uint256 public price; \r\n  uint256 public totalTokensSold = 524380060997;\r\n  uint256 public constant maxTokensToSold = 84000000000000; // 35% * (240 000 000.000 000)\r\n  OKOToken public token;\r\n\r\n  function IcoOKOToken(address _wallet, OKOToken _token) public {\r\n    wallet = _wallet;\r\n    token = _token;\r\n    allTokenAddress = token.allTokenOwnerOnStart();\r\n    price = 1 ether / USDto1ETH / 1000000 * 27 / 10;\r\n  }\r\n\r\n  function () external payable {\r\n    require(now <= endTime && now >= startTime);\r\n    require(!emergencyFlagAndHiddenCap);\r\n    require(totalTokensSold < maxTokensToSold);\r\n    uint256 value = msg.value;\r\n    uint256 tokensToSend = safeDiv(value, price);\r\n    require(tokensToSend >= 1000000 && tokensToSend <= 350000000000);\r\n    uint256 valueToReturn = safeSub(value, tokensToSend * price);\r\n    uint256 valueToWallet = safeSub(value, valueToReturn);\r\n\r\n    wallet.transfer(valueToWallet);\r\n    if (valueToReturn > 0) {\r\n      msg.sender.transfer(valueToReturn);\r\n    }\r\n    token.transferFrom(allTokenAddress, msg.sender, tokensToSend);\r\n    totalTokensSold += tokensToSend;\r\n  }\r\n\r\n    function ChangeUSDto1ETH(uint256 _USDto1ETH) onlyOwner public {\r\n        USDto1ETH = _USDto1ETH;\r\n        ChangePrice();\r\n    }\r\n\r\n  function ChangePrice() onlyOwner public {\r\n    uint256 priceWeiToUSD = 1 ether / USDto1ETH;\r\n    price = priceWeiToUSD / 1000000 * 27 / 10 + priceWeiToUSD / 1000000 * 1 / 2 * ((now - startTime ) / 604800); // 2.7$ on start + 0.5$ per week\r\n    \r\n\r\n  }\r\n\r\n    function ChangeStart(uint _startTime) onlyOwner public {\r\n        startTime = _startTime;\r\n    }\r\n\r\n    function ChangeEnd(uint _endTime) onlyOwner public {\r\n        endTime = _endTime;\r\n    }\r\n\r\n\r\n  function emergencyAndHiddenCapToggle() onlyOwner public {\r\n    emergencyFlagAndHiddenCap = !emergencyFlagAndHiddenCap;\r\n  }\r\n\r\n}",
  "sourcePath": "/workdir/truffle_example/before/0x169e59a41ba10600fddd1b0a72921f503b31d96b/contracts/0x169e59a41ba10600fddd1b0a72921f503b31d96b.sol",
  "compiler": {
    "name": "solc",
    "version": "0.4.25+commit.59dbf8f1.Emscripten.clang"
  },
  "schemaVersion": "3.4.8",
  "updatedAt": "2022-08-14T09:01:50.947Z",
  "networkType": "ethereum",
  "devdoc": {
    "methods": {
      "transferOwnership(address)": {
        "details": "Allows the current owner to transfer control of the contract to a newOwner.\r",
        "params": {
          "newOwner": "The address to transfer ownership to.\r"
        }
      }
    }
  },
  "userdoc": {
    "methods": {}
  }
}