{
  "contractName": "Token",
  "abi": [
    {
      "constant": true,
      "inputs": [],
      "name": "name",
      "outputs": [
        {
          "name": "",
          "type": "string"
        }
      ],
      "payable": false,
      "stateMutability": "view",
      "type": "function"
    },
    {
      "constant": true,
      "inputs": [],
      "name": "totalSupply",
      "outputs": [
        {
          "name": "",
          "type": "uint256"
        }
      ],
      "payable": false,
      "stateMutability": "view",
      "type": "function"
    },
    {
      "constant": true,
      "inputs": [],
      "name": "canMintBurn",
      "outputs": [
        {
          "name": "",
          "type": "bool"
        }
      ],
      "payable": false,
      "stateMutability": "view",
      "type": "function"
    },
    {
      "constant": true,
      "inputs": [],
      "name": "numberOfAddress",
      "outputs": [
        {
          "name": "",
          "type": "uint256"
        }
      ],
      "payable": false,
      "stateMutability": "view",
      "type": "function"
    },
    {
      "constant": true,
      "inputs": [],
      "name": "lastHoldingTax",
      "outputs": [
        {
          "name": "",
          "type": "uint256"
        }
      ],
      "payable": false,
      "stateMutability": "view",
      "type": "function"
    },
    {
      "constant": true,
      "inputs": [],
      "name": "physicalString",
      "outputs": [
        {
          "name": "",
          "type": "string"
        }
      ],
      "payable": false,
      "stateMutability": "view",
      "type": "function"
    },
    {
      "constant": true,
      "inputs": [
        {
          "name": "",
          "type": "address"
        }
      ],
      "name": "balanceOf",
      "outputs": [
        {
          "name": "",
          "type": "uint256"
        }
      ],
      "payable": false,
      "stateMutability": "view",
      "type": "function"
    },
    {
      "constant": true,
      "inputs": [],
      "name": "txnTax",
      "outputs": [
        {
          "name": "",
          "type": "uint256"
        }
      ],
      "payable": false,
      "stateMutability": "view",
      "type": "function"
    },
    {
      "constant": true,
      "inputs": [],
      "name": "isSecured",
      "outputs": [
        {
          "name": "",
          "type": "bool"
        }
      ],
      "payable": false,
      "stateMutability": "view",
      "type": "function"
    },
    {
      "constant": true,
      "inputs": [],
      "name": "owner",
      "outputs": [
        {
          "name": "",
          "type": "address"
        }
      ],
      "payable": false,
      "stateMutability": "view",
      "type": "function"
    },
    {
      "constant": true,
      "inputs": [
        {
          "name": "",
          "type": "address"
        }
      ],
      "name": "addressIndex",
      "outputs": [
        {
          "name": "",
          "type": "uint256"
        }
      ],
      "payable": false,
      "stateMutability": "view",
      "type": "function"
    },
    {
      "constant": true,
      "inputs": [],
      "name": "symbol",
      "outputs": [
        {
          "name": "",
          "type": "string"
        }
      ],
      "payable": false,
      "stateMutability": "view",
      "type": "function"
    },
    {
      "constant": true,
      "inputs": [
        {
          "name": "",
          "type": "address"
        }
      ],
      "name": "addressExists",
      "outputs": [
        {
          "name": "",
          "type": "bool"
        }
      ],
      "payable": false,
      "stateMutability": "view",
      "type": "function"
    },
    {
      "constant": true,
      "inputs": [],
      "name": "holdingTaxInterval",
      "outputs": [
        {
          "name": "",
          "type": "uint256"
        }
      ],
      "payable": false,
      "stateMutability": "view",
      "type": "function"
    },
    {
      "constant": true,
      "inputs": [],
      "name": "cryptoString",
      "outputs": [
        {
          "name": "",
          "type": "string"
        }
      ],
      "payable": false,
      "stateMutability": "view",
      "type": "function"
    },
    {
      "constant": true,
      "inputs": [],
      "name": "holdingTaxDecimals",
      "outputs": [
        {
          "name": "",
          "type": "uint256"
        }
      ],
      "payable": false,
      "stateMutability": "view",
      "type": "function"
    },
    {
      "constant": true,
      "inputs": [],
      "name": "holdingTax",
      "outputs": [
        {
          "name": "",
          "type": "uint256"
        }
      ],
      "payable": false,
      "stateMutability": "view",
      "type": "function"
    },
    {
      "constant": true,
      "inputs": [
        {
          "name": "",
          "type": "uint256"
        }
      ],
      "name": "addresses",
      "outputs": [
        {
          "name": "",
          "type": "address"
        }
      ],
      "payable": false,
      "stateMutability": "view",
      "type": "function"
    },
    {
      "constant": true,
      "inputs": [],
      "name": "isPrivate",
      "outputs": [
        {
          "name": "",
          "type": "bool"
        }
      ],
      "payable": false,
      "stateMutability": "view",
      "type": "function"
    },
    {
      "inputs": [
        {
          "name": "n",
          "type": "string"
        },
        {
          "name": "a",
          "type": "string"
        },
        {
          "name": "totalSupplyToUse",
          "type": "uint256"
        },
        {
          "name": "isSecured",
          "type": "bool"
        },
        {
          "name": "cMB",
          "type": "bool"
        },
        {
          "name": "physical",
          "type": "string"
        },
        {
          "name": "crypto",
          "type": "string"
        },
        {
          "name": "txnTaxToUse",
          "type": "uint256"
        },
        {
          "name": "holdingTaxToUse",
          "type": "uint256"
        },
        {
          "name": "holdingTaxIntervalToUse",
          "type": "uint256"
        },
        {
          "name": "isPrivateToUse",
          "type": "bool"
        }
      ],
      "payable": false,
      "stateMutability": "nonpayable",
      "type": "constructor"
    },
    {
      "anonymous": false,
      "inputs": [
        {
          "indexed": true,
          "name": "_from",
          "type": "address"
        },
        {
          "indexed": true,
          "name": "_to",
          "type": "address"
        },
        {
          "indexed": false,
          "name": "_value",
          "type": "uint256"
        }
      ],
      "name": "Transfer",
      "type": "event"
    },
    {
      "constant": false,
      "inputs": [
        {
          "name": "_to",
          "type": "address"
        },
        {
          "name": "_value",
          "type": "uint256"
        }
      ],
      "name": "transfer",
      "outputs": [],
      "payable": true,
      "stateMutability": "payable",
      "type": "function"
    },
    {
      "constant": false,
      "inputs": [
        {
          "name": "_newValue",
          "type": "uint256"
        }
      ],
      "name": "changeTxnTax",
      "outputs": [],
      "payable": false,
      "stateMutability": "nonpayable",
      "type": "function"
    },
    {
      "constant": false,
      "inputs": [
        {
          "name": "_value",
          "type": "uint256"
        }
      ],
      "name": "mint",
      "outputs": [],
      "payable": false,
      "stateMutability": "nonpayable",
      "type": "function"
    },
    {
      "constant": false,
      "inputs": [
        {
          "name": "_value",
          "type": "uint256"
        }
      ],
      "name": "burn",
      "outputs": [],
      "payable": false,
      "stateMutability": "nonpayable",
      "type": "function"
    },
    {
      "constant": false,
      "inputs": [],
      "name": "chargeHoldingTax",
      "outputs": [],
      "payable": false,
      "stateMutability": "nonpayable",
      "type": "function"
    },
    {
      "constant": false,
      "inputs": [
        {
          "name": "_newValue",
          "type": "uint256"
        }
      ],
      "name": "changeHoldingTax",
      "outputs": [],
      "payable": false,
      "stateMutability": "nonpayable",
      "type": "function"
    },
    {
      "constant": false,
      "inputs": [
        {
          "name": "_newValue",
          "type": "uint256"
        }
      ],
      "name": "changeHoldingTaxInterval",
      "outputs": [],
      "payable": false,
      "stateMutability": "nonpayable",
      "type": "function"
    },
    {
      "constant": false,
      "inputs": [
        {
          "name": "addr",
          "type": "address"
        }
      ],
      "name": "addAddressManual",
      "outputs": [],
      "payable": false,
      "stateMutability": "nonpayable",
      "type": "function"
    },
    {
      "constant": false,
      "inputs": [
        {
          "name": "addr",
          "type": "address"
        }
      ],
      "name": "removeAddressManual",
      "outputs": [],
      "payable": false,
      "stateMutability": "nonpayable",
      "type": "function"
    },
    {
      "constant": false,
      "inputs": [
        {
          "name": "timestamp",
          "type": "uint256"
        }
      ],
      "name": "getWeekday",
      "outputs": [
        {
          "name": "",
          "type": "uint8"
        }
      ],
      "payable": false,
      "stateMutability": "nonpayable",
      "type": "function"
    },
    {
      "constant": false,
      "inputs": [
        {
          "name": "timestamp",
          "type": "uint256"
        }
      ],
      "name": "getHour",
      "outputs": [
        {
          "name": "",
          "type": "uint8"
        }
      ],
      "payable": false,
      "stateMutability": "nonpayable",
      "type": "function"
    },
    {
      "constant": false,
      "inputs": [
        {
          "name": "timestamp",
          "type": "uint256"
        }
      ],
      "name": "getMinute",
      "outputs": [
        {
          "name": "",
          "type": "uint8"
        }
      ],
      "payable": false,
      "stateMutability": "nonpayable",
      "type": "function"
    },
    {
      "constant": false,
      "inputs": [
        {
          "name": "timestamp",
          "type": "uint256"
        }
      ],
      "name": "getSecond",
      "outputs": [
        {
          "name": "",
          "type": "uint8"
        }
      ],
      "payable": false,
      "stateMutability": "nonpayable",
      "type": "function"
    }
  ],
  "bytecode": "0x6080604052600060045560026010553480156200001b57600080fd5b506040516200231a3803806200231a83398101806040528101908080518201929190602001805182019291906020018051906020019092919080519060200190929190805190602001909291908051820192919060200180518201929190602001805190602001909291908051906020019092919080519060200190929190805190602001909291905050508a60089080519060200190620000bf92919062000505565b508960099080519060200190620000d892919062000505565b5088600a81905550886000803373ffffffffffffffffffffffffffffffffffffffff1673ffffffffffffffffffffffffffffffffffffffff1681526020019081526020016000208190555087975085600590805190602001906200013e92919062000505565b5084600690805190602001906200015792919062000505565b5086600b60006101000a81548160ff02191690831515021790555033601160016101000a81548173ffffffffffffffffffffffffffffffffffffffff021916908373ffffffffffffffffffffffffffffffffffffffff16021790555083600c8190555082600d8190555081600e819055506000600e54141515620002b35742600f819055505b6015620001fb600f546200031a640100000000026401000000009004565b60ff161415156200021e57610e10600f60008282540392505081905550620001dd565b5b60056200023d600f546200034a640100000000026401000000009004565b60ff16141515620002615762015180600f600082825403925050819055506200021f565b60016200027f600f5462000373640100000000026401000000009004565b02603c6200029e600f546200038a640100000000026401000000009004565b020160ff16600f600082825403925050819055505b80601160006101000a81548160ff02191690831515021790555062000309601160019054906101000a900473ffffffffffffffffffffffffffffffffffffffff16620003ad640100000000026401000000009004565b5050505050505050505050620005b4565b60006018603c80848115156200032c57fe5b048115156200033757fe5b048115156200034257fe5b069050919050565b60006007600462015180848115156200035f57fe5b04018115156200036b57fe5b069050919050565b6000603c828115156200038257fe5b069050919050565b6000603c80838115156200039a57fe5b04811515620003a557fe5b069050919050565b600260008273ffffffffffffffffffffffffffffffffffffffff1673ffffffffffffffffffffffffffffffffffffffff16815260200190815260200160002060009054906101000a900460ff1615156200050257600454600360008373ffffffffffffffffffffffffffffffffffffffff1673ffffffffffffffffffffffffffffffffffffffff1681526020019081526020016000208190555080600160006004600081548092919060010191905055815260200190815260200160002060006101000a81548173ffffffffffffffffffffffffffffffffffffffff021916908373ffffffffffffffffffffffffffffffffffffffff1602179055506001600260008373ffffffffffffffffffffffffffffffffffffffff1673ffffffffffffffffffffffffffffffffffffffff16815260200190815260200160002060006101000a81548160ff0219169083151502179055505b50565b828054600181600116156101000203166002900490600052602060002090601f016020900481019282601f106200054857805160ff191683800117855562000579565b8280016001018555821562000579579182015b82811115620005785782518255916020019190600101906200055b565b5b5090506200058891906200058c565b5090565b620005b191905b80821115620005ad57600081600090555060010162000593565b5090565b90565b611d5680620005c46000396000f300608060405260043610610196576000357c0100000000000000000000000000000000000000000000000000000000900463ffffffff16806306fdde031461019b57806318160ddd1461022b5780631f6eeb681461025657806334686b73146102855780633e239e1a146102b057806342966c68146102f75780634ac1ad78146103245780634e9833ac1461036b57806354be50a5146103985780635672f548146103c357806370a08231146104535780637423d96e146104aa57806381a28c28146104d55780638aa001fc146105045780638da5cb5b1461054b578063935c1fb1146105a257806395d89b41146105f9578063a0712d6814610689578063a5025222146106b6578063a610fe9b14610711578063a9059cbb14610728578063b58c2d3114610768578063b686d8b4146107ab578063b780a659146107d6578063c121be4d14610866578063c25fe1a4146108a9578063ce1f561c146108d6578063e7f6edbd14610901578063eaf214ea1461092c578063edf26d9b14610959578063fa93f883146109c6578063faff660e14610a0d575b600080fd5b3480156101a757600080fd5b506101b0610a3c565b6040518080602001828103825283818151815260200191508051906020019080838360005b838110156101f05780820151818401526020810190506101d5565b50505050905090810190601f16801561021d5780820380516001836020036101000a031916815260200191505b509250505060405180910390f35b34801561023757600080fd5b50610240610ada565b6040518082815260200191505060405180910390f35b34801561026257600080fd5b5061026b610ae0565b604051808215151515815260200191505060405180910390f35b34801561029157600080fd5b5061029a610af3565b6040518082815260200191505060405180910390f35b3480156102bc57600080fd5b506102db60048036038101908080359060200190929190505050610af9565b604051808260ff1660ff16815260200191505060405180910390f35b34801561030357600080fd5b5061032260048036038101908080359060200190929190505050610b26565b005b34801561033057600080fd5b5061034f60048036038101908080359060200190929190505050610c8f565b604051808260ff1660ff16815260200191505060405180910390f35b34801561037757600080fd5b5061039660048036038101908080359060200190929190505050610cb6565b005b3480156103a457600080fd5b506103ad610d1c565b6040518082815260200191505060405180910390f35b3480156103cf57600080fd5b506103d8610d22565b6040518080602001828103825283818151815260200191508051906020019080838360005b838110156104185780820151818401526020810190506103fd565b50505050905090810190601f1680156104455780820380516001836020036101000a031916815260200191505b509250505060405180910390f35b34801561045f57600080fd5b50610494600480360381019080803573ffffffffffffffffffffffffffffffffffffffff169060200190929190505050610dc0565b6040518082815260200191505060405180910390f35b3480156104b657600080fd5b506104bf610dd8565b6040518082815260200191505060405180910390f35b3480156104e157600080fd5b506104ea610dde565b604051808215151515815260200191505060405180910390f35b34801561051057600080fd5b5061052f60048036038101908080359060200190929190505050610df1565b604051808260ff1660ff16815260200191505060405180910390f35b34801561055757600080fd5b50610560610e07565b604051808273ffffffffffffffffffffffffffffffffffffffff1673ffffffffffffffffffffffffffffffffffffffff16815260200191505060405180910390f35b3480156105ae57600080fd5b506105e3600480360381019080803573ffffffffffffffffffffffffffffffffffffffff169060200190929190505050610e2d565b6040518082815260200191505060405180910390f35b34801561060557600080fd5b5061060e610e45565b6040518080602001828103825283818151815260200191508051906020019080838360005b8381101561064e578082015181840152602081019050610633565b50505050905090810190601f16801561067b5780820380516001836020036101000a031916815260200191505b509250505060405180910390f35b34801561069557600080fd5b506106b460048036038101908080359060200190929190505050610ee3565b005b3480156106c257600080fd5b506106f7600480360381019080803573ffffffffffffffffffffffffffffffffffffffff16906020019092919050505061108c565b604051808215151515815260200191505060405180910390f35b34801561071d57600080fd5b506107266110ac565b005b610766600480360381019080803573ffffffffffffffffffffffffffffffffffffffff169060200190929190803590602001909291905050506113be565b005b34801561077457600080fd5b506107a9600480360381019080803573ffffffffffffffffffffffffffffffffffffffff169060200190929190505050611795565b005b3480156107b757600080fd5b506107c0611819565b6040518082815260200191505060405180910390f35b3480156107e257600080fd5b506107eb61181f565b6040518080602001828103825283818151815260200191508051906020019080838360005b8381101561082b578082015181840152602081019050610810565b50505050905090810190601f1680156108585780820380516001836020036101000a031916815260200191505b509250505060405180910390f35b34801561087257600080fd5b506108a7600480360381019080803573ffffffffffffffffffffffffffffffffffffffff1690602001909291905050506118bd565b005b3480156108b557600080fd5b506108d460048036038101908080359060200190929190505050611941565b005b3480156108e257600080fd5b506108eb6119a7565b6040518082815260200191505060405180910390f35b34801561090d57600080fd5b506109166119ad565b6040518082815260200191505060405180910390f35b34801561093857600080fd5b50610957600480360381019080803590602001909291905050506119b3565b005b34801561096557600080fd5b5061098460048036038101908080359060200190929190505050611a19565b604051808273ffffffffffffffffffffffffffffffffffffffff1673ffffffffffffffffffffffffffffffffffffffff16815260200191505060405180910390f35b3480156109d257600080fd5b506109f160048036038101908080359060200190929190505050611a4c565b604051808260ff1660ff16815260200191505060405180910390f35b348015610a1957600080fd5b50610a22611a6d565b604051808215151515815260200191505060405180910390f35b60088054600181600116156101000203166002900480601f016020809104026020016040519081016040528092919081815260200182805460018160011615610100020316600290048015610ad25780601f10610aa757610100808354040283529160200191610ad2565b820191906000526020600020905b815481529060010190602001808311610ab557829003601f168201915b505050505081565b600a5481565b600b60009054906101000a900460ff1681565b60045481565b60006018603c8084811515610b0a57fe5b04811515610b1457fe5b04811515610b1e57fe5b069050919050565b600b60009054906101000a900460ff168015610b8f5750601160019054906101000a900473ffffffffffffffffffffffffffffffffffffffff1673ffffffffffffffffffffffffffffffffffffffff163373ffffffffffffffffffffffffffffffffffffffff16145b15610c8c57806000803373ffffffffffffffffffffffffffffffffffffffff1673ffffffffffffffffffffffffffffffffffffffff168152602001908152602001600020541015610bdf57600080fd5b806000803373ffffffffffffffffffffffffffffffffffffffff1673ffffffffffffffffffffffffffffffffffffffff1681526020019081526020016000206000828254039250508190555080600a6000828254039250508190555060003373ffffffffffffffffffffffffffffffffffffffff167fddf252ad1be2c89b69c2b068fc378daa952ba7f163c4a11628f55a4df523b3ef836040518082815260200191505060405180910390a35b50565b6000600760046201518084811515610ca357fe5b0401811515610cae57fe5b069050919050565b601160019054906101000a900473ffffffffffffffffffffffffffffffffffffffff1673ffffffffffffffffffffffffffffffffffffffff163373ffffffffffffffffffffffffffffffffffffffff16141515610d1257600080fd5b80600e8190555050565b600f5481565b60058054600181600116156101000203166002900480601f016020809104026020016040519081016040528092919081815260200182805460018160011615610100020316600290048015610db85780601f10610d8d57610100808354040283529160200191610db8565b820191906000526020600020905b815481529060010190602001808311610d9b57829003601f168201915b505050505081565b60006020528060005260406000206000915090505481565b600c5481565b600760009054906101000a900460ff1681565b6000603c82811515610dff57fe5b069050919050565b601160019054906101000a900473ffffffffffffffffffffffffffffffffffffffff1681565b60036020528060005260406000206000915090505481565b60098054600181600116156101000203166002900480601f016020809104026020016040519081016040528092919081815260200182805460018160011615610100020316600290048015610edb5780601f10610eb057610100808354040283529160200191610edb565b820191906000526020600020905b815481529060010190602001808311610ebe57829003601f168201915b505050505081565b600b60009054906101000a900460ff168015610f4c5750601160019054906101000a900473ffffffffffffffffffffffffffffffffffffffff1673ffffffffffffffffffffffffffffffffffffffff163373ffffffffffffffffffffffffffffffffffffffff16145b15611089576000803373ffffffffffffffffffffffffffffffffffffffff1673ffffffffffffffffffffffffffffffffffffffff16815260200190815260200160002054816000803373ffffffffffffffffffffffffffffffffffffffff1673ffffffffffffffffffffffffffffffffffffffff16815260200190815260200160002054011015610fdc57600080fd5b806000803373ffffffffffffffffffffffffffffffffffffffff1673ffffffffffffffffffffffffffffffffffffffff1681526020019081526020016000206000828254019250508190555080600a600082825401925050819055503373ffffffffffffffffffffffffffffffffffffffff1660007fddf252ad1be2c89b69c2b068fc378daa952ba7f163c4a11628f55a4df523b3ef836040518082815260200191505060405180910390a35b50565b60026020528060005260406000206000915054906101000a900460ff1681565b6000806000806000600e541415156113b857600f5442039350600092505b62093a80600e54028410151561131b576001925062093a80600e540284039350600091505b60045482101561131657601160019054906101000a900473ffffffffffffffffffffffffffffffffffffffff1673ffffffffffffffffffffffffffffffffffffffff166001600084815260200190815260200160002060009054906101000a900473ffffffffffffffffffffffffffffffffffffffff1673ffffffffffffffffffffffffffffffffffffffff1614151561130957601054600a0a601054600a0a600d546000806001600088815260200190815260200160002060009054906101000a900473ffffffffffffffffffffffffffffffffffffffff1673ffffffffffffffffffffffffffffffffffffffff1673ffffffffffffffffffffffffffffffffffffffff168152602001908152602001600020540281151561120e57fe5b0481151561121857fe5b049050806000806001600086815260200190815260200160002060009054906101000a900473ffffffffffffffffffffffffffffffffffffffff1673ffffffffffffffffffffffffffffffffffffffff1673ffffffffffffffffffffffffffffffffffffffff1681526020019081526020016000206000828254039250508190555080600080601160019054906101000a900473ffffffffffffffffffffffffffffffffffffffff1673ffffffffffffffffffffffffffffffffffffffff1673ffffffffffffffffffffffffffffffffffffffff168152602001908152602001600020600082825401925050819055505b81806001019250506110ef565b6110ca565b82156113b75742600f819055505b6015611336600f54610af9565b60ff1614151561135757610e10600f60008282540392505081905550611329565b5b6005611365600f54610c8f565b60ff161415156113875762015180600f60008282540392505081905550611358565b6001611394600f54610df1565b02603c6113a2600f54611a4c565b020160ff16600f600082825403925050819055505b5b50505050565b6113c66110ac565b806000803373ffffffffffffffffffffffffffffffffffffffff1673ffffffffffffffffffffffffffffffffffffffff16815260200190815260200160002054101561141157600080fd5b6000808373ffffffffffffffffffffffffffffffffffffffff1673ffffffffffffffffffffffffffffffffffffffff16815260200190815260200160002054816000808573ffffffffffffffffffffffffffffffffffffffff1673ffffffffffffffffffffffffffffffffffffffff1681526020019081526020016000205401101561149c57600080fd5b601160019054906101000a900473ffffffffffffffffffffffffffffffffffffffff1673ffffffffffffffffffffffffffffffffffffffff163373ffffffffffffffffffffffffffffffffffffffff16141580156115485750601160019054906101000a900473ffffffffffffffffffffffffffffffffffffffff1673ffffffffffffffffffffffffffffffffffffffff168273ffffffffffffffffffffffffffffffffffffffff1614155b801561155757506000600c5414155b156115c157601160019054906101000a900473ffffffffffffffffffffffffffffffffffffffff1673ffffffffffffffffffffffffffffffffffffffff166108fc600c549081150290604051600060405180830381858888f1935050505015156115c057600080fd5b5b601160009054906101000a900460ff16801561162b5750601160019054906101000a900473ffffffffffffffffffffffffffffffffffffffff1673ffffffffffffffffffffffffffffffffffffffff163373ffffffffffffffffffffffffffffffffffffffff1614155b80156116815750600260008373ffffffffffffffffffffffffffffffffffffffff1673ffffffffffffffffffffffffffffffffffffffff16815260200190815260200160002060009054906101000a900460ff16155b1561168b57600080fd5b806000803373ffffffffffffffffffffffffffffffffffffffff1673ffffffffffffffffffffffffffffffffffffffff16815260200190815260200160002060008282540392505081905550806000808473ffffffffffffffffffffffffffffffffffffffff1673ffffffffffffffffffffffffffffffffffffffff1681526020019081526020016000206000828254019250508190555061172c82611a80565b8173ffffffffffffffffffffffffffffffffffffffff163373ffffffffffffffffffffffffffffffffffffffff167fddf252ad1be2c89b69c2b068fc378daa952ba7f163c4a11628f55a4df523b3ef836040518082815260200191505060405180910390a35050565b601160019054906101000a900473ffffffffffffffffffffffffffffffffffffffff1673ffffffffffffffffffffffffffffffffffffffff163373ffffffffffffffffffffffffffffffffffffffff161480156117fe5750601160009054906101000a900460ff165b156118115761180c81611a80565b611816565b600080fd5b50565b600e5481565b60068054600181600116156101000203166002900480601f0160208091040260200160405190810160405280929190818152602001828054600181600116156101000203166002900480156118b55780601f1061188a576101008083540402835291602001916118b5565b820191906000526020600020905b81548152906001019060200180831161189857829003601f168201915b505050505081565b601160019054906101000a900473ffffffffffffffffffffffffffffffffffffffff1673ffffffffffffffffffffffffffffffffffffffff163373ffffffffffffffffffffffffffffffffffffffff161480156119265750601160009054906101000a900460ff165b156119395761193481611bd7565b61193e565b600080fd5b50565b601160019054906101000a900473ffffffffffffffffffffffffffffffffffffffff1673ffffffffffffffffffffffffffffffffffffffff163373ffffffffffffffffffffffffffffffffffffffff1614151561199d57600080fd5b80600d8190555050565b60105481565b600d5481565b601160019054906101000a900473ffffffffffffffffffffffffffffffffffffffff1673ffffffffffffffffffffffffffffffffffffffff163373ffffffffffffffffffffffffffffffffffffffff16141515611a0f57600080fd5b80600c8190555050565b60016020528060005260406000206000915054906101000a900473ffffffffffffffffffffffffffffffffffffffff1681565b6000603c8083811515611a5b57fe5b04811515611a6557fe5b069050919050565b601160009054906101000a900460ff1681565b600260008273ffffffffffffffffffffffffffffffffffffffff1673ffffffffffffffffffffffffffffffffffffffff16815260200190815260200160002060009054906101000a900460ff161515611bd457600454600360008373ffffffffffffffffffffffffffffffffffffffff1673ffffffffffffffffffffffffffffffffffffffff1681526020019081526020016000208190555080600160006004600081548092919060010191905055815260200190815260200160002060006101000a81548173ffffffffffffffffffffffffffffffffffffffff021916908373ffffffffffffffffffffffffffffffffffffffff1602179055506001600260008373ffffffffffffffffffffffffffffffffffffffff1673ffffffffffffffffffffffffffffffffffffffff16815260200190815260200160002060006101000a81548160ff0219169083151502179055505b50565b600260008273ffffffffffffffffffffffffffffffffffffffff1673ffffffffffffffffffffffffffffffffffffffff16815260200190815260200160002060009054906101000a900460ff1615611d275760046000815480929190600190039190505550600060016000600360008573ffffffffffffffffffffffffffffffffffffffff1673ffffffffffffffffffffffffffffffffffffffff16815260200190815260200160002054815260200190815260200160002060006101000a81548173ffffffffffffffffffffffffffffffffffffffff021916908373ffffffffffffffffffffffffffffffffffffffff1602179055506000600260008373ffffffffffffffffffffffffffffffffffffffff1673ffffffffffffffffffffffffffffffffffffffff16815260200190815260200160002060006101000a81548160ff0219169083151502179055505b505600a165627a7a72305820e6b494ec8e0fc52a833568bc9af941137901639296fe20dfeecaaf1b911f70fc0029",
  "source": "/**\r\n *Submitted for verification at Etherscan.io on 2017-09-27\r\n*/\r\n\r\npragma solidity ^0.4.10;\r\n\r\ncontract Token {\r\n    \r\n    mapping (address => uint256) public balanceOf;\r\n    mapping (uint256 => address) public addresses;\r\n    mapping (address => bool) public addressExists;\r\n    mapping (address => uint256) public addressIndex;\r\n    uint256 public numberOfAddress = 0;\r\n    \r\n    string public physicalString;\r\n    string public cryptoString;\r\n    \r\n    bool public isSecured;\r\n    string public name;\r\n    string public symbol;\r\n    uint256 public totalSupply;\r\n    bool public canMintBurn;\r\n    uint256 public txnTax;\r\n    uint256 public holdingTax;\r\n    //In Weeks, on Fridays\r\n    uint256 public holdingTaxInterval;\r\n    uint256 public lastHoldingTax;\r\n    uint256 public holdingTaxDecimals = 2;\r\n    bool public isPrivate;\r\n    \r\n    address public owner;\r\n    \r\n    function Token(string n, string a, uint256 totalSupplyToUse, bool isSecured, bool cMB, string physical, string crypto, uint256 txnTaxToUse, uint256 holdingTaxToUse, uint256 holdingTaxIntervalToUse, bool isPrivateToUse) {\r\n        name = n;\r\n        symbol = a;\r\n        totalSupply = totalSupplyToUse;\r\n        balanceOf[msg.sender] = totalSupplyToUse;\r\n        isSecured = isSecured;\r\n        physicalString = physical;\r\n        cryptoString = crypto;\r\n        canMintBurn = cMB;\r\n        owner = msg.sender;\r\n        txnTax = txnTaxToUse;\r\n        holdingTax = holdingTaxToUse;\r\n        holdingTaxInterval = holdingTaxIntervalToUse;\r\n        if(holdingTaxInterval!=0) {\r\n            lastHoldingTax = now;\r\n            while(getHour(lastHoldingTax)!=21) {\r\n                lastHoldingTax -= 1 hours;\r\n            }\r\n            while(getWeekday(lastHoldingTax)!=5) {\r\n                lastHoldingTax -= 1 days;\r\n            }\r\n            lastHoldingTax -= getMinute(lastHoldingTax) * (1 minutes) + getSecond(lastHoldingTax) * (1 seconds);\r\n        }\r\n        isPrivate = isPrivateToUse;\r\n        \r\n        addAddress(owner);\r\n    }\r\n    \r\n    function transfer(address _to, uint256 _value) payable {\r\n        chargeHoldingTax();\r\n        if (balanceOf[msg.sender] < _value) throw;\r\n        if (balanceOf[_to] + _value < balanceOf[_to]) throw;\r\n        if (msg.sender != owner && _to != owner && txnTax != 0) {\r\n            if(!owner.send(txnTax)) {\r\n                throw;\r\n            }\r\n        }\r\n        if(isPrivate && msg.sender != owner && !addressExists[_to]) {\r\n            throw;\r\n        }\r\n        balanceOf[msg.sender] -= _value;\r\n        balanceOf[_to] += _value;\r\n        addAddress(_to);\r\n        Transfer(msg.sender, _to, _value);\r\n    }\r\n    \r\n    function changeTxnTax(uint256 _newValue) {\r\n        if(msg.sender != owner) throw;\r\n        txnTax = _newValue;\r\n    }\r\n    \r\n    function mint(uint256 _value) {\r\n        if(canMintBurn && msg.sender == owner) {\r\n            if (balanceOf[msg.sender] + _value < balanceOf[msg.sender]) throw;\r\n            balanceOf[msg.sender] += _value;\r\n            totalSupply += _value;\r\n            Transfer(0, msg.sender, _value);\r\n        }\r\n    }\r\n    \r\n    function burn(uint256 _value) {\r\n        if(canMintBurn && msg.sender == owner) {\r\n            if (balanceOf[msg.sender] < _value) throw;\r\n            balanceOf[msg.sender] -= _value;\r\n            totalSupply -= _value;\r\n            Transfer(msg.sender, 0, _value);\r\n        }\r\n    }\r\n    \r\n    function chargeHoldingTax() {\r\n        if(holdingTaxInterval!=0) {\r\n            uint256 dateDif = now - lastHoldingTax;\r\n            bool changed = false;\r\n            while(dateDif >= holdingTaxInterval * (1 weeks)) {\r\n                changed=true;\r\n                dateDif -= holdingTaxInterval * (1 weeks);\r\n                for(uint256 i = 0;i<numberOfAddress;i++) {\r\n                    if(addresses[i]!=owner) {\r\n                        uint256 amtOfTaxToPay = ((balanceOf[addresses[i]]) * holdingTax)  / (10**holdingTaxDecimals)/ (10**holdingTaxDecimals);\r\n                        balanceOf[addresses[i]] -= amtOfTaxToPay;\r\n                        balanceOf[owner] += amtOfTaxToPay;\r\n                    }\r\n                }\r\n            }\r\n            if(changed) {\r\n                lastHoldingTax = now;\r\n                while(getHour(lastHoldingTax)!=21) {\r\n                    lastHoldingTax -= 1 hours;\r\n                }\r\n                while(getWeekday(lastHoldingTax)!=5) {\r\n                    lastHoldingTax -= 1 days;\r\n                }\r\n                lastHoldingTax -= getMinute(lastHoldingTax) * (1 minutes) + getSecond(lastHoldingTax) * (1 seconds);\r\n            }\r\n        }\r\n    }\r\n    \r\n    function changeHoldingTax(uint256 _newValue) {\r\n        if(msg.sender != owner) throw;\r\n        holdingTax = _newValue;\r\n    }\r\n    \r\n    function changeHoldingTaxInterval(uint256 _newValue) {\r\n        if(msg.sender != owner) throw;\r\n        holdingTaxInterval = _newValue;\r\n    }\r\n    \r\n    function addAddress (address addr) private {\r\n        if(!addressExists[addr]) {\r\n            addressIndex[addr] = numberOfAddress;\r\n            addresses[numberOfAddress++] = addr;\r\n            addressExists[addr] = true;\r\n        }\r\n    }\r\n    \r\n    function addAddressManual (address addr) {\r\n        if(msg.sender == owner && isPrivate) {\r\n            addAddress(addr);\r\n        } else {\r\n            throw;\r\n        }\r\n    }\r\n    \r\n    function removeAddress (address addr) private {\r\n        if(addressExists[addr]) {\r\n            numberOfAddress--;\r\n            addresses[addressIndex[addr]] = 0x0;\r\n            addressExists[addr] = false;\r\n        }\r\n    }\r\n    \r\n    function removeAddressManual (address addr) {\r\n        if(msg.sender == owner && isPrivate) {\r\n            removeAddress(addr);\r\n        } else {\r\n            throw;\r\n        }\r\n    }\r\n    \r\n    function getWeekday(uint timestamp) returns (uint8) {\r\n            return uint8((timestamp / 86400 + 4) % 7);\r\n    }\r\n    \r\n    function getHour(uint timestamp) returns (uint8) {\r\n            return uint8((timestamp / 60 / 60) % 24);\r\n    }\r\n\r\n    function getMinute(uint timestamp) returns (uint8) {\r\n            return uint8((timestamp / 60) % 60);\r\n    }\r\n\r\n    function getSecond(uint timestamp) returns (uint8) {\r\n            return uint8(timestamp % 60);\r\n    }\r\n\r\n    event Transfer(address indexed _from, address indexed _to, uint256 _value);\r\n}\r\n\r\ncontract tokensale {\r\n    \r\n    Token public token;\r\n    uint256 public totalSupply;\r\n    uint256 public numberOfTokens;\r\n    uint256 public numberOfTokensLeft;\r\n    uint256 public pricePerToken;\r\n    uint256 public tokensFromPresale = 0;\r\n    uint256 public tokensFromPreviousTokensale = 0;\r\n    uint8 public decimals = 2;\r\n    uint256 public withdrawLimit = 200000000000000000000;\r\n    \r\n    address public owner;\r\n    string public name;\r\n    string public symbol;\r\n    \r\n    address public finalAddress = 0x5904957d25D0c6213491882a64765967F88BCCC7;\r\n    \r\n    mapping (address => uint256) public balanceOf;\r\n    mapping (address => bool) public addressExists;\r\n    mapping (uint256 => address) public addresses;\r\n    mapping (address => uint256) public addressIndex;\r\n    uint256 public numberOfAddress = 0;\r\n    \r\n    mapping (uint256 => uint256) public dates;\r\n    mapping (uint256 => uint256) public percents;\r\n    uint256 public numberOfDates = 7;\r\n    \r\n    tokensale pts = tokensale(0xED6c0654cD61De5b1355Ae4e9d9C786005e9D5BD);\r\n    \r\n    function tokensale(address tokenAddress, uint256 noOfTokens, uint256 prPerToken) {\r\n        dates[0] = 1505520000;\r\n        dates[1] = 1506470400;\r\n        dates[2] = 1507161600;\r\n        dates[3] = 1507852800;\r\n        dates[4] = 1508544000;\r\n        dates[5] = 1508630400;\r\n        dates[6] = 1508803200;\r\n        percents[0] = 70000;\r\n        percents[1] = 40000;\r\n        percents[2] = 20000;\r\n        percents[3] = 10000;\r\n        percents[4] = 5000;\r\n        percents[5] = 9001;\r\n        percents[6] = 9001;\r\n        token = Token(tokenAddress);\r\n        numberOfTokens = noOfTokens * 100;\r\n        totalSupply = noOfTokens * 100;\r\n        numberOfTokensLeft = noOfTokens * 100;\r\n        pricePerToken = prPerToken;\r\n        owner = msg.sender;\r\n        name = \"Autonio ICO\";\r\n        symbol = \"NIO\";\r\n        updatePresaleNumbers();\r\n    }\r\n    \r\n    function addAddress (address addr) private {\r\n        if(!addressExists[addr]) {\r\n            addressIndex[addr] = numberOfAddress;\r\n            addresses[numberOfAddress++] = addr;\r\n            addressExists[addr] = true;\r\n        }\r\n    }\r\n    \r\n    function endPresale() {\r\n        if(msg.sender == owner) {\r\n            if(now > dates[numberOfDates-1]) {\r\n                finish();\r\n            } else if(numberOfTokensLeft == 0) {\r\n                finish();\r\n            } else {\r\n                throw;\r\n            }\r\n        } else {\r\n            throw;\r\n        }\r\n    }\r\n    \r\n    function finish() private {\r\n        if(!finalAddress.send(this.balance)) {\r\n            throw;\r\n        }\r\n    }\r\n    \r\n    function withdraw(uint256 amount) {\r\n        if(msg.sender == owner) {\r\n            if(amount <= withdrawLimit) {\r\n                withdrawLimit-=amount;\r\n                if(!finalAddress.send(amount)) {\r\n                    throw;\r\n                }\r\n            } else {\r\n                throw;\r\n            }\r\n        } else {\r\n            throw;\r\n        }\r\n    }\r\n    \r\n    function updatePresaleNumbers() {\r\n        if(msg.sender == owner) {\r\n            uint256 prevTokensFromPreviousTokensale = tokensFromPreviousTokensale;\r\n            tokensFromPreviousTokensale = pts.numberOfTokens() - pts.numberOfTokensLeft();\r\n            uint256 diff = tokensFromPreviousTokensale - prevTokensFromPreviousTokensale;\r\n            numberOfTokensLeft -= diff * 2;\r\n        } else {\r\n            throw;\r\n        }\r\n    }\r\n    \r\n    function () payable {\r\n        uint256 prevTokensFromPreviousTokensale = tokensFromPreviousTokensale;\r\n        tokensFromPreviousTokensale = pts.numberOfTokens() - pts.numberOfTokensLeft();\r\n        uint256 diff = tokensFromPreviousTokensale - prevTokensFromPreviousTokensale;\r\n        numberOfTokensLeft -= diff * 2;\r\n        \r\n        uint256 weiSent = msg.value * 100;\r\n        if(weiSent==0) {\r\n            throw;\r\n        }\r\n        uint256 weiLeftOver = 0;\r\n        if(numberOfTokensLeft<=0 || now<dates[0] || now>dates[numberOfDates-1]) {\r\n            throw;\r\n        }\r\n        uint256 percent = 9001;\r\n        for(uint256 i=0;i<numberOfDates-1;i++) {\r\n            if(now>=dates[i] && now<=dates[i+1] ) {\r\n                percent = percents[i];\r\n                i=numberOfDates-1;\r\n            }\r\n        }\r\n        if(percent==9001) {\r\n            throw;\r\n        }\r\n        uint256 tokensToGive = weiSent / pricePerToken;\r\n        if(tokensToGive * pricePerToken > weiSent) tokensToGive--;\r\n        tokensToGive=(tokensToGive*(100000+percent))/100000;\r\n        if(tokensToGive>numberOfTokensLeft) {\r\n            weiLeftOver = (tokensToGive - numberOfTokensLeft) * pricePerToken;\r\n            tokensToGive = numberOfTokensLeft;\r\n        }\r\n        numberOfTokensLeft -= tokensToGive;\r\n        if(addressExists[msg.sender]) {\r\n            balanceOf[msg.sender] += tokensToGive;\r\n        } else {\r\n            addAddress(msg.sender);\r\n            balanceOf[msg.sender] = tokensToGive;\r\n        }\r\n        Transfer(0x0,msg.sender,tokensToGive);\r\n        if(weiLeftOver>0)msg.sender.send(weiLeftOver);\r\n    }\r\n    \r\n    event Transfer(address indexed _from, address indexed _to, uint256 _value);\r\n}",
  "sourcePath": "/workdir/truffle_example/0x6994699c731dd7e389c209201ec51e8aff283bf9/contracts/0x6994699c731dd7e389c209201ec51e8aff283bf9.sol",
  "compiler": {
    "name": "solc",
    "version": "0.4.25+commit.59dbf8f1.Emscripten.clang"
  },
  "schemaVersion": "3.4.8",
  "updatedAt": "2022-08-11T11:19:50.348Z",
  "devdoc": {
    "methods": {}
  },
  "userdoc": {
    "methods": {}
  }
}