{
  "contractName": "Marriage",
  "abi": [
    {
      "constant": true,
      "inputs": [
        {
          "name": "",
          "type": "uint256"
        }
      ],
      "name": "messages",
      "outputs": [
        {
          "name": "date",
          "type": "uint256"
        },
        {
          "name": "nameFrom",
          "type": "string"
        },
        {
          "name": "text",
          "type": "string"
        },
        {
          "name": "url",
          "type": "string"
        },
        {
          "name": "value",
          "type": "uint256"
        }
      ],
      "payable": false,
      "stateMutability": "view",
      "type": "function"
    },
    {
      "constant": true,
      "inputs": [],
      "name": "marriageDate",
      "outputs": [
        {
          "name": "",
          "type": "uint256"
        }
      ],
      "payable": false,
      "stateMutability": "view",
      "type": "function"
    },
    {
      "constant": true,
      "inputs": [
        {
          "name": "",
          "type": "uint256"
        }
      ],
      "name": "majorEvents",
      "outputs": [
        {
          "name": "date",
          "type": "uint256"
        },
        {
          "name": "name",
          "type": "string"
        },
        {
          "name": "description",
          "type": "string"
        },
        {
          "name": "url",
          "type": "string"
        }
      ],
      "payable": false,
      "stateMutability": "view",
      "type": "function"
    },
    {
      "constant": false,
      "inputs": [],
      "name": "acceptOwnership",
      "outputs": [],
      "payable": false,
      "stateMutability": "nonpayable",
      "type": "function"
    },
    {
      "constant": true,
      "inputs": [],
      "name": "partner2",
      "outputs": [
        {
          "name": "",
          "type": "string"
        }
      ],
      "payable": false,
      "stateMutability": "view",
      "type": "function"
    },
    {
      "constant": true,
      "inputs": [],
      "name": "owner",
      "outputs": [
        {
          "name": "",
          "type": "address"
        }
      ],
      "payable": false,
      "stateMutability": "view",
      "type": "function"
    },
    {
      "constant": true,
      "inputs": [],
      "name": "partner1",
      "outputs": [
        {
          "name": "",
          "type": "string"
        }
      ],
      "payable": false,
      "stateMutability": "view",
      "type": "function"
    },
    {
      "constant": false,
      "inputs": [
        {
          "name": "_newOwner",
          "type": "address"
        }
      ],
      "name": "changeOwner",
      "outputs": [],
      "payable": false,
      "stateMutability": "nonpayable",
      "type": "function"
    },
    {
      "constant": false,
      "inputs": [
        {
          "name": "_dst",
          "type": "address"
        },
        {
          "name": "_value",
          "type": "uint256"
        },
        {
          "name": "_data",
          "type": "bytes"
        }
      ],
      "name": "execute",
      "outputs": [],
      "payable": false,
      "stateMutability": "nonpayable",
      "type": "function"
    },
    {
      "constant": true,
      "inputs": [],
      "name": "vows",
      "outputs": [
        {
          "name": "",
          "type": "string"
        }
      ],
      "payable": false,
      "stateMutability": "view",
      "type": "function"
    },
    {
      "constant": true,
      "inputs": [],
      "name": "marriageStatus",
      "outputs": [
        {
          "name": "",
          "type": "string"
        }
      ],
      "payable": false,
      "stateMutability": "view",
      "type": "function"
    },
    {
      "constant": true,
      "inputs": [],
      "name": "newOwner",
      "outputs": [
        {
          "name": "",
          "type": "address"
        }
      ],
      "payable": false,
      "stateMutability": "view",
      "type": "function"
    },
    {
      "inputs": [
        {
          "name": "_owner",
          "type": "address"
        }
      ],
      "payable": false,
      "stateMutability": "nonpayable",
      "type": "constructor"
    },
    {
      "anonymous": false,
      "inputs": [
        {
          "indexed": false,
          "name": "name",
          "type": "string"
        },
        {
          "indexed": false,
          "name": "description",
          "type": "string"
        },
        {
          "indexed": false,
          "name": "url",
          "type": "string"
        }
      ],
      "name": "MajorEvent",
      "type": "event"
    },
    {
      "anonymous": false,
      "inputs": [
        {
          "indexed": false,
          "name": "name",
          "type": "string"
        },
        {
          "indexed": false,
          "name": "description",
          "type": "string"
        },
        {
          "indexed": false,
          "name": "url",
          "type": "string"
        },
        {
          "indexed": false,
          "name": "value",
          "type": "uint256"
        }
      ],
      "name": "MessageSent",
      "type": "event"
    },
    {
      "constant": true,
      "inputs": [],
      "name": "numberOfMajorEvents",
      "outputs": [
        {
          "name": "",
          "type": "uint256"
        }
      ],
      "payable": false,
      "stateMutability": "view",
      "type": "function"
    },
    {
      "constant": true,
      "inputs": [],
      "name": "numberOfMessages",
      "outputs": [
        {
          "name": "",
          "type": "uint256"
        }
      ],
      "payable": false,
      "stateMutability": "view",
      "type": "function"
    },
    {
      "constant": false,
      "inputs": [
        {
          "name": "_partner1",
          "type": "string"
        },
        {
          "name": "_partner2",
          "type": "string"
        },
        {
          "name": "_vows",
          "type": "string"
        },
        {
          "name": "url",
          "type": "string"
        }
      ],
      "name": "createMarriage",
      "outputs": [],
      "payable": false,
      "stateMutability": "nonpayable",
      "type": "function"
    },
    {
      "constant": false,
      "inputs": [
        {
          "name": "status",
          "type": "string"
        },
        {
          "name": "url",
          "type": "string"
        }
      ],
      "name": "setStatus",
      "outputs": [],
      "payable": false,
      "stateMutability": "nonpayable",
      "type": "function"
    },
    {
      "constant": false,
      "inputs": [
        {
          "name": "name",
          "type": "string"
        },
        {
          "name": "description",
          "type": "string"
        },
        {
          "name": "url",
          "type": "string"
        }
      ],
      "name": "setMajorEvent",
      "outputs": [],
      "payable": false,
      "stateMutability": "nonpayable",
      "type": "function"
    },
    {
      "constant": false,
      "inputs": [
        {
          "name": "nameFrom",
          "type": "string"
        },
        {
          "name": "text",
          "type": "string"
        },
        {
          "name": "url",
          "type": "string"
        }
      ],
      "name": "sendMessage",
      "outputs": [],
      "payable": true,
      "stateMutability": "payable",
      "type": "function"
    }
  ],
  "bytecode": "0x608060405234801561001057600080fd5b506040516020806122e883398101806040528101908080519060200190929190505050336000806101000a81548173ffffffffffffffffffffffffffffffffffffffff021916908373ffffffffffffffffffffffffffffffffffffffff160217905550806000806101000a81548173ffffffffffffffffffffffffffffffffffffffff021916908373ffffffffffffffffffffffffffffffffffffffff16021790555050612225806100c36000396000f3006080604052600436106100fc576000357c0100000000000000000000000000000000000000000000000000000000900463ffffffff1680630d80fefd146101015780630eabeffe1461028d5780634d7d8a601461037557806358c721ce146103a05780636753a3c11461052557806379ba50971461061a5780638b35a244146106315780638da5cb5b146106c1578063a4c7c7b314610718578063a6f9dae1146107a8578063b61d27f6146107eb578063c55900331461087e578063d081b6811461092d578063d2521034146109bd578063d4ee1d9014610a4d578063dc0c1a2714610aa4578063fadcd86114610acf578063fbda68e214610c0a575b600080fd5b34801561010d57600080fd5b5061012c60048036038101908080359060200190929190505050610c35565b60405180868152602001806020018060200180602001858152602001848103845288818151815260200191508051906020019080838360005b83811015610180578082015181840152602081019050610165565b50505050905090810190601f1680156101ad5780820380516001836020036101000a031916815260200191505b50848103835287818151815260200191508051906020019080838360005b838110156101e65780820151818401526020810190506101cb565b50505050905090810190601f1680156102135780820380516001836020036101000a031916815260200191505b50848103825286818151815260200191508051906020019080838360005b8381101561024c578082015181840152602081019050610231565b50505050905090810190601f1680156102795780820380516001836020036101000a031916815260200191505b509850505050505050505060405180910390f35b610373600480360381019080803590602001908201803590602001908080601f0160208091040260200160405190810160405280939291908181526020018383808284378201915050505050509192919290803590602001908201803590602001908080601f0160208091040260200160405190810160405280939291908181526020018383808284378201915050505050509192919290803590602001908201803590602001908080601f0160208091040260200160405190810160405280939291908181526020018383808284378201915050505050509192919290505050610e42565b005b34801561038157600080fd5b5061038a6111c5565b6040518082815260200191505060405180910390f35b3480156103ac57600080fd5b506103cb600480360381019080803590602001909291905050506111cb565b60405180858152602001806020018060200180602001848103845287818151815260200191508051906020019080838360005b838110156104195780820151818401526020810190506103fe565b50505050905090810190601f1680156104465780820380516001836020036101000a031916815260200191505b50848103835286818151815260200191508051906020019080838360005b8381101561047f578082015181840152602081019050610464565b50505050905090810190601f1680156104ac5780820380516001836020036101000a031916815260200191505b50848103825285818151815260200191508051906020019080838360005b838110156104e55780820151818401526020810190506104ca565b50505050905090810190601f1680156105125780820380516001836020036101000a031916815260200191505b5097505050505050505060405180910390f35b34801561053157600080fd5b50610618600480360381019080803590602001908201803590602001908080601f0160208091040260200160405190810160405280939291908181526020018383808284378201915050505050509192919290803590602001908201803590602001908080601f0160208091040260200160405190810160405280939291908181526020018383808284378201915050505050509192919290803590602001908201803590602001908080601f01602080910402602001604051908101604052809392919081815260200183838082843782019150505050505091929192905050506113d2565b005b34801561062657600080fd5b5061062f61170f565b005b34801561063d57600080fd5b506106466117ca565b6040518080602001828103825283818151815260200191508051906020019080838360005b8381101561068657808201518184015260208101905061066b565b50505050905090810190601f1680156106b35780820380516001836020036101000a031916815260200191505b509250505060405180910390f35b3480156106cd57600080fd5b506106d6611868565b604051808273ffffffffffffffffffffffffffffffffffffffff1673ffffffffffffffffffffffffffffffffffffffff16815260200191505060405180910390f35b34801561072457600080fd5b5061072d61188d565b6040518080602001828103825283818151815260200191508051906020019080838360005b8381101561076d578082015181840152602081019050610752565b50505050905090810190601f16801561079a5780820380516001836020036101000a031916815260200191505b509250505060405180910390f35b3480156107b457600080fd5b506107e9600480360381019080803573ffffffffffffffffffffffffffffffffffffffff16906020019092919050505061192b565b005b3480156107f757600080fd5b5061087c600480360381019080803573ffffffffffffffffffffffffffffffffffffffff16906020019092919080359060200190929190803590602001908201803590602001908080601f01602080910402602001604051908101604052809392919081815260200183838082843782019150505050505091929192905050506119ca565b005b34801561088a57600080fd5b5061092b600480360381019080803590602001908201803590602001908080601f0160208091040260200160405190810160405280939291908181526020018383808284378201915050505050509192919290803590602001908201803590602001908080601f0160208091040260200160405190810160405280939291908181526020018383808284378201915050505050509192919290505050611ab3565b005b34801561093957600080fd5b50610942611b69565b6040518080602001828103825283818151815260200191508051906020019080838360005b83811015610982578082015181840152602081019050610967565b50505050905090810190601f1680156109af5780820380516001836020036101000a031916815260200191505b509250505060405180910390f35b3480156109c957600080fd5b506109d2611c07565b6040518080602001828103825283818151815260200191508051906020019080838360005b83811015610a125780820151818401526020810190506109f7565b50505050905090810190601f168015610a3f5780820380516001836020036101000a031916815260200191505b509250505060405180910390f35b348015610a5957600080fd5b50610a62611ca5565b604051808273ffffffffffffffffffffffffffffffffffffffff1673ffffffffffffffffffffffffffffffffffffffff16815260200191505060405180910390f35b348015610ab057600080fd5b50610ab9611ccb565b6040518082815260200191505060405180910390f35b348015610adb57600080fd5b50610c08600480360381019080803590602001908201803590602001908080601f0160208091040260200160405190810160405280939291908181526020018383808284378201915050505050509192919290803590602001908201803590602001908080601f0160208091040260200160405190810160405280939291908181526020018383808284378201915050505050509192919290803590602001908201803590602001908080601f0160208091040260200160405190810160405280939291908181526020018383808284378201915050505050509192919290803590602001908201803590602001908080601f0160208091040260200160405190810160405280939291908181526020018383808284378201915050505050509192919290505050611cd8565b005b348015610c1657600080fd5b50610c1f6120c7565b6040518082815260200191505060405180910390f35b600881815481101515610c4457fe5b9060005260206000209060050201600091509050806000015490806001018054600181600116156101000203166002900480601f016020809104026020016040519081016040528092919081815260200182805460018160011615610100020316600290048015610cf65780601f10610ccb57610100808354040283529160200191610cf6565b820191906000526020600020905b815481529060010190602001808311610cd957829003601f168201915b505050505090806002018054600181600116156101000203166002900480601f016020809104026020016040519081016040528092919081815260200182805460018160011615610100020316600290048015610d945780601f10610d6957610100808354040283529160200191610d94565b820191906000526020600020905b815481529060010190602001808311610d7757829003601f168201915b505050505090806003018054600181600116156101000203166002900480601f016020809104026020016040519081016040528092919081815260200182805460018160011615610100020316600290048015610e325780601f10610e0757610100808354040283529160200191610e32565b820191906000526020600020905b815481529060010190602001808311610e1557829003601f168201915b5050505050908060040154905085565b60405180807f4d61727269656400000000000000000000000000000000000000000000000000815250600701905060405180910390206000191660056040518082805460018160011615610100020316600290048015610ed95780601f10610eb7576101008083540402835291820191610ed9565b820191906000526020600020905b815481529060010190602001808311610ec5575b5050915050604051809103902060001916141515610ef657600080fd5b6000341115610f7f576000809054906101000a900473ffffffffffffffffffffffffffffffffffffffff1673ffffffffffffffffffffffffffffffffffffffff166108fc3073ffffffffffffffffffffffffffffffffffffffff16319081150290604051600060405180830381858888f19350505050158015610f7d573d6000803e3d6000fd5b505b600860a0604051908101604052804281526020018581526020018481526020018381526020013481525090806001815401808255809150509060018203906000526020600020906005020160009091929091909150600082015181600001556020820151816001019080519060200190610ffa9291906120d4565b5060408201518160020190805190602001906110179291906120d4565b5060608201518160030190805190602001906110349291906120d4565b50608082015181600401555050507f200deb8b3290a27dc66b22678c86aea858eba8208e869bacf3c5b20ab1c134518383833460405180806020018060200180602001858152602001848103845288818151815260200191508051906020019080838360005b838110156110b557808201518184015260208101905061109a565b50505050905090810190601f1680156110e25780820380516001836020036101000a031916815260200191505b50848103835287818151815260200191508051906020019080838360005b8381101561111b578082015181840152602081019050611100565b50505050905090810190601f1680156111485780820380516001836020036101000a031916815260200191505b50848103825286818151815260200191508051906020019080838360005b83811015611181578082015181840152602081019050611166565b50505050905090810190601f1680156111ae5780820380516001836020036101000a031916815260200191505b5097505050505050505060405180910390a1505050565b60045481565b6007818154811015156111da57fe5b9060005260206000209060040201600091509050806000015490806001018054600181600116156101000203166002900480601f01602080910402602001604051908101604052809291908181526020018280546001816001161561010002031660029004801561128c5780601f106112615761010080835404028352916020019161128c565b820191906000526020600020905b81548152906001019060200180831161126f57829003601f168201915b505050505090806002018054600181600116156101000203166002900480601f01602080910402602001604051908101604052809291908181526020018280546001816001161561010002031660029004801561132a5780601f106112ff5761010080835404028352916020019161132a565b820191906000526020600020905b81548152906001019060200180831161130d57829003601f168201915b505050505090806003018054600181600116156101000203166002900480601f0160208091040260200160405190810160405280929190818152602001828054600181600116156101000203166002900480156113c85780601f1061139d576101008083540402835291602001916113c8565b820191906000526020600020905b8154815290600101906020018083116113ab57829003601f168201915b5050505050905084565b6000809054906101000a900473ffffffffffffffffffffffffffffffffffffffff1673ffffffffffffffffffffffffffffffffffffffff163373ffffffffffffffffffffffffffffffffffffffff1614151561142d57600080fd5b60405180807f4d617272696564000000000000000000000000000000000000000000000000008152506007019050604051809103902060001916600560405180828054600181600116156101000203166002900480156114c45780601f106114a25761010080835404028352918201916114c4565b820191906000526020600020905b8154815290600101906020018083116114b0575b50509150506040518091039020600019161415156114e157600080fd5b600760806040519081016040528042815260200185815260200184815260200183815250908060018154018082558091505090600182039060005260206000209060040201600090919290919091506000820151816000015560208201518160010190805190602001906115569291906120d4565b5060408201518160020190805190602001906115739291906120d4565b5060608201518160030190805190602001906115909291906120d4565b505050507f380fc6701688aa99b3b52cafad974633221d7c5d5100d0a1f5f30b5b861b54aa83838360405180806020018060200180602001848103845287818151815260200191508051906020019080838360005b838110156116005780820151818401526020810190506115e5565b50505050905090810190601f16801561162d5780820380516001836020036101000a031916815260200191505b50848103835286818151815260200191508051906020019080838360005b8381101561166657808201518184015260208101905061164b565b50505050905090810190601f1680156116935780820380516001836020036101000a031916815260200191505b50848103825285818151815260200191508051906020019080838360005b838110156116cc5780820151818401526020810190506116b1565b50505050905090810190601f1680156116f95780820380516001836020036101000a031916815260200191505b50965050505050505060405180910390a1505050565b600160009054906101000a900473ffffffffffffffffffffffffffffffffffffffff1673ffffffffffffffffffffffffffffffffffffffff163373ffffffffffffffffffffffffffffffffffffffff1614156117c857600160009054906101000a900473ffffffffffffffffffffffffffffffffffffffff166000806101000a81548173ffffffffffffffffffffffffffffffffffffffff021916908373ffffffffffffffffffffffffffffffffffffffff1602179055505b565b60038054600181600116156101000203166002900480601f0160208091040260200160405190810160405280929190818152602001828054600181600116156101000203166002900480156118605780601f1061183557610100808354040283529160200191611860565b820191906000526020600020905b81548152906001019060200180831161184357829003601f168201915b505050505081565b6000809054906101000a900473ffffffffffffffffffffffffffffffffffffffff1681565b60028054600181600116156101000203166002900480601f0160208091040260200160405190810160405280929190818152602001828054600181600116156101000203166002900480156119235780601f106118f857610100808354040283529160200191611923565b820191906000526020600020905b81548152906001019060200180831161190657829003601f168201915b505050505081565b6000809054906101000a900473ffffffffffffffffffffffffffffffffffffffff1673ffffffffffffffffffffffffffffffffffffffff163373ffffffffffffffffffffffffffffffffffffffff1614151561198657600080fd5b80600160006101000a81548173ffffffffffffffffffffffffffffffffffffffff021916908373ffffffffffffffffffffffffffffffffffffffff16021790555050565b6000809054906101000a900473ffffffffffffffffffffffffffffffffffffffff1673ffffffffffffffffffffffffffffffffffffffff163373ffffffffffffffffffffffffffffffffffffffff16141515611a2557600080fd5b8273ffffffffffffffffffffffffffffffffffffffff16828260405180828051906020019080838360005b83811015611a6b578082015181840152602081019050611a50565b50505050905090810190601f168015611a985780820380516001836020036101000a031916815260200191505b5091505060006040518083038185875af19250505050505050565b6000809054906101000a900473ffffffffffffffffffffffffffffffffffffffff1673ffffffffffffffffffffffffffffffffffffffff163373ffffffffffffffffffffffffffffffffffffffff16141515611b0e57600080fd5b8160059080519060200190611b24929190612154565b50611b656040805190810160405280600e81526020017f4368616e6765642053746174757300000000000000000000000000000000000081525083836113d2565b5050565b60068054600181600116156101000203166002900480601f016020809104026020016040519081016040528092919081815260200182805460018160011615610100020316600290048015611bff5780601f10611bd457610100808354040283529160200191611bff565b820191906000526020600020905b815481529060010190602001808311611be257829003601f168201915b505050505081565b60058054600181600116156101000203166002900480601f016020809104026020016040519081016040528092919081815260200182805460018160011615610100020316600290048015611c9d5780601f10611c7257610100808354040283529160200191611c9d565b820191906000526020600020905b815481529060010190602001808311611c8057829003601f168201915b505050505081565b600160009054906101000a900473ffffffffffffffffffffffffffffffffffffffff1681565b6000600780549050905090565b6000809054906101000a900473ffffffffffffffffffffffffffffffffffffffff1673ffffffffffffffffffffffffffffffffffffffff163373ffffffffffffffffffffffffffffffffffffffff16141515611d3357600080fd5b6000600780549050141515611d4757600080fd5b8360029080519060200190611d5d929190612154565b508260039080519060200190611d74929190612154565b50426004819055508160069080519060200190611d92929190612154565b506040805190810160405280600781526020017f4d6172726965640000000000000000000000000000000000000000000000000081525060059080519060200190611dde929190612154565b5060076080604051908101604052804281526020016040805190810160405280600881526020017f4d61727269616765000000000000000000000000000000000000000000000000815250815260200160068054600181600116156101000203166002900480601f016020809104026020016040519081016040528092919081815260200182805460018160011615610100020316600290048015611ec45780601f10611e9957610100808354040283529160200191611ec4565b820191906000526020600020905b815481529060010190602001808311611ea757829003601f168201915b505050505081526020018381525090806001815401808255809150509060018203906000526020600020906004020160009091929091909150600082015181600001556020820151816001019080519060200190611f239291906120d4565b506040820151816002019080519060200190611f409291906120d4565b506060820151816003019080519060200190611f5d9291906120d4565b505050507f380fc6701688aa99b3b52cafad974633221d7c5d5100d0a1f5f30b5b861b54aa60068260405180806020018060200180602001848103845260098152602001807f4d6172726967616765000000000000000000000000000000000000000000000081525060200184810383528681815460018160011615610100020316600290048152602001915080546001816001161561010002031660029004801561204a5780601f1061201f5761010080835404028352916020019161204a565b820191906000526020600020905b81548152906001019060200180831161202d57829003601f168201915b5050848103825285818151815260200191508051906020019080838360005b83811015612084578082015181840152602081019050612069565b50505050905090810190601f1680156120b15780820380516001836020036101000a031916815260200191505b509550505050505060405180910390a150505050565b6000600880549050905090565b828054600181600116156101000203166002900490600052602060002090601f016020900481019282601f1061211557805160ff1916838001178555612143565b82800160010185558215612143579182015b82811115612142578251825591602001919060010190612127565b5b50905061215091906121d4565b5090565b828054600181600116156101000203166002900490600052602060002090601f016020900481019282601f1061219557805160ff19168380011785556121c3565b828001600101855582156121c3579182015b828111156121c25782518255916020019190600101906121a7565b5b5090506121d091906121d4565b5090565b6121f691905b808211156121f25760008160009055506001016121da565b5090565b905600a165627a7a72305820daf4564cf1a022b5136847074e5d1663a4a27252c22152c9f27863ceb039688d0029",
  "source": "/*\r\n * @source: etherscan.io \r\n * @author: -\r\n * @vulnerable_at_lines: 55\r\n */\r\n\r\npragma solidity ^0.4.16;\r\n\r\n/// @author Jordi Baylina\r\n/// Auditors: Griff Green & psdev\r\n/// @notice Based on http://hudsonjameson.com/ethereummarriage/\r\n/// License: GNU-3\r\n\r\n/// @dev `Owned` is a base level contract that assigns an `owner` that can be\r\n///  later changed\r\ncontract Owned {\r\n\r\n    /// @dev `owner` is the only address that can call a function with this\r\n    /// modifier\r\n    modifier onlyOwner() {\r\n        require(msg.sender == owner);\r\n        _;\r\n    }\r\n\r\n    address public owner;\r\n\r\n    /// @notice The Constructor assigns the message sender to be `owner`\r\n    function Owned() {\r\n        owner = msg.sender;\r\n    }\r\n\r\n    address public newOwner;\r\n\r\n    /// @notice `owner` can step down and assign some other address to this role\r\n    /// @param _newOwner The address of the new owner\r\n    ///  an unowned neutral vault, however that cannot be undone\r\n    function changeOwner(address _newOwner) onlyOwner {\r\n        newOwner = _newOwner;\r\n    }\r\n    /// @notice `newOwner` has to accept the ownership before it is transferred\r\n    ///  Any account or any contract with the ability to call `acceptOwnership`\r\n    ///  can be used to accept ownership of this contract, including a contract\r\n    ///  with no other functions\r\n    function acceptOwnership() {\r\n        if (msg.sender == newOwner) {\r\n            owner = newOwner;\r\n        }\r\n    }\r\n\r\n    // This is a general safty function that allows the owner to do a lot\r\n    //  of things in the unlikely event that something goes wrong\r\n    // _dst is the contract being called making this like a 1/1 multisig\r\n    function execute(address _dst, uint _value, bytes _data) onlyOwner {\r\n         // <yes> <report> UNCHECKED_LL_CALLS\r\n        _dst.call.value(_value)(_data);\r\n    }\r\n}\r\n\r\n\r\ncontract Marriage is Owned\r\n{\r\n    // Marriage data variables\r\n    string public partner1;\r\n    string public partner2;\r\n    uint public marriageDate;\r\n    string public marriageStatus;\r\n    string public vows;\r\n\r\n    Event[] public majorEvents;\r\n    Message[] public messages;\r\n\r\n    struct Event {\r\n        uint date;\r\n        string name;\r\n        string description;\r\n        string url;\r\n    }\r\n\r\n    struct Message {\r\n        uint date;\r\n        string nameFrom;\r\n        string text;\r\n        string url;\r\n        uint value;\r\n    }\r\n\r\n    modifier areMarried {\r\n        require(sha3(marriageStatus) == sha3(\"Married\"));\r\n        _;\r\n    }\r\n\r\n    //Set Owner\r\n    function Marriage(address _owner) {\r\n        owner = _owner;\r\n    }\r\n\r\n    function numberOfMajorEvents() constant public returns (uint) {\r\n        return majorEvents.length;\r\n    }\r\n\r\n    function numberOfMessages() constant public returns (uint) {\r\n        return messages.length;\r\n    }\r\n\r\n    // Create initial marriage contract\r\n    function createMarriage(\r\n        string _partner1,\r\n        string _partner2,\r\n        string _vows,\r\n        string url) onlyOwner\r\n    {\r\n        require(majorEvents.length == 0);\r\n        partner1 = _partner1;\r\n        partner2 = _partner2;\r\n        marriageDate = now;\r\n        vows = _vows;\r\n        marriageStatus = \"Married\";\r\n        majorEvents.push(Event(now, \"Marriage\", vows, url));\r\n        MajorEvent(\"Marrigage\", vows, url);\r\n    }\r\n\r\n    // Set the marriage status if it changes\r\n    function setStatus(string status, string url) onlyOwner\r\n    {\r\n        marriageStatus = status;\r\n        setMajorEvent(\"Changed Status\", status, url);\r\n    }\r\n\r\n    // Set the IPFS hash of the image of the couple\r\n    function setMajorEvent(string name, string description, string url) onlyOwner areMarried\r\n    {\r\n        majorEvents.push(Event(now, name, description, url));\r\n        MajorEvent(name, description, url);\r\n    }\r\n\r\n    function sendMessage(string nameFrom, string text, string url) payable areMarried {\r\n        if (msg.value > 0) {\r\n            owner.transfer(this.balance);\r\n        }\r\n        messages.push(Message(now, nameFrom, text, url, msg.value));\r\n        MessageSent(nameFrom, text, url, msg.value);\r\n    }\r\n\r\n\r\n    // Declare event structure\r\n    event MajorEvent(string name, string description, string url);\r\n    event MessageSent(string name, string description, string url, uint value);\r\n}",
  "sourcePath": "/workdir/truffle_example/before/0x958a8f594101d2c0485a52319f29b2647f2ebc06/contracts/0x958a8f594101d2c0485a52319f29b2647f2ebc06.sol",
  "compiler": {
    "name": "solc",
    "version": "0.4.25+commit.59dbf8f1.Emscripten.clang"
  },
  "schemaVersion": "3.4.8",
  "updatedAt": "2023-06-06T10:54:41.931Z",
  "networkType": "ethereum",
  "devdoc": {
    "methods": {}
  },
  "userdoc": {
    "methods": {
      "acceptOwnership()": {
        "notice": "with no other functions"
      },
      "changeOwner(address)": {
        "notice": "an unowned neutral vault, however that cannot be undone"
      }
    }
  }
}