{
  "contractName": "Owned",
  "abi": [
    {
      "constant": true,
      "inputs": [],
      "name": "owner",
      "outputs": [
        {
          "name": "",
          "type": "address"
        }
      ],
      "payable": false,
      "stateMutability": "view",
      "type": "function"
    },
    {
      "constant": true,
      "inputs": [],
      "name": "newOwner",
      "outputs": [
        {
          "name": "",
          "type": "address"
        }
      ],
      "payable": false,
      "stateMutability": "view",
      "type": "function"
    },
    {
      "inputs": [],
      "payable": false,
      "stateMutability": "nonpayable",
      "type": "constructor"
    },
    {
      "constant": false,
      "inputs": [
        {
          "name": "_newOwner",
          "type": "address"
        }
      ],
      "name": "changeOwner",
      "outputs": [],
      "payable": false,
      "stateMutability": "nonpayable",
      "type": "function"
    },
    {
      "constant": false,
      "inputs": [],
      "name": "acceptOwnership",
      "outputs": [],
      "payable": false,
      "stateMutability": "nonpayable",
      "type": "function"
    },
    {
      "constant": false,
      "inputs": [
        {
          "name": "_dst",
          "type": "address"
        },
        {
          "name": "_value",
          "type": "uint256"
        },
        {
          "name": "_data",
          "type": "bytes"
        }
      ],
      "name": "execute",
      "outputs": [],
      "payable": false,
      "stateMutability": "nonpayable",
      "type": "function"
    }
  ],
  "bytecode": "0x608060405234801561001057600080fd5b50336000806101000a81548173ffffffffffffffffffffffffffffffffffffffff021916908373ffffffffffffffffffffffffffffffffffffffff1602179055506104c7806100606000396000f30060806040526004361061006d576000357c0100000000000000000000000000000000000000000000000000000000900463ffffffff16806379ba5097146100725780638da5cb5b14610089578063a6f9dae1146100e0578063b61d27f614610123578063d4ee1d90146101b6575b600080fd5b34801561007e57600080fd5b5061008761020d565b005b34801561009557600080fd5b5061009e6102c8565b604051808273ffffffffffffffffffffffffffffffffffffffff1673ffffffffffffffffffffffffffffffffffffffff16815260200191505060405180910390f35b3480156100ec57600080fd5b50610121600480360381019080803573ffffffffffffffffffffffffffffffffffffffff1690602001909291905050506102ed565b005b34801561012f57600080fd5b506101b4600480360381019080803573ffffffffffffffffffffffffffffffffffffffff16906020019092919080359060200190929190803590602001908201803590602001908080601f016020809104026020016040519081016040528093929190818152602001838380828437820191505050505050919291929050505061038c565b005b3480156101c257600080fd5b506101cb610475565b604051808273ffffffffffffffffffffffffffffffffffffffff1673ffffffffffffffffffffffffffffffffffffffff16815260200191505060405180910390f35b600160009054906101000a900473ffffffffffffffffffffffffffffffffffffffff1673ffffffffffffffffffffffffffffffffffffffff163373ffffffffffffffffffffffffffffffffffffffff1614156102c657600160009054906101000a900473ffffffffffffffffffffffffffffffffffffffff166000806101000a81548173ffffffffffffffffffffffffffffffffffffffff021916908373ffffffffffffffffffffffffffffffffffffffff1602179055505b565b6000809054906101000a900473ffffffffffffffffffffffffffffffffffffffff1681565b6000809054906101000a900473ffffffffffffffffffffffffffffffffffffffff1673ffffffffffffffffffffffffffffffffffffffff163373ffffffffffffffffffffffffffffffffffffffff1614151561034857600080fd5b80600160006101000a81548173ffffffffffffffffffffffffffffffffffffffff021916908373ffffffffffffffffffffffffffffffffffffffff16021790555050565b6000809054906101000a900473ffffffffffffffffffffffffffffffffffffffff1673ffffffffffffffffffffffffffffffffffffffff163373ffffffffffffffffffffffffffffffffffffffff161415156103e757600080fd5b8273ffffffffffffffffffffffffffffffffffffffff16828260405180828051906020019080838360005b8381101561042d578082015181840152602081019050610412565b50505050905090810190601f16801561045a5780820380516001836020036101000a031916815260200191505b5091505060006040518083038185875af19250505050505050565b600160009054906101000a900473ffffffffffffffffffffffffffffffffffffffff16815600a165627a7a7230582054109a6612bd929c04270f9e46576fb2fbd88090e0410b456611edabfd8a12070029",
  "source": "/*\r\n * @source: etherscan.io \r\n * @author: -\r\n * @vulnerable_at_lines: 55\r\n */\r\n\r\npragma solidity ^0.4.16;\r\n\r\n/// @author Jordi Baylina\r\n/// Auditors: Griff Green & psdev\r\n/// @notice Based on http://hudsonjameson.com/ethereummarriage/\r\n/// License: GNU-3\r\n\r\n/// @dev `Owned` is a base level contract that assigns an `owner` that can be\r\n///  later changed\r\ncontract Owned {\r\n\r\n    /// @dev `owner` is the only address that can call a function with this\r\n    /// modifier\r\n    modifier onlyOwner() {\r\n        require(msg.sender == owner);\r\n        _;\r\n    }\r\n\r\n    address public owner;\r\n\r\n    /// @notice The Constructor assigns the message sender to be `owner`\r\n    function Owned() {\r\n        owner = msg.sender;\r\n    }\r\n\r\n    address public newOwner;\r\n\r\n    /// @notice `owner` can step down and assign some other address to this role\r\n    /// @param _newOwner The address of the new owner\r\n    ///  an unowned neutral vault, however that cannot be undone\r\n    function changeOwner(address _newOwner) onlyOwner {\r\n        newOwner = _newOwner;\r\n    }\r\n    /// @notice `newOwner` has to accept the ownership before it is transferred\r\n    ///  Any account or any contract with the ability to call `acceptOwnership`\r\n    ///  can be used to accept ownership of this contract, including a contract\r\n    ///  with no other functions\r\n    function acceptOwnership() {\r\n        if (msg.sender == newOwner) {\r\n            owner = newOwner;\r\n        }\r\n    }\r\n\r\n    // This is a general safty function that allows the owner to do a lot\r\n    //  of things in the unlikely event that something goes wrong\r\n    // _dst is the contract being called making this like a 1/1 multisig\r\n    function execute(address _dst, uint _value, bytes _data) onlyOwner {\r\n         // <yes> <report> UNCHECKED_LL_CALLS\r\n        _dst.call.value(_value)(_data);\r\n    }\r\n}\r\n\r\n\r\ncontract Marriage is Owned\r\n{\r\n    // Marriage data variables\r\n    string public partner1;\r\n    string public partner2;\r\n    uint public marriageDate;\r\n    string public marriageStatus;\r\n    string public vows;\r\n\r\n    Event[] public majorEvents;\r\n    Message[] public messages;\r\n\r\n    struct Event {\r\n        uint date;\r\n        string name;\r\n        string description;\r\n        string url;\r\n    }\r\n\r\n    struct Message {\r\n        uint date;\r\n        string nameFrom;\r\n        string text;\r\n        string url;\r\n        uint value;\r\n    }\r\n\r\n    modifier areMarried {\r\n        require(sha3(marriageStatus) == sha3(\"Married\"));\r\n        _;\r\n    }\r\n\r\n    //Set Owner\r\n    function Marriage(address _owner) {\r\n        owner = _owner;\r\n    }\r\n\r\n    function numberOfMajorEvents() constant public returns (uint) {\r\n        return majorEvents.length;\r\n    }\r\n\r\n    function numberOfMessages() constant public returns (uint) {\r\n        return messages.length;\r\n    }\r\n\r\n    // Create initial marriage contract\r\n    function createMarriage(\r\n        string _partner1,\r\n        string _partner2,\r\n        string _vows,\r\n        string url) onlyOwner\r\n    {\r\n        require(majorEvents.length == 0);\r\n        partner1 = _partner1;\r\n        partner2 = _partner2;\r\n        marriageDate = now;\r\n        vows = _vows;\r\n        marriageStatus = \"Married\";\r\n        majorEvents.push(Event(now, \"Marriage\", vows, url));\r\n        MajorEvent(\"Marrigage\", vows, url);\r\n    }\r\n\r\n    // Set the marriage status if it changes\r\n    function setStatus(string status, string url) onlyOwner\r\n    {\r\n        marriageStatus = status;\r\n        setMajorEvent(\"Changed Status\", status, url);\r\n    }\r\n\r\n    // Set the IPFS hash of the image of the couple\r\n    function setMajorEvent(string name, string description, string url) onlyOwner areMarried\r\n    {\r\n        majorEvents.push(Event(now, name, description, url));\r\n        MajorEvent(name, description, url);\r\n    }\r\n\r\n    function sendMessage(string nameFrom, string text, string url) payable areMarried {\r\n        if (msg.value > 0) {\r\n            owner.transfer(this.balance);\r\n        }\r\n        messages.push(Message(now, nameFrom, text, url, msg.value));\r\n        MessageSent(nameFrom, text, url, msg.value);\r\n    }\r\n\r\n\r\n    // Declare event structure\r\n    event MajorEvent(string name, string description, string url);\r\n    event MessageSent(string name, string description, string url, uint value);\r\n}",
  "sourcePath": "/workdir/truffle_example/before/0x958a8f594101d2c0485a52319f29b2647f2ebc06/contracts/0x958a8f594101d2c0485a52319f29b2647f2ebc06.sol",
  "compiler": {
    "name": "solc",
    "version": "0.4.25+commit.59dbf8f1.Emscripten.clang"
  },
  "schemaVersion": "3.4.8",
  "updatedAt": "2023-06-06T10:54:31.418Z",
  "devdoc": {
    "methods": {}
  },
  "userdoc": {
    "methods": {
      "acceptOwnership()": {
        "notice": "with no other functions"
      },
      "changeOwner(address)": {
        "notice": "an unowned neutral vault, however that cannot be undone"
      }
    }
  }
}