{
  "contractName": "Play2LivePromo",
  "abi": [
    {
      "constant": true,
      "inputs": [],
      "name": "name",
      "outputs": [
        {
          "name": "",
          "type": "string"
        }
      ],
      "payable": false,
      "stateMutability": "view",
      "type": "function"
    },
    {
      "constant": true,
      "inputs": [],
      "name": "totalSupply",
      "outputs": [
        {
          "name": "",
          "type": "uint256"
        }
      ],
      "payable": false,
      "stateMutability": "view",
      "type": "function"
    },
    {
      "constant": true,
      "inputs": [],
      "name": "decimals",
      "outputs": [
        {
          "name": "",
          "type": "uint8"
        }
      ],
      "payable": false,
      "stateMutability": "view",
      "type": "function"
    },
    {
      "constant": true,
      "inputs": [],
      "name": "owner",
      "outputs": [
        {
          "name": "",
          "type": "address"
        }
      ],
      "payable": false,
      "stateMutability": "view",
      "type": "function"
    },
    {
      "constant": true,
      "inputs": [],
      "name": "symbol",
      "outputs": [
        {
          "name": "",
          "type": "string"
        }
      ],
      "payable": false,
      "stateMutability": "view",
      "type": "function"
    },
    {
      "inputs": [],
      "payable": false,
      "stateMutability": "nonpayable",
      "type": "constructor"
    },
    {
      "anonymous": false,
      "inputs": [
        {
          "indexed": false,
          "name": "_from",
          "type": "address"
        },
        {
          "indexed": false,
          "name": "_to",
          "type": "address"
        },
        {
          "indexed": false,
          "name": "amount",
          "type": "uint256"
        }
      ],
      "name": "Transfer",
      "type": "event"
    },
    {
      "anonymous": false,
      "inputs": [
        {
          "indexed": true,
          "name": "_owner",
          "type": "address"
        },
        {
          "indexed": true,
          "name": "_spender",
          "type": "address"
        },
        {
          "indexed": false,
          "name": "_value",
          "type": "uint256"
        }
      ],
      "name": "Approval",
      "type": "event"
    },
    {
      "constant": false,
      "inputs": [
        {
          "name": "_newValue",
          "type": "uint256"
        }
      ],
      "name": "setPromo",
      "outputs": [],
      "payable": false,
      "stateMutability": "nonpayable",
      "type": "function"
    },
    {
      "constant": true,
      "inputs": [
        {
          "name": "_investor",
          "type": "address"
        }
      ],
      "name": "balanceOf",
      "outputs": [
        {
          "name": "",
          "type": "uint256"
        }
      ],
      "payable": false,
      "stateMutability": "view",
      "type": "function"
    },
    {
      "constant": false,
      "inputs": [
        {
          "name": "_investor",
          "type": "address"
        }
      ],
      "name": "mintTokens",
      "outputs": [],
      "payable": false,
      "stateMutability": "nonpayable",
      "type": "function"
    },
    {
      "constant": false,
      "inputs": [
        {
          "name": "_to",
          "type": "address"
        },
        {
          "name": "_amount",
          "type": "uint256"
        }
      ],
      "name": "transfer",
      "outputs": [
        {
          "name": "",
          "type": "bool"
        }
      ],
      "payable": false,
      "stateMutability": "nonpayable",
      "type": "function"
    },
    {
      "constant": false,
      "inputs": [
        {
          "name": "_from",
          "type": "address"
        },
        {
          "name": "_to",
          "type": "address"
        },
        {
          "name": "_amount",
          "type": "uint256"
        }
      ],
      "name": "transferFrom",
      "outputs": [
        {
          "name": "",
          "type": "bool"
        }
      ],
      "payable": false,
      "stateMutability": "nonpayable",
      "type": "function"
    },
    {
      "constant": false,
      "inputs": [
        {
          "name": "_spender",
          "type": "address"
        },
        {
          "name": "_amount",
          "type": "uint256"
        }
      ],
      "name": "approve",
      "outputs": [
        {
          "name": "",
          "type": "bool"
        }
      ],
      "payable": false,
      "stateMutability": "nonpayable",
      "type": "function"
    },
    {
      "constant": true,
      "inputs": [
        {
          "name": "_owner",
          "type": "address"
        },
        {
          "name": "_spender",
          "type": "address"
        }
      ],
      "name": "allowance",
      "outputs": [
        {
          "name": "",
          "type": "uint256"
        }
      ],
      "payable": false,
      "stateMutability": "view",
      "type": "function"
    }
  ],
  "bytecode": "0x60806040526000600155682a1f0a87470e84000060025534801561002257600080fd5b50336000806101000a81548173ffffffffffffffffffffffffffffffffffffffff021916908373ffffffffffffffffffffffffffffffffffffffff160217905550610d30806100726000396000f3006080604052600436106100ba576000357c0100000000000000000000000000000000000000000000000000000000900463ffffffff16806306fdde03146100bf578063095ea7b31461014f57806318160ddd146101b457806323b872dd146101df5780632f67ac8714610264578063313ce5671461029157806370a08231146102c25780638da5cb5b1461031957806395d89b4114610370578063a9059cbb14610400578063bcfaa79d14610465578063dd62ed3e146104a8575b600080fd5b3480156100cb57600080fd5b506100d461051f565b6040518080602001828103825283818151815260200191508051906020019080838360005b838110156101145780820151818401526020810190506100f9565b50505050905090810190601f1680156101415780820380516001836020036101000a031916815260200191505b509250505060405180910390f35b34801561015b57600080fd5b5061019a600480360381019080803573ffffffffffffffffffffffffffffffffffffffff1690602001909291908035906020019092919050505061057f565b604051808215151515815260200191505060405180910390f35b3480156101c057600080fd5b506101c9610706565b6040518082815260200191505060405180910390f35b3480156101eb57600080fd5b5061024a600480360381019080803573ffffffffffffffffffffffffffffffffffffffff169060200190929190803573ffffffffffffffffffffffffffffffffffffffff1690602001909291908035906020019092919050505061070c565b604051808215151515815260200191505060405180910390f35b34801561027057600080fd5b5061028f600480360381019080803590602001909291905050506108dc565b005b34801561029d57600080fd5b506102a6610941565b604051808260ff1660ff16815260200191505060405180910390f35b3480156102ce57600080fd5b50610303600480360381019080803573ffffffffffffffffffffffffffffffffffffffff169060200190929190505050610946565b6040518082815260200191505060405180910390f35b34801561032557600080fd5b5061032e61098f565b604051808273ffffffffffffffffffffffffffffffffffffffff1673ffffffffffffffffffffffffffffffffffffffff16815260200191505060405180910390f35b34801561037c57600080fd5b506103856109b4565b6040518080602001828103825283818151815260200191508051906020019080838360005b838110156103c55780820151818401526020810190506103aa565b50505050905090810190601f1680156103f25780820380516001836020036101000a031916815260200191505b509250505060405180910390f35b34801561040c57600080fd5b5061044b600480360381019080803573ffffffffffffffffffffffffffffffffffffffff169060200190929190803590602001909291905050506109ed565b604051808215151515815260200191505060405180910390f35b34801561047157600080fd5b506104a6600480360381019080803573ffffffffffffffffffffffffffffffffffffffff169060200190929190505050610b32565b005b3480156104b457600080fd5b50610509600480360381019080803573ffffffffffffffffffffffffffffffffffffffff169060200190929190803573ffffffffffffffffffffffffffffffffffffffff169060200190929190505050610c7d565b6040518082815260200191505060405180910390f35b606060405190810160405280602481526020017f4c6576656c20557020436f696e204469616d6f6e64207c20706c6179326c697681526020017f652e696f0000000000000000000000000000000000000000000000000000000081525081565b60008082148061060b57506000600460003373ffffffffffffffffffffffffffffffffffffffff1673ffffffffffffffffffffffffffffffffffffffff16815260200190815260200160002060008573ffffffffffffffffffffffffffffffffffffffff1673ffffffffffffffffffffffffffffffffffffffff16815260200190815260200160002054145b151561061657600080fd5b81600460003373ffffffffffffffffffffffffffffffffffffffff1673ffffffffffffffffffffffffffffffffffffffff16815260200190815260200160002060008573ffffffffffffffffffffffffffffffffffffffff1673ffffffffffffffffffffffffffffffffffffffff168152602001908152602001600020819055508273ffffffffffffffffffffffffffffffffffffffff163373ffffffffffffffffffffffffffffffffffffffff167f8c5be1e5ebec7d5bd14f71427d1e84f3dd0314c0f7b2291e5b200ac8c7c3b925846040518082815260200191505060405180910390a36001905092915050565b60015481565b600081600360008673ffffffffffffffffffffffffffffffffffffffff1673ffffffffffffffffffffffffffffffffffffffff1681526020019081526020016000206000828254039250508190555081600460008673ffffffffffffffffffffffffffffffffffffffff1673ffffffffffffffffffffffffffffffffffffffff16815260200190815260200160002060003373ffffffffffffffffffffffffffffffffffffffff1673ffffffffffffffffffffffffffffffffffffffff1681526020019081526020016000206000828254039250508190555081600360008573ffffffffffffffffffffffffffffffffffffffff1673ffffffffffffffffffffffffffffffffffffffff168152602001908152602001600020600082825403925050819055507fddf252ad1be2c89b69c2b068fc378daa952ba7f163c4a11628f55a4df523b3ef848484604051808473ffffffffffffffffffffffffffffffffffffffff1673ffffffffffffffffffffffffffffffffffffffff1681526020018373ffffffffffffffffffffffffffffffffffffffff1673ffffffffffffffffffffffffffffffffffffffff168152602001828152602001935050505060405180910390a1600190509392505050565b6000809054906101000a900473ffffffffffffffffffffffffffffffffffffffff1673ffffffffffffffffffffffffffffffffffffffff163373ffffffffffffffffffffffffffffffffffffffff1614151561093757600080fd5b8060028190555050565b601281565b6000600360008373ffffffffffffffffffffffffffffffffffffffff1673ffffffffffffffffffffffffffffffffffffffff168152602001908152602001600020549050919050565b6000809054906101000a900473ffffffffffffffffffffffffffffffffffffffff1681565b6040805190810160405280600481526020017f4c5543440000000000000000000000000000000000000000000000000000000081525081565b600081600360003373ffffffffffffffffffffffffffffffffffffffff1673ffffffffffffffffffffffffffffffffffffffff1681526020019081526020016000206000828254039250508190555081600360008573ffffffffffffffffffffffffffffffffffffffff1673ffffffffffffffffffffffffffffffffffffffff168152602001908152602001600020600082825403925050819055507fddf252ad1be2c89b69c2b068fc378daa952ba7f163c4a11628f55a4df523b3ef338484604051808473ffffffffffffffffffffffffffffffffffffffff1673ffffffffffffffffffffffffffffffffffffffff1681526020018373ffffffffffffffffffffffffffffffffffffffff1673ffffffffffffffffffffffffffffffffffffffff168152602001828152602001935050505060405180910390a16001905092915050565b6000809054906101000a900473ffffffffffffffffffffffffffffffffffffffff1673ffffffffffffffffffffffffffffffffffffffff163373ffffffffffffffffffffffffffffffffffffffff16141515610b8d57600080fd5b600254600360008373ffffffffffffffffffffffffffffffffffffffff1673ffffffffffffffffffffffffffffffffffffffff168152602001908152602001600020600082825401925050819055506002546001600082825401925050819055507fddf252ad1be2c89b69c2b068fc378daa952ba7f163c4a11628f55a4df523b3ef600082600254604051808473ffffffffffffffffffffffffffffffffffffffff1681526020018373ffffffffffffffffffffffffffffffffffffffff1673ffffffffffffffffffffffffffffffffffffffff168152602001828152602001935050505060405180910390a150565b6000600460008473ffffffffffffffffffffffffffffffffffffffff1673ffffffffffffffffffffffffffffffffffffffff16815260200190815260200160002060008373ffffffffffffffffffffffffffffffffffffffff1673ffffffffffffffffffffffffffffffffffffffff168152602001908152602001600020549050929150505600a165627a7a72305820e3d68cb5e9b07455176142a00b59843312e4ecd9b1941bbd73c19627dbebc6670029",
  "source": "// Play2LivePromo token smart contract.\n// Developed by Phenom.Team <info@phenom.team>\n\npragma solidity ^0.4.18;\n\ncontract Play2LivePromo {\n    //Owner address\n    address public owner;\n    //Public variables of the token\n    string public constant name  = \"Level Up Coin Diamond | play2live.io\";\n    string public constant symbol = \"LUCD\";\n    uint8 public constant decimals = 18;\n    uint public totalSupply = 0; \n    uint256 promoValue = 777 * 1e18;\n    mapping(address => uint) balances;\n    mapping(address => mapping (address => uint)) allowed;\n    // Events Log\n    event Transfer(address _from, address _to, uint256 amount); \n    event Approval(address indexed _owner, address indexed _spender, uint _value);\n    // Modifiers\n    // Allows execution by the contract owner only\n    modifier onlyOwner {\n        require(msg.sender == owner);\n        _;\n    }  \n\n   /**\n    *   @dev Contract constructor function sets owner address\n    */\n    function Play2LivePromo() {\n        owner = msg.sender;\n    }\n\n    /**\n    *   @dev Allows owner to change promo value\n    *   @param _newValue      new   \n    */\n    function setPromo(uint256 _newValue) external onlyOwner {\n        promoValue = _newValue;\n    }\n\n   /**\n    *   @dev Get balance of investor\n    *   @param _investor     investor's address\n    *   @return              balance of investor\n    */\n    function balanceOf(address _investor) public constant returns(uint256) {\n        return balances[_investor];\n    }\n\n\n   /**\n    *   @dev Mint tokens\n    *   @param _investor     beneficiary address the tokens will be issued to\n    */\n    function mintTokens(address _investor) external onlyOwner {\n        balances[_investor] +=  promoValue;\n        totalSupply += promoValue;\n        Transfer(0x0, _investor, promoValue);\n        \n    }\n\n\n   /**\n    *   @dev Send coins\n    *   throws on any error rather then return a false flag to minimize\n    *   user errors\n    *   @param _to           target address\n    *   @param _amount       transfer amount\n    *\n    *   @return true if the transfer was successful\n    */\n    function transfer(address _to, uint _amount) public returns (bool) {\n        balances[msg.sender] -= _amount;\n        balances[_to] -= _amount;\n        Transfer(msg.sender, _to, _amount);\n        return true;\n    }\n\n   /**\n    *   @dev An account/contract attempts to get the coins\n    *   throws on any error rather then return a false flag to minimize user errors\n    *\n    *   @param _from         source address\n    *   @param _to           target address\n    *   @param _amount       transfer amount\n    *\n    *   @return true if the transfer was successful\n    */\n    function transferFrom(address _from, address _to, uint _amount) public returns (bool) {\n        balances[_from] -= _amount;\n        allowed[_from][msg.sender] -= _amount;\n        balances[_to] -= _amount;\n        Transfer(_from, _to, _amount);\n        return true;\n     }\n\n\n   /**\n    *   @dev Allows another account/contract to spend some tokens on its behalf\n    *   throws on any error rather then return a false flag to minimize user errors\n    *\n    *   also, to minimize the risk of the approve/transferFrom attack vector\n    *   approve has to be called twice in 2 separate transactions - once to\n    *   change the allowance to 0 and secondly to change it to the new allowance\n    *   value\n    *\n    *   @param _spender      approved address\n    *   @param _amount       allowance amount\n    *\n    *   @return true if the approval was successful\n    */\n    function approve(address _spender, uint _amount) public returns (bool) {\n        require((_amount == 0) || (allowed[msg.sender][_spender] == 0));\n        allowed[msg.sender][_spender] = _amount;\n        Approval(msg.sender, _spender, _amount);\n        return true;\n    }\n\n   /**\n    *   @dev Function to check the amount of tokens that an owner allowed to a spender.\n    *\n    *   @param _owner        the address which owns the funds\n    *   @param _spender      the address which will spend the funds\n    *\n    *   @return              the amount of tokens still avaible for the spender\n    */\n    function allowance(address _owner, address _spender) constant returns (uint) {\n        return allowed[_owner][_spender];\n    }\n}\n",
  "sourcePath": "/workdir/truffle_example/0x1C65557B72804569BcD25cE53575A9C712e2Eff5/contracts/0x1C65557B72804569BcD25cE53575A9C712e2Eff5.sol",
  "compiler": {
    "name": "solc",
    "version": "0.4.25+commit.59dbf8f1.Emscripten.clang"
  },
  "schemaVersion": "3.4.8",
  "updatedAt": "2022-08-11T03:36:31.179Z",
  "networkType": "ethereum",
  "devdoc": {
    "methods": {
      "allowance(address,address)": {
        "details": "Function to check the amount of tokens that an owner allowed to a spender.",
        "params": {
          "_owner": "the address which owns the funds",
          "_spender": "the address which will spend the funds"
        },
        "return": "the amount of tokens still avaible for the spender"
      },
      "approve(address,uint256)": {
        "details": "Allows another account/contract to spend some tokens on its behalf  throws on any error rather then return a false flag to minimize user errors    *   also, to minimize the risk of the approve/transferFrom attack vector  approve has to be called twice in 2 separate transactions - once to  change the allowance to 0 and secondly to change it to the new allowance  value",
        "params": {
          "_amount": "allowance amount",
          "_spender": "approved address"
        },
        "return": "true if the approval was successful"
      },
      "balanceOf(address)": {
        "details": "Get balance of investor",
        "params": {
          "_investor": "investor's address"
        },
        "return": "balance of investor"
      },
      "mintTokens(address)": {
        "details": "Mint tokens",
        "params": {
          "_investor": "beneficiary address the tokens will be issued to"
        }
      },
      "setPromo(uint256)": {
        "details": "Allows owner to change promo value",
        "params": {
          "_newValue": "new   "
        }
      },
      "transfer(address,uint256)": {
        "details": "Send coins  throws on any error rather then return a false flag to minimize  user errors",
        "params": {
          "_amount": "transfer amount",
          "_to": "target address"
        },
        "return": "true if the transfer was successful"
      },
      "transferFrom(address,address,uint256)": {
        "details": "An account/contract attempts to get the coins  throws on any error rather then return a false flag to minimize user errors",
        "params": {
          "_amount": "transfer amount",
          "_from": "source address",
          "_to": "target address"
        },
        "return": "true if the transfer was successful"
      }
    }
  },
  "userdoc": {
    "methods": {}
  }
}