{
  "contractName": "OKOToken",
  "abi": [
    {
      "constant": true,
      "inputs": [],
      "name": "name",
      "outputs": [
        {
          "name": "",
          "type": "string"
        }
      ],
      "payable": false,
      "stateMutability": "view",
      "type": "function"
    },
    {
      "constant": false,
      "inputs": [
        {
          "name": "_spender",
          "type": "address"
        },
        {
          "name": "_value",
          "type": "uint256"
        }
      ],
      "name": "approve",
      "outputs": [
        {
          "name": "success",
          "type": "bool"
        }
      ],
      "payable": false,
      "stateMutability": "nonpayable",
      "type": "function"
    },
    {
      "constant": true,
      "inputs": [],
      "name": "totalSupply",
      "outputs": [
        {
          "name": "",
          "type": "uint256"
        }
      ],
      "payable": false,
      "stateMutability": "view",
      "type": "function"
    },
    {
      "constant": false,
      "inputs": [
        {
          "name": "_from",
          "type": "address"
        },
        {
          "name": "_to",
          "type": "address"
        },
        {
          "name": "_value",
          "type": "uint256"
        }
      ],
      "name": "transferFrom",
      "outputs": [
        {
          "name": "success",
          "type": "bool"
        }
      ],
      "payable": false,
      "stateMutability": "nonpayable",
      "type": "function"
    },
    {
      "constant": true,
      "inputs": [],
      "name": "decimals",
      "outputs": [
        {
          "name": "",
          "type": "uint256"
        }
      ],
      "payable": false,
      "stateMutability": "view",
      "type": "function"
    },
    {
      "constant": true,
      "inputs": [
        {
          "name": "_owner",
          "type": "address"
        }
      ],
      "name": "balanceOf",
      "outputs": [
        {
          "name": "balance",
          "type": "uint256"
        }
      ],
      "payable": false,
      "stateMutability": "view",
      "type": "function"
    },
    {
      "constant": false,
      "inputs": [
        {
          "name": "_agent",
          "type": "address"
        }
      ],
      "name": "setMigrationAgent",
      "outputs": [],
      "payable": false,
      "stateMutability": "nonpayable",
      "type": "function"
    },
    {
      "constant": true,
      "inputs": [],
      "name": "migrationAgent",
      "outputs": [
        {
          "name": "",
          "type": "address"
        }
      ],
      "payable": false,
      "stateMutability": "view",
      "type": "function"
    },
    {
      "constant": true,
      "inputs": [],
      "name": "owner",
      "outputs": [
        {
          "name": "",
          "type": "address"
        }
      ],
      "payable": false,
      "stateMutability": "view",
      "type": "function"
    },
    {
      "constant": false,
      "inputs": [],
      "name": "migrate",
      "outputs": [],
      "payable": false,
      "stateMutability": "nonpayable",
      "type": "function"
    },
    {
      "constant": true,
      "inputs": [],
      "name": "symbol",
      "outputs": [
        {
          "name": "",
          "type": "string"
        }
      ],
      "payable": false,
      "stateMutability": "view",
      "type": "function"
    },
    {
      "constant": false,
      "inputs": [
        {
          "name": "_to",
          "type": "address"
        },
        {
          "name": "_value",
          "type": "uint256"
        }
      ],
      "name": "transfer",
      "outputs": [
        {
          "name": "success",
          "type": "bool"
        }
      ],
      "payable": false,
      "stateMutability": "nonpayable",
      "type": "function"
    },
    {
      "constant": false,
      "inputs": [
        {
          "name": "_spender",
          "type": "address"
        },
        {
          "name": "_addedValue",
          "type": "uint256"
        }
      ],
      "name": "addApproval",
      "outputs": [
        {
          "name": "success",
          "type": "bool"
        }
      ],
      "payable": false,
      "stateMutability": "nonpayable",
      "type": "function"
    },
    {
      "constant": true,
      "inputs": [],
      "name": "allTokenOwnerOnStart",
      "outputs": [
        {
          "name": "",
          "type": "address"
        }
      ],
      "payable": false,
      "stateMutability": "view",
      "type": "function"
    },
    {
      "constant": true,
      "inputs": [
        {
          "name": "_owner",
          "type": "address"
        },
        {
          "name": "_spender",
          "type": "address"
        }
      ],
      "name": "allowance",
      "outputs": [
        {
          "name": "remaining",
          "type": "uint256"
        }
      ],
      "payable": false,
      "stateMutability": "view",
      "type": "function"
    },
    {
      "constant": false,
      "inputs": [
        {
          "name": "_spender",
          "type": "address"
        },
        {
          "name": "_subtractedValue",
          "type": "uint256"
        }
      ],
      "name": "subApproval",
      "outputs": [
        {
          "name": "success",
          "type": "bool"
        }
      ],
      "payable": false,
      "stateMutability": "nonpayable",
      "type": "function"
    },
    {
      "constant": false,
      "inputs": [
        {
          "name": "newOwner",
          "type": "address"
        }
      ],
      "name": "transferOwnership",
      "outputs": [],
      "payable": false,
      "stateMutability": "nonpayable",
      "type": "function"
    },
    {
      "inputs": [],
      "payable": false,
      "stateMutability": "nonpayable",
      "type": "constructor"
    },
    {
      "payable": true,
      "stateMutability": "payable",
      "type": "fallback"
    },
    {
      "anonymous": false,
      "inputs": [
        {
          "indexed": true,
          "name": "to",
          "type": "address"
        },
        {
          "indexed": false,
          "name": "amount",
          "type": "uint256"
        }
      ],
      "name": "Mint",
      "type": "event"
    },
    {
      "anonymous": false,
      "inputs": [],
      "name": "MintFinished",
      "type": "event"
    },
    {
      "anonymous": false,
      "inputs": [
        {
          "indexed": true,
          "name": "from",
          "type": "address"
        },
        {
          "indexed": true,
          "name": "to",
          "type": "address"
        },
        {
          "indexed": false,
          "name": "value",
          "type": "uint256"
        }
      ],
      "name": "Upgrade",
      "type": "event"
    },
    {
      "anonymous": false,
      "inputs": [
        {
          "indexed": false,
          "name": "agent",
          "type": "address"
        }
      ],
      "name": "UpgradeAgentSet",
      "type": "event"
    },
    {
      "anonymous": false,
      "inputs": [
        {
          "indexed": true,
          "name": "from",
          "type": "address"
        },
        {
          "indexed": true,
          "name": "to",
          "type": "address"
        },
        {
          "indexed": false,
          "name": "value",
          "type": "uint256"
        }
      ],
      "name": "Transfer",
      "type": "event"
    },
    {
      "anonymous": false,
      "inputs": [
        {
          "indexed": true,
          "name": "owner",
          "type": "address"
        },
        {
          "indexed": true,
          "name": "spender",
          "type": "address"
        },
        {
          "indexed": false,
          "name": "value",
          "type": "uint256"
        }
      ],
      "name": "Approval",
      "type": "event"
    },
    {
      "anonymous": false,
      "inputs": [
        {
          "indexed": true,
          "name": "previousOwner",
          "type": "address"
        },
        {
          "indexed": true,
          "name": "newOwner",
          "type": "address"
        }
      ],
      "name": "OwnershipTransferred",
      "type": "event"
    }
  ],
  "bytecode": "0x608060405234801561001057600080fd5b5060008060006101000a81548160ff02191690831515021790555033600060016101000a81548173ffffffffffffffffffffffffffffffffffffffff021916908373ffffffffffffffffffffffffffffffffffffffff16021790555033600560006101000a81548173ffffffffffffffffffffffffffffffffffffffff021916908373ffffffffffffffffffffffffffffffffffffffff16021790555065da475abf000060018190555060015460026000600560009054906101000a900473ffffffffffffffffffffffffffffffffffffffff1673ffffffffffffffffffffffffffffffffffffffff1673ffffffffffffffffffffffffffffffffffffffff16815260200190815260200160002081905550600560009054906101000a900473ffffffffffffffffffffffffffffffffffffffff1673ffffffffffffffffffffffffffffffffffffffff167f0f6798a560793a54c3bcfe86a93cde1e73087d944c0ea20544137d41213968856001546040518082815260200191505060405180910390a2600560009054906101000a900473ffffffffffffffffffffffffffffffffffffffff1673ffffffffffffffffffffffffffffffffffffffff1660007fddf252ad1be2c89b69c2b068fc378daa952ba7f163c4a11628f55a4df523b3ef6001546040518082815260200191505060405180910390a37fae5184fba832cb2b1f702aca6117b8d265eaf03ad33eb133f19dde0f5920fa0860405160405180910390a16119ba806102436000396000f3006080604052600436106100f1576000357c0100000000000000000000000000000000000000000000000000000000900463ffffffff16806306fdde03146101d8578063095ea7b31461026857806318160ddd146102cd57806323b872dd146102f8578063313ce5671461037d57806370a08231146103a857806375e2ff65146103ff5780638328dbcd146104425780638da5cb5b146104995780638fd3ab80146104f057806395d89b4114610507578063a9059cbb14610597578063ac3cb72c146105fc578063d9520c9a14610661578063dd62ed3e146106b8578063e2301d021461072f578063f2fde38b14610794575b6000600460009054906101000a900473ffffffffffffffffffffffffffffffffffffffff1673ffffffffffffffffffffffffffffffffffffffff161415151561013957600080fd5b6000600260003373ffffffffffffffffffffffffffffffffffffffff1673ffffffffffffffffffffffffffffffffffffffff1681526020019081526020016000205411151561018757600080fd5b61018f6107d7565b3373ffffffffffffffffffffffffffffffffffffffff166108fc349081150290604051600060405180830381858888f193505050501580156101d5573d6000803e3d6000fd5b50005b3480156101e457600080fd5b506101ed610a67565b6040518080602001828103825283818151815260200191508051906020019080838360005b8381101561022d578082015181840152602081019050610212565b50505050905090810190601f16801561025a5780820380516001836020036101000a031916815260200191505b509250505060405180910390f35b34801561027457600080fd5b506102b3600480360381019080803573ffffffffffffffffffffffffffffffffffffffff16906020019092919080359060200190929190505050610aa0565b604051808215151515815260200191505060405180910390f35b3480156102d957600080fd5b506102e2610b92565b6040518082815260200191505060405180910390f35b34801561030457600080fd5b50610363600480360381019080803573ffffffffffffffffffffffffffffffffffffffff169060200190929190803573ffffffffffffffffffffffffffffffffffffffff16906020019092919080359060200190929190505050610b98565b604051808215151515815260200191505060405180910390f35b34801561038957600080fd5b50610392610e76565b6040518082815260200191505060405180910390f35b3480156103b457600080fd5b506103e9600480360381019080803573ffffffffffffffffffffffffffffffffffffffff169060200190929190505050610e7b565b6040518082815260200191505060405180910390f35b34801561040b57600080fd5b50610440600480360381019080803573ffffffffffffffffffffffffffffffffffffffff169060200190929190505050610ec4565b005b34801561044e57600080fd5b50610457610fc7565b604051808273ffffffffffffffffffffffffffffffffffffffff1673ffffffffffffffffffffffffffffffffffffffff16815260200191505060405180910390f35b3480156104a557600080fd5b506104ae610fed565b604051808273ffffffffffffffffffffffffffffffffffffffff1673ffffffffffffffffffffffffffffffffffffffff16815260200191505060405180910390f35b3480156104fc57600080fd5b506105056107d7565b005b34801561051357600080fd5b5061051c611013565b6040518080602001828103825283818151815260200191508051906020019080838360005b8381101561055c578082015181840152602081019050610541565b50505050905090810190601f1680156105895780820380516001836020036101000a031916815260200191505b509250505060405180910390f35b3480156105a357600080fd5b506105e2600480360381019080803573ffffffffffffffffffffffffffffffffffffffff1690602001909291908035906020019092919050505061104c565b604051808215151515815260200191505060405180910390f35b34801561060857600080fd5b50610647600480360381019080803573ffffffffffffffffffffffffffffffffffffffff16906020019092919080359060200190929190505050611227565b604051808215151515815260200191505060405180910390f35b34801561066d57600080fd5b50610676611437565b604051808273ffffffffffffffffffffffffffffffffffffffff1673ffffffffffffffffffffffffffffffffffffffff16815260200191505060405180910390f35b3480156106c457600080fd5b50610719600480360381019080803573ffffffffffffffffffffffffffffffffffffffff169060200190929190803573ffffffffffffffffffffffffffffffffffffffff16906020019092919050505061145d565b6040518082815260200191505060405180910390f35b34801561073b57600080fd5b5061077a600480360381019080803573ffffffffffffffffffffffffffffffffffffffff169060200190929190803590602001909291905050506114e4565b604051808215151515815260200191505060405180910390f35b3480156107a057600080fd5b506107d5600480360381019080803573ffffffffffffffffffffffffffffffffffffffff169060200190929190505050611784565b005b600080600460009054906101000a900473ffffffffffffffffffffffffffffffffffffffff1673ffffffffffffffffffffffffffffffffffffffff161415151561082057600080fd5b600260003373ffffffffffffffffffffffffffffffffffffffff1673ffffffffffffffffffffffffffffffffffffffff1681526020019081526020016000205490506108ab600260003373ffffffffffffffffffffffffffffffffffffffff1673ffffffffffffffffffffffffffffffffffffffff168152602001908152602001600020548261192b565b600260003373ffffffffffffffffffffffffffffffffffffffff1673ffffffffffffffffffffffffffffffffffffffff168152602001908152602001600020819055506108fa6001548261192b565b600181905550600460009054906101000a900473ffffffffffffffffffffffffffffffffffffffff1673ffffffffffffffffffffffffffffffffffffffff16637a3130e333836040518363ffffffff167c0100000000000000000000000000000000000000000000000000000000028152600401808373ffffffffffffffffffffffffffffffffffffffff1673ffffffffffffffffffffffffffffffffffffffff16815260200182815260200192505050600060405180830381600087803b1580156109c557600080fd5b505af11580156109d9573d6000803e3d6000fd5b50505050600460009054906101000a900473ffffffffffffffffffffffffffffffffffffffff1673ffffffffffffffffffffffffffffffffffffffff163373ffffffffffffffffffffffffffffffffffffffff167f7e5c344a8141a805725cb476f76c6953b842222b967edd1f78ddb6e8b3f397ac836040518082815260200191505060405180910390a350565b6040805190810160405280600581526020017f4f4b4f494e00000000000000000000000000000000000000000000000000000081525081565b600081600360003373ffffffffffffffffffffffffffffffffffffffff1673ffffffffffffffffffffffffffffffffffffffff16815260200190815260200160002060008573ffffffffffffffffffffffffffffffffffffffff1673ffffffffffffffffffffffffffffffffffffffff168152602001908152602001600020819055508273ffffffffffffffffffffffffffffffffffffffff163373ffffffffffffffffffffffffffffffffffffffff167f8c5be1e5ebec7d5bd14f71427d1e84f3dd0314c0f7b2291e5b200ac8c7c3b925846040518082815260200191505060405180910390a36001905092915050565b60015481565b6000806000808573ffffffffffffffffffffffffffffffffffffffff1614151515610bc257600080fd5b600360008773ffffffffffffffffffffffffffffffffffffffff1673ffffffffffffffffffffffffffffffffffffffff16815260200190815260200160002060003373ffffffffffffffffffffffffffffffffffffffff1673ffffffffffffffffffffffffffffffffffffffff168152602001908152602001600020549150600260008773ffffffffffffffffffffffffffffffffffffffff1673ffffffffffffffffffffffffffffffffffffffff168152602001908152602001600020549050808411151515610c9257600080fd5b818411151515610ca157600080fd5b610cea600260008773ffffffffffffffffffffffffffffffffffffffff1673ffffffffffffffffffffffffffffffffffffffff168152602001908152602001600020548561194b565b600260008773ffffffffffffffffffffffffffffffffffffffff1673ffffffffffffffffffffffffffffffffffffffff16815260200190815260200160002081905550610d37818561192b565b600260008873ffffffffffffffffffffffffffffffffffffffff1673ffffffffffffffffffffffffffffffffffffffff16815260200190815260200160002081905550610d84828561192b565b600360008873ffffffffffffffffffffffffffffffffffffffff1673ffffffffffffffffffffffffffffffffffffffff16815260200190815260200160002060003373ffffffffffffffffffffffffffffffffffffffff1673ffffffffffffffffffffffffffffffffffffffff168152602001908152602001600020819055508473ffffffffffffffffffffffffffffffffffffffff168673ffffffffffffffffffffffffffffffffffffffff167fddf252ad1be2c89b69c2b068fc378daa952ba7f163c4a11628f55a4df523b3ef866040518082815260200191505060405180910390a36001925050509392505050565b600681565b6000600260008373ffffffffffffffffffffffffffffffffffffffff1673ffffffffffffffffffffffffffffffffffffffff168152602001908152602001600020549050919050565b600060019054906101000a900473ffffffffffffffffffffffffffffffffffffffff1673ffffffffffffffffffffffffffffffffffffffff163373ffffffffffffffffffffffffffffffffffffffff16141515610f2057600080fd5b80600460006101000a81548173ffffffffffffffffffffffffffffffffffffffff021916908373ffffffffffffffffffffffffffffffffffffffff1602179055507f7845d5aa74cc410e35571258d954f23b82276e160fe8c188fa80566580f279cc81604051808273ffffffffffffffffffffffffffffffffffffffff1673ffffffffffffffffffffffffffffffffffffffff16815260200191505060405180910390a150565b600460009054906101000a900473ffffffffffffffffffffffffffffffffffffffff1681565b600060019054906101000a900473ffffffffffffffffffffffffffffffffffffffff1681565b6040805190810160405280600381526020017f4f4b4f000000000000000000000000000000000000000000000000000000000081525081565b600080604060048101600036905014151561106657600080fd5b60008573ffffffffffffffffffffffffffffffffffffffff161415151561108c57600080fd5b600260003373ffffffffffffffffffffffffffffffffffffffff1673ffffffffffffffffffffffffffffffffffffffff1681526020019081526020016000205491508184111515156110dd57600080fd5b6110e7828561192b565b600260003373ffffffffffffffffffffffffffffffffffffffff1673ffffffffffffffffffffffffffffffffffffffff16815260200190815260200160002081905550611173600260008773ffffffffffffffffffffffffffffffffffffffff1673ffffffffffffffffffffffffffffffffffffffff168152602001908152602001600020548561194b565b600260008773ffffffffffffffffffffffffffffffffffffffff1673ffffffffffffffffffffffffffffffffffffffff168152602001908152602001600020819055508473ffffffffffffffffffffffffffffffffffffffff163373ffffffffffffffffffffffffffffffffffffffff167fddf252ad1be2c89b69c2b068fc378daa952ba7f163c4a11628f55a4df523b3ef866040518082815260200191505060405180910390a360019250505092915050565b600080604060048101600036905014151561124157600080fd5b600360003373ffffffffffffffffffffffffffffffffffffffff1673ffffffffffffffffffffffffffffffffffffffff16815260200190815260200160002060008673ffffffffffffffffffffffffffffffffffffffff1673ffffffffffffffffffffffffffffffffffffffff1681526020019081526020016000205491506112ca828561194b565b600360003373ffffffffffffffffffffffffffffffffffffffff1673ffffffffffffffffffffffffffffffffffffffff16815260200190815260200160002060008773ffffffffffffffffffffffffffffffffffffffff1673ffffffffffffffffffffffffffffffffffffffff168152602001908152602001600020819055508473ffffffffffffffffffffffffffffffffffffffff163373ffffffffffffffffffffffffffffffffffffffff167f8c5be1e5ebec7d5bd14f71427d1e84f3dd0314c0f7b2291e5b200ac8c7c3b925600360003373ffffffffffffffffffffffffffffffffffffffff1673ffffffffffffffffffffffffffffffffffffffff16815260200190815260200160002060008973ffffffffffffffffffffffffffffffffffffffff1673ffffffffffffffffffffffffffffffffffffffff168152602001908152602001600020546040518082815260200191505060405180910390a360019250505092915050565b600560009054906101000a900473ffffffffffffffffffffffffffffffffffffffff1681565b6000600360008473ffffffffffffffffffffffffffffffffffffffff1673ffffffffffffffffffffffffffffffffffffffff16815260200190815260200160002060008373ffffffffffffffffffffffffffffffffffffffff1673ffffffffffffffffffffffffffffffffffffffff16815260200190815260200160002054905092915050565b60008060406004810160003690501415156114fe57600080fd5b600360003373ffffffffffffffffffffffffffffffffffffffff1673ffffffffffffffffffffffffffffffffffffffff16815260200190815260200160002060008673ffffffffffffffffffffffffffffffffffffffff1673ffffffffffffffffffffffffffffffffffffffff1681526020019081526020016000205491508184111561160c576000600360003373ffffffffffffffffffffffffffffffffffffffff1673ffffffffffffffffffffffffffffffffffffffff16815260200190815260200160002060008773ffffffffffffffffffffffffffffffffffffffff1673ffffffffffffffffffffffffffffffffffffffff16815260200190815260200160002081905550611697565b611616828561192b565b600360003373ffffffffffffffffffffffffffffffffffffffff1673ffffffffffffffffffffffffffffffffffffffff16815260200190815260200160002060008773ffffffffffffffffffffffffffffffffffffffff1673ffffffffffffffffffffffffffffffffffffffff168152602001908152602001600020819055505b8473ffffffffffffffffffffffffffffffffffffffff163373ffffffffffffffffffffffffffffffffffffffff167f8c5be1e5ebec7d5bd14f71427d1e84f3dd0314c0f7b2291e5b200ac8c7c3b925600360003373ffffffffffffffffffffffffffffffffffffffff1673ffffffffffffffffffffffffffffffffffffffff16815260200190815260200160002060008973ffffffffffffffffffffffffffffffffffffffff1673ffffffffffffffffffffffffffffffffffffffff168152602001908152602001600020546040518082815260200191505060405180910390a360019250505092915050565b6000809054906101000a900460ff1615151561179f57600080fd5b60016000806101000a81548160ff021916908315150217905550600060019054906101000a900473ffffffffffffffffffffffffffffffffffffffff1673ffffffffffffffffffffffffffffffffffffffff163373ffffffffffffffffffffffffffffffffffffffff1614151561181557600080fd5b600073ffffffffffffffffffffffffffffffffffffffff168173ffffffffffffffffffffffffffffffffffffffff161415151561185157600080fd5b8073ffffffffffffffffffffffffffffffffffffffff16600060019054906101000a900473ffffffffffffffffffffffffffffffffffffffff1673ffffffffffffffffffffffffffffffffffffffff167f8be0079c531659141344cd1fd0a4f28419497f9722a3daafe3b4186f6b6457e060405160405180910390a380600060016101000a81548173ffffffffffffffffffffffffffffffffffffffff021916908373ffffffffffffffffffffffffffffffffffffffff16021790555060008060006101000a81548160ff02191690831515021790555050565b600082821115151561193957fe5b6119438383611975565b905092915050565b60008082840190508381101580156119635750828110155b151561196b57fe5b8091505092915050565b600082821115151561198357fe5b8183039050929150505600a165627a7a72305820cfb4b58596d6822f45ad103f171ce52c2f4fb8e09abf610d7135c01519d966870029",
  "source": "contract sGuard {\r\n    function sub_uint256(uint256 a, uint256 b) internal pure returns (uint256) {\r\n        assert(b <= a);\r\n        return a - b;\r\n    }\r\n\r\n    function div_uint256(uint256 a, uint256 b) internal pure returns (uint256) {\r\n        uint256 c = a / b;\r\n        return c;\r\n    }\r\n\r\n    function add_uint256(uint256 a, uint256 b) internal pure returns (uint256) {\r\n        uint256 c = a + b;\r\n        assert(c >= a);\r\n        return c;\r\n    }\r\n\r\n    function mul_uint256(uint256 a, uint256 b) internal pure returns (uint256) {\r\n        if (a == 0) {\r\n            return 0;\r\n        }\r\n        uint256 c = a * b;\r\n        assert(c / a == b);\r\n        return c;\r\n    }\r\n\r\n    bool internal locked_;\r\n\r\n    constructor() internal {\r\n        locked_ = false;\r\n    }\r\n\r\n    modifier nonReentrant_() {\r\n        require(!locked_);\r\n        locked_ = true;\r\n        _;\r\n        locked_ = false;\r\n    }\r\n}\r\n/**\r\n *Submitted for verification at Etherscan.io on 2018-01-24\r\n */\r\n\r\npragma solidity ^0.4.19;\r\n\r\n/**\r\n * Math operations with safety checks\r\n */\r\ncontract SafeMath is sGuard {\r\n    function safeMul(uint256 a, uint256 b) internal pure returns (uint256) {\r\n        uint256 c = a * b;\r\n        assert(a == 0 || c / a == b);\r\n        return c;\r\n    }\r\n\r\n    function safeDiv(uint256 a, uint256 b) internal pure returns (uint256) {\r\n        assert(b > 0);\r\n        uint256 c = div_uint256(a, b);\r\n        assert(a == add_uint256(mul_uint256(b, c), a % b));\r\n        return c;\r\n    }\r\n\r\n    function safeSub(uint256 a, uint256 b) internal pure returns (uint256) {\r\n        assert(b <= a);\r\n        return sub_uint256(a, b);\r\n    }\r\n\r\n    function safeAdd(uint256 a, uint256 b) internal pure returns (uint256) {\r\n        uint256 c = a + b;\r\n        assert(c >= a && c >= b);\r\n        return c;\r\n    }\r\n}\r\n\r\n/**\r\n * Standard ERC20 token with Short Hand Attack and approve() race condition mitigation.\r\n *\r\n * Based on code by FirstBlood:\r\n * https://github.com/Firstbloodio/token/blob/master/smart_contract/FirstBloodToken.sol\r\n */\r\ncontract StandardToken is sGuard, SafeMath {\r\n    uint256 public totalSupply;\r\n\r\n    /* Actual balances of token holders */\r\n    mapping(address => uint256) balances;\r\n\r\n    /* approve() allowances */\r\n    mapping(address => mapping(address => uint256)) allowed;\r\n    event Transfer(address indexed from, address indexed to, uint256 value);\r\n    event Approval(\r\n        address indexed owner,\r\n        address indexed spender,\r\n        uint256 value\r\n    );\r\n    /**\r\n     *\r\n     * Fix for the ERC20 short address attack\r\n     *\r\n     * http://vessenes.com/the-erc20-short-address-attack-explained/\r\n     */\r\n    modifier onlyPayloadSize(uint256 size) {\r\n        require(msg.data.length == size + 4);\r\n        _;\r\n    }\r\n\r\n    function transfer(address _to, uint256 _value)\r\n        public\r\n        onlyPayloadSize(2 * 32)\r\n        returns (bool success)\r\n    {\r\n        require(_to != 0);\r\n        uint256 balanceFrom = balances[msg.sender];\r\n        require(_value <= balanceFrom);\r\n\r\n        // SafeMath safeSub will throw if there is not enough balance.\r\n        balances[msg.sender] = safeSub(balanceFrom, _value);\r\n        balances[_to] = safeAdd(balances[_to], _value);\r\n        Transfer(msg.sender, _to, _value);\r\n        return true;\r\n    }\r\n\r\n    function transferFrom(\r\n        address _from,\r\n        address _to,\r\n        uint256 _value\r\n    ) public returns (bool success) {\r\n        require(_to != 0);\r\n        uint256 allowToTrans = allowed[_from][msg.sender];\r\n        uint256 balanceFrom = balances[_from];\r\n        require(_value <= balanceFrom);\r\n        require(_value <= allowToTrans);\r\n\r\n        balances[_to] = safeAdd(balances[_to], _value);\r\n        balances[_from] = safeSub(balanceFrom, _value);\r\n        allowed[_from][msg.sender] = safeSub(allowToTrans, _value);\r\n        Transfer(_from, _to, _value);\r\n        return true;\r\n    }\r\n\r\n    function balanceOf(address _owner) public view returns (uint256 balance) {\r\n        return balances[_owner];\r\n    }\r\n\r\n    function approve(address _spender, uint256 _value)\r\n        public\r\n        returns (bool success)\r\n    {\r\n        // To change the approve amount you first have to reduce the addresses`\r\n        //  allowance to zero by calling `approve(_spender, 0)` if it is not\r\n        //  already 0 to mitigate the race condition described here:\r\n        //  https://github.com/ethereum/EIPs/issues/20#issuecomment-263524729\r\n        //    if ((_value != 0) && (allowed[msg.sender][_spender] != 0)) throw;\r\n        // require((_value == 0) || (allowed[msg.sender][_spender] == 0));\r\n\r\n        allowed[msg.sender][_spender] = _value;\r\n        Approval(msg.sender, _spender, _value);\r\n        return true;\r\n    }\r\n\r\n    function allowance(address _owner, address _spender)\r\n        public\r\n        view\r\n        returns (uint256 remaining)\r\n    {\r\n        return allowed[_owner][_spender];\r\n    }\r\n\r\n    /**\r\n     * Atomic increment of approved spending\r\n     *\r\n     * Works around https://github.com/ethereum/EIPs/issues/20#issuecomment-263524729\r\n     *\r\n     */\r\n    function addApproval(address _spender, uint256 _addedValue)\r\n        public\r\n        onlyPayloadSize(2 * 32)\r\n        returns (bool success)\r\n    {\r\n        uint256 oldValue = allowed[msg.sender][_spender];\r\n        allowed[msg.sender][_spender] = safeAdd(oldValue, _addedValue);\r\n        Approval(msg.sender, _spender, allowed[msg.sender][_spender]);\r\n        return true;\r\n    }\r\n\r\n    /**\r\n     * Atomic decrement of approved spending.\r\n     *\r\n     * Works around https://github.com/ethereum/EIPs/issues/20#issuecomment-263524729\r\n     */\r\n    function subApproval(address _spender, uint256 _subtractedValue)\r\n        public\r\n        onlyPayloadSize(2 * 32)\r\n        returns (bool success)\r\n    {\r\n        uint256 oldVal = allowed[msg.sender][_spender];\r\n\r\n        if (_subtractedValue > oldVal) {\r\n            allowed[msg.sender][_spender] = 0;\r\n        } else {\r\n            allowed[msg.sender][_spender] = safeSub(oldVal, _subtractedValue);\r\n        }\r\n        Approval(msg.sender, _spender, allowed[msg.sender][_spender]);\r\n        return true;\r\n    }\r\n}\r\n\r\n/**\r\n * @title Ownable\r\n * @dev The Ownable contract has an owner address, and provides basic authorization control\r\n * functions, this simplifies the implementation of \"user permissions\".\r\n */\r\ncontract Ownable is sGuard {\r\n    address public owner;\r\n\r\n    event OwnershipTransferred(\r\n        address indexed previousOwner,\r\n        address indexed newOwner\r\n    );\r\n\r\n    /**\r\n     * @dev The Ownable constructor sets the original `owner` of the contract to the sender\r\n     * account.\r\n     */\r\n    function Ownable() public {\r\n        owner = msg.sender;\r\n    }\r\n\r\n    /**\r\n     * @dev Throws if called by any account other than the owner.\r\n     */\r\n    modifier onlyOwner() {\r\n        require(msg.sender == owner);\r\n        _;\r\n    }\r\n\r\n    /**\r\n     * @dev Allows the current owner to transfer control of the contract to a newOwner.\r\n     * @param newOwner The address to transfer ownership to.\r\n     */\r\n    function transferOwnership(address newOwner)\r\n        public\r\n        nonReentrant_\r\n        onlyOwner\r\n    {\r\n        require(newOwner != address(0));\r\n        OwnershipTransferred(owner, newOwner);\r\n        owner = newOwner;\r\n    }\r\n}\r\n\r\ncontract MigrationAgent is sGuard {\r\n    function migrateFrom(address _from, uint256 _value) public;\r\n}\r\n\r\ncontract UpgradeableToken is sGuard, Ownable, StandardToken {\r\n    address public migrationAgent;\r\n\r\n    /**\r\n     * Somebody has upgraded some of his tokens.\r\n     */\r\n    event Upgrade(address indexed from, address indexed to, uint256 value);\r\n\r\n    /**\r\n     * New upgrade agent available.\r\n     */\r\n    event UpgradeAgentSet(address agent);\r\n\r\n    // Migrate tokens to the new token contract\r\n    function migrate() public {\r\n        require(migrationAgent != 0);\r\n        uint256 value = balances[msg.sender];\r\n        balances[msg.sender] = safeSub(balances[msg.sender], value);\r\n        totalSupply = safeSub(totalSupply, value);\r\n        MigrationAgent(migrationAgent).migrateFrom(msg.sender, value);\r\n        Upgrade(msg.sender, migrationAgent, value);\r\n    }\r\n\r\n    function() public payable {\r\n        require(migrationAgent != 0);\r\n        require(balances[msg.sender] > 0);\r\n        migrate();\r\n        msg.sender.transfer(msg.value);\r\n    }\r\n\r\n    function setMigrationAgent(address _agent) external onlyOwner {\r\n        migrationAgent = _agent;\r\n        UpgradeAgentSet(_agent);\r\n    }\r\n}\r\n\r\ncontract OKOToken is sGuard, UpgradeableToken {\r\n    event Mint(address indexed to, uint256 amount);\r\n    event MintFinished();\r\n\r\n    address public allTokenOwnerOnStart;\r\n    string public constant name = \"OKOIN\";\r\n    string public constant symbol = \"OKO\";\r\n    uint256 public constant decimals = 6;\r\n\r\n    function OKOToken() public {\r\n        allTokenOwnerOnStart = msg.sender;\r\n        totalSupply = 240000000000000;\r\n        balances[allTokenOwnerOnStart] = totalSupply;\r\n        Mint(allTokenOwnerOnStart, totalSupply);\r\n        Transfer(0x0, allTokenOwnerOnStart, totalSupply);\r\n        MintFinished();\r\n    }\r\n}\r\n\r\n// ============================================================================\r\n\r\ncontract IcoOKOToken is sGuard, Ownable, SafeMath {\r\n    address public wallet;\r\n    address public allTokenAddress;\r\n    bool public emergencyFlagAndHiddenCap = false;\r\n    // UNIX format\r\n    uint256 public startTime = 1516838400; // 25 Jan 2017 00:00:00 GMT\r\n    uint256 public endTime = 1524700800; // 26 Apr 2018 00:00:00 GMT\r\n\r\n    uint256 public USDto1ETH = 1100; // 1 ether = 1100$\r\n    uint256 public price;\r\n    uint256 public totalTokensSold = 524380060997;\r\n    uint256 public constant maxTokensToSold = 84000000000000; // 35% * (240 000 000.000 000)\r\n    OKOToken public token;\r\n\r\n    function IcoOKOToken(address _wallet, OKOToken _token) public {\r\n        wallet = _wallet;\r\n        token = _token;\r\n        allTokenAddress = token.allTokenOwnerOnStart();\r\n        price = ((1 ether / USDto1ETH / 1000000) * 27) / 10;\r\n    }\r\n\r\n    function() external payable {\r\n        require(now <= endTime && now >= startTime);\r\n        require(!emergencyFlagAndHiddenCap);\r\n        require(totalTokensSold < maxTokensToSold);\r\n        uint256 value = msg.value;\r\n        uint256 tokensToSend = safeDiv(value, price);\r\n        require(tokensToSend >= 1000000 && tokensToSend <= 350000000000);\r\n        uint256 valueToReturn = safeSub(\r\n            value,\r\n            mul_uint256(tokensToSend, price)\r\n        );\r\n        uint256 valueToWallet = safeSub(value, valueToReturn);\r\n\r\n        wallet.transfer(valueToWallet);\r\n        if (valueToReturn > 0) {\r\n            msg.sender.transfer(valueToReturn);\r\n        }\r\n        token.transferFrom(allTokenAddress, msg.sender, tokensToSend);\r\n        totalTokensSold = add_uint256(totalTokensSold, tokensToSend);\r\n    }\r\n\r\n    function ChangeUSDto1ETH(uint256 _USDto1ETH)\r\n        public\r\n        nonReentrant_\r\n        onlyOwner\r\n    {\r\n        USDto1ETH = _USDto1ETH;\r\n        ChangePrice();\r\n    }\r\n\r\n    function ChangePrice() public nonReentrant_ onlyOwner {\r\n        uint256 priceWeiToUSD = div_uint256(1 ether, USDto1ETH);\r\n        price = add_uint256(\r\n            div_uint256(\r\n                mul_uint256(div_uint256(priceWeiToUSD, 1000000), 27),\r\n                10\r\n            ),\r\n            mul_uint256(\r\n                div_uint256(\r\n                    mul_uint256(div_uint256(priceWeiToUSD, 1000000), 1),\r\n                    2\r\n                ),\r\n                (div_uint256((sub_uint256(now, startTime)), 604800))\r\n            )\r\n        ); // 2.7$ on start + 0.5$ per week\r\n    }\r\n\r\n    function ChangeStart(uint256 _startTime) public nonReentrant_ onlyOwner {\r\n        startTime = _startTime;\r\n    }\r\n\r\n    function ChangeEnd(uint256 _endTime) public nonReentrant_ onlyOwner {\r\n        endTime = _endTime;\r\n    }\r\n\r\n    function emergencyAndHiddenCapToggle() public nonReentrant_ onlyOwner {\r\n        emergencyFlagAndHiddenCap = !emergencyFlagAndHiddenCap;\r\n    }\r\n}\r\n",
  "sourcePath": "/workdir/truffle_example/after/0x169e59a41ba10600fddd1b0a72921f503b31d96b/contracts/0x169e59a41BA10600Fddd1b0A72921f503b31D96B.sol.fixed.sol",
  "compiler": {
    "name": "solc",
    "version": "0.4.25+commit.59dbf8f1.Emscripten.clang"
  },
  "schemaVersion": "3.4.8",
  "updatedAt": "2022-09-03T08:10:43.988Z",
  "networkType": "ethereum",
  "devdoc": {
    "methods": {
      "transferOwnership(address)": {
        "details": "Allows the current owner to transfer control of the contract to a newOwner.\r",
        "params": {
          "newOwner": "The address to transfer ownership to.\r"
        }
      }
    }
  },
  "userdoc": {
    "methods": {
      "addApproval(address,uint256)": {
        "notice": "Atomic increment of approved spending\r      * Works around https://github.com/ethereum/EIPs/issues/20#issuecomment-263524729\r      "
      },
      "subApproval(address,uint256)": {
        "notice": "Atomic decrement of approved spending.\r      * Works around https://github.com/ethereum/EIPs/issues/20#issuecomment-263524729\r"
      }
    }
  }
}