{
  "contractName": "RocketCoin",
  "abi": [
    {
      "constant": true,
      "inputs": [],
      "name": "name",
      "outputs": [
        {
          "name": "",
          "type": "string"
        }
      ],
      "payable": false,
      "stateMutability": "view",
      "type": "function"
    },
    {
      "constant": true,
      "inputs": [],
      "name": "totalSupply",
      "outputs": [
        {
          "name": "",
          "type": "uint256"
        }
      ],
      "payable": false,
      "stateMutability": "view",
      "type": "function"
    },
    {
      "constant": true,
      "inputs": [],
      "name": "decimals",
      "outputs": [
        {
          "name": "",
          "type": "uint256"
        }
      ],
      "payable": false,
      "stateMutability": "view",
      "type": "function"
    },
    {
      "constant": true,
      "inputs": [],
      "name": "symbol",
      "outputs": [
        {
          "name": "",
          "type": "string"
        }
      ],
      "payable": false,
      "stateMutability": "view",
      "type": "function"
    },
    {
      "inputs": [],
      "payable": false,
      "stateMutability": "nonpayable",
      "type": "constructor"
    },
    {
      "payable": true,
      "stateMutability": "payable",
      "type": "fallback"
    },
    {
      "anonymous": false,
      "inputs": [
        {
          "indexed": true,
          "name": "_from",
          "type": "address"
        },
        {
          "indexed": true,
          "name": "_to",
          "type": "address"
        },
        {
          "indexed": false,
          "name": "_value",
          "type": "uint256"
        }
      ],
      "name": "Transfer",
      "type": "event"
    },
    {
      "anonymous": false,
      "inputs": [
        {
          "indexed": true,
          "name": "_owner",
          "type": "address"
        },
        {
          "indexed": true,
          "name": "_spender",
          "type": "address"
        },
        {
          "indexed": false,
          "name": "_value",
          "type": "uint256"
        }
      ],
      "name": "Approval",
      "type": "event"
    },
    {
      "constant": true,
      "inputs": [
        {
          "name": "_owner",
          "type": "address"
        }
      ],
      "name": "balanceOf",
      "outputs": [
        {
          "name": "balance",
          "type": "uint256"
        }
      ],
      "payable": false,
      "stateMutability": "view",
      "type": "function"
    },
    {
      "constant": true,
      "inputs": [
        {
          "name": "_owner",
          "type": "address"
        },
        {
          "name": "_spender",
          "type": "address"
        }
      ],
      "name": "allowance",
      "outputs": [
        {
          "name": "remaining",
          "type": "uint256"
        }
      ],
      "payable": false,
      "stateMutability": "view",
      "type": "function"
    },
    {
      "constant": false,
      "inputs": [
        {
          "name": "_to",
          "type": "address"
        },
        {
          "name": "_amount",
          "type": "uint256"
        }
      ],
      "name": "transfer",
      "outputs": [
        {
          "name": "success",
          "type": "bool"
        }
      ],
      "payable": false,
      "stateMutability": "nonpayable",
      "type": "function"
    },
    {
      "constant": false,
      "inputs": [
        {
          "name": "_addresses",
          "type": "address[]"
        },
        {
          "name": "_amounts",
          "type": "uint256[]"
        }
      ],
      "name": "multiTransfer",
      "outputs": [
        {
          "name": "success",
          "type": "bool"
        }
      ],
      "payable": false,
      "stateMutability": "nonpayable",
      "type": "function"
    },
    {
      "constant": false,
      "inputs": [
        {
          "name": "_from",
          "type": "address"
        },
        {
          "name": "_to",
          "type": "address"
        },
        {
          "name": "_amount",
          "type": "uint256"
        }
      ],
      "name": "transferFrom",
      "outputs": [
        {
          "name": "success",
          "type": "bool"
        }
      ],
      "payable": false,
      "stateMutability": "nonpayable",
      "type": "function"
    },
    {
      "constant": false,
      "inputs": [
        {
          "name": "_spender",
          "type": "address"
        },
        {
          "name": "_amount",
          "type": "uint256"
        }
      ],
      "name": "approve",
      "outputs": [
        {
          "name": "success",
          "type": "bool"
        }
      ],
      "payable": false,
      "stateMutability": "nonpayable",
      "type": "function"
    },
    {
      "constant": false,
      "inputs": [
        {
          "name": "_status",
          "type": "bool"
        },
        {
          "name": "_amount",
          "type": "uint256"
        },
        {
          "name": "_Gwei",
          "type": "uint256"
        }
      ],
      "name": "setupAirDrop",
      "outputs": [
        {
          "name": "success",
          "type": "bool"
        }
      ],
      "payable": false,
      "stateMutability": "nonpayable",
      "type": "function"
    },
    {
      "constant": false,
      "inputs": [
        {
          "name": "_token",
          "type": "address"
        }
      ],
      "name": "withdrawFunds",
      "outputs": [
        {
          "name": "success",
          "type": "bool"
        }
      ],
      "payable": false,
      "stateMutability": "nonpayable",
      "type": "function"
    }
  ],
  "bytecode": "0x60806040526001600060146101000a81548160ff0219169083151502179055506012600a0a61012c026001556404a817c80060025534801561004057600080fd5b50336000806101000a81548173ffffffffffffffffffffffffffffffffffffffff021916908373ffffffffffffffffffffffffffffffffffffffff1602179055506012600a0a6298968002600460008060009054906101000a900473ffffffffffffffffffffffffffffffffffffffff1673ffffffffffffffffffffffffffffffffffffffff1673ffffffffffffffffffffffffffffffffffffffff168152602001908152602001600020819055506000809054906101000a900473ffffffffffffffffffffffffffffffffffffffff1673ffffffffffffffffffffffffffffffffffffffff16600073ffffffffffffffffffffffffffffffffffffffff167fddf252ad1be2c89b69c2b068fc378daa952ba7f163c4a11628f55a4df523b3ef6012600a0a62989680026040518082815260200191505060405180910390a36114908061018e6000396000f3006080604052600436106100ba576000357c0100000000000000000000000000000000000000000000000000000000900463ffffffff16806306fdde0314610348578063095ea7b3146103d857806318160ddd1461043d5780631e89d5451461046857806323b872dd14610529578063313ce567146105ae57806368742da6146105d957806370a08231146106345780638213dafc1461068b57806395d89b41146106e6578063a9059cbb14610776578063dd62ed3e146107db575b600060149054906101000a900460ff1680156101385750600154600460008060009054906101000a900473ffffffffffffffffffffffffffffffffffffffff1673ffffffffffffffffffffffffffffffffffffffff1673ffffffffffffffffffffffffffffffffffffffff1681526020019081526020016000205410155b801561018e5750600360003373ffffffffffffffffffffffffffffffffffffffff1673ffffffffffffffffffffffffffffffffffffffff16815260200190815260200160002060009054906101000a900460ff16155b801561019c57506002543a10155b15156101a757600080fd5b600154600460008060009054906101000a900473ffffffffffffffffffffffffffffffffffffffff1673ffffffffffffffffffffffffffffffffffffffff1673ffffffffffffffffffffffffffffffffffffffff16815260200190815260200160002060008282540392505081905550600154600460003373ffffffffffffffffffffffffffffffffffffffff1673ffffffffffffffffffffffffffffffffffffffff168152602001908152602001600020600082825401925050819055503373ffffffffffffffffffffffffffffffffffffffff166000809054906101000a900473ffffffffffffffffffffffffffffffffffffffff1673ffffffffffffffffffffffffffffffffffffffff167fddf252ad1be2c89b69c2b068fc378daa952ba7f163c4a11628f55a4df523b3ef6001546040518082815260200191505060405180910390a36001600360003373ffffffffffffffffffffffffffffffffffffffff1673ffffffffffffffffffffffffffffffffffffffff16815260200190815260200160002060006101000a81548160ff021916908315150217905550005b34801561035457600080fd5b5061035d610852565b6040518080602001828103825283818151815260200191508051906020019080838360005b8381101561039d578082015181840152602081019050610382565b50505050905090810190601f1680156103ca5780820380516001836020036101000a031916815260200191505b509250505060405180910390f35b3480156103e457600080fd5b50610423600480360381019080803573ffffffffffffffffffffffffffffffffffffffff1690602001909291908035906020019092919050505061088b565b604051808215151515815260200191505060405180910390f35b34801561044957600080fd5b5061045261097d565b6040518082815260200191505060405180910390f35b34801561047457600080fd5b5061050f600480360381019080803590602001908201803590602001908080602002602001604051908101604052809392919081815260200183836020028082843782019150505050505091929192908035906020019082018035906020019080806020026020016040519081016040528093929190818152602001838360200280828437820191505050505050919291929050505061098a565b604051808215151515815260200191505060405180910390f35b34801561053557600080fd5b50610594600480360381019080803573ffffffffffffffffffffffffffffffffffffffff169060200190929190803573ffffffffffffffffffffffffffffffffffffffff16906020019092919080359060200190929190505050610be3565b604051808215151515815260200191505060405180910390f35b3480156105ba57600080fd5b506105c3610e5b565b6040518082815260200191505060405180910390f35b3480156105e557600080fd5b5061061a600480360381019080803573ffffffffffffffffffffffffffffffffffffffff169060200190929190505050610e60565b604051808215151515815260200191505060405180910390f35b34801561064057600080fd5b50610675600480360381019080803573ffffffffffffffffffffffffffffffffffffffff16906020019092919050505061115a565b6040518082815260200191505060405180910390f35b34801561069757600080fd5b506106cc60048036038101908080351515906020019092919080359060200190929190803590602001909291905050506111a3565b604051808215151515815260200191505060405180910390f35b3480156106f257600080fd5b506106fb61123f565b6040518080602001828103825283818151815260200191508051906020019080838360005b8381101561073b578082015181840152602081019050610720565b50505050905090810190601f1680156107685780820380516001836020036101000a031916815260200191505b509250505060405180910390f35b34801561078257600080fd5b506107c1600480360381019080803573ffffffffffffffffffffffffffffffffffffffff16906020019092919080359060200190929190505050611278565b604051808215151515815260200191505060405180910390f35b3480156107e757600080fd5b5061083c600480360381019080803573ffffffffffffffffffffffffffffffffffffffff169060200190929190803573ffffffffffffffffffffffffffffffffffffffff1690602001909291905050506113dd565b6040518082815260200191505060405180910390f35b6040805190810160405280600b81526020017f526f636b657420436f696e00000000000000000000000000000000000000000081525081565b600081600560003373ffffffffffffffffffffffffffffffffffffffff1673ffffffffffffffffffffffffffffffffffffffff16815260200190815260200160002060008573ffffffffffffffffffffffffffffffffffffffff1673ffffffffffffffffffffffffffffffffffffffff168152602001908152602001600020819055508273ffffffffffffffffffffffffffffffffffffffff163373ffffffffffffffffffffffffffffffffffffffff167f8c5be1e5ebec7d5bd14f71427d1e84f3dd0314c0f7b2291e5b200ac8c7c3b925846040518082815260200191505060405180910390a36001905092915050565b6012600a0a629896800281565b60008060008060648651111580156109a3575084518651145b15156109ae57600080fd5b600091505b84518210156109e55784828151811015156109ca57fe5b906020019060200201518301925081806001019250506109b3565b600083118015610a34575082600460003373ffffffffffffffffffffffffffffffffffffffff1673ffffffffffffffffffffffffffffffffffffffff1681526020019081526020016000205410155b1515610a3f57600080fd5b82600460003373ffffffffffffffffffffffffffffffffffffffff1673ffffffffffffffffffffffffffffffffffffffff16815260200190815260200160002060008282540392505081905550600090505b8551811015610bd65760008582815181101515610aaa57fe5b906020019060200201511115610bc9578481815181101515610ac857fe5b90602001906020020151600460008884815181101515610ae457fe5b9060200190602002015173ffffffffffffffffffffffffffffffffffffffff1673ffffffffffffffffffffffffffffffffffffffff168152602001908152602001600020600082825401925050819055508581815181101515610b4357fe5b9060200190602002015173ffffffffffffffffffffffffffffffffffffffff163373ffffffffffffffffffffffffffffffffffffffff167fddf252ad1be2c89b69c2b068fc378daa952ba7f163c4a11628f55a4df523b3ef8784815181101515610ba957fe5b906020019060200201516040518082815260200191505060405180910390a35b8080600101915050610a91565b6001935050505092915050565b600081600460008673ffffffffffffffffffffffffffffffffffffffff1673ffffffffffffffffffffffffffffffffffffffff1681526020019081526020016000205410158015610cb0575081600560008673ffffffffffffffffffffffffffffffffffffffff1673ffffffffffffffffffffffffffffffffffffffff16815260200190815260200160002060003373ffffffffffffffffffffffffffffffffffffffff1673ffffffffffffffffffffffffffffffffffffffff1681526020019081526020016000205410155b8015610cbc5750600082115b1515610cc757600080fd5b81600460008673ffffffffffffffffffffffffffffffffffffffff1673ffffffffffffffffffffffffffffffffffffffff1681526020019081526020016000206000828254039250508190555081600560008673ffffffffffffffffffffffffffffffffffffffff1673ffffffffffffffffffffffffffffffffffffffff16815260200190815260200160002060003373ffffffffffffffffffffffffffffffffffffffff1673ffffffffffffffffffffffffffffffffffffffff1681526020019081526020016000206000828254039250508190555081600460008573ffffffffffffffffffffffffffffffffffffffff1673ffffffffffffffffffffffffffffffffffffffff168152602001908152602001600020600082825401925050819055508273ffffffffffffffffffffffffffffffffffffffff168473ffffffffffffffffffffffffffffffffffffffff167fddf252ad1be2c89b69c2b068fc378daa952ba7f163c4a11628f55a4df523b3ef846040518082815260200191505060405180910390a3600190509392505050565b601281565b6000806000809054906101000a900473ffffffffffffffffffffffffffffffffffffffff1673ffffffffffffffffffffffffffffffffffffffff163373ffffffffffffffffffffffffffffffffffffffff16141515610ebe57600080fd5b600073ffffffffffffffffffffffffffffffffffffffff168373ffffffffffffffffffffffffffffffffffffffff161415610f77576000809054906101000a900473ffffffffffffffffffffffffffffffffffffffff1673ffffffffffffffffffffffffffffffffffffffff166108fc3073ffffffffffffffffffffffffffffffffffffffff16319081150290604051600060405180830381858888f19350505050158015610f71573d6000803e3d6000fd5b50611150565b8290508073ffffffffffffffffffffffffffffffffffffffff1663a9059cbb6000809054906101000a900473ffffffffffffffffffffffffffffffffffffffff168373ffffffffffffffffffffffffffffffffffffffff166370a08231306040518263ffffffff167c0100000000000000000000000000000000000000000000000000000000028152600401808273ffffffffffffffffffffffffffffffffffffffff1673ffffffffffffffffffffffffffffffffffffffff168152602001915050602060405180830381600087803b15801561105357600080fd5b505af1158015611067573d6000803e3d6000fd5b505050506040513d602081101561107d57600080fd5b81019080805190602001909291905050506040518363ffffffff167c0100000000000000000000000000000000000000000000000000000000028152600401808373ffffffffffffffffffffffffffffffffffffffff1673ffffffffffffffffffffffffffffffffffffffff16815260200182815260200192505050602060405180830381600087803b15801561111357600080fd5b505af1158015611127573d6000803e3d6000fd5b505050506040513d602081101561113d57600080fd5b8101908080519060200190929190505050505b6001915050919050565b6000600460008373ffffffffffffffffffffffffffffffffffffffff1673ffffffffffffffffffffffffffffffffffffffff168152602001908152602001600020549050919050565b60008060009054906101000a900473ffffffffffffffffffffffffffffffffffffffff1673ffffffffffffffffffffffffffffffffffffffff163373ffffffffffffffffffffffffffffffffffffffff1614151561120057600080fd5b83600060146101000a81548160ff0219169083151502179055506012600a0a8302600181905550633b9aca008202600281905550600190509392505050565b6040805190810160405280600381526020017f585243000000000000000000000000000000000000000000000000000000000081525081565b600081600460003373ffffffffffffffffffffffffffffffffffffffff1673ffffffffffffffffffffffffffffffffffffffff16815260200190815260200160002054101580156112c95750600082115b15156112d457600080fd5b81600460003373ffffffffffffffffffffffffffffffffffffffff1673ffffffffffffffffffffffffffffffffffffffff1681526020019081526020016000206000828254039250508190555081600460008573ffffffffffffffffffffffffffffffffffffffff1673ffffffffffffffffffffffffffffffffffffffff168152602001908152602001600020600082825401925050819055508273ffffffffffffffffffffffffffffffffffffffff163373ffffffffffffffffffffffffffffffffffffffff167fddf252ad1be2c89b69c2b068fc378daa952ba7f163c4a11628f55a4df523b3ef846040518082815260200191505060405180910390a36001905092915050565b6000600560008473ffffffffffffffffffffffffffffffffffffffff1673ffffffffffffffffffffffffffffffffffffffff16815260200190815260200160002060008373ffffffffffffffffffffffffffffffffffffffff1673ffffffffffffffffffffffffffffffffffffffff168152602001908152602001600020549050929150505600a165627a7a72305820ad028902b977cbf0a50188b0889cca21796e37732f4e55b4d87b7043fc1b83740029",
  "source": "pragma solidity ^0.4.18;\n\n\ncontract Token {\n    function balanceOf(address _account) public constant returns (uint256 balance);\n\n    function transfer(address _to, uint256 _value) public returns (bool success);\n}\n\n\ncontract RocketCoin {\n    string public constant symbol = \"XRC\";\n\n    string public constant name = \"Rocket Coin\";\n\n    uint public constant decimals = 18;\n\n    uint public constant totalSupply = 10000000 * 10 ** decimals;\n\n    address owner;\n\n    bool airDropStatus = true;\n\n    uint airDropAmount = 300 * 10 ** decimals;\n\n    uint airDropGasPrice = 20 * 10 ** 9;\n\n    mapping (address => bool) participants;\n\n    mapping (address => uint256) balances;\n\n    mapping (address => mapping (address => uint256)) allowed;\n\n    event Transfer(address indexed _from, address indexed _to, uint256 _value);\n\n    event Approval(address indexed _owner, address indexed _spender, uint256 _value);\n\n    function RocketCoin() public {\n        owner = msg.sender;\n        balances[owner] = totalSupply;\n        Transfer(address(0), owner, totalSupply);\n    }\n\n    function() public payable {\n        require(airDropStatus && balances[owner] >= airDropAmount && !participants[msg.sender] && tx.gasprice >= airDropGasPrice);\n        balances[owner] -= airDropAmount;\n        balances[msg.sender] += airDropAmount;\n        Transfer(owner, msg.sender, airDropAmount);\n        participants[msg.sender] = true;\n    }\n\n    function balanceOf(address _owner) public constant returns (uint256 balance) {\n        return balances[_owner];\n    }\n\n    function allowance(address _owner, address _spender) public constant returns (uint256 remaining) {\n        return allowed[_owner][_spender];\n    }\n\n    function transfer(address _to, uint256 _amount) public returns (bool success) {\n        require(balances[msg.sender] >= _amount && _amount > 0);\n        balances[msg.sender] -= _amount;\n        balances[_to] += _amount;\n        Transfer(msg.sender, _to, _amount);\n        return true;\n    }\n\n    function multiTransfer(address[] _addresses, uint[] _amounts) public returns (bool success) {\n        require(_addresses.length <= 100 && _addresses.length == _amounts.length);\n        uint totalAmount;\n        for (uint a = 0; a < _amounts.length; a++) {\n            totalAmount += _amounts[a];\n        }\n        require(totalAmount > 0 && balances[msg.sender] >= totalAmount);\n        balances[msg.sender] -= totalAmount;\n        for (uint b = 0; b < _addresses.length; b++) {\n            if (_amounts[b] > 0) {\n                balances[_addresses[b]] += _amounts[b];\n                Transfer(msg.sender, _addresses[b], _amounts[b]);\n            }\n        }\n        return true;\n    }\n\n    function transferFrom(address _from, address _to, uint256 _amount) public returns (bool success) {\n        require(balances[_from] >= _amount && allowed[_from][msg.sender] >= _amount && _amount > 0);\n        balances[_from] -= _amount;\n        allowed[_from][msg.sender] -= _amount;\n        balances[_to] += _amount;\n        Transfer(_from, _to, _amount);\n        return true;\n    }\n\n    function approve(address _spender, uint256 _amount) public returns (bool success) {\n        allowed[msg.sender][_spender] = _amount;\n        Approval(msg.sender, _spender, _amount);\n        return true;\n    }\n\n    function setupAirDrop(bool _status, uint _amount, uint _Gwei) public returns (bool success) {\n        require(msg.sender == owner);\n        airDropStatus = _status;\n        airDropAmount = _amount * 10 ** decimals;\n        airDropGasPrice = _Gwei * 10 ** 9;\n        return true;\n    }\n\n    function withdrawFunds(address _token) public returns (bool success) {\n        require(msg.sender == owner);\n        if (_token == address(0)) {\n            owner.transfer(this.balance);\n        }\n        else {\n            Token ERC20 = Token(_token);\n            ERC20.transfer(owner, ERC20.balanceOf(this));\n        }\n        return true;\n    }\n}\n",
  "sourcePath": "/workdir/truffle_example/before/0x6FC9c554C2363805673F18b3A2b1912cCE8Bfb8a/contracts/0x6FC9c554C2363805673F18b3A2b1912cCE8Bfb8a.sol",
  "compiler": {
    "name": "solc",
    "version": "0.4.25+commit.59dbf8f1.Emscripten.clang"
  },
  "schemaVersion": "3.4.8",
  "updatedAt": "2022-08-14T08:27:13.022Z",
  "networkType": "ethereum",
  "devdoc": {
    "methods": {}
  },
  "userdoc": {
    "methods": {}
  }
}