{
  "contractName": "MONEY_BOX",
  "abi": [
    {
      "constant": true,
      "inputs": [
        {
          "name": "",
          "type": "address"
        }
      ],
      "name": "Acc",
      "outputs": [
        {
          "name": "unlockTime",
          "type": "uint256"
        },
        {
          "name": "balance",
          "type": "uint256"
        }
      ],
      "payable": false,
      "stateMutability": "view",
      "type": "function"
    },
    {
      "constant": true,
      "inputs": [],
      "name": "MinSum",
      "outputs": [
        {
          "name": "",
          "type": "uint256"
        }
      ],
      "payable": false,
      "stateMutability": "view",
      "type": "function"
    },
    {
      "payable": true,
      "stateMutability": "payable",
      "type": "fallback"
    },
    {
      "constant": false,
      "inputs": [
        {
          "name": "_val",
          "type": "uint256"
        }
      ],
      "name": "SetMinSum",
      "outputs": [],
      "payable": false,
      "stateMutability": "nonpayable",
      "type": "function"
    },
    {
      "constant": false,
      "inputs": [
        {
          "name": "_log",
          "type": "address"
        }
      ],
      "name": "SetLogFile",
      "outputs": [],
      "payable": false,
      "stateMutability": "nonpayable",
      "type": "function"
    },
    {
      "constant": false,
      "inputs": [],
      "name": "Initialized",
      "outputs": [],
      "payable": false,
      "stateMutability": "nonpayable",
      "type": "function"
    },
    {
      "constant": false,
      "inputs": [
        {
          "name": "_lockTime",
          "type": "uint256"
        }
      ],
      "name": "Put",
      "outputs": [],
      "payable": true,
      "stateMutability": "payable",
      "type": "function"
    },
    {
      "constant": false,
      "inputs": [
        {
          "name": "_am",
          "type": "uint256"
        }
      ],
      "name": "Collect",
      "outputs": [],
      "payable": true,
      "stateMutability": "payable",
      "type": "function"
    }
  ],
  "bytecode": "0x608060405234801561001057600080fd5b5061062b806100206000396000f300608060405260043610610083576000357c0100000000000000000000000000000000000000000000000000000000900463ffffffff168063303b93791461008f5780633fe43822146100d25780635daa87a0146100f2578063640d30171461010957806365f3c31a146101365780637731cd2a14610156578063c2808d1a146101b4575b61008d60006101df565b005b34801561009b57600080fd5b506100d0600480360381019080803573ffffffffffffffffffffffffffffffffffffffff169060200190929190505050610367565b005b6100f0600480360381019080803590602001909291905050506103c5565b005b3480156100fe57600080fd5b50610107610594565b005b34801561011557600080fd5b50610134600480360381019080803590602001909291905050506105b1565b005b610154600480360381019080803590602001909291905050506101df565b005b34801561016257600080fd5b50610197600480360381019080803573ffffffffffffffffffffffffffffffffffffffff1690602001909291905050506105d5565b604051808381526020018281526020019250505060405180910390f35b3480156101c057600080fd5b506101c96105f9565b6040518082815260200191505060405180910390f35b60008060003373ffffffffffffffffffffffffffffffffffffffff1673ffffffffffffffffffffffffffffffffffffffff16815260200190815260200160002090503481600101600082825401925050819055508060000154824201111561024d5781420181600001819055505b600260009054906101000a900473ffffffffffffffffffffffffffffffffffffffff1673ffffffffffffffffffffffffffffffffffffffff16634c2f04a433346040518363ffffffff167c0100000000000000000000000000000000000000000000000000000000028152600401808373ffffffffffffffffffffffffffffffffffffffff1673ffffffffffffffffffffffffffffffffffffffff16815260200182815260200180602001828103825260038152602001807f50757400000000000000000000000000000000000000000000000000000000008152506020019350505050600060405180830381600087803b15801561034b57600080fd5b505af115801561035f573d6000803e3d6000fd5b505050505050565b600260149054906101000a900460ff161561038157600080fd5b80600260006101000a81548173ffffffffffffffffffffffffffffffffffffffff021916908373ffffffffffffffffffffffffffffffffffffffff16021790555050565b60008060003373ffffffffffffffffffffffffffffffffffffffff1673ffffffffffffffffffffffffffffffffffffffff1681526020019081526020016000209050600154816001015410158015610421575081816001015410155b80156104305750806000015442115b15610590573373ffffffffffffffffffffffffffffffffffffffff168260405160006040518083038185875af1925050501561058f57818160010160008282540392505081905550600260009054906101000a900473ffffffffffffffffffffffffffffffffffffffff1673ffffffffffffffffffffffffffffffffffffffff16634c2f04a433846040518363ffffffff167c0100000000000000000000000000000000000000000000000000000000028152600401808373ffffffffffffffffffffffffffffffffffffffff1673ffffffffffffffffffffffffffffffffffffffff16815260200182815260200180602001828103825260078152602001807f436f6c6c656374000000000000000000000000000000000000000000000000008152506020019350505050600060405180830381600087803b15801561057657600080fd5b505af115801561058a573d6000803e3d6000fd5b505050505b5b5050565b6001600260146101000a81548160ff021916908315150217905550565b600260149054906101000a900460ff16156105cb57600080fd5b8060018190555050565b60006020528060005260406000206000915090508060000154908060010154905082565b600154815600a165627a7a72305820081a64e03a0964eb514a6eb59531b92ed559c6d4afc2216476605f5d8a4f03010029",
  "source": "/*\r\n * @source: etherscan.io \r\n * @author: -\r\n * @vulnerable_at_lines: 63\r\n */\r\n\r\npragma solidity ^0.4.19;\r\n\r\ncontract MONEY_BOX   \r\n{\r\n    struct Holder   \r\n    {\r\n        uint unlockTime;\r\n        uint balance;\r\n    }\r\n    \r\n    mapping (address => Holder) public Acc;\r\n    \r\n    uint public MinSum;\r\n    \r\n    Log LogFile;\r\n    \r\n    bool intitalized;\r\n    \r\n    function SetMinSum(uint _val)\r\n    public\r\n    {\r\n        if(intitalized)throw;\r\n        MinSum = _val;\r\n    }\r\n    \r\n    function SetLogFile(address _log)\r\n    public\r\n    {\r\n        if(intitalized)throw;\r\n        LogFile = Log(_log);\r\n    }\r\n    \r\n    function Initialized()\r\n    public\r\n    {\r\n        intitalized = true;\r\n    }\r\n    \r\n    function Put(uint _lockTime)\r\n    public\r\n    payable\r\n    {\r\n        var acc = Acc[msg.sender];\r\n        acc.balance += msg.value;\r\n        if(now+_lockTime>acc.unlockTime)acc.unlockTime=now+_lockTime;\r\n        LogFile.AddMessage(msg.sender,msg.value,\"Put\");\r\n    }\r\n    \r\n    function Collect(uint _am)\r\n    public\r\n    payable\r\n    {\r\n        var acc = Acc[msg.sender];\r\n        if( acc.balance>=MinSum && acc.balance>=_am && now>acc.unlockTime)\r\n        {\r\n            // <yes> <report> REENTRANCY\r\n            if(msg.sender.call.value(_am)())\r\n            {\r\n                acc.balance-=_am;\r\n                LogFile.AddMessage(msg.sender,_am,\"Collect\");\r\n            }\r\n        }\r\n    }\r\n    \r\n    function() \r\n    public \r\n    payable\r\n    {\r\n        Put(0);\r\n    }\r\n    \r\n}\r\n\r\n\r\ncontract Log \r\n{\r\n    struct Message\r\n    {\r\n        address Sender;\r\n        string  Data;\r\n        uint Val;\r\n        uint  Time;\r\n    }\r\n    \r\n    Message[] public History;\r\n    \r\n    Message LastMsg;\r\n    \r\n    function AddMessage(address _adr,uint _val,string _data)\r\n    public\r\n    {\r\n        LastMsg.Sender = _adr;\r\n        LastMsg.Time = now;\r\n        LastMsg.Val = _val;\r\n        LastMsg.Data = _data;\r\n        History.push(LastMsg);\r\n    }\r\n}",
  "sourcePath": "/workdir/truffle_example/before/0xbe4041d55db380c5ae9d4a9b9703f1ed4e7e3888/contracts/0xbe4041d55db380c5ae9d4a9b9703f1ed4e7e3888.sol",
  "compiler": {
    "name": "solc",
    "version": "0.4.25+commit.59dbf8f1.Emscripten.clang"
  },
  "schemaVersion": "3.4.8",
  "updatedAt": "2022-08-14T08:59:39.147Z",
  "networkType": "ethereum",
  "devdoc": {
    "methods": {}
  },
  "userdoc": {
    "methods": {}
  }
}