{
  "contractName": "HodboToken",
  "abi": [
    {
      "constant": true,
      "inputs": [],
      "name": "mintingFinished",
      "outputs": [
        {
          "name": "",
          "type": "bool"
        }
      ],
      "payable": false,
      "stateMutability": "view",
      "type": "function"
    },
    {
      "constant": true,
      "inputs": [],
      "name": "name",
      "outputs": [
        {
          "name": "",
          "type": "string"
        }
      ],
      "payable": false,
      "stateMutability": "view",
      "type": "function"
    },
    {
      "constant": false,
      "inputs": [
        {
          "name": "_spender",
          "type": "address"
        },
        {
          "name": "_value",
          "type": "uint256"
        }
      ],
      "name": "approve",
      "outputs": [
        {
          "name": "",
          "type": "bool"
        }
      ],
      "payable": false,
      "stateMutability": "nonpayable",
      "type": "function"
    },
    {
      "constant": true,
      "inputs": [],
      "name": "totalSupply",
      "outputs": [
        {
          "name": "",
          "type": "uint256"
        }
      ],
      "payable": false,
      "stateMutability": "view",
      "type": "function"
    },
    {
      "constant": false,
      "inputs": [
        {
          "name": "_from",
          "type": "address"
        },
        {
          "name": "_to",
          "type": "address"
        },
        {
          "name": "_value",
          "type": "uint256"
        }
      ],
      "name": "transferFrom",
      "outputs": [
        {
          "name": "",
          "type": "bool"
        }
      ],
      "payable": false,
      "stateMutability": "nonpayable",
      "type": "function"
    },
    {
      "constant": true,
      "inputs": [],
      "name": "decimals",
      "outputs": [
        {
          "name": "",
          "type": "uint256"
        }
      ],
      "payable": false,
      "stateMutability": "view",
      "type": "function"
    },
    {
      "constant": false,
      "inputs": [
        {
          "name": "_to",
          "type": "address"
        },
        {
          "name": "_amount",
          "type": "uint256"
        }
      ],
      "name": "mint",
      "outputs": [
        {
          "name": "",
          "type": "bool"
        }
      ],
      "payable": false,
      "stateMutability": "nonpayable",
      "type": "function"
    },
    {
      "constant": true,
      "inputs": [
        {
          "name": "_owner",
          "type": "address"
        }
      ],
      "name": "balanceOf",
      "outputs": [
        {
          "name": "balance",
          "type": "uint256"
        }
      ],
      "payable": false,
      "stateMutability": "view",
      "type": "function"
    },
    {
      "constant": false,
      "inputs": [],
      "name": "finishMinting",
      "outputs": [
        {
          "name": "",
          "type": "bool"
        }
      ],
      "payable": false,
      "stateMutability": "nonpayable",
      "type": "function"
    },
    {
      "constant": true,
      "inputs": [],
      "name": "owner",
      "outputs": [
        {
          "name": "",
          "type": "address"
        }
      ],
      "payable": false,
      "stateMutability": "view",
      "type": "function"
    },
    {
      "constant": true,
      "inputs": [],
      "name": "symbol",
      "outputs": [
        {
          "name": "",
          "type": "string"
        }
      ],
      "payable": false,
      "stateMutability": "view",
      "type": "function"
    },
    {
      "constant": false,
      "inputs": [
        {
          "name": "_to",
          "type": "address"
        },
        {
          "name": "_value",
          "type": "uint256"
        }
      ],
      "name": "transfer",
      "outputs": [
        {
          "name": "",
          "type": "bool"
        }
      ],
      "payable": false,
      "stateMutability": "nonpayable",
      "type": "function"
    },
    {
      "constant": true,
      "inputs": [
        {
          "name": "_owner",
          "type": "address"
        },
        {
          "name": "_spender",
          "type": "address"
        }
      ],
      "name": "allowance",
      "outputs": [
        {
          "name": "remaining",
          "type": "uint256"
        }
      ],
      "payable": false,
      "stateMutability": "view",
      "type": "function"
    },
    {
      "constant": false,
      "inputs": [
        {
          "name": "newOwner",
          "type": "address"
        }
      ],
      "name": "transferOwnership",
      "outputs": [],
      "payable": false,
      "stateMutability": "nonpayable",
      "type": "function"
    },
    {
      "anonymous": false,
      "inputs": [
        {
          "indexed": true,
          "name": "to",
          "type": "address"
        },
        {
          "indexed": false,
          "name": "amount",
          "type": "uint256"
        }
      ],
      "name": "Mint",
      "type": "event"
    },
    {
      "anonymous": false,
      "inputs": [],
      "name": "MintFinished",
      "type": "event"
    },
    {
      "anonymous": false,
      "inputs": [
        {
          "indexed": true,
          "name": "owner",
          "type": "address"
        },
        {
          "indexed": true,
          "name": "spender",
          "type": "address"
        },
        {
          "indexed": false,
          "name": "value",
          "type": "uint256"
        }
      ],
      "name": "Approval",
      "type": "event"
    },
    {
      "anonymous": false,
      "inputs": [
        {
          "indexed": true,
          "name": "from",
          "type": "address"
        },
        {
          "indexed": true,
          "name": "to",
          "type": "address"
        },
        {
          "indexed": false,
          "name": "value",
          "type": "uint256"
        }
      ],
      "name": "Transfer",
      "type": "event"
    }
  ],
  "bytecode": "0x60806040526000600360146101000a81548160ff0219169083151502179055506040805190810160405280600b81526020017f484f44424f20544f4b454e000000000000000000000000000000000000000000815250600490805190602001906200006c92919062000107565b506040805190810160405280600381526020017f48434e000000000000000000000000000000000000000000000000000000000081525060059080519060200190620000ba92919062000107565b50601260065533600360006101000a81548173ffffffffffffffffffffffffffffffffffffffff021916908373ffffffffffffffffffffffffffffffffffffffff160217905550620001b6565b828054600181600116156101000203166002900490600052602060002090601f016020900481019282601f106200014a57805160ff19168380011785556200017b565b828001600101855582156200017b579182015b828111156200017a5782518255916020019190600101906200015d565b5b5090506200018a91906200018e565b5090565b620001b391905b80821115620001af57600081600090555060010162000195565b5090565b90565b61115080620001c66000396000f3006080604052600436106100d0576000357c0100000000000000000000000000000000000000000000000000000000900463ffffffff16806305d2035b146100d557806306fdde0314610104578063095ea7b31461019457806318160ddd146101f957806323b872dd14610224578063313ce567146102a957806340c10f19146102d457806370a08231146103395780637d64bcb4146103905780638da5cb5b146103bf57806395d89b4114610416578063a9059cbb146104a6578063dd62ed3e1461050b578063f2fde38b14610582575b600080fd5b3480156100e157600080fd5b506100ea6105c5565b604051808215151515815260200191505060405180910390f35b34801561011057600080fd5b506101196105d8565b6040518080602001828103825283818151815260200191508051906020019080838360005b8381101561015957808201518184015260208101905061013e565b50505050905090810190601f1680156101865780820380516001836020036101000a031916815260200191505b509250505060405180910390f35b3480156101a057600080fd5b506101df600480360381019080803573ffffffffffffffffffffffffffffffffffffffff16906020019092919080359060200190929190505050610676565b604051808215151515815260200191505060405180910390f35b34801561020557600080fd5b5061020e6107fd565b6040518082815260200191505060405180910390f35b34801561023057600080fd5b5061028f600480360381019080803573ffffffffffffffffffffffffffffffffffffffff169060200190929190803573ffffffffffffffffffffffffffffffffffffffff16906020019092919080359060200190929190505050610803565b604051808215151515815260200191505060405180910390f35b3480156102b557600080fd5b506102be610ab3565b6040518082815260200191505060405180910390f35b3480156102e057600080fd5b5061031f600480360381019080803573ffffffffffffffffffffffffffffffffffffffff16906020019092919080359060200190929190505050610ab9565b604051808215151515815260200191505060405180910390f35b34801561034557600080fd5b5061037a600480360381019080803573ffffffffffffffffffffffffffffffffffffffff169060200190929190505050610c3b565b6040518082815260200191505060405180910390f35b34801561039c57600080fd5b506103a5610c84565b604051808215151515815260200191505060405180910390f35b3480156103cb57600080fd5b506103d4610d30565b604051808273ffffffffffffffffffffffffffffffffffffffff1673ffffffffffffffffffffffffffffffffffffffff16815260200191505060405180910390f35b34801561042257600080fd5b5061042b610d56565b6040518080602001828103825283818151815260200191508051906020019080838360005b8381101561046b578082015181840152602081019050610450565b50505050905090810190601f1680156104985780820380516001836020036101000a031916815260200191505b509250505060405180910390f35b3480156104b257600080fd5b506104f1600480360381019080803573ffffffffffffffffffffffffffffffffffffffff16906020019092919080359060200190929190505050610df4565b604051808215151515815260200191505060405180910390f35b34801561051757600080fd5b5061056c600480360381019080803573ffffffffffffffffffffffffffffffffffffffff169060200190929190803573ffffffffffffffffffffffffffffffffffffffff169060200190929190505050610f8f565b6040518082815260200191505060405180910390f35b34801561058e57600080fd5b506105c3600480360381019080803573ffffffffffffffffffffffffffffffffffffffff169060200190929190505050611016565b005b600360149054906101000a900460ff1681565b60048054600181600116156101000203166002900480601f01602080910402602001604051908101604052809291908181526020018280546001816001161561010002031660029004801561066e5780601f106106435761010080835404028352916020019161066e565b820191906000526020600020905b81548152906001019060200180831161065157829003601f168201915b505050505081565b60008082148061070257506000600260003373ffffffffffffffffffffffffffffffffffffffff1673ffffffffffffffffffffffffffffffffffffffff16815260200190815260200160002060008573ffffffffffffffffffffffffffffffffffffffff1673ffffffffffffffffffffffffffffffffffffffff16815260200190815260200160002054145b151561070d57600080fd5b81600260003373ffffffffffffffffffffffffffffffffffffffff1673ffffffffffffffffffffffffffffffffffffffff16815260200190815260200160002060008573ffffffffffffffffffffffffffffffffffffffff1673ffffffffffffffffffffffffffffffffffffffff168152602001908152602001600020819055508273ffffffffffffffffffffffffffffffffffffffff163373ffffffffffffffffffffffffffffffffffffffff167f8c5be1e5ebec7d5bd14f71427d1e84f3dd0314c0f7b2291e5b200ac8c7c3b925846040518082815260200191505060405180910390a36001905092915050565b60005481565b600080600260008673ffffffffffffffffffffffffffffffffffffffff1673ffffffffffffffffffffffffffffffffffffffff16815260200190815260200160002060003373ffffffffffffffffffffffffffffffffffffffff1673ffffffffffffffffffffffffffffffffffffffff1681526020019081526020016000205490506108d783600160008773ffffffffffffffffffffffffffffffffffffffff1673ffffffffffffffffffffffffffffffffffffffff168152602001908152602001600020546110ed90919063ffffffff16565b600160008673ffffffffffffffffffffffffffffffffffffffff1673ffffffffffffffffffffffffffffffffffffffff1681526020019081526020016000208190555061096c83600160008873ffffffffffffffffffffffffffffffffffffffff1673ffffffffffffffffffffffffffffffffffffffff1681526020019081526020016000205461110b90919063ffffffff16565b600160008773ffffffffffffffffffffffffffffffffffffffff1673ffffffffffffffffffffffffffffffffffffffff168152602001908152602001600020819055506109c2838261110b90919063ffffffff16565b600260008773ffffffffffffffffffffffffffffffffffffffff1673ffffffffffffffffffffffffffffffffffffffff16815260200190815260200160002060003373ffffffffffffffffffffffffffffffffffffffff1673ffffffffffffffffffffffffffffffffffffffff168152602001908152602001600020819055508373ffffffffffffffffffffffffffffffffffffffff168573ffffffffffffffffffffffffffffffffffffffff167fddf252ad1be2c89b69c2b068fc378daa952ba7f163c4a11628f55a4df523b3ef856040518082815260200191505060405180910390a360019150509392505050565b60065481565b6000600360009054906101000a900473ffffffffffffffffffffffffffffffffffffffff1673ffffffffffffffffffffffffffffffffffffffff163373ffffffffffffffffffffffffffffffffffffffff16141515610b1757600080fd5b600360149054906101000a900460ff16151515610b3357600080fd5b610b48826000546110ed90919063ffffffff16565b600081905550610ba082600160008673ffffffffffffffffffffffffffffffffffffffff1673ffffffffffffffffffffffffffffffffffffffff168152602001908152602001600020546110ed90919063ffffffff16565b600160008573ffffffffffffffffffffffffffffffffffffffff1673ffffffffffffffffffffffffffffffffffffffff168152602001908152602001600020819055508273ffffffffffffffffffffffffffffffffffffffff167f0f6798a560793a54c3bcfe86a93cde1e73087d944c0ea20544137d4121396885836040518082815260200191505060405180910390a26001905092915050565b6000600160008373ffffffffffffffffffffffffffffffffffffffff1673ffffffffffffffffffffffffffffffffffffffff168152602001908152602001600020549050919050565b6000600360009054906101000a900473ffffffffffffffffffffffffffffffffffffffff1673ffffffffffffffffffffffffffffffffffffffff163373ffffffffffffffffffffffffffffffffffffffff16141515610ce257600080fd5b6001600360146101000a81548160ff0219169083151502179055507fae5184fba832cb2b1f702aca6117b8d265eaf03ad33eb133f19dde0f5920fa0860405160405180910390a16001905090565b600360009054906101000a900473ffffffffffffffffffffffffffffffffffffffff1681565b60058054600181600116156101000203166002900480601f016020809104026020016040519081016040528092919081815260200182805460018160011615610100020316600290048015610dec5780601f10610dc157610100808354040283529160200191610dec565b820191906000526020600020905b815481529060010190602001808311610dcf57829003601f168201915b505050505081565b6000610e4882600160003373ffffffffffffffffffffffffffffffffffffffff1673ffffffffffffffffffffffffffffffffffffffff1681526020019081526020016000205461110b90919063ffffffff16565b600160003373ffffffffffffffffffffffffffffffffffffffff1673ffffffffffffffffffffffffffffffffffffffff16815260200190815260200160002081905550610edd82600160008673ffffffffffffffffffffffffffffffffffffffff1673ffffffffffffffffffffffffffffffffffffffff168152602001908152602001600020546110ed90919063ffffffff16565b600160008573ffffffffffffffffffffffffffffffffffffffff1673ffffffffffffffffffffffffffffffffffffffff168152602001908152602001600020819055508273ffffffffffffffffffffffffffffffffffffffff163373ffffffffffffffffffffffffffffffffffffffff167fddf252ad1be2c89b69c2b068fc378daa952ba7f163c4a11628f55a4df523b3ef846040518082815260200191505060405180910390a36001905092915050565b6000600260008473ffffffffffffffffffffffffffffffffffffffff1673ffffffffffffffffffffffffffffffffffffffff16815260200190815260200160002060008373ffffffffffffffffffffffffffffffffffffffff1673ffffffffffffffffffffffffffffffffffffffff16815260200190815260200160002054905092915050565b600360009054906101000a900473ffffffffffffffffffffffffffffffffffffffff1673ffffffffffffffffffffffffffffffffffffffff163373ffffffffffffffffffffffffffffffffffffffff1614151561107257600080fd5b600073ffffffffffffffffffffffffffffffffffffffff168173ffffffffffffffffffffffffffffffffffffffff161415156110ea5780600360006101000a81548173ffffffffffffffffffffffffffffffffffffffff021916908373ffffffffffffffffffffffffffffffffffffffff1602179055505b50565b600080828401905083811015151561110157fe5b8091505092915050565b600082821115151561111957fe5b8183039050929150505600a165627a7a72305820bf302a42e8fb4a13b996a2696eaa5f740bc2b7ade75f0e0d43fc611e5e6c85bc0029",
  "source": "pragma solidity ^0.4.11;\n\n                        contract sGuardPlus {\n                                constructor() internal {\n                                        \n                                        \n                                }\n                                \n                                \n                                \n                                \n                        }\n                contract ERC20Basic  {\nuint256  public   totalSupply;\nfunction balanceOf (address    who)  constant returns (uint256    );\nfunction transfer (address    to,uint256    value)   returns (bool    );\nevent Transfer (address  indexed  from,address  indexed  to,uint256    value);\n}\ncontract ERC20 is ERC20Basic {\nfunction allowance (address    owner,address    spender)  constant returns (uint256    );\nfunction transferFrom (address    from,address    to,uint256    value)   returns (bool    );\nfunction approve (address    spender,uint256    value)   returns (bool    );\nevent Approval (address  indexed  owner,address  indexed  spender,uint256    value);\n}\ncontract BasicToken is ERC20Basic {\nusing SafeMath for uint256 ;\nmapping (address  => uint256 )    balances;\nfunction transfer (address    _to,uint256    _value)   returns (bool    ){\nbalances[msg.sender]=balances[msg.sender].sub(_value);\nbalances[_to]=balances[_to].add(_value);\nTransfer(msg.sender, _to, _value);\nreturn true;\n}\n\nfunction balanceOf (address    _owner)  constant returns (uint256    balance){\nreturn balances[_owner];\n}\n\n}\ncontract Crowdsale  {\nusing SafeMath for uint256 ;\nMintableToken  public   token;\nuint256  public   startBlock;\nuint256  public   endBlock;\naddress  public   wallet;\nuint256  public   rate;\nuint256  public   weiRaised;\nevent TokenPurchase (address  indexed  purchaser,address  indexed  beneficiary,uint256    value,uint256    amount);\nconstructor (uint256    _startBlock,uint256    _endBlock,uint256    _rate,address    _wallet)   {\nrequire(_startBlock>=block.number);\nrequire(_endBlock>=_startBlock);\nrequire(_rate>0);\nrequire(_wallet!=0x0);\ntoken=createTokenContract();\nstartBlock=_startBlock;\nendBlock=_endBlock;\nrate=_rate;\nwallet=_wallet;\n}\n\nfunction createTokenContract () internal  returns (MintableToken    ){\nreturn new MintableToken ();\n}\n\nfunction ()  payable {\nbuyTokens(msg.sender);\n}\n\nfunction buyTokens (address    beneficiary)  payable {\nrequire(beneficiary!=0x0);\nrequire(validPurchase());\nuint256     weiAmount = msg.value;\nuint256     tokens = weiAmount.mul(rate);\nweiRaised=weiRaised.add(weiAmount);\nbool     __sent_result100 = token.mint(beneficiary, tokens);\nrequire(__sent_result100);\nTokenPurchase(msg.sender, beneficiary, weiAmount, tokens);\nforwardFunds();\n}\n\nfunction forwardFunds () internal  {\nwallet.transfer(msg.value);\n}\n\nfunction validPurchase () internal constant returns (bool    ){\nuint256     current = block.number;\nbool     withinPeriod = current>=startBlock&&current<=endBlock;\nbool     nonZeroPurchase = msg.value!=0;\nreturn withinPeriod&&nonZeroPurchase;\n}\n\nfunction hasEnded () public constant returns (bool    ){\nreturn block.number>endBlock;\n}\n\n}\ncontract StandardToken is ERC20,BasicToken {\nmapping (address  => mapping (address  => uint256 ))    allowed;\nfunction transferFrom (address    _from,address    _to,uint256    _value)   returns (bool    ){\nvar     _allowance = allowed[_from][msg.sender];\nbalances[_to]=balances[_to].add(_value);\nbalances[_from]=balances[_from].sub(_value);\nallowed[_from][msg.sender]=_allowance.sub(_value);\nTransfer(_from, _to, _value);\nreturn true;\n}\n\nfunction approve (address    _spender,uint256    _value)   returns (bool    ){\nrequire((_value==0)||(allowed[msg.sender][_spender]==0));\nallowed[msg.sender][_spender]=_value;\nApproval(msg.sender, _spender, _value);\nreturn true;\n}\n\nfunction allowance (address    _owner,address    _spender)  constant returns (uint256    remaining){\nreturn allowed[_owner][_spender];\n}\n\n}\ncontract Ownable  {\naddress  public   owner;\nconstructor ()   {\nowner=msg.sender;\n}\n\nmodifier onlyOwner (){\nrequire(msg.sender==owner);\n_;\n}\nfunction transferOwnership (address    newOwner)  onlyOwner  {\nif (newOwner!=address (0))\n{\nowner=newOwner;\n}\n\n}\n\n}\ncontract MintableToken is StandardToken,Ownable {\nevent Mint (address  indexed  to,uint256    amount);\nevent MintFinished ();\nbool  public   mintingFinished = false;\nmodifier canMint (){\nrequire( ! mintingFinished);\n_;\n}\nfunction mint (address    _to,uint256    _amount)  onlyOwner canMint  returns (bool    ){\ntotalSupply=totalSupply.add(_amount);\nbalances[_to]=balances[_to].add(_amount);\nMint(_to, _amount);\nreturn true;\n}\n\nfunction finishMinting ()  onlyOwner  returns (bool    ){\nmintingFinished=true;\nMintFinished();\nreturn true;\n}\n\n}\nlibrary SafeMath  {\nfunction mul (uint256    a,uint256    b) internal constant returns (uint256    ){\nuint256     c = a*b;\nassert(a==0||c/a==b);\nreturn c;\n}\n\nfunction div (uint256    a,uint256    b) internal constant returns (uint256    ){\nuint256     c = a/b;\nreturn c;\n}\n\nfunction sub (uint256    a,uint256    b) internal constant returns (uint256    ){\nassert(b<=a);\nreturn a-b;\n}\n\nfunction add (uint256    a,uint256    b) internal constant returns (uint256    ){\nuint256     c = a+b;\nassert(c>=a);\nreturn c;\n}\n\n}\ncontract HodboToken is MintableToken {\nstring  public   name = \"HODBO TOKEN\";\nstring  public   symbol = \"HCN\";\nuint256  public   decimals = 18;\n}\ncontract HodboCrowdsale is Crowdsale {\nconstructor ()  Crowdsale(4155896, 4355866, 230, 0x21aA5432BB218f49d46B442749Bc69Adad36Fd16)  {\n}\n\nfunction createTokenContract () internal  returns (MintableToken    ){\nreturn new HodboToken ();\n}\n\n}\n",
  "sourcePath": "/workdir/truffle_example/after/0x92033cc5d60de8fc01e7d4125713e05194989e1e/contracts/0x92033Cc5D60dE8fC01e7d4125713e05194989e1e.sol.fixed.sol",
  "compiler": {
    "name": "solc",
    "version": "0.4.25+commit.59dbf8f1.Emscripten.clang"
  },
  "schemaVersion": "3.4.8",
  "updatedAt": "2022-08-13T04:58:46.313Z",
  "devdoc": {
    "methods": {}
  },
  "userdoc": {
    "methods": {}
  }
}