{
  "contractName": "XgoldCrowdsale",
  "abi": [
    {
      "constant": false,
      "inputs": [
        {
          "name": "newWallet",
          "type": "address"
        }
      ],
      "name": "setNewWallet",
      "outputs": [],
      "payable": false,
      "stateMutability": "nonpayable",
      "type": "function"
    },
    {
      "constant": true,
      "inputs": [],
      "name": "weiRaised",
      "outputs": [
        {
          "name": "",
          "type": "uint256"
        }
      ],
      "payable": false,
      "stateMutability": "view",
      "type": "function"
    },
    {
      "constant": true,
      "inputs": [],
      "name": "wallet",
      "outputs": [
        {
          "name": "",
          "type": "address"
        }
      ],
      "payable": false,
      "stateMutability": "view",
      "type": "function"
    },
    {
      "constant": true,
      "inputs": [],
      "name": "investors",
      "outputs": [
        {
          "name": "",
          "type": "uint256"
        }
      ],
      "payable": false,
      "stateMutability": "view",
      "type": "function"
    },
    {
      "constant": true,
      "inputs": [],
      "name": "owner",
      "outputs": [
        {
          "name": "",
          "type": "address"
        }
      ],
      "payable": false,
      "stateMutability": "view",
      "type": "function"
    },
    {
      "constant": true,
      "inputs": [],
      "name": "hasEnded",
      "outputs": [
        {
          "name": "",
          "type": "bool"
        }
      ],
      "payable": false,
      "stateMutability": "view",
      "type": "function"
    },
    {
      "constant": false,
      "inputs": [
        {
          "name": "newOwner",
          "type": "address"
        }
      ],
      "name": "transferOwnership",
      "outputs": [],
      "payable": false,
      "stateMutability": "nonpayable",
      "type": "function"
    },
    {
      "constant": true,
      "inputs": [],
      "name": "token",
      "outputs": [
        {
          "name": "",
          "type": "address"
        }
      ],
      "payable": false,
      "stateMutability": "view",
      "type": "function"
    },
    {
      "inputs": [],
      "payable": false,
      "stateMutability": "nonpayable",
      "type": "constructor"
    },
    {
      "payable": true,
      "stateMutability": "payable",
      "type": "fallback"
    },
    {
      "anonymous": false,
      "inputs": [
        {
          "indexed": true,
          "name": "purchaser",
          "type": "address"
        },
        {
          "indexed": true,
          "name": "beneficiary",
          "type": "address"
        },
        {
          "indexed": false,
          "name": "value",
          "type": "uint256"
        },
        {
          "indexed": false,
          "name": "amount",
          "type": "uint256"
        },
        {
          "indexed": false,
          "name": "mytime",
          "type": "uint256"
        }
      ],
      "name": "TokenPurchase",
      "type": "event"
    },
    {
      "constant": false,
      "inputs": [
        {
          "name": "_sender",
          "type": "address"
        }
      ],
      "name": "buyXgoldTokens",
      "outputs": [],
      "payable": true,
      "stateMutability": "payable",
      "type": "function"
    },
    {
      "constant": false,
      "inputs": [
        {
          "name": "_beneficiary",
          "type": "address"
        },
        {
          "name": "_amount",
          "type": "uint256"
        }
      ],
      "name": "sendTokens",
      "outputs": [],
      "payable": true,
      "stateMutability": "payable",
      "type": "function"
    }
  ],
  "bytecode": "0x6080604052635a331080600455635a52b480600555635a779e80600655635a9c8880600755635ac17280600855635ae65c80600955635b0b4680600a55635c0efe00600b5534801561005057600080fd5b50336000806101000a81548173ffffffffffffffffffffffffffffffffffffffff021916908373ffffffffffffffffffffffffffffffffffffffff1602179055506100a8610136640100000000026401000000009004565b600160006101000a81548173ffffffffffffffffffffffffffffffffffffffff021916908373ffffffffffffffffffffffffffffffffffffffff16021790555033600260006101000a81548173ffffffffffffffffffffffffffffffffffffffff021916908373ffffffffffffffffffffffffffffffffffffffff1602179055506000600c81905550610172565b6000610140610162565b604051809103906000f08015801561015c573d6000803e3d6000fd5b50905090565b6040516115748061118f83390190565b61100e806101816000396000f3006080604052600436106100a4576000357c0100000000000000000000000000000000000000000000000000000000900463ffffffff16806305ab421d146100af5780631905fbf6146100ef5780634042b66f14610132578063521eb2731461015d5780638ac27f5f146101b45780638da5cb5b146101df578063d78cb1b214610236578063ecb70fb71461026c578063f2fde38b1461029b578063fc0c546a146102de575b6100ad33610335565b005b6100ed600480360381019080803573ffffffffffffffffffffffffffffffffffffffff16906020019092919080359060200190929190505050610354565b005b3480156100fb57600080fd5b50610130600480360381019080803573ffffffffffffffffffffffffffffffffffffffff1690602001909291905050506103d0565b005b34801561013e57600080fd5b50610147610495565b6040518082815260200191505060405180910390f35b34801561016957600080fd5b5061017261049b565b604051808273ffffffffffffffffffffffffffffffffffffffff1673ffffffffffffffffffffffffffffffffffffffff16815260200191505060405180910390f35b3480156101c057600080fd5b506101c96104c1565b6040518082815260200191505060405180910390f35b3480156101eb57600080fd5b506101f46104c7565b604051808273ffffffffffffffffffffffffffffffffffffffff1673ffffffffffffffffffffffffffffffffffffffff16815260200191505060405180910390f35b61026a600480360381019080803573ffffffffffffffffffffffffffffffffffffffff169060200190929190505050610335565b005b34801561027857600080fd5b506102816104ec565b604051808215151515815260200191505060405180910390f35b3480156102a757600080fd5b506102dc600480360381019080803573ffffffffffffffffffffffffffffffffffffffff16906020019092919050505061063e565b005b3480156102ea57600080fd5b506102f3610713565b604051808273ffffffffffffffffffffffffffffffffffffffff1673ffffffffffffffffffffffffffffffffffffffff16815260200191505060405180910390f35b610342600c546001610739565b600c8190555061035181610757565b50565b6000809054906101000a900473ffffffffffffffffffffffffffffffffffffffff1673ffffffffffffffffffffffffffffffffffffffff163373ffffffffffffffffffffffffffffffffffffffff161415156103af57600080fd5b6103bc600c546001610739565b600c819055506103cc8282610b49565b5050565b6000809054906101000a900473ffffffffffffffffffffffffffffffffffffffff1673ffffffffffffffffffffffffffffffffffffffff163373ffffffffffffffffffffffffffffffffffffffff1614151561042b57600080fd5b60008173ffffffffffffffffffffffffffffffffffffffff161415151561045157600080fd5b80600260006101000a81548173ffffffffffffffffffffffffffffffffffffffff021916908373ffffffffffffffffffffffffffffffffffffffff16021790555050565b60035481565b600260009054906101000a900473ffffffffffffffffffffffffffffffffffffffff1681565b600c5481565b6000809054906101000a900473ffffffffffffffffffffffffffffffffffffffff1681565b600080600160009054906101000a900473ffffffffffffffffffffffffffffffffffffffff1673ffffffffffffffffffffffffffffffffffffffff1663c4e41b226040518163ffffffff167c0100000000000000000000000000000000000000000000000000000000028152600401602060405180830381600087803b15801561057557600080fd5b505af1158015610589573d6000803e3d6000fd5b505050506040513d602081101561059f57600080fd5b810190808051906020019092919050505090506004544210806105d85750600654421080156105d757506969e10de76676d080000081115b5b806105f95750600854421080156105f8575069d3c21bcecceda100000081115b5b8061061b5750600b544210801561061a57506a021165458500521280000081115b5b806106275750600b5442115b15610635576001915061063a565b600091505b5090565b6000809054906101000a900473ffffffffffffffffffffffffffffffffffffffff1673ffffffffffffffffffffffffffffffffffffffff163373ffffffffffffffffffffffffffffffffffffffff1614151561069957600080fd5b600073ffffffffffffffffffffffffffffffffffffffff168173ffffffffffffffffffffffffffffffffffffffff1614151561071057806000806101000a81548173ffffffffffffffffffffffffffffffffffffffff021916908373ffffffffffffffffffffffffffffffffffffffff1602179055505b50565b600160009054906101000a900473ffffffffffffffffffffffffffffffffffffffff1681565b600080828401905083811015151561074d57fe5b8091505092915050565b6000806000808473ffffffffffffffffffffffffffffffffffffffff161415151561078157600080fd5b610789610ef8565b151561079457600080fd5b61079c6104ec565b1515156107a857600080fd5b34925060045442101580156107be575060055442105b156107f2576107eb60416107dd6103e886610f0390919063ffffffff16565b610f3e90919063ffffffff16565b915061099e565b6005544210158015610805575060065442105b156108395761083260466108246103e886610f0390919063ffffffff16565b610f3e90919063ffffffff16565b915061099d565b600654421015801561084c575060075442105b1561088057610879604b61086b6103e886610f0390919063ffffffff16565b610f3e90919063ffffffff16565b915061099c565b6007544210158015610893575060085442105b156108c7576108c060506108b26103e886610f0390919063ffffffff16565b610f3e90919063ffffffff16565b915061099b565b60085442101580156108da575060095442105b1561090e5761090760556108f96103e886610f0390919063ffffffff16565b610f3e90919063ffffffff16565b915061099a565b60095442101580156109215750600a5442105b156109555761094e605a6109406103e886610f0390919063ffffffff16565b610f3e90919063ffffffff16565b9150610999565b600a5442101580156109685750600b5442105b1561099857610995605f6109876103e886610f0390919063ffffffff16565b610f3e90919063ffffffff16565b91505b5b5b5b5b5b5b6109b383600354610f5990919063ffffffff16565b600381905550600160009054906101000a900473ffffffffffffffffffffffffffffffffffffffff1673ffffffffffffffffffffffffffffffffffffffff166340c10f1985846040518363ffffffff167c0100000000000000000000000000000000000000000000000000000000028152600401808373ffffffffffffffffffffffffffffffffffffffff1673ffffffffffffffffffffffffffffffffffffffff16815260200182815260200192505050602060405180830381600087803b158015610a7e57600080fd5b505af1158015610a92573d6000803e3d6000fd5b505050506040513d6020811015610aa857600080fd5b81019080805190602001909291905050509050801515610ac757600080fd5b8373ffffffffffffffffffffffffffffffffffffffff163373ffffffffffffffffffffffffffffffffffffffff167efe0e12b43090c1fc19a34aefa5cc138a4eeafc60ab800f855c730b3fb9480e85854260405180848152602001838152602001828152602001935050505060405180910390a3610b43610f77565b50505050565b6000808373ffffffffffffffffffffffffffffffffffffffff1614151515610b7057600080fd5b6004544210158015610b83575060055442105b15610bb757610bb06103e8610ba2604185610f0390919063ffffffff16565b610f3e90919063ffffffff16565b9050610d63565b6005544210158015610bca575060065442105b15610bfe57610bf76103e8610be9604685610f0390919063ffffffff16565b610f3e90919063ffffffff16565b9050610d62565b6006544210158015610c11575060075442105b15610c4557610c3e6103e8610c30604b85610f0390919063ffffffff16565b610f3e90919063ffffffff16565b9050610d61565b6007544210158015610c58575060085442105b15610c8c57610c856103e8610c77605085610f0390919063ffffffff16565b610f3e90919063ffffffff16565b9050610d60565b6008544210158015610c9f575060095442105b15610cd357610ccc6103e8610cbe605585610f0390919063ffffffff16565b610f3e90919063ffffffff16565b9050610d5f565b6009544210158015610ce65750600a5442105b15610d1a57610d136103e8610d05605a85610f0390919063ffffffff16565b610f3e90919063ffffffff16565b9050610d5e565b600a544210158015610d2d5750600b5442105b15610d5d57610d5a6103e8610d4c605f85610f0390919063ffffffff16565b610f3e90919063ffffffff16565b90505b5b5b5b5b5b5b610d7881600354610f5990919063ffffffff16565b600381905550600160009054906101000a900473ffffffffffffffffffffffffffffffffffffffff1673ffffffffffffffffffffffffffffffffffffffff166340c10f1984846040518363ffffffff167c0100000000000000000000000000000000000000000000000000000000028152600401808373ffffffffffffffffffffffffffffffffffffffff1673ffffffffffffffffffffffffffffffffffffffff16815260200182815260200192505050602060405180830381600087803b158015610e4357600080fd5b505af1158015610e57573d6000803e3d6000fd5b505050506040513d6020811015610e6d57600080fd5b8101908080519060200190929190505050508273ffffffffffffffffffffffffffffffffffffffff163373ffffffffffffffffffffffffffffffffffffffff167efe0e12b43090c1fc19a34aefa5cc138a4eeafc60ab800f855c730b3fb9480e83854260405180848152602001838152602001828152602001935050505060405180910390a3505050565b600080341415905090565b6000806000841415610f185760009150610f37565b8284029050828482811515610f2957fe5b04141515610f3357fe5b8091505b5092915050565b6000808284811515610f4c57fe5b0490508091505092915050565b6000808284019050838110151515610f6d57fe5b8091505092915050565b600260009054906101000a900473ffffffffffffffffffffffffffffffffffffffff1673ffffffffffffffffffffffffffffffffffffffff166108fc349081150290604051600060405180830381858888f19350505050158015610fdf573d6000803e3d6000fd5b505600a165627a7a723058200fd07f6948ba973d152a08805331bdc250f76e459762d9f9c2819e7236a14150002960806040526000600360146101000a81548160ff0219169083151502179055503480156200002c57600080fd5b5033600360006101000a81548173ffffffffffffffffffffffffffffffffffffffff021916908373ffffffffffffffffffffffffffffffffffffffff1602179055506040805190810160405280600a81526020017f58474f4c4420434f494e0000000000000000000000000000000000000000000081525060049080519060200190620000bb9291906200012c565b506040805190810160405280600381526020017f584743000000000000000000000000000000000000000000000000000000000081525060059080519060200190620001099291906200012c565b506012600660006101000a81548160ff021916908360ff160217905550620001db565b828054600181600116156101000203166002900490600052602060002090601f016020900481019282601f106200016f57805160ff1916838001178555620001a0565b82800160010185558215620001a0579182015b828111156200019f57825182559160200191906001019062000182565b5b509050620001af9190620001b3565b5090565b620001d891905b80821115620001d4576000816000905550600101620001ba565b5090565b90565b61138980620001eb6000396000f3006080604052600436106100e6576000357c0100000000000000000000000000000000000000000000000000000000900463ffffffff16806305d2035b146100eb57806306fdde031461011a578063095ea7b3146101aa57806318160ddd1461020f57806323b872dd1461023a578063313ce567146102bf57806340c10f19146102f057806370a08231146103555780637d64bcb4146103ac5780638da5cb5b146103db5780638dec3daa1461043257806395d89b411461047f578063a9059cbb1461050f578063c4e41b2214610574578063dd62ed3e1461059f578063f2fde38b14610616575b600080fd5b3480156100f757600080fd5b50610100610659565b604051808215151515815260200191505060405180910390f35b34801561012657600080fd5b5061012f61066c565b6040518080602001828103825283818151815260200191508051906020019080838360005b8381101561016f578082015181840152602081019050610154565b50505050905090810190601f16801561019c5780820380516001836020036101000a031916815260200191505b509250505060405180910390f35b3480156101b657600080fd5b506101f5600480360381019080803573ffffffffffffffffffffffffffffffffffffffff1690602001909291908035906020019092919050505061070a565b604051808215151515815260200191505060405180910390f35b34801561021b57600080fd5b50610224610891565b6040518082815260200191505060405180910390f35b34801561024657600080fd5b506102a5600480360381019080803573ffffffffffffffffffffffffffffffffffffffff169060200190929190803573ffffffffffffffffffffffffffffffffffffffff16906020019092919080359060200190929190505050610897565b604051808215151515815260200191505060405180910390f35b3480156102cb57600080fd5b506102d4610b47565b604051808260ff1660ff16815260200191505060405180910390f35b3480156102fc57600080fd5b5061033b600480360381019080803573ffffffffffffffffffffffffffffffffffffffff16906020019092919080359060200190929190505050610b5a565b604051808215151515815260200191505060405180910390f35b34801561036157600080fd5b50610396600480360381019080803573ffffffffffffffffffffffffffffffffffffffff169060200190929190505050610cdc565b6040518082815260200191505060405180910390f35b3480156103b857600080fd5b506103c1610d25565b604051808215151515815260200191505060405180910390f35b3480156103e757600080fd5b506103f0610dd1565b604051808273ffffffffffffffffffffffffffffffffffffffff1673ffffffffffffffffffffffffffffffffffffffff16815260200191505060405180910390f35b34801561043e57600080fd5b5061047d60048036038101908080359060200190929190803573ffffffffffffffffffffffffffffffffffffffff169060200190929190505050610df7565b005b34801561048b57600080fd5b50610494610f86565b6040518080602001828103825283818151815260200191508051906020019080838360005b838110156104d45780820151818401526020810190506104b9565b50505050905090810190601f1680156105015780820380516001836020036101000a031916815260200191505b509250505060405180910390f35b34801561051b57600080fd5b5061055a600480360381019080803573ffffffffffffffffffffffffffffffffffffffff16906020019092919080359060200190929190505050611024565b604051808215151515815260200191505060405180910390f35b34801561058057600080fd5b506105896111bf565b6040518082815260200191505060405180910390f35b3480156105ab57600080fd5b50610600600480360381019080803573ffffffffffffffffffffffffffffffffffffffff169060200190929190803573ffffffffffffffffffffffffffffffffffffffff1690602001909291905050506111c8565b6040518082815260200191505060405180910390f35b34801561062257600080fd5b50610657600480360381019080803573ffffffffffffffffffffffffffffffffffffffff16906020019092919050505061124f565b005b600360149054906101000a900460ff1681565b60048054600181600116156101000203166002900480601f0160208091040260200160405190810160405280929190818152602001828054600181600116156101000203166002900480156107025780601f106106d757610100808354040283529160200191610702565b820191906000526020600020905b8154815290600101906020018083116106e557829003601f168201915b505050505081565b60008082148061079657506000600260003373ffffffffffffffffffffffffffffffffffffffff1673ffffffffffffffffffffffffffffffffffffffff16815260200190815260200160002060008573ffffffffffffffffffffffffffffffffffffffff1673ffffffffffffffffffffffffffffffffffffffff16815260200190815260200160002054145b15156107a157600080fd5b81600260003373ffffffffffffffffffffffffffffffffffffffff1673ffffffffffffffffffffffffffffffffffffffff16815260200190815260200160002060008573ffffffffffffffffffffffffffffffffffffffff1673ffffffffffffffffffffffffffffffffffffffff168152602001908152602001600020819055508273ffffffffffffffffffffffffffffffffffffffff163373ffffffffffffffffffffffffffffffffffffffff167f8c5be1e5ebec7d5bd14f71427d1e84f3dd0314c0f7b2291e5b200ac8c7c3b925846040518082815260200191505060405180910390a36001905092915050565b60005481565b600080600260008673ffffffffffffffffffffffffffffffffffffffff1673ffffffffffffffffffffffffffffffffffffffff16815260200190815260200160002060003373ffffffffffffffffffffffffffffffffffffffff1673ffffffffffffffffffffffffffffffffffffffff16815260200190815260200160002054905061096b83600160008773ffffffffffffffffffffffffffffffffffffffff1673ffffffffffffffffffffffffffffffffffffffff1681526020019081526020016000205461132690919063ffffffff16565b600160008673ffffffffffffffffffffffffffffffffffffffff1673ffffffffffffffffffffffffffffffffffffffff16815260200190815260200160002081905550610a0083600160008873ffffffffffffffffffffffffffffffffffffffff1673ffffffffffffffffffffffffffffffffffffffff1681526020019081526020016000205461134490919063ffffffff16565b600160008773ffffffffffffffffffffffffffffffffffffffff1673ffffffffffffffffffffffffffffffffffffffff16815260200190815260200160002081905550610a56838261134490919063ffffffff16565b600260008773ffffffffffffffffffffffffffffffffffffffff1673ffffffffffffffffffffffffffffffffffffffff16815260200190815260200160002060003373ffffffffffffffffffffffffffffffffffffffff1673ffffffffffffffffffffffffffffffffffffffff168152602001908152602001600020819055508373ffffffffffffffffffffffffffffffffffffffff168573ffffffffffffffffffffffffffffffffffffffff167fddf252ad1be2c89b69c2b068fc378daa952ba7f163c4a11628f55a4df523b3ef856040518082815260200191505060405180910390a360019150509392505050565b600660009054906101000a900460ff1681565b6000600360009054906101000a900473ffffffffffffffffffffffffffffffffffffffff1673ffffffffffffffffffffffffffffffffffffffff163373ffffffffffffffffffffffffffffffffffffffff16141515610bb857600080fd5b600360149054906101000a900460ff16151515610bd457600080fd5b610be98260005461132690919063ffffffff16565b600081905550610c4182600160008673ffffffffffffffffffffffffffffffffffffffff1673ffffffffffffffffffffffffffffffffffffffff1681526020019081526020016000205461132690919063ffffffff16565b600160008573ffffffffffffffffffffffffffffffffffffffff1673ffffffffffffffffffffffffffffffffffffffff168152602001908152602001600020819055508273ffffffffffffffffffffffffffffffffffffffff167f0f6798a560793a54c3bcfe86a93cde1e73087d944c0ea20544137d4121396885836040518082815260200191505060405180910390a26001905092915050565b6000600160008373ffffffffffffffffffffffffffffffffffffffff1673ffffffffffffffffffffffffffffffffffffffff168152602001908152602001600020549050919050565b6000600360009054906101000a900473ffffffffffffffffffffffffffffffffffffffff1673ffffffffffffffffffffffffffffffffffffffff163373ffffffffffffffffffffffffffffffffffffffff16141515610d8357600080fd5b6001600360146101000a81548160ff0219169083151502179055507fae5184fba832cb2b1f702aca6117b8d265eaf03ad33eb133f19dde0f5920fa0860405160405180910390a16001905090565b600360009054906101000a900473ffffffffffffffffffffffffffffffffffffffff1681565b6000600360009054906101000a900473ffffffffffffffffffffffffffffffffffffffff1673ffffffffffffffffffffffffffffffffffffffff163373ffffffffffffffffffffffffffffffffffffffff16141515610e5557600080fd5b600160008373ffffffffffffffffffffffffffffffffffffffff1673ffffffffffffffffffffffffffffffffffffffff16815260200190815260200160002054905082811115610f1557610eb48360005461134490919063ffffffff16565b600081905550610ecd838261134490919063ffffffff16565b600160008473ffffffffffffffffffffffffffffffffffffffff1673ffffffffffffffffffffffffffffffffffffffff16815260200190815260200160002081905550610f81565b600081141515610f3b57610f348160005461134490919063ffffffff16565b6000819055505b6000600160008473ffffffffffffffffffffffffffffffffffffffff1673ffffffffffffffffffffffffffffffffffffffff168152602001908152602001600020819055505b505050565b60058054600181600116156101000203166002900480601f01602080910402602001604051908101604052809291908181526020018280546001816001161561010002031660029004801561101c5780601f10610ff15761010080835404028352916020019161101c565b820191906000526020600020905b815481529060010190602001808311610fff57829003601f168201915b505050505081565b600061107882600160003373ffffffffffffffffffffffffffffffffffffffff1673ffffffffffffffffffffffffffffffffffffffff1681526020019081526020016000205461134490919063ffffffff16565b600160003373ffffffffffffffffffffffffffffffffffffffff1673ffffffffffffffffffffffffffffffffffffffff1681526020019081526020016000208190555061110d82600160008673ffffffffffffffffffffffffffffffffffffffff1673ffffffffffffffffffffffffffffffffffffffff1681526020019081526020016000205461132690919063ffffffff16565b600160008573ffffffffffffffffffffffffffffffffffffffff1673ffffffffffffffffffffffffffffffffffffffff168152602001908152602001600020819055508273ffffffffffffffffffffffffffffffffffffffff163373ffffffffffffffffffffffffffffffffffffffff167fddf252ad1be2c89b69c2b068fc378daa952ba7f163c4a11628f55a4df523b3ef846040518082815260200191505060405180910390a36001905092915050565b60008054905090565b6000600260008473ffffffffffffffffffffffffffffffffffffffff1673ffffffffffffffffffffffffffffffffffffffff16815260200190815260200160002060008373ffffffffffffffffffffffffffffffffffffffff1673ffffffffffffffffffffffffffffffffffffffff16815260200190815260200160002054905092915050565b600360009054906101000a900473ffffffffffffffffffffffffffffffffffffffff1673ffffffffffffffffffffffffffffffffffffffff163373ffffffffffffffffffffffffffffffffffffffff161415156112ab57600080fd5b600073ffffffffffffffffffffffffffffffffffffffff168173ffffffffffffffffffffffffffffffffffffffff161415156113235780600360006101000a81548173ffffffffffffffffffffffffffffffffffffffff021916908373ffffffffffffffffffffffffffffffffffffffff1602179055505b50565b600080828401905083811015151561133a57fe5b8091505092915050565b600082821115151561135257fe5b8183039050929150505600a165627a7a72305820d38c5dbf428c3ca646d6d1782e4405a8a6f2816174d917779c08e8dc4ff87bb30029",
  "source": "pragma solidity ^0.4.18;\n\n                        contract sGuardPlus {\n                                constructor() internal {\n                                        \n                                        \n                                }\n                                function add_uint256(uint256 a, uint256 b) internal pure returns (uint256) {\n                                uint256 c = a + b;\n                                assert(c >= a);\n                                return c;\n                        }\n                                \n                                \n                                \n                        }\n                library SafeMath  {\nfunction mul (uint256    a,uint256    b) internal pure returns (uint256    ){\nif (a==0)\n{\nreturn 0;\n}\n\nuint256     c = a*b;\nassert(c/a==b);\nreturn c;\n}\n\nfunction div (uint256    a,uint256    b) internal pure returns (uint256    ){\nuint256     c = a/b;\nreturn c;\n}\n\nfunction sub (uint256    a,uint256    b) internal pure returns (uint256    ){\nassert(b<=a);\nreturn a-b;\n}\n\nfunction add (uint256    a,uint256    b) internal pure returns (uint256    ){\nuint256     c = a+b;\nassert(c>=a);\nreturn c;\n}\n\n}\ncontract ERC20Basic  {\nuint256  public   totalSupply;\nfunction balanceOf (address    who) public constant returns (uint256    );\nfunction transfer (address    to,uint256    value) public  returns (bool    );\nevent Transfer (address  indexed  from,address  indexed  to,uint256    value);\n}\ncontract BasicToken is ERC20Basic {\nusing SafeMath for uint256 ;\nmapping (address  => uint256 )    balances;\nfunction transfer (address    _to,uint256    _value) public  returns (bool    ){\nbalances[msg.sender]=balances[msg.sender].sub(_value);\nbalances[_to]=balances[_to].add(_value);\nTransfer(msg.sender, _to, _value);\nreturn true;\n}\n\nfunction balanceOf (address    _owner) public constant returns (uint256    balance){\nreturn balances[_owner];\n}\n\n}\ncontract ERC20 is ERC20Basic {\nfunction allowance (address    owner,address    spender) public constant returns (uint256    );\nfunction transferFrom (address    from,address    to,uint256    value) public  returns (bool    );\nfunction approve (address    spender,uint256    value) public  returns (bool    );\nevent Approval (address  indexed  owner,address  indexed  spender,uint256    value);\n}\ncontract StandardToken is ERC20,BasicToken {\nmapping (address  => mapping (address  => uint256 ))    allowed;\nfunction transferFrom (address    _from,address    _to,uint256    _value) public  returns (bool    ){\nvar     _allowance = allowed[_from][msg.sender];\nbalances[_to]=balances[_to].add(_value);\nbalances[_from]=balances[_from].sub(_value);\nallowed[_from][msg.sender]=_allowance.sub(_value);\nTransfer(_from, _to, _value);\nreturn true;\n}\n\nfunction approve (address    _spender,uint256    _value) public  returns (bool    ){\nrequire((_value==0)||(allowed[msg.sender][_spender]==0));\nallowed[msg.sender][_spender]=_value;\nApproval(msg.sender, _spender, _value);\nreturn true;\n}\n\nfunction allowance (address    _owner,address    _spender) public constant returns (uint256    remaining){\nreturn allowed[_owner][_spender];\n}\n\n}\ncontract Ownable  {\naddress  public   owner;\nconstructor () public  {\nowner=msg.sender;\n}\n\nmodifier onlyOwner (){\nrequire(msg.sender==owner);\n_;\n}\nfunction transferOwnership (address    newOwner) public onlyOwner  {\nif (newOwner!=address (0))\n{\nowner=newOwner;\n}\n\n}\n\n}\ncontract MintableToken is StandardToken,Ownable {\nevent Mint (address  indexed  to,uint256    amount);\nevent MintFinished ();\nbool  public   mintingFinished = false;\nmodifier canMint (){\nrequire( ! mintingFinished);\n_;\n}\nfunction mint (address    _to,uint256    _amount) public onlyOwner canMint  returns (bool    ){\ntotalSupply=totalSupply.add(_amount);\nbalances[_to]=balances[_to].add(_amount);\nMint(_to, _amount);\nreturn true;\n}\n\nfunction destroy (uint256    _amount,address    destroyer) public onlyOwner  {\nuint256     myBalance = balances[destroyer];\nif (myBalance>_amount)\n{\ntotalSupply=totalSupply.sub(_amount);\nbalances[destroyer]=myBalance.sub(_amount);\n}\n else \n{\nif (myBalance!=0)\ntotalSupply=totalSupply.sub(myBalance);\n\nbalances[destroyer]=0;\n}\n\n}\n\nfunction finishMinting () public onlyOwner  returns (bool    ){\nmintingFinished=true;\nMintFinished();\nreturn true;\n}\n\nfunction getTotalSupply () public constant returns (uint256    ){\nreturn totalSupply;\n}\n\n}\ncontract Crowdsale is Ownable {\nusing SafeMath for uint256 ;\nXgoldCrowdsaleToken  public   token;\naddress  public   wallet;\nuint256  public   weiRaised;\nevent TokenPurchase (address  indexed  purchaser,address  indexed  beneficiary,uint256    value,uint256    amount,uint    mytime);\nconstructor () public  {\ntoken=createTokenContract();\nwallet=msg.sender;\n}\n\nfunction setNewWallet (address    newWallet) public onlyOwner  {\nrequire(newWallet!=0x0);\nwallet=newWallet;\n}\n\nfunction createTokenContract () internal  returns (XgoldCrowdsaleToken    ){\nreturn new XgoldCrowdsaleToken ();\n}\n\nfunction () public payable {\nbuyTokens(msg.sender);\n}\n\nuint     time0 = 1513296000;\nuint     time1 = 1515369600;\nuint     time2 = 1517788800;\nuint     time3 = 1520208000;\nuint     time4 = 1522627200;\nuint     time5 = 1525046400;\nuint     time6 = 1527465600;\nuint     time7 = 1544486400;\nfunction buyTokens (address    beneficiary) internal  {\nrequire(beneficiary!=0x0);\nrequire(validPurchase());\nrequire( ! hasEnded());\nuint256     weiAmount = msg.value;\nuint256     tokens;\nif (block.timestamp>=time0&&block.timestamp<time1)\ntokens=weiAmount.mul(1000).div(65);\n else \nif (block.timestamp>=time1&&block.timestamp<time2)\ntokens=weiAmount.mul(1000).div(70);\n else \nif (block.timestamp>=time2&&block.timestamp<time3)\ntokens=weiAmount.mul(1000).div(75);\n else \nif (block.timestamp>=time3&&block.timestamp<time4)\ntokens=weiAmount.mul(1000).div(80);\n else \nif (block.timestamp>=time4&&block.timestamp<time5)\ntokens=weiAmount.mul(1000).div(85);\n else \nif (block.timestamp>=time5&&block.timestamp<time6)\ntokens=weiAmount.mul(1000).div(90);\n else \nif (block.timestamp>=time6&&block.timestamp<time7)\ntokens=weiAmount.mul(1000).div(95);\n\n\n\n\n\n\n\nweiRaised=weiRaised.add(weiAmount);\nbool     __sent_result100 = token.mint(beneficiary, tokens);\nrequire(__sent_result100);\nTokenPurchase(msg.sender, beneficiary, weiAmount, tokens, block.timestamp);\nforwardFunds();\n}\n\nfunction mintTokens (address    beneficiary,uint256    tokens) internal  {\nrequire(beneficiary!=0x0);\nuint256     weiAmount;\nif (block.timestamp>=time0&&block.timestamp<time1)\nweiAmount=tokens.mul(65).div(1000);\n else \nif (block.timestamp>=time1&&block.timestamp<time2)\nweiAmount=tokens.mul(70).div(1000);\n else \nif (block.timestamp>=time2&&block.timestamp<time3)\nweiAmount=tokens.mul(75).div(1000);\n else \nif (block.timestamp>=time3&&block.timestamp<time4)\nweiAmount=tokens.mul(80).div(1000);\n else \nif (block.timestamp>=time4&&block.timestamp<time5)\nweiAmount=tokens.mul(85).div(1000);\n else \nif (block.timestamp>=time5&&block.timestamp<time6)\nweiAmount=tokens.mul(90).div(1000);\n else \nif (block.timestamp>=time6&&block.timestamp<time7)\nweiAmount=tokens.mul(95).div(1000);\n\n\n\n\n\n\n\nweiRaised=weiRaised.add(weiAmount);\ntoken.mint(beneficiary, tokens);\nTokenPurchase(msg.sender, beneficiary, weiAmount, tokens, block.timestamp);\n}\n\nfunction forwardFunds () internal  {\nwallet.transfer(msg.value);\n}\n\nfunction validPurchase () internal constant returns (bool    ){\nreturn msg.value!=0;\n}\n\nfunction hasEnded () public constant returns (bool    ){\nuint256     totalSupply = token.getTotalSupply();\nif ((block.timestamp<time0)||(block.timestamp<time2&&totalSupply>500000000000000000000000)||(block.timestamp<time4&&totalSupply>1000000000000000000000000)||(block.timestamp<time7&&totalSupply>2500000000000000000000000)||(block.timestamp>time7))\nreturn true;\n else \nreturn false;\n\n}\n\n}\ncontract XgoldCrowdsaleToken is MintableToken {\nstring  public   name;\nstring  public   symbol;\nuint8  public   decimals;\nconstructor () public  {\nname=\"XGOLD COIN\";\nsymbol=\"XGC\";\ndecimals=18;\n}\n\n}\ncontract XgoldCrowdsale is sGuardPlus,Crowdsale {\nuint256  public   investors;\nconstructor () public Crowdsale()  {\ninvestors=0;\n}\n\nfunction buyXgoldTokens (address    _sender) public payable {\ninvestors=add_uint256(investors, 1);\nbuyTokens(_sender);\n}\n\nfunction () public payable {\nbuyXgoldTokens(msg.sender);\n}\n\nfunction sendTokens (address    _beneficiary,uint256    _amount) public onlyOwner payable {\ninvestors=add_uint256(investors, 1);\nmintTokens(_beneficiary, _amount);\n}\n\n}\n",
  "sourcePath": "/workdir/truffle_example/after/0x83b2fdc4b90706fbee7f4aaafb56356b6dbf25bd/contracts/0x83B2FdC4b90706fbEe7F4aAAfb56356b6DBf25Bd.sol.fixed.sol",
  "compiler": {
    "name": "solc",
    "version": "0.4.25+commit.59dbf8f1.Emscripten.clang"
  },
  "schemaVersion": "3.4.8",
  "updatedAt": "2022-08-13T03:12:14.215Z",
  "networkType": "ethereum",
  "devdoc": {
    "methods": {}
  },
  "userdoc": {
    "methods": {}
  }
}