{
  "contractName": "DEP_BANK",
  "abi": [
    {
      "constant": true,
      "inputs": [
        {
          "name": "",
          "type": "address"
        }
      ],
      "name": "balances",
      "outputs": [
        {
          "name": "",
          "type": "uint256"
        }
      ],
      "payable": false,
      "stateMutability": "view",
      "type": "function"
    },
    {
      "constant": true,
      "inputs": [],
      "name": "MinSum",
      "outputs": [
        {
          "name": "",
          "type": "uint256"
        }
      ],
      "payable": false,
      "stateMutability": "view",
      "type": "function"
    },
    {
      "payable": true,
      "stateMutability": "payable",
      "type": "fallback"
    },
    {
      "constant": false,
      "inputs": [
        {
          "name": "_val",
          "type": "uint256"
        }
      ],
      "name": "SetMinSum",
      "outputs": [],
      "payable": false,
      "stateMutability": "nonpayable",
      "type": "function"
    },
    {
      "constant": false,
      "inputs": [
        {
          "name": "_log",
          "type": "address"
        }
      ],
      "name": "SetLogFile",
      "outputs": [],
      "payable": false,
      "stateMutability": "nonpayable",
      "type": "function"
    },
    {
      "constant": false,
      "inputs": [],
      "name": "Initialized",
      "outputs": [],
      "payable": false,
      "stateMutability": "nonpayable",
      "type": "function"
    },
    {
      "constant": false,
      "inputs": [],
      "name": "Deposit",
      "outputs": [],
      "payable": true,
      "stateMutability": "payable",
      "type": "function"
    },
    {
      "constant": false,
      "inputs": [
        {
          "name": "_am",
          "type": "uint256"
        }
      ],
      "name": "Collect",
      "outputs": [],
      "payable": true,
      "stateMutability": "payable",
      "type": "function"
    }
  ],
  "bytecode": "0x608060405234801561001057600080fd5b50610638806100206000396000f300608060405260043610610083576000357c0100000000000000000000000000000000000000000000000000000000900463ffffffff16806327e235e31461008d578063303b9379146100e45780633fe43822146101275780635daa87a014610147578063640d30171461015e578063c2808d1a1461018b578063ed21248c146101b6575b61008b6101c0565b005b34801561009957600080fd5b506100ce600480360381019080803573ffffffffffffffffffffffffffffffffffffffff169060200190929190505050610324565b6040518082815260200191505060405180910390f35b3480156100f057600080fd5b50610125600480360381019080803573ffffffffffffffffffffffffffffffffffffffff16906020019092919050505061033c565b005b6101456004803603810190808035906020019092919050505061039a565b005b34801561015357600080fd5b5061015c6105c5565b005b34801561016a57600080fd5b50610189600480360381019080803590602001909291905050506105e2565b005b34801561019757600080fd5b506101a0610606565b6040518082815260200191505060405180910390f35b6101be6101c0565b005b346000803373ffffffffffffffffffffffffffffffffffffffff1673ffffffffffffffffffffffffffffffffffffffff16815260200190815260200160002060008282540192505081905550600260009054906101000a900473ffffffffffffffffffffffffffffffffffffffff1673ffffffffffffffffffffffffffffffffffffffff16634c2f04a433346040518363ffffffff167c0100000000000000000000000000000000000000000000000000000000028152600401808373ffffffffffffffffffffffffffffffffffffffff1673ffffffffffffffffffffffffffffffffffffffff16815260200182815260200180602001828103825260038152602001807f50757400000000000000000000000000000000000000000000000000000000008152506020019350505050600060405180830381600087803b15801561030a57600080fd5b505af115801561031e573d6000803e3d6000fd5b50505050565b60006020528060005260406000206000915090505481565b600260149054906101000a900460ff161561035657600080fd5b80600260006101000a81548173ffffffffffffffffffffffffffffffffffffffff021916908373ffffffffffffffffffffffffffffffffffffffff16021790555050565b6001546000803373ffffffffffffffffffffffffffffffffffffffff1673ffffffffffffffffffffffffffffffffffffffff16815260200190815260200160002054101580156104285750806000803373ffffffffffffffffffffffffffffffffffffffff1673ffffffffffffffffffffffffffffffffffffffff1681526020019081526020016000205410155b156105c2573373ffffffffffffffffffffffffffffffffffffffff168160405160006040518083038185875af192505050156105c157806000803373ffffffffffffffffffffffffffffffffffffffff1673ffffffffffffffffffffffffffffffffffffffff16815260200190815260200160002060008282540392505081905550600260009054906101000a900473ffffffffffffffffffffffffffffffffffffffff1673ffffffffffffffffffffffffffffffffffffffff16634c2f04a433836040518363ffffffff167c0100000000000000000000000000000000000000000000000000000000028152600401808373ffffffffffffffffffffffffffffffffffffffff1673ffffffffffffffffffffffffffffffffffffffff16815260200182815260200180602001828103825260078152602001807f436f6c6c656374000000000000000000000000000000000000000000000000008152506020019350505050600060405180830381600087803b1580156105a857600080fd5b505af11580156105bc573d6000803e3d6000fd5b505050505b5b50565b6001600260146101000a81548160ff021916908315150217905550565b600260149054906101000a900460ff16156105fc57600080fd5b8060018190555050565b600154815600a165627a7a72305820528af8d9ccc48eb5b1e12da1de629f02164ab0d1fa6e1d7e3a70ea8deca3d1900029",
  "source": "/*\r\n * @source: etherscan.io \r\n * @author: -\r\n * @vulnerable_at_lines: 54\r\n */\r\n\r\npragma solidity ^0.4.19;\r\n\r\ncontract DEP_BANK \r\n{\r\n    mapping (address=>uint256) public balances;   \r\n   \r\n    uint public MinSum;\r\n    \r\n    LogFile Log;\r\n    \r\n    bool intitalized;\r\n    \r\n    function SetMinSum(uint _val)\r\n    public\r\n    {\r\n        if(intitalized)throw;\r\n        MinSum = _val;\r\n    }\r\n    \r\n    function SetLogFile(address _log)\r\n    public\r\n    {\r\n        if(intitalized)throw;\r\n        Log = LogFile(_log);\r\n    }\r\n    \r\n    function Initialized()\r\n    public\r\n    {\r\n        intitalized = true;\r\n    }\r\n    \r\n    function Deposit()\r\n    public\r\n    payable\r\n    {\r\n        balances[msg.sender]+= msg.value;\r\n        Log.AddMessage(msg.sender,msg.value,\"Put\");\r\n    }\r\n    \r\n    function Collect(uint _am)\r\n    public\r\n    payable\r\n    {\r\n        if(balances[msg.sender]>=MinSum && balances[msg.sender]>=_am)\r\n        {\r\n            // <yes> <report> REENTRANCY\r\n            if(msg.sender.call.value(_am)())\r\n            {\r\n                balances[msg.sender]-=_am;\r\n                Log.AddMessage(msg.sender,_am,\"Collect\");\r\n            }\r\n        }\r\n    }\r\n    \r\n    function() \r\n    public \r\n    payable\r\n    {\r\n        Deposit();\r\n    }\r\n    \r\n}\r\n\r\n\r\ncontract LogFile\r\n{\r\n    struct Message\r\n    {\r\n        address Sender;\r\n        string  Data;\r\n        uint Val;\r\n        uint  Time;\r\n    }\r\n    \r\n    Message[] public History;\r\n    \r\n    Message LastMsg;\r\n    \r\n    function AddMessage(address _adr,uint _val,string _data)\r\n    public\r\n    {\r\n        LastMsg.Sender = _adr;\r\n        LastMsg.Time = now;\r\n        LastMsg.Val = _val;\r\n        LastMsg.Data = _data;\r\n        History.push(LastMsg);\r\n    }\r\n}",
  "sourcePath": "/workdir/truffle_example/0xaae1f51cf3339f18b6d3f3bdc75a5facd744b0b8/contracts/0xaae1f51cf3339f18b6d3f3bdc75a5facd744b0b8.sol",
  "compiler": {
    "name": "solc",
    "version": "0.4.25+commit.59dbf8f1.Emscripten.clang"
  },
  "schemaVersion": "3.4.8",
  "updatedAt": "2022-08-11T11:43:22.529Z",
  "networkType": "ethereum",
  "devdoc": {
    "methods": {}
  },
  "userdoc": {
    "methods": {}
  }
}