{
  "contractName": "token",
  "abi": [
    {
      "constant": true,
      "inputs": [],
      "name": "name",
      "outputs": [
        {
          "name": "",
          "type": "string"
        }
      ],
      "payable": false,
      "stateMutability": "view",
      "type": "function"
    },
    {
      "constant": true,
      "inputs": [],
      "name": "totalSupply",
      "outputs": [
        {
          "name": "",
          "type": "uint256"
        }
      ],
      "payable": false,
      "stateMutability": "view",
      "type": "function"
    },
    {
      "constant": true,
      "inputs": [
        {
          "name": "",
          "type": "address"
        }
      ],
      "name": "indexes",
      "outputs": [
        {
          "name": "",
          "type": "uint256"
        }
      ],
      "payable": false,
      "stateMutability": "view",
      "type": "function"
    },
    {
      "constant": true,
      "inputs": [],
      "name": "decimals",
      "outputs": [
        {
          "name": "",
          "type": "uint8"
        }
      ],
      "payable": false,
      "stateMutability": "view",
      "type": "function"
    },
    {
      "constant": true,
      "inputs": [],
      "name": "standard",
      "outputs": [
        {
          "name": "",
          "type": "string"
        }
      ],
      "payable": false,
      "stateMutability": "view",
      "type": "function"
    },
    {
      "constant": true,
      "inputs": [
        {
          "name": "",
          "type": "address"
        }
      ],
      "name": "balanceOf",
      "outputs": [
        {
          "name": "",
          "type": "uint256"
        }
      ],
      "payable": false,
      "stateMutability": "view",
      "type": "function"
    },
    {
      "constant": true,
      "inputs": [],
      "name": "symbol",
      "outputs": [
        {
          "name": "",
          "type": "string"
        }
      ],
      "payable": false,
      "stateMutability": "view",
      "type": "function"
    },
    {
      "constant": true,
      "inputs": [
        {
          "name": "",
          "type": "address"
        },
        {
          "name": "",
          "type": "address"
        }
      ],
      "name": "allowance",
      "outputs": [
        {
          "name": "",
          "type": "uint256"
        }
      ],
      "payable": false,
      "stateMutability": "view",
      "type": "function"
    },
    {
      "constant": true,
      "inputs": [
        {
          "name": "",
          "type": "uint256"
        }
      ],
      "name": "addresses",
      "outputs": [
        {
          "name": "",
          "type": "address"
        }
      ],
      "payable": false,
      "stateMutability": "view",
      "type": "function"
    },
    {
      "constant": true,
      "inputs": [],
      "name": "lastIndex",
      "outputs": [
        {
          "name": "",
          "type": "uint256"
        }
      ],
      "payable": false,
      "stateMutability": "view",
      "type": "function"
    },
    {
      "inputs": [
        {
          "name": "initialSupply",
          "type": "uint256"
        },
        {
          "name": "tokenName",
          "type": "string"
        },
        {
          "name": "decimalUnits",
          "type": "uint8"
        },
        {
          "name": "tokenSymbol",
          "type": "string"
        }
      ],
      "payable": false,
      "stateMutability": "nonpayable",
      "type": "constructor"
    },
    {
      "payable": false,
      "stateMutability": "nonpayable",
      "type": "fallback"
    },
    {
      "anonymous": false,
      "inputs": [
        {
          "indexed": true,
          "name": "from",
          "type": "address"
        },
        {
          "indexed": true,
          "name": "to",
          "type": "address"
        },
        {
          "indexed": false,
          "name": "value",
          "type": "uint256"
        }
      ],
      "name": "Transfer",
      "type": "event"
    },
    {
      "constant": false,
      "inputs": [
        {
          "name": "_to",
          "type": "address"
        },
        {
          "name": "_value",
          "type": "uint256"
        }
      ],
      "name": "transfer",
      "outputs": [],
      "payable": false,
      "stateMutability": "nonpayable",
      "type": "function"
    },
    {
      "constant": false,
      "inputs": [
        {
          "name": "_spender",
          "type": "address"
        },
        {
          "name": "_value",
          "type": "uint256"
        }
      ],
      "name": "approve",
      "outputs": [
        {
          "name": "success",
          "type": "bool"
        }
      ],
      "payable": false,
      "stateMutability": "nonpayable",
      "type": "function"
    },
    {
      "constant": false,
      "inputs": [
        {
          "name": "_spender",
          "type": "address"
        },
        {
          "name": "_value",
          "type": "uint256"
        },
        {
          "name": "_extraData",
          "type": "bytes"
        }
      ],
      "name": "approveAndCall",
      "outputs": [
        {
          "name": "success",
          "type": "bool"
        }
      ],
      "payable": false,
      "stateMutability": "nonpayable",
      "type": "function"
    },
    {
      "constant": false,
      "inputs": [
        {
          "name": "_from",
          "type": "address"
        },
        {
          "name": "_to",
          "type": "address"
        },
        {
          "name": "_value",
          "type": "uint256"
        }
      ],
      "name": "transferFrom",
      "outputs": [
        {
          "name": "success",
          "type": "bool"
        }
      ],
      "payable": false,
      "stateMutability": "nonpayable",
      "type": "function"
    }
  ],
  "bytecode": "0x60806040526040805190810160405280600781526020017f54313020312e30000000000000000000000000000000000000000000000000008152506000908051906020019062000051929190620001e9565b5060006009553480156200006457600080fd5b50604051620012c6380380620012c68339810180604052810190808051906020019092919080518201929190602001805190602001909291908051820192919050505083600560003373ffffffffffffffffffffffffffffffffffffffff1673ffffffffffffffffffffffffffffffffffffffff168152602001908152602001600020819055508360048190555082600190805190602001906200010a929190620001e9565b50806002908051906020019062000123929190620001e9565b5081600360006101000a81548160ff021916908360ff16021790555033600860006001815260200190815260200160002060006101000a81548173ffffffffffffffffffffffffffffffffffffffff021916908373ffffffffffffffffffffffffffffffffffffffff1602179055506001600760003373ffffffffffffffffffffffffffffffffffffffff1673ffffffffffffffffffffffffffffffffffffffff1681526020019081526020016000208190555060016009819055505050505062000298565b828054600181600116156101000203166002900490600052602060002090601f016020900481019282601f106200022c57805160ff19168380011785556200025d565b828001600101855582156200025d579182015b828111156200025c5782518255916020019190600101906200023f565b5b5090506200026c919062000270565b5090565b6200029591905b808211156200029157600081600090555060010162000277565b5090565b90565b61101e80620002a86000396000f3006080604052600436106100d0576000357c0100000000000000000000000000000000000000000000000000000000900463ffffffff16806306fdde03146100e2578063095ea7b31461017257806318160ddd146101d757806323b872dd146102025780632db78d9314610287578063313ce567146102de5780635a3b7e421461030f57806370a082311461039f57806395d89b41146103f6578063a9059cbb14610486578063cae9ca51146104d3578063dd62ed3e1461057e578063edf26d9b146105f5578063f3f6f0d714610662575b3480156100dc57600080fd5b50600080fd5b3480156100ee57600080fd5b506100f761068d565b6040518080602001828103825283818151815260200191508051906020019080838360005b8381101561013757808201518184015260208101905061011c565b50505050905090810190601f1680156101645780820380516001836020036101000a031916815260200191505b509250505060405180910390f35b34801561017e57600080fd5b506101bd600480360381019080803573ffffffffffffffffffffffffffffffffffffffff1690602001909291908035906020019092919050505061072b565b604051808215151515815260200191505060405180910390f35b3480156101e357600080fd5b506101ec6107b8565b6040518082815260200191505060405180910390f35b34801561020e57600080fd5b5061026d600480360381019080803573ffffffffffffffffffffffffffffffffffffffff169060200190929190803573ffffffffffffffffffffffffffffffffffffffff169060200190929190803590602001909291905050506107be565b604051808215151515815260200191505060405180910390f35b34801561029357600080fd5b506102c8600480360381019080803573ffffffffffffffffffffffffffffffffffffffff169060200190929190505050610ab6565b6040518082815260200191505060405180910390f35b3480156102ea57600080fd5b506102f3610ace565b604051808260ff1660ff16815260200191505060405180910390f35b34801561031b57600080fd5b50610324610ae1565b6040518080602001828103825283818151815260200191508051906020019080838360005b83811015610364578082015181840152602081019050610349565b50505050905090810190601f1680156103915780820380516001836020036101000a031916815260200191505b509250505060405180910390f35b3480156103ab57600080fd5b506103e0600480360381019080803573ffffffffffffffffffffffffffffffffffffffff169060200190929190505050610b7f565b6040518082815260200191505060405180910390f35b34801561040257600080fd5b5061040b610b97565b6040518080602001828103825283818151815260200191508051906020019080838360005b8381101561044b578082015181840152602081019050610430565b50505050905090810190601f1680156104785780820380516001836020036101000a031916815260200191505b509250505060405180910390f35b34801561049257600080fd5b506104d1600480360381019080803573ffffffffffffffffffffffffffffffffffffffff16906020019092919080359060200190929190505050610c35565b005b3480156104df57600080fd5b50610564600480360381019080803573ffffffffffffffffffffffffffffffffffffffff16906020019092919080359060200190929190803590602001908201803590602001908080601f0160208091040260200160405190810160405280939291908181526020018383808284378201915050505050509192919290505050610e11565b604051808215151515815260200191505060405180910390f35b34801561058a57600080fd5b506105df600480360381019080803573ffffffffffffffffffffffffffffffffffffffff169060200190929190803573ffffffffffffffffffffffffffffffffffffffff169060200190929190505050610f94565b6040518082815260200191505060405180910390f35b34801561060157600080fd5b5061062060048036038101908080359060200190929190505050610fb9565b604051808273ffffffffffffffffffffffffffffffffffffffff1673ffffffffffffffffffffffffffffffffffffffff16815260200191505060405180910390f35b34801561066e57600080fd5b50610677610fec565b6040518082815260200191505060405180910390f35b60018054600181600116156101000203166002900480601f0160208091040260200160405190810160405280929190818152602001828054600181600116156101000203166002900480156107235780601f106106f857610100808354040283529160200191610723565b820191906000526020600020905b81548152906001019060200180831161070657829003601f168201915b505050505081565b600081600660003373ffffffffffffffffffffffffffffffffffffffff1673ffffffffffffffffffffffffffffffffffffffff16815260200190815260200160002060008573ffffffffffffffffffffffffffffffffffffffff1673ffffffffffffffffffffffffffffffffffffffff168152602001908152602001600020819055506001905092915050565b60045481565b600081600560008673ffffffffffffffffffffffffffffffffffffffff1673ffffffffffffffffffffffffffffffffffffffff16815260200190815260200160002054101561080c57600080fd5b600560008473ffffffffffffffffffffffffffffffffffffffff1673ffffffffffffffffffffffffffffffffffffffff1681526020019081526020016000205482600560008673ffffffffffffffffffffffffffffffffffffffff1673ffffffffffffffffffffffffffffffffffffffff1681526020019081526020016000205401101561089957600080fd5b600660008573ffffffffffffffffffffffffffffffffffffffff1673ffffffffffffffffffffffffffffffffffffffff16815260200190815260200160002060003373ffffffffffffffffffffffffffffffffffffffff1673ffffffffffffffffffffffffffffffffffffffff1681526020019081526020016000205482111561092257600080fd5b81600560008673ffffffffffffffffffffffffffffffffffffffff1673ffffffffffffffffffffffffffffffffffffffff1681526020019081526020016000206000828254039250508190555081600560008573ffffffffffffffffffffffffffffffffffffffff1673ffffffffffffffffffffffffffffffffffffffff1681526020019081526020016000206000828254019250508190555081600660008673ffffffffffffffffffffffffffffffffffffffff1673ffffffffffffffffffffffffffffffffffffffff16815260200190815260200160002060003373ffffffffffffffffffffffffffffffffffffffff1673ffffffffffffffffffffffffffffffffffffffff168152602001908152602001600020600082825403925050819055508273ffffffffffffffffffffffffffffffffffffffff168473ffffffffffffffffffffffffffffffffffffffff167fddf252ad1be2c89b69c2b068fc378daa952ba7f163c4a11628f55a4df523b3ef846040518082815260200191505060405180910390a3600190509392505050565b60076020528060005260406000206000915090505481565b600360009054906101000a900460ff1681565b60008054600181600116156101000203166002900480601f016020809104026020016040519081016040528092919081815260200182805460018160011615610100020316600290048015610b775780601f10610b4c57610100808354040283529160200191610b77565b820191906000526020600020905b815481529060010190602001808311610b5a57829003601f168201915b505050505081565b60056020528060005260406000206000915090505481565b60028054600181600116156101000203166002900480601f016020809104026020016040519081016040528092919081815260200182805460018160011615610100020316600290048015610c2d5780601f10610c0257610100808354040283529160200191610c2d565b820191906000526020600020905b815481529060010190602001808311610c1057829003601f168201915b505050505081565b80600560003373ffffffffffffffffffffffffffffffffffffffff1673ffffffffffffffffffffffffffffffffffffffff168152602001908152602001600020541015610c8157600080fd5b600560008373ffffffffffffffffffffffffffffffffffffffff1673ffffffffffffffffffffffffffffffffffffffff1681526020019081526020016000205481600560008573ffffffffffffffffffffffffffffffffffffffff1673ffffffffffffffffffffffffffffffffffffffff16815260200190815260200160002054011015610d0e57600080fd5b80600560003373ffffffffffffffffffffffffffffffffffffffff1673ffffffffffffffffffffffffffffffffffffffff1681526020019081526020016000206000828254039250508190555080600560008473ffffffffffffffffffffffffffffffffffffffff1673ffffffffffffffffffffffffffffffffffffffff168152602001908152602001600020600082825401925050819055508173ffffffffffffffffffffffffffffffffffffffff163373ffffffffffffffffffffffffffffffffffffffff167fddf252ad1be2c89b69c2b068fc378daa952ba7f163c4a11628f55a4df523b3ef836040518082815260200191505060405180910390a35050565b600080849050610e21858561072b565b15610f8b578073ffffffffffffffffffffffffffffffffffffffff16638f4ffcb1338630876040518563ffffffff167c0100000000000000000000000000000000000000000000000000000000028152600401808573ffffffffffffffffffffffffffffffffffffffff1673ffffffffffffffffffffffffffffffffffffffff1681526020018481526020018373ffffffffffffffffffffffffffffffffffffffff1673ffffffffffffffffffffffffffffffffffffffff16815260200180602001828103825283818151815260200191508051906020019080838360005b83811015610f1b578082015181840152602081019050610f00565b50505050905090810190601f168015610f485780820380516001836020036101000a031916815260200191505b5095505050505050600060405180830381600087803b158015610f6a57600080fd5b505af1158015610f7e573d6000803e3d6000fd5b5050505060019150610f8c565b5b509392505050565b6006602052816000526040600020602052806000526040600020600091509150505481565b60086020528060005260406000206000915054906101000a900473ffffffffffffffffffffffffffffffffffffffff1681565b600954815600a165627a7a72305820cdddbfcc10c38d7c3d5fffeec93efb775a00dc6ee9878e424ea6403fd149154b0029",
  "source": "/**\n *Submitted for verification at Etherscan.io on 2017-11-18\n*/\n\n//ERC20 Token\npragma solidity ^0.4.17;\ncontract owned {\n    address public owner;\n\n    function owned() {\n        owner = msg.sender;\n    }\n\n    modifier onlyOwner {\n        if (msg.sender != owner) throw;\n        _;\n    }\n\n    function transferOwnership(address newOwner) onlyOwner {\n        owner = newOwner;\n    }\n}\n\ncontract tokenRecipient { function receiveApproval(address _from, uint256 _value, address _token, bytes _extraData); }\n\ncontract token {\n    /* Public variables of the token */\n    string public standard = \"T10 1.0\";\n    string public name;\n    string public symbol;\n    uint8 public decimals;\n    uint256 public totalSupply;\n\n    /* This creates an array with all balances */\n    mapping (address => uint256) public balanceOf;\n    mapping (address => mapping (address => uint256)) public allowance;\n\n    /*************************************************/\n    mapping(address=>uint256) public indexes;\n    mapping(uint256=>address) public addresses;\n    uint256 public lastIndex = 0;\n    /*************************************************/\n\n    /* This generates a public event on the blockchain that will notify clients */\n    event Transfer(address indexed from, address indexed to, uint256 value);\n\n    /* Initializes contract with initial supply tokens to the creator of the contract */\n    function token(\n        uint256 initialSupply,\n        string tokenName,\n        uint8 decimalUnits,\n        string tokenSymbol\n        ) {\n        balanceOf[msg.sender] = initialSupply;              // Give the creator all initial tokens\n        totalSupply = initialSupply;                        // Update total supply\n        name = tokenName;                                   // Set the name for display purposes\n        symbol = tokenSymbol;                               // Set the symbol for display purposes\n        decimals = decimalUnits;                            // Amount of decimals for display purposes\n        /*****************************************/\n        addresses[1] = msg.sender;\n        indexes[msg.sender] = 1;\n        lastIndex = 1;\n        /*****************************************/\n    }\n\n    /* Send coins */\n    function transfer(address _to, uint256 _value) {\n        if (balanceOf[msg.sender] < _value) throw;           // Check if the sender has enough\n        if (balanceOf[_to] + _value < balanceOf[_to]) throw; // Check for overflows\n        balanceOf[msg.sender] -= _value;                     // Subtract from the sender\n        balanceOf[_to] += _value;                            // Add the same to the recipient\n        Transfer(msg.sender, _to, _value);                   // Notify anyone listening that this transfer took place\n    }\n\n    /* Allow another contract to spend some tokens in your behalf */\n    function approve(address _spender, uint256 _value)\n        returns (bool success) {\n        allowance[msg.sender][_spender] = _value;\n        return true;\n    }\n\n    /* Approve and then communicate the approved contract in a single tx */\n    function approveAndCall(address _spender, uint256 _value, bytes _extraData)\n        returns (bool success) {\n        tokenRecipient spender = tokenRecipient(_spender);\n        if (approve(_spender, _value)) {\n            spender.receiveApproval(msg.sender, _value, this, _extraData);\n            return true;\n        }\n    }\n\n    /* A contract attempts _ to get the coins */\n    function transferFrom(address _from, address _to, uint256 _value) returns (bool success) {\n        if (balanceOf[_from] < _value) throw;                 // Check if the sender has enough\n        if (balanceOf[_to] + _value < balanceOf[_to]) throw;  // Check for overflows\n        if (_value > allowance[_from][msg.sender]) throw;   // Check allowance\n        balanceOf[_from] -= _value;                          // Subtract from the sender\n        balanceOf[_to] += _value;                            // Add the same to the recipient\n        allowance[_from][msg.sender] -= _value;\n        Transfer(_from, _to, _value);\n        return true;\n    }\n\n    /* This unnamed function is called whenever someone tries to send ether to it */\n    function () {\n        throw;     // Prevents accidental sending of ether\n    }\n}\n\ncontract CCindexToken is owned, token {\n\n    uint256 public sellPrice;\n    uint256 public buyPrice;\n\n    mapping(address=>bool) public frozenAccount;\n\n\n\n    /* This generates a public event on the blockchain that will notify clients */\n    event FrozenFunds(address target, bool frozen);\n\n    /* Initializes contract with initial supply tokens to the creator of the contract */\n    uint256 public constant initialSupply = 40000000 * 10**18;\n    uint8 public constant decimalUnits = 18;\n    string public tokenName = \"CCindex10\";\n    string public tokenSymbol = \"T10\";\n    function CCindexToken() token (initialSupply, tokenName, decimalUnits, tokenSymbol) {}\n     /* Send coins */\n    function transfer(address _to, uint256 _value) {\n        // if(!canHolderTransfer()) throw;\n        if (balanceOf[msg.sender] < _value) throw;           // Check if the sender has enough\n        if (balanceOf[_to] + _value < balanceOf[_to]) throw; // Check for overflows\n        if (frozenAccount[msg.sender]) throw;                // Check if frozen\n        balanceOf[msg.sender] -= _value;                     // Subtract from the sender\n        balanceOf[_to] += _value;                            // Add the same to the recipient\n        Transfer(msg.sender, _to, _value);                   // Notify anyone listening that this transfer took place\n        if(_value > 0){\n            if(balanceOf[msg.sender] == 0){\n                addresses[indexes[msg.sender]] = addresses[lastIndex];\n                indexes[addresses[lastIndex]] = indexes[msg.sender];\n                indexes[msg.sender] = 0;\n                delete addresses[lastIndex];\n                lastIndex--;\n            }\n            if(indexes[_to]==0){\n                lastIndex++;\n                addresses[lastIndex] = _to;\n                indexes[_to] = lastIndex;\n            }\n        }\n    }\n\n    function getAddresses() constant returns (address[]){\n        address[] memory addrs = new address[](lastIndex);\n        for(uint i = 0; i < lastIndex; i++){\n            addrs[i] = addresses[i+1];\n        }\n        return addrs;\n    }\n\n    function distributeTokens(uint startIndex,uint endIndex) onlyOwner returns (uint) {\n        // if(balanceOf[owner] < _amount) throw;\n        uint distributed = 0;\n        require(startIndex < endIndex);\n\n        for(uint i = startIndex; i < lastIndex; i++){\n            address holder = addresses[i+1];\n            uint reward = balanceOf[holder] * 3 / 100;\n            balanceOf[holder] += reward;\n            distributed += reward;\n            Transfer(0, holder, reward);\n        }\n\n        // balanceOf[owner] -= distributed;\n        totalSupply += distributed;\n        return distributed;\n    }\n\n    /************************************************************************/\n\n    /************************************************************************/\n\n    /* A contract attempts to get the coins */\n    function transferFrom(address _from, address _to, uint256 _value) returns (bool success) {\n        if (frozenAccount[_from]) throw;                        // Check if frozen\n        if (balanceOf[_from] < _value) throw;                 // Check if the sender has enough\n        if (balanceOf[_to] + _value < balanceOf[_to]) throw;  // Check for overflows\n        if (_value > allowance[_from][msg.sender]) throw;   // Check allowance\n        balanceOf[_from] -= _value;                          // Subtract from the sender\n        balanceOf[_to] += _value;                            // Add the same to the recipient\n        allowance[_from][msg.sender] -= _value;\n        Transfer(_from, _to, _value);\n        return true;\n    }\n\n    function mintToken(address target, uint256 mintedAmount) onlyOwner {\n        balanceOf[target] += mintedAmount;\n        totalSupply += mintedAmount;\n        Transfer(0, this, mintedAmount);\n        Transfer(this, target, mintedAmount);\n    }\n\n    function freezeAccount(address target, bool freeze) onlyOwner {\n        frozenAccount[target] = freeze;\n        FrozenFunds(target, freeze);\n    }\n\n    function setPrices(uint256 newSellPrice, uint256 newBuyPrice) onlyOwner {\n        sellPrice = newSellPrice;\n        buyPrice = newBuyPrice;\n    }\n\n    function buy() payable {\n        uint amount = msg.value / buyPrice;                // calculates the amount\n        if (balanceOf[this] < amount) throw;               // checks if it has enough to sell\n        balanceOf[msg.sender] += amount;                   // adds the amount to buyer's balance\n        balanceOf[this] -= amount;                         // subtracts amount from seller's balance\n        Transfer(this, msg.sender, amount);                // execute an event reflecting the change\n    }\n\n    function sell(uint256 amount) {\n        if (balanceOf[msg.sender] < amount ) throw;        // checks if the sender has enough to sell\n        balanceOf[this] += amount;                         // adds the amount to owner's balance\n        balanceOf[msg.sender] -= amount;                   // subtracts the amount from seller's balance\n        if (!msg.sender.send(amount * sellPrice)) {        // sends ether to the seller. It's important\n            throw;                                         // to do this last to avoid recursion attacks\n        } else {\n            Transfer(msg.sender, this, amount);            // executes an event reflecting on the change\n        }\n    }\n}",
  "sourcePath": "/workdir/truffle_example/before/0xAb3a93b317DeF7426C8345538690036cB92A11E6/contracts/0xAb3a93b317DeF7426C8345538690036cB92A11E6.sol",
  "compiler": {
    "name": "solc",
    "version": "0.4.25+commit.59dbf8f1.Emscripten.clang"
  },
  "schemaVersion": "3.4.8",
  "updatedAt": "2022-08-14T05:30:33.268Z",
  "devdoc": {
    "methods": {}
  },
  "userdoc": {
    "methods": {}
  }
}