{
  "contractName": "StandardToken",
  "abi": [
    {
      "constant": true,
      "inputs": [],
      "name": "totalSupply",
      "outputs": [
        {
          "name": "",
          "type": "uint256"
        }
      ],
      "payable": false,
      "stateMutability": "view",
      "type": "function"
    },
    {
      "anonymous": false,
      "inputs": [
        {
          "indexed": false,
          "name": "receiver",
          "type": "address"
        },
        {
          "indexed": false,
          "name": "amount",
          "type": "uint256"
        }
      ],
      "name": "Minted",
      "type": "event"
    },
    {
      "anonymous": false,
      "inputs": [
        {
          "indexed": true,
          "name": "from",
          "type": "address"
        },
        {
          "indexed": true,
          "name": "to",
          "type": "address"
        },
        {
          "indexed": false,
          "name": "value",
          "type": "uint256"
        }
      ],
      "name": "Transfer",
      "type": "event"
    },
    {
      "anonymous": false,
      "inputs": [
        {
          "indexed": true,
          "name": "owner",
          "type": "address"
        },
        {
          "indexed": true,
          "name": "spender",
          "type": "address"
        },
        {
          "indexed": false,
          "name": "value",
          "type": "uint256"
        }
      ],
      "name": "Approval",
      "type": "event"
    },
    {
      "constant": false,
      "inputs": [
        {
          "name": "_to",
          "type": "address"
        },
        {
          "name": "_value",
          "type": "uint256"
        }
      ],
      "name": "transfer",
      "outputs": [
        {
          "name": "success",
          "type": "bool"
        }
      ],
      "payable": false,
      "stateMutability": "nonpayable",
      "type": "function"
    },
    {
      "constant": false,
      "inputs": [
        {
          "name": "_from",
          "type": "address"
        },
        {
          "name": "_to",
          "type": "address"
        },
        {
          "name": "_value",
          "type": "uint256"
        }
      ],
      "name": "transferFrom",
      "outputs": [
        {
          "name": "success",
          "type": "bool"
        }
      ],
      "payable": false,
      "stateMutability": "nonpayable",
      "type": "function"
    },
    {
      "constant": true,
      "inputs": [
        {
          "name": "_owner",
          "type": "address"
        }
      ],
      "name": "balanceOf",
      "outputs": [
        {
          "name": "balance",
          "type": "uint256"
        }
      ],
      "payable": false,
      "stateMutability": "view",
      "type": "function"
    },
    {
      "constant": false,
      "inputs": [
        {
          "name": "_spender",
          "type": "address"
        },
        {
          "name": "_value",
          "type": "uint256"
        }
      ],
      "name": "approve",
      "outputs": [
        {
          "name": "success",
          "type": "bool"
        }
      ],
      "payable": false,
      "stateMutability": "nonpayable",
      "type": "function"
    },
    {
      "constant": true,
      "inputs": [
        {
          "name": "_owner",
          "type": "address"
        },
        {
          "name": "_spender",
          "type": "address"
        }
      ],
      "name": "allowance",
      "outputs": [
        {
          "name": "remaining",
          "type": "uint256"
        }
      ],
      "payable": false,
      "stateMutability": "view",
      "type": "function"
    },
    {
      "constant": false,
      "inputs": [
        {
          "name": "_spender",
          "type": "address"
        },
        {
          "name": "_addedValue",
          "type": "uint256"
        }
      ],
      "name": "addApproval",
      "outputs": [
        {
          "name": "success",
          "type": "bool"
        }
      ],
      "payable": false,
      "stateMutability": "nonpayable",
      "type": "function"
    },
    {
      "constant": false,
      "inputs": [
        {
          "name": "_spender",
          "type": "address"
        },
        {
          "name": "_subtractedValue",
          "type": "uint256"
        }
      ],
      "name": "subApproval",
      "outputs": [
        {
          "name": "success",
          "type": "bool"
        }
      ],
      "payable": false,
      "stateMutability": "nonpayable",
      "type": "function"
    }
  ],
  "bytecode": "0x608060405234801561001057600080fd5b50610f4d806100206000396000f30060806040526004361061008e576000357c0100000000000000000000000000000000000000000000000000000000900463ffffffff168063095ea7b31461009357806318160ddd146100f857806323b872dd1461012357806370a08231146101a8578063a9059cbb146101ff578063ac3cb72c14610264578063dd62ed3e146102c9578063e2301d0214610340575b600080fd5b34801561009f57600080fd5b506100de600480360381019080803573ffffffffffffffffffffffffffffffffffffffff169060200190929190803590602001909291905050506103a5565b604051808215151515815260200191505060405180910390f35b34801561010457600080fd5b5061010d61052e565b6040518082815260200191505060405180910390f35b34801561012f57600080fd5b5061018e600480360381019080803573ffffffffffffffffffffffffffffffffffffffff169060200190929190803573ffffffffffffffffffffffffffffffffffffffff16906020019092919080359060200190929190505050610534565b604051808215151515815260200191505060405180910390f35b3480156101b457600080fd5b506101e9600480360381019080803573ffffffffffffffffffffffffffffffffffffffff1690602001909291905050506107c9565b6040518082815260200191505060405180910390f35b34801561020b57600080fd5b5061024a600480360381019080803573ffffffffffffffffffffffffffffffffffffffff16906020019092919080359060200190929190505050610812565b604051808215151515815260200191505060405180910390f35b34801561027057600080fd5b506102af600480360381019080803573ffffffffffffffffffffffffffffffffffffffff169060200190929190803590602001909291905050506109b3565b604051808215151515815260200191505060405180910390f35b3480156102d557600080fd5b5061032a600480360381019080803573ffffffffffffffffffffffffffffffffffffffff169060200190929190803573ffffffffffffffffffffffffffffffffffffffff169060200190929190505050610bc3565b6040518082815260200191505060405180910390f35b34801561034c57600080fd5b5061038b600480360381019080803573ffffffffffffffffffffffffffffffffffffffff16906020019092919080359060200190929190505050610c4a565b604051808215151515815260200191505060405180910390f35b600080821415801561043457506000600260003373ffffffffffffffffffffffffffffffffffffffff1673ffffffffffffffffffffffffffffffffffffffff16815260200190815260200160002060008573ffffffffffffffffffffffffffffffffffffffff1673ffffffffffffffffffffffffffffffffffffffff1681526020019081526020016000205414155b1561043e57600080fd5b81600260003373ffffffffffffffffffffffffffffffffffffffff1673ffffffffffffffffffffffffffffffffffffffff16815260200190815260200160002060008573ffffffffffffffffffffffffffffffffffffffff1673ffffffffffffffffffffffffffffffffffffffff168152602001908152602001600020819055508273ffffffffffffffffffffffffffffffffffffffff163373ffffffffffffffffffffffffffffffffffffffff167f8c5be1e5ebec7d5bd14f71427d1e84f3dd0314c0f7b2291e5b200ac8c7c3b925846040518082815260200191505060405180910390a36001905092915050565b60005481565b600080600260008673ffffffffffffffffffffffffffffffffffffffff1673ffffffffffffffffffffffffffffffffffffffff16815260200190815260200160002060003373ffffffffffffffffffffffffffffffffffffffff1673ffffffffffffffffffffffffffffffffffffffff1681526020019081526020016000205490506105ff600160008673ffffffffffffffffffffffffffffffffffffffff1673ffffffffffffffffffffffffffffffffffffffff1681526020019081526020016000205484610eea565b600160008673ffffffffffffffffffffffffffffffffffffffff1673ffffffffffffffffffffffffffffffffffffffff1681526020019081526020016000208190555061068b600160008773ffffffffffffffffffffffffffffffffffffffff1673ffffffffffffffffffffffffffffffffffffffff1681526020019081526020016000205484610f08565b600160008773ffffffffffffffffffffffffffffffffffffffff1673ffffffffffffffffffffffffffffffffffffffff168152602001908152602001600020819055506106d88184610f08565b600260008773ffffffffffffffffffffffffffffffffffffffff1673ffffffffffffffffffffffffffffffffffffffff16815260200190815260200160002060003373ffffffffffffffffffffffffffffffffffffffff1673ffffffffffffffffffffffffffffffffffffffff168152602001908152602001600020819055508373ffffffffffffffffffffffffffffffffffffffff168573ffffffffffffffffffffffffffffffffffffffff167fddf252ad1be2c89b69c2b068fc378daa952ba7f163c4a11628f55a4df523b3ef856040518082815260200191505060405180910390a360019150509392505050565b6000600160008373ffffffffffffffffffffffffffffffffffffffff1673ffffffffffffffffffffffffffffffffffffffff168152602001908152602001600020549050919050565b6000604060048101600036905014151561082b57600080fd5b610874600160003373ffffffffffffffffffffffffffffffffffffffff1673ffffffffffffffffffffffffffffffffffffffff1681526020019081526020016000205484610f08565b600160003373ffffffffffffffffffffffffffffffffffffffff1673ffffffffffffffffffffffffffffffffffffffff16815260200190815260200160002081905550610900600160008673ffffffffffffffffffffffffffffffffffffffff1673ffffffffffffffffffffffffffffffffffffffff1681526020019081526020016000205484610eea565b600160008673ffffffffffffffffffffffffffffffffffffffff1673ffffffffffffffffffffffffffffffffffffffff168152602001908152602001600020819055508373ffffffffffffffffffffffffffffffffffffffff163373ffffffffffffffffffffffffffffffffffffffff167fddf252ad1be2c89b69c2b068fc378daa952ba7f163c4a11628f55a4df523b3ef856040518082815260200191505060405180910390a3600191505092915050565b60008060406004810160003690501415156109cd57600080fd5b600260003373ffffffffffffffffffffffffffffffffffffffff1673ffffffffffffffffffffffffffffffffffffffff16815260200190815260200160002060008673ffffffffffffffffffffffffffffffffffffffff1673ffffffffffffffffffffffffffffffffffffffff168152602001908152602001600020549150610a568285610eea565b600260003373ffffffffffffffffffffffffffffffffffffffff1673ffffffffffffffffffffffffffffffffffffffff16815260200190815260200160002060008773ffffffffffffffffffffffffffffffffffffffff1673ffffffffffffffffffffffffffffffffffffffff168152602001908152602001600020819055508473ffffffffffffffffffffffffffffffffffffffff163373ffffffffffffffffffffffffffffffffffffffff167f8c5be1e5ebec7d5bd14f71427d1e84f3dd0314c0f7b2291e5b200ac8c7c3b925600260003373ffffffffffffffffffffffffffffffffffffffff1673ffffffffffffffffffffffffffffffffffffffff16815260200190815260200160002060008973ffffffffffffffffffffffffffffffffffffffff1673ffffffffffffffffffffffffffffffffffffffff168152602001908152602001600020546040518082815260200191505060405180910390a360019250505092915050565b6000600260008473ffffffffffffffffffffffffffffffffffffffff1673ffffffffffffffffffffffffffffffffffffffff16815260200190815260200160002060008373ffffffffffffffffffffffffffffffffffffffff1673ffffffffffffffffffffffffffffffffffffffff16815260200190815260200160002054905092915050565b6000806040600481016000369050141515610c6457600080fd5b600260003373ffffffffffffffffffffffffffffffffffffffff1673ffffffffffffffffffffffffffffffffffffffff16815260200190815260200160002060008673ffffffffffffffffffffffffffffffffffffffff1673ffffffffffffffffffffffffffffffffffffffff16815260200190815260200160002054915081841115610d72576000600260003373ffffffffffffffffffffffffffffffffffffffff1673ffffffffffffffffffffffffffffffffffffffff16815260200190815260200160002060008773ffffffffffffffffffffffffffffffffffffffff1673ffffffffffffffffffffffffffffffffffffffff16815260200190815260200160002081905550610dfd565b610d7c8285610f08565b600260003373ffffffffffffffffffffffffffffffffffffffff1673ffffffffffffffffffffffffffffffffffffffff16815260200190815260200160002060008773ffffffffffffffffffffffffffffffffffffffff1673ffffffffffffffffffffffffffffffffffffffff168152602001908152602001600020819055505b8473ffffffffffffffffffffffffffffffffffffffff163373ffffffffffffffffffffffffffffffffffffffff167f8c5be1e5ebec7d5bd14f71427d1e84f3dd0314c0f7b2291e5b200ac8c7c3b925600260003373ffffffffffffffffffffffffffffffffffffffff1673ffffffffffffffffffffffffffffffffffffffff16815260200190815260200160002060008973ffffffffffffffffffffffffffffffffffffffff1673ffffffffffffffffffffffffffffffffffffffff168152602001908152602001600020546040518082815260200191505060405180910390a360019250505092915050565b6000808284019050838110151515610efe57fe5b8091505092915050565b6000828211151515610f1657fe5b8183039050929150505600a165627a7a7230582037d9107a689ca285ab94389cf52ef7cf4cfe62274ccabf592476c283b13c45770029",
  "source": "contract sGuard{\n  function add_uint256(uint256 a, uint256 b) internal pure returns (uint256) {\n    uint256 c = a + b;\n    assert(c >= a);\n    return c;\n  }\n  \n  function mul_uint256(uint256 a, uint256 b) internal pure returns (uint256) {\n    if (a == 0) {\n      return 0;\n    }\n    uint256 c = a * b;\n    assert(c / a == b);\n    return c;\n  }\n  \n  function div_uint256(uint256 a, uint256 b) internal pure returns (uint256) {\n    uint256 c = a / b;\n    return c;\n  }\n}\n/**\r\n *Submitted for verification at Etherscan.io on 2017-09-14\r\n*/\r\n\r\npragma solidity ^0.4.12;\r\n\r\n/**\r\n * Math operations with safety checks\r\n */\r\ncontract SafeMath  is sGuard {\r\n  function safeMul(uint256 a, uint256 b) internal constant returns (uint256) {\r\n    uint256 c = a * b;\r\n    assert(a == 0 || c / a == b);\r\n    return c;\r\n  }\r\n\r\n  function safeDiv(uint256 a, uint256 b) internal constant returns (uint256) {\r\n    // assert(b > 0); // Solidity automatically throws when dividing by 0\r\n    uint256 c = a / b;\r\n    // assert(a == b * c + a % b); // There is no case in which this doesn't hold\r\n    return c;\r\n  }\r\n\r\n  function safeSub(uint256 a, uint256 b) internal constant returns (uint256) {\r\n    assert(b <= a);\r\n    return a - b;\r\n  }\r\n\r\n  function safeAdd(uint256 a, uint256 b) internal constant returns (uint256) {\r\n    uint256 c = a + b;\r\n    assert(c >= a);\r\n    return c;\r\n  }\r\n\r\n  function max64(uint64 a, uint64 b) internal constant returns (uint64) {\r\n    return a >= b ? a : b;\r\n  }\r\n\r\n  function min64(uint64 a, uint64 b) internal constant returns (uint64) {\r\n    return a < b ? a : b;\r\n  }\r\n\r\n  function max256(uint256 a, uint256 b) internal constant returns (uint256) {\r\n    return a >= b ? a : b;\r\n  }\r\n\r\n  function min256(uint256 a, uint256 b) internal constant returns (uint256) {\r\n    return a < b ? a : b;\r\n  }\r\n}\r\n\r\n/*\r\n * ERC20 interface\r\n * see https://github.com/ethereum/EIPs/issues/20\r\n */\r\ncontract ERC20  is sGuard {\r\n  uint256 public totalSupply;\r\n  function balanceOf(address who) constant returns (uint256);\r\n  function transfer(address to, uint256 value) returns (bool);\r\n  event Transfer(address indexed from, address indexed to, uint256 value);\r\n    \r\n  function allowance(address owner, address spender) constant returns (uint256);\r\n  function transferFrom(address from, address to, uint256 value) returns (bool);\r\n  function approve(address spender, uint256 value) returns (bool);\r\n  event Approval(address indexed owner, address indexed spender, uint256 value);\r\n}\r\n\r\n/**\r\n * Standard ERC20 token with Short Hand Attack and approve() race condition mitigation.\r\n *\r\n * Based on code by FirstBlood:\r\n * https://github.com/Firstbloodio/token/blob/master/smart_contract/FirstBloodToken.sol\r\n */\r\ncontract StandardToken is sGuard,  ERC20, SafeMath {\r\n\r\n  /* Token supply got increased and a new owner received these tokens */\r\n  event Minted(address receiver, uint amount);\r\n\r\n  /* Actual balances of token holders */\r\n  mapping(address => uint) balances;\r\n\r\n  /* approve() allowances */\r\n  mapping (address => mapping (address => uint)) allowed;\r\n\r\n  /**\r\n   *\r\n   * Fix for the ERC20 short address attack\r\n   *\r\n   * http://vessenes.com/the-erc20-short-address-attack-explained/\r\n   */\r\n  modifier onlyPayloadSize(uint size) {\r\n     if(msg.data.length != size + 4) {\r\n       throw;\r\n     }\r\n     _;\r\n  }\r\n\r\n  function transfer(address _to, uint _value) onlyPayloadSize(2 * 32) returns (bool success) {\r\n    balances[msg.sender] = safeSub(balances[msg.sender], _value);\r\n    balances[_to] = safeAdd(balances[_to], _value);\r\n    Transfer(msg.sender, _to, _value);\r\n    return true;\r\n  }\r\n\r\n  function transferFrom(address _from, address _to, uint _value) returns (bool success) {\r\n    uint _allowance = allowed[_from][msg.sender];\r\n\r\n    // Check is not needed because safeSub(_allowance, _value) will already throw if this condition is not met\r\n    // if (_value > _allowance) throw;\r\n\r\n    balances[_to] = safeAdd(balances[_to], _value);\r\n    balances[_from] = safeSub(balances[_from], _value);\r\n    allowed[_from][msg.sender] = safeSub(_allowance, _value);\r\n    Transfer(_from, _to, _value);\r\n    return true;\r\n  }\r\n\r\n  function balanceOf(address _owner) constant returns (uint balance) {\r\n    return balances[_owner];\r\n  }\r\n\r\n  function approve(address _spender, uint _value) returns (bool success) {\r\n\r\n    // To change the approve amount you first have to reduce the addresses`\r\n    //  allowance to zero by calling `approve(_spender, 0)` if it is not\r\n    //  already 0 to mitigate the race condition described here:\r\n    //  https://github.com/ethereum/EIPs/issues/20#issuecomment-263524729\r\n    if ((_value != 0) && (allowed[msg.sender][_spender] != 0)) throw;\r\n\r\n    allowed[msg.sender][_spender] = _value;\r\n    Approval(msg.sender, _spender, _value);\r\n    return true;\r\n  }\r\n\r\n  function allowance(address _owner, address _spender) constant returns (uint remaining) {\r\n    return allowed[_owner][_spender];\r\n  }\r\n\r\n  /**\r\n   * Atomic increment of approved spending\r\n   *\r\n   * Works around https://github.com/ethereum/EIPs/issues/20#issuecomment-263524729\r\n   *\r\n   */\r\n  function addApproval(address _spender, uint _addedValue)\r\n  onlyPayloadSize(2 * 32)\r\n  returns (bool success) {\r\n      uint oldValue = allowed[msg.sender][_spender];\r\n      allowed[msg.sender][_spender] = safeAdd(oldValue, _addedValue);\r\n      Approval(msg.sender, _spender, allowed[msg.sender][_spender]);\r\n      return true;\r\n  }\r\n\r\n  /**\r\n   * Atomic decrement of approved spending.\r\n   *\r\n   * Works around https://github.com/ethereum/EIPs/issues/20#issuecomment-263524729\r\n   */\r\n  function subApproval(address _spender, uint _subtractedValue)\r\n  onlyPayloadSize(2 * 32)\r\n  returns (bool success) {\r\n\r\n      uint oldVal = allowed[msg.sender][_spender];\r\n\r\n      if (_subtractedValue > oldVal) {\r\n          allowed[msg.sender][_spender] = 0;\r\n      } else {\r\n          allowed[msg.sender][_spender] = safeSub(oldVal, _subtractedValue);\r\n      }\r\n      Approval(msg.sender, _spender, allowed[msg.sender][_spender]);\r\n      return true;\r\n  }\r\n}\r\n\r\ncontract BurnableToken is sGuard,  StandardToken {\r\n\r\n  address public constant BURN_ADDRESS = 0;\r\n\r\n  /** How many tokens we burned */\r\n  event Burned(address burner, uint burnedAmount);\r\n\r\n  /**\r\n   * Burn extra tokens from a balance.\r\n   *\r\n   */\r\n  function burn(uint burnAmount) {\r\n    address burner = msg.sender;\r\n    balances[burner] = safeSub(balances[burner], burnAmount);\r\n    totalSupply = safeSub(totalSupply, burnAmount);\r\n    Burned(burner, burnAmount);\r\n  }\r\n}\r\n\r\n/**\r\n * Upgrade agent interface inspired by Lunyr.\r\n *\r\n * Upgrade agent transfers tokens to a new contract.\r\n * Upgrade agent itself can be the token contract, or just a middle man contract doing the heavy lifting.\r\n */\r\ncontract UpgradeAgent  is sGuard {\r\n\r\n  uint public originalSupply;\r\n\r\n  /** Interface marker */\r\n  function isUpgradeAgent() public constant returns (bool) {\r\n    return true;\r\n  }\r\n\r\n  function upgradeFrom(address _from, uint256 _value) public;\r\n\r\n}\r\n\r\n/**\r\n * A token upgrade mechanism where users can opt-in amount of tokens to the next smart contract revision.\r\n *\r\n * First envisioned by Golem and Lunyr projects.\r\n */\r\ncontract UpgradeableToken is sGuard,  StandardToken {\r\n\r\n  /** Contract / person who can set the upgrade path. This can be the same as team multisig wallet, as what it is with its default value. */\r\n  address public upgradeMaster;\r\n\r\n  /** The next contract where the tokens will be migrated. */\r\n  UpgradeAgent public upgradeAgent;\r\n\r\n  /** How many tokens we have upgraded by now. */\r\n  uint256 public totalUpgraded;\r\n\r\n  /**\r\n   * Upgrade states.\r\n   *\r\n   * - NotAllowed: The child contract has not reached a condition where the upgrade can bgun\r\n   * - WaitingForAgent: Token allows upgrade, but we don't have a new agent yet\r\n   * - ReadyToUpgrade: The agent is set, but not a single token has been upgraded yet\r\n   * - Upgrading: Upgrade agent is set and the balance holders can upgrade their tokens\r\n   *\r\n   */\r\n  enum UpgradeState {Unknown, NotAllowed, WaitingForAgent, ReadyToUpgrade, Upgrading}\r\n\r\n  /**\r\n   * Somebody has upgraded some of his tokens.\r\n   */\r\n  event Upgrade(address indexed _from, address indexed _to, uint256 _value);\r\n\r\n  /**\r\n   * New upgrade agent available.\r\n   */\r\n  event UpgradeAgentSet(address agent);\r\n\r\n  /**\r\n   * Do not allow construction without upgrade master set.\r\n   */\r\n  function UpgradeableToken(address _upgradeMaster) {\r\n    upgradeMaster = _upgradeMaster;\r\n  }\r\n\r\n  /**\r\n   * Allow the token holder to upgrade some of their tokens to a new contract.\r\n   */\r\n  function upgrade(uint256 value) public {\r\n\r\n      UpgradeState state = getUpgradeState();\r\n      if(!(state == UpgradeState.ReadyToUpgrade || state == UpgradeState.Upgrading)) {\r\n        // Called in a bad state\r\n        throw;\r\n      }\r\n\r\n      // Validate input value.\r\n      if (value == 0) throw;\r\n\r\n      balances[msg.sender] = safeSub(balances[msg.sender], value);\r\n\r\n      // Take tokens out from circulation\r\n      totalSupply = safeSub(totalSupply, value);\r\n      totalUpgraded = safeAdd(totalUpgraded, value);\r\n\r\n      // Upgrade agent reissues the tokens\r\n      upgradeAgent.upgradeFrom(msg.sender, value);\r\n      Upgrade(msg.sender, upgradeAgent, value);\r\n  }\r\n\r\n  /**\r\n   * Set an upgrade agent that handles\r\n   */\r\n  function setUpgradeAgent(address agent) external {\r\n\r\n      if(!canUpgrade()) {\r\n        // The token is not yet in a state that we could think upgrading\r\n        throw;\r\n      }\r\n\r\n      if (agent == 0x0) throw;\r\n      // Only a master can designate the next agent\r\n      if (msg.sender != upgradeMaster) throw;\r\n      // Upgrade has already begun for an agent\r\n      if (getUpgradeState() == UpgradeState.Upgrading) throw;\r\n\r\n      upgradeAgent = UpgradeAgent(agent);\r\n\r\n      // Bad interface\r\n      if(!upgradeAgent.isUpgradeAgent()) throw;\r\n      // Make sure that token supplies match in source and target\r\n      if (upgradeAgent.originalSupply() != totalSupply) throw;\r\n\r\n      UpgradeAgentSet(upgradeAgent);\r\n  }\r\n\r\n  /**\r\n   * Get the state of the token upgrade.\r\n   */\r\n  function getUpgradeState() public constant returns(UpgradeState) {\r\n    if(!canUpgrade()) return UpgradeState.NotAllowed;\r\n    else if(address(upgradeAgent) == 0x00) return UpgradeState.WaitingForAgent;\r\n    else if(totalUpgraded == 0) return UpgradeState.ReadyToUpgrade;\r\n    else return UpgradeState.Upgrading;\r\n  }\r\n\r\n  /**\r\n   * Change the upgrade master.\r\n   *\r\n   * This allows us to set a new owner for the upgrade mechanism.\r\n   */\r\n  function setUpgradeMaster(address master) public {\r\n      if (master == 0x0) throw;\r\n      if (msg.sender != upgradeMaster) throw;\r\n      upgradeMaster = master;\r\n  }\r\n\r\n  /**\r\n   * Child contract can enable to provide the condition when the upgrade can begun.\r\n   */\r\n  function canUpgrade() public constant returns(bool) {\r\n     return true;\r\n  }\r\n\r\n}\r\n\r\ncontract Lescoin is sGuard,  BurnableToken, UpgradeableToken {\r\n\r\n  string public name;\r\n  string public symbol;\r\n  uint public decimals;\r\n\r\n  function Lescoin(address _owner, address _init)  UpgradeableToken(_owner) {\r\n    name = \"Lescoin\";\r\n    symbol = \"LSC\";\r\n    totalSupply = 200000000000000;\r\n    decimals = 8;\r\n\r\n    // Allocate initial balance to the init account\r\n    balances[_init] = totalSupply;\r\n  }\r\n}\r\n\r\ncontract LescoinPreSale  is sGuard {\r\n    address public beneficiary;\r\n    address public coldWallet;\r\n    uint public ethPrice;\r\n    uint public bonus;\r\n    uint public amountRaised;\r\n    Lescoin public tokenReward;\r\n\r\n    uint constant public price = 50;\r\n    uint constant public minSaleAmount = 10000;\r\n\r\n    function LescoinPreSale(\r\n        address _beneficiary,\r\n        address _coldWallet,\r\n        uint _ethPrice,\r\n        uint _bonus,   \r\n        Lescoin _addressOfToken\r\n    ) {\r\n        beneficiary = _beneficiary;\r\n        coldWallet =  _coldWallet;\r\n        ethPrice = _ethPrice;\r\n        bonus = _bonus;\r\n        tokenReward = Lescoin(_addressOfToken);\r\n    }\r\n\r\n    function () payable {\r\n        uint amount = msg.value;\r\n        uint tokenAmount = div_uint256(div_uint256(mul_uint256(amount, ethPrice), price), 1000000000000);\r\n        if (tokenAmount < minSaleAmount) throw;\r\n        amountRaised += amount;\r\n        tokenReward.transfer(msg.sender, div_uint256(mul_uint256(tokenAmount, (add_uint256(100, bonus))), 100));\r\n    }\r\n\r\n    function WithdrawETH(uint _amount) {\r\n        if (beneficiary != msg.sender) throw;\r\n        coldWallet.transfer(_amount);\r\n    }\r\n\r\n    function WithdrawTokens(uint _amount) {\r\n        if (beneficiary != msg.sender) throw;\r\n        tokenReward.transfer(coldWallet, _amount);\r\n    }\r\n\r\n    function TransferTokens(address _to, uint _amount) {\r\n        if (beneficiary != msg.sender) throw;\r\n        tokenReward.transfer(_to, _amount);\r\n    }\r\n\r\n    function ChangeEthPrice(uint _ethPrice) {\r\n        if (beneficiary != msg.sender) throw;\r\n        ethPrice = _ethPrice;\r\n    }\r\n\r\n    function ChangeBonus(uint _bonus) {\r\n        if (beneficiary != msg.sender) throw;\r\n        bonus = _bonus;\r\n    }\r\n}",
  "sourcePath": "/workdir/truffle_example/after/0x6a57883b5748bf3631ac2e0d43bf0d6f6cbcd16b/contracts/0x6A57883B5748Bf3631aC2E0d43BF0D6f6cBCD16b.sol.fixed.sol",
  "compiler": {
    "name": "solc",
    "version": "0.4.25+commit.59dbf8f1.Emscripten.clang"
  },
  "schemaVersion": "3.4.8",
  "updatedAt": "2022-09-02T07:58:54.443Z",
  "devdoc": {
    "methods": {}
  },
  "userdoc": {
    "methods": {
      "addApproval(address,uint256)": {
        "notice": "Atomic increment of approved spending\r    * Works around https://github.com/ethereum/EIPs/issues/20#issuecomment-263524729\r    "
      },
      "subApproval(address,uint256)": {
        "notice": "Atomic decrement of approved spending.\r    * Works around https://github.com/ethereum/EIPs/issues/20#issuecomment-263524729\r"
      }
    }
  }
}