{
  "contractName": "UpgradeableToken",
  "abi": [
    {
      "constant": false,
      "inputs": [
        {
          "name": "_spender",
          "type": "address"
        },
        {
          "name": "_value",
          "type": "uint256"
        }
      ],
      "name": "approve",
      "outputs": [
        {
          "name": "success",
          "type": "bool"
        }
      ],
      "payable": false,
      "stateMutability": "nonpayable",
      "type": "function"
    },
    {
      "constant": true,
      "inputs": [],
      "name": "totalSupply",
      "outputs": [
        {
          "name": "",
          "type": "uint256"
        }
      ],
      "payable": false,
      "stateMutability": "view",
      "type": "function"
    },
    {
      "constant": false,
      "inputs": [
        {
          "name": "_from",
          "type": "address"
        },
        {
          "name": "_to",
          "type": "address"
        },
        {
          "name": "_value",
          "type": "uint256"
        }
      ],
      "name": "transferFrom",
      "outputs": [
        {
          "name": "success",
          "type": "bool"
        }
      ],
      "payable": false,
      "stateMutability": "nonpayable",
      "type": "function"
    },
    {
      "constant": true,
      "inputs": [],
      "name": "upgradeAgent",
      "outputs": [
        {
          "name": "",
          "type": "address"
        }
      ],
      "payable": false,
      "stateMutability": "view",
      "type": "function"
    },
    {
      "constant": true,
      "inputs": [],
      "name": "upgradeMaster",
      "outputs": [
        {
          "name": "",
          "type": "address"
        }
      ],
      "payable": false,
      "stateMutability": "view",
      "type": "function"
    },
    {
      "constant": true,
      "inputs": [
        {
          "name": "_owner",
          "type": "address"
        }
      ],
      "name": "balanceOf",
      "outputs": [
        {
          "name": "balance",
          "type": "uint256"
        }
      ],
      "payable": false,
      "stateMutability": "view",
      "type": "function"
    },
    {
      "constant": false,
      "inputs": [
        {
          "name": "_to",
          "type": "address"
        },
        {
          "name": "_value",
          "type": "uint256"
        }
      ],
      "name": "transfer",
      "outputs": [
        {
          "name": "success",
          "type": "bool"
        }
      ],
      "payable": false,
      "stateMutability": "nonpayable",
      "type": "function"
    },
    {
      "constant": false,
      "inputs": [
        {
          "name": "_spender",
          "type": "address"
        },
        {
          "name": "_addedValue",
          "type": "uint256"
        }
      ],
      "name": "addApproval",
      "outputs": [
        {
          "name": "success",
          "type": "bool"
        }
      ],
      "payable": false,
      "stateMutability": "nonpayable",
      "type": "function"
    },
    {
      "constant": true,
      "inputs": [],
      "name": "totalUpgraded",
      "outputs": [
        {
          "name": "",
          "type": "uint256"
        }
      ],
      "payable": false,
      "stateMutability": "view",
      "type": "function"
    },
    {
      "constant": true,
      "inputs": [
        {
          "name": "_owner",
          "type": "address"
        },
        {
          "name": "_spender",
          "type": "address"
        }
      ],
      "name": "allowance",
      "outputs": [
        {
          "name": "remaining",
          "type": "uint256"
        }
      ],
      "payable": false,
      "stateMutability": "view",
      "type": "function"
    },
    {
      "constant": false,
      "inputs": [
        {
          "name": "_spender",
          "type": "address"
        },
        {
          "name": "_subtractedValue",
          "type": "uint256"
        }
      ],
      "name": "subApproval",
      "outputs": [
        {
          "name": "success",
          "type": "bool"
        }
      ],
      "payable": false,
      "stateMutability": "nonpayable",
      "type": "function"
    },
    {
      "inputs": [
        {
          "name": "_upgradeMaster",
          "type": "address"
        }
      ],
      "payable": false,
      "stateMutability": "nonpayable",
      "type": "constructor"
    },
    {
      "anonymous": false,
      "inputs": [
        {
          "indexed": true,
          "name": "_from",
          "type": "address"
        },
        {
          "indexed": true,
          "name": "_to",
          "type": "address"
        },
        {
          "indexed": false,
          "name": "_value",
          "type": "uint256"
        }
      ],
      "name": "Upgrade",
      "type": "event"
    },
    {
      "anonymous": false,
      "inputs": [
        {
          "indexed": false,
          "name": "agent",
          "type": "address"
        }
      ],
      "name": "UpgradeAgentSet",
      "type": "event"
    },
    {
      "anonymous": false,
      "inputs": [
        {
          "indexed": false,
          "name": "receiver",
          "type": "address"
        },
        {
          "indexed": false,
          "name": "amount",
          "type": "uint256"
        }
      ],
      "name": "Minted",
      "type": "event"
    },
    {
      "anonymous": false,
      "inputs": [
        {
          "indexed": true,
          "name": "from",
          "type": "address"
        },
        {
          "indexed": true,
          "name": "to",
          "type": "address"
        },
        {
          "indexed": false,
          "name": "value",
          "type": "uint256"
        }
      ],
      "name": "Transfer",
      "type": "event"
    },
    {
      "anonymous": false,
      "inputs": [
        {
          "indexed": true,
          "name": "owner",
          "type": "address"
        },
        {
          "indexed": true,
          "name": "spender",
          "type": "address"
        },
        {
          "indexed": false,
          "name": "value",
          "type": "uint256"
        }
      ],
      "name": "Approval",
      "type": "event"
    },
    {
      "constant": false,
      "inputs": [
        {
          "name": "value",
          "type": "uint256"
        }
      ],
      "name": "upgrade",
      "outputs": [],
      "payable": false,
      "stateMutability": "nonpayable",
      "type": "function"
    },
    {
      "constant": false,
      "inputs": [
        {
          "name": "agent",
          "type": "address"
        }
      ],
      "name": "setUpgradeAgent",
      "outputs": [],
      "payable": false,
      "stateMutability": "nonpayable",
      "type": "function"
    },
    {
      "constant": true,
      "inputs": [],
      "name": "getUpgradeState",
      "outputs": [
        {
          "name": "",
          "type": "uint8"
        }
      ],
      "payable": false,
      "stateMutability": "view",
      "type": "function"
    },
    {
      "constant": false,
      "inputs": [
        {
          "name": "master",
          "type": "address"
        }
      ],
      "name": "setUpgradeMaster",
      "outputs": [],
      "payable": false,
      "stateMutability": "nonpayable",
      "type": "function"
    },
    {
      "constant": true,
      "inputs": [],
      "name": "canUpgrade",
      "outputs": [
        {
          "name": "",
          "type": "bool"
        }
      ],
      "payable": false,
      "stateMutability": "view",
      "type": "function"
    }
  ],
  "bytecode": "0x608060405234801561001057600080fd5b50604051602080611a548339810180604052810190808051906020019092919050505080600360006101000a81548173ffffffffffffffffffffffffffffffffffffffff021916908373ffffffffffffffffffffffffffffffffffffffff160217905550506119d0806100846000396000f3006080604052600436106100e6576000357c0100000000000000000000000000000000000000000000000000000000900463ffffffff168063095ea7b3146100eb57806318160ddd1461015057806323b872dd1461017b57806345977d03146102005780635de4ccb01461022d578063600440cb1461028457806370a08231146102db5780638444b391146103325780639738968c1461036b578063a9059cbb1461039a578063ac3cb72c146103ff578063c752ff6214610464578063d7e7088a1461048f578063dd62ed3e146104d2578063e2301d0214610549578063ffeb7d75146105ae575b600080fd5b3480156100f757600080fd5b50610136600480360381019080803573ffffffffffffffffffffffffffffffffffffffff169060200190929190803590602001909291905050506105f1565b604051808215151515815260200191505060405180910390f35b34801561015c57600080fd5b5061016561077a565b6040518082815260200191505060405180910390f35b34801561018757600080fd5b506101e6600480360381019080803573ffffffffffffffffffffffffffffffffffffffff169060200190929190803573ffffffffffffffffffffffffffffffffffffffff16906020019092919080359060200190929190505050610780565b604051808215151515815260200191505060405180910390f35b34801561020c57600080fd5b5061022b60048036038101908080359060200190929190505050610a15565b005b34801561023957600080fd5b50610242610c8c565b604051808273ffffffffffffffffffffffffffffffffffffffff1673ffffffffffffffffffffffffffffffffffffffff16815260200191505060405180910390f35b34801561029057600080fd5b50610299610cb2565b604051808273ffffffffffffffffffffffffffffffffffffffff1673ffffffffffffffffffffffffffffffffffffffff16815260200191505060405180910390f35b3480156102e757600080fd5b5061031c600480360381019080803573ffffffffffffffffffffffffffffffffffffffff169060200190929190505050610cd8565b6040518082815260200191505060405180910390f35b34801561033e57600080fd5b50610347610d21565b6040518082600481111561035757fe5b60ff16815260200191505060405180910390f35b34801561037757600080fd5b50610380610da0565b604051808215151515815260200191505060405180910390f35b3480156103a657600080fd5b506103e5600480360381019080803573ffffffffffffffffffffffffffffffffffffffff16906020019092919080359060200190929190505050610da9565b604051808215151515815260200191505060405180910390f35b34801561040b57600080fd5b5061044a600480360381019080803573ffffffffffffffffffffffffffffffffffffffff16906020019092919080359060200190929190505050611019565b604051808215151515815260200191505060405180910390f35b34801561047057600080fd5b50610479611229565b6040518082815260200191505060405180910390f35b34801561049b57600080fd5b506104d0600480360381019080803573ffffffffffffffffffffffffffffffffffffffff16906020019092919050505061122f565b005b3480156104de57600080fd5b50610533600480360381019080803573ffffffffffffffffffffffffffffffffffffffff169060200190929190803573ffffffffffffffffffffffffffffffffffffffff169060200190929190505050611551565b6040518082815260200191505060405180910390f35b34801561055557600080fd5b50610594600480360381019080803573ffffffffffffffffffffffffffffffffffffffff169060200190929190803590602001909291905050506115d8565b604051808215151515815260200191505060405180910390f35b3480156105ba57600080fd5b506105ef600480360381019080803573ffffffffffffffffffffffffffffffffffffffff169060200190929190505050611878565b005b600080821415801561068057506000600260003373ffffffffffffffffffffffffffffffffffffffff1673ffffffffffffffffffffffffffffffffffffffff16815260200190815260200160002060008573ffffffffffffffffffffffffffffffffffffffff1673ffffffffffffffffffffffffffffffffffffffff1681526020019081526020016000205414155b1561068a57600080fd5b81600260003373ffffffffffffffffffffffffffffffffffffffff1673ffffffffffffffffffffffffffffffffffffffff16815260200190815260200160002060008573ffffffffffffffffffffffffffffffffffffffff1673ffffffffffffffffffffffffffffffffffffffff168152602001908152602001600020819055508273ffffffffffffffffffffffffffffffffffffffff163373ffffffffffffffffffffffffffffffffffffffff167f8c5be1e5ebec7d5bd14f71427d1e84f3dd0314c0f7b2291e5b200ac8c7c3b925846040518082815260200191505060405180910390a36001905092915050565b60005481565b600080600260008673ffffffffffffffffffffffffffffffffffffffff1673ffffffffffffffffffffffffffffffffffffffff16815260200190815260200160002060003373ffffffffffffffffffffffffffffffffffffffff1673ffffffffffffffffffffffffffffffffffffffff16815260200190815260200160002054905061084b600160008673ffffffffffffffffffffffffffffffffffffffff1673ffffffffffffffffffffffffffffffffffffffff168152602001908152602001600020548461193c565b600160008673ffffffffffffffffffffffffffffffffffffffff1673ffffffffffffffffffffffffffffffffffffffff168152602001908152602001600020819055506108d7600160008773ffffffffffffffffffffffffffffffffffffffff1673ffffffffffffffffffffffffffffffffffffffff1681526020019081526020016000205484611966565b600160008773ffffffffffffffffffffffffffffffffffffffff1673ffffffffffffffffffffffffffffffffffffffff168152602001908152602001600020819055506109248184611966565b600260008773ffffffffffffffffffffffffffffffffffffffff1673ffffffffffffffffffffffffffffffffffffffff16815260200190815260200160002060003373ffffffffffffffffffffffffffffffffffffffff1673ffffffffffffffffffffffffffffffffffffffff168152602001908152602001600020819055508373ffffffffffffffffffffffffffffffffffffffff168573ffffffffffffffffffffffffffffffffffffffff167fddf252ad1be2c89b69c2b068fc378daa952ba7f163c4a11628f55a4df523b3ef856040518082815260200191505060405180910390a360019150509392505050565b6000610a1f610d21565b905060036004811115610a2e57fe5b816004811115610a3a57fe5b1480610a5b5750600480811115610a4d57fe5b816004811115610a5957fe5b145b1515610a6657600080fd5b6000821415610a7457600080fd5b610abd600160003373ffffffffffffffffffffffffffffffffffffffff1673ffffffffffffffffffffffffffffffffffffffff1681526020019081526020016000205483611966565b600160003373ffffffffffffffffffffffffffffffffffffffff1673ffffffffffffffffffffffffffffffffffffffff16815260200190815260200160002081905550610b0c60005483611966565b600081905550610b1e6005548361193c565b600581905550600460009054906101000a900473ffffffffffffffffffffffffffffffffffffffff1673ffffffffffffffffffffffffffffffffffffffff1663753e88e533846040518363ffffffff167c0100000000000000000000000000000000000000000000000000000000028152600401808373ffffffffffffffffffffffffffffffffffffffff1673ffffffffffffffffffffffffffffffffffffffff16815260200182815260200192505050600060405180830381600087803b158015610be957600080fd5b505af1158015610bfd573d6000803e3d6000fd5b50505050600460009054906101000a900473ffffffffffffffffffffffffffffffffffffffff1673ffffffffffffffffffffffffffffffffffffffff163373ffffffffffffffffffffffffffffffffffffffff167f7e5c344a8141a805725cb476f76c6953b842222b967edd1f78ddb6e8b3f397ac846040518082815260200191505060405180910390a35050565b600460009054906101000a900473ffffffffffffffffffffffffffffffffffffffff1681565b600360009054906101000a900473ffffffffffffffffffffffffffffffffffffffff1681565b6000600160008373ffffffffffffffffffffffffffffffffffffffff1673ffffffffffffffffffffffffffffffffffffffff168152602001908152602001600020549050919050565b6000610d2b610da0565b1515610d3a5760019050610d9d565b6000600460009054906101000a900473ffffffffffffffffffffffffffffffffffffffff1673ffffffffffffffffffffffffffffffffffffffff161415610d845760029050610d9d565b60006005541415610d985760039050610d9d565b600490505b90565b60006001905090565b6000806040600481016000369050141515610dc357600080fd5b610e0c600160003373ffffffffffffffffffffffffffffffffffffffff1673ffffffffffffffffffffffffffffffffffffffff1681526020019081526020016000205485611966565b600160003373ffffffffffffffffffffffffffffffffffffffff1673ffffffffffffffffffffffffffffffffffffffff16815260200190815260200160002081905550610e98600160008773ffffffffffffffffffffffffffffffffffffffff1673ffffffffffffffffffffffffffffffffffffffff168152602001908152602001600020548561193c565b600160008773ffffffffffffffffffffffffffffffffffffffff1673ffffffffffffffffffffffffffffffffffffffff168152602001908152602001600020819055508473ffffffffffffffffffffffffffffffffffffffff163373ffffffffffffffffffffffffffffffffffffffff167fddf252ad1be2c89b69c2b068fc378daa952ba7f163c4a11628f55a4df523b3ef866040518082815260200191505060405180910390a3610f498561197f565b1561100d578491508173ffffffffffffffffffffffffffffffffffffffff16633b66d02b33866040518363ffffffff167c0100000000000000000000000000000000000000000000000000000000028152600401808373ffffffffffffffffffffffffffffffffffffffff1673ffffffffffffffffffffffffffffffffffffffff16815260200182815260200192505050600060405180830381600087803b158015610ff457600080fd5b505af1158015611008573d6000803e3d6000fd5b505050505b60019250505092915050565b600080604060048101600036905014151561103357600080fd5b600260003373ffffffffffffffffffffffffffffffffffffffff1673ffffffffffffffffffffffffffffffffffffffff16815260200190815260200160002060008673ffffffffffffffffffffffffffffffffffffffff1673ffffffffffffffffffffffffffffffffffffffff1681526020019081526020016000205491506110bc828561193c565b600260003373ffffffffffffffffffffffffffffffffffffffff1673ffffffffffffffffffffffffffffffffffffffff16815260200190815260200160002060008773ffffffffffffffffffffffffffffffffffffffff1673ffffffffffffffffffffffffffffffffffffffff168152602001908152602001600020819055508473ffffffffffffffffffffffffffffffffffffffff163373ffffffffffffffffffffffffffffffffffffffff167f8c5be1e5ebec7d5bd14f71427d1e84f3dd0314c0f7b2291e5b200ac8c7c3b925600260003373ffffffffffffffffffffffffffffffffffffffff1673ffffffffffffffffffffffffffffffffffffffff16815260200190815260200160002060008973ffffffffffffffffffffffffffffffffffffffff1673ffffffffffffffffffffffffffffffffffffffff168152602001908152602001600020546040518082815260200191505060405180910390a360019250505092915050565b60055481565b611237610da0565b151561124257600080fd5b60008173ffffffffffffffffffffffffffffffffffffffff16141561126657600080fd5b600360009054906101000a900473ffffffffffffffffffffffffffffffffffffffff1673ffffffffffffffffffffffffffffffffffffffff163373ffffffffffffffffffffffffffffffffffffffff161415156112c257600080fd5b6004808111156112ce57fe5b6112d6610d21565b60048111156112e157fe5b14156112ec57600080fd5b80600460006101000a81548173ffffffffffffffffffffffffffffffffffffffff021916908373ffffffffffffffffffffffffffffffffffffffff160217905550600460009054906101000a900473ffffffffffffffffffffffffffffffffffffffff1673ffffffffffffffffffffffffffffffffffffffff166361d3d7a66040518163ffffffff167c0100000000000000000000000000000000000000000000000000000000028152600401602060405180830381600087803b1580156113b357600080fd5b505af11580156113c7573d6000803e3d6000fd5b505050506040513d60208110156113dd57600080fd5b810190808051906020019092919050505015156113f957600080fd5b600054600460009054906101000a900473ffffffffffffffffffffffffffffffffffffffff1673ffffffffffffffffffffffffffffffffffffffff16634b2ba0dd6040518163ffffffff167c0100000000000000000000000000000000000000000000000000000000028152600401602060405180830381600087803b15801561148257600080fd5b505af1158015611496573d6000803e3d6000fd5b505050506040513d60208110156114ac57600080fd5b81019080805190602001909291905050501415156114c957600080fd5b7f7845d5aa74cc410e35571258d954f23b82276e160fe8c188fa80566580f279cc600460009054906101000a900473ffffffffffffffffffffffffffffffffffffffff16604051808273ffffffffffffffffffffffffffffffffffffffff1673ffffffffffffffffffffffffffffffffffffffff16815260200191505060405180910390a150565b6000600260008473ffffffffffffffffffffffffffffffffffffffff1673ffffffffffffffffffffffffffffffffffffffff16815260200190815260200160002060008373ffffffffffffffffffffffffffffffffffffffff1673ffffffffffffffffffffffffffffffffffffffff16815260200190815260200160002054905092915050565b60008060406004810160003690501415156115f257600080fd5b600260003373ffffffffffffffffffffffffffffffffffffffff1673ffffffffffffffffffffffffffffffffffffffff16815260200190815260200160002060008673ffffffffffffffffffffffffffffffffffffffff1673ffffffffffffffffffffffffffffffffffffffff16815260200190815260200160002054915081841115611700576000600260003373ffffffffffffffffffffffffffffffffffffffff1673ffffffffffffffffffffffffffffffffffffffff16815260200190815260200160002060008773ffffffffffffffffffffffffffffffffffffffff1673ffffffffffffffffffffffffffffffffffffffff1681526020019081526020016000208190555061178b565b61170a8285611966565b600260003373ffffffffffffffffffffffffffffffffffffffff1673ffffffffffffffffffffffffffffffffffffffff16815260200190815260200160002060008773ffffffffffffffffffffffffffffffffffffffff1673ffffffffffffffffffffffffffffffffffffffff168152602001908152602001600020819055505b8473ffffffffffffffffffffffffffffffffffffffff163373ffffffffffffffffffffffffffffffffffffffff167f8c5be1e5ebec7d5bd14f71427d1e84f3dd0314c0f7b2291e5b200ac8c7c3b925600260003373ffffffffffffffffffffffffffffffffffffffff1673ffffffffffffffffffffffffffffffffffffffff16815260200190815260200160002060008973ffffffffffffffffffffffffffffffffffffffff1673ffffffffffffffffffffffffffffffffffffffff168152602001908152602001600020546040518082815260200191505060405180910390a360019250505092915050565b60008173ffffffffffffffffffffffffffffffffffffffff16141561189c57600080fd5b600360009054906101000a900473ffffffffffffffffffffffffffffffffffffffff1673ffffffffffffffffffffffffffffffffffffffff163373ffffffffffffffffffffffffffffffffffffffff161415156118f857600080fd5b80600360006101000a81548173ffffffffffffffffffffffffffffffffffffffff021916908373ffffffffffffffffffffffffffffffffffffffff16021790555050565b600080828401905061195c8482101580156119575750838210155b611995565b8091505092915050565b600061197483831115611995565b818303905092915050565b600080829250823b905060008111915050919050565b8015156119a157600080fd5b505600a165627a7a723058203bef55761757759e38b78622b84c24ebcc9bc060fab1ae3d039fb1b1254aec600029",
  "source": "contract sGuard{\n  function add_uint256(uint256 a, uint256 b) internal pure returns (uint256) {\n    uint256 c = a + b;\n    assert(c >= a);\n    return c;\n  }\n  \n  function div_uint256(uint256 a, uint256 b) internal pure returns (uint256) {\n    uint256 c = a / b;\n    return c;\n  }\n}\n/**\r\n *Submitted for verification at Etherscan.io on 2017-09-08\r\n*/\r\n\r\npragma solidity ^0.4.11;\r\n\r\n/*\r\n * ERC20 interface\r\n * see https://github.com/ethereum/EIPs/issues/20\r\n */\r\ncontract ERC20  is sGuard {\r\n  uint public totalSupply;\r\n  function balanceOf(address who) constant returns (uint);\r\n  function allowance(address owner, address spender) constant returns (uint);\r\n\r\n  function transfer(address to, uint value) returns (bool ok);\r\n  function transferFrom(address from, address to, uint value) returns (bool ok);\r\n  function approve(address spender, uint value) returns (bool ok);\r\n  event Transfer(address indexed from, address indexed to, uint value);\r\n  event Approval(address indexed owner, address indexed spender, uint value);\r\n}\r\n\r\n// ERC223\r\ncontract ContractReceiver  is sGuard {\r\n  function tokenFallback(address from, uint value);\r\n}\r\n\r\n/**\r\n * Math operations with safety checks\r\n */\r\ncontract SafeMath  is sGuard {\r\n  function safeMul(uint a, uint b) internal returns (uint) {\r\n    uint c = a * b;\r\n    assert(a == 0 || c / a == b);\r\n    return c;\r\n  }\r\n\r\n  function safeDiv(uint a, uint b) internal returns (uint) {\r\n    assert(b > 0);\r\n    uint c = a / b;\r\n    assert(a == b * c + a % b);\r\n    return c;\r\n  }\r\n\r\n  function safeSub(uint a, uint b) internal returns (uint) {\r\n    assert(b <= a);\r\n    return a - b;\r\n  }\r\n\r\n  function safeAdd(uint a, uint b) internal returns (uint) {\r\n    uint c = a + b;\r\n    assert(c>=a && c>=b);\r\n    return c;\r\n  }\r\n\r\n  function max64(uint64 a, uint64 b) internal constant returns (uint64) {\r\n    return a >= b ? a : b;\r\n  }\r\n\r\n  function min64(uint64 a, uint64 b) internal constant returns (uint64) {\r\n    return a < b ? a : b;\r\n  }\r\n\r\n  function max256(uint256 a, uint256 b) internal constant returns (uint256) {\r\n    return a >= b ? a : b;\r\n  }\r\n\r\n  function min256(uint256 a, uint256 b) internal constant returns (uint256) {\r\n    return a < b ? a : b;\r\n  }\r\n\r\n  function assert(bool assertion) internal {\r\n    if (!assertion) {\r\n      revert();\r\n    }\r\n  }\r\n}\r\n\r\n\r\n\r\n/**\r\n * Standard ERC20 token with Short Hand Attack and approve() race condition mitigation.\r\n *\r\n * Based on code by FirstBlood:\r\n * https://github.com/Firstbloodio/token/blob/master/smart_contract/FirstBloodToken.sol\r\n */\r\ncontract StandardToken is sGuard,  ERC20, SafeMath {\r\n\r\n  /* Token supply got increased and a new owner received these tokens */\r\n  event Minted(address receiver, uint amount);\r\n\r\n  /* Actual balances of token holders */\r\n  mapping(address => uint) balances;\r\n\r\n  /* approve() allowances */\r\n  mapping (address => mapping (address => uint)) allowed;\r\n\r\n  /**\r\n   *\r\n   * Fix for the ERC20 short address attack\r\n   *\r\n   * http://vessenes.com/the-erc20-short-address-attack-explained/\r\n   */\r\n  modifier onlyPayloadSize(uint size) {\r\n     if(msg.data.length != size + 4) {\r\n       revert();\r\n     }\r\n     _;\r\n  }\r\n\r\n  function transfer(address _to, uint _value) onlyPayloadSize(2 * 32) returns (bool success) {\r\n    balances[msg.sender] = safeSub(balances[msg.sender], _value);\r\n    balances[_to] = safeAdd(balances[_to], _value);\r\n    Transfer(msg.sender, _to, _value);\r\n\r\n    if (isContract(_to)) {\r\n      ContractReceiver rx = ContractReceiver(_to);\r\n      rx.tokenFallback(msg.sender, _value);\r\n    }\r\n\r\n    return true;\r\n  }\r\n\r\n  // ERC223 fetch contract size (must be nonzero to be a contract)\r\n  function isContract( address _addr ) private returns (bool) {\r\n    uint length;\r\n    _addr = _addr;\r\n    assembly { length := extcodesize(_addr) }\r\n    return (length > 0);\r\n  }\r\n\r\n  function transferFrom(address _from, address _to, uint _value) returns (bool success) {\r\n    uint _allowance = allowed[_from][msg.sender];\r\n\r\n    // Check is not needed because safeSub(_allowance, _value) will already throw if this condition is not met\r\n    // if (_value > _allowance) revert();\r\n\r\n    balances[_to] = safeAdd(balances[_to], _value);\r\n    balances[_from] = safeSub(balances[_from], _value);\r\n    allowed[_from][msg.sender] = safeSub(_allowance, _value);\r\n    Transfer(_from, _to, _value);\r\n    return true;\r\n  }\r\n\r\n  function balanceOf(address _owner) constant returns (uint balance) {\r\n    return balances[_owner];\r\n  }\r\n\r\n  function approve(address _spender, uint _value) returns (bool success) {\r\n\r\n    // To change the approve amount you first have to reduce the addresses`\r\n    //  allowance to zero by calling `approve(_spender, 0)` if it is not\r\n    //  already 0 to mitigate the race condition described here:\r\n    //  https://github.com/ethereum/EIPs/issues/20#issuecomment-263524729\r\n    if ((_value != 0) && (allowed[msg.sender][_spender] != 0)) revert();\r\n\r\n    allowed[msg.sender][_spender] = _value;\r\n    Approval(msg.sender, _spender, _value);\r\n    return true;\r\n  }\r\n\r\n  function allowance(address _owner, address _spender) constant returns (uint remaining) {\r\n    return allowed[_owner][_spender];\r\n  }\r\n\r\n  /**\r\n   * Atomic increment of approved spending\r\n   *\r\n   * Works around https://github.com/ethereum/EIPs/issues/20#issuecomment-263524729\r\n   *\r\n   */\r\n  function addApproval(address _spender, uint _addedValue)\r\n  onlyPayloadSize(2 * 32)\r\n  returns (bool success) {\r\n      uint oldValue = allowed[msg.sender][_spender];\r\n      allowed[msg.sender][_spender] = safeAdd(oldValue, _addedValue);\r\n      Approval(msg.sender, _spender, allowed[msg.sender][_spender]);\r\n      return true;\r\n  }\r\n\r\n  /**\r\n   * Atomic decrement of approved spending.\r\n   *\r\n   * Works around https://github.com/ethereum/EIPs/issues/20#issuecomment-263524729\r\n   */\r\n  function subApproval(address _spender, uint _subtractedValue)\r\n  onlyPayloadSize(2 * 32)\r\n  returns (bool success) {\r\n\r\n      uint oldVal = allowed[msg.sender][_spender];\r\n\r\n      if (_subtractedValue > oldVal) {\r\n          allowed[msg.sender][_spender] = 0;\r\n      } else {\r\n          allowed[msg.sender][_spender] = safeSub(oldVal, _subtractedValue);\r\n      }\r\n      Approval(msg.sender, _spender, allowed[msg.sender][_spender]);\r\n      return true;\r\n  }\r\n\r\n}\r\n\r\n\r\n\r\ncontract BurnableToken is sGuard,  StandardToken {\r\n\r\n  address public constant BURN_ADDRESS = 0;\r\n\r\n  /** How many tokens we burned */\r\n  event Burned(address burner, uint burnedAmount);\r\n\r\n  /**\r\n   * Burn extra tokens from a balance.\r\n   *\r\n   */\r\n  function burn(uint burnAmount) {\r\n    address burner = msg.sender;\r\n    balances[burner] = safeSub(balances[burner], burnAmount);\r\n    totalSupply = safeSub(totalSupply, burnAmount);\r\n    Burned(burner, burnAmount);\r\n  }\r\n}\r\n\r\n\r\n\r\n\r\n\r\n/**\r\n * Upgrade agent interface inspired by Lunyr.\r\n *\r\n * Upgrade agent transfers tokens to a new contract.\r\n * Upgrade agent itself can be the token contract, or just a middle man contract doing the heavy lifting.\r\n */\r\ncontract UpgradeAgent  is sGuard {\r\n\r\n  uint public originalSupply;\r\n\r\n  /** Interface marker */\r\n  function isUpgradeAgent() public constant returns (bool) {\r\n    return true;\r\n  }\r\n\r\n  function upgradeFrom(address _from, uint256 _value) public;\r\n\r\n}\r\n\r\n\r\n/**\r\n * A token upgrade mechanism where users can opt-in amount of tokens to the next smart contract revision.\r\n *\r\n * First envisioned by Golem and Lunyr projects.\r\n */\r\ncontract UpgradeableToken is sGuard,  StandardToken {\r\n\r\n  /** Contract / person who can set the upgrade path. This can be the same as team multisig wallet, as what it is with its default value. */\r\n  address public upgradeMaster;\r\n\r\n  /** The next contract where the tokens will be migrated. */\r\n  UpgradeAgent public upgradeAgent;\r\n\r\n  /** How many tokens we have upgraded by now. */\r\n  uint256 public totalUpgraded;\r\n\r\n  /**\r\n   * Upgrade states.\r\n   *\r\n   * - NotAllowed: The child contract has not reached a condition where the upgrade can bgun\r\n   * - WaitingForAgent: Token allows upgrade, but we don't have a new agent yet\r\n   * - ReadyToUpgrade: The agent is set, but not a single token has been upgraded yet\r\n   * - Upgrading: Upgrade agent is set and the balance holders can upgrade their tokens\r\n   *\r\n   */\r\n  enum UpgradeState {Unknown, NotAllowed, WaitingForAgent, ReadyToUpgrade, Upgrading}\r\n\r\n  /**\r\n   * Somebody has upgraded some of his tokens.\r\n   */\r\n  event Upgrade(address indexed _from, address indexed _to, uint256 _value);\r\n\r\n  /**\r\n   * New upgrade agent available.\r\n   */\r\n  event UpgradeAgentSet(address agent);\r\n\r\n  /**\r\n   * Do not allow construction without upgrade master set.\r\n   */\r\n  function UpgradeableToken(address _upgradeMaster) {\r\n    upgradeMaster = _upgradeMaster;\r\n  }\r\n\r\n  /**\r\n   * Allow the token holder to upgrade some of their tokens to a new contract.\r\n   */\r\n  function upgrade(uint256 value) public {\r\n\r\n      UpgradeState state = getUpgradeState();\r\n      if(!(state == UpgradeState.ReadyToUpgrade || state == UpgradeState.Upgrading)) {\r\n        // Called in a bad state\r\n        revert();\r\n      }\r\n\r\n      // Validate input value.\r\n      if (value == 0) revert();\r\n\r\n      balances[msg.sender] = safeSub(balances[msg.sender], value);\r\n\r\n      // Take tokens out from circulation\r\n      totalSupply = safeSub(totalSupply, value);\r\n      totalUpgraded = safeAdd(totalUpgraded, value);\r\n\r\n      // Upgrade agent reissues the tokens\r\n      upgradeAgent.upgradeFrom(msg.sender, value);\r\n      Upgrade(msg.sender, upgradeAgent, value);\r\n  }\r\n\r\n  /**\r\n   * Set an upgrade agent that handles\r\n   */\r\n  function setUpgradeAgent(address agent) external {\r\n\r\n      if(!canUpgrade()) {\r\n        // The token is not yet in a state that we could think upgrading\r\n        revert();\r\n      }\r\n\r\n      if (agent == 0x0) revert();\r\n      // Only a master can designate the next agent\r\n      if (msg.sender != upgradeMaster) revert();\r\n      // Upgrade has already begun for an agent\r\n      if (getUpgradeState() == UpgradeState.Upgrading) revert();\r\n\r\n      upgradeAgent = UpgradeAgent(agent);\r\n\r\n      // Bad interface\r\n      if(!upgradeAgent.isUpgradeAgent()) revert();\r\n      // Make sure that token supplies match in source and target\r\n      if (upgradeAgent.originalSupply() != totalSupply) revert();\r\n\r\n      UpgradeAgentSet(upgradeAgent);\r\n  }\r\n\r\n  /**\r\n   * Get the state of the token upgrade.\r\n   */\r\n  function getUpgradeState() public constant returns(UpgradeState) {\r\n    if(!canUpgrade()) return UpgradeState.NotAllowed;\r\n    else if(address(upgradeAgent) == 0x00) return UpgradeState.WaitingForAgent;\r\n    else if(totalUpgraded == 0) return UpgradeState.ReadyToUpgrade;\r\n    else return UpgradeState.Upgrading;\r\n  }\r\n\r\n  /**\r\n   * Change the upgrade master.\r\n   *\r\n   * This allows us to set a new owner for the upgrade mechanism.\r\n   */\r\n  function setUpgradeMaster(address master) public {\r\n      if (master == 0x0) revert();\r\n      if (msg.sender != upgradeMaster) revert();\r\n      upgradeMaster = master;\r\n  }\r\n\r\n  /**\r\n   * Child contract can enable to provide the condition when the upgrade can begun.\r\n   */\r\n  function canUpgrade() public constant returns(bool) {\r\n     return true;\r\n  }\r\n\r\n}\r\n\r\n\r\ncontract BCOExtendedToken is sGuard,  BurnableToken, UpgradeableToken {\r\n\r\n  string public name;\r\n  string public symbol;\r\n  uint public decimals;\r\n  address public owner;\r\n\r\n  bool public mintingFinished = false;\r\n\r\n  mapping(address => uint) public previligedBalances;\r\n\r\n  /** List of agents that are allowed to create new tokens */\r\n  mapping(address => bool) public mintAgents;\r\n  event MintingAgentChanged(address addr, bool state);\r\n\r\n  modifier onlyOwner() {\r\n    if(msg.sender != owner) revert();\r\n    _;\r\n  }\r\n\r\n  modifier onlyMintAgent() {\r\n    // Only crowdsale contracts are allowed to mint new tokens\r\n    if(!mintAgents[msg.sender]) revert();\r\n    _;\r\n  }\r\n\r\n  /** Make sure we are not done yet. */\r\n  modifier canMint() {\r\n    if(mintingFinished) revert();\r\n    _;\r\n  }\r\n\r\n  function transferOwnership(address newOwner) onlyOwner {\r\n    if (newOwner != address(0)) {\r\n      owner = newOwner;\r\n    }\r\n  }\r\n\r\n  function BCOExtendedToken(address _owner, string _name, string _symbol, uint _totalSupply, uint _decimals)  UpgradeableToken(_owner) {\r\n    name = _name;\r\n    symbol = _symbol;\r\n    totalSupply = _totalSupply;\r\n    decimals = _decimals;\r\n\r\n    // Allocate initial balance to the owner\r\n    balances[_owner] = _totalSupply;\r\n\r\n    // save the owner\r\n    owner = _owner;\r\n  }\r\n\r\n  // privileged transfer\r\n  function transferPrivileged(address _to, uint _value) onlyOwner returns (bool success) {\r\n    balances[msg.sender] = safeSub(balances[msg.sender], _value);\r\n    balances[_to] = safeAdd(balances[_to], _value);\r\n    previligedBalances[_to] = safeAdd(previligedBalances[_to], _value);\r\n    Transfer(msg.sender, _to, _value);\r\n    return true;\r\n  }\r\n\r\n  // get priveleged balance\r\n  function getPrivilegedBalance(address _owner) constant returns (uint balance) {\r\n    return previligedBalances[_owner];\r\n  }\r\n\r\n  // admin only can transfer from the privileged accounts\r\n  function transferFromPrivileged(address _from, address _to, uint _value) onlyOwner returns (bool success) {\r\n    uint availablePrevilegedBalance = previligedBalances[_from];\r\n\r\n    balances[_from] = safeSub(balances[_from], _value);\r\n    balances[_to] = safeAdd(balances[_to], _value);\r\n    previligedBalances[_from] = safeSub(availablePrevilegedBalance, _value);\r\n    Transfer(_from, _to, _value);\r\n    return true;\r\n  }\r\n\r\n  /**\r\n   * Create new tokens and allocate them to an address..\r\n   *\r\n   * Only callably by a crowdsale contract (mint agent).\r\n   */\r\n  function mint(address receiver, uint amount) onlyMintAgent canMint public {\r\n    totalSupply = safeAdd(totalSupply, amount);\r\n    balances[receiver] = safeAdd(balances[receiver], amount);\r\n\r\n    // This will make the mint transaction apper in EtherScan.io\r\n    // We can remove this after there is a standardized minting event\r\n    Transfer(0, receiver, amount);\r\n  }\r\n\r\n  /**\r\n   * Owner can allow a crowdsale contract to mint new tokens.\r\n   */\r\n  function setMintAgent(address addr, bool state) onlyOwner canMint public {\r\n    mintAgents[addr] = state;\r\n    MintingAgentChanged(addr, state);\r\n  }\r\n\r\n}\r\n\r\ncontract SaleExtendedBCO  is sGuard {\r\n    address public beneficiary;\r\n    uint public startline;\r\n    uint public deadline;\r\n    uint public price;\r\n    uint public amountRaised;\r\n    uint public incomingTokensTransactions;\r\n\r\n    mapping(address => uint) public actualGotETH;\r\n    BCOExtendedToken public tokenReward;\r\n\r\n    event TokenFallback( address indexed from,\r\n                         uint256 value);\r\n\r\n    modifier onlyOwner() {\r\n        if(msg.sender != beneficiary) revert();\r\n        _;\r\n    }\r\n\r\n    modifier whenCrowdsaleIsFinished() {\r\n        if(now < deadline) revert();\r\n        _;\r\n    }\r\n\r\n    modifier whenRefundAvailable() {\r\n        if(tokenReward.balanceOf(address(this)) <= 0) revert();\r\n        _;\r\n    }\r\n\r\n    function SaleExtendedBCO(\r\n        uint start,\r\n        uint end,\r\n        uint costOfEachToken,\r\n        BCOExtendedToken addressOfTokenUsedAsReward\r\n    ) {\r\n        beneficiary = msg.sender;\r\n        startline = start;\r\n        deadline = end;\r\n        price = costOfEachToken;\r\n        tokenReward = BCOExtendedToken(addressOfTokenUsedAsReward);\r\n    }\r\n\r\n    function () payable {\r\n        if (now <= startline) revert();\r\n        if (now >= deadline) revert();\r\n\r\n        uint amount = msg.value;\r\n        if (amount < price) revert();\r\n\r\n        amountRaised = add_uint256(amountRaised, amount);\r\n\r\n        uint tokensToSend = div_uint256(amount, price);\r\n\r\n        actualGotETH[msg.sender] = add_uint256(actualGotETH[msg.sender], amount);\r\n\r\n        tokenReward.transfer(msg.sender, tokensToSend);\r\n    }\r\n\r\n    function transferOwnership(address newOwner) onlyOwner {\r\n        if (newOwner != address(0)) {\r\n            beneficiary = newOwner;\r\n        }\r\n    }\r\n\r\n    function Refund() whenRefundAvailable whenCrowdsaleIsFinished {\r\n        msg.sender.transfer(actualGotETH[msg.sender]);\r\n    }\r\n\r\n    function WithdrawETH(uint amount) onlyOwner {\r\n        beneficiary.transfer(amount);\r\n    }\r\n\r\n    function WithdrawAllETH() onlyOwner {\r\n        beneficiary.transfer(amountRaised);\r\n    }\r\n\r\n    function WithdrawTokens(uint amount) onlyOwner {\r\n        tokenReward.transfer(beneficiary, amount);\r\n    }\r\n\r\n    function ChangeCost(uint costOfEachToken) onlyOwner {\r\n        price = costOfEachToken;\r\n    }\r\n\r\n    function ChangeStart(uint start) onlyOwner {\r\n        startline = start;\r\n    }\r\n\r\n    function ChangeEnd(uint end) onlyOwner {\r\n        deadline = end;\r\n    }\r\n\r\n    // ERC223\r\n    // function in contract 'ContractReceiver'\r\n    function tokenFallback(address from, uint value) {\r\n        incomingTokensTransactions += 1;\r\n        TokenFallback(from, value);\r\n    }\r\n}",
  "sourcePath": "/workdir/truffle_example/after/0x87be69e5c196e0309cdf6957fd7141fda1df2b97/contracts/0x87bE69E5C196E0309CDF6957FD7141FDA1DF2B97.sol.fixed.sol",
  "compiler": {
    "name": "solc",
    "version": "0.4.25+commit.59dbf8f1.Emscripten.clang"
  },
  "schemaVersion": "3.4.8",
  "updatedAt": "2022-09-02T08:27:43.818Z",
  "devdoc": {
    "methods": {}
  },
  "userdoc": {
    "methods": {
      "addApproval(address,uint256)": {
        "notice": "Atomic increment of approved spending\r    * Works around https://github.com/ethereum/EIPs/issues/20#issuecomment-263524729\r    "
      },
      "canUpgrade()": {
        "notice": "Child contract can enable to provide the condition when the upgrade can begun.\r"
      },
      "getUpgradeState()": {
        "notice": "Get the state of the token upgrade.\r"
      },
      "setUpgradeAgent(address)": {
        "notice": "Set an upgrade agent that handles\r"
      },
      "setUpgradeMaster(address)": {
        "notice": "Change the upgrade master.\r    * This allows us to set a new owner for the upgrade mechanism.\r"
      },
      "subApproval(address,uint256)": {
        "notice": "Atomic decrement of approved spending.\r    * Works around https://github.com/ethereum/EIPs/issues/20#issuecomment-263524729\r"
      },
      "upgrade(uint256)": {
        "notice": "Allow the token holder to upgrade some of their tokens to a new contract.\r"
      }
    }
  }
}