{
  "contractName": "keepMyEther",
  "abi": [
    {
      "constant": true,
      "inputs": [
        {
          "name": "",
          "type": "address"
        }
      ],
      "name": "balances",
      "outputs": [
        {
          "name": "",
          "type": "uint256"
        }
      ],
      "payable": false,
      "stateMutability": "view",
      "type": "function"
    },
    {
      "payable": true,
      "stateMutability": "payable",
      "type": "fallback"
    },
    {
      "constant": false,
      "inputs": [],
      "name": "withdraw",
      "outputs": [],
      "payable": false,
      "stateMutability": "nonpayable",
      "type": "function"
    }
  ],
  "bytecode": "0x608060405234801561001057600080fd5b506101fd806100206000396000f30060806040526004361061004c576000357c0100000000000000000000000000000000000000000000000000000000900463ffffffff16806327e235e31461009a5780633ccfd60b146100f1575b346000803373ffffffffffffffffffffffffffffffffffffffff1673ffffffffffffffffffffffffffffffffffffffff16815260200190815260200160002060008282540192505081905550005b3480156100a657600080fd5b506100db600480360381019080803573ffffffffffffffffffffffffffffffffffffffff169060200190929190505050610108565b6040518082815260200191505060405180910390f35b3480156100fd57600080fd5b50610106610120565b005b60006020528060005260406000206000915090505481565b3373ffffffffffffffffffffffffffffffffffffffff166000803373ffffffffffffffffffffffffffffffffffffffff1673ffffffffffffffffffffffffffffffffffffffff1681526020019081526020016000205460405160006040518083038185875af1925050505060008060003373ffffffffffffffffffffffffffffffffffffffff1673ffffffffffffffffffffffffffffffffffffffff168152602001908152602001600020819055505600a165627a7a7230582052d918f746c2301320e92014685126c083c1eeee5f9f6893f92974658bc3d3fa0029",
  "source": "/*\r\n * @source: etherscan.io \r\n * @author: -\r\n * @vulnerable_at_lines: 25\r\n */\r\n\r\npragma solidity ^0.4.23;\r\n\r\n/*\r\n!!! THIS CONTRACT IS EXPLOITABLE AND FOR EDUCATIONAL PURPOSES ONLY !!!\r\n\r\nThis smart contract allows a user to (insecurely) store funds\r\nin this smart contract and withdraw them at any later point in time\r\n*/\r\n\r\ncontract keepMyEther {\r\n    mapping(address => uint256) public balances;\r\n    \r\n    function () payable public {\r\n        balances[msg.sender] += msg.value;\r\n    }\r\n    \r\n    function withdraw() public {\r\n        // <yes> <report> UNCHECKED_LL_CALLS\r\n        msg.sender.call.value(balances[msg.sender])();\r\n        balances[msg.sender] = 0;\r\n    }\r\n}",
  "sourcePath": "/workdir/truffle_example/before/0xb7c5c5aa4d42967efe906e1b66cb8df9cebf04f7/contracts/0xb7c5c5aa4d42967efe906e1b66cb8df9cebf04f7.sol",
  "compiler": {
    "name": "solc",
    "version": "0.4.25+commit.59dbf8f1.Emscripten.clang"
  },
  "schemaVersion": "3.4.8",
  "updatedAt": "2022-08-14T08:58:56.309Z",
  "networkType": "ethereum",
  "devdoc": {
    "methods": {}
  },
  "userdoc": {
    "methods": {}
  }
}