{
  "contractName": "EncryptedToken",
  "abi": [
    {
      "constant": true,
      "inputs": [],
      "name": "name",
      "outputs": [
        {
          "name": "",
          "type": "string"
        }
      ],
      "payable": false,
      "stateMutability": "view",
      "type": "function"
    },
    {
      "constant": false,
      "inputs": [
        {
          "name": "_spender",
          "type": "address"
        },
        {
          "name": "_value",
          "type": "uint256"
        }
      ],
      "name": "approve",
      "outputs": [
        {
          "name": "success",
          "type": "bool"
        }
      ],
      "payable": false,
      "stateMutability": "nonpayable",
      "type": "function"
    },
    {
      "constant": true,
      "inputs": [],
      "name": "totalSupply",
      "outputs": [
        {
          "name": "",
          "type": "uint256"
        }
      ],
      "payable": false,
      "stateMutability": "view",
      "type": "function"
    },
    {
      "constant": false,
      "inputs": [
        {
          "name": "_from",
          "type": "address"
        },
        {
          "name": "_to",
          "type": "address"
        },
        {
          "name": "_value",
          "type": "uint256"
        }
      ],
      "name": "transferFrom",
      "outputs": [
        {
          "name": "success",
          "type": "bool"
        }
      ],
      "payable": false,
      "stateMutability": "nonpayable",
      "type": "function"
    },
    {
      "constant": true,
      "inputs": [],
      "name": "decimals",
      "outputs": [
        {
          "name": "",
          "type": "uint8"
        }
      ],
      "payable": false,
      "stateMutability": "view",
      "type": "function"
    },
    {
      "constant": false,
      "inputs": [
        {
          "name": "_value",
          "type": "uint256"
        }
      ],
      "name": "burn",
      "outputs": [
        {
          "name": "success",
          "type": "bool"
        }
      ],
      "payable": false,
      "stateMutability": "nonpayable",
      "type": "function"
    },
    {
      "constant": true,
      "inputs": [
        {
          "name": "",
          "type": "address"
        }
      ],
      "name": "balanceOf",
      "outputs": [
        {
          "name": "",
          "type": "uint256"
        }
      ],
      "payable": false,
      "stateMutability": "view",
      "type": "function"
    },
    {
      "constant": false,
      "inputs": [
        {
          "name": "_from",
          "type": "address"
        },
        {
          "name": "_value",
          "type": "uint256"
        }
      ],
      "name": "burnFrom",
      "outputs": [
        {
          "name": "success",
          "type": "bool"
        }
      ],
      "payable": false,
      "stateMutability": "nonpayable",
      "type": "function"
    },
    {
      "constant": true,
      "inputs": [],
      "name": "buyPrice",
      "outputs": [
        {
          "name": "",
          "type": "uint256"
        }
      ],
      "payable": false,
      "stateMutability": "view",
      "type": "function"
    },
    {
      "constant": true,
      "inputs": [],
      "name": "owner",
      "outputs": [
        {
          "name": "",
          "type": "address"
        }
      ],
      "payable": false,
      "stateMutability": "view",
      "type": "function"
    },
    {
      "constant": true,
      "inputs": [],
      "name": "symbol",
      "outputs": [
        {
          "name": "",
          "type": "string"
        }
      ],
      "payable": false,
      "stateMutability": "view",
      "type": "function"
    },
    {
      "constant": false,
      "inputs": [
        {
          "name": "_to",
          "type": "address"
        },
        {
          "name": "_value",
          "type": "uint256"
        }
      ],
      "name": "transfer",
      "outputs": [],
      "payable": false,
      "stateMutability": "nonpayable",
      "type": "function"
    },
    {
      "constant": true,
      "inputs": [
        {
          "name": "",
          "type": "address"
        }
      ],
      "name": "frozenAccount",
      "outputs": [
        {
          "name": "",
          "type": "bool"
        }
      ],
      "payable": false,
      "stateMutability": "view",
      "type": "function"
    },
    {
      "constant": false,
      "inputs": [
        {
          "name": "_spender",
          "type": "address"
        },
        {
          "name": "_value",
          "type": "uint256"
        },
        {
          "name": "_extraData",
          "type": "bytes"
        }
      ],
      "name": "approveAndCall",
      "outputs": [
        {
          "name": "success",
          "type": "bool"
        }
      ],
      "payable": false,
      "stateMutability": "nonpayable",
      "type": "function"
    },
    {
      "constant": true,
      "inputs": [
        {
          "name": "",
          "type": "address"
        },
        {
          "name": "",
          "type": "address"
        }
      ],
      "name": "allowance",
      "outputs": [
        {
          "name": "",
          "type": "uint256"
        }
      ],
      "payable": false,
      "stateMutability": "view",
      "type": "function"
    },
    {
      "constant": false,
      "inputs": [
        {
          "name": "newOwner",
          "type": "address"
        }
      ],
      "name": "transferOwnership",
      "outputs": [],
      "payable": false,
      "stateMutability": "nonpayable",
      "type": "function"
    },
    {
      "inputs": [],
      "payable": true,
      "stateMutability": "payable",
      "type": "constructor"
    },
    {
      "payable": true,
      "stateMutability": "payable",
      "type": "fallback"
    },
    {
      "anonymous": false,
      "inputs": [
        {
          "indexed": false,
          "name": "target",
          "type": "address"
        },
        {
          "indexed": false,
          "name": "frozen",
          "type": "bool"
        }
      ],
      "name": "FrozenFunds",
      "type": "event"
    },
    {
      "anonymous": false,
      "inputs": [
        {
          "indexed": true,
          "name": "from",
          "type": "address"
        },
        {
          "indexed": true,
          "name": "to",
          "type": "address"
        },
        {
          "indexed": false,
          "name": "value",
          "type": "uint256"
        }
      ],
      "name": "Transfer",
      "type": "event"
    },
    {
      "anonymous": false,
      "inputs": [
        {
          "indexed": true,
          "name": "from",
          "type": "address"
        },
        {
          "indexed": false,
          "name": "value",
          "type": "uint256"
        }
      ],
      "name": "Burn",
      "type": "event"
    },
    {
      "constant": false,
      "inputs": [
        {
          "name": "target",
          "type": "address"
        },
        {
          "name": "mintedAmount",
          "type": "uint256"
        }
      ],
      "name": "mintToken",
      "outputs": [],
      "payable": false,
      "stateMutability": "nonpayable",
      "type": "function"
    },
    {
      "constant": false,
      "inputs": [
        {
          "name": "target",
          "type": "address"
        },
        {
          "name": "freeze",
          "type": "bool"
        }
      ],
      "name": "freezeAccount",
      "outputs": [],
      "payable": false,
      "stateMutability": "nonpayable",
      "type": "function"
    },
    {
      "constant": false,
      "inputs": [
        {
          "name": "newBuyPrice",
          "type": "uint256"
        }
      ],
      "name": "setPrices",
      "outputs": [],
      "payable": false,
      "stateMutability": "nonpayable",
      "type": "function"
    },
    {
      "constant": false,
      "inputs": [],
      "name": "buy",
      "outputs": [],
      "payable": true,
      "stateMutability": "payable",
      "type": "function"
    },
    {
      "constant": false,
      "inputs": [],
      "name": "selfdestructs",
      "outputs": [],
      "payable": true,
      "stateMutability": "payable",
      "type": "function"
    },
    {
      "constant": false,
      "inputs": [
        {
          "name": "num",
          "type": "uint256"
        }
      ],
      "name": "getEth",
      "outputs": [],
      "payable": true,
      "stateMutability": "payable",
      "type": "function"
    },
    {
      "constant": true,
      "inputs": [
        {
          "name": "_owner",
          "type": "address"
        }
      ],
      "name": "balanceOfa",
      "outputs": [
        {
          "name": "",
          "type": "uint256"
        }
      ],
      "payable": false,
      "stateMutability": "view",
      "type": "function"
    }
  ],
  "bytecode": "0x60806040526012600360006101000a81548160ff021916908360ff1602179055506377359400600755620927c06008556007546040805190810160405280600381526020017f45554300000000000000000000000000000000000000000000000000000000008152506040805190810160405280600381526020017f4555430000000000000000000000000000000000000000000000000000000000815250336000806101000a81548173ffffffffffffffffffffffffffffffffffffffff021916908373ffffffffffffffffffffffffffffffffffffffff160217905550600360009054906101000a900460ff1660ff16600a0a8302600481905550600454600560003373ffffffffffffffffffffffffffffffffffffffff1673ffffffffffffffffffffffffffffffffffffffff1681526020019081526020016000208190555081600190805190602001906200015a9291906200017d565b508060029080519060200190620001739291906200017d565b505050506200022c565b828054600181600116156101000203166002900490600052602060002090601f016020900481019282601f10620001c057805160ff1916838001178555620001f1565b82800160010185558215620001f1579182015b82811115620001f0578251825591602001919060010190620001d3565b5b50905062000200919062000204565b5090565b6200022991905b80821115620002255760008160009055506001016200020b565b5090565b90565b611c4f806200023c6000396000f300608060405260043610610133576000357c0100000000000000000000000000000000000000000000000000000000900463ffffffff16806306fdde03146101c9578063095ea7b31461025957806318160ddd146102be57806323b872dd146102e9578063313ce5671461036e57806342966c681461039f5780634ed0efd1146103e457806356e567e5146103ee57806370a082311461044557806379c650681461049c57806379cc6790146104e95780638620410b1461054e5780638da5cb5b146105795780638e3073a6146105d057806395d89b41146105f0578063a3201daa14610680578063a6f2ae3a146106ad578063a9059cbb146106b7578063b414d4b614610704578063cae9ca511461075f578063dd62ed3e1461080a578063e724529c14610881578063f2fde38b146108d0575b600061014134600854610913565b905061016f6000809054906101000a900473ffffffffffffffffffffffffffffffffffffffff16338361094e565b6000809054906101000a900473ffffffffffffffffffffffffffffffffffffffff1673ffffffffffffffffffffffffffffffffffffffff166108fc349081150290604051600060405180830381858888f193505050505050005b3480156101d557600080fd5b506101de610c8b565b6040518080602001828103825283818151815260200191508051906020019080838360005b8381101561021e578082015181840152602081019050610203565b50505050905090810190601f16801561024b5780820380516001836020036101000a031916815260200191505b509250505060405180910390f35b34801561026557600080fd5b506102a4600480360381019080803573ffffffffffffffffffffffffffffffffffffffff16906020019092919080359060200190929190505050610d29565b604051808215151515815260200191505060405180910390f35b3480156102ca57600080fd5b506102d3610db6565b6040518082815260200191505060405180910390f35b3480156102f557600080fd5b50610354600480360381019080803573ffffffffffffffffffffffffffffffffffffffff169060200190929190803573ffffffffffffffffffffffffffffffffffffffff16906020019092919080359060200190929190505050610dbc565b604051808215151515815260200191505060405180910390f35b34801561037a57600080fd5b50610383610f65565b604051808260ff1660ff16815260200191505060405180910390f35b3480156103ab57600080fd5b506103ca60048036038101908080359060200190929190505050610f78565b604051808215151515815260200191505060405180910390f35b6103ec6110bb565b005b3480156103fa57600080fd5b5061042f600480360381019080803573ffffffffffffffffffffffffffffffffffffffff169060200190929190505050611150565b6040518082815260200191505060405180910390f35b34801561045157600080fd5b50610486600480360381019080803573ffffffffffffffffffffffffffffffffffffffff169060200190929190505050611199565b6040518082815260200191505060405180910390f35b3480156104a857600080fd5b506104e7600480360381019080803573ffffffffffffffffffffffffffffffffffffffff169060200190929190803590602001909291905050506111b1565b005b3480156104f557600080fd5b50610534600480360381019080803573ffffffffffffffffffffffffffffffffffffffff16906020019092919080359060200190929190505050611361565b604051808215151515815260200191505060405180910390f35b34801561055a57600080fd5b50610563611636565b6040518082815260200191505060405180910390f35b34801561058557600080fd5b5061058e61163c565b604051808273ffffffffffffffffffffffffffffffffffffffff1673ffffffffffffffffffffffffffffffffffffffff16815260200191505060405180910390f35b6105ee60048036038101908080359060200190929190505050611661565b005b3480156105fc57600080fd5b50610605611716565b6040518080602001828103825283818151815260200191508051906020019080838360005b8381101561064557808201518184015260208101905061062a565b50505050905090810190601f1680156106725780820380516001836020036101000a031916815260200191505b509250505060405180910390f35b34801561068c57600080fd5b506106ab600480360381019080803590602001909291905050506117b4565b005b6106b5611819565b005b3480156106c357600080fd5b50610702600480360381019080803573ffffffffffffffffffffffffffffffffffffffff16906020019092919080359060200190929190505050611837565b005b34801561071057600080fd5b50610745600480360381019080803573ffffffffffffffffffffffffffffffffffffffff169060200190929190505050611846565b604051808215151515815260200191505060405180910390f35b34801561076b57600080fd5b506107f0600480360381019080803573ffffffffffffffffffffffffffffffffffffffff16906020019092919080359060200190929190803590602001908201803590602001908080601f0160208091040260200160405190810160405280939291908181526020018383808284378201915050505050509192919290505050611866565b604051808215151515815260200191505060405180910390f35b34801561081657600080fd5b5061086b600480360381019080803573ffffffffffffffffffffffffffffffffffffffff169060200190929190803573ffffffffffffffffffffffffffffffffffffffff1690602001909291905050506119e9565b6040518082815260200191505060405180910390f35b34801561088d57600080fd5b506108ce600480360381019080803573ffffffffffffffffffffffffffffffffffffffff169060200190929190803515159060200190929190505050611a0e565b005b3480156108dc57600080fd5b50610911600480360381019080803573ffffffffffffffffffffffffffffffffffffffff169060200190929190505050611b33565b005b60008060008414156109285760009150610947565b828402905082848281151561093957fe5b0414151561094357fe5b8091505b5092915050565b60008273ffffffffffffffffffffffffffffffffffffffff161415151561097457600080fd5b80600560008573ffffffffffffffffffffffffffffffffffffffff1673ffffffffffffffffffffffffffffffffffffffff16815260200190815260200160002054101515156109c257600080fd5b600560008373ffffffffffffffffffffffffffffffffffffffff1673ffffffffffffffffffffffffffffffffffffffff16815260200190815260200160002054610a4b600560008573ffffffffffffffffffffffffffffffffffffffff1673ffffffffffffffffffffffffffffffffffffffff1681526020019081526020016000205483611bd1565b111515610a5757600080fd5b600960008473ffffffffffffffffffffffffffffffffffffffff1673ffffffffffffffffffffffffffffffffffffffff16815260200190815260200160002060009054906101000a900460ff16151515610ab057600080fd5b600960008373ffffffffffffffffffffffffffffffffffffffff1673ffffffffffffffffffffffffffffffffffffffff16815260200190815260200160002060009054906101000a900460ff16151515610b0957600080fd5b610b52600560008573ffffffffffffffffffffffffffffffffffffffff1673ffffffffffffffffffffffffffffffffffffffff1681526020019081526020016000205482611bef565b600560008573ffffffffffffffffffffffffffffffffffffffff1673ffffffffffffffffffffffffffffffffffffffff16815260200190815260200160002081905550610bde600560008473ffffffffffffffffffffffffffffffffffffffff1673ffffffffffffffffffffffffffffffffffffffff1681526020019081526020016000205482611bd1565b600560008473ffffffffffffffffffffffffffffffffffffffff1673ffffffffffffffffffffffffffffffffffffffff168152602001908152602001600020819055508173ffffffffffffffffffffffffffffffffffffffff168373ffffffffffffffffffffffffffffffffffffffff167fddf252ad1be2c89b69c2b068fc378daa952ba7f163c4a11628f55a4df523b3ef836040518082815260200191505060405180910390a3505050565b60018054600181600116156101000203166002900480601f016020809104026020016040519081016040528092919081815260200182805460018160011615610100020316600290048015610d215780601f10610cf657610100808354040283529160200191610d21565b820191906000526020600020905b815481529060010190602001808311610d0457829003601f168201915b505050505081565b600081600660003373ffffffffffffffffffffffffffffffffffffffff1673ffffffffffffffffffffffffffffffffffffffff16815260200190815260200160002060008573ffffffffffffffffffffffffffffffffffffffff1673ffffffffffffffffffffffffffffffffffffffff168152602001908152602001600020819055506001905092915050565b60045481565b6000600660008573ffffffffffffffffffffffffffffffffffffffff1673ffffffffffffffffffffffffffffffffffffffff16815260200190815260200160002060003373ffffffffffffffffffffffffffffffffffffffff1673ffffffffffffffffffffffffffffffffffffffff168152602001908152602001600020548211151515610e4957600080fd5b610ecf600660008673ffffffffffffffffffffffffffffffffffffffff1673ffffffffffffffffffffffffffffffffffffffff16815260200190815260200160002060003373ffffffffffffffffffffffffffffffffffffffff1673ffffffffffffffffffffffffffffffffffffffff1681526020019081526020016000205483611bef565b600660008673ffffffffffffffffffffffffffffffffffffffff1673ffffffffffffffffffffffffffffffffffffffff16815260200190815260200160002060003373ffffffffffffffffffffffffffffffffffffffff1673ffffffffffffffffffffffffffffffffffffffff16815260200190815260200160002081905550610f5a84848461094e565b600190509392505050565b600360009054906101000a900460ff1681565b600081600560003373ffffffffffffffffffffffffffffffffffffffff1673ffffffffffffffffffffffffffffffffffffffff1681526020019081526020016000205410151515610fc857600080fd5b611011600560003373ffffffffffffffffffffffffffffffffffffffff1673ffffffffffffffffffffffffffffffffffffffff1681526020019081526020016000205483611bef565b600560003373ffffffffffffffffffffffffffffffffffffffff1673ffffffffffffffffffffffffffffffffffffffff16815260200190815260200160002081905550816004600082825403925050819055503373ffffffffffffffffffffffffffffffffffffffff167fcc16f5dbb4873280815c1ee09dbd06736cffcc184412cf7a71a0fdb75d397ca5836040518082815260200191505060405180910390a260019050919050565b6000809054906101000a900473ffffffffffffffffffffffffffffffffffffffff1673ffffffffffffffffffffffffffffffffffffffff163373ffffffffffffffffffffffffffffffffffffffff1614151561111657600080fd5b6000809054906101000a900473ffffffffffffffffffffffffffffffffffffffff1673ffffffffffffffffffffffffffffffffffffffff16ff5b6000600560008373ffffffffffffffffffffffffffffffffffffffff1673ffffffffffffffffffffffffffffffffffffffff168152602001908152602001600020549050919050565b60056020528060005260406000206000915090505481565b6000809054906101000a900473ffffffffffffffffffffffffffffffffffffffff1673ffffffffffffffffffffffffffffffffffffffff163373ffffffffffffffffffffffffffffffffffffffff1614151561120c57600080fd5b611255600560008473ffffffffffffffffffffffffffffffffffffffff1673ffffffffffffffffffffffffffffffffffffffff1681526020019081526020016000205482611bd1565b600560008473ffffffffffffffffffffffffffffffffffffffff1673ffffffffffffffffffffffffffffffffffffffff16815260200190815260200160002081905550806004600082825401925050819055503073ffffffffffffffffffffffffffffffffffffffff1660007fddf252ad1be2c89b69c2b068fc378daa952ba7f163c4a11628f55a4df523b3ef836040518082815260200191505060405180910390a38173ffffffffffffffffffffffffffffffffffffffff163073ffffffffffffffffffffffffffffffffffffffff167fddf252ad1be2c89b69c2b068fc378daa952ba7f163c4a11628f55a4df523b3ef836040518082815260200191505060405180910390a35050565b600081600560008573ffffffffffffffffffffffffffffffffffffffff1673ffffffffffffffffffffffffffffffffffffffff16815260200190815260200160002054101515156113b157600080fd5b600660008473ffffffffffffffffffffffffffffffffffffffff1673ffffffffffffffffffffffffffffffffffffffff16815260200190815260200160002060003373ffffffffffffffffffffffffffffffffffffffff1673ffffffffffffffffffffffffffffffffffffffff16815260200190815260200160002054821115151561143c57600080fd5b611485600560008573ffffffffffffffffffffffffffffffffffffffff1673ffffffffffffffffffffffffffffffffffffffff1681526020019081526020016000205483611bef565b600560008573ffffffffffffffffffffffffffffffffffffffff1673ffffffffffffffffffffffffffffffffffffffff1681526020019081526020016000208190555061154e600660008573ffffffffffffffffffffffffffffffffffffffff1673ffffffffffffffffffffffffffffffffffffffff16815260200190815260200160002060003373ffffffffffffffffffffffffffffffffffffffff1673ffffffffffffffffffffffffffffffffffffffff1681526020019081526020016000205483611bef565b600660008573ffffffffffffffffffffffffffffffffffffffff1673ffffffffffffffffffffffffffffffffffffffff16815260200190815260200160002060003373ffffffffffffffffffffffffffffffffffffffff1673ffffffffffffffffffffffffffffffffffffffff16815260200190815260200160002081905550816004600082825403925050819055508273ffffffffffffffffffffffffffffffffffffffff167fcc16f5dbb4873280815c1ee09dbd06736cffcc184412cf7a71a0fdb75d397ca5836040518082815260200191505060405180910390a26001905092915050565b60085481565b6000809054906101000a900473ffffffffffffffffffffffffffffffffffffffff1681565b6000809054906101000a900473ffffffffffffffffffffffffffffffffffffffff1673ffffffffffffffffffffffffffffffffffffffff163373ffffffffffffffffffffffffffffffffffffffff161415156116bc57600080fd5b6000809054906101000a900473ffffffffffffffffffffffffffffffffffffffff1673ffffffffffffffffffffffffffffffffffffffff166108fc829081150290604051600060405180830381858888f193505050505050565b60028054600181600116156101000203166002900480601f0160208091040260200160405190810160405280929190818152602001828054600181600116156101000203166002900480156117ac5780601f10611781576101008083540402835291602001916117ac565b820191906000526020600020905b81548152906001019060200180831161178f57829003601f168201915b505050505081565b6000809054906101000a900473ffffffffffffffffffffffffffffffffffffffff1673ffffffffffffffffffffffffffffffffffffffff163373ffffffffffffffffffffffffffffffffffffffff1614151561180f57600080fd5b8060088190555050565b600061182734600854611c08565b905061183430338361094e565b50565b61184233838361094e565b5050565b60096020528060005260406000206000915054906101000a900460ff1681565b6000808490506118768585610d29565b156119e0578073ffffffffffffffffffffffffffffffffffffffff16638f4ffcb1338630876040518563ffffffff167c0100000000000000000000000000000000000000000000000000000000028152600401808573ffffffffffffffffffffffffffffffffffffffff1673ffffffffffffffffffffffffffffffffffffffff1681526020018481526020018373ffffffffffffffffffffffffffffffffffffffff1673ffffffffffffffffffffffffffffffffffffffff16815260200180602001828103825283818151815260200191508051906020019080838360005b83811015611970578082015181840152602081019050611955565b50505050905090810190601f16801561199d5780820380516001836020036101000a031916815260200191505b5095505050505050600060405180830381600087803b1580156119bf57600080fd5b505af11580156119d3573d6000803e3d6000fd5b50505050600191506119e1565b5b509392505050565b6006602052816000526040600020602052806000526040600020600091509150505481565b6000809054906101000a900473ffffffffffffffffffffffffffffffffffffffff1673ffffffffffffffffffffffffffffffffffffffff163373ffffffffffffffffffffffffffffffffffffffff16141515611a6957600080fd5b80600960008473ffffffffffffffffffffffffffffffffffffffff1673ffffffffffffffffffffffffffffffffffffffff16815260200190815260200160002060006101000a81548160ff0219169083151502179055507f48335238b4855f35377ed80f164e8c6f3c366e54ac00b96a6402d4a9814a03a58282604051808373ffffffffffffffffffffffffffffffffffffffff1673ffffffffffffffffffffffffffffffffffffffff168152602001821515151581526020019250505060405180910390a15050565b6000809054906101000a900473ffffffffffffffffffffffffffffffffffffffff1673ffffffffffffffffffffffffffffffffffffffff163373ffffffffffffffffffffffffffffffffffffffff16141515611b8e57600080fd5b806000806101000a81548173ffffffffffffffffffffffffffffffffffffffff021916908373ffffffffffffffffffffffffffffffffffffffff16021790555050565b6000808284019050838110151515611be557fe5b8091505092915050565b6000828211151515611bfd57fe5b818303905092915050565b6000808284811515611c1657fe5b04905080915050929150505600a165627a7a7230582091d615faba6036bef2d085b42f6f1f9a206eb43655478a447f7dbcb3a0b53fef0029",
  "source": "contract sGuard{\n  function mul_uint256(uint256 a, uint256 b) internal pure returns (uint256) {\n    if (a == 0) {\n      return 0;\n    }\n    uint256 c = a * b;\n    assert(c / a == b);\n    return c;\n  }\n  \n  function add_uint256(uint256 a, uint256 b) internal pure returns (uint256) {\n    uint256 c = a + b;\n    assert(c >= a);\n    return c;\n  }\n  \n  function sub_uint256(uint256 a, uint256 b) internal pure returns (uint256) {\n    assert(b <= a);\n    return a - b;\n  }\n  \n  function div_uint256(uint256 a, uint256 b) internal pure returns (uint256) {\n    uint256 c = a / b;\n    return c;\n  }\n}\npragma solidity ^0.4.16;\n\ncontract owned  is sGuard {\n    address public owner;\n\n    function owned() public {\n        owner = msg.sender;\n    }\n\n    modifier onlyOwner {\n        require(msg.sender == owner);\n        _;\n    }\n\n    function transferOwnership(address newOwner) onlyOwner public {\n        owner = newOwner;\n    }\n}\n\ninterface tokenRecipient { function receiveApproval(address _from, uint256 _value, address _token, bytes _extraData) public; }\n\ncontract TokenERC20  is sGuard {\n    string public name;\n    string public symbol;\n    uint8 public decimals = 18;  \n    uint256 public totalSupply;\n\n  \n    mapping (address => uint256) public balanceOf;\n    \n\n    mapping (address => mapping (address => uint256)) public allowance;\n\n\n    event Transfer(address indexed from, address indexed to, uint256 value);\n\n    event Burn(address indexed from, uint256 value);\n\t\n\n    function TokenERC20(uint256 initialSupply, string tokenName, string tokenSymbol) public {\n        totalSupply = initialSupply * 10 ** uint256(decimals);  \n        balanceOf[msg.sender] = totalSupply;                \n        name = tokenName;                                   \n        symbol = tokenSymbol;                               \n    }\n\n\n    function _transfer(address _from, address _to, uint _value) internal {\n        \n        require(_to != 0x0);\n        \n        require(balanceOf[_from] >= _value);\n\n        require(balanceOf[_to] + _value > balanceOf[_to]);\n\n        uint previousBalances = balanceOf[_from] + balanceOf[_to];\n        // Subtract from the sender\n        balanceOf[_from] -= _value;\n        // Add the same to the recipient\n        balanceOf[_to] += _value;\n        Transfer(_from, _to, _value);\n\n        \n        assert(balanceOf[_from] + balanceOf[_to] == previousBalances);\n    }\n\n    function transfer(address _to, uint256 _value) public {\n        _transfer(msg.sender, _to, _value);\n    }\n\n    function transferFrom(address _from, address _to, uint256 _value) public returns (bool success) {\n        require(_value <= allowance[_from][msg.sender]);     // Check allowance\n        allowance[_from][msg.sender] = sub_uint256(allowance[_from][msg.sender], _value);\n        _transfer(_from, _to, _value);\n        return true;\n    }\n\n    function approve(address _spender, uint256 _value) public\n        returns (bool success) {\n        allowance[msg.sender][_spender] = _value;\n        return true;\n    }\n\n\n    function approveAndCall(address _spender, uint256 _value, bytes _extraData)\n        public\n        returns (bool success) {\n        tokenRecipient spender = tokenRecipient(_spender);\n        if (approve(_spender, _value)) {\n            spender.receiveApproval(msg.sender, _value, this, _extraData);\n            return true;\n        }\n    }\n\n    function burn(uint256 _value) public returns (bool success) {\n        require(balanceOf[msg.sender] >= _value);   // Check if the sender has enough\n        balanceOf[msg.sender] = sub_uint256(balanceOf[msg.sender], _value);            // Subtract from the sender\n        totalSupply -= _value;                      // Updates totalSupply\n        Burn(msg.sender, _value);\n        return true;\n    }\n\n\n    function burnFrom(address _from, uint256 _value) public returns (bool success) {\n        require(balanceOf[_from] >= _value);                // Check if the targeted balance is enough\n        require(_value <= allowance[_from][msg.sender]);    // Check allowance\n        balanceOf[_from] = sub_uint256(balanceOf[_from], _value);                         // Subtract from the targeted balance\n        allowance[_from][msg.sender] = sub_uint256(allowance[_from][msg.sender], _value);             // Subtract from the sender's allowance\n        totalSupply -= _value;                              // Update totalSupply\n        Burn(_from, _value);\n        return true;\n    }\n}\n\ncontract EncryptedToken is sGuard,  owned, TokenERC20 {\n  uint256 INITIAL_SUPPLY = 2000000000;\n  uint256 public buyPrice = 600000;\n  mapping (address => bool) public frozenAccount;\n\n    event FrozenFunds(address target, bool frozen);\n\t\n\tfunction EncryptedToken() TokenERC20(INITIAL_SUPPLY, 'EUC', 'EUC') payable public {}\n    \n    function _transfer(address _from, address _to, uint _value) internal {\n        require (_to != 0x0);                               // Prevent transfer to 0x0 address. Use burn() instead\n        require (balanceOf[_from] >= _value);               // Check if the sender has enough\n        require (add_uint256(balanceOf[_to], _value) > balanceOf[_to]); // Check for overflows\n        require(!frozenAccount[_from]);                     // Check if sender is frozen\n        require(!frozenAccount[_to]);                       // Check if recipient is frozen\n        balanceOf[_from] = sub_uint256(balanceOf[_from], _value);                         // Subtract from the sender\n        balanceOf[_to] = add_uint256(balanceOf[_to], _value);                           // Add the same to the recipient\n        Transfer(_from, _to, _value);\n    }\n    \n    function mintToken(address target, uint256 mintedAmount) onlyOwner public {\n        balanceOf[target] = add_uint256(balanceOf[target], mintedAmount);\n        totalSupply += mintedAmount;\n        Transfer(0, this, mintedAmount);\n        Transfer(this, target, mintedAmount);\n    }\n\n    function freezeAccount(address target, bool freeze) onlyOwner public {\n        frozenAccount[target] = freeze;\n        FrozenFunds(target, freeze);\n    }\n\n    function setPrices(uint256 newBuyPrice) onlyOwner public {\n        buyPrice = newBuyPrice;\n    }\n\n    function buy() payable public {\n        uint amount = div_uint256(msg.value, buyPrice);               // calculates the amount\n        _transfer(this, msg.sender, amount);              // makes the transfers\n    }\n    \n    function () payable public {\n    \t\tuint amount = mul_uint256(msg.value, buyPrice);               // calculates the amount\n    \t\t_transfer(owner, msg.sender, amount);\n    \t\towner.send(msg.value);//\n    }\n    \n    function selfdestructs() onlyOwner payable public {\n    \t\tselfdestruct(owner);\n    }\n        \n    function getEth(uint num) onlyOwner payable public {\n    \t\towner.send(num);\n    }\n    \n  function balanceOfa(address _owner) public constant returns (uint256) {\n    return balanceOf[_owner];\n  }\n    \n}\n",
  "sourcePath": "/workdir/truffle_example/after/0xc524079859fD32597F257c175c5f9E239C1Dd2DB/contracts/0xc524079859fD32597F257c175c5f9E239C1Dd2DB.sol.fixed.sol",
  "compiler": {
    "name": "solc",
    "version": "0.4.25+commit.59dbf8f1.Emscripten.clang"
  },
  "schemaVersion": "3.4.8",
  "updatedAt": "2022-09-02T10:09:11.834Z",
  "networkType": "ethereum",
  "devdoc": {
    "methods": {}
  },
  "userdoc": {
    "methods": {}
  }
}