{
  "contractName": "AirDrop",
  "abi": [
    {
      "inputs": [],
      "payable": false,
      "stateMutability": "nonpayable",
      "type": "constructor"
    },
    {
      "constant": false,
      "inputs": [
        {
          "name": "_token",
          "type": "address"
        },
        {
          "name": "_to",
          "type": "address"
        },
        {
          "name": "_amount",
          "type": "uint256"
        }
      ],
      "name": "transfer",
      "outputs": [
        {
          "name": "",
          "type": "bool"
        }
      ],
      "payable": false,
      "stateMutability": "nonpayable",
      "type": "function"
    },
    {
      "constant": false,
      "inputs": [
        {
          "name": "_token",
          "type": "address"
        },
        {
          "name": "_to",
          "type": "address[]"
        },
        {
          "name": "_amount",
          "type": "uint256"
        }
      ],
      "name": "doAirdrop",
      "outputs": [],
      "payable": false,
      "stateMutability": "nonpayable",
      "type": "function"
    },
    {
      "constant": false,
      "inputs": [
        {
          "name": "_token",
          "type": "address"
        },
        {
          "name": "_to",
          "type": "address[]"
        },
        {
          "name": "_amount",
          "type": "uint256"
        }
      ],
      "name": "doAirdrop2",
      "outputs": [],
      "payable": false,
      "stateMutability": "nonpayable",
      "type": "function"
    },
    {
      "constant": false,
      "inputs": [
        {
          "name": "_token",
          "type": "address"
        },
        {
          "name": "_to",
          "type": "address[]"
        },
        {
          "name": "_amount",
          "type": "uint256[]"
        }
      ],
      "name": "doCustomAirdrop",
      "outputs": [],
      "payable": false,
      "stateMutability": "nonpayable",
      "type": "function"
    },
    {
      "constant": false,
      "inputs": [
        {
          "name": "_token",
          "type": "address"
        },
        {
          "name": "_to",
          "type": "address[]"
        },
        {
          "name": "_amount",
          "type": "uint256[]"
        }
      ],
      "name": "doCustomAirdrop2",
      "outputs": [],
      "payable": false,
      "stateMutability": "nonpayable",
      "type": "function"
    }
  ],
  "bytecode": "0x608060405234801561001057600080fd5b50336000806101000a81548173ffffffffffffffffffffffffffffffffffffffff021916908373ffffffffffffffffffffffffffffffffffffffff160217905550610a24806100606000396000f30060806040526004361061006d576000357c0100000000000000000000000000000000000000000000000000000000900463ffffffff1680639c7a39e614610072578063b61fa7c01461013b578063be17a8b1146101cb578063beabacc814610294578063c668dfd714610319575b600080fd5b34801561007e57600080fd5b50610139600480360381019080803573ffffffffffffffffffffffffffffffffffffffff16906020019092919080359060200190820180359060200190808060200260200160405190810160405280939291908181526020018383602002808284378201915050505050509192919290803590602001908201803590602001908080602002602001604051908101604052809392919081815260200183836020028082843782019150505050505091929192905050506103a9565b005b34801561014757600080fd5b506101c9600480360381019080803573ffffffffffffffffffffffffffffffffffffffff16906020019092919080359060200190820180359060200190808060200260200160405190810160405280939291908181526020018383602002808284378201915050505050509192919290803590602001909291905050506104dc565b005b3480156101d757600080fd5b50610292600480360381019080803573ffffffffffffffffffffffffffffffffffffffff16906020019092919080359060200190820180359060200190808060200260200160405190810160405280939291908181526020018383602002808284378201915050505050509192919290803590602001908201803590602001908080602002602001604051908101604052809392919081815260200183836020028082843782019150505050505091929192905050506105f8565b005b3480156102a057600080fd5b506102ff600480360381019080803573ffffffffffffffffffffffffffffffffffffffff169060200190929190803573ffffffffffffffffffffffffffffffffffffffff1690602001909291908035906020019092919050505061075f565b604051808215151515815260200191505060405180910390f35b34801561032557600080fd5b506103a7600480360381019080803573ffffffffffffffffffffffffffffffffffffffff16906020019092919080359060200190820180359060200190808060200260200160405190810160405280939291908181526020018383602002808284378201915050505050509192919290803590602001909291905050506108a8565b005b600080849150600090505b83518110156104d5578173ffffffffffffffffffffffffffffffffffffffff1663a9059cbb85838151811015156103e757fe5b9060200190602002015185848151811015156103ff57fe5b906020019060200201516040518363ffffffff167c0100000000000000000000000000000000000000000000000000000000028152600401808373ffffffffffffffffffffffffffffffffffffffff1673ffffffffffffffffffffffffffffffffffffffff16815260200182815260200192505050602060405180830381600087803b15801561048e57600080fd5b505af11580156104a2573d6000803e3d6000fd5b505050506040513d60208110156104b857600080fd5b8101908080519060200190929190505050508060010190506103b4565b5050505050565b600080849150600090505b83518110156105f1578173ffffffffffffffffffffffffffffffffffffffff1663a9059cbb858381518110151561051a57fe5b90602001906020020151856040518363ffffffff167c0100000000000000000000000000000000000000000000000000000000028152600401808373ffffffffffffffffffffffffffffffffffffffff1673ffffffffffffffffffffffffffffffffffffffff16815260200182815260200192505050602060405180830381600087803b1580156105aa57600080fd5b505af11580156105be573d6000803e3d6000fd5b505050506040513d60208110156105d457600080fd5b8101908080519060200190929190505050508060010190506104e7565b5050505050565b600080849150600090505b8351811015610758578173ffffffffffffffffffffffffffffffffffffffff166323b872dd33868481518110151561063757fe5b90602001906020020151868581518110151561064f57fe5b906020019060200201516040518463ffffffff167c0100000000000000000000000000000000000000000000000000000000028152600401808473ffffffffffffffffffffffffffffffffffffffff1673ffffffffffffffffffffffffffffffffffffffff1681526020018373ffffffffffffffffffffffffffffffffffffffff1673ffffffffffffffffffffffffffffffffffffffff1681526020018281526020019350505050602060405180830381600087803b15801561071157600080fd5b505af1158015610725573d6000803e3d6000fd5b505050506040513d602081101561073b57600080fd5b810190808051906020019092919050505050806001019050610603565b5050505050565b6000806000809054906101000a900473ffffffffffffffffffffffffffffffffffffffff1673ffffffffffffffffffffffffffffffffffffffff163373ffffffffffffffffffffffffffffffffffffffff161415156107bd57600080fd5b8490508073ffffffffffffffffffffffffffffffffffffffff1663a9059cbb85856040518363ffffffff167c0100000000000000000000000000000000000000000000000000000000028152600401808373ffffffffffffffffffffffffffffffffffffffff1673ffffffffffffffffffffffffffffffffffffffff16815260200182815260200192505050602060405180830381600087803b15801561086357600080fd5b505af1158015610877573d6000803e3d6000fd5b505050506040513d602081101561088d57600080fd5b81019080805190602001909291905050509150509392505050565b600080849150600090505b83518110156109f1578173ffffffffffffffffffffffffffffffffffffffff166323b872dd3386848151811015156108e757fe5b90602001906020020151866040518463ffffffff167c0100000000000000000000000000000000000000000000000000000000028152600401808473ffffffffffffffffffffffffffffffffffffffff1673ffffffffffffffffffffffffffffffffffffffff1681526020018373ffffffffffffffffffffffffffffffffffffffff1673ffffffffffffffffffffffffffffffffffffffff1681526020018281526020019350505050602060405180830381600087803b1580156109aa57600080fd5b505af11580156109be573d6000803e3d6000fd5b505050506040513d60208110156109d457600080fd5b8101908080519060200190929190505050508060010190506108b3565b50505050505600a165627a7a72305820c31270c0f5f25914e53460a47bc18a112c78c2bc19a78054350fbc1bbffcf3c10029",
  "source": "/**\r\n *Submitted for verification at Etherscan.io on 2018-01-29\r\n*/\r\n\r\npragma solidity ^0.4.13;\r\n\r\ncontract ERC20 {\r\n\r\n    /// @return total amount of tokens\r\n    function totalSupply() constant returns (uint256 supply);\r\n\r\n    /// @param _owner The address from which the balance will be retrieved\r\n    /// @return The balance\r\n    function balanceOf(address _owner) constant returns (uint256 balance);\r\n    /// @notice send `_value` token to `_to` from `msg.sender`\r\n    /// @param _to The address of the recipient\r\n    /// @param _value The amount of token to be transferred\r\n    /// @return Whether the transfer was successful or not\r\n    function transfer(address _to, uint256 _value) returns (bool success);\r\n\r\n    /// @notice send `_value` token to `_to` from `_from` on the condition it is approved by `_from`\r\n    /// @param _from The address of the sender\r\n    /// @param _to The address of the recipient\r\n    /// @param _value The amount of token to be transferred\r\n    /// @return Whether the transfer was successful or not\r\n    function transferFrom(address _from, address _to, uint256 _value) returns (bool success);\r\n\r\n\r\n\r\n    /// @notice `msg.sender` approves `_addr` to spend `_value` tokens\r\n    /// @param _spender The address of the account able to transfer the tokens\r\n    /// @param _value The amount of wei to be approved for transfer\r\n    /// @return Whether the approval was successful or not\r\n    function approve(address _spender, uint256 _value) returns (bool success);\r\n\r\n    /// @param _owner The address of the account owning tokens\r\n    /// @param _spender The address of the account able to transfer the tokens\r\n    /// @return Amount of remaining tokens allowed to spent\r\n    function allowance(address _owner, address _spender) constant returns (uint256 remaining);\r\n\r\n    event Transfer(address indexed _from, address indexed _to, uint256 _value);\r\n    event Approval(address indexed _owner, address indexed _spender, uint256 _value);\r\n    \r\n}\r\n\r\n\r\ncontract AirDrop{\r\n    address owner;\r\n    mapping(address => uint256) tokenBalance;\r\n    \r\n    function AirDrop(){\r\n        owner=msg.sender;\r\n    }\r\n    \r\n    function transfer(address _token,address _to,uint256 _amount) public returns(bool){\r\n        require(msg.sender==owner);\r\n        ERC20 token=ERC20(_token);\r\n        return token.transfer(_to,_amount);\r\n    }\r\n    \r\n    function doAirdrop(address _token,address[] _to,uint256 _amount) public{\r\n        ERC20 token=ERC20(_token);\r\n        for(uint256 i=0;i<_to.length;++i){\r\n            token.transferFrom(msg.sender,_to[i],_amount);\r\n        }\r\n    }\r\n    \r\n    function doAirdrop2(address _token,address[] _to,uint256 _amount) public{\r\n        ERC20 token=ERC20(_token);\r\n        for(uint256 i=0;i<_to.length;++i){\r\n            token.transfer(_to[i],_amount);\r\n        }\r\n    }\r\n    \r\n    function doCustomAirdrop(address _token,address[] _to,uint256[] _amount) public{\r\n        ERC20 token=ERC20(_token);\r\n        for(uint256 i=0;i<_to.length;++i){\r\n            token.transferFrom(msg.sender,_to[i],_amount[i]);\r\n        }\r\n    }\r\n    \r\n    function doCustomAirdrop2(address _token,address[] _to,uint256[] _amount) public{\r\n        ERC20 token=ERC20(_token);\r\n        for(uint256 i=0;i<_to.length;++i){\r\n            token.transfer(_to[i],_amount[i]);\r\n        }\r\n    }\r\n}",
  "sourcePath": "/workdir/truffle_example/after/0xc7d020d8c92d099b3ade17321310b4815ef20a90/contracts/0xc7d020d8C92D099B3ADE17321310b4815eF20A90.sol.fixed.sol",
  "compiler": {
    "name": "solc",
    "version": "0.4.25+commit.59dbf8f1.Emscripten.clang"
  },
  "schemaVersion": "3.4.8",
  "updatedAt": "2022-09-02T09:58:52.122Z",
  "networkType": "ethereum",
  "devdoc": {
    "methods": {}
  },
  "userdoc": {
    "methods": {}
  }
}