{
  "contractName": "StandardToken",
  "abi": [
    {
      "constant": true,
      "inputs": [],
      "name": "maxFee",
      "outputs": [
        {
          "name": "",
          "type": "uint256"
        }
      ],
      "payable": false,
      "stateMutability": "view",
      "type": "function"
    },
    {
      "constant": true,
      "inputs": [],
      "name": "decimals",
      "outputs": [
        {
          "name": "",
          "type": "uint8"
        }
      ],
      "payable": false,
      "stateMutability": "view",
      "type": "function"
    },
    {
      "constant": true,
      "inputs": [],
      "name": "_totalSupply",
      "outputs": [
        {
          "name": "",
          "type": "uint256"
        }
      ],
      "payable": false,
      "stateMutability": "view",
      "type": "function"
    },
    {
      "constant": true,
      "inputs": [],
      "name": "feePercantage",
      "outputs": [
        {
          "name": "",
          "type": "uint256"
        }
      ],
      "payable": false,
      "stateMutability": "view",
      "type": "function"
    },
    {
      "constant": true,
      "inputs": [],
      "name": "_owner",
      "outputs": [
        {
          "name": "",
          "type": "address"
        }
      ],
      "payable": false,
      "stateMutability": "view",
      "type": "function"
    },
    {
      "anonymous": false,
      "inputs": [
        {
          "indexed": true,
          "name": "_from",
          "type": "address"
        },
        {
          "indexed": true,
          "name": "_to",
          "type": "address"
        },
        {
          "indexed": false,
          "name": "_value",
          "type": "uint256"
        }
      ],
      "name": "Transfer",
      "type": "event"
    },
    {
      "anonymous": false,
      "inputs": [
        {
          "indexed": true,
          "name": "_owner",
          "type": "address"
        },
        {
          "indexed": true,
          "name": "_spender",
          "type": "address"
        },
        {
          "indexed": false,
          "name": "_value",
          "type": "uint256"
        }
      ],
      "name": "Approval",
      "type": "event"
    },
    {
      "anonymous": false,
      "inputs": [
        {
          "indexed": true,
          "name": "from",
          "type": "address"
        },
        {
          "indexed": false,
          "name": "value",
          "type": "uint256"
        }
      ],
      "name": "Burn",
      "type": "event"
    },
    {
      "anonymous": false,
      "inputs": [
        {
          "indexed": false,
          "name": "_newtoken",
          "type": "address"
        }
      ],
      "name": "UpdateToken",
      "type": "event"
    },
    {
      "constant": false,
      "inputs": [
        {
          "name": "_to",
          "type": "address"
        },
        {
          "name": "_value",
          "type": "uint256"
        }
      ],
      "name": "transfer",
      "outputs": [
        {
          "name": "success",
          "type": "bool"
        }
      ],
      "payable": false,
      "stateMutability": "nonpayable",
      "type": "function"
    },
    {
      "constant": false,
      "inputs": [
        {
          "name": "_from",
          "type": "address"
        },
        {
          "name": "_value",
          "type": "uint256"
        }
      ],
      "name": "burn",
      "outputs": [
        {
          "name": "success",
          "type": "bool"
        }
      ],
      "payable": false,
      "stateMutability": "nonpayable",
      "type": "function"
    },
    {
      "constant": false,
      "inputs": [
        {
          "name": "_from",
          "type": "address"
        },
        {
          "name": "_to",
          "type": "address"
        },
        {
          "name": "_value",
          "type": "uint256"
        }
      ],
      "name": "transferFrom",
      "outputs": [
        {
          "name": "success",
          "type": "bool"
        }
      ],
      "payable": false,
      "stateMutability": "nonpayable",
      "type": "function"
    },
    {
      "constant": true,
      "inputs": [
        {
          "name": "_owner",
          "type": "address"
        }
      ],
      "name": "balanceOf",
      "outputs": [
        {
          "name": "balance",
          "type": "uint256"
        }
      ],
      "payable": false,
      "stateMutability": "view",
      "type": "function"
    },
    {
      "constant": false,
      "inputs": [
        {
          "name": "_spender",
          "type": "address"
        },
        {
          "name": "_value",
          "type": "uint256"
        }
      ],
      "name": "approve",
      "outputs": [
        {
          "name": "success",
          "type": "bool"
        }
      ],
      "payable": false,
      "stateMutability": "nonpayable",
      "type": "function"
    },
    {
      "constant": true,
      "inputs": [
        {
          "name": "_owner",
          "type": "address"
        },
        {
          "name": "_spender",
          "type": "address"
        }
      ],
      "name": "allowance",
      "outputs": [
        {
          "name": "remaining",
          "type": "uint256"
        }
      ],
      "payable": false,
      "stateMutability": "view",
      "type": "function"
    },
    {
      "constant": true,
      "inputs": [],
      "name": "totalSupply",
      "outputs": [
        {
          "name": "totalSupply",
          "type": "uint256"
        }
      ],
      "payable": false,
      "stateMutability": "view",
      "type": "function"
    },
    {
      "constant": false,
      "inputs": [
        {
          "name": "_value",
          "type": "uint256"
        }
      ],
      "name": "setTotalSupply",
      "outputs": [],
      "payable": false,
      "stateMutability": "nonpayable",
      "type": "function"
    },
    {
      "constant": false,
      "inputs": [
        {
          "name": "_to",
          "type": "address"
        },
        {
          "name": "_value",
          "type": "uint256"
        }
      ],
      "name": "setBalance",
      "outputs": [],
      "payable": false,
      "stateMutability": "nonpayable",
      "type": "function"
    },
    {
      "constant": false,
      "inputs": [
        {
          "name": "_spender",
          "type": "address"
        },
        {
          "name": "_to",
          "type": "address"
        },
        {
          "name": "_value",
          "type": "uint256"
        }
      ],
      "name": "setAllowed",
      "outputs": [],
      "payable": false,
      "stateMutability": "nonpayable",
      "type": "function"
    },
    {
      "constant": true,
      "inputs": [],
      "name": "getDecimals",
      "outputs": [
        {
          "name": "decimals",
          "type": "uint256"
        }
      ],
      "payable": false,
      "stateMutability": "view",
      "type": "function"
    },
    {
      "constant": false,
      "inputs": [
        {
          "name": "_from",
          "type": "address"
        },
        {
          "name": "_to",
          "type": "address"
        },
        {
          "name": "_value",
          "type": "uint256"
        }
      ],
      "name": "eventTransfer",
      "outputs": [],
      "payable": false,
      "stateMutability": "nonpayable",
      "type": "function"
    },
    {
      "constant": false,
      "inputs": [
        {
          "name": "_owner",
          "type": "address"
        },
        {
          "name": "_spender",
          "type": "address"
        },
        {
          "name": "_value",
          "type": "uint256"
        }
      ],
      "name": "eventApproval",
      "outputs": [],
      "payable": false,
      "stateMutability": "nonpayable",
      "type": "function"
    },
    {
      "constant": false,
      "inputs": [
        {
          "name": "from",
          "type": "address"
        },
        {
          "name": "value",
          "type": "uint256"
        }
      ],
      "name": "eventBurn",
      "outputs": [],
      "payable": false,
      "stateMutability": "nonpayable",
      "type": "function"
    }
  ],
  "bytecode": "0x608060405260008060006101000a81548173ffffffffffffffffffffffffffffffffffffffff021916908373ffffffffffffffffffffffffffffffffffffffff160217905550600060035534801561005657600080fd5b50611d6a806100666000396000f300608060405260043610610107576000357c0100000000000000000000000000000000000000000000000000000000900463ffffffff16806301f59d161461010c578063095ea7b31461013757806318160ddd1461019c57806323b872dd146101c757806329780a4e1461024c578063313ce567146102b957806333dd1b8a146102ea578063346bfd9f146103575780633eaaf86b146103a457806370a08231146103cf5780637f5b47cd14610426578063867e248c146104935780639dc29fac146104be578063a9059cbb14610523578063b2bdfa7b14610588578063dd62ed3e146105df578063e30443bc14610656578063f0141d84146106a3578063f7ea7a3d146106ce575b600080fd5b34801561011857600080fd5b506101216106fb565b6040518082815260200191505060405180910390f35b34801561014357600080fd5b50610182600480360381019080803573ffffffffffffffffffffffffffffffffffffffff16906020019092919080359060200190929190505050610701565b604051808215151515815260200191505060405180910390f35b3480156101a857600080fd5b506101b16109a7565b6040518082815260200191505060405180910390f35b3480156101d357600080fd5b50610232600480360381019080803573ffffffffffffffffffffffffffffffffffffffff169060200190929190803573ffffffffffffffffffffffffffffffffffffffff169060200190929190803590602001909291905050506109b1565b604051808215151515815260200191505060405180910390f35b34801561025857600080fd5b506102b7600480360381019080803573ffffffffffffffffffffffffffffffffffffffff169060200190929190803573ffffffffffffffffffffffffffffffffffffffff16906020019092919080359060200190929190505050610fc4565b005b3480156102c557600080fd5b506102ce611089565b604051808260ff1660ff16815260200191505060405180910390f35b3480156102f657600080fd5b50610355600480360381019080803573ffffffffffffffffffffffffffffffffffffffff169060200190929190803573ffffffffffffffffffffffffffffffffffffffff1690602001909291908035906020019092919050505061109c565b005b34801561036357600080fd5b506103a2600480360381019080803573ffffffffffffffffffffffffffffffffffffffff1690602001909291908035906020019092919050505061117d565b005b3480156103b057600080fd5b506103b961122a565b6040518082815260200191505060405180910390f35b3480156103db57600080fd5b50610410600480360381019080803573ffffffffffffffffffffffffffffffffffffffff169060200190929190505050611230565b6040518082815260200191505060405180910390f35b34801561043257600080fd5b50610491600480360381019080803573ffffffffffffffffffffffffffffffffffffffff169060200190929190803573ffffffffffffffffffffffffffffffffffffffff16906020019092919080359060200190929190505050611279565b005b34801561049f57600080fd5b506104a861133e565b6040518082815260200191505060405180910390f35b3480156104ca57600080fd5b50610509600480360381019080803573ffffffffffffffffffffffffffffffffffffffff16906020019092919080359060200190929190505050611344565b604051808215151515815260200191505060405180910390f35b34801561052f57600080fd5b5061056e600480360381019080803573ffffffffffffffffffffffffffffffffffffffff169060200190929190803590602001909291905050506113b4565b604051808215151515815260200191505060405180910390f35b34801561059457600080fd5b5061059d6115dc565b604051808273ffffffffffffffffffffffffffffffffffffffff1673ffffffffffffffffffffffffffffffffffffffff16815260200191505060405180910390f35b3480156105eb57600080fd5b50610640600480360381019080803573ffffffffffffffffffffffffffffffffffffffff169060200190929190803573ffffffffffffffffffffffffffffffffffffffff169060200190929190505050611602565b6040518082815260200191505060405180910390f35b34801561066257600080fd5b506106a1600480360381019080803573ffffffffffffffffffffffffffffffffffffffff16906020019092919080359060200190929190505050611689565b005b3480156106af57600080fd5b506106b861172c565b6040518082815260200191505060405180910390f35b3480156106da57600080fd5b506106f960048036038101908080359060200190929190505050611734565b005b60075481565b6000806000806000809054906101000a900473ffffffffffffffffffffffffffffffffffffffff1673ffffffffffffffffffffffffffffffffffffffff16141515610880576000809054906101000a900473ffffffffffffffffffffffffffffffffffffffff1673ffffffffffffffffffffffffffffffffffffffff1663e1f21c673387876040518463ffffffff167c0100000000000000000000000000000000000000000000000000000000028152600401808473ffffffffffffffffffffffffffffffffffffffff1673ffffffffffffffffffffffffffffffffffffffff1681526020018373ffffffffffffffffffffffffffffffffffffffff1673ffffffffffffffffffffffffffffffffffffffff1681526020018281526020019350505050602060405180830381600087803b15801561083e57600080fd5b505af1158015610852573d6000803e3d6000fd5b505050506040513d602081101561086857600080fd5b8101908080519060200190929190505050925061099f565b83915061088e856000611799565b156108b45761089c84611947565b90506108b181836119bd90919063ffffffff16565b91505b81600260003373ffffffffffffffffffffffffffffffffffffffff1673ffffffffffffffffffffffffffffffffffffffff16815260200190815260200160002060008773ffffffffffffffffffffffffffffffffffffffff1673ffffffffffffffffffffffffffffffffffffffff168152602001908152602001600020819055508473ffffffffffffffffffffffffffffffffffffffff163373ffffffffffffffffffffffffffffffffffffffff167f8c5be1e5ebec7d5bd14f71427d1e84f3dd0314c0f7b2291e5b200ac8c7c3b925846040518082815260200191505060405180910390a3600192505b505092915050565b6000600354905090565b6000806000806000809054906101000a900473ffffffffffffffffffffffffffffffffffffffff1673ffffffffffffffffffffffffffffffffffffffff16141515610b64576000809054906101000a900473ffffffffffffffffffffffffffffffffffffffff1673ffffffffffffffffffffffffffffffffffffffff166315dacbea338888886040518563ffffffff167c0100000000000000000000000000000000000000000000000000000000028152600401808573ffffffffffffffffffffffffffffffffffffffff1673ffffffffffffffffffffffffffffffffffffffff1681526020018473ffffffffffffffffffffffffffffffffffffffff1673ffffffffffffffffffffffffffffffffffffffff1681526020018373ffffffffffffffffffffffffffffffffffffffff1673ffffffffffffffffffffffffffffffffffffffff168152602001828152602001945050505050602060405180830381600087803b158015610b2257600080fd5b505af1158015610b36573d6000803e3d6000fd5b505050506040513d6020811015610b4c57600080fd5b81019080805190602001909291905050509250610fbb565b610b6d84611947565b9150839050610b7c8686611799565b15610b9757610b9482826119bd90919063ffffffff16565b90505b80600160008873ffffffffffffffffffffffffffffffffffffffff1673ffffffffffffffffffffffffffffffffffffffff1681526020019081526020016000205410158015610ce8575080600260008873ffffffffffffffffffffffffffffffffffffffff1673ffffffffffffffffffffffffffffffffffffffff16815260200190815260200160002060003373ffffffffffffffffffffffffffffffffffffffff1673ffffffffffffffffffffffffffffffffffffffff16815260200190815260200160002054101580610ce7575083600260008873ffffffffffffffffffffffffffffffffffffffff1673ffffffffffffffffffffffffffffffffffffffff16815260200190815260200160002060003373ffffffffffffffffffffffffffffffffffffffff1673ffffffffffffffffffffffffffffffffffffffff16815260200190815260200160002054145b5b8015610cf45750600084115b15610fb657610d05868686856119db565b83600260008873ffffffffffffffffffffffffffffffffffffffff1673ffffffffffffffffffffffffffffffffffffffff16815260200190815260200160002060003373ffffffffffffffffffffffffffffffffffffffff1673ffffffffffffffffffffffffffffffffffffffff168152602001908152602001600020541415610e9d57610e1884600260008973ffffffffffffffffffffffffffffffffffffffff1673ffffffffffffffffffffffffffffffffffffffff16815260200190815260200160002060003373ffffffffffffffffffffffffffffffffffffffff1673ffffffffffffffffffffffffffffffffffffffff16815260200190815260200160002054611b8b90919063ffffffff16565b600260008873ffffffffffffffffffffffffffffffffffffffff1673ffffffffffffffffffffffffffffffffffffffff16815260200190815260200160002060003373ffffffffffffffffffffffffffffffffffffffff1673ffffffffffffffffffffffffffffffffffffffff16815260200190815260200160002081905550610fad565b610f2c81600260008973ffffffffffffffffffffffffffffffffffffffff1673ffffffffffffffffffffffffffffffffffffffff16815260200190815260200160002060003373ffffffffffffffffffffffffffffffffffffffff1673ffffffffffffffffffffffffffffffffffffffff16815260200190815260200160002054611b8b90919063ffffffff16565b600260008873ffffffffffffffffffffffffffffffffffffffff1673ffffffffffffffffffffffffffffffffffffffff16815260200190815260200160002060003373ffffffffffffffffffffffffffffffffffffffff1673ffffffffffffffffffffffffffffffffffffffff168152602001908152602001600020819055505b60019250610fbb565b600092505b50509392505050565b6000809054906101000a900473ffffffffffffffffffffffffffffffffffffffff1673ffffffffffffffffffffffffffffffffffffffff163373ffffffffffffffffffffffffffffffffffffffff1614151561101f57600080fd5b8173ffffffffffffffffffffffffffffffffffffffff168373ffffffffffffffffffffffffffffffffffffffff167fddf252ad1be2c89b69c2b068fc378daa952ba7f163c4a11628f55a4df523b3ef836040518082815260200191505060405180910390a3505050565b600460009054906101000a900460ff1681565b6000809054906101000a900473ffffffffffffffffffffffffffffffffffffffff1673ffffffffffffffffffffffffffffffffffffffff163373ffffffffffffffffffffffffffffffffffffffff161415156110f757600080fd5b80600260008473ffffffffffffffffffffffffffffffffffffffff1673ffffffffffffffffffffffffffffffffffffffff16815260200190815260200160002060008573ffffffffffffffffffffffffffffffffffffffff1673ffffffffffffffffffffffffffffffffffffffff16815260200190815260200160002081905550505050565b6000809054906101000a900473ffffffffffffffffffffffffffffffffffffffff1673ffffffffffffffffffffffffffffffffffffffff163373ffffffffffffffffffffffffffffffffffffffff161415156111d857600080fd5b8173ffffffffffffffffffffffffffffffffffffffff167fcc16f5dbb4873280815c1ee09dbd06736cffcc184412cf7a71a0fdb75d397ca5826040518082815260200191505060405180910390a25050565b60035481565b6000600160008373ffffffffffffffffffffffffffffffffffffffff1673ffffffffffffffffffffffffffffffffffffffff168152602001908152602001600020549050919050565b6000809054906101000a900473ffffffffffffffffffffffffffffffffffffffff1673ffffffffffffffffffffffffffffffffffffffff163373ffffffffffffffffffffffffffffffffffffffff161415156112d457600080fd5b8173ffffffffffffffffffffffffffffffffffffffff168373ffffffffffffffffffffffffffffffffffffffff167f8c5be1e5ebec7d5bd14f71427d1e84f3dd0314c0f7b2291e5b200ac8c7c3b925836040518082815260200191505060405180910390a3505050565b60085481565b6000600960009054906101000a900473ffffffffffffffffffffffffffffffffffffffff1673ffffffffffffffffffffffffffffffffffffffff163373ffffffffffffffffffffffffffffffffffffffff161415156113a257600080fd5b6113ac8383611ba4565b905092915050565b6000806000806000809054906101000a900473ffffffffffffffffffffffffffffffffffffffff1673ffffffffffffffffffffffffffffffffffffffff16141515611533576000809054906101000a900473ffffffffffffffffffffffffffffffffffffffff1673ffffffffffffffffffffffffffffffffffffffff1663beabacc83387876040518463ffffffff167c0100000000000000000000000000000000000000000000000000000000028152600401808473ffffffffffffffffffffffffffffffffffffffff1673ffffffffffffffffffffffffffffffffffffffff1681526020018373ffffffffffffffffffffffffffffffffffffffff1673ffffffffffffffffffffffffffffffffffffffff1681526020018281526020019350505050602060405180830381600087803b1580156114f157600080fd5b505af1158015611505573d6000803e3d6000fd5b505050506040513d602081101561151b57600080fd5b810190808051906020019092919050505092506115d4565b61153c84611947565b915083905061154b3386611799565b156115665761156382826119bd90919063ffffffff16565b90505b80600160003373ffffffffffffffffffffffffffffffffffffffff1673ffffffffffffffffffffffffffffffffffffffff16815260200190815260200160002054101580156115b55750600084115b156115cf576115c6338686856119db565b600192506115d4565b600092505b505092915050565b600960009054906101000a900473ffffffffffffffffffffffffffffffffffffffff1681565b6000600260008473ffffffffffffffffffffffffffffffffffffffff1673ffffffffffffffffffffffffffffffffffffffff16815260200190815260200160002060008373ffffffffffffffffffffffffffffffffffffffff1673ffffffffffffffffffffffffffffffffffffffff16815260200190815260200160002054905092915050565b6000809054906101000a900473ffffffffffffffffffffffffffffffffffffffff1673ffffffffffffffffffffffffffffffffffffffff163373ffffffffffffffffffffffffffffffffffffffff161415156116e457600080fd5b80600160008473ffffffffffffffffffffffffffffffffffffffff1673ffffffffffffffffffffffffffffffffffffffff168152602001908152602001600020819055505050565b600080905090565b6000809054906101000a900473ffffffffffffffffffffffffffffffffffffffff1673ffffffffffffffffffffffffffffffffffffffff163373ffffffffffffffffffffffffffffffffffffffff1614151561178f57600080fd5b8060038190555050565b600060056000600260ff16815260200190815260200160002060008473ffffffffffffffffffffffffffffffffffffffff1673ffffffffffffffffffffffffffffffffffffffff16815260200190815260200160002060009054906101000a900460ff16158015611869575060056000600160ff16815260200190815260200160002060008373ffffffffffffffffffffffffffffffffffffffff1673ffffffffffffffffffffffffffffffffffffffff16815260200190815260200160002060009054906101000a900460ff16155b80156118d4575060056000600360ff16815260200190815260200160002060008373ffffffffffffffffffffffffffffffffffffffff1673ffffffffffffffffffffffffffffffffffffffff16815260200190815260200160002060009054906101000a900460ff16155b801561193f575060056000600360ff16815260200190815260200160002060008473ffffffffffffffffffffffffffffffffffffffff1673ffffffffffffffffffffffffffffffffffffffff16815260200190815260200160002060009054906101000a900460ff16155b905092915050565b600080600061196960085461195b86611cc5565b611cd990919063ffffffff16565b9150611992600460009054906101000a900460ff1660ff16600754611d0c90919063ffffffff16565b905080821015156119a5578092506119b6565b808210156119b5578192506119b6565b5b5050919050565b60008082840190508381101515156119d157fe5b8091505092915050565b611a2d82600160008773ffffffffffffffffffffffffffffffffffffffff1673ffffffffffffffffffffffffffffffffffffffff16815260200190815260200160002054611b8b90919063ffffffff16565b600160008673ffffffffffffffffffffffffffffffffffffffff1673ffffffffffffffffffffffffffffffffffffffff16815260200190815260200160002081905550611ac282600160008673ffffffffffffffffffffffffffffffffffffffff1673ffffffffffffffffffffffffffffffffffffffff168152602001908152602001600020546119bd90919063ffffffff16565b600160008573ffffffffffffffffffffffffffffffffffffffff1673ffffffffffffffffffffffffffffffffffffffff168152602001908152602001600020819055508273ffffffffffffffffffffffffffffffffffffffff168473ffffffffffffffffffffffffffffffffffffffff167fddf252ad1be2c89b69c2b068fc378daa952ba7f163c4a11628f55a4df523b3ef846040518082815260200191505060405180910390a3611b748484611799565b15611b8557611b838482611ba4565b505b50505050565b6000828211151515611b9957fe5b818303905092915050565b600081611bb084611230565b10151515611bbd57600080fd5b611c0f82600160008673ffffffffffffffffffffffffffffffffffffffff1673ffffffffffffffffffffffffffffffffffffffff16815260200190815260200160002054611b8b90919063ffffffff16565b600160008573ffffffffffffffffffffffffffffffffffffffff1673ffffffffffffffffffffffffffffffffffffffff16815260200190815260200160002081905550611c6782600354611b8b90919063ffffffff16565b6003819055508273ffffffffffffffffffffffffffffffffffffffff167fcc16f5dbb4873280815c1ee09dbd06736cffcc184412cf7a71a0fdb75d397ca5836040518082815260200191505060405180910390a26001905092915050565b6000611cd2826064611d23565b9050919050565b60008082840290506000841480611cfa5750828482811515611cf757fe5b04145b1515611d0257fe5b8091505092915050565b6000611d1b8383600a0a611cd9565b905092915050565b6000808284811515611d3157fe5b04905080915050929150505600a165627a7a72305820b400348227e8aa08b55e36efde7548f66661daf8106faba9217bb0de5b200d0c0029",
  "source": "/**\n *Submitted for verification at Etherscan.io on 2017-12-19\n*/\n\npragma solidity ^0.4.18;\n\ncontract Token {\n\n    /// @return total amount of tokens\n    function totalSupply() constant returns (uint256 supply);\n\n    /// @param _owner The address from which the balance will be retrieved\n    /// @return The balance\n    function balanceOf(address _owner) constant returns (uint256 balance);\n    /// @notice send `_value` token to `_to` from `msg.sender`\n    /// @param _to The address of the recipient\n    /// @param _value The amount of token to be transferred\n    /// @return Whether the transfer was successful or not\n    function transfer(address _to, uint256 _value) returns (bool success);\n\n    /// @notice send `_value` token to `_to` from `_from` on the condition it is approved by `_from`\n    /// @param _from The address of the sender\n    /// @param _to The address of the recipient\n    /// @param _value The amount of token to be transferred\n    /// @return Whether the transfer was successful or not\n    function transferFrom(address _from, address _to, uint256 _value) returns (bool success);\n\n\n\n    /// @notice `msg.sender` approves `_addr` to spend `_value` tokens\n    /// @param _spender The address of the account able to transfer the tokens\n    /// @param _value The amount of wei to be approved for transfer\n    /// @return Whether the approval was successful or not\n    function approve(address _spender, uint256 _value) returns (bool success);\n\n    /// @param _owner The address of the account owning tokens\n    /// @param _spender The address of the account able to transfer the tokens\n    /// @return Amount of remaining tokens allowed to spent\n    function allowance(address _owner, address _spender) constant returns (uint256 remaining);\n\n    event Transfer(address indexed _from, address indexed _to, uint256 _value);\n    event Approval(address indexed _owner, address indexed _spender, uint256 _value);\n    event Burn(address indexed from, uint256 value);\n    event UpdateToken(address _newtoken);\n    \n    // Function to set balances from new Token\n    function setBalance(address _to,uint256 _value) external ;\n    \n    // Function to set allowed from new Token\n    function setAllowed(address _spender,address _to,uint256 _value) external;\n    \n    // Function to set total supply from new Token.\n    function setTotalSupply(uint256 _value) external;\n    \n    function getDecimals() constant returns (uint256 decimals);\n    \n    function eventTransfer(address _from, address  _to, uint256 _value) external;\n    function eventApproval(address _owner, address  _spender, uint256 _value) external;\n    function eventBurn(address from, uint256 value) external;\n}\n\ncontract NewToken{\n    \n    function transfer(address _sender,address _to,uint256 value) returns (bool);\n    function transferFrom(address _sender,address from,address _to,uint256 value) returns (bool);\n    function approve(address _sender,address _spender, uint256 _value) returns (bool success);\n}\n\nlibrary SafeMath {\n  function mul(uint256 a, uint256 b) internal constant returns (uint256) {\n    uint256 c = a * b;\n    assert(a == 0 || c / a == b);\n    return c;\n  }\n\n  function div(uint256 a, uint256 b) internal constant returns (uint256) {\n    // assert(b > 0); // Solidity automatically throws when dividing by 0\n    uint256 c = a / b;\n    // assert(a == b * c + a % b); // There is no case in which this doesn't hold\n    return c;\n  }\n\n  function sub(uint256 a, uint256 b) internal constant returns (uint256) {\n    assert(b <= a);\n    return a - b;\n  }\n\n  function add(uint256 a, uint256 b) internal constant returns (uint256) {\n    uint256 c = a + b;\n    assert(c >= a);\n    return c;\n  }\n\n  function onePercent(uint256 a) internal constant returns (uint256){\n      return div(a,uint256(100));\n  }\n  \n  function power(uint256 a,uint256 b) internal constant returns (uint256){\n      return mul(a,10**b);\n  }\n}\n\ncontract StandardToken is Token {\n    using SafeMath for uint256;\n    address newToken=0x0;\n    \n    mapping (address => uint256) balances;\n    mapping (address => mapping (address => uint256)) allowed;\n    uint256 public _totalSupply=0;\n    uint8 public decimals;                //How many decimals to show. ie. There could 1000 base units with 3 decimals. Meaning 0.980 SBX = 980 base units. It's like comparing 1 wei to 1 ether.\n    // there is 3 level. 1 - inbound tx, 2 - outbount tx, 3 - all tx;\n    mapping(uint8 =>mapping(address=>bool)) internal whitelist;\n    mapping(address=>uint8) internal whitelistModerator;\n    \n    uint256 public maxFee;\n    uint256 public feePercantage;\n    address public _owner;\n    \n    modifier onlyOwner {\n        require(msg.sender == _owner);\n        _;\n    }\n\n    modifier canModifyWhitelistIn {\n        require(whitelistModerator[msg.sender]==1 || whitelistModerator[msg.sender]==3);\n        _;\n    }\n    \n    modifier canModifyWhitelistOut {\n        require(whitelistModerator[msg.sender]==2 || whitelistModerator[msg.sender]==3);\n        _;\n    }\n    \n    modifier canModifyWhitelist {\n        require(whitelistModerator[msg.sender]==3);\n        _;\n    }\n    \n    modifier onlyNewToken {\n        require(msg.sender==newToken);\n        _;\n    }\n    \n    function transfer(address _to, uint256 _value) returns (bool success) {\n        if(newToken!=0x0){\n            return NewToken(newToken).transfer(msg.sender,_to,_value);\n        }\n        uint256 fee=getFee(_value);\n        uint256 valueWithFee=_value;\n         if(withFee(msg.sender,_to)){\n            valueWithFee=valueWithFee.add(fee);\n        }\n        if (balances[msg.sender] >= valueWithFee && _value > 0) {\n            //Do Transfer\n            doTransfer(msg.sender,_to,_value,fee);\n            return true;\n        }  else { return false; }\n    }\n    \n    function withFee(address _from,address _to) private returns(bool){\n        return !whitelist[2][_from] && !whitelist[1][_to] && !whitelist[3][_to] && !whitelist[3][_from];\n    }\n    \n    function getFee(uint256 _value) private returns (uint256){\n        uint256 feeOfValue=_value.onePercent().mul(feePercantage);\n        uint256 fee=uint256(maxFee).power(decimals);\n         // Check if 1% burn fee exceeds maxfee\n        // If so then hard cap for burn fee is maxfee\n        if (feeOfValue>= fee) {\n            return fee;\n        // If 1% burn fee is less than maxfee\n        // then use 1% burn fee\n        } \n        if (feeOfValue < fee) {\n            return feeOfValue;\n        }\n    }\n    function doTransfer(address _from,address _to,uint256 _value,uint256 fee) internal {\n            balances[_from] =balances[_from].sub(_value);\n            balances[_to] = balances[_to].add(_value);\n            Transfer(_from, _to, _value);\n            if(withFee(_from,_to)) {\n                doBurn(_from,fee);\n            }\n    }\n    \n    function doBurn(address _from,uint256 _value) private returns (bool success){\n        require(balanceOf(_from) >= _value);   // Check if the sender has enough\n        balances[_from] =balances[_from].sub(_value);            // Subtract from the sender\n        _totalSupply =_totalSupply.sub(_value);                      // Updates totalSupply\n        Burn(_from, _value);\n        return true;\n    }\n    \n    function burn(address _from,uint256 _value) onlyOwner public returns (bool success) {\n        return doBurn(_from,_value);\n    }\n\n    function transferFrom(address _from, address _to, uint256 _value) returns (bool success) {\n        //same as above. Replace this line with the following if you want to protect against wrapping uints.\n        //if (balances[_from] >= _value && allowed[_from][msg.sender] >= _value && balances[_to] + _value > balances[_to]) {\n        if(newToken!=0x0){\n            return NewToken(newToken).transferFrom(msg.sender,_from,_to,_value);\n        }\n        uint256 fee=getFee(_value);\n        uint256 valueWithFee=_value;\n        if(withFee(_from,_to)){\n            valueWithFee=valueWithFee.add(fee);\n        }\n        if (balances[_from] >= valueWithFee && \n            (allowed[_from][msg.sender] >= valueWithFee || allowed[_from][msg.sender] == _value) &&\n            _value > 0 ) {\n            doTransfer(_from,_to,_value,fee);\n            if(allowed[_from][msg.sender] == _value){\n                allowed[_from][msg.sender] =allowed[_from][msg.sender].sub(_value);\n            }\n            else{\n                allowed[_from][msg.sender] =allowed[_from][msg.sender].sub(valueWithFee);\n            }\n            return true;\n        } else { return false; }\n    }\n\n    function balanceOf(address _owner) constant returns (uint256 balance) {\n        return balances[_owner];\n    }\n\n    function approve(address _spender, uint256 _value) returns (bool success) {\n        if(newToken!=0x0){\n            return NewToken(newToken).approve(msg.sender,_spender,_value);\n        }\n        uint256 valueWithFee=_value;\n        if(withFee(_spender,0x0)){\n            uint256 fee=getFee(_value);  \n            valueWithFee=valueWithFee.add(fee);\n        }\n        allowed[msg.sender][_spender] = valueWithFee;\n        Approval(msg.sender, _spender, valueWithFee);\n        return true;\n    }\n\n    function allowance(address _owner, address _spender) constant returns (uint256 remaining) {\n      return allowed[_owner][_spender];\n    }\n    \n    function totalSupply() constant returns (uint totalSupply){\n        return _totalSupply;\n    }\n    \n    function setTotalSupply(uint256 _value) onlyNewToken external {\n        _totalSupply=_value;\n    }\n    \n    function setBalance(address _to,uint256 _value) onlyNewToken external {\n        balances[_to]=_value;\n    }\n    \n    function setAllowed(address _spender,address _to,uint256 _value) onlyNewToken external {\n        allowed[_to][_spender]=_value;\n    }\n    function getDecimals() constant returns (uint256 decimals){\n        return decimals;\n    }\n    \n    function eventTransfer(address _from, address  _to, uint256 _value) onlyNewToken external{\n        Transfer(_from,_to,_value);\n    }\n    \n    function eventApproval(address _owner, address  _spender, uint256 _value)onlyNewToken external{\n        Approval(_owner,_spender,_value);\n    }\n    function eventBurn(address from, uint256 value)onlyNewToken external{\n        Burn(from,value);\n    }\n}\n\n\ncontract EqualToken is StandardToken {\n\n    function () {\n        //if ether is sent to this address, send it back.\n        revert();\n    }\n\n    /* Public variables of the token */\n    \n    /*\n    NOTE:\n    The following variables are OPTIONAL vanities. One does not have to include them.\n    They allow one to customise the token contract & in no way influences the core functionality.\n    Some wallets/interfaces might not even bother to look at this information.\n    */\n    string public name;                   //fancy name: eg Simon Bucks\n    string public symbol;                 //An identifier: eg SBX\n    string public version = 'H1.0';       //human 0.1 standard. Just an arbitrary versioning scheme.\n    address public oldToken=0x0;    \n    // Fee info\n    string public feeInfo = \"Each operation costs 1% of the transaction amount, but not more than 250 tokens.\";\n\n    function EqualToken() {\n        _owner=msg.sender;\n        whitelistModerator[msg.sender]=3;\n        whitelist[3][msg.sender]=true;\n        \n        \n        maxFee=250; // max fee for transfer\n        feePercantage=1; // fee in percents\n        \n        name = \"EQUAL\";                      // Set the name for display purposes\n        decimals = 18;                            // Amount of decimals for display purposes\n        symbol = \"EQL\";                          // Set the symbol for display purposes\n    }\n\n    function setOldToken(address _oldToken) onlyOwner public{\n        require(oldToken==0x0);\n        oldToken=_oldToken;\n        Token token=Token(_oldToken);\n        _totalSupply=token.totalSupply();\n        balances[msg.sender] =_totalSupply;\n        Transfer(0x0,msg.sender,_totalSupply);\n    }\n    \n    // Redistibute new token with same balances;\n    function redistribute(address[] holders) onlyOwner public{\n        require(oldToken!=0x0);\n        Token token=Token(oldToken);\n        for(uint256 i=0;i<holders.length;++i){\n            address _to=holders[i];\n            if(balances[_to]==0){\n                uint256 balance=token.balanceOf(_to);\n                balances[_to]=balance;\n                balances[msg.sender]=balances[msg.sender].sub(balance);\n                Transfer(msg.sender,_to,balance);\n            }\n        }\n    }\n    \n    function allocate(address _address,uint256 percent) private{\n        uint256 bal=_totalSupply.onePercent().mul(percent);\n        //balances[_address]=bal;\n        whitelist[3][_address]=true;\n        doTransfer(msg.sender,_address,bal,0);\n    }\n   \n    // Set address access to inbound whitelist. \n    function setWhitelistIn(address _address,bool _value) canModifyWhitelistIn public{\n        setWhitelistValue(_address,_value,1);\n    }\n    \n    // Set address access to outbound whitelist. \n    function setWhitelistOut(address _address,bool _value) canModifyWhitelistOut public{\n        setWhitelistValue(_address,_value,2);\n    }\n    \n    // Set address access to inbound and outbound whitelist. \n    function setWhitelist(address _address,bool _value) canModifyWhitelist public{\n        setWhitelistValue(_address,_value,3);\n    }\n    \n    function setWhitelistValue(address _address,bool _withoutFee,uint8 _type) internal {\n        whitelist[_type][_address]=_withoutFee;\n    }\n    \n    // Set address of moderator whitelist\n    // _level can be: 0 -not moderator, 1 -inbound,2 - outbound, 3 -all\n    function setWhitelistModerator(address _address,uint8 _level) onlyOwner public {\n        whitelistModerator[_address]=_level;\n    }\n    \n    //Set max fee value\n    function setMaxFee(uint256 newFee) onlyOwner public {\n        maxFee=newFee;\n    }\n    \n    //Set fee percent value\n    function setFeePercent(uint256 newFee) onlyOwner public {\n        feePercantage=newFee;\n    }\n    \n    //Set fee info\n    function setFeeInfo(string newFeeInfo) onlyOwner public {\n       feeInfo=newFeeInfo;\n    }\n    \n    function setNewToken(address _newtoken) onlyOwner public{\n        newToken=_newtoken;\n        UpdateToken(_newtoken);\n    }\n    \n    /* Approves and then calls the receiving contract */\n    function approveAndCall(address _spender, uint256 _value, bytes _extraData) returns (bool success) {\n        if(!approve(_spender,_value)){\n            return false;\n        }\n        //call the receiveApproval function on the contract you want to be notified. This crafts the function signature manually so one doesn't have to include a contract in here just for this.\n        //receiveApproval(address _from, uint256 _value, address _tokenContract, bytes _extraData)\n        //it is assumed that when does this that the call *should* succeed, otherwise one would use vanilla approve instead.\n        if(!_spender.call(bytes4(bytes32(sha3(\"receiveApproval(address,uint256,address,bytes)\"))), msg.sender, _value, this, _extraData)) { revert(); }\n        return true;\n    }\n}",
  "sourcePath": "/workdir/truffle_example/before/0xc7d020d8c92d099b3ade17321310b4815ef20a90/contracts/token.sol",
  "compiler": {
    "name": "solc",
    "version": "0.4.25+commit.59dbf8f1.Emscripten.clang"
  },
  "schemaVersion": "3.4.8",
  "updatedAt": "2022-08-13T07:48:11.600Z",
  "devdoc": {
    "methods": {}
  },
  "userdoc": {
    "methods": {}
  }
}