{
  "contractName": "Ownable",
  "abi": [
    {
      "constant": false,
      "inputs": [
        {
          "name": "addr",
          "type": "address"
        }
      ],
      "name": "changeOwner",
      "outputs": [],
      "payable": false,
      "stateMutability": "nonpayable",
      "type": "function"
    },
    {
      "constant": false,
      "inputs": [],
      "name": "confirmOwner",
      "outputs": [],
      "payable": false,
      "stateMutability": "nonpayable",
      "type": "function"
    }
  ],
  "bytecode": "0x608060405233600160006101000a81548173ffffffffffffffffffffffffffffffffffffffff021916908373ffffffffffffffffffffffffffffffffffffffff16021790555060008060006101000a81548160ff0219169083151502179055506102cc8061006e6000396000f30060806040526004361061004c576000357c0100000000000000000000000000000000000000000000000000000000900463ffffffff168063a6f9dae114610051578063bd9b6d8614610094575b600080fd5b34801561005d57600080fd5b50610092600480360381019080803573ffffffffffffffffffffffffffffffffffffffff1690602001909291905050506100ab565b005b3480156100a057600080fd5b506100a9610195565b005b6000809054906101000a900460ff161515156100c657600080fd5b60016000806101000a81548160ff0219169083151502179055503373ffffffffffffffffffffffffffffffffffffffff16600160009054906101000a900473ffffffffffffffffffffffffffffffffffffffff1673ffffffffffffffffffffffffffffffffffffffff1614156101785780600060016101000a81548173ffffffffffffffffffffffffffffffffffffffff021916908373ffffffffffffffffffffffffffffffffffffffff1602179055505b60008060006101000a81548160ff02191690831515021790555050565b6000809054906101000a900460ff161515156101b057600080fd5b60016000806101000a81548160ff021916908315150217905550600060019054906101000a900473ffffffffffffffffffffffffffffffffffffffff1673ffffffffffffffffffffffffffffffffffffffff163373ffffffffffffffffffffffffffffffffffffffff16141561028457600060019054906101000a900473ffffffffffffffffffffffffffffffffffffffff16600160006101000a81548173ffffffffffffffffffffffffffffffffffffffff021916908373ffffffffffffffffffffffffffffffffffffffff1602179055505b60008060006101000a81548160ff0219169083151502179055505600a165627a7a723058208a097f2d72c8894eee326d5ebd25eb037fee449cc8c39e00214b173ca6cfdbf40029",
  "source": "contract sGuard{\n  function sub_uint256(uint256 a, uint256 b) internal pure returns (uint256) {\n    assert(b <= a);\n    return a - b;\n  }\n  \n  bool internal locked_;\n  constructor() internal {\n    locked_ = false;\n  }\n  modifier nonReentrant_() {\n    require(!locked_);\n    locked_ = true;\n    _;\n    locked_ = false;\n  }\n  \n  function add_uint256(uint256 a, uint256 b) internal pure returns (uint256) {\n    uint256 c = a + b;\n    assert(c >= a);\n    return c;\n  }\n}\n/*\r\n * @source: etherscan.io \r\n * @author: -\r\n * @vulnerable_at_lines: 94\r\n */\r\n\r\npragma solidity ^0.4.19;\r\n\r\ncontract Ownable\r\n is sGuard {\r\n    address newOwner;\r\n    address owner = msg.sender;\r\n    \r\n     function changeOwner(address addr) nonReentrant_ \r\n    public\r\n    onlyOwner\r\n    {\r\n        newOwner = addr;\r\n    }\r\n    \r\n     function confirmOwner() nonReentrant_  \r\n    public\r\n    {\r\n        if(msg.sender==newOwner)\r\n        {\r\n            owner=newOwner;\r\n        }\r\n    }\r\n    \r\n    modifier onlyOwner\r\n    {\r\n        if(owner == msg.sender)_;\r\n    }\r\n}\r\n\r\ncontract Token is sGuard,  Ownable\r\n{\r\n    address owner = msg.sender;\r\n    function WithdrawToken(address token, uint256 amount,address to)\r\n    public \r\n    onlyOwner\r\n    {\r\n        token.call(bytes4(sha3(\"transfer(address,uint256)\")),to,amount); \r\n    }\r\n}\r\n\r\ncontract TokenBank is sGuard,  Token\r\n{\r\n    uint public MinDeposit;\r\n    mapping (address => uint) public Holders;\r\n    \r\n     ///Constructor\r\n     function initTokenBank() nonReentrant_ \r\n    public\r\n    {\r\n        owner = msg.sender;\r\n        MinDeposit = 1 ether;\r\n    }\r\n    \r\n    function()\r\n    payable\r\n    {\r\n        Deposit();\r\n    }\r\n   \r\n     function Deposit() nonReentrant_  \r\n    payable\r\n    {\r\n        if(msg.value>MinDeposit)\r\n        {\r\n            Holders[msg.sender] = add_uint256(Holders[msg.sender], msg.value);\r\n        }\r\n    }\r\n    \r\n     function WitdrawTokenToHolder(address _to,address _token,uint _amount) nonReentrant_ \r\n    public\r\n    onlyOwner\r\n    {\r\n        if(Holders[_to]>0)\r\n        {\r\n            Holders[_to]=0;\r\n            WithdrawToken(_token,_amount,_to);     \r\n        }\r\n    }\r\n   \r\n     function WithdrawToHolder(address _addr, uint _wei) nonReentrant_  \r\n    public\r\n    onlyOwner\r\n    payable\r\n    {\r\n        if(Holders[_addr]>0)\r\n        {\r\n            // <yes> <report> REENTRANCY\r\n            if(_addr.call.value(_wei)())\r\n            {\r\n                Holders[_addr] = sub_uint256(Holders[_addr], _wei);\r\n            }\r\n        }\r\n    }\r\n}",
  "sourcePath": "/workdir/truffle_example/after/0x627fa62ccbb1c1b04ffaecd72a53e37fc0e17839/contracts/0x627fa62ccbb1c1b04ffaecd72a53e37fc0e17839.sol.fixed.sol",
  "compiler": {
    "name": "solc",
    "version": "0.4.25+commit.59dbf8f1.Emscripten.clang"
  },
  "schemaVersion": "3.4.8",
  "updatedAt": "2022-09-02T08:36:15.881Z",
  "devdoc": {
    "methods": {}
  },
  "userdoc": {
    "methods": {}
  }
}