{
  "contractName": "StandardToken",
  "abi": [
    {
      "constant": true,
      "inputs": [],
      "name": "totalSupply",
      "outputs": [
        {
          "name": "",
          "type": "uint256"
        }
      ],
      "payable": false,
      "stateMutability": "view",
      "type": "function"
    },
    {
      "anonymous": false,
      "inputs": [
        {
          "indexed": false,
          "name": "receiver",
          "type": "address"
        },
        {
          "indexed": false,
          "name": "amount",
          "type": "uint256"
        }
      ],
      "name": "Minted",
      "type": "event"
    },
    {
      "anonymous": false,
      "inputs": [
        {
          "indexed": true,
          "name": "from",
          "type": "address"
        },
        {
          "indexed": true,
          "name": "to",
          "type": "address"
        },
        {
          "indexed": false,
          "name": "value",
          "type": "uint256"
        }
      ],
      "name": "Transfer",
      "type": "event"
    },
    {
      "anonymous": false,
      "inputs": [
        {
          "indexed": true,
          "name": "owner",
          "type": "address"
        },
        {
          "indexed": true,
          "name": "spender",
          "type": "address"
        },
        {
          "indexed": false,
          "name": "value",
          "type": "uint256"
        }
      ],
      "name": "Approval",
      "type": "event"
    },
    {
      "constant": true,
      "inputs": [],
      "name": "isToken",
      "outputs": [
        {
          "name": "weAre",
          "type": "bool"
        }
      ],
      "payable": false,
      "stateMutability": "view",
      "type": "function"
    },
    {
      "constant": false,
      "inputs": [
        {
          "name": "_to",
          "type": "address"
        },
        {
          "name": "_value",
          "type": "uint256"
        }
      ],
      "name": "transfer",
      "outputs": [
        {
          "name": "success",
          "type": "bool"
        }
      ],
      "payable": false,
      "stateMutability": "nonpayable",
      "type": "function"
    },
    {
      "constant": false,
      "inputs": [
        {
          "name": "_from",
          "type": "address"
        },
        {
          "name": "_to",
          "type": "address"
        },
        {
          "name": "_value",
          "type": "uint256"
        }
      ],
      "name": "transferFrom",
      "outputs": [
        {
          "name": "success",
          "type": "bool"
        }
      ],
      "payable": false,
      "stateMutability": "nonpayable",
      "type": "function"
    },
    {
      "constant": true,
      "inputs": [
        {
          "name": "_owner",
          "type": "address"
        }
      ],
      "name": "balanceOf",
      "outputs": [
        {
          "name": "balance",
          "type": "uint256"
        }
      ],
      "payable": false,
      "stateMutability": "view",
      "type": "function"
    },
    {
      "constant": false,
      "inputs": [
        {
          "name": "_spender",
          "type": "address"
        },
        {
          "name": "_value",
          "type": "uint256"
        }
      ],
      "name": "approve",
      "outputs": [
        {
          "name": "success",
          "type": "bool"
        }
      ],
      "payable": false,
      "stateMutability": "nonpayable",
      "type": "function"
    },
    {
      "constant": true,
      "inputs": [
        {
          "name": "_owner",
          "type": "address"
        },
        {
          "name": "_spender",
          "type": "address"
        }
      ],
      "name": "allowance",
      "outputs": [
        {
          "name": "remaining",
          "type": "uint256"
        }
      ],
      "payable": false,
      "stateMutability": "view",
      "type": "function"
    }
  ],
  "bytecode": "0x608060405234801561001057600080fd5b50610a03806100206000396000f300608060405260043610610083576000357c0100000000000000000000000000000000000000000000000000000000900463ffffffff168063095ea7b31461008857806318160ddd146100ed57806323b872dd1461011857806370a082311461019d578063a9059cbb146101f4578063dd62ed3e14610259578063eefa597b146102d0575b600080fd5b34801561009457600080fd5b506100d3600480360381019080803573ffffffffffffffffffffffffffffffffffffffff169060200190929190803590602001909291905050506102ff565b604051808215151515815260200191505060405180910390f35b3480156100f957600080fd5b50610102610488565b6040518082815260200191505060405180910390f35b34801561012457600080fd5b50610183600480360381019080803573ffffffffffffffffffffffffffffffffffffffff169060200190929190803573ffffffffffffffffffffffffffffffffffffffff1690602001909291908035906020019092919050505061048e565b604051808215151515815260200191505060405180910390f35b3480156101a957600080fd5b506101de600480360381019080803573ffffffffffffffffffffffffffffffffffffffff169060200190929190505050610723565b6040518082815260200191505060405180910390f35b34801561020057600080fd5b5061023f600480360381019080803573ffffffffffffffffffffffffffffffffffffffff1690602001909291908035906020019092919050505061076c565b604051808215151515815260200191505060405180910390f35b34801561026557600080fd5b506102ba600480360381019080803573ffffffffffffffffffffffffffffffffffffffff169060200190929190803573ffffffffffffffffffffffffffffffffffffffff1690602001909291905050506108f5565b6040518082815260200191505060405180910390f35b3480156102dc57600080fd5b506102e561097c565b604051808215151515815260200191505060405180910390f35b600080821415801561038e57506000600360003373ffffffffffffffffffffffffffffffffffffffff1673ffffffffffffffffffffffffffffffffffffffff16815260200190815260200160002060008573ffffffffffffffffffffffffffffffffffffffff1673ffffffffffffffffffffffffffffffffffffffff1681526020019081526020016000205414155b1561039857600080fd5b81600360003373ffffffffffffffffffffffffffffffffffffffff1673ffffffffffffffffffffffffffffffffffffffff16815260200190815260200160002060008573ffffffffffffffffffffffffffffffffffffffff1673ffffffffffffffffffffffffffffffffffffffff168152602001908152602001600020819055508273ffffffffffffffffffffffffffffffffffffffff163373ffffffffffffffffffffffffffffffffffffffff167f8c5be1e5ebec7d5bd14f71427d1e84f3dd0314c0f7b2291e5b200ac8c7c3b925846040518082815260200191505060405180910390a36001905092915050565b60005481565b600080600360008673ffffffffffffffffffffffffffffffffffffffff1673ffffffffffffffffffffffffffffffffffffffff16815260200190815260200160002060003373ffffffffffffffffffffffffffffffffffffffff1673ffffffffffffffffffffffffffffffffffffffff168152602001908152602001600020549050610559600160008673ffffffffffffffffffffffffffffffffffffffff1673ffffffffffffffffffffffffffffffffffffffff1681526020019081526020016000205484610985565b600160008673ffffffffffffffffffffffffffffffffffffffff1673ffffffffffffffffffffffffffffffffffffffff168152602001908152602001600020819055506105e5600160008773ffffffffffffffffffffffffffffffffffffffff1673ffffffffffffffffffffffffffffffffffffffff16815260200190815260200160002054846109af565b600160008773ffffffffffffffffffffffffffffffffffffffff1673ffffffffffffffffffffffffffffffffffffffff1681526020019081526020016000208190555061063281846109af565b600360008773ffffffffffffffffffffffffffffffffffffffff1673ffffffffffffffffffffffffffffffffffffffff16815260200190815260200160002060003373ffffffffffffffffffffffffffffffffffffffff1673ffffffffffffffffffffffffffffffffffffffff168152602001908152602001600020819055508373ffffffffffffffffffffffffffffffffffffffff168573ffffffffffffffffffffffffffffffffffffffff167fddf252ad1be2c89b69c2b068fc378daa952ba7f163c4a11628f55a4df523b3ef856040518082815260200191505060405180910390a360019150509392505050565b6000600160008373ffffffffffffffffffffffffffffffffffffffff1673ffffffffffffffffffffffffffffffffffffffff168152602001908152602001600020549050919050565b60006107b7600160003373ffffffffffffffffffffffffffffffffffffffff1673ffffffffffffffffffffffffffffffffffffffff16815260200190815260200160002054836109af565b600160003373ffffffffffffffffffffffffffffffffffffffff1673ffffffffffffffffffffffffffffffffffffffff16815260200190815260200160002081905550610843600160008573ffffffffffffffffffffffffffffffffffffffff1673ffffffffffffffffffffffffffffffffffffffff1681526020019081526020016000205483610985565b600160008573ffffffffffffffffffffffffffffffffffffffff1673ffffffffffffffffffffffffffffffffffffffff168152602001908152602001600020819055508273ffffffffffffffffffffffffffffffffffffffff163373ffffffffffffffffffffffffffffffffffffffff167fddf252ad1be2c89b69c2b068fc378daa952ba7f163c4a11628f55a4df523b3ef846040518082815260200191505060405180910390a36001905092915050565b6000600360008473ffffffffffffffffffffffffffffffffffffffff1673ffffffffffffffffffffffffffffffffffffffff16815260200190815260200160002060008373ffffffffffffffffffffffffffffffffffffffff1673ffffffffffffffffffffffffffffffffffffffff16815260200190815260200160002054905092915050565b60006001905090565b60008082840190506109a58482101580156109a05750838210155b6109c8565b8091505092915050565b60006109bd838311156109c8565b818303905092915050565b8015156109d457600080fd5b505600a165627a7a723058200bff7f32f53d7876e856ab7c416377acb285c4855b8d06e4c2b02b04a3ad2cf00029",
  "source": "/*\r\n * @source: etherscan.io \r\n * @author: -\r\n * @vulnerable_at_lines: 439,465\r\n */\r\n\r\n//DAO Polska Token deployment\r\npragma solidity ^0.4.11;\r\ninterface tokenRecipient { function receiveApproval(address _from, uint256 _value, address _token, bytes _extraData) public; }\r\n\r\n\r\n// title Migration Agent interface\r\ncontract MigrationAgent {\r\n    function migrateFrom(address _from, uint256 _value);\r\n}\r\n\r\ncontract ERC20 {\r\n  uint public totalSupply;\r\n  function balanceOf(address who) constant returns (uint);\r\n  function allowance(address owner, address spender) constant returns (uint);\r\n\r\n  function transfer(address to, uint value) returns (bool ok);\r\n  function transferFrom(address from, address to, uint value) returns (bool ok);\r\n  function approve(address spender, uint value) returns (bool ok);\r\n  event Transfer(address indexed from, address indexed to, uint value);\r\n  event Approval(address indexed owner, address indexed spender, uint value);\r\n}\r\n\r\n\r\n\r\n/**\r\n * Math operations with safety checks\r\n */\r\ncontract SafeMath {\r\n  function safeMul(uint a, uint b) internal returns (uint) {\r\n    uint c = a * b;\r\n    assert(a == 0 || c / a == b);\r\n    return c;\r\n  }\r\n\r\n  function safeDiv(uint a, uint b) internal returns (uint) {\r\n    assert(b > 0);\r\n    uint c = a / b;\r\n    assert(a == b * c + a % b);\r\n    return c;\r\n  }\r\n\r\n  function safeSub(uint a, uint b) internal returns (uint) {\r\n    assert(b <= a);\r\n    return a - b;\r\n  }\r\n\r\n  function safeAdd(uint a, uint b) internal returns (uint) {\r\n    uint c = a + b;\r\n    assert(c>=a && c>=b);\r\n    return c;\r\n  }\r\n\r\n  function max64(uint64 a, uint64 b) internal constant returns (uint64) {\r\n    return a >= b ? a : b;\r\n  }\r\n\r\n  function min64(uint64 a, uint64 b) internal constant returns (uint64) {\r\n    return a < b ? a : b;\r\n  }\r\n\r\n  function max256(uint256 a, uint256 b) internal constant returns (uint256) {\r\n    return a >= b ? a : b;\r\n  }\r\n\r\n  function min256(uint256 a, uint256 b) internal constant returns (uint256) {\r\n    return a < b ? a : b;\r\n  }\r\n\r\n  function assert(bool assertion) internal {\r\n    if (!assertion) {\r\n      throw;\r\n    }\r\n  }\r\n}\r\n\r\n\r\n\r\n/**\r\n * Standard ERC20 token with Short Hand Attack and approve() race condition mitigation.\r\n *\r\n * Based on code by FirstBlood:\r\n * https://github.com/Firstbloodio/token/blob/master/smart_contract/FirstBloodToken.sol\r\n */\r\ncontract StandardToken is ERC20, SafeMath {\r\n\r\n  /* Token supply got increased and a new owner received these tokens */\r\n  event Minted(address receiver, uint amount);\r\n\r\n  /* Actual balances of token holders */\r\n  mapping(address => uint) balances;\r\n  // what exaclt ether was sent\r\n  mapping(address => uint) balancesRAW;\r\n  /* approve() allowances */\r\n  mapping (address => mapping (address => uint)) allowed;\r\n\r\n  /* Interface declaration */\r\n  function isToken() public constant returns (bool weAre) {\r\n    return true;\r\n  }\r\n\r\n  function transfer(address _to, uint _value) returns (bool success) {\r\n    balances[msg.sender] = safeSub(balances[msg.sender], _value);\r\n    balances[_to] = safeAdd(balances[_to], _value);\r\n    Transfer(msg.sender, _to, _value);\r\n    return true;\r\n  }\r\n\r\n  function transferFrom(address _from, address _to, uint _value) returns (bool success) {\r\n    uint _allowance = allowed[_from][msg.sender];\r\n\r\n    balances[_to] = safeAdd(balances[_to], _value);\r\n    balances[_from] = safeSub(balances[_from], _value);\r\n    allowed[_from][msg.sender] = safeSub(_allowance, _value);\r\n    Transfer(_from, _to, _value);\r\n    return true;\r\n  }\r\n\r\n  function balanceOf(address _owner) constant returns (uint balance) {\r\n    return balances[_owner];\r\n  }\r\n\r\n  function approve(address _spender, uint _value) returns (bool success) {\r\n\r\n    // To change the approve amount you first have to reduce the addresses`\r\n    //  allowance to zero by calling `approve(_spender, 0)` if it is not\r\n    //  already 0 to mitigate the race condition described here:\r\n    //  https://github.com/ethereum/EIPs/issues/20#issuecomment-263524729\r\n    if ((_value != 0) && (allowed[msg.sender][_spender] != 0)) throw;\r\n\r\n    allowed[msg.sender][_spender] = _value;\r\n    Approval(msg.sender, _spender, _value);\r\n    return true;\r\n  }\r\n\r\n  function allowance(address _owner, address _spender) constant returns (uint remaining) {\r\n    return allowed[_owner][_spender];\r\n  }\r\n\r\n  \r\n  \r\n}\r\n\r\n\r\n//  daoPOLSKAtokens\r\ncontract daoPOLSKAtokens{\r\n\r\n    string public name = \"DAO POLSKA TOKEN version 1\";\r\n    string public symbol = \"DPL\";\r\n    uint8 public constant decimals = 18;  // 18 decimal places, the same as ETC/ETH/HEE.\r\n\r\n    // Receives \r\n    address public owner;\r\n    address public migrationMaster;\t\r\n    // The current total token supply.\r\n\r\n    uint256 public otherchainstotalsupply =1.0 ether;\r\n    uint256 public supplylimit      = 10000.0 ether;\r\n\t//totalSupply   \r\n   uint256 public  totalSupply      = 0.0 ether;\r\n\t//chains:\r\n\taddress public Chain1 = 0x0;\r\n\taddress public Chain2 = 0x0;\r\n\taddress public Chain3 = 0x0;\r\n\taddress public Chain4 = 0x0;\r\n\r\n\taddress public migrationAgent=0x8585D5A25b1FA2A0E6c3BcfC098195bac9789BE2;\r\n    uint256 public totalMigrated;\r\n\r\n\r\n    event Migrate(address indexed _from, address indexed _to, uint256 _value);\r\n    event Refund(address indexed _from, uint256 _value);\r\n\r\n\t\r\n\tstruct sendTokenAway{\r\n\t\tStandardToken coinContract;\r\n\t\tuint amount;\r\n\t\taddress recipient;\r\n\t}\r\n\tmapping(uint => sendTokenAway) transfers;\r\n\tuint numTransfers=0;\r\n\t\r\n  mapping (address => uint256) balances;\r\nmapping (address => uint256) balancesRAW;\r\n  mapping (address => mapping (address => uint256)) allowed;\r\n\r\n\tevent UpdatedTokenInformation(string newName, string newSymbol);\t\r\n \r\n    event Transfer(address indexed _from, address indexed _to, uint256 _value);\r\n\tevent receivedEther(address indexed _from,uint256 _value);\r\n  event Approval(address indexed _owner, address indexed _spender, uint256 _value);\r\n\r\n      // This notifies clients about the amount burnt\r\n    event Burn(address indexed from, uint256 value);\r\n  //tokenCreationCap\r\n  bool public supplylimitset = false;\r\n  bool public otherchainstotalset = false;\r\n   \r\n  function daoPOLSKAtokens() {\r\nowner=msg.sender;\r\nmigrationMaster=msg.sender;\r\n}\r\n\r\nfunction  setSupply(uint256 supplyLOCKER) public {\r\n    \t   if (msg.sender != owner) {\r\n      throw;\r\n    }\r\n\t\t    \t   if (supplylimitset != false) {\r\n      throw;\r\n    }\r\n\tsupplylimitset = true;\r\n  \r\n\tsupplylimit = supplyLOCKER ** uint256(decimals);\r\n//balances[owner]=supplylimit;\r\n  } \r\nfunction setotherchainstotalsupply(uint256 supplyLOCKER) public {\r\n    \t   if (msg.sender != owner) {\r\n      throw;\r\n    }\r\n\t    \t   if (supplylimitset != false) {\r\n      throw;\r\n    }\r\n\r\n\totherchainstotalset = true;\r\n\totherchainstotalsupply = supplyLOCKER ** uint256(decimals);\r\n\t\r\n  } \r\n    /**\r\n     * Set allowance for other address and notify\r\n     *\r\n     * Allows `_spender` to spend no more than `_value` tokens on your behalf, and then ping the contract about it\r\n     *\r\n     * @param _spender The address authorized to spend\r\n     * @param _value the max amount they can spend\r\n     * @param _extraData some extra information to send to the approved contract\r\n     */\r\n    function approveAndCall(address _spender, uint256 _value, bytes _extraData)\r\n        public\r\n        returns (bool success) {\r\n        tokenRecipient spender = tokenRecipient(_spender);\r\n        if (approve(_spender, _value)) {\r\n            spender.receiveApproval(msg.sender, _value, this, _extraData);\r\n            return true;\r\n        }\r\n    }\r\n\r\n    /**\r\n     * Destroy tokens\r\n     *\r\n     * Remove `_value` tokens from the system irreversibly\r\n     *\r\n     * @param _value the amount of money to burn\r\n     */\r\n    function burn(uint256 _value) public returns (bool success) {\r\n        require(balances[msg.sender] >= _value);   // Check if the sender has enough\r\n        balances[msg.sender] -= _value;            // Subtract from the sender\r\n        totalSupply -= _value;                      // Updates totalSupply\r\n        Burn(msg.sender, _value);\r\n        return true;\r\n    }\r\n\r\n    /**\r\n     * Destroy tokens from other account\r\n     *\r\n     * Remove `_value` tokens from the system irreversibly on behalf of `_from`.\r\n     *\r\n     * @param _from the address of the sender\r\n     * @param _value the amount of money to burn\r\n     */\r\n    function burnFrom(address _from, uint256 _value) public returns (bool success) {\r\n        require(balances[_from] >= _value);                // Check if the targeted balance is enough\r\n        require(_value <= allowed[_from][msg.sender]);    // Check allowance\r\n        balances[_from] -= _value;                         // Subtract from the targeted balance\r\n        allowed[_from][msg.sender] -= _value;             // Subtract from the sender's allowance\r\n        totalSupply -= _value;                              // Update totalSupply\r\n        Burn(_from, _value);\r\n        return true;\r\n    }\r\n  \r\n  function transfer(address _to, uint256 _value) returns (bool success) {\r\n    //Default assumes totalSupply can't be over max (2^256 - 1).\r\n    //If your token leaves out totalSupply and can issue more tokens as time goes on, you need to check if it doesn't wrap.\r\n    //Replace the if with this one instead.\r\n    if (balances[msg.sender] >= _value && balances[_to] + _value > balances[_to]) {\r\n    //if (balances[msg.sender] >= _value && _value > 0) {\r\n      balances[msg.sender] -= _value;\r\n      balances[_to] += _value;\r\n      Transfer(msg.sender, _to, _value);\r\n      return true;\r\n    } else { return false; }\r\n  }\r\n\r\n  function transferFrom(address _from, address _to, uint256 _value) returns (bool success) {\r\n    //same as above. Replace this line with the following if you want to protect against wrapping uints.\r\n    if (balances[_from] >= _value && allowed[_from][msg.sender] >= _value && balances[_to] + _value > balances[_to]) {\r\n    //if (balances[_from] >= _value && allowed[_from][msg.sender] >= _value && _value > 0) {\r\n      balances[_to] += _value;\r\n      balances[_from] -= _value;\r\n      allowed[_from][msg.sender] -= _value;\r\n      Transfer(_from, _to, _value);\r\n      return true;\r\n    } else { return false; }\r\n  }\r\n\r\n  function balanceOf(address _owner) constant returns (uint256 balance) {\r\n    return balances[_owner];\r\n  }\r\n\r\n  function approve(address _spender, uint256 _value) returns (bool success) {\r\n    allowed[msg.sender][_spender] = _value;\r\n    Approval(msg.sender, _spender, _value);\r\n    return true;\r\n  }\r\n\r\n  function allowance(address _owner, address _spender) constant returns (uint256 remaining) {\r\n    return allowed[_owner][_spender];\r\n  }\r\n\r\n\r\n\t\r\n\t    function () payable  public {\r\n\t\t if(funding){ \r\n        receivedEther(msg.sender, msg.value);\r\n\t\tbalances[msg.sender]=balances[msg.sender]+msg.value;\r\n\t\t} else throw;\r\n\t\t\r\n    }\r\n   \r\n\r\n\r\n\r\n\t\r\n  function setTokenInformation(string _name, string _symbol) {\r\n    \r\n\t   if (msg.sender != owner) {\r\n      throw;\r\n    }\r\n\tname = _name;\r\n    symbol = _symbol;\r\n\r\n    UpdatedTokenInformation(name, symbol);\r\n  }\r\n\r\nfunction setChainsAddresses(address chainAd, int chainnumber) {\r\n    \r\n\t   if (msg.sender != owner) {\r\n      throw;\r\n    }\r\n\tif(chainnumber==1){Chain1=chainAd;}\r\n\tif(chainnumber==2){Chain2=chainAd;}\r\n\tif(chainnumber==3){Chain3=chainAd;}\r\n\tif(chainnumber==4){Chain4=chainAd;}\t\t\r\n  } \r\n\r\n  function DAOPolskaTokenICOregulations() external returns(string wow) {\r\n\treturn 'Regulations of preICO and ICO are present at website  DAO Polska Token.network and by using this smartcontract and blockchains you commit that you accept and will follow those rules';\r\n}\r\n// if accidentally other token was donated to Project Dev\r\n\r\n\r\n\tfunction sendTokenAw(address StandardTokenAddress, address receiver, uint amount){\r\n\t\tif (msg.sender != owner) {\r\n\t\tthrow;\r\n\t\t}\r\n\t\tsendTokenAway t = transfers[numTransfers];\r\n\t\tt.coinContract = StandardToken(StandardTokenAddress);\r\n\t\tt.amount = amount;\r\n\t\tt.recipient = receiver;\r\n\t\tt.coinContract.transfer(receiver, amount);\r\n\t\tnumTransfers++;\r\n\t}\r\n\r\n     // Crowdfunding:\r\nuint public tokenCreationRate=1000;\r\nuint public bonusCreationRate=1000;\r\nuint public CreationRate=1761;\r\n   uint256 public constant oneweek = 36000;\r\nuint256 public fundingEndBlock = 5433616;\r\nbool public funding = true;\r\nbool public refundstate = false;\r\nbool public migratestate= false;\r\n        function createDaoPOLSKAtokens(address holder) payable {\r\n\r\n        if (!funding) throw;\r\n\r\n        // Do not allow creating 0 or more than the cap tokens.\r\n        if (msg.value == 0) throw;\r\n\t\t// check the maximum token creation cap\r\n        if (msg.value > (supplylimit - totalSupply) / CreationRate)\r\n          throw;\r\n\t\t\r\n\t\t//bonus structure\r\n// in early stage there is about 100% more details in ico regulations on website\r\n// price and converstion rate in tabled to PLN not ether, and is updated daily\r\n\r\n\r\n\r\n\t var numTokensRAW = msg.value;\r\n\r\n        var numTokens = msg.value * CreationRate;\r\n        totalSupply += numTokens;\r\n\r\n        // Assign new tokens to the sender\r\n        balances[holder] += numTokens;\r\n        balancesRAW[holder] += numTokensRAW;\r\n        // Log token creation event\r\n        Transfer(0, holder, numTokens);\r\n\t\t\r\n\t\t// Create additional Dao Tokens for the community and developers around 12%\r\n        uint256 percentOfTotal = 12;\r\n        uint256 additionalTokens = \tnumTokens * percentOfTotal / (100);\r\n\r\n        totalSupply += additionalTokens;\r\n\r\n        balances[migrationMaster] += additionalTokens;\r\n        Transfer(0, migrationMaster, additionalTokens);\r\n\t\r\n\t}\r\n\tfunction setBonusCreationRate(uint newRate){\r\n\tif(msg.sender == owner) {\r\n\tbonusCreationRate=newRate;\r\n\tCreationRate=tokenCreationRate+bonusCreationRate;\r\n\t}\r\n\t}\r\n\r\n    function FundsTransfer() external {\r\n\tif(funding==true) throw;\r\n\t\t \tif (!owner.send(this.balance)) throw;\r\n    }\r\n\t\r\n    function PartialFundsTransfer(uint SubX) external {\r\n\t      if (msg.sender != owner) throw;\r\n        // <yes> <report> UNCHECKED_LL_CALLS\r\n        owner.send(this.balance - SubX);\r\n\t}\r\n\tfunction turnrefund() external {\r\n\t      if (msg.sender != owner) throw;\r\n\trefundstate=!refundstate;\r\n        }\r\n\t\t\r\n\t\t\tfunction fundingState() external {\r\n\t      if (msg.sender != owner) throw;\r\n\tfunding=!funding;\r\n        }\r\n    function turnmigrate() external {\r\n\t      if (msg.sender != migrationMaster) throw;\r\n\tmigratestate=!migratestate;\r\n}\r\n\r\n    // notice Finalize crowdfunding clossing funding options\r\n\t\r\nfunction finalize() external {\r\n        if (block.number <= fundingEndBlock+8*oneweek) throw;\r\n        // Switch to Operational state. This is the only place this can happen.\r\n        funding = false;\t\r\n\t\trefundstate=!refundstate;\r\n        // Transfer ETH to theDAO Polska Token network Storage address.\r\n        if (msg.sender==owner)\r\n        // <yes> <report> UNCHECKED_LL_CALLS\r\n\t\towner.send(this.balance);\r\n    }\r\n    function migrate(uint256 _value) external {\r\n        // Abort if not in Operational Migration state.\r\n        if (migratestate) throw;\r\n\r\n\r\n        // Validate input value.\r\n        if (_value == 0) throw;\r\n        if (_value > balances[msg.sender]) throw;\r\n\r\n        balances[msg.sender] -= _value;\r\n        totalSupply -= _value;\r\n        totalMigrated += _value;\r\n        MigrationAgent(migrationAgent).migrateFrom(msg.sender, _value);\r\n        Migrate(msg.sender, migrationAgent, _value);\r\n    }\r\n\t\r\nfunction refundTRA() external {\r\n        // Abort if not in Funding Failure state.\r\n        if (funding) throw;\r\n        if (!refundstate) throw;\r\n\r\n        var DAOPLTokenValue = balances[msg.sender];\r\n        var ETHValue = balancesRAW[msg.sender];\r\n        if (ETHValue == 0) throw;\r\n        balancesRAW[msg.sender] = 0;\r\n        totalSupply -= DAOPLTokenValue;\r\n         \r\n        Refund(msg.sender, ETHValue);\r\n        msg.sender.transfer(ETHValue);\r\n}\r\n\r\nfunction preICOregulations() external returns(string wow) {\r\n\treturn 'Regulations of preICO are present at website  daopolska.pl and by using this smartcontract you commit that you accept and will follow those rules';\r\n}\r\n\r\n\r\n}\r\n\r\n\r\n//------------------------------------------------------",
  "sourcePath": "/workdir/truffle_example/0x19cf8481ea15427a98ba3cdd6d9e14690011ab10/contracts/0x19cf8481ea15427a98ba3cdd6d9e14690011ab10.sol",
  "compiler": {
    "name": "solc",
    "version": "0.4.25+commit.59dbf8f1.Emscripten.clang"
  },
  "schemaVersion": "3.4.8",
  "updatedAt": "2022-08-11T07:12:46.050Z",
  "devdoc": {
    "methods": {}
  },
  "userdoc": {
    "methods": {}
  }
}