{
  "contractName": "ETH_FUND",
  "abi": [
    {
      "constant": true,
      "inputs": [],
      "name": "MinDeposit",
      "outputs": [
        {
          "name": "",
          "type": "uint256"
        }
      ],
      "payable": false,
      "stateMutability": "view",
      "type": "function"
    },
    {
      "constant": true,
      "inputs": [
        {
          "name": "",
          "type": "address"
        }
      ],
      "name": "balances",
      "outputs": [
        {
          "name": "",
          "type": "uint256"
        }
      ],
      "payable": false,
      "stateMutability": "view",
      "type": "function"
    },
    {
      "inputs": [
        {
          "name": "_log",
          "type": "address"
        }
      ],
      "payable": false,
      "stateMutability": "nonpayable",
      "type": "constructor"
    },
    {
      "payable": true,
      "stateMutability": "payable",
      "type": "fallback"
    },
    {
      "constant": false,
      "inputs": [],
      "name": "Deposit",
      "outputs": [],
      "payable": true,
      "stateMutability": "payable",
      "type": "function"
    },
    {
      "constant": false,
      "inputs": [
        {
          "name": "_am",
          "type": "uint256"
        }
      ],
      "name": "CashOut",
      "outputs": [],
      "payable": true,
      "stateMutability": "payable",
      "type": "function"
    }
  ],
  "bytecode": "0x6080604052670de0b6b3a764000060015534801561001c57600080fd5b5060405160208061054c8339810180604052810190808051906020019092919050505080600260006101000a81548173ffffffffffffffffffffffffffffffffffffffff021916908373ffffffffffffffffffffffffffffffffffffffff160217905550506104bc806100906000396000f300608060405260043610610062576000357c0100000000000000000000000000000000000000000000000000000000900463ffffffff16806311bcd8301461006457806327e235e31461008f5780639ffa0711146100e6578063ed21248c14610106575b005b34801561007057600080fd5b50610079610110565b6040518082815260200191505060405180910390f35b34801561009b57600080fd5b506100d0600480360381019080803573ffffffffffffffffffffffffffffffffffffffff169060200190929190505050610116565b6040518082815260200191505060405180910390f35b6101046004803603810190808035906020019092919050505061012e565b005b61010e61031a565b005b60015481565b60006020528060005260406000206000915090505481565b6000803373ffffffffffffffffffffffffffffffffffffffff1673ffffffffffffffffffffffffffffffffffffffff16815260200190815260200160002054811115801561017d575060035443115b15610317573373ffffffffffffffffffffffffffffffffffffffff168160405160006040518083038185875af1925050501561031657806000803373ffffffffffffffffffffffffffffffffffffffff1673ffffffffffffffffffffffffffffffffffffffff16815260200190815260200160002060008282540392505081905550600260009054906101000a900473ffffffffffffffffffffffffffffffffffffffff1673ffffffffffffffffffffffffffffffffffffffff16634c2f04a433836040518363ffffffff167c0100000000000000000000000000000000000000000000000000000000028152600401808373ffffffffffffffffffffffffffffffffffffffff1673ffffffffffffffffffffffffffffffffffffffff16815260200182815260200180602001828103825260078152602001807f436173684f7574000000000000000000000000000000000000000000000000008152506020019350505050600060405180830381600087803b1580156102fd57600080fd5b505af1158015610311573d6000803e3d6000fd5b505050505b5b50565b60015434111561048e57346000803373ffffffffffffffffffffffffffffffffffffffff1673ffffffffffffffffffffffffffffffffffffffff16815260200190815260200160002060008282540192505081905550600260009054906101000a900473ffffffffffffffffffffffffffffffffffffffff1673ffffffffffffffffffffffffffffffffffffffff16634c2f04a433346040518363ffffffff167c0100000000000000000000000000000000000000000000000000000000028152600401808373ffffffffffffffffffffffffffffffffffffffff1673ffffffffffffffffffffffffffffffffffffffff16815260200182815260200180602001828103825260078152602001807f4465706f736974000000000000000000000000000000000000000000000000008152506020019350505050600060405180830381600087803b15801561046e57600080fd5b505af1158015610482573d6000803e3d6000fd5b50505050436003819055505b5600a165627a7a72305820e51912983697225b09dd7a60ec1fbf7856cec82e71974a44f50b394b1a3138850029",
  "source": "/*\r\n * @source: etherscan.io \r\n * @author: -\r\n * @vulnerable_at_lines: 44\r\n */\r\n\r\npragma solidity ^0.4.19;\r\n\r\ncontract ETH_FUND\r\n{\r\n    mapping (address => uint) public balances;\r\n    \r\n    uint public MinDeposit = 1 ether;\r\n    \r\n    Log TransferLog;\r\n    \r\n    uint lastBlock;\r\n    \r\n    function ETH_FUND(address _log)\r\n    public \r\n    {\r\n        TransferLog = Log(_log);\r\n    }\r\n    \r\n    function Deposit()\r\n    public\r\n    payable\r\n    {\r\n        if(msg.value > MinDeposit)\r\n        {\r\n            balances[msg.sender]+=msg.value;\r\n            TransferLog.AddMessage(msg.sender,msg.value,\"Deposit\");\r\n            lastBlock = block.number;\r\n        }\r\n    }\r\n    \r\n    function CashOut(uint _am)\r\n    public\r\n    payable\r\n    {\r\n        if(_am<=balances[msg.sender]&&block.number>lastBlock)\r\n        {\r\n            // <yes> <report> REENTRANCY\r\n            if(msg.sender.call.value(_am)())\r\n            {\r\n                balances[msg.sender]-=_am;\r\n                TransferLog.AddMessage(msg.sender,_am,\"CashOut\");\r\n            }\r\n        }\r\n    }\r\n    \r\n    function() public payable{}    \r\n    \r\n}\r\n\r\ncontract Log \r\n{\r\n   \r\n    struct Message\r\n    {\r\n        address Sender;\r\n        string  Data;\r\n        uint Val;\r\n        uint  Time;\r\n    }\r\n    \r\n    Message[] public History;\r\n    \r\n    Message LastMsg;\r\n    \r\n    function AddMessage(address _adr,uint _val,string _data)\r\n    public\r\n    {\r\n        LastMsg.Sender = _adr;\r\n        LastMsg.Time = now;\r\n        LastMsg.Val = _val;\r\n        LastMsg.Data = _data;\r\n        History.push(LastMsg);\r\n    }\r\n}",
  "sourcePath": "/workdir/truffle_example/before/0x941d225236464a25eb18076df7da6a91d0f95e9e/contracts/0x941d225236464a25eb18076df7da6a91d0f95e9e.sol",
  "compiler": {
    "name": "solc",
    "version": "0.4.25+commit.59dbf8f1.Emscripten.clang"
  },
  "schemaVersion": "3.4.8",
  "updatedAt": "2022-08-14T08:56:28.588Z",
  "networkType": "ethereum",
  "devdoc": {
    "methods": {}
  },
  "userdoc": {
    "methods": {}
  }
}