{
  "contractName": "RRToken",
  "abi": [
    {
      "constant": true,
      "inputs": [],
      "name": "name",
      "outputs": [
        {
          "name": "",
          "type": "string"
        }
      ],
      "payable": false,
      "stateMutability": "view",
      "type": "function"
    },
    {
      "constant": false,
      "inputs": [
        {
          "name": "_spender",
          "type": "address"
        },
        {
          "name": "_value",
          "type": "uint256"
        }
      ],
      "name": "approve",
      "outputs": [
        {
          "name": "success",
          "type": "bool"
        }
      ],
      "payable": false,
      "stateMutability": "nonpayable",
      "type": "function"
    },
    {
      "constant": true,
      "inputs": [],
      "name": "totalSupply",
      "outputs": [
        {
          "name": "",
          "type": "uint256"
        }
      ],
      "payable": false,
      "stateMutability": "view",
      "type": "function"
    },
    {
      "constant": false,
      "inputs": [
        {
          "name": "_from",
          "type": "address"
        },
        {
          "name": "_to",
          "type": "address"
        },
        {
          "name": "_value",
          "type": "uint256"
        }
      ],
      "name": "transferFrom",
      "outputs": [
        {
          "name": "success",
          "type": "bool"
        }
      ],
      "payable": false,
      "stateMutability": "nonpayable",
      "type": "function"
    },
    {
      "constant": true,
      "inputs": [],
      "name": "decimals",
      "outputs": [
        {
          "name": "",
          "type": "uint8"
        }
      ],
      "payable": false,
      "stateMutability": "view",
      "type": "function"
    },
    {
      "constant": true,
      "inputs": [
        {
          "name": "",
          "type": "address"
        }
      ],
      "name": "balanceOf",
      "outputs": [
        {
          "name": "",
          "type": "uint256"
        }
      ],
      "payable": false,
      "stateMutability": "view",
      "type": "function"
    },
    {
      "constant": true,
      "inputs": [],
      "name": "owner",
      "outputs": [
        {
          "name": "",
          "type": "address"
        }
      ],
      "payable": false,
      "stateMutability": "view",
      "type": "function"
    },
    {
      "constant": true,
      "inputs": [],
      "name": "symbol",
      "outputs": [
        {
          "name": "",
          "type": "string"
        }
      ],
      "payable": false,
      "stateMutability": "view",
      "type": "function"
    },
    {
      "constant": false,
      "inputs": [
        {
          "name": "_to",
          "type": "address"
        },
        {
          "name": "_value",
          "type": "uint256"
        }
      ],
      "name": "transfer",
      "outputs": [],
      "payable": false,
      "stateMutability": "nonpayable",
      "type": "function"
    },
    {
      "constant": false,
      "inputs": [
        {
          "name": "_spender",
          "type": "address"
        },
        {
          "name": "_value",
          "type": "uint256"
        },
        {
          "name": "_extraData",
          "type": "bytes"
        }
      ],
      "name": "approveAndCall",
      "outputs": [
        {
          "name": "success",
          "type": "bool"
        }
      ],
      "payable": false,
      "stateMutability": "nonpayable",
      "type": "function"
    },
    {
      "constant": true,
      "inputs": [
        {
          "name": "",
          "type": "address"
        },
        {
          "name": "",
          "type": "address"
        }
      ],
      "name": "allowance",
      "outputs": [
        {
          "name": "",
          "type": "uint256"
        }
      ],
      "payable": false,
      "stateMutability": "view",
      "type": "function"
    },
    {
      "constant": false,
      "inputs": [
        {
          "name": "newOwner",
          "type": "address"
        }
      ],
      "name": "transferOwnership",
      "outputs": [],
      "payable": false,
      "stateMutability": "nonpayable",
      "type": "function"
    },
    {
      "inputs": [],
      "payable": false,
      "stateMutability": "nonpayable",
      "type": "constructor"
    },
    {
      "anonymous": false,
      "inputs": [
        {
          "indexed": true,
          "name": "from",
          "type": "address"
        },
        {
          "indexed": true,
          "name": "to",
          "type": "address"
        },
        {
          "indexed": false,
          "name": "value",
          "type": "uint256"
        }
      ],
      "name": "Transfer",
      "type": "event"
    },
    {
      "constant": false,
      "inputs": [
        {
          "name": "target",
          "type": "address"
        },
        {
          "name": "mintedAmount",
          "type": "uint256"
        }
      ],
      "name": "mintToken",
      "outputs": [],
      "payable": false,
      "stateMutability": "nonpayable",
      "type": "function"
    }
  ],
  "bytecode": "0x60806040526012600360006101000a81548160ff021916908360ff1602179055506305f5e1006007556040805190810160405280600481526020017f44494349000000000000000000000000000000000000000000000000000000008152506008908051906020019062000075929190620002f2565b506040805190810160405280600481526020017f444943490000000000000000000000000000000000000000000000000000000081525060099080519060200190620000c3929190620002f2565b50348015620000d157600080fd5b5060075460088054600181600116156101000203166002900480601f0160208091040260200160405190810160405280929190818152602001828054600181600116156101000203166002900480156200016f5780601f1062000143576101008083540402835291602001916200016f565b820191906000526020600020905b8154815290600101906020018083116200015157829003601f168201915b505050505060098054600181600116156101000203166002900480601f0160208091040260200160405190810160405280929190818152602001828054600181600116156101000203166002900480156200020e5780601f10620001e2576101008083540402835291602001916200020e565b820191906000526020600020905b815481529060010190602001808311620001f057829003601f168201915b5050505050336000806101000a81548173ffffffffffffffffffffffffffffffffffffffff021916908373ffffffffffffffffffffffffffffffffffffffff160217905550600360009054906101000a900460ff1660ff16600a0a8302600481905550600454600560003373ffffffffffffffffffffffffffffffffffffffff1673ffffffffffffffffffffffffffffffffffffffff168152602001908152602001600020819055508160019080519060200190620002cf929190620002f2565b508060029080519060200190620002e8929190620002f2565b50505050620003a1565b828054600181600116156101000203166002900490600052602060002090601f016020900481019282601f106200033557805160ff191683800117855562000366565b8280016001018555821562000366579182015b828111156200036557825182559160200191906001019062000348565b5b50905062000375919062000379565b5090565b6200039e91905b808211156200039a57600081600090555060010162000380565b5090565b90565b610f2080620003b16000396000f3006080604052600436106100c5576000357c0100000000000000000000000000000000000000000000000000000000900463ffffffff16806306fdde03146100ca578063095ea7b31461015a57806318160ddd146101bf57806323b872dd146101ea578063313ce5671461026f57806370a08231146102a057806379c65068146102f75780638da5cb5b1461034457806395d89b411461039b578063a9059cbb1461042b578063cae9ca5114610478578063dd62ed3e14610523578063f2fde38b1461059a575b600080fd5b3480156100d657600080fd5b506100df6105dd565b6040518080602001828103825283818151815260200191508051906020019080838360005b8381101561011f578082015181840152602081019050610104565b50505050905090810190601f16801561014c5780820380516001836020036101000a031916815260200191505b509250505060405180910390f35b34801561016657600080fd5b506101a5600480360381019080803573ffffffffffffffffffffffffffffffffffffffff1690602001909291908035906020019092919050505061067b565b604051808215151515815260200191505060405180910390f35b3480156101cb57600080fd5b506101d4610708565b6040518082815260200191505060405180910390f35b3480156101f657600080fd5b50610255600480360381019080803573ffffffffffffffffffffffffffffffffffffffff169060200190929190803573ffffffffffffffffffffffffffffffffffffffff1690602001909291908035906020019092919050505061070e565b604051808215151515815260200191505060405180910390f35b34801561027b57600080fd5b5061028461083b565b604051808260ff1660ff16815260200191505060405180910390f35b3480156102ac57600080fd5b506102e1600480360381019080803573ffffffffffffffffffffffffffffffffffffffff16906020019092919050505061084e565b6040518082815260200191505060405180910390f35b34801561030357600080fd5b50610342600480360381019080803573ffffffffffffffffffffffffffffffffffffffff16906020019092919080359060200190929190505050610866565b005b34801561035057600080fd5b506103596109d7565b604051808273ffffffffffffffffffffffffffffffffffffffff1673ffffffffffffffffffffffffffffffffffffffff16815260200191505060405180910390f35b3480156103a757600080fd5b506103b06109fc565b6040518080602001828103825283818151815260200191508051906020019080838360005b838110156103f05780820151818401526020810190506103d5565b50505050905090810190601f16801561041d5780820380516001836020036101000a031916815260200191505b509250505060405180910390f35b34801561043757600080fd5b50610476600480360381019080803573ffffffffffffffffffffffffffffffffffffffff16906020019092919080359060200190929190505050610a9a565b005b34801561048457600080fd5b50610509600480360381019080803573ffffffffffffffffffffffffffffffffffffffff16906020019092919080359060200190929190803590602001908201803590602001908080601f0160208091040260200160405190810160405280939291908181526020018383808284378201915050505050509192919290505050610aa9565b604051808215151515815260200191505060405180910390f35b34801561052f57600080fd5b50610584600480360381019080803573ffffffffffffffffffffffffffffffffffffffff169060200190929190803573ffffffffffffffffffffffffffffffffffffffff169060200190929190505050610c2c565b6040518082815260200191505060405180910390f35b3480156105a657600080fd5b506105db600480360381019080803573ffffffffffffffffffffffffffffffffffffffff169060200190929190505050610c51565b005b60018054600181600116156101000203166002900480601f0160208091040260200160405190810160405280929190818152602001828054600181600116156101000203166002900480156106735780601f1061064857610100808354040283529160200191610673565b820191906000526020600020905b81548152906001019060200180831161065657829003601f168201915b505050505081565b600081600660003373ffffffffffffffffffffffffffffffffffffffff1673ffffffffffffffffffffffffffffffffffffffff16815260200190815260200160002060008573ffffffffffffffffffffffffffffffffffffffff1673ffffffffffffffffffffffffffffffffffffffff168152602001908152602001600020819055506001905092915050565b60045481565b6000600660008573ffffffffffffffffffffffffffffffffffffffff1673ffffffffffffffffffffffffffffffffffffffff16815260200190815260200160002060003373ffffffffffffffffffffffffffffffffffffffff1673ffffffffffffffffffffffffffffffffffffffff16815260200190815260200160002054821115151561079b57600080fd5b81600660008673ffffffffffffffffffffffffffffffffffffffff1673ffffffffffffffffffffffffffffffffffffffff16815260200190815260200160002060003373ffffffffffffffffffffffffffffffffffffffff1673ffffffffffffffffffffffffffffffffffffffff16815260200190815260200160002060008282540392505081905550610830848484610cef565b600190509392505050565b600360009054906101000a900460ff1681565b60056020528060005260406000206000915090505481565b6000809054906101000a900473ffffffffffffffffffffffffffffffffffffffff1673ffffffffffffffffffffffffffffffffffffffff163373ffffffffffffffffffffffffffffffffffffffff161415156108c157600080fd5b80600560008473ffffffffffffffffffffffffffffffffffffffff1673ffffffffffffffffffffffffffffffffffffffff16815260200190815260200160002060008282540192505081905550806004600082825401925050819055503073ffffffffffffffffffffffffffffffffffffffff1660007fddf252ad1be2c89b69c2b068fc378daa952ba7f163c4a11628f55a4df523b3ef836040518082815260200191505060405180910390a38173ffffffffffffffffffffffffffffffffffffffff163073ffffffffffffffffffffffffffffffffffffffff167fddf252ad1be2c89b69c2b068fc378daa952ba7f163c4a11628f55a4df523b3ef836040518082815260200191505060405180910390a35050565b6000809054906101000a900473ffffffffffffffffffffffffffffffffffffffff1681565b60028054600181600116156101000203166002900480601f016020809104026020016040519081016040528092919081815260200182805460018160011615610100020316600290048015610a925780601f10610a6757610100808354040283529160200191610a92565b820191906000526020600020905b815481529060010190602001808311610a7557829003601f168201915b505050505081565b610aa5338383610cef565b5050565b600080849050610ab9858561067b565b15610c23578073ffffffffffffffffffffffffffffffffffffffff16638f4ffcb1338630876040518563ffffffff167c0100000000000000000000000000000000000000000000000000000000028152600401808573ffffffffffffffffffffffffffffffffffffffff1673ffffffffffffffffffffffffffffffffffffffff1681526020018481526020018373ffffffffffffffffffffffffffffffffffffffff1673ffffffffffffffffffffffffffffffffffffffff16815260200180602001828103825283818151815260200191508051906020019080838360005b83811015610bb3578082015181840152602081019050610b98565b50505050905090810190601f168015610be05780820380516001836020036101000a031916815260200191505b5095505050505050600060405180830381600087803b158015610c0257600080fd5b505af1158015610c16573d6000803e3d6000fd5b5050505060019150610c24565b5b509392505050565b6006602052816000526040600020602052806000526040600020600091509150505481565b6000809054906101000a900473ffffffffffffffffffffffffffffffffffffffff1673ffffffffffffffffffffffffffffffffffffffff163373ffffffffffffffffffffffffffffffffffffffff16141515610cac57600080fd5b806000806101000a81548173ffffffffffffffffffffffffffffffffffffffff021916908373ffffffffffffffffffffffffffffffffffffffff16021790555050565b60008273ffffffffffffffffffffffffffffffffffffffff1614151515610d1557600080fd5b80600560008573ffffffffffffffffffffffffffffffffffffffff1673ffffffffffffffffffffffffffffffffffffffff16815260200190815260200160002054111515610d6257600080fd5b600560008373ffffffffffffffffffffffffffffffffffffffff1673ffffffffffffffffffffffffffffffffffffffff1681526020019081526020016000205481600560008573ffffffffffffffffffffffffffffffffffffffff1673ffffffffffffffffffffffffffffffffffffffff1681526020019081526020016000205401111515610df057600080fd5b80600560008573ffffffffffffffffffffffffffffffffffffffff1673ffffffffffffffffffffffffffffffffffffffff1681526020019081526020016000206000828254039250508190555080600560008473ffffffffffffffffffffffffffffffffffffffff1673ffffffffffffffffffffffffffffffffffffffff168152602001908152602001600020600082825401925050819055508173ffffffffffffffffffffffffffffffffffffffff168373ffffffffffffffffffffffffffffffffffffffff167fddf252ad1be2c89b69c2b068fc378daa952ba7f163c4a11628f55a4df523b3ef836040518082815260200191505060405180910390a35050505600a165627a7a723058207dc454f558e1fb8cbefddae16620ecc89e7146fe1dcae0d135d7678d115da25c0029",
  "source": "contract owned {\n    address public owner;\n\n    function owned() public {\n        owner = msg.sender;\n    }\n\n    modifier onlyOwner {\n        require(msg.sender == owner);\n        _;\n    }\n\n    function transferOwnership(address newOwner) onlyOwner public {\n        owner = newOwner;\n    }\n}\n\ninterface tokenRecipient \n{ \n    function receiveApproval(address _from, uint256 _value, address _token, bytes _extraData) public; \n}\n\ncontract TokenERC20 {\n    // Public variables of the token\n    string public name;\n    string public symbol;\n    uint8 public decimals = 18;\n    // 18 decimals is the strongly suggested default, avoid changing it\n    uint256 public totalSupply;\n\n    // This creates an array with all balances\n    mapping (address => uint256) public balanceOf;\n    mapping (address => mapping (address => uint256)) public allowance;\n\n    // This generates a public event on the blockchain that will notify clients\n    event Transfer(address indexed from, address indexed to, uint256 value);\n\n\n    /**\n     * Constrctor function\n     *\n     * Initializes contract with initial supply tokens to the creator of the contract\n     */\n    function TokenERC20(\n        uint256 initialSupply,\n        string tokenName,\n        string tokenSymbol\n    ) public {\n        totalSupply = initialSupply * 10 ** uint256(decimals);  // Update total supply with the decimal amount\n        balanceOf[msg.sender] = totalSupply;                // Give the creator all initial tokens\n        name = tokenName;                                   // Set the name for display purposes\n        symbol = tokenSymbol;                               // Set the symbol for display purposes\n    }\n\n    /**\n     * Internal transfer, only can be called by this contract\n     */\n    function _transfer(address _from, address _to, uint _value) internal {\n        // Prevent transfer to 0x0 address. Use burn() instead\n        require(_to != 0x0);\n        // Check if the sender has enough\n        require(balanceOf[_from] >= _value);\n        // Check for overflows\n        require(balanceOf[_to] + _value > balanceOf[_to]);\n        // Save this for an assertion in the future\n        uint previousBalances = balanceOf[_from] + balanceOf[_to];\n        // Subtract from the sender\n        balanceOf[_from] -= _value;\n        // Add the same to the recipient\n        balanceOf[_to] += _value;\n        Transfer(_from, _to, _value);\n        // Asserts are used to use static analysis to find bugs in your code. They should never fail\n        assert(balanceOf[_from] + balanceOf[_to] == previousBalances);\n    }\n\n    /**\n     * Transfer tokens\n     *\n     * Send `_value` tokens to `_to` from your account\n     *\n     * @param _to The address of the recipient\n     * @param _value the amount to send\n     */\n    function transfer(address _to, uint256 _value) public {\n        _transfer(msg.sender, _to, _value);\n    }\n\n    /**\n     * Transfer tokens from other address\n     *\n     * Send `_value` tokens to `_to` in behalf of `_from`\n     *\n     * @param _from The address of the sender\n     * @param _to The address of the recipient\n     * @param _value the amount to send\n     */\n    function transferFrom(address _from, address _to, uint256 _value) public returns (bool success) {\n        require(_value <= allowance[_from][msg.sender]);     // Check allowance\n        allowance[_from][msg.sender] -= _value;\n        _transfer(_from, _to, _value);\n        return true;\n    }\n\n    /**\n     * Set allowance for other address\n     *\n     * Allows `_spender` to spend no more than `_value` tokens in your behalf\n     *\n     * @param _spender The address authorized to spend\n     * @param _value the max amount they can spend\n     */\n    function approve(address _spender, uint256 _value) public\n        returns (bool success) {\n        allowance[msg.sender][_spender] = _value;\n        return true;\n    }\n\n    /**\n     * Set allowance for other address and notify\n     *\n     * Allows `_spender` to spend no more than `_value` tokens in your behalf, and then ping the contract about it\n     *\n     * @param _spender The address authorized to spend\n     * @param _value the max amount they can spend\n     * @param _extraData some extra information to send to the approved contract\n     */\n    function approveAndCall(address _spender, uint256 _value, bytes _extraData)\n        public\n        returns (bool success) {\n        tokenRecipient spender = tokenRecipient(_spender);\n        if (approve(_spender, _value)) {\n            spender.receiveApproval(msg.sender, _value, this, _extraData);\n            return true;\n        }\n    }\n}\n\ncontract RRToken is owned, TokenERC20 {\n\n    uint256 initialSupply = 100000000;\n    string tokenName = 'DICI';\n    string tokenSymbol = 'DICI';\n\n    /* Initializes contract with initial supply tokens to the creator of the contract */\n    function RRToken() TokenERC20(initialSupply, tokenName, tokenSymbol) public {}\n\n    /* Internal transfer, only can be called by this contract */\n    function _transfer(address _from, address _to, uint _value) internal {\n        require (_to != 0x0);                               // Prevent transfer to 0x0 address. Use burn() instead\n        require (balanceOf[_from] > _value);                // Check if the sender has enough\n        require (balanceOf[_to] + _value > balanceOf[_to]); // Check for overflows\n        balanceOf[_from] -= _value;                         // Subtract from the sender\n        balanceOf[_to] += _value;                           // Add the same to the recipient\n        Transfer(_from, _to, _value);\n    }\n\n    /// @notice Create `mintedAmount` tokens and send it to `target`\n    /// @param target Address to receive the tokens\n    /// @param mintedAmount the amount of tokens it will receive\n    function mintToken(address target, uint256 mintedAmount) onlyOwner public {\n        balanceOf[target] += mintedAmount;\n        totalSupply += mintedAmount;\n        Transfer(0, this, mintedAmount);\n        Transfer(this, target, mintedAmount);\n    }\n}\n",
  "sourcePath": "/workdir/truffle_example/0xB743534c417f0B27Ad4f2D8C31c31B71039A23B4/contracts/0xB743534c417f0B27Ad4f2D8C31c31B71039A23B4.sol",
  "compiler": {
    "name": "solc",
    "version": "0.4.25+commit.59dbf8f1.Emscripten.clang"
  },
  "schemaVersion": "3.4.8",
  "updatedAt": "2022-08-11T12:16:47.822Z",
  "networkType": "ethereum",
  "devdoc": {
    "methods": {
      "approve(address,uint256)": {
        "params": {
          "_spender": "The address authorized to spend",
          "_value": "the max amount they can spend"
        }
      },
      "approveAndCall(address,uint256,bytes)": {
        "params": {
          "_extraData": "some extra information to send to the approved contract",
          "_spender": "The address authorized to spend",
          "_value": "the max amount they can spend"
        }
      },
      "mintToken(address,uint256)": {
        "params": {
          "mintedAmount": "the amount of tokens it will receive",
          "target": "Address to receive the tokens"
        }
      },
      "transfer(address,uint256)": {
        "params": {
          "_to": "The address of the recipient",
          "_value": "the amount to send"
        }
      },
      "transferFrom(address,address,uint256)": {
        "params": {
          "_from": "The address of the sender",
          "_to": "The address of the recipient",
          "_value": "the amount to send"
        }
      }
    }
  },
  "userdoc": {
    "methods": {
      "approve(address,uint256)": {
        "notice": "Set allowance for other address     * Allows `_spender` to spend no more than `_value` tokens in your behalf"
      },
      "approveAndCall(address,uint256,bytes)": {
        "notice": "Set allowance for other address and notify     * Allows `_spender` to spend no more than `_value` tokens in your behalf, and then ping the contract about it"
      },
      "mintToken(address,uint256)": {
        "notice": "Create `mintedAmount` tokens and send it to `target`"
      },
      "transfer(address,uint256)": {
        "notice": "Transfer tokens     * Send `_value` tokens to `_to` from your account"
      },
      "transferFrom(address,address,uint256)": {
        "notice": "Transfer tokens from other address     * Send `_value` tokens to `_to` in behalf of `_from`"
      }
    }
  }
}