{
  "contractName": "BlocklancerToken",
  "abi": [
    {
      "constant": true,
      "inputs": [],
      "name": "name",
      "outputs": [
        {
          "name": "",
          "type": "string"
        }
      ],
      "payable": false,
      "stateMutability": "view",
      "type": "function"
    },
    {
      "constant": true,
      "inputs": [],
      "name": "decimals",
      "outputs": [
        {
          "name": "",
          "type": "uint8"
        }
      ],
      "payable": false,
      "stateMutability": "view",
      "type": "function"
    },
    {
      "constant": true,
      "inputs": [],
      "name": "migrationAgent",
      "outputs": [
        {
          "name": "",
          "type": "address"
        }
      ],
      "payable": false,
      "stateMutability": "view",
      "type": "function"
    },
    {
      "constant": true,
      "inputs": [],
      "name": "totalMigrated",
      "outputs": [
        {
          "name": "",
          "type": "uint256"
        }
      ],
      "payable": false,
      "stateMutability": "view",
      "type": "function"
    },
    {
      "constant": true,
      "inputs": [],
      "name": "symbol",
      "outputs": [
        {
          "name": "",
          "type": "string"
        }
      ],
      "payable": false,
      "stateMutability": "view",
      "type": "function"
    },
    {
      "constant": true,
      "inputs": [],
      "name": "fundingStart",
      "outputs": [
        {
          "name": "",
          "type": "uint256"
        }
      ],
      "payable": false,
      "stateMutability": "view",
      "type": "function"
    },
    {
      "constant": true,
      "inputs": [],
      "name": "funding",
      "outputs": [
        {
          "name": "",
          "type": "bool"
        }
      ],
      "payable": false,
      "stateMutability": "view",
      "type": "function"
    },
    {
      "constant": true,
      "inputs": [],
      "name": "master",
      "outputs": [
        {
          "name": "",
          "type": "address"
        }
      ],
      "payable": false,
      "stateMutability": "view",
      "type": "function"
    },
    {
      "inputs": [],
      "payable": false,
      "stateMutability": "nonpayable",
      "type": "constructor"
    },
    {
      "payable": true,
      "stateMutability": "payable",
      "type": "fallback"
    },
    {
      "anonymous": false,
      "inputs": [
        {
          "indexed": true,
          "name": "_from",
          "type": "address"
        },
        {
          "indexed": true,
          "name": "_to",
          "type": "address"
        },
        {
          "indexed": false,
          "name": "_value",
          "type": "uint256"
        }
      ],
      "name": "Migrate",
      "type": "event"
    },
    {
      "anonymous": false,
      "inputs": [
        {
          "indexed": true,
          "name": "_from",
          "type": "address"
        },
        {
          "indexed": false,
          "name": "_value",
          "type": "uint256"
        }
      ],
      "name": "Refund",
      "type": "event"
    },
    {
      "anonymous": false,
      "inputs": [
        {
          "indexed": true,
          "name": "_from",
          "type": "address"
        },
        {
          "indexed": true,
          "name": "_to",
          "type": "address"
        },
        {
          "indexed": false,
          "name": "_value",
          "type": "uint256"
        }
      ],
      "name": "Transfer",
      "type": "event"
    },
    {
      "anonymous": false,
      "inputs": [
        {
          "indexed": true,
          "name": "_owner",
          "type": "address"
        },
        {
          "indexed": true,
          "name": "_spender",
          "type": "address"
        },
        {
          "indexed": false,
          "name": "_value",
          "type": "uint256"
        }
      ],
      "name": "Approval",
      "type": "event"
    },
    {
      "constant": true,
      "inputs": [],
      "name": "getAmountofTotalParticipants",
      "outputs": [
        {
          "name": "",
          "type": "uint256"
        }
      ],
      "payable": false,
      "stateMutability": "view",
      "type": "function"
    },
    {
      "constant": false,
      "inputs": [
        {
          "name": "_to",
          "type": "address"
        },
        {
          "name": "_value",
          "type": "uint256"
        }
      ],
      "name": "transfer",
      "outputs": [
        {
          "name": "success",
          "type": "bool"
        }
      ],
      "payable": false,
      "stateMutability": "nonpayable",
      "type": "function"
    },
    {
      "constant": true,
      "inputs": [],
      "name": "totalSupply",
      "outputs": [
        {
          "name": "totalSupply",
          "type": "uint256"
        }
      ],
      "payable": false,
      "stateMutability": "view",
      "type": "function"
    },
    {
      "constant": true,
      "inputs": [
        {
          "name": "_owner",
          "type": "address"
        }
      ],
      "name": "balanceOf",
      "outputs": [
        {
          "name": "balance",
          "type": "uint256"
        }
      ],
      "payable": false,
      "stateMutability": "view",
      "type": "function"
    },
    {
      "constant": true,
      "inputs": [
        {
          "name": "_owner",
          "type": "address"
        }
      ],
      "name": "EtherBalanceOf",
      "outputs": [
        {
          "name": "",
          "type": "uint256"
        }
      ],
      "payable": false,
      "stateMutability": "view",
      "type": "function"
    },
    {
      "constant": true,
      "inputs": [
        {
          "name": "_owner",
          "type": "address"
        }
      ],
      "name": "isInitialInvestor",
      "outputs": [
        {
          "name": "",
          "type": "bool"
        }
      ],
      "payable": false,
      "stateMutability": "view",
      "type": "function"
    },
    {
      "constant": true,
      "inputs": [],
      "name": "TimeLeftBeforeCrowdsale",
      "outputs": [
        {
          "name": "",
          "type": "uint256"
        }
      ],
      "payable": false,
      "stateMutability": "view",
      "type": "function"
    },
    {
      "constant": false,
      "inputs": [
        {
          "name": "_value",
          "type": "uint256"
        }
      ],
      "name": "migrate",
      "outputs": [],
      "payable": false,
      "stateMutability": "nonpayable",
      "type": "function"
    },
    {
      "constant": false,
      "inputs": [
        {
          "name": "_agent",
          "type": "address"
        }
      ],
      "name": "setMigrationAgent",
      "outputs": [],
      "payable": false,
      "stateMutability": "nonpayable",
      "type": "function"
    },
    {
      "constant": false,
      "inputs": [
        {
          "name": "_exchangeRate",
          "type": "uint256"
        }
      ],
      "name": "setExchangeRate",
      "outputs": [],
      "payable": false,
      "stateMutability": "nonpayable",
      "type": "function"
    },
    {
      "constant": false,
      "inputs": [
        {
          "name": "r",
          "type": "bool"
        }
      ],
      "name": "setICORunning",
      "outputs": [],
      "payable": false,
      "stateMutability": "nonpayable",
      "type": "function"
    },
    {
      "constant": false,
      "inputs": [
        {
          "name": "r",
          "type": "bool"
        }
      ],
      "name": "setTransfer",
      "outputs": [],
      "payable": false,
      "stateMutability": "nonpayable",
      "type": "function"
    },
    {
      "constant": false,
      "inputs": [
        {
          "name": "invest",
          "type": "address"
        }
      ],
      "name": "addInitialInvestor",
      "outputs": [],
      "payable": false,
      "stateMutability": "nonpayable",
      "type": "function"
    },
    {
      "constant": false,
      "inputs": [
        {
          "name": "invest",
          "type": "address"
        },
        {
          "name": "value",
          "type": "uint256"
        }
      ],
      "name": "addToken",
      "outputs": [],
      "payable": false,
      "stateMutability": "nonpayable",
      "type": "function"
    },
    {
      "constant": false,
      "inputs": [
        {
          "name": "invest",
          "type": "uint256"
        }
      ],
      "name": "setEarlyInvestorExchangeRate",
      "outputs": [],
      "payable": false,
      "stateMutability": "nonpayable",
      "type": "function"
    },
    {
      "constant": false,
      "inputs": [
        {
          "name": "time",
          "type": "uint256"
        }
      ],
      "name": "setStartDate",
      "outputs": [],
      "payable": false,
      "stateMutability": "nonpayable",
      "type": "function"
    },
    {
      "constant": false,
      "inputs": [
        {
          "name": "s",
          "type": "bool"
        }
      ],
      "name": "setStartRefund",
      "outputs": [],
      "payable": false,
      "stateMutability": "nonpayable",
      "type": "function"
    },
    {
      "constant": true,
      "inputs": [
        {
          "name": "investorAddress",
          "type": "address"
        }
      ],
      "name": "getExchangeRate",
      "outputs": [
        {
          "name": "",
          "type": "uint256"
        }
      ],
      "payable": false,
      "stateMutability": "view",
      "type": "function"
    },
    {
      "constant": true,
      "inputs": [],
      "name": "ICOopen",
      "outputs": [
        {
          "name": "",
          "type": "bool"
        }
      ],
      "payable": false,
      "stateMutability": "view",
      "type": "function"
    },
    {
      "constant": false,
      "inputs": [
        {
          "name": "percentOfTotal",
          "type": "uint256"
        }
      ],
      "name": "finalize",
      "outputs": [],
      "payable": false,
      "stateMutability": "nonpayable",
      "type": "function"
    },
    {
      "constant": false,
      "inputs": [],
      "name": "refund",
      "outputs": [],
      "payable": false,
      "stateMutability": "nonpayable",
      "type": "function"
    },
    {
      "constant": false,
      "inputs": [
        {
          "name": "_from",
          "type": "address"
        },
        {
          "name": "_to",
          "type": "address"
        },
        {
          "name": "_amount",
          "type": "uint256"
        }
      ],
      "name": "transferFrom",
      "outputs": [
        {
          "name": "success",
          "type": "bool"
        }
      ],
      "payable": false,
      "stateMutability": "nonpayable",
      "type": "function"
    },
    {
      "constant": false,
      "inputs": [
        {
          "name": "_spender",
          "type": "address"
        },
        {
          "name": "_amount",
          "type": "uint256"
        }
      ],
      "name": "approve",
      "outputs": [
        {
          "name": "success",
          "type": "bool"
        }
      ],
      "payable": false,
      "stateMutability": "nonpayable",
      "type": "function"
    },
    {
      "constant": true,
      "inputs": [
        {
          "name": "_owner",
          "type": "address"
        },
        {
          "name": "_spender",
          "type": "address"
        }
      ],
      "name": "allowance",
      "outputs": [
        {
          "name": "remaining",
          "type": "uint256"
        }
      ],
      "payable": false,
      "stateMutability": "view",
      "type": "function"
    }
  ],
  "bytecode": "0x60806040526001600260006101000a81548160ff0219169083151502179055506000600260016101000a81548160ff021916908315150217905550614e206004556161a86005556000600660006101000a81548160ff02191690831515021790555034801561006d57600080fd5b50336002806101000a81548173ffffffffffffffffffffffffffffffffffffffff021916908373ffffffffffffffffffffffffffffffffffffffff1602179055506359865c006001819055506001600860007332be343b94f860124dc4fee278fdcbd38c102d8873ffffffffffffffffffffffffffffffffffffffff16815260200190815260200160002060006101000a81548160ff021916908315150217905550600160086000733106fe2245b376888d684bdcd83dfa9641a869ff73ffffffffffffffffffffffffffffffffffffffff16815260200190815260200160002060006101000a81548160ff021916908315150217905550600160086000737f7c64c7b7f5a611e739b4da26659bf74141491773ffffffffffffffffffffffffffffffffffffffff16815260200190815260200160002060006101000a81548160ff021916908315150217905550600160086000734b3b8e0c2c221e916a48e2e5f3718ae2bce5189473ffffffffffffffffffffffffffffffffffffffff16815260200190815260200160002060006101000a81548160ff02191690831515021790555060016008600073507c8fea802a0772eb5e001a8fba38f36fb9b66b73ffffffffffffffffffffffffffffffffffffffff16815260200190815260200160002060006101000a81548160ff021916908315150217905550600160086000733c35b66dbaf1bc716f41759c7513a7af2f727ce073ffffffffffffffffffffffffffffffffffffffff16815260200190815260200160002060006101000a81548160ff021916908315150217905550600160086000737da3ff5dc152352dcffaf08d528e78f1efd4e9d173ffffffffffffffffffffffffffffffffffffffff16815260200190815260200160002060006101000a81548160ff02191690831515021790555060016008600073404b688a1d9eb850be2527c5dd341561cfa84e1173ffffffffffffffffffffffffffffffffffffffff16815260200190815260200160002060006101000a81548160ff0219169083151502179055506001600860007380ad7165f29f97896a0b5758193879de34fd971273ffffffffffffffffffffffffffffffffffffffff16815260200190815260200160002060006101000a81548160ff02191690831515021790555060016008600073d70837a61a322f69ba3742111216a7b97d61d3a773ffffffffffffffffffffffffffffffffffffffff16815260200190815260200160002060006101000a81548160ff021916908315150217905550600160086000735eefc4f295045ea11827f515c10d50829580cd3173ffffffffffffffffffffffffffffffffffffffff16815260200190815260200160002060006101000a81548160ff02191690831515021790555060016008600073c8c154d54e8d66073b23361cc74cf5d13efc4dc973ffffffffffffffffffffffffffffffffffffffff16815260200190815260200160002060006101000a81548160ff02191690831515021790555060016008600072b279438dff4bb6f37038b12704e31967955cb073ffffffffffffffffffffffffffffffffffffffff16815260200190815260200160002060006101000a81548160ff02191690831515021790555060016008600073fff78f0db7995c7f2299d127d332aef95bc3e7b773ffffffffffffffffffffffffffffffffffffffff16815260200190815260200160002060006101000a81548160ff02191690831515021790555060016008600073ae631a37ad50bf03e8028d0ae8ba041c70ac4c7073ffffffffffffffffffffffffffffffffffffffff16815260200190815260200160002060006101000a81548160ff021916908315150217905550600160086000734effca51ba840ae9563f5ac1aa794d1e5d3a380673ffffffffffffffffffffffffffffffffffffffff16815260200190815260200160002060006101000a81548160ff02191690831515021790555060016008600073315a233620b8536d37a92d588aaf5eb050b50d8473ffffffffffffffffffffffffffffffffffffffff16815260200190815260200160002060006101000a81548160ff021916908315150217905550600160086000731ebf9e3470f303f6a6ac43347e41877b0a5aaa3973ffffffffffffffffffffffffffffffffffffffff16815260200190815260200160002060006101000a81548160ff02191690831515021790555060016008600073bf022480bda3f6c839cd443397761d5e83f3c02b73ffffffffffffffffffffffffffffffffffffffff16815260200190815260200160002060006101000a81548160ff02191690831515021790555060016008600073e727ea5340256a5236287ee3074eea34d848345773ffffffffffffffffffffffffffffffffffffffff16815260200190815260200160002060006101000a81548160ff0219169083151502179055506001600860007345ecfeea42fc525c0b29313d3de9089488ef71dc73ffffffffffffffffffffffffffffffffffffffff16815260200190815260200160002060006101000a81548160ff02191690831515021790555060016008600073e59e4aac45862796cb52434967cf72ea46474ff373ffffffffffffffffffffffffffffffffffffffff16815260200190815260200160002060006101000a81548160ff021916908315150217905550600160086000737c367c14a322404f9e332b68d7d661b46a5c93ea73ffffffffffffffffffffffffffffffffffffffff16815260200190815260200160002060006101000a81548160ff0219169083151502179055506001600860007308bea4ccc9c45e506d5bc5e638acaa13fa3e801c73ffffffffffffffffffffffffffffffffffffffff16815260200190815260200160002060006101000a81548160ff021916908315150217905550600160086000735dfb4a015eb0c3477a99ba88b2ac60459c87967473ffffffffffffffffffffffffffffffffffffffff16815260200190815260200160002060006101000a81548160ff02191690831515021790555060016008600073771a2137708ca7e07e7b7c55e5ea666e88d7c0c873ffffffffffffffffffffffffffffffffffffffff16815260200190815260200160002060006101000a81548160ff02191690831515021790555060016008600073cc8ab06eb5a14855fc8b90abcb6be2f34ee5cea173ffffffffffffffffffffffffffffffffffffffff16815260200190815260200160002060006101000a81548160ff021916908315150217905550600160086000730764d446d0701a9b52382f8984b9d270d266e02c73ffffffffffffffffffffffffffffffffffffffff16815260200190815260200160002060006101000a81548160ff021916908315150217905550600160086000732d90b415a38e2e19cdd02ff3ad81a97af7cbf67273ffffffffffffffffffffffffffffffffffffffff16815260200190815260200160002060006101000a81548160ff021916908315150217905550600160086000730d4266de516944a49c8109a4397d1fcf06fb7ed073ffffffffffffffffffffffffffffffffffffffff16815260200190815260200160002060006101000a81548160ff021916908315150217905550600160086000737a5159617df20008b4dbe06d645a1b030540679473ffffffffffffffffffffffffffffffffffffffff16815260200190815260200160002060006101000a81548160ff02191690831515021790555060016008600073af9e23965c09ebf5d313c669020b0e1757cbb92c73ffffffffffffffffffffffffffffffffffffffff16815260200190815260200160002060006101000a81548160ff0219169083151502179055506001600860007333d94224754c122baa1ebaf455d16a9c82f69c9873ffffffffffffffffffffffffffffffffffffffff16815260200190815260200160002060006101000a81548160ff02191690831515021790555060016008600073267be1c1d684f78cb4f6a176c4911b741e4ffdc073ffffffffffffffffffffffffffffffffffffffff16815260200190815260200160002060006101000a81548160ff02191690831515021790555060016008600073f6ac7c81ca099e34421b7eff7c9e80c8f56b74ae73ffffffffffffffffffffffffffffffffffffffff16815260200190815260200160002060006101000a81548160ff02191690831515021790555060016008600073d85faf59e73225ef386b46a1b17c493019b23e1e73ffffffffffffffffffffffffffffffffffffffff16815260200190815260200160002060006101000a81548160ff021916908315150217905550600160086000733833f8dbdbd6bdcb6a883ff209b869148965b36473ffffffffffffffffffffffffffffffffffffffff16815260200190815260200160002060006101000a81548160ff021916908315150217905550600160086000737ed1e469fcb3ee19c0366d829e291451be638e5973ffffffffffffffffffffffffffffffffffffffff16815260200190815260200160002060006101000a81548160ff021916908315150217905550600160086000736c1ddafafd55a53f80cb7f4c8c8f9a9f13f61d7073ffffffffffffffffffffffffffffffffffffffff16815260200190815260200160002060006101000a81548160ff0219169083151502179055506001600860007394ef531595ffe510f8dc92e0e07a987f5778433873ffffffffffffffffffffffffffffffffffffffff16815260200190815260200160002060006101000a81548160ff02191690831515021790555060016008600073cc54e4e2f425cc4e207344f9e0619c1e40f42f2673ffffffffffffffffffffffffffffffffffffffff16815260200190815260200160002060006101000a81548160ff0219169083151502179055506001600860007370ee7bfc1aeac50349c29475a11ed4c57961b38773ffffffffffffffffffffffffffffffffffffffff16815260200190815260200160002060006101000a81548160ff0219169083151502179055506001600860007389be0bd8b6007101c7da7170a6461580994221d073ffffffffffffffffffffffffffffffffffffffff16815260200190815260200160002060006101000a81548160ff02191690831515021790555060016008600073a7802ba51ba87556263d84cfc235759b214ccf3573ffffffffffffffffffffffffffffffffffffffff16815260200190815260200160002060006101000a81548160ff02191690831515021790555060016008600073b6a34bd460f02241e80e031023ec20ce6fc310ae73ffffffffffffffffffffffffffffffffffffffff16815260200190815260200160002060006101000a81548160ff0219169083151502179055506001600860007307004b458b56fb152c06ad81fe1be30c8a8b2ea173ffffffffffffffffffffffffffffffffffffffff16815260200190815260200160002060006101000a81548160ff02191690831515021790555060016008600073b6da110659ef762a381cf2d6f601eb19b5f5d51e73ffffffffffffffffffffffffffffffffffffffff16815260200190815260200160002060006101000a81548160ff0219169083151502179055506001600860007320abf65634219512c6c98a64614c43220ca2085b73ffffffffffffffffffffffffffffffffffffffff16815260200190815260200160002060006101000a81548160ff021916908315150217905550600160086000733afd1483693fe606c0e58f580bd08ae9aba092fd73ffffffffffffffffffffffffffffffffffffffff16815260200190815260200160002060006101000a81548160ff0219169083151502179055506001600860007361e120b9ca6559961982d9bd1b1dbea7485b84d173ffffffffffffffffffffffffffffffffffffffff16815260200190815260200160002060006101000a81548160ff02191690831515021790555060016008600073481525718f1536ca2d739aa7e68b94b5e1d5d2c273ffffffffffffffffffffffffffffffffffffffff16815260200190815260200160002060006101000a81548160ff021916908315150217905550600160086000738e129a434cde6f52838fad2d30d8b08f744abf4873ffffffffffffffffffffffffffffffffffffffff16815260200190815260200160002060006101000a81548160ff0219169083151502179055506001600860007313df035952316f5fb663c262064ee39e44aa6b4373ffffffffffffffffffffffffffffffffffffffff16815260200190815260200160002060006101000a81548160ff0219169083151502179055506001600860007303c6c82a1d6d13b2f92ed63a10b1b791ffaa1e0273ffffffffffffffffffffffffffffffffffffffff16815260200190815260200160002060006101000a81548160ff02191690831515021790555060016008600073b079a72c627d0a34b880aee0504b901cbce6456873ffffffffffffffffffffffffffffffffffffffff16815260200190815260200160002060006101000a81548160ff02191690831515021790555060016008600073bf27721ca05c983c902df12492620ab2a8b9db9173ffffffffffffffffffffffffffffffffffffffff16815260200190815260200160002060006101000a81548160ff021916908315150217905550600160086000734ced2b7d27ac74b0ecb2440d9857ba6c6407149f73ffffffffffffffffffffffffffffffffffffffff16815260200190815260200160002060006101000a81548160ff02191690831515021790555060016008600073330c63a5b737b5542be108a74b3fef627261958573ffffffffffffffffffffffffffffffffffffffff16815260200190815260200160002060006101000a81548160ff02191690831515021790555060016008600073266dccd07a275a6e72b6bc549f7c2ce9e082f13f73ffffffffffffffffffffffffffffffffffffffff16815260200190815260200160002060006101000a81548160ff02191690831515021790555060016008600073f4280bf77a043568e40da2b8068b11243082c94473ffffffffffffffffffffffffffffffffffffffff16815260200190815260200160002060006101000a81548160ff0219169083151502179055506001600860007367d2f0e2d642a87300781df25c45b00bccaf698373ffffffffffffffffffffffffffffffffffffffff16815260200190815260200160002060006101000a81548160ff021916908315150217905550600160086000739f658a6628864e94f9a1c53ba519f0ae37a8b4a573ffffffffffffffffffffffffffffffffffffffff16815260200190815260200160002060006101000a81548160ff02191690831515021790555060016008600073498d256ee53d4d05269cfa1a80c3214e525076ca73ffffffffffffffffffffffffffffffffffffffff16815260200190815260200160002060006101000a81548160ff02191690831515021790555060016008600073a1beac79dda14bce1ee698fdee47e2f7f2fd1f0d73ffffffffffffffffffffffffffffffffffffffff16815260200190815260200160002060006101000a81548160ff02191690831515021790555060016008600073feb063bd508b82043d6b4d5c51e1e42b44f39b3373ffffffffffffffffffffffffffffffffffffffff16815260200190815260200160002060006101000a81548160ff02191690831515021790555060016008600073feb7a283e1dbf2d5d8e9ba64ab5e607a4121356173ffffffffffffffffffffffffffffffffffffffff16815260200190815260200160002060006101000a81548160ff02191690831515021790555060016008600073abedb3d632fddccd4e95957be4ee0daffbe6acdd73ffffffffffffffffffffffffffffffffffffffff16815260200190815260200160002060006101000a81548160ff021916908315150217905550600160086000734d8a7cb44d317113c82f25a0174a637a8f012ebb73ffffffffffffffffffffffffffffffffffffffff16815260200190815260200160002060006101000a81548160ff02191690831515021790555060016008600073e922c94161d45bdd31433b3c7b912ad214d399ce73ffffffffffffffffffffffffffffffffffffffff16815260200190815260200160002060006101000a81548160ff0219169083151502179055506001600860007311f9ad6eb7e9e98349b8397c836c0e3e88455b0a73ffffffffffffffffffffffffffffffffffffffff16815260200190815260200160002060006101000a81548160ff02191690831515021790555060016008600073fc28b52160639167fa59f30232bd8d43fab681e673ffffffffffffffffffffffffffffffffffffffff16815260200190815260200160002060006101000a81548160ff02191690831515021790555060016008600073af8a6c54fc8fa59cfcbc631e56b3d5b22fa42b7573ffffffffffffffffffffffffffffffffffffffff16815260200190815260200160002060006101000a81548160ff02191690831515021790555060016008600073d3c0ebb99a5616f3647f16c2efb40b133b5b1e1c73ffffffffffffffffffffffffffffffffffffffff16815260200190815260200160002060006101000a81548160ff02191690831515021790555060016008600073877341abeac8f44ac69ba7c99b1d5d31ce7a11d773ffffffffffffffffffffffffffffffffffffffff16815260200190815260200160002060006101000a81548160ff02191690831515021790555060016008600073b22f376f70f34c906a88a91f6999a0bd1a0f3c3d73ffffffffffffffffffffffffffffffffffffffff16815260200190815260200160002060006101000a81548160ff021916908315150217905550600160086000732c99db3838d6af157c8d671291d560a013c6c01e73ffffffffffffffffffffffffffffffffffffffff16815260200190815260200160002060006101000a81548160ff02191690831515021790555060016008600073d0f38af6984f3f847f7f2fcd6ea27aa87825705973ffffffffffffffffffffffffffffffffffffffff16815260200190815260200160002060006101000a81548160ff021916908315150217905550600160086000732a5da89176d5316782d7f1c9db74d209679ad9ce73ffffffffffffffffffffffffffffffffffffffff16815260200190815260200160002060006101000a81548160ff02191690831515021790555060016008600073c88eea647a570738e69ad3dd8975577df720318d73ffffffffffffffffffffffffffffffffffffffff16815260200190815260200160002060006101000a81548160ff02191690831515021790555060016008600073b32b18dfea9072047a368ec056a464b73618345a73ffffffffffffffffffffffffffffffffffffffff16815260200190815260200160002060006101000a81548160ff02191690831515021790555060016008600073945b9a00bffb201a5602ee661f2a4cc6e5285ca673ffffffffffffffffffffffffffffffffffffffff16815260200190815260200160002060006101000a81548160ff0219169083151502179055506001600860007386957ac9a15f114c08296523569511c22e47126673ffffffffffffffffffffffffffffffffffffffff16815260200190815260200160002060006101000a81548160ff021916908315150217905550600160086000727bfe6994536ec9e89505c7de8e9eb748d3cb2773ffffffffffffffffffffffffffffffffffffffff16815260200190815260200160002060006101000a81548160ff021916908315150217905550600160086000736ad0f0f578115b6fafa73df45e9f1e9056b8445973ffffffffffffffffffffffffffffffffffffffff16815260200190815260200160002060006101000a81548160ff02191690831515021790555060016008600073621663b4b6580b70b74afaf989c707d533bbec9173ffffffffffffffffffffffffffffffffffffffff16815260200190815260200160002060006101000a81548160ff02191690831515021790555060016008600073dc86c0632e88de345fc2ac01608c63f2ed99605a73ffffffffffffffffffffffffffffffffffffffff16815260200190815260200160002060006101000a81548160ff021916908315150217905550600160086000733d83bb077b2557ef5f361bf1a9e68d093d919b2873ffffffffffffffffffffffffffffffffffffffff16815260200190815260200160002060006101000a81548160ff0219169083151502179055506001600860007356307b37377f75f397d4936cf507baf0f4943ea573ffffffffffffffffffffffffffffffffffffffff16815260200190815260200160002060006101000a81548160ff02191690831515021790555060016008600073555cbe849bf5e01db195a81ecec1e65329fff64373ffffffffffffffffffffffffffffffffffffffff16815260200190815260200160002060006101000a81548160ff021916908315150217905550600160086000737398a2edb928a2e179f62bfb795f292254f6850e73ffffffffffffffffffffffffffffffffffffffff16815260200190815260200160002060006101000a81548160ff0219169083151502179055506001600860007330382b132f30c175bee2858353f3a2dd0d074c3a73ffffffffffffffffffffffffffffffffffffffff16815260200190815260200160002060006101000a81548160ff021916908315150217905550600160086000735baeac0a0417a05733884852aa068b706967e79073ffffffffffffffffffffffffffffffffffffffff16815260200190815260200160002060006101000a81548160ff02191690831515021790555060016008600073cb12b8a675e652296a8134e70f128521e633b32773ffffffffffffffffffffffffffffffffffffffff16815260200190815260200160002060006101000a81548160ff02191690831515021790555060016008600073aa8c03e04b121511858d88be7a1b2f5a2d70f6ac73ffffffffffffffffffffffffffffffffffffffff16815260200190815260200160002060006101000a81548160ff0219169083151502179055506001600860007377529c0ea5381262db964da3d5f6e2cc92e9b48b73ffffffffffffffffffffffffffffffffffffffff16815260200190815260200160002060006101000a81548160ff0219169083151502179055506001600860007359e5fe8a9637702c6d597c5f1c4ebe3fba74737173ffffffffffffffffffffffffffffffffffffffff16815260200190815260200160002060006101000a81548160ff02191690831515021790555060016008600073296fe436ecc0ea6b7a195ded26451e77e133510873ffffffffffffffffffffffffffffffffffffffff16815260200190815260200160002060006101000a81548160ff0219169083151502179055506001600860007341bacae05437a3fe126933e57002ae3f129aa07973ffffffffffffffffffffffffffffffffffffffff16815260200190815260200160002060006101000a81548160ff021916908315150217905550600160086000736cd5b9b60d2bcf81af8e6ef5d750dc9a8f18bf4573ffffffffffffffffffffffffffffffffffffffff16815260200190815260200160002060006101000a81548160ff0219169083151502179055506120b9806122086000396000f300608060405260043610610196576000357c0100000000000000000000000000000000000000000000000000000000900463ffffffff16806301afebac146102eb57806305261aea1461031a57806306fdde0314610347578063095ea7b3146103d75780630a7995571461043c57806314c0bc271461046b57806318160ddd146104c257806323b872dd146104ed57806330e6d8d314610572578063313ce567146105b5578063454b0608146105e657806354cf666814610613578063590e1ae31461064057806370a082311461065757806375e2ff65146106ae57806382d95df5146106f15780638328dbcd1461071e5780638aef91f51461077557806395a0f5eb146107a057806395d89b41146107cb578063a296b3231461085b578063a9059cbb1461088a578063af81c5b9146108ef578063bcde18f11461093c578063c1e99a0e14610967578063cb4c86b7146109c2578063cc234ee1146109f1578063db068e0e14610a20578063dc132be814610a4d578063dd62ed3e14610a78578063ee97f7f314610aef578063efb7601d14610b46575b6000600260009054906101000a900460ff1615156101b357600080fd5b6001544210156101c257600080fd5b60003414156101d057600080fd5b6101d933610b9d565b340290508060036000828254019250508190555080600760003373ffffffffffffffffffffffffffffffffffffffff1673ffffffffffffffffffffffffffffffffffffffff1681526020019081526020016000206000828254019250508190555034600a60003373ffffffffffffffffffffffffffffffffffffffff1673ffffffffffffffffffffffffffffffffffffffff168152602001908152602001600020600082825401925050819055506001600d600082825401925050819055503373ffffffffffffffffffffffffffffffffffffffff1660007fddf252ad1be2c89b69c2b068fc378daa952ba7f163c4a11628f55a4df523b3ef836040518082815260200191505060405180910390a350005b3480156102f757600080fd5b50610300610c06565b604051808215151515815260200191505060405180910390f35b34801561032657600080fd5b5061034560048036038101908080359060200190929190505050610c42565b005b34801561035357600080fd5b5061035c610e54565b6040518080602001828103825283818151815260200191508051906020019080838360005b8381101561039c578082015181840152602081019050610381565b50505050905090810190601f1680156103c95780820380516001836020036101000a031916815260200191505b509250505060405180910390f35b3480156103e357600080fd5b50610422600480360381019080803573ffffffffffffffffffffffffffffffffffffffff16906020019092919080359060200190929190505050610e8d565b604051808215151515815260200191505060405180910390f35b34801561044857600080fd5b50610469600480360381019080803515159060200190929190505050610fb3565b005b34801561047757600080fd5b506104ac600480360381019080803573ffffffffffffffffffffffffffffffffffffffff16906020019092919050505061102b565b6040518082815260200191505060405180910390f35b3480156104ce57600080fd5b506104d7611074565b6040518082815260200191505060405180910390f35b3480156104f957600080fd5b50610558600480360381019080803573ffffffffffffffffffffffffffffffffffffffff169060200190929190803573ffffffffffffffffffffffffffffffffffffffff1690602001909291908035906020019092919050505061107e565b604051808215151515815260200191505060405180910390f35b34801561057e57600080fd5b506105b3600480360381019080803573ffffffffffffffffffffffffffffffffffffffff1690602001909291905050506113b8565b005b3480156105c157600080fd5b506105ca61146e565b604051808260ff1660ff16815260200191505060405180910390f35b3480156105f257600080fd5b5061061160048036038101908080359060200190929190505050611473565b005b34801561061f57600080fd5b5061063e60048036038101908080359060200190929190505050611701565b005b34801561064c57600080fd5b50610655611766565b005b34801561066357600080fd5b50610698600480360381019080803573ffffffffffffffffffffffffffffffffffffffff169060200190929190505050611942565b6040518082815260200191505060405180910390f35b3480156106ba57600080fd5b506106ef600480360381019080803573ffffffffffffffffffffffffffffffffffffffff16906020019092919050505061198b565b005b3480156106fd57600080fd5b5061071c60048036038101908080359060200190929190505050611a8b565b005b34801561072a57600080fd5b50610733611af0565b604051808273ffffffffffffffffffffffffffffffffffffffff1673ffffffffffffffffffffffffffffffffffffffff16815260200191505060405180910390f35b34801561078157600080fd5b5061078a611b16565b6040518082815260200191505060405180910390f35b3480156107ac57600080fd5b506107b5611b36565b6040518082815260200191505060405180910390f35b3480156107d757600080fd5b506107e0611b3c565b6040518080602001828103825283818151815260200191508051906020019080838360005b83811015610820578082015181840152602081019050610805565b50505050905090810190601f16801561084d5780820380516001836020036101000a031916815260200191505b509250505060405180910390f35b34801561086757600080fd5b50610888600480360381019080803515159060200190929190505050611b75565b005b34801561089657600080fd5b506108d5600480360381019080803573ffffffffffffffffffffffffffffffffffffffff16906020019092919080359060200190929190505050611bed565b604051808215151515815260200191505060405180910390f35b3480156108fb57600080fd5b5061093a600480360381019080803573ffffffffffffffffffffffffffffffffffffffff16906020019092919080359060200190929190505050611dd0565b005b34801561094857600080fd5b50610951611e8c565b6040518082815260200191505060405180910390f35b34801561097357600080fd5b506109a8600480360381019080803573ffffffffffffffffffffffffffffffffffffffff169060200190929190505050611e92565b604051808215151515815260200191505060405180910390f35b3480156109ce57600080fd5b506109d7611ee8565b604051808215151515815260200191505060405180910390f35b3480156109fd57600080fd5b50610a1e600480360381019080803515159060200190929190505050611efb565b005b348015610a2c57600080fd5b50610a4b60048036038101908080359060200190929190505050611f73565b005b348015610a5957600080fd5b50610a62611fd8565b6040518082815260200191505060405180910390f35b348015610a8457600080fd5b50610ad9600480360381019080803573ffffffffffffffffffffffffffffffffffffffff169060200190929190803573ffffffffffffffffffffffffffffffffffffffff169060200190929190505050611fe2565b6040518082815260200191505060405180910390f35b348015610afb57600080fd5b50610b04612068565b604051808273ffffffffffffffffffffffffffffffffffffffff1673ffffffffffffffffffffffffffffffffffffffff16815260200191505060405180910390f35b348015610b5257600080fd5b50610b87600480360381019080803573ffffffffffffffffffffffffffffffffffffffff169060200190929190505050610b9d565b6040518082815260200191505060405180910390f35b6000600860008373ffffffffffffffffffffffffffffffffffffffff1673ffffffffffffffffffffffffffffffffffffffff16815260200190815260200160002060009054906101000a900460ff1615610bfb576005549050610c01565b60045490505b919050565b6000600260009054906101000a900460ff161515610c275760009050610c3f565b600154421015610c3a5760009050610c3f565b600190505b90565b60006002809054906101000a900473ffffffffffffffffffffffffffffffffffffffff1673ffffffffffffffffffffffffffffffffffffffff163373ffffffffffffffffffffffffffffffffffffffff16141515610c9f57600080fd5b600260009054906101000a900460ff1615610cb957600080fd5b6000600260006101000a81548160ff021916908315150217905550816064038260035402811515610ce657fe5b0490508060036000828254019250508190555080600760006002809054906101000a900473ffffffffffffffffffffffffffffffffffffffff1673ffffffffffffffffffffffffffffffffffffffff1673ffffffffffffffffffffffffffffffffffffffff168152602001908152602001600020600082825401925050819055506002809054906101000a900473ffffffffffffffffffffffffffffffffffffffff1673ffffffffffffffffffffffffffffffffffffffff1660007fddf252ad1be2c89b69c2b068fc378daa952ba7f163c4a11628f55a4df523b3ef836040518082815260200191505060405180910390a36002809054906101000a900473ffffffffffffffffffffffffffffffffffffffff1673ffffffffffffffffffffffffffffffffffffffff166108fc3073ffffffffffffffffffffffffffffffffffffffff16319081150290604051600060405180830381858888f193505050501515610e5057600080fd5b5050565b6040805190810160405280600c81526020017f4c616e63657220546f6b656e000000000000000000000000000000000000000081525081565b6000600260009054906101000a900460ff1615610ea957600080fd5b600260019054906101000a900460ff161515610ec457600080fd5b816000803373ffffffffffffffffffffffffffffffffffffffff1673ffffffffffffffffffffffffffffffffffffffff16815260200190815260200160002060008573ffffffffffffffffffffffffffffffffffffffff1673ffffffffffffffffffffffffffffffffffffffff168152602001908152602001600020819055508273ffffffffffffffffffffffffffffffffffffffff163373ffffffffffffffffffffffffffffffffffffffff167f8c5be1e5ebec7d5bd14f71427d1e84f3dd0314c0f7b2291e5b200ac8c7c3b925846040518082815260200191505060405180910390a36001905092915050565b6002809054906101000a900473ffffffffffffffffffffffffffffffffffffffff1673ffffffffffffffffffffffffffffffffffffffff163373ffffffffffffffffffffffffffffffffffffffff1614151561100e57600080fd5b80600660006101000a81548160ff02191690831515021790555050565b6000600a60008373ffffffffffffffffffffffffffffffffffffffff1673ffffffffffffffffffffffffffffffffffffffff168152602001908152602001600020549050919050565b6000600354905090565b6000600260009054906101000a900460ff161561109a57600080fd5b600260019054906101000a900460ff1615156110b557600080fd5b81600760008673ffffffffffffffffffffffffffffffffffffffff1673ffffffffffffffffffffffffffffffffffffffff168152602001908152602001600020541015801561117f5750816000808673ffffffffffffffffffffffffffffffffffffffff1673ffffffffffffffffffffffffffffffffffffffff16815260200190815260200160002060003373ffffffffffffffffffffffffffffffffffffffff1673ffffffffffffffffffffffffffffffffffffffff1681526020019081526020016000205410155b801561118b5750600082115b80156112165750600760008473ffffffffffffffffffffffffffffffffffffffff1673ffffffffffffffffffffffffffffffffffffffff1681526020019081526020016000205482600760008673ffffffffffffffffffffffffffffffffffffffff1673ffffffffffffffffffffffffffffffffffffffff1681526020019081526020016000205401115b156113ac5781600760008673ffffffffffffffffffffffffffffffffffffffff1673ffffffffffffffffffffffffffffffffffffffff16815260200190815260200160002060008282540392505081905550816000808673ffffffffffffffffffffffffffffffffffffffff1673ffffffffffffffffffffffffffffffffffffffff16815260200190815260200160002060003373ffffffffffffffffffffffffffffffffffffffff1673ffffffffffffffffffffffffffffffffffffffff1681526020019081526020016000206000828254039250508190555081600760008573ffffffffffffffffffffffffffffffffffffffff1673ffffffffffffffffffffffffffffffffffffffff168152602001908152602001600020600082825401925050819055508273ffffffffffffffffffffffffffffffffffffffff168473ffffffffffffffffffffffffffffffffffffffff167fddf252ad1be2c89b69c2b068fc378daa952ba7f163c4a11628f55a4df523b3ef846040518082815260200191505060405180910390a3600190506113b1565b600090505b9392505050565b6002809054906101000a900473ffffffffffffffffffffffffffffffffffffffff1673ffffffffffffffffffffffffffffffffffffffff163373ffffffffffffffffffffffffffffffffffffffff1614151561141357600080fd5b6001600860008373ffffffffffffffffffffffffffffffffffffffff1673ffffffffffffffffffffffffffffffffffffffff16815260200190815260200160002060006101000a81548160ff02191690831515021790555050565b601281565b600260009054906101000a900460ff161561148d57600080fd5b6000600b60009054906101000a900473ffffffffffffffffffffffffffffffffffffffff1673ffffffffffffffffffffffffffffffffffffffff1614156114d357600080fd5b60008114156114e157600080fd5b600760003373ffffffffffffffffffffffffffffffffffffffff1673ffffffffffffffffffffffffffffffffffffffff1681526020019081526020016000205481111561152d57600080fd5b80600760003373ffffffffffffffffffffffffffffffffffffffff1673ffffffffffffffffffffffffffffffffffffffff168152602001908152602001600020600082825403925050819055508060036000828254039250508190555080600c60008282540192505081905550600b60009054906101000a900473ffffffffffffffffffffffffffffffffffffffff1673ffffffffffffffffffffffffffffffffffffffff16637a3130e333836040518363ffffffff167c0100000000000000000000000000000000000000000000000000000000028152600401808373ffffffffffffffffffffffffffffffffffffffff1673ffffffffffffffffffffffffffffffffffffffff16815260200182815260200192505050600060405180830381600087803b15801561165f57600080fd5b505af1158015611673573d6000803e3d6000fd5b50505050600b60009054906101000a900473ffffffffffffffffffffffffffffffffffffffff1673ffffffffffffffffffffffffffffffffffffffff163373ffffffffffffffffffffffffffffffffffffffff167f18df02dcc52b9c494f391df09661519c0069bd8540141946280399408205ca1a836040518082815260200191505060405180910390a350565b6002809054906101000a900473ffffffffffffffffffffffffffffffffffffffff1673ffffffffffffffffffffffffffffffffffffffff163373ffffffffffffffffffffffffffffffffffffffff1614151561175c57600080fd5b8060058190555050565b600080600660009054906101000a900460ff16151561178457600080fd5b600760003373ffffffffffffffffffffffffffffffffffffffff1673ffffffffffffffffffffffffffffffffffffffff168152602001908152602001600020549150600a60003373ffffffffffffffffffffffffffffffffffffffff1673ffffffffffffffffffffffffffffffffffffffff168152602001908152602001600020549050600082141561181657600080fd5b6000600760003373ffffffffffffffffffffffffffffffffffffffff1673ffffffffffffffffffffffffffffffffffffffff168152602001908152602001600020819055506000600a60003373ffffffffffffffffffffffffffffffffffffffff1673ffffffffffffffffffffffffffffffffffffffff16815260200190815260200160002081905550816003600082825403925050819055503373ffffffffffffffffffffffffffffffffffffffff167fbb28353e4598c3b9199101a66e0989549b659a59a54d2c27fbb183f1932c8e6d826040518082815260200191505060405180910390a23373ffffffffffffffffffffffffffffffffffffffff166108fc829081150290604051600060405180830381858888f19350505050151561193e57600080fd5b5050565b6000600760008373ffffffffffffffffffffffffffffffffffffffff1673ffffffffffffffffffffffffffffffffffffffff168152602001908152602001600020549050919050565b600260009054906101000a900460ff16156119a557600080fd5b6000600b60009054906101000a900473ffffffffffffffffffffffffffffffffffffffff1673ffffffffffffffffffffffffffffffffffffffff161415156119ec57600080fd5b6002809054906101000a900473ffffffffffffffffffffffffffffffffffffffff1673ffffffffffffffffffffffffffffffffffffffff163373ffffffffffffffffffffffffffffffffffffffff16141515611a4757600080fd5b80600b60006101000a81548173ffffffffffffffffffffffffffffffffffffffff021916908373ffffffffffffffffffffffffffffffffffffffff16021790555050565b6002809054906101000a900473ffffffffffffffffffffffffffffffffffffffff1673ffffffffffffffffffffffffffffffffffffffff163373ffffffffffffffffffffffffffffffffffffffff16141515611ae657600080fd5b8060018190555050565b600b60009054906101000a900473ffffffffffffffffffffffffffffffffffffffff1681565b6000426001541115611b2e5742600154039050611b33565b600090505b90565b600c5481565b6040805190810160405280600381526020017f4c4e43000000000000000000000000000000000000000000000000000000000081525081565b6002809054906101000a900473ffffffffffffffffffffffffffffffffffffffff1673ffffffffffffffffffffffffffffffffffffffff163373ffffffffffffffffffffffffffffffffffffffff16141515611bd057600080fd5b80600260016101000a81548160ff02191690831515021790555050565b600080600260009054906101000a900460ff1615611c0a57600080fd5b600260019054906101000a900460ff161515611c2557600080fd5b600760003373ffffffffffffffffffffffffffffffffffffffff1673ffffffffffffffffffffffffffffffffffffffff168152602001908152602001600020549050828110158015611c775750600083115b15611dc457828103905080600760003373ffffffffffffffffffffffffffffffffffffffff1673ffffffffffffffffffffffffffffffffffffffff1681526020019081526020016000208190555082600760008673ffffffffffffffffffffffffffffffffffffffff1673ffffffffffffffffffffffffffffffffffffffff1681526020019081526020016000206000828254019250508190555042600960003373ffffffffffffffffffffffffffffffffffffffff1673ffffffffffffffffffffffffffffffffffffffff168152602001908152602001600020819055508373ffffffffffffffffffffffffffffffffffffffff163373ffffffffffffffffffffffffffffffffffffffff167fddf252ad1be2c89b69c2b068fc378daa952ba7f163c4a11628f55a4df523b3ef856040518082815260200191505060405180910390a360019150611dc9565b600091505b5092915050565b6002809054906101000a900473ffffffffffffffffffffffffffffffffffffffff1673ffffffffffffffffffffffffffffffffffffffff163373ffffffffffffffffffffffffffffffffffffffff16141515611e2b57600080fd5b80600760008473ffffffffffffffffffffffffffffffffffffffff1673ffffffffffffffffffffffffffffffffffffffff16815260200190815260200160002060008282540192505081905550806003600082825401925050819055505050565b60015481565b6000600860008373ffffffffffffffffffffffffffffffffffffffff1673ffffffffffffffffffffffffffffffffffffffff16815260200190815260200160002060009054906101000a900460ff169050919050565b600260009054906101000a900460ff1681565b6002809054906101000a900473ffffffffffffffffffffffffffffffffffffffff1673ffffffffffffffffffffffffffffffffffffffff163373ffffffffffffffffffffffffffffffffffffffff16141515611f5657600080fd5b80600260006101000a81548160ff02191690831515021790555050565b6002809054906101000a900473ffffffffffffffffffffffffffffffffffffffff1673ffffffffffffffffffffffffffffffffffffffff163373ffffffffffffffffffffffffffffffffffffffff16141515611fce57600080fd5b8060048190555050565b6000600d54905090565b60008060008473ffffffffffffffffffffffffffffffffffffffff1673ffffffffffffffffffffffffffffffffffffffff16815260200190815260200160002060008373ffffffffffffffffffffffffffffffffffffffff1673ffffffffffffffffffffffffffffffffffffffff16815260200190815260200160002054905092915050565b6002809054906101000a900473ffffffffffffffffffffffffffffffffffffffff16815600a165627a7a7230582013392cc0a35053ec423f82773e1269be7bf28b1608b42da83fc347dcff08932a0029",
  "source": "/**\r\n *Submitted for verification at Etherscan.io on 2018-03-22\r\n*/\r\n\r\n//--------------------------------------------------------------//\r\n//---------------------BLOCKLANCER TOKEN -----------------------//\r\n//--------------------------------------------------------------//\r\n\r\npragma solidity ^0.4.8;\r\n\r\n/// Migration Agent\r\n/// allows us to migrate to a new contract should it be needed\r\n/// makes blocklancer future proof\r\ncontract MigrationAgent {\r\n    function migrateFrom(address _from, uint256 _value);\r\n}\r\n\r\ncontract ERC20Interface {\r\n     // Get the total token supply\r\n     function totalSupply() constant returns (uint256 totalSupply);\r\n  \r\n     // Get the account balance of another account with address _owner\r\n     function balanceOf(address _owner) constant returns (uint256 balance);\r\n  \r\n     // Send _value amount of tokens to address _to\r\n     function transfer(address _to, uint256 _value) returns (bool success);\r\n  \r\n     // Send _value amount of tokens from address _from to address _to\r\n     function transferFrom(address _from, address _to, uint256 _value) returns (bool success);\r\n  \r\n     // Allow _spender to withdraw from your account, multiple times, up to the _value amount.\r\n     // If this function is called again it overwrites the current allowance with _value.\r\n     // this function is required for some DEX functionality\r\n     function approve(address _spender, uint256 _value) returns (bool success);\r\n  \r\n     // Returns the amount which _spender is still allowed to withdraw from _owner\r\n     function allowance(address _owner, address _spender) constant returns (uint256 remaining);\r\n  \r\n     // Triggered when tokens are transferred.\r\n     event Transfer(address indexed _from, address indexed _to, uint256 _value);\r\n  \r\n     // Triggered whenever approve(address _spender, uint256 _value) is called.\r\n     event Approval(address indexed _owner, address indexed _spender, uint256 _value);\r\n}\r\n\r\n/// Blocklancer Token (LNC) - crowdfunding code for Blocklancer Project\r\ncontract BlocklancerToken is ERC20Interface {\r\n    string public constant name = \"Lancer Token\";\r\n    string public constant symbol = \"LNC\";\r\n    uint8 public constant decimals = 18;  // 18 decimal places, the same as ETH.\r\n    \r\n    mapping(address => mapping (address => uint256)) allowed;\r\n\r\n    uint public fundingStart;\r\n\r\n    // The flag indicates if the LNC contract is in Funding state.\r\n    bool public funding = true;\r\n    bool allowTransfer=false;\r\n\r\n    // Receives ETH and its own LNC endowment.\r\n    address public master;\r\n\r\n    // The current total token supply.\r\n    uint256 totalTokens;\r\n    \r\n    uint exchangeRate=20000;\r\n\tuint EarlyInvestorExchangeRate=25000;\r\n\t\r\n\tbool startRefund=false;\r\n\r\n    mapping (address => uint256) balances;\r\n    mapping (address => bool) initialInvestor;\r\n    mapping (address => uint) lastTransferred;\r\n    \r\n    //needed to refund everyone should the ICO fail\r\n    // needed because the price per LNC isn't linear\r\n    mapping (address => uint256) balancesEther;\r\n\r\n    //address of the contract that manages the migration\r\n    //can only be changed by the creator\r\n    address public migrationAgent;\r\n    \r\n    //total amount of token migrated\r\n    //allows everyone to see the progress of the migration\r\n    uint256 public totalMigrated;\r\n\r\n    event Migrate(address indexed _from, address indexed _to, uint256 _value);\r\n    event Refund(address indexed _from, uint256 _value);\r\n    \r\n    //total amount of participants in the ICO\r\n    uint totalParticipants;\r\n\r\n    function BlocklancerToken() {\r\n        master = msg.sender;\r\n        fundingStart = 1501977600;\r\n        initialInvestor[0x32be343b94f860124dc4fee278fdcbd38c102d88]=true;initialInvestor[0x3106fe2245b376888d684bdcd83dfa9641a869ff]=true;initialInvestor[0x7f7c64c7b7f5a611e739b4da26659bf741414917]=true;initialInvestor[0x4b3b8e0c2c221e916a48e2e5f3718ae2bce51894]=true;initialInvestor[0x507c8fea802a0772eb5e001a8fba38f36fb9b66b]=true;initialInvestor[0x3c35b66dbaf1bc716f41759c7513a7af2f727ce0]=true;initialInvestor[0x7da3ff5dc152352dcffaf08d528e78f1efd4e9d1]=true;initialInvestor[0x404b688a1d9eb850be2527c5dd341561cfa84e11]=true;initialInvestor[0x80ad7165f29f97896a0b5758193879de34fd9712]=true;initialInvestor[0xd70837a61a322f69ba3742111216a7b97d61d3a7]=true;initialInvestor[0x5eefc4f295045ea11827f515c10d50829580cd31]=true;initialInvestor[0xc8c154d54e8d66073b23361cc74cf5d13efc4dc9]=true;initialInvestor[0x00b279438dff4bb6f37038b12704e31967955cb0]=true;initialInvestor[0xfff78f0db7995c7f2299d127d332aef95bc3e7b7]=true;initialInvestor[0xae631a37ad50bf03e8028d0ae8ba041c70ac4c70]=true;initialInvestor[0x4effca51ba840ae9563f5ac1aa794d1e5d3a3806]=true;initialInvestor[0x315a233620b8536d37a92d588aaf5eb050b50d84]=true;initialInvestor[0x1ebf9e3470f303f6a6ac43347e41877b0a5aaa39]=true;initialInvestor[0xbf022480bda3f6c839cd443397761d5e83f3c02b]=true;initialInvestor[0xe727ea5340256a5236287ee3074eea34d8483457]=true;initialInvestor[0x45ecfeea42fc525c0b29313d3de9089488ef71dc]=true;initialInvestor[0xe59e4aac45862796cb52434967cf72ea46474ff3]=true;initialInvestor[0x7c367c14a322404f9e332b68d7d661b46a5c93ea]=true;initialInvestor[0x08bea4ccc9c45e506d5bc5e638acaa13fa3e801c]=true;initialInvestor[0x5dfb4a015eb0c3477a99ba88b2ac60459c879674]=true;initialInvestor[0x771a2137708ca7e07e7b7c55e5ea666e88d7c0c8]=true;initialInvestor[0xcc8ab06eb5a14855fc8b90abcb6be2f34ee5cea1]=true;initialInvestor[0x0764d446d0701a9b52382f8984b9d270d266e02c]=true;initialInvestor[0x2d90b415a38e2e19cdd02ff3ad81a97af7cbf672]=true;initialInvestor[0x0d4266de516944a49c8109a4397d1fcf06fb7ed0]=true;initialInvestor[0x7a5159617df20008b4dbe06d645a1b0305406794]=true;initialInvestor[0xaf9e23965c09ebf5d313c669020b0e1757cbb92c]=true;initialInvestor[0x33d94224754c122baa1ebaf455d16a9c82f69c98]=true;initialInvestor[0x267be1c1d684f78cb4f6a176c4911b741e4ffdc0]=true;initialInvestor[0xf6ac7c81ca099e34421b7eff7c9e80c8f56b74ae]=true;initialInvestor[0xd85faf59e73225ef386b46a1b17c493019b23e1e]=true;initialInvestor[0x3833f8dbdbd6bdcb6a883ff209b869148965b364]=true;initialInvestor[0x7ed1e469fcb3ee19c0366d829e291451be638e59]=true;initialInvestor[0x6c1ddafafd55a53f80cb7f4c8c8f9a9f13f61d70]=true;initialInvestor[0x94ef531595ffe510f8dc92e0e07a987f57784338]=true;initialInvestor[0xcc54e4e2f425cc4e207344f9e0619c1e40f42f26]=true;initialInvestor[0x70ee7bfc1aeac50349c29475a11ed4c57961b387]=true;initialInvestor[0x89be0bd8b6007101c7da7170a6461580994221d0]=true;initialInvestor[0xa7802ba51ba87556263d84cfc235759b214ccf35]=true;initialInvestor[0xb6a34bd460f02241e80e031023ec20ce6fc310ae]=true;initialInvestor[0x07004b458b56fb152c06ad81fe1be30c8a8b2ea1]=true;initialInvestor[0xb6da110659ef762a381cf2d6f601eb19b5f5d51e]=true;initialInvestor[0x20abf65634219512c6c98a64614c43220ca2085b]=true;initialInvestor[0x3afd1483693fe606c0e58f580bd08ae9aba092fd]=true;initialInvestor[0x61e120b9ca6559961982d9bd1b1dbea7485b84d1]=true;initialInvestor[0x481525718f1536ca2d739aa7e68b94b5e1d5d2c2]=true;initialInvestor[0x8e129a434cde6f52838fad2d30d8b08f744abf48]=true;initialInvestor[0x13df035952316f5fb663c262064ee39e44aa6b43]=true;initialInvestor[0x03c6c82a1d6d13b2f92ed63a10b1b791ffaa1e02]=true;initialInvestor[0xb079a72c627d0a34b880aee0504b901cbce64568]=true;initialInvestor[0xbf27721ca05c983c902df12492620ab2a8b9db91]=true;initialInvestor[0x4ced2b7d27ac74b0ecb2440d9857ba6c6407149f]=true;initialInvestor[0x330c63a5b737b5542be108a74b3fef6272619585]=true;initialInvestor[0x266dccd07a275a6e72b6bc549f7c2ce9e082f13f]=true;initialInvestor[0xf4280bf77a043568e40da2b8068b11243082c944]=true;initialInvestor[0x67d2f0e2d642a87300781df25c45b00bccaf6983]=true;initialInvestor[0x9f658a6628864e94f9a1c53ba519f0ae37a8b4a5]=true;initialInvestor[0x498d256ee53d4d05269cfa1a80c3214e525076ca]=true;initialInvestor[0xa1beac79dda14bce1ee698fdee47e2f7f2fd1f0d]=true;initialInvestor[0xfeb063bd508b82043d6b4d5c51e1e42b44f39b33]=true;initialInvestor[0xfeb7a283e1dbf2d5d8e9ba64ab5e607a41213561]=true;initialInvestor[0xabedb3d632fddccd4e95957be4ee0daffbe6acdd]=true;initialInvestor[0x4d8a7cb44d317113c82f25a0174a637a8f012ebb]=true;initialInvestor[0xe922c94161d45bdd31433b3c7b912ad214d399ce]=true;initialInvestor[0x11f9ad6eb7e9e98349b8397c836c0e3e88455b0a]=true;initialInvestor[0xfc28b52160639167fa59f30232bd8d43fab681e6]=true;initialInvestor[0xaf8a6c54fc8fa59cfcbc631e56b3d5b22fa42b75]=true;initialInvestor[0xd3c0ebb99a5616f3647f16c2efb40b133b5b1e1c]=true;initialInvestor[0x877341abeac8f44ac69ba7c99b1d5d31ce7a11d7]=true;initialInvestor[0xb22f376f70f34c906a88a91f6999a0bd1a0f3c3d]=true;initialInvestor[0x2c99db3838d6af157c8d671291d560a013c6c01e]=true;initialInvestor[0xd0f38af6984f3f847f7f2fcd6ea27aa878257059]=true;initialInvestor[0x2a5da89176d5316782d7f1c9db74d209679ad9ce]=true;initialInvestor[0xc88eea647a570738e69ad3dd8975577df720318d]=true;initialInvestor[0xb32b18dfea9072047a368ec056a464b73618345a]=true;initialInvestor[0x945b9a00bffb201a5602ee661f2a4cc6e5285ca6]=true;initialInvestor[0x86957ac9a15f114c08296523569511c22e471266]=true;initialInvestor[0x007bfe6994536ec9e89505c7de8e9eb748d3cb27]=true;initialInvestor[0x6ad0f0f578115b6fafa73df45e9f1e9056b84459]=true;initialInvestor[0x621663b4b6580b70b74afaf989c707d533bbec91]=true;initialInvestor[0xdc86c0632e88de345fc2ac01608c63f2ed99605a]=true;initialInvestor[0x3d83bb077b2557ef5f361bf1a9e68d093d919b28]=true;initialInvestor[0x56307b37377f75f397d4936cf507baf0f4943ea5]=true;initialInvestor[0x555cbe849bf5e01db195a81ecec1e65329fff643]=true;initialInvestor[0x7398a2edb928a2e179f62bfb795f292254f6850e]=true;initialInvestor[0x30382b132f30c175bee2858353f3a2dd0d074c3a]=true;initialInvestor[0x5baeac0a0417a05733884852aa068b706967e790]=true;initialInvestor[0xcb12b8a675e652296a8134e70f128521e633b327]=true;initialInvestor[0xaa8c03e04b121511858d88be7a1b2f5a2d70f6ac]=true;initialInvestor[0x77529c0ea5381262db964da3d5f6e2cc92e9b48b]=true;initialInvestor[0x59e5fe8a9637702c6d597c5f1c4ebe3fba747371]=true;initialInvestor[0x296fe436ecc0ea6b7a195ded26451e77e1335108]=true;initialInvestor[0x41bacae05437a3fe126933e57002ae3f129aa079]=true;initialInvestor[0x6cd5b9b60d2bcf81af8e6ef5d750dc9a8f18bf45]=true;\r\n    }\r\n    \r\n    //returns the total amount of participants in the ICO\r\n    function getAmountofTotalParticipants() constant returns (uint){\r\n        return totalParticipants;\r\n    }\r\n\r\n    /// allows to transfer token to another address\r\n    function transfer(address _to, uint256 _value) returns (bool success) {\r\n        // Don't allow in funding state\r\n        if(funding) throw;\r\n        if(!allowTransfer)throw;\r\n\r\n        var senderBalance = balances[msg.sender];\r\n        //only allow if the balance of the sender is more than he want's to send\r\n        if (senderBalance >= _value && _value > 0) {\r\n            //reduce the sender balance by the amount he sends\r\n            senderBalance -= _value;\r\n            balances[msg.sender] = senderBalance;\r\n            \r\n            //increase the balance of the receiver by the amount we reduced the balance of the sender\r\n            balances[_to] += _value;\r\n            \r\n            //saves the last time someone sent LNc from this address\r\n            //is needed for our Token Holder Tribunal\r\n            //this ensures that everyone can only vote one time\r\n            //otherwise it would be possible to send the LNC around and everyone votes again and again\r\n            lastTransferred[msg.sender]=block.timestamp;\r\n            Transfer(msg.sender, _to, _value);\r\n            return true;\r\n        }\r\n        //transfer failed\r\n        return false;\r\n    }\r\n\r\n    //returns the total amount of LNC in circulation\r\n    //get displayed on the website whilst the crowd funding\r\n    function totalSupply() constant returns (uint256 totalSupply) {\r\n        return totalTokens;\r\n    }\r\n    \r\n    //retruns the balance of the owner address\r\n    function balanceOf(address _owner) constant returns (uint256 balance) {\r\n        return balances[_owner];\r\n    }\r\n    \r\n    //returns the amount anyone pledged into this contract\r\n    function EtherBalanceOf(address _owner) constant returns (uint256) {\r\n        return balancesEther[_owner];\r\n    }\r\n    \r\n    //returns the amount anyone pledged into this contract\r\n    function isInitialInvestor(address _owner) constant returns (bool) {\r\n        return initialInvestor[_owner];\r\n    }\r\n    \r\n    //time left before the crodsale begins\r\n    function TimeLeftBeforeCrowdsale() external constant returns (uint256) {\r\n        if(fundingStart>block.timestamp)\r\n            return fundingStart-block.timestamp;\r\n        else\r\n            return 0;\r\n    }\r\n\r\n    // allows us to migrate to anew contract\r\n    function migrate(uint256 _value) external {\r\n        // can only be called if the funding ended\r\n        if(funding) throw;\r\n        \r\n        //the migration agent address needs to be set\r\n        if(migrationAgent == 0) throw;\r\n\r\n        // must migrate more than nothing\r\n        if(_value == 0) throw;\r\n        \r\n        //if the value is higher than the sender owns abort\r\n        if(_value > balances[msg.sender]) throw;\r\n\r\n        //reduce the balance of the owner\r\n        balances[msg.sender] -= _value;\r\n        \r\n        //reduce the token left in the old contract\r\n        totalTokens -= _value;\r\n        totalMigrated += _value;\r\n        \r\n        //call the migration agent to complete the migration\r\n        //credits the same amount of LNC in the new contract\r\n        MigrationAgent(migrationAgent).migrateFrom(msg.sender, _value);\r\n        Migrate(msg.sender, migrationAgent, _value);\r\n    }\r\n\r\n    //sets the address of the migration agent\r\n    function setMigrationAgent(address _agent) external {\r\n        //not possible in funding mode\r\n        if(funding) throw;\r\n        \r\n        //only allow to set this once\r\n        if(migrationAgent != 0) throw;\r\n        \r\n        //anly the owner can call this function\r\n        if(msg.sender != master) throw;\r\n        \r\n        //set the migration agent\r\n        migrationAgent = _agent;\r\n    }\r\n    \r\n    function setExchangeRate(uint _exchangeRate){\r\n        if(msg.sender!=master)throw;\r\n        exchangeRate=_exchangeRate;\r\n    }\r\n    \r\n    function setICORunning(bool r){\r\n        if(msg.sender!=master)throw;\r\n        funding=r;\r\n    }\r\n    \r\n    function setTransfer(bool r){\r\n        if(msg.sender!=master)throw;\r\n        allowTransfer=r;\r\n    }\r\n\t\r\n\tfunction addInitialInvestor(address invest){\r\n\t\tif(msg.sender!=master)throw;\r\n\t\tinitialInvestor[invest]=true;\r\n\t}\r\n\t\r\n\tfunction addToken(address invest,uint256 value){\r\n\t\tif(msg.sender!=master)throw;\r\n\t\tbalances[invest]+=value;\r\n\t\ttotalTokens+=value;\r\n\t}\r\n\t\r\n\tfunction setEarlyInvestorExchangeRate(uint invest){\r\n\t\tif(msg.sender!=master)throw;\r\n\t\tEarlyInvestorExchangeRate=invest;\r\n\t}\r\n\t\r\n\tfunction setStartDate(uint time){\r\n\t\tif(msg.sender!=master)throw;\r\n\t\tfundingStart=time;\r\n\t}\r\n\t\r\n\tfunction setStartRefund(bool s){\r\n\t\tif(msg.sender!=master)throw;\r\n\t\tstartRefund=s;\r\n\t}\r\n    \r\n    //return the current exchange rate -> LNC per Ether\r\n    function getExchangeRate(address investorAddress) constant returns(uint){\r\n\t\tif(initialInvestor[investorAddress])\r\n\t\t\treturn EarlyInvestorExchangeRate;\r\n\t\telse\r\n\t\t\treturn exchangeRate;\r\n    }\r\n    \r\n    //returns if the crowd sale is still open\r\n    function ICOopen() constant returns(bool){\r\n        if(!funding) return false;\r\n        else if(block.timestamp < fundingStart) return false;\r\n        else return true;\r\n    }\r\n\r\n    //when someone send ether to this contract\r\n    function() payable external {\r\n        //not possible if the funding has ended\r\n        if(!funding) throw;\r\n        \r\n        //not possible before the funding started\r\n        if(block.timestamp < fundingStart) throw;\r\n\r\n        // Do not allow creating 0 or more than the cap tokens.\r\n        if(msg.value == 0) throw;\r\n\r\n        //calculate the amount of LNC the sender receives\r\n        var numTokens = msg.value * getExchangeRate(msg.sender);\r\n        totalTokens += numTokens;\r\n\r\n        // increase the amount of token the sender holds\r\n        balances[msg.sender] += numTokens;\r\n        \r\n        //increase the amount of ether the sender pledged into the contract\r\n        balancesEther[msg.sender] += msg.value;\r\n        \r\n        //icrease the amount of people that sent ether to this contract\r\n        totalParticipants+=1;\r\n\r\n        // Log token creation\r\n        Transfer(0, msg.sender, numTokens);\r\n    }\r\n\r\n    //called after the crodsale ended\r\n    //needed to allow everyone to send their LNC around\r\n    function finalize(uint percentOfTotal) external {\r\n        if(msg.sender!=master)throw;\r\n        if(funding)throw;\r\n\r\n        // allows to tranfer token to another address\r\n        // disables buying LNC\r\n        funding = false;\r\n\r\n        //send 12% of the token to the devs\r\n        //10 % for the devs\r\n        //2 % for the bounty participants\r\n        uint256 additionalTokens = totalTokens * percentOfTotal / (100 - percentOfTotal);\r\n        totalTokens += additionalTokens;\r\n        balances[master] += additionalTokens;\r\n        Transfer(0, master, additionalTokens);\r\n\r\n        // Transfer ETH to the Blocklancer address.\r\n        if (!master.send(this.balance)) throw;\r\n    }\r\n\t\r\n\t//everyone needs to call this function should the minimum cap not be reached\r\n    //refunds the sender\r\n    function refund() external {\r\n        if(!startRefund) throw;\r\n\r\n        var gntValue = balances[msg.sender];\r\n        var ethValue = balancesEther[msg.sender];\r\n        if (gntValue == 0) throw;\r\n        \r\n        //set the amount of token the sender has to 0\r\n        balances[msg.sender] = 0;\r\n        \r\n        //set the amount of ether the sender owns to 0\r\n        balancesEther[msg.sender] = 0;\r\n        totalTokens -= gntValue;\r\n\r\n        Refund(msg.sender, ethValue);\r\n        if (!msg.sender.send(ethValue)) throw;\r\n    }\r\n\t\r\n    // Send _value amount of tokens from address _from to address _to\r\n    // The transferFrom method is used for a withdraw workflow, allowing contracts to send\r\n     // tokens on your behalf, for example to \"deposit\" to a contract address and/or to charge\r\n     // fees in sub-currencies; the command should fail unless the _from account has\r\n     // deliberately authorized the sender of the message via some mechanism; we propose\r\n     // these standardized APIs for approval:\r\n     function transferFrom(address _from,address _to,uint256 _amount) returns (bool success) {\r\n         if(funding) throw;\r\n         if(!allowTransfer)throw;\r\n         if (balances[_from] >= _amount\r\n             && allowed[_from][msg.sender] >= _amount\r\n             && _amount > 0\r\n             && balances[_to] + _amount > balances[_to]) {\r\n             balances[_from] -= _amount;\r\n             allowed[_from][msg.sender] -= _amount;\r\n             balances[_to] += _amount;\r\n             Transfer(_from, _to, _amount);\r\n             return true;\r\n         } else {\r\n             return false;\r\n         }\r\n     }\r\n  \r\n     // Allow _spender to withdraw from your account, multiple times, up to the _value amount.\r\n     // If this function is called again it overwrites the current allowance with _value.\r\n     function approve(address _spender, uint256 _amount) returns (bool success) {\r\n         if(funding) throw;\r\n         if(!allowTransfer)throw;\r\n         allowed[msg.sender][_spender] = _amount;\r\n         Approval(msg.sender, _spender, _amount);\r\n         return true;\r\n     }\r\n  \r\n     function allowance(address _owner, address _spender) constant returns (uint256 remaining) {\r\n         return allowed[_owner][_spender];\r\n     }\r\n}",
  "sourcePath": "/workdir/truffle_example/before/0x63e634330A20150DbB61B15648bC73855d6CCF07/contracts/0x63e634330A20150DbB61B15648bC73855d6CCF07.sol",
  "compiler": {
    "name": "solc",
    "version": "0.4.25+commit.59dbf8f1.Emscripten.clang"
  },
  "schemaVersion": "3.4.8",
  "updatedAt": "2022-08-14T09:30:32.698Z",
  "networkType": "ethereum",
  "devdoc": {
    "methods": {}
  },
  "userdoc": {
    "methods": {
      "transfer(address,uint256)": {
        "notice": "allows to transfer token to another address"
      }
    }
  }
}